:020000000C945E
:1000020092020C9400000C9400000C9400000C94DA
:1000120000000C9400000C9400000C9400000C945E
:1000220000000C9400000C9400000C9400000C944E
:1000320000000C9400000C9401180C9400000C9425
:1000420000000C9400000C9400000C9400000C942E
:1000520017180C9400000C9400000C9400000C94EF
:1000620000000C94D9090C9400000C9400000C942C
:1000720000000C9400000C9400000C9400000C94FE
:1000820000000C9400000C9400000C9400000C94EE
:1000920000000C9400000C9400000C9400000C94DE
:1000A20000000C9400000C9400000C9400000C94CE
:1000B20000000C9400000C947E110C9400000C942F
:1000C20000000C9400000C9400000C9400000C94AE
:1000D20000000C9400000C9400000C9400000C949E
:1000E20000000C9400000C9400000C9400000C948E
:1000F20000000C9400000C9400000C9400000C947E
:1001020000000C9400000C9400000C9400000C946D
:1001120000000C9400000C9400000C9400000C945D
:1001220000000C9400000C9400000C9400000C944D
:1001320000000C9468190C9400000C9400000C94BC
:1001420000000C9400000C9400000C9400000C942D
:1001520000000C9400000C9400000C9400000C941D
:1001620000000C9400000C9400000C9400000C940D
:1001720000000C9400000C9400000C9400000C94FD
:1001820000000C9400000C9400000C9400000C94ED
:1001920000000C9400000C9400000C9400000C94DD
:1001A20000000C9400000C9400000C9400000C94CD
:1001B20071190C9400000C9400000C9400000C9433
:1001C20000000C9400000C9400000C9400000C94AD
:1001D20000000C9400000C9400000C9400000C949D
:1001E20000000C940000DE02DF02EB02EB02F602DA
:1001F20003030E031903290333033C034E03610374
:10020200720381039203A20320222A2B2C5B3D5D01
:100212007C7F0000000400020001800040002000FA
:1002220010000800040002000000008000400020CE
:100232000010000800400020001000080004000226
:10024200FF000000000000000000000000000100AC
:10025200000001000000B207000080DE28008033A9
:10026200E101000000001F0000001C0000001F0050
:1002720000001E0000001F0000001E0000001F0002
:1002820000001F0000001E0000001F0000001E00F2
:1002920000001F000000000000001F0000001C0002
:1002A20000001F0000001E0000001F0000001E00D2
:1002B20000001F0000001F0000001E0000001F00C1
:1002C20000001E0000001F000000303A2F7465730A
:1002D200742E747874000100030001000046525F1E
:1002E2004449534B5F4552520046525F494E545F58
:1002F2004552520046525F4E4F545F524541445957
:100302000046525F4E4F5F46494C450046525F4E93
:100312004F5F504154480046525F494E56414C4946
:10032200445F4E414D450046525F44454E49454467
:100332000046525F45584953540046525F494E5653
:10034200414C49445F4F424A4543540046525F572D
:10035200524954455F50524F544543544544004618
:10036200525F494E56414C49445F445249564500FA
:1003720046525F4E4F545F454E41424C4544004603
:10038200525F4E4F5F46494C4553595354454D00B9
:1003920046525F4D4B46535F41424F5254454400D3
:1003A20046525F54494D454F5554004552524F52A3
:1003B2003A2025700D0A00303A2F256C642E6269AE
:1003C2006E0025366C64004C6F676963616C206453
:1003D2007269766520303A206D6F756E746564209F
:1003E2004F4B0D0A0046696C6520257320637265C8
:1003F20061746564204F4B0D0A007468697320694B
:100402007320746573740025752062797465732096
:100412007772697474656E206F662025750D0A0007
:1004220066696C6520736420636172640046696C5E
:100432006520257320636C6F736564204F4B0D0A32
:100442000046696C652065737420797A650073745F
:1004520061727420693263006275662069326320BA
:100462007374617274206F6B00626D702069326305
:10047200207374617274206F6B005350492053547F
:10048200415254006164373730352073746172749D
:10049200206F6B00737461727420646576696365A2
:1004A200005354415254205748494C450000010022
:1004B200EBFE904D53444F53352E30004E4F204E9D
:1004C200414D452020202046415433322020200037
:1004D2004E4F204E414D45202020204641542020A1
:1004E200202020002D4E414E000001002D4E414E95
:1004F20000494E46000001004A3142020B00B73566
:10050200CC020100C335D80201002C36DA02010008
:10051200B336DC020100BD36B0040100C636EC047D
:100522000000F894EE27F091CC01F860F093CC0132
:10053200F8EDF4BFE093A200A0918000AD7FA1602E
:10054200F4BFA093800080E090E4A0E0B0E2ED93DD
:100552000197E9F7E8EFF4E085919591009761F052
:10056200A591B59105901590BF01F00105900D92EE
:100572000197E1F7FB01F0CF8BBF8CBFE0E0E0B960
:10058200E1B9E2B9E3B9E4B9E5B9E6B9E7B9E8B97D
:10059200E9B9EAB9EBB9ECB9EDB9EEB9EFB93E2E6A
:1005A2004E2E5E2E6E2E7E2E8E2E9E2EAE2EE1E0D4
:1005B200BE2EE0E0CE2EDE2EEFEFEDBFEFE5EEBF7A
:1005C200C0E0D0E30C94D119AA931A93E2E0E0932D
:1005D200CA01E981F0E01491E0E0E093CA01E12F61
:1005E200188160C4A0E2F0DFE0930C02A1E2ECDF2C
:1005F200E0930D02E0E0E0930102E3E0E093040205
:10060200E1E1E0930202E0E0E0931802E0931902D4
:10061200E1E0E0932002E0E2E0932102E1E0E093F6
:100622002802E8E2E0932902E1E0E0933002E0E30D
:10063200E0933102E1E0E0933802E8E3E09339022B
:10064200E0E0E0930302E0932202E0932A02E093C7
:100652003202E0933A02E0910002E160E09300028C
:100662004CC0AA930E94E642EC81F0E0A0E2B2E024
:100672000E94E535F801A381A170E1F34FC0A4E225
:10068200A3DFE0934C02A5E29FDFE0934D02E0E09E
:10069200E0934102E3E0E0934402E0E1E0934202AE
:1006A200E0E0E0935802E0935902E1E0E093600257
:1006B200E0E0E0936102E1E0E0936802E8E0E093C9
:1006C2006902E1E0E0937002E0E1E0937102E1E0AF
:1006D200E0937802E8E1E0937902E0E0E0934302FC
:1006E200E0936202E0936A02E0937202E0937A027C
:1006F200E0914002E160E093400285E18A95F1F7E2
:100702000895AA930E94E642EC81F0E0A0E6B2E0EE
:100712000E94E535F801A381A170E1F3D801139697
:10072200E1E0EC93F80124813581F9010E94ED4268
:10073200259608951A930A93E091E407EE7FE093D9
:10074200E40710E000E0163188F4103031F0E12FB8
:10075200F0E0EC5EFE4CE0810E0FE12FF0E0EC5E8B
:10076200FE4CA0810E94BC0F1F5FEDCF00932A3187
:10077200A0912A310E94BC0FE091E407E160E0936E
:10078200E407099119910895E0EAE0937730E0E3F4
:10079200E0937830E3E3E0937930E5E3E0937A3075
:1007A200E0E0E0937B300E94EF35E958FF4CA0E097
:1007B200A0830E94FA350E94FF353CF40E94FA356C
:1007C2000E9405360E941336F4CFE0E0E093C03079
:1007D200EFEAE0937D30E1E0E0937E30E3E6E09300
:1007E2007F30E0E6E0938030E4E6E0938130E0E0C1
:1007F200E0938230E0938330E0938430E09385305D
:10080200E0938630E0938730E0938830E8E9E09324
:100812008930EAE3E0938A30ECEDE0938B30E5E057
:10082200E0938C30E0938D300E941936E358FF4CF0
:10083200A0E0A0830E94FA350E94FF353CF40E949A
:10084200FA350E9420360E941336F4CFE0E0E0939E
:10085200C030EAEAE0938F30E0E6E0939030EAEECF
:10086200E09391300E942E36E157FF4CA0E0A08326
:100872000E94FA350E94FF353CF40E94FA350E942C
:1008820035360E941336F4CFE0E0E093C030E2EA5E
:10089200E093CD30E1E0E093CE30E0E0E093CF3082
:1008A2000E942E36E353FF4CA0E0A0830E94FA354B
:1008B2000E94FF353CF40E94FA350E9443360E94A2
:1008C2001336F4CFE0E0E093C030EDEAE093AE30CF
:1008D200EAE5E093AF30E0E0E093B030EAE5E093A0
:1008E200B130E0E0E093B2300E94EF35E255FF4CC8
:1008F200A0E0A0830E94FA350E94FF353CF40E94DA
:10090200FA350E9451360E941336F4CFE0E0E093AC
:10091200C030E6EAE093ED30E0E0E093EE30E093C1
:10092200EF30E1E0E093F030E0E0E093F1300E945C
:10093200EF35E351FF4CA0E0A0830E94FA350E94FC
:10094200FF353CF40E94FA350E945F360E9413364E
:10095200F4CFE0E0E093C030E1EAE0939330E3E5E6
:10096200E0939430E5E7E0939530EEE6E09396303D
:10097200E0E2E0939730E3E5E0939830E5E6E09338
:100982009930E0E7E0939A30E0E2E0939B30E2E3D3
:10099200E0939C30E1E3E0939D30E0E2E0939E300F
:1009A200E2E3E0939F30E3E3E093A030EAE3E093F5
:1009B200A130E3E3E093A230E6E3E093A330EAE37D
:1009C200E093A430E2E3E093A530E4E3E093A630C1
:1009D200E0E2E093A730E2E3E093A830E0E3E093C3
:1009E200A930E1E3E093AA30E4E3E093AB30E0E046
:1009F200E093AC300E946D36ED56FF4CA0E0A08330
:100A02000E94FA350E94FF353CF40E94FA350E949A
:100A120074360E941336F4CFE0E0E093C030E7EA88
:100A2200E093B430E2E4E093B5300E948236EC54B5
:100A3200FF4CA0E0A0830E94FA350E94FF353CF4EF
:100A42000E94FA350E9489360E941336F4CFE0E004
:100A5200E093C030E7E7E093B730E0E0E093B830EE
:100A6200ECEFE093B9300E942E36E954FF4CA0E03F
:100A7200A0830E94FA350E94FF353CF40E94FA35A9
:100A82000E9497360E941336F4CFE0E0E093C03024
:100A9200EBEAE093C130E5E7E093C230EEE6E093A3
:100AA200C330E7E3E093C430E0E3E093C530E2E330
:100AB200E093C630E2E6E093C730EEE0E093C83060
:100AC200E4E0E093C930E4E1E093CA30EEE0E09381
:100AD200CB300E94A536EF53FF4CA0E0A0830E94CA
:100AE200FA350E94FF353CF40E94FA350E94AC367A
:100AF2000E941336F4CFE0E0E093C030EEEAE093D8
:100B0200D130EFEFE093D230E093D330E093D430A2
:100B1200E093D530E093D630E093D730E093D830ED
:100B2200E093D9300E94BA36EF52FF4CA0E0A08386
:100B32000E94FA350E94FF353CF40E94FA350E9469
:100B4200C1360E941336F4CFE0E0E093C030E4EA0D
:100B5200E093E130E0E0E093E230ECEFE093E33069
:100B6200E8E6E093E430E7EFE093E5300E94EF350A
:100B7200EF51FF4CA0E0A0830E94FA350E94FF359E
:100B82003CF40E94FA350E94CF360E941336F4CF0D
:100B9200E0E0E093C030E8E5E093E730E0E0E093A6
:100BA200E830E093E930E1E0E093EA30E0E0E0931E
:100BB200EB300E94EF35E951FF4CA0E0A0830E9488
:100BC200FA350E94FF353CF40E94FA350E94DD3668
:100BD2000E941336F4CFE0E0E093C030E6E7E09302
:100BE200BB30EFEFE093BC30E093BD300E942E3675
:100BF200E554FF4CA0E0A0830E94FA350E94FF3525
:100C02003CF40E94FA350E94EB360E941336F4CF70
:100C1200E0E0E093C030EAE6E093DB30E0E0E0932E
:100C2200DC30E093DD30E093DE30E093DF300E9491
:100C3200EF35E552FF4CA0E0A0830E94FA350E94F6
:100C4200FF353CF40E94FA350E94F9360E941336B1
:100C5200F4CFE0E0E093C0300895E5EAE093143188
:100C6200E0E4E0931531EFE1E0931631E8E7E09339
:100C72001731E0E0E0931831EBEBE0931931EBE050
:100C8200E0931A31E0E0E0931D31E8E0E0931E3199
:100C9200EDEAE0931F31EDE0E0932031ECEAE093DE
:100CA2002131EDE0E0932231E0E1E0932331E7E20C
:100CB200E0932431E0E0E0932531E4E0E093263153
:100CC200E0E0E0932731E6E0E0932831E0E0E093D2
:100CD20029310895E0E0E0930406E0930006E093F2
:100CE2001006E0931106E0931206E0931306E093D8
:100CF2001406E0931506E0931606E0931706E091BA
:100D02000906E07FE0930906E0E0E0930A06E0933B
:100D12000B06E0932406E0932006E0933006E0936E
:100D22003106E0933206E0933306E0933406E09313
:100D32003506E0933606E0933706E0912906E07F18
:100D4200E0932906E0E0E0932A06E0932B060E9456
:100D52000737E0E0E0935006E8E1E0935106E0E077
:100D6200E0935206E0935306E0935406E09355064F
:100D7200E0935606E0935706E0914906E07FE09340
:100D82004906E0E0E0934A06E0934B06E0E8E09390
:100D92006406E0936006E0E0E0937006E09371067B
:100DA200E0937206E0937306E0937406E09375068F
:100DB200E0937606E0937706E0916906E07FE093A0
:100DC2006906E0E0E0936A06E0936B06E09384062E
:100DD200E0938006E0918006E061E0938006E0E027
:100DE200E0939006E0939106E0E1E0939206E0E062
:100DF200E0939306E0939406E0939506E0939606BB
:100E0200E0939706E0918906E07FE0938906E0E0AF
:100E1200E0938A06E0938B06E093A406E093A00693
:100E2200E093B006E093B106E093B206E093B30616
:100E3200E093B406E093B606E093B706E091A90604
:100E4200E07FE093A906E0E0E093AA06E093AB0618
:100E5200EFE0E093E407E093E007E0E0E093F007DF
:100E6200E093F107E091E907E07FE093E907E0E032
:100E7200E093EA07E093EB070895BA93AA93E0E1BF
:100E8200E0932104E0912104E071E1F7E091240470
:100E9200F09125046091260470912704A881B981FC
:100EA2000E944A42229608951A93E8EDE4BFE09127
:100EB200F000E260E093F000E0915200EF7DE093F9
:100EC2005200E12FEE7FE8601E2FE8EDE4BF1093A1
:100ED200F000E091F100E870E1F31460E8EDE4BFA6
:100EE2001093F000E0E0E0932004E0912104E1712E
:100EF200E1F70E940E37E0912104E061E0932104C2
:100F02000E941B37E0932C04F0932D0460932E046F
:100F120070932F04E1E0E0932004E0E0E0932204E8
:100F220019910895E8EDE4BFE0E0E0932004E09138
:100F32002104E171E1F70E940E370E9420370E94DE
:100F42002937E0912104E061E0932104E1E0E0939C
:100F520020040895BA93AA93EF97659784E5A0E0D9
:100F6200B0E0E4E4F2E00E94F242FE01E85AFF4FF0
:100F72000190119061917081F0010E9432370E94BC
:100F820039370E94E140FE01E45AFF4FA193B19329
:100F920081939083EC8DFD8D6E8D7F8D0E9439370C
:100FA2000E94DA424CF50E9442370E94473749F4C8
:100FB2000E9450370E94553719F40E945E3709F497
:100FC20001C003C00E94683702C00E941B370E9402
:100FD2006D370E947037EC8FFD8F6E8F7F8F0E946E
:100FE20042370E947D370E948237AC8DBD8D8E8D37
:100FF2009F8D0E948737CECF0E94993739F40E9485
:101002009B3719F40E945E3709F401C003C00E94A5
:10101200683702C00E941B370E946D370E949D37BD
:1010220029F0EDE1F0E060E070E004C0ECE1F0E016
:1010320060E070E0E8A7F9A76AA77BA7E88DF98DC1
:101042006A8D7B8D0E9439370E94DF42BCF0E889AD
:10105200F989DE0190960E94A237E88FF98F6A8F94
:101062007B8F0E94AF370E947D370E94B437A88DD4
:10107200B98D8A8D9B8D0E948737E0CF0E94B93748
:101082000E94E741EF5FFF4F6F4F7F4F0E94BF37D4
:101092000E94B9370E94C4370E94CE370E94E741AE
:1010A2000E94D3370E9439370E94CE370E94C4373C
:1010B200ECE3F0E060E070E00E94E7410E94D83784
:1010C2000E943937ECE3F0E060E070E00E94FC41FE
:1010D200DE01A45ABF4FED93FD936D937C930E9462
:1010E20042370E94DD377F936F93FF93EF930E9405
:1010F200AF370E94E437AF91BF918F919F910E94C9
:10110200D2400E94EB370E94D240DE01AA5ABF4F62
:101112000D90BC91A02D0E944A420E94F0370E947D
:10112200DD377F936F93FF93EF930E94F5370E9411
:10113200E437AF91BF918F919F910E94D2400E945C
:1011420039370E94D240DE01AC5ABF4F0D90BC919C
:10115200A02D0E944A42EF96A1960895BA93AA93AF
:10116200EF972D9784E3A8E1B0E0E8E9F2E00E946E
:10117200F2420E94FA370E94C2410E9482370E94C4
:10118200FA370E9407380E94B437DE01AA5ABF4FCD
:101192000D901D908D919C91D0010E9412380E9459
:1011A200BF370E9419380E94C2410E94D3370E9461
:1011B20019380E9407380E94D8370E94993739F4AB
:1011C2000E949B3719F40E945E3709F401C003C0E4
:1011D2000E94683702C00E941B370E946D37DE01F1
:1011E200AE5ABF4F0D901D908D919C91D0010E94DF
:1011F20012387F936F93FF93EF930E94F537ACE31E
:10120200B0E080E090E00E949741AF91BF918F9152
:101212009F910E94D2407F936F93FF93EF93FE01C1
:10122200E25BFF4F0190119061917081F0010E9489
:1012320026380E94D7400E94CE370E947141AF915A
:10124200BF918F919F910E94D2407F936F93FF93A2
:10125200EF930E942B380E943038A8E1B0E080E082
:1012620090E00E9497410E943237AF91BF918F91D7
:101272009F910E94D2400E9435380E944A420E94A9
:101282009D3729F0EDE1F0E060E070E004C0ECE1B0
:10129200F0E060E070E0E8A3F9A36AA37BA30E94F8
:1012A200AF370E9430380E94B4370E943C380E9407
:1012B200D44214F50E943538BF93AF930E943F4247
:1012C2007F936F93FF93EF93E889F989DE01589634
:1012D2000E94A237AF91BF918F919F910E94D240FD
:1012E200AF91BF910E944A420E94AF37319760404E
:1012F20070400E94B437D9CF0E9442370E943038E2
:101302000E9482370E945037A23BE7E0BE07E0E02E
:101312008E07E0E09E0784F10E94993739F40E941B
:101322009B3719F40E945E3709F401C003C00E9482
:10133200683702C00E941B370E946D370E94353801
:10134200BF93AF930E943F427F936F93FF93EF93BC
:101352000E947037AF91BF918F919F910E94D240AE
:10136200AF91BF910E944A420E944237319760403A
:1013720070400E948237C6CFEF966B960895E8E0E0
:10138200E0934506E3E0E093A508E091A308E07C42
:10139200E063E093A308E5EFE093A608ECECE093AA
:1013A200A708E091A408E07EE861E093A40808950C
:1013B2000E944138E091A108E0931231E091A00827
:1013C200E0931331E0911231EC7141F4EA2DF0E037
:1013D200E95CFF4CA0911331A083A394E0914A31C0
:1013E200F0E0EF3FA0E0FA0709F008C3E0913730E0
:1013F200F0E0EF3FA0E0FA0731F40E944F38EFEF40
:10140200E0933730F9C2EA3CA0E0FA0721F4EAECB3
:101412000E945538F1C2E53FA0E0FA0721F4E5EF5A
:101422000E945538E9C2E53BA0E0FA0721F4E5EB5A
:101432000E945D38E1C2EA3EA0E0FA0721F4EAEE3A
:101442000E945538D9C2E53EA0E0FA0721F4E5EE44
:101452000E946538D1C2E73EA0E0FA0721F4E7EE28
:101462000E946538C9C2E036A0E0FA0721F4E0E63E
:101472000E945538C1C2E83EA0E0FA0721F4E8EE26
:101482000E946D38B9C2E93EA0E0FA0721F4E9EE04
:101492000E946D38B1C2E13DA0E0FA0749F4E1EDE6
:1014A200E0934A31E5E0BE2EEFEFE0933730A4C27D
:1014B200E33DA0E0FA0721F4E3ED0E945D389CC20F
:1014C200E53DA0E0FA0721F4E5ED0E94753892C2ED
:1014D200E73DA0E0FA0721F4E7ED0E9475388AC2E1
:1014E200E03AA0E0FA0739F50E947B380E94EF3516
:1014F200E958FF4CA0E0A0830E94FA350E94FF3514
:101502003CF40E94FA350E9405360E941336F4CF4D
:10151200E0E0E093BF300E94803850F4E091BF30A9
:10152200F0E0E958FF4CA08126D50E941336F3CF94
:101532000E94863861C2E13AA0E0FA0739F50E94BA
:101542007B380E946D36ED56FF4CA0E0A0830E94CE
:10155200FA350E94FF353CF40E94FA350E94743637
:101562000E941336F4CFE0E0E093BF300E9480384F
:1015720050F4E091BF30F0E0ED56FF4CA081FBD477
:101582000E941336F3CF0E94863837C2E23AA0E0B7
:10159200FA0739F50E947B380E942E36E353FF4C3E
:1015A200A0E0A0830E94FA350E94FF353CF40E941D
:1015B200FA350E9443360E941336F4CFE0E0E093FE
:1015C200BF300E94803850F4E091BF30F0E0E35326
:1015D200FF4CA081D0D40E941336F3CF0E948638EC
:1015E2000CC2E43AA0E0FA0739F50E947B380E9467
:1015F200EF35EF51FF4CA0E0A0830E94FA350E9424
:10160200FF353CF40E94FA350E94CF360E94133611
:10161200F4CFE0E0E093BF300E94803850F4E091D4
:10162200BF30F0E0EF51FF4CA081A5D40E941336E9
:10163200F3CF0E948638E1C1E63AA0E0FA0739F515
:101642000E947B380E94EF35E351FF4CA0E0A0835B
:101652000E94FA350E94FF353CF40E94FA350E943E
:101662005F360E941336F4CFE0E0E093BF300E9471
:10167200803850F4E091BF30F0E0E351FF4CA0819C
:101682007AD40E941336F3CF0E948638B6C1E73A65
:10169200A0E0FA0739F50E947B380E948236EC54AA
:1016A200FF4CA0E0A0830E94FA350E94FF353CF473
:1016B2000E94FA350E9489360E941336F4CFE0E088
:1016C200E093BF300E94803850F4E091BF30F0E0E8
:1016D200EC54FF4CA0814FD40E941336F3CF0E94EA
:1016E20086388BC1EA3AA0E0FA0739F50E947B38C6
:1016F2000E942E36E157FF4CA0E0A0830E94FA35EB
:101702000E94FF353CF40E94FA350E9435360E9451
:101712001336F4CFE0E0E093BF300E94803850F4FB
:10172200E091BF30F0E0E157FF4CA08124D40E9449
:101732001336F3CF0E94863860C1EB3AA0E0FA0775
:1017420039F50E947B380E94A536EF53FF4CA0E08A
:10175200A0830E94FA350E94FF353CF40E94FA35BC
:101762000E94AC360E941336F4CFE0E0E093BF3023
:101772000E94803850F4E091BF30F0E0EF53FF4C0C
:10178200A081F9D30E941336F3CF0E94863835C167
:10179200ED3AA0E0FA0739F50E947B380E94EF3556
:1017A200E255FF4CA0E0A0830E94FA350E94FF356B
:1017B2003CF40E94FA350E9451360E941336F4CF4F
:1017C200E0E0E093BF300E94803850F4E091BF30F7
:1017D200F0E0E255FF4CA081CED30E941336F3CF46
:1017E2000E9486380AC1EE3AA0E0FA0739F50E9453
:1017F2007B380E94BA36EF52FF4CA0E0A0830E94D1
:10180200FA350E94FF353CF40E94FA350E94C13637
:101812000E941336F4CFE0E0E093BF300E9480389C
:1018220050F4E091BF30F0E0EF52FF4CA081A3D31F
:101832000E941336F3CF0E948638DFC0EF3AA0E051
:10184200FA0739F50E947B380E941936E358FF4C9B
:10185200A0E0A0830E94FA350E94FF353CF40E946A
:10186200FA350E9420360E941336F4CFE0E0E0936E
:10187200BF300E94803850F4E091BF30F0E0E3586E
:10188200FF4CA08178D30E941336F3CF0E94863892
:10189200B4C0E835A0E0FA0739F50E947B380E940F
:1018A200EF35E951FF4CA0E0A0830E94FA350E9477
:1018B200FF353CF40E94FA350E94DD360E94133651
:1018C200F4CFE0E0E093BF300E94803850F4E09122
:1018D200BF30F0E0E951FF4CA0814DD30E94133696
:1018E200F3CF0E94863889C0EA36A0E0FA0739F5BC
:1018F2000E947B380E94EF35E552FF4CA0E0A083A6
:101902000E94FA350E94FF353CF40E94FA350E948B
:10191200F9360E941336F4CFE0E0E093BF300E9424
:10192200803850F4E091BF30F0E0E552FF4CA081E6
:1019320022D30E941336F3CF0E9486385EC0E63768
:10194200A0E0FA0739F50E947B380E942E36E55452
:10195200FF4CA0E0A0830E94FA350E94FF353CF4C0
:101962000E94FA350E94EB360E941336F4CFE0E073
:10197200E093BF300E94803850F4E091BF30F0E035
:10198200E554FF4CA081F7D20E941336F3CF0E9498
:10199200863833C0E737A0E0FA0739F50E947B3872
:1019A2000E942E36E954FF4CA0E0A0830E94FA3533
:1019B2000E94FF353CF40E94FA350E9497360E943D
:1019C2001336F4CFE0E0E093BF300E94803850F449
:1019D200E091BF30F0E0E954FF4CA081CCD20E94EC
:1019E2001336F3CF0E94863808C0EFEFE09337300A
:1019F200E0934A31E1E0BE2EAA2404C0EA3CA0E012
:101A0200FA0739F5E2E0EA1519F5A0913730A1306D
:101A120021F4A0913830A13009F003C00E948D3822
:101A220011C0A0913730AF3021F4A0913830AF30DF
:101A320009F008C00E948D380E944F38E1E0E0931F
:101A4200493105C0EFEFE0934A31E1E0BE2EAA240E
:101A520091C2E53FA0E0FA0711F5E2E0EA15F1F4E0
:101A6200A0913730AF3521F4A0913830AF3509F06D
:101A720012C0A5EF80D2A5EF7ED2A5EF0E949338C7
:101A8200AA24A5E0B0E00E941B3FE8EDE4BFE1E03C
:101A9200E093790003C00E944F38AA246BC2E53B51
:101AA200A0E0FA0791F5E4E0EA1571F50E94963894
:101AB200A091BF30A33078F40E949C380E94A338D2
:101AC200A091BF30B0E0A55BBE4C0E949C38EC9365
:101AD2000E941336EDCFE0913A30E0934E31A0915F
:101AE2003A30E091F330EA1761F4E0913730E09355
:101AF2007630A5EB40D2A5EB0E9493380E94A9381C
:101B020003C00E944F38AA2435C2EA3EA0E0FA0779
:101B120011F5E2E0EA15F1F40E949638A091BF3087
:101B2200A13038F40E949C380E94A3380E941336D8
:101B3200F5CFA0913830E091F330EA1741F4AAEEE4
:101B42001AD2AAEE0E9493380E94A93803C00E94BA
:101B52004F38AA240FC2E036A0E0FA0721F5E2E0EE
:101B6200EA1501F50E949638A091BF30A13038F4F1
:101B72000E949C380E94A3380E941336F5CFA09190
:101B82003830E091F330EA1751F4A0E6F4D1A0E046
:101B9200F2D1A0E00E9493380E94A93803C00E94AB
:101BA2004F38AA24E7C1E53EA0E0FA0711F5E7E0C5
:101BB200EA15F1F40E949638A091BF30A63038F4AD
:101BC2000E949C380E94A3380E941336F5CFA09140
:101BD2003D30E091F330EA1741F4A5EECCD1A5EE09
:101BE2000E9493380E94A93803C00E944F38AA2449
:101BF200C1C1E73EA0E0FA0711F5E7E0EA15F1F40A
:101C02000E949638A091BF30A63038F40E949C38CA
:101C12000E94A3380E941336F5CFA0913D30E09187
:101C2200F330EA1741F4A7EEA6D1A7EE0E9493384B
:101C32000E94A93803C00E944F38AA249BC1E83EE3
:101C4200A0E0FA0711F5E3E0EA15F1F40E949638F4
:101C5200A091BF30A23038F40E949C380E94A33871
:101C62000E941336F5CFA0913930E091F330EA1794
:101C720041F4A8EE80D1A8EE0E9493380E94A938C0
:101C820003C00E944F38AA2475C1E93EA0E0FA07BA
:101C920011F5E3E0EA15F1F40E949638A091BF3005
:101CA200A23038F40E949C380E94A3380E94133656
:101CB200F5CFA0913930E091F330EA1741F4A9EE63
:101CC2005AD1A9EE0E9493380E94A93803C00E94FB
:101CD2004F38AA244FC1E13DA0E0FA0709F046C0FF
:101CE200E5E0EA1509F041C00E949638A091BF30A4
:101CF200A43038F40E949C380E94A3380E94133604
:101D0200F5CFA0913B30E091F330EA1759F5E0E0CE
:101D1200E0933B30E0935331E0935431E0935531FB
:101D2200E09356310E94AE380E94BC380E94CD38F2
:101D32000E94BC38E0913A30F0E00E94D538E0933E
:101D42005331F09354316093553170935631E1E041
:101D5200E0935731A1ED0FD1A1ED0E9493380E947B
:101D6200A93803C00E944F38AA2404C1E33DA0E071
:101D7200FA0709F043C0E4E0EA1509F03EC00E9408
:101D82009638A091BF30A33038F40E949C380E944C
:101D9200A3380E941336F5CFA0913A30E091F33088
:101DA200EA1741F5E0E0E0933A30E0935931E093ED
:101DB2005A31E0935B31E0935C310E94AE380E946D
:101DC200DA380E94E338A4E6B0E080E090E00E94B6
:101DD2007141DF01CB010E94CD380E94DA38E1E087
:101DE200E0935831A3EDC7D0A3ED0E9493380E942F
:101DF200A93803C00E944F38AA24BCC0E53DA0E028
:101E0200FA0709F05AC0E1E0EA1509F055C0A091BD
:101E12003730A53D09F04AC00E94EC380E94FE38D6
:101E22000E94C241E0935D310E94FE380E94F84157
:101E3200DF01CB010E940B390E94C241E0935E3167
:101E42000E9410390E940B390E940738E0935F31DB
:101E52000E9410390E941238E0936031E0E0E09372
:101E6200BF30E0936131A091BF30A43058F4A0910B
:101E720061310E941939E081EA0FE09361310E94D9
:101E82001336F1CFA5ED77D0E0E0E093BF30A0911B
:101E9200BF30A53038F40E941939A0816CD00E945D
:101EA2001336F5CFEFEF0E94753803C0EFEFE093E2
:101EB2004A31E1E0BE2EAA245DC0E73DA0E0FA0768
:101EC20009F052C0E1E0EA1509F04DC0A0913730A7
:101ED200A73D09F042C00E94EC380E941F390E94BF
:101EE200C241E0935D310E941F390E940738E0939E
:101EF2005E31A0915931B0915A3180915B3190910C
:101F02005C310E941238E0935F31E0E0E093BF3031
:101F1200E0936031A091BF30A33058F4A0916031BA
:101F22000E941939E081EA0FE09360310E94133672
:101F3200F1CFA7ED20D0E0E0E093BF30A091BF3019
:101F4200A43038F40E941939A08115D00E941336AA
:101F5200F5CFEFEF0E94753803C0EFEFE0934A31FF
:101F6200E1E0BE2EAA2406C0EFEFE09337300E94D4
:101F72004F38AA24D3C1AA93E091A108E072E1F3F9
:101F8200E881E093A008A1C1E0E8E0936506E3E000
:101F9200E093B509E091B309E07CE093B309EEE682
:101FA200E093B609E8EAE093B709E091B409E07E6C
:101FB200E860E093B4090895AA93E091B109E07250
:101FC200E1F3E881E093B00980C11A9310E0A4EF35
:101FD200B0E30E949433A12FB0E0AE17BF0740F4E4
:101FE200E12FF0E0EC50FF4CA081E6DF1F5FEFCF66
:101FF2000E942839E0E0EA93AEE1B0E00E94773334
:10200200AAE0DADFADE0D8DF4BC1AA93A881A13004
:1020120010F0A03108F01EC00E942839EDEAF3E06A
:10202200FA93EA93EC81A8EEB1E00E942D390E9466
:1020320054420E943339E0E0EA93A0E0B0E00E940B
:10204200952AE0E0E093C335E0934006E09344062E
:102052000E9407373AC1BA93AA93A881B981EC9139
:10206200E07FEC931996ECE0EC93229608951A9394
:102072000A931FB7F894E0910008E07FE560E093CF
:102082000008E0910108E870E0930108E09103087C
:10209200E071E0930308E0910608E07FE160E093DD
:1020A2000608E0910708E070E0930708E0919900C4
:1020B200EE7F0E2FE8EDE4BF00939900E0918008D7
:1020C200E07CE0938008E0918308E87EE093830857
:1020D200E0E0E0938208A4E8B8E00A2EAC91E09137
:1020E2008408E470EA2BA02DEC93E0910C08E093B5
:1020F2000C08E0E0F0E0E0932008F0932108E1E131
:10210200FAE7E0932608F0932708E0E0F0E0E09396
:102112002808F0932908E0932A08F0932B08E0930B
:102122002C08F0932D08E0932E08F0932F081FBF80
:102132000991199108951A931FB7F894A0E4B8E091
:102142008ADFE5E0E0934008E0E0E0934108E093B5
:102152004308E0934408E0914608E07FE160E093A1
:102162004608E0E0E0934708E0919008ED7FE093B5
:102172009008E0914C08E0934C08E0E0F0E0E09336
:102182006008F0936108EFE1FEE4E0936608F093E3
:102192006708E0E0F0E0E0936808F0936908E093F4
:1021A2006A08F0936B087BC01A931FB7F894A0E0FB
:1021B200B9E051DFE4E0E0930009E0E0E0930109D7
:1021C200E0930309E0930409E3E0E0930609E0E009
:1021D200E0930709E0919009EE7FE0939009E09186
:1021E2000C09E0930C09E0E0F0E0E0932009F093A1
:1021F2002109EFE3FCE9E0932609F0932709E0E0E7
:10220200F0E0E0932809F0932909E0932A09F0937A
:102212002B09E0932C09F0932D09E0932E09F093FA
:102222002F093DC01A931FB7F894A0E0BBE013DF5B
:10223200E7E0E093000BE0E0E093010BE093030B97
:10224200E093040BE3E0E093060BE0E0E093070B7E
:10225200E091900BEE7FE093900BE0910C0BE093FA
:102262000C0BE0E0F0E0E093200BF093210BE1E1B6
:10227200FAE7E093260BF093270BE0E0F0E0E0931F
:10228200280BF093290BE0932A0BF0932B0BE0938E
:102292002C0BF0932D0BE0932E0BF0932F0B1FBF03
:1022A20019910895E2E5E093C008E091C108EC7F3E
:1022B200E093C1080895AA93E881E093C308E091EE
:1022C200C208E078E1F3E091C30821960895E0EABC
:1022D200F4E00E943D39A0E00E946F340E9442392E
:1022E200E0EAF4E0FA93EA93E0E4EA93ABE90E94CD
:1022F2008434E0E0E093A80408950A921A92FA92D4
:102302006A937A938A939A93AA93BA93EA93FA93E3
:10231200EFB7EA93A6E0B6E30E94AF34E991EFBFCC
:10232200F991E991B991A9919991899179916991DB
:10233200F990199009901895E6EFE0938F36E7EF40
:10234200E0939036E4EFE0938D36EEE2E0938E3642
:10235200E6EFE0939536E7EFE0939636E8EFE09309
:102362009736E4EFE0939336E0912C36E295E07FE6
:10237200EE0FEE0FEC5CE0939436EAEAE0936136FE
:10238200EBEAE0936236ECEAE0936336EDEAE0933F
:102392006436EEEAE0936536EFEAE0936636E0EB08
:1023A200E0936736E1EBE0936836E2EBE09369365F
:1023B200E3EBE0936A36E4EBE0936B36E5EBE09314
:1023C2006C36E6EBE0936D36E7EBE0936E36E8EBC6
:1023D200E0936F36E9EBE0937036EAEBE093713607
:1023E200EBEBE0937236ECEBE0937336EDEBE093BC
:1023F2007436EEEBE0937536EFEBE09376360895A4
:102402009BDF0E944239E7E7EA93E1E6F6E30E94A6
:102412004739E7E7F6E30E944C39E7E7EA93E3E658
:10242200F6E30E944739E9E7F6E30E944C39E7E711
:10243200EA93E5E6F6E30E944739EBE7F6E30E940A
:102442004C39E7E7EA93E7E6F6E30E944739EDE71E
:10245200F6E30E944C39E7E7EA93E9E6F6E30E94E5
:102462004739EFE7F6E30E944C39E7E7EA93EBE6F8
:10247200F6E30E944739E1E8F6E30E944C39E7E7C8
:10248200EA93EDE6F6E30E944739E3E8F6E30E94B9
:102492004C39E7E7EA93EFE6F6E30E944739E5E8CD
:1024A200F6E30E944C39E7E7EA93E1E7F6E30E949C
:1024B2004739E7E8F6E30E944C39E7E7EA93E3E7B6
:1024C200F6E30E944739E9E8F6E30E944C39E7E770
:1024D200EA93E5E7F6E30E944739EBE8F6E3FA937D
:1024E200EA93A2E00E943735B0917736A0E0E091FE
:1024F2007836F0E0EA0FFB1FE0931236F0931336C2
:10250200F0917936E0E0DF01E0917A36F0E0EA0F0F
:10251200FB1FE0931436F0931536F0917B36E0E022
:10252200DF01E0917C36F0E0EA0FFB1FE093163604
:10253200F0931736F0917D36E0E0DF01E0917E36D0
:10254200F0E0EA0FFB1FE0931836F0931936F09192
:102552007F36E0E0DF01E0918036F0E0EA0FFB1F1A
:10256200E0931A36F0931B36F0918136E0E0DF01FA
:10257200E0918236F0E0EA0FFB1FE0931C36F09305
:102582001D36F0918336E0E0DF01E0918436F0E021
:10259200EA0FFB1FE0931E36F0931F36F09185364B
:1025A200E0E0DF01E0918636F0E0EA0FFB1FE09306
:1025B2002036F0932136F0918736E0E0DF01E0919A
:1025C2008836F0E0EA0FFB1FE0932236F0932336C1
:1025D200F0918936E0E0DF01E0918A36F0E0EA0F1F
:1025E200FB1FE0932436F0932536F0918B36E0E022
:1025F200DF01E0918C36F0E0EA0FFB1FE093263614
:10260200F093273608950E944239E7E7EA93EDE80E
:10261200F6E30E9447390E945239E7E7EA93EFE86E
:10262200F6E30E944739E1E9F6E30E944C39E7E715
:10263200EA93E3E9F6E30E9447390E945239E7E759
:10264200EA93E5E9F6E30E945E39E8E9F6E30E94DF
:102652006339E7E7EA93E6E9F6E30E945E39E9E9DE
:10266200F6E30E946339E7E7EA93E7E9F6E30E94BB
:102672005E39EAE9F6E3FA93EA93A1E00E9437357C
:10268200B0919136A0E0E0919236F0E0EA0FFB1FA4
:102692000E945D41E0932836F093293660932A36F2
:1026A20070932B36E0919836FF27662777270E9492
:1026B20069390E947239E8E00E9401410E94693939
:1026C200E0919936F0E00E9472390E94D5380E945A
:1026D20069390E947239E8E00E9401410E94693919
:1026E200E0919A36F0E00E9472390E94D5380E9439
:1026F2006939A0912C36E8E0EA1B0E9472390E94E7
:102702000D410E946939E0911C36F0911D36A0916D
:102712002836B091293680912A3690912B36662739
:1027220077270E94E140E0911A36F0911B36662726
:1027320077270E947B39EFE00E948039A0912436EE
:10274200B09125360E946241EBE00E9401417F93E5
:102752006F93FF93EF93E0912636F09127360E9414
:102762008B390E94D538AF91BF918F919F910E9472
:10277200E7410E949439E0933936F0933A366093F8
:102782003B3670933C360E94A039E85FFF4F6F4F93
:102792007F4FDF01CB01E4E00E940D41E0933D3623
:1027A200F0933E3660933F36709340360E94913FDD
:1027B200DF01CB010E94A9390E946940E09359369A
:1027C200F0935A3660935B3670935C360E94A03960
:1027D200E05AFF4060407040E0934136F093423649
:1027E20060934336709344360E94AE390E94B739E3
:1027F2000E949741A0912036B09121360E94C039A3
:10280200ECE00E940D41DF01CB01EBE00E94803938
:102812000E94AE39A0911436B09115360E94C0398B
:10282200EBE00E940D410E9494390E94C339A091AD
:102832001236B09113360E946241E4E0F0E060E0AB
:1028420070E00E949741A0914536B0914636809142
:102852004736909148360E94D740E0912C360E942C
:1028620001410E94CC39E0934936F0934A36609395
:102872004B3670934C360E94AE39A0911636B09109
:1028820017360E94C039EDE00E9480390E94AE39AD
:102892000E94B7390E947B39ECE00E940D41A09161
:1028A2001E36B0911F360E9462410E94D5390E94A5
:1028B20094390E94CC390E94C339E0914536F09197
:1028C20046366091473670914836E050F0486F4F77
:1028D2007F4FA0911836B0911936882799270E9408
:1028E2007141DF01CB01EFE00E941941E0935136C3
:1028F200F09352366093533670935436A091493612
:10290200B0914A3680914B3690914C36E0912D36FB
:10291200F0912E3660912F36709130360E94DC4055
:102922007F936F93FF93EF93E0912C36A0E5B3EC86
:102932000E94F840AF91BF918F919F9166277727B0
:102942000E947141E0935536F093563660935736A4
:10295200709358360E94DA39A030E0E0BE07E0E01A
:102962008E07E0E89E0788F4E0915536F0915636DE
:1029720060915736709158360E943C41DF01CB017D
:102982000E94E3390E94C24108C00E94E3390E94BA
:10299200DA390E94C2410E943C41E0934D36F093E5
:1029A2004E3660934F36709350360E94EC397F93C7
:1029B2006F93FF93EF930E94EC39AF91BF918F9188
:1029C2009F910E9497410E94F839E0913136F0912F
:1029D20032366091333670913436AEEDBBE080E032
:1029E20090E00E94D5390E94F8390E94013AA3E48E
:1029F200B3EE8FEF9FEF0E94D5390E949439E153D5
:102A0200F14F6F4F7F4FDF01CB01E4E00E940D4198
:102A12000E940A3A0E94D240E0934D36F0934E361D
:102A220060934F36709350360E94013A0E94913F54
:102A3200DF01CB01EFE6F2E565E073E40E94694055
:102A4200E0935D36F0935E3660935F367093603646
:102A52000895E2E0E093A136E0E0E093A2360E941E
:102A62004239E8E1EA93E1EAF6E30E9447390E943B
:102A7200133AE0939F36E2E3E093A0360E94423994
:102A8200E8E1EA93EFE9F6E388C0E0E0E0939B3601
:102A92000E944239E8E1EA93EBE9F6E30E945E39EB
:102AA200ECE9F6E3FA93EA93A1E080C0E1E0E09377
:102AB2009D360E944239E8E1EA93EDE9F6E36DC002
:102AC200E2E0E093A936E0E0E093AA360E944239C0
:102AD200E9E1EA93E9EAF6E30E9447390E94133AF0
:102AE200E093A736E8E9E093A8360E944239E9E18B
:102AF200EA93E7EAF6E351C0E0E0E093A3360E94EE
:102B02004239E9E1EA93E3EAF6E30E945E39E4EA54
:102B1200F6E3FA93EA93A1E049C0E1E0E093A53637
:102B22000E944239E9E1EA93E5EAF6E336C0E2E0DF
:102B3200E093B136E0E0E093B2360E944239EAE136
:102B4200EA93E1EBF6E30E9447390E94133AE093DD
:102B5200AF36E0E4E093B0360E944239EAE1EA930C
:102B6200EFEAF6E31AC0E0E0E093AB360E944239A6
:102B7200EAE1EA93EBEAF6E30E945E39ECEAF6E375
:102B8200FA93EA93A1E012C0E1E0E093AD360E942D
:102B92004239EAE1EA93EDEAF6E3FA93EA93E2E0F4
:102BA200EA93E0E0F0E0FA93EA93A0E00E9437357E
:102BB2000895AA93E0E1E0934606AB817CDBAA810B
:102BC2007ADBA98178DBA88176DBE0914806ED6F9C
:102BD200EF3FD9F3E0E1E093450624960895AA93E6
:102BE2000E94E442E091B336AE81EA1729F0A130A7
:102BF20011F0A23009F401C010C0AE81A13011F46D
:102C02000E941C3AAE81A23041F4E1E2EA93ECE088
:102C1200EA93E1E1EA93A0E4CCDFEE81E093B336FC
:102C220088249924E0914806ED6FEF3F29F4E0E211
:102C3200FEE48E169F0608F007C0F40131964F019C
:102C42008BE08A95F1F7EECFE0E2FEE4E815F905B4
:102C520019F4EFEFF3E017C0E0E1E09346068BE6EC
:102C62008A95F1F7A8E327DBAFEF25DB2E2F332779
:102C7200AFEF21DB4E2F5527E0E1E0934506F22F1F
:102C8200E0E0E42BF52B0E94EB42279608952F9764
:102C92001A930A9300E0FE0132960E94253A10E050
:102CA2001B3070F40E943A3AAC91E12FF0E0EC5FF5
:102CB200FF4CE081EA1711F001E01CE01F5FF0CF4A
:102CC2000030F9F010E01F3060F4E12FF0E0EC5F2B
:102CD200FF4C0F010E943A3AEC91D001EC931F5F36
:102CE200F2CF0E94413AA3E00E944A3AE03029F032
:102CF2000E94413AAAE00E944A3AA7E9B3E30E943D
:102D02004F3A1981088161960895AA971A93FE0194
:102D1200B596FA93EA93E4ECF3E0FA93EA930E940D
:102D2200E3380E946C4284E00E9412332896E4EF5A
:102D3200E98311E0173088F40E94543AEA0FFB1F2E
:102D42000F01E12FF0E03197DE019596AE0FBF1F24
:102D5200EC91D001EC931F5FEDCFE5EAE887E091BB
:102D62001B30E987E0911C30EA87E0911D30EB8748
:102D7200E0911E30EC87E0911F30ED87E09120302A
:102D8200EE87E0912130EF87E0912230E88BE091ED
:102D92002330E98BE0912430EA8BE0911F31EB8BF9
:102DA200E0912031EC8BE0912730ED8BE0912830DF
:102DB200EE8BE0912331EF8BE0912431E88FE091AB
:102DC2002B30E98FE0912C30EA8FE0912D30EB8FA0
:102DD200E0912E30EC8FE0912931ED8FE0912A3194
:102DE200EE8FE5EBEF8F1FE1133268F40E94543A45
:102DF200AE0FBF1FE12FF0E07F97E55BFE4CE08155
:102E0200EC931F5FF1CFE8EFECA3EBE4F1E30E9458
:102E12003D39A4E0B0E00E94773310E0143270F440
:102E2200E12FF0E0EC53FA4C0F010E94543AAE0F3E
:102E3200BF1FEC91D001EC931F5FF0CF1881AB96CE
:102E42000895E0E0EA93A5E6B1E30E94952AE093B3
:102E52006231E03049F40E942839E9ECF3E00E9443
:102E6200593A0E94603A02C00E94663A0E946A3A47
:102E7200E7EBF5E3FA93EA93AAE00E944A3AE030DC
:102E820051F40E942839E7EEF3E00E946F3AE1E044
:102E9200E093C33507C00E94663AE0E0E093C33591
:102EA200E093060BA091C335A13009F0A5C0E8EE6E
:102EB200F5E3FA93EA93ECEFF3E00E94593AEDE07E
:102EC200E093F535EAE0E093F6350E946A3AE8EEDF
:102ED200F5E30E94743A29F40E9428390E94823A4A
:102EE20002C00E94663AE7EFF5E3FA93EA93E2E260
:102EF200F4E00E94593AEDE0E0930436EAE0E09310
:102F020005360E946A3AE7EFF5E30E94743A29F423
:102F12000E9428390E94823A02C00E94663A0E94A8
:102F22009A3AE03039F40E942839EFE2F4E00E9444
:102F32006F3A02C00E94663A0E94EC38E4E0F0E385
:102F42000E94253AE2DE0E94413AA1E00E94BF2A95
:102F5200A0E00E946C41E0936231E03049F00E94AF
:102F62002839E3E4F4E00E94593A0E94E60F33C0A4
:102F72000E94413AAAE00E944A3AE03039F40E94A3
:102F82002839E7EEF3E00E949D3A02C00E94663AB9
:102F92000E946A3A0E94A23AE030D9F40E9428398B
:102FA200E9E0F4E0FA93EA93E0916331F09164315D
:102FB200662777270E946C42E3E2F0E060E070E06F
:102FC2000E946C4288E00E9412332C960E94E60F07
:102FD20002C00E94663A0E949A3AE03039F40E9496
:102FE2002839EFE2F4E00E949D3A02C00E94663A5C
:102FF200A4E6B0E00E941B3FE1E1E093450608959C
:103002000E9441381A930A93E0914931E03021F04D
:10301200A0914A31AF3F09F006C00E949B0385E3AD
:103022008A95F1F73324099119917BC10E944138A5
:10303200332009F04BC1E1E03E2EA1E0D0DDE09368
:10304200B636F093B736E091B636F091B736E05027
:10305200F048E093B636F093B7360E94B13A0E9438
:10306200D538E093B836F093B9366093BA36709398
:10307200BB36E091B636E0931B31E091B636F09163
:10308200B7360E944141E0931C31E0E0E0935530B5
:10309200A0915530A43008F03FC0E0915530AEE524
:1030A200B0E30E942D39FF93EF93A09155300E9417
:1030B2003203AF91BF910E94BA3AAEE6B0E30E94EA
:1030C2002D39BF0100801180E0915530AEE5B0E3AB
:1030D2000E94BF3A0E94BA3AA6E5B0E30E942D3997
:1030E200FF93EF93A09155300E948203AF91BF915D
:1030F2000E94BA3AA6E6B0E30E942D39BF010080D1
:103102001180E0915530A6E5B0E30E94BF3AED93FD
:10311200FC930E94CA3ABCCFE0915630E09315313D
:10312200E0915730E0931631E0915830E093193135
:10313200E0915930E0931A31E0915A30E09317311F
:10314200E0915B30E0931831E0915C30F0915D30BA
:103152000E94D03A4092213150922231E0915E3069
:10316200E0932531E0915F30E0932631E0916030C9
:10317200E0932731E0916130E0932831E0916230B1
:10318200E0931D31E0916330E0931E31E091C3354D
:10319200E03009F49BC0E091BC36EF5FE093BC36AF
:1031A200A091BC36A03109F091C00E94B13AE0E191
:1031B200F0E060E070E00E94E741E093B436F09303
:1031C200B536E0E0E093BC36E093B836E093B9362A
:1031D200E093BA36E093BB36E091B436E093213007
:1031E2000E94EE3AE0932230E0E0E0935530A09165
:1031F2005530A430D8F40E94F53A0E942D390F01BF
:103202000E94F53A0E94FA3A0E94BA3AA6E6B0E360
:103212000E942D390F01E0915530A6E6B0E30E94DD
:10322200FA3AED93FC930E94CA3AE1CFE0916630FC
:10323200E0931B30E0916730E0931C30E0916830FE
:10324200E0931F30E0916930E0932030E0916A30E2
:10325200E0931D30E0916B30E0931E30E0916C30D2
:10326200F0916D300E94D03A40922730509228302F
:10327200E0916E30E0932B30E0916F30E0932C3090
:10328200E0917030E0932D30E0917130E0932E3078
:10329200E0917230E0932330E0917330E093243078
:1032A200E0E0E0935530A0915530A43078F40E94CC
:1032B200F53A0E94053B0E94BA3AA6E6B0E30E94A4
:1032C200053BED93FC930E94CA3AEDCF2AC00E94BF
:1032D2004138E091C335E03011F00E943F2121C016
:1032E2000E944138A091C335A130C9F40E94413AED
:1032F200A3E00E944A3A0E946A3AA091A133B09197
:10330200A2338091A3339091A4330E94562EE0936E
:1033120062310E946A3A0E94A23A0E949A3A0E943C
:10332200663AE991EFBFF991E991B991A991999121
:10333200899179916991F9901990099018951A9348
:103342000A930FB7F894E0915000E260E0935000C6
:10335200E0914100E0781E2FE8EDE4BF10934100B8
:10336200E0916000EE7FE0936000E0915100E27036
:10337200E1F3E0914000E87FE1601E2FE8EDE4BF59
:1033820010934000E0915000E27EE0935000E09103
:10339200B400EC7FE093B4000FBF09911991089536
:1033A200F894E091A200E873E7601E2FE8EDE4BF15
:1033B2001093A200E0E0E093A100C1DF0E946B063F
:1033C2000E94C0090E94C50F0E9455070E940D3B32
:1033D2000E94D5100E9468110E942839E0E5F4E0AD
:1033E2000E94593A0E94113B7894A1E00E94143B3A
:1033F200E061E09384062DDB0E940D3B0E941A3BA4
:103402000E94203B5DDB0E940D3B0E941A3B0E9402
:10341200203B8DDB0E940D3B0E941A3B0E94283903
:10342200EAE5F4E00E94593A0E94113B0E94203BD7
:103432000E9401120E940D3B0E942839EBE6F4E043
:103442000E94593A0E941A3B0E94603A0E9453110C
:103452000E942839ECE7F4E00E94593A0E94E60FF4
:103462007894A8ECB0E00E941B3FEBDC0E94531161
:10347200E1E0E09301060E94263BE1E0E0930606CC
:10348200A4E6B0E00E941B3F0E94263B0E941C3A29
:10349200AAE00E94143BEF7EE0938406AAE00E9419
:1034A200143BE061E09384060E942839E6E8F4E0E8
:1034B2000E94593A0E94E60FA1E091DBE093B436F4
:1034C200F093B536E091B436E0931B310E94EE3AA8
:1034D200E0931C310E94F3020E9440030E943810C4
:1034E2000E949C100E941311AAE0B0E00E941B3FB0
:1034F2000E942839E6E9F4E00E94593A0E94113B01
:10350200A1E0B0E00E948342EF3FAFEFFA07AFEFD6
:103512006A07AFEF7A0731F4A1E0B0E00E941B37EF
:103522000E9490420E942839E3EAF4E00E94593A4C
:103532000E94113BA0912404B0912504809126049D
:1035420090912704A132E8ECBE07E3EB8E07E6E593
:103552009E0730F4E1E2F8EC63EB76E50E9429374E
:10356200E0918406EF7EE09384060E94C5030E94E8
:103572002E06E2E0E093E7076CDA0E940413E09182
:103582005936F0915A3660915B3670915C360E94E2
:10359200CA424CF40E942D3BE0E0F0E060E772E4A6
:1035A2000E94AE4008F020C0E0915D36F0915E3698
:1035B20060915F3670916036A0E0B0E086E993E4F6
:1035C2000E94AE4078F4A0915D36B0915E36809153
:1035D2005F3690916036E0E0F0E46EE474E40E94BD
:1035E200AE4008F001C001C01EC00E942D3B0E94E7
:1035F200363BA0E0B0EA8AE295E40E94CB3F0E940B
:10360200583F3F0160921F31709220310E943A3B35
:10361200E09323310E943A3BDF01CB01E8E00E94B4
:103622000D41E09324314CDAE091C335E03021F0D2
:103632000E94EC386ADB2BDB7ADA27DA5DDA93DA7E
:10364200E091A436E078E03821F4E0912931E2609B
:1036520007C0E091A436E07829F4E0912931ED7FAA
:10366200E0932931E0919C36E071E03121F4E09160
:103672002931E46007C0E0919C36E07129F4E091C1
:103682002931EB7FE0932931E0919C36E072E03200
:1036920021F4E0912931E86007C0E0919C36E072A4
:1036A20029F4E0912931E77FE0932931E0919C36BA
:1036B200E270E23021F4E0912931E06107C0E0914B
:1036C2009C36E27029F4E0912931EF7EE0932931B2
:1036D200E091A436E870E83021F4E0912931E0620B
:1036E20007C0E091A436E87029F4E0912931EF7D1A
:1036F200E0932931E091A436E071E03121F4E091C8
:103702002931E06407C0E091A436E07129F4E09128
:103712002931EF7BE0932931E091AC36E074E0345B
:1037220021F4E0912931E06807C0E091AC36E07401
:1037320029F4E0912931EF77E0932931E091763055
:10374200E270E23021F4E091AE36E26007C0E0912F
:103752007630E27029F4E091AE36ED7FE093AE363A
:10376200E0917630E470E43021F4E091AE36E4602A
:1037720007C0E0917630E47029F4E091AE36EB7F39
:10378200E093AE36E0917630E870E83021F40E94A2
:10379200423BE06407C0E0917630E87029F40E9471
:1037A200423BE068E0939E36E0917630E071E03192
:1037B20021F4E091AE36E86007C0E0917630E07126
:1037C20029F4E091AE36E77FE093AE36E0917630B1
:1037D200E072E03221F4E091AE36E06107C0E091A0
:1037E2007630E07229F4E091AE36EF7EE093AE36A9
:1037F200E0917630E074E03421F4E0919E36EE7F81
:1038020007C0E0917630E07429F4E0919E36E160E1
:10381200E0939E36E0917630E078E03821F4E09152
:10382200A636EE7F07C0E0917630E07829F4E09189
:10383200A636E160E093A6360E9457150E948E15C7
:10384200A3D9A0915831A13021F0A0915731A130D4
:1038520019F5E0915331F0915431609155317091E5
:1038620056310E946C420E94E3380E946C420E94D0
:103872001B370E946C42AFE4B1E30E94AF080E9482
:103882002037A1E0B0E00E9490420E949307E0E05E
:10389200E0935731E09358316CCEFFCFAA930E9448
:1038A200E64220E00C81AD81BE813D91AD83BE83B5
:1038B20018E0220FE22FE327E07811F0E9E02E274B
:1038C200330F1150B1F7015071F7E22FEE0FE160A3
:1038D2000E94ED4268C51A93E2E3E093BF36EFEF30
:1038E200E093C308E091C208E078E1F3EFEFE093E0
:1038F200C308E091C208E078E1F31091C3081F3FCA
:1039020021F0E091BF36E03009F401C0EFCFE12FA2
:10391200C9C4E1E0E0934506EFEFE093C308E0910C
:10392200C208E078E1F30895BA93AA930E94E642AE
:10393200E4E1E093BE36EFEFE093C308E091C20802
:10394200E078E1F31091C3081F3F21F4E091BE3605
:10395200E03009F401C0EFCF1E3F21F0E0E00E9409
:10396200ED42F1C22E813F81EFEFE093C308E09177
:10397200C208E078E1F33F932F932F5F3F4FE0912E
:10398200C308AF91BF91EC93EFEFE093C308E091CE
:10399200C208E078E1F33F932F932F5F3F4FE0910E
:1039A200C308AF91BF91EC93EFEFE093C308E091AE
:1039B200C208E078E1F33F932F932F5F3F4FE091EE
:1039C200C308AF91BF91EC93EFEFE093C308E0918E
:1039D200C208E078E1F33F932F932F5F3F4FE091CE
:1039E200C308AF91BF91EC93EC81FD813497EC83D6
:1039F200FD8309F0B9CFEFEFE093C308E091C2086D
:103A0200E078E1F3EFEFE093C308E091C208E078D9
:103A1200E1F3E1E00E94ED4296C2AA930E94E642DF
:103A22005ADFEF3F21F0E0E00E94ED42BCC4EC819E
:103A3200E093C308E091C208E078E1F3AC81AD3FC6
:103A4200C1F100E02D813E81D9012F5F3F4FEC9102
:103A5200E093C308E091C208E078E1F3D9012F5F57
:103A62003F4FEC91E093C308E091C208E078E1F3A4
:103A7200015051F7EFEFE093C308E091C208E078FC
:103A8200E1F3EFEFE093C308E091C208E078E1F3DD
:103A9200EFEFE093C308E091C208E078E1F3109100
:103AA200C308E12FEF71E53021F0E0E00E94ED4222
:103AB2007AC4E1E00E94ED4276C40E9471421A93F8
:103AC2000A93EE81E07881F0EE81EF77EE83E7E70B
:103AD200EA93A0E0B0E080E090E0EFDF0E2F02304A
:103AE20018F0198108815FC4AE81AC3459F011DF3E
:103AF200E1E0E0934606EFDEEF3F21F0EFEF1981C0
:103B0200088151C4EE81E093C308E091C208E078D5
:103B1200E1F3ED81E093C308E091C208E078E1F3BC
:103B2200EC81E093C308E091C208E078E1F3EB8115
:103B3200E093C308E091C208E078E1F3EA81E09300
:103B4200C308E091C208E078E1F311E0AE81A0344D
:103B520011F415E904C0AE81A83409F417E81093F2
:103B6200C308E091C208E078E1F3AE81AC3439F4E5
:103B7200EFEFE093C308E091C208E078E1F31FEFB2
:103B8200EFEFE093C308E091C208E078E1F300911F
:103B9200C30807FF02C0115009F401C0F1CFE02FA2
:103BA2001981088100C4BA93AA931A9314E0EFEF23
:103BB200E093C308E091C208E078E1F3A981BA81F9
:103BC2001196A983BA831197E091C308EC9311501F
:103BD20071F7D3C4AA9324970E94E642E885E030A5
:103BE20011F0E1E0C9C0EAE0E093BE36E091BE36F2
:103BF200E030E1F7E091BD36E27009F0BBC0E1E0F0
:103C0200E0934106E0934506E0EAE0934606E0E4ED
:103C1200E0934206E8E1E0935606E0EBE0934106CA
:103C2200E3E5E093C00835E01AE0EFEFE093C30864
:103C3200E091C208E078E1F31150B9F7E0E4EA93C9
:103C4200A0E0B0E080E090E038DF0E2F315001308C
:103C520011F0303009F401C0E7CF30E0013009F053
:103C620068C0E4E6E093BE36E8E4EA93AAEAB1E08B
:103C720080E090E022DFE13091F5DE01149693DFDF
:103C8200AE81A13019F4AF81AA3A09F027C0E091C0
:103C9200BE36E03049F0E9EEEA93A0E0B0E080E021
:103CA20090E40BDFE03009F401C0F1CFE091BE36C1
:103CB200E03049F0EAE7EA93A0E0B0E080E090E08B
:103CC200FCDEE03009F00AC0DE0114966CDFEC8104
:103CD200E07411F0ECE001C0E4E03E2F2AC0E9EE0E
:103CE200EA93A0E0B0E080E090E0E7DEE23018F492
:103CF20032E009EE02C031E001E4E091BE36E0308C
:103D020041F00A93A0E0B0E080E090E0D6DEE0303F
:103D120009F401C0F2CFE091BE36E03049F0E0E5AF
:103D2200EA93A0E0B2E080E090E0C7DEE03009F084
:103D320030E03093C036EDDD303049F0E091BD36F1
:103D4200EE7FE093BD36E0EDE093C00813C0E1E002
:103D5200E0934606C0DDDDDDE0E0E093C008E0EF81
:103D6200E0934206E1E0E0934206E091BD36E16075
:103D7200E093BD36E091BD360E94ED42299608954A
:103D8200AA93E881E03011F0E1E002C0E091BD3693
:103D920021960895AA93EF81E03019F4E881E0308A
:103DA20011F4E4E0D0C0E091BD36E17011F0E3E03F
:103DB200CAC0E091C036E87071F4E981FA816B8182
:103DC2007C81A0E0B2E080E090E00E947141E98352
:103DD200FA836B837C83A881A130A9F4E1E5EA939D
:103DE200AA81BB818C819D8168DEE03059F4ED812E
:103DF200FE81FA93EA93A0E0B2E096DDE03011F0A2
:103E0200E0E0E88323C0E2E5EA93AA81BB818C81EA
:103E12009D8153DEE030D1F4ED81FE81FA93EA9385
:103E2200A0E0B2E081DDE03051F0ED81FE81E050B2
:103E3200FE4FED83FE83E881E150E88369F7ECE40D
:103E4200EA93A0E0B0E080E090E037DE62DDE88156
:103E5200E03011F0E1E001C0E0E075C0AA93EF812B
:103E6200E03019F4E881E03011F4E4E06CC0E09154
:103E7200BD36E17011F0E3E066C0E091BD36E4705A
:103E820011F0E2E060C0E091C036E87071F4E981BF
:103E9200FA816B817C81A0E0B2E080E090E00E9438
:103EA2007141E983FA836B837C83A881A130A1F4F9
:103EB200E8E5EA93AA81BB818C819D81FEDDE03039
:103EC20051F4ED81FE81FA93EA93AEEFA6DDE03084
:103ED20011F0E0E0E88330C0E091C036E67039F0DE
:103EE200E7EDEA93A981BB2788279927E6DDE9E573
:103EF200EA93AA81BB818C819D81DFDDE030E1F410
:103F0200ED81FE81FA93EA93ACEF87DDE03051F068
:103F1200ED81FE81E050FE4FED83FE83E881E150AA
:103F2200E88371F7E0E0F0E0FA93EA93ADEF75DD34
:103F3200E03011F4E1E0E883ECDCE881E03011F0FC
:103F4200E1E001C0E0E028960895BA93AA93609751
:103F52000E94E642EF89E03011F0E4E08BC1E0918B
:103F6200BD36E17011F0E3E085C111E0EE89E03089
:103F720041F4E1E0E0934606AEDCEF3F09F410E0E5
:103F820077C1E13009F05BC0E9E4EA93A0E0B0E078
:103F920080E090E092DDE03049F4FE013496FA933D
:103FA200EA93A0E1B0E0C0DCE03009F447C0EC8164
:103FB200E295EF70E695E695E13069F4E0E0FC8584
:103FC200AD85B0E0EA0FFB1F31969F01D90188272A
:103FD2009927EAE02CC0E985EF70AE2FEE85E078F4
:103FE200EE1FE0E0EE1FAE0FED85E370EE0FEA0F7D
:103FF200EE5F0E2FEC85E295EF70E695E695AE2F1B
:10400200EB85F0E00E942941B0E0AE0FBF1FEA85C8
:10401200E370F0E00E942941FE2FE0E0EA0FFB1F6F
:1040220031969F01D90188279927E02FE9500E94F4
:104032000141AC89BD890E944A4210E019C1E230B7
:1040420041F4AC89BD89E0E0F2E0ED93FC9310E02D
:104052000FC1E33009F0AFC0E091C036E470A1F1C6
:10406200EDECEA93A0E0B0E080E090E026DDE03005
:1040720051F5EFEFE093C308E091C208E078E1F375
:10408200FE013496FA93EA93A0E1B0E04DDCE03011
:10409200D1F000E3003049F0EFEFE093C308E09184
:1040A200C208E078E1F30150F5CFEE85E295EF70BA
:1040B200A0E1B0E080E090E00E940141AC89BD89BE
:1040C2000E944A4210E076C0E9E4EA93A0E0B0E040
:1040D20080E090E0F2DCE03009F06CC0FE01349642
:1040E200FA93EA93A0E1B0E01FDCE03009F462C089
:1040F200E091C036E27051F1EE85EF73FF2766273B
:1041020077270E943C417F936F93FF93EF93EF8554
:10411200E078FF2766277727DF01CB01E7E00E94DF
:104122001941AF91BF918F919F910E94D240EF5F51
:10413200FF4F6F4F7F4FDF01CB01E989E295EF70AF
:10414200E695E695E1500E9401412FC0EE85EC779D
:10415200E695E695FF2766277727EF5FFF4F6F4FBC
:104162007F4F7F936F93FF93EF93EF85E370FF276A
:1041720066277727DF01CB01E3E00E940141DF01DF
:10418200CB01EF85E07EE295EF70E695FF2766278B
:1041920077270E94D240EF5FFF4F6F4F7F4FAF9163
:1041A200BF918F919F910E947141AC89BD890E94FC
:1041B2004A4210E05DC0EA3039F4E091C036AC8981
:1041C200BD89EC9310E054C0EB3011F409E403C054
:1041D200EC3001F50AE40A93A0E0B0E080E090E060
:1041E2006CDCE030B1F4EC89FD89FA93EA93A0E14A
:1041F200B0E09ADBE03069F0EC89FD89FA93EA934A
:10420200AFE04CDBAE2FEC89FD89E785EA1709F4B4
:1042120010E02EC0ED3071F4EAE7EA93A0E0B0E0DE
:1042220080E090E04ADCE03021F4AC89BD89BBDC5F
:1042320010E01EC0EE30D9F4EDECEA93A0E0B0E05D
:1042420080E090E03ADCE03089F4EFEFE093C308DD
:10425200E091C208E078E1F3EC89FD89FA93EA93F0
:10426200A0E4B0E061DBE03009F010E001C014E04E
:1042720050DBE12F0E94ED42689608951A93109147
:10428200BE36103019F011501093BE361091BF3661
:10429200103019F011501093BF36E091BD36EB7F0C
:1042A200E093BD36199108952797A0910030B091FF
:1042B2000130109731F0A0910230B0910330109785
:1042C20029F4E0E0F0E061E27AE36DC0FE013696A7
:1042D200FA93EA93FE013796FA93EA93DE0118966F
:1042E200E0910030F09101300995FE013396FA9386
:1042F200EA93FE013496FA93EA93DE011496E09172
:104302000230F09103300995E881F981EC5BF740C6
:1043120066277727DF01CB01E9E10E9401417F9304
:104322006F93FF93EF93EA810E944A3BE5E10E947B
:104332000141AF91BF918F919F910E94EB40DF01AC
:10434200CB01EB81F0E00E945D410E9452410E944C
:10435200EB407F936F93FF93EF93EE810E944A3B72
:10436200EBE00E940141AF91BF918F919F910E941A
:10437200EB407F936F93FF93EF93ED810E944A3B53
:10438200E5E00E940141AF91BF918F919F910E9400
:10439200EB40DF01CB01EC81F0E0F595E7950E945F
:1043A2005D410E94EB4027960895AA931A93EA81F1
:1043B200FB81E4911E2FE03019F0E981E11709F445
:1043C20006C0EA81FB813196EA83FB83F0CFE12FBD
:1043D200F0E01881249608950E94714224971A935E
:1043E200A985BA859E960E94503B0E94573B0E9427
:1043F2005C3B0E94DA4209F450C0E985FA85E48107
:10440200E03089F10E94613BE030E1F5A985BA858F
:104412001496E0E0EC93E985FA850E94703B0D0169
:10442200A985BA855A960E943F42D0010E94D24085
:104432000E945C3B0E94DF42B0F4E985FA85138159
:10444200123088F0A985BA855A960E943F420E948E
:104452005C3B0E94D240E983FA836B837C830E9497
:10446200613B1150EDCF0E94573B0E94D042A9F010
:10447200E985FA85A181AA93EA85FB85F2960E94D5
:10448200753B21F0E1E018812B9608950E94573B7D
:10449200A985BA859E960E944A42E0E0188158C4D6
:1044A200BA93AA931A93E981FA810E947F3B1E2F45
:1044B200103009F061C0A981BA81AC91A33029F40E
:1044C200E981FA81E581E03009F44AC0A981BA8123
:1044D2009E960E94873BE981FA81F2960E943D39BD
:1044E200A0E0B2E00E947733E981FA81F296E250CD
:1044F200FE4FA5E5BAEAA083B183E981FA81F2967B
:10450200A2E5B2E581E691E40E948B3BEC51FE4FBD
:10451200A2E7B2E781E491E60E948B3BE851FE4FAD
:104522000F01A981BA811E960E94913BF296E45135
:10453200FE4F0F01A981BA811A960E94913BA18177
:10454200AA93EA81FB81F296FA93EA93EC81FD81C8
:104552000E94993B83DCA981BA811596E0E0EC9335
:10456200E981FA81A181AA93E0E0EA93A0E0B0E0B8
:10457200ECDCE03009F011E0E12F18812396089578
:104582000E94714224970E94E6420E9426380E94AD
:10459200A13B50F0AC85BD855E960E943F420E94D1
:1045A20026380E94DF4218F00E94683760C0AC854E
:1045B200BD8592960E94A93BAC85BD85EC91F0E049
:1045C200E130A0E0FA0739F528853985F901F69539
:1045D200E7952E0F3F1F0E94AC3B09F046C00E9498
:1045E200C13B0C9111272F5F3F4F0E94AC3BE9F575
:1045F2000E94C13BEC91FE2FE0E00E2B1F2BE885C1
:10460200E17021F0F8010E94334102C0F801FF700D
:10461200662777272CC0E230A0E0FA0779F40E94DF
:10462200C93B0E94D23B0E94D93BF9F4A885B985C7
:10463200E2E00E94E33B0E94EC3B19C0E330A0E0C1
:10464200FA0799F40E94C93B0E94F13B0E94D93BB0
:1046520061F4A885B985E4E00E94E33B0E943F42F1
:10466200EF7FFF7F6F7F7F7002C00E94F83B0E9446
:10467200ED422E9608950E94714224970E94E442D0
:104682000E94FD3B0E94A13B50F0AA89BB895E9625
:104692000E943F420E94FD3B0E94DF4210F052E026
:1046A20085C0AA89BB8992960E943F42EE83FF830E
:1046B20068877987AA89BB89EC91F0E0E130A0E0B4
:1046C200FA0709F043C00E851F85F801F695E795B4
:1046D2000E0F1F1F0E94023C09F063C00E94153C8E
:1046E20051F0D901EC91EF70AE2FEA85F0E00E9413
:1046F2002541EA2B01C0EA85D901EC930F5F1F4FD8
:10470200AA89BB891496E1E0EC930E94023C09F06D
:1047120048C00E94153C49F00E94203CE4E00E94FF
:104722001941FF27662777270EC0D901EC91E07F58
:104732001E2E0E94203CE8E00E941941FF276627B6
:104742007727EF70E129D901EC932BC0E230A0E08A
:10475200FA0789F40E94253C0E94D23B0E942A3C1F
:1047620001F5AE85BF85E2E00E94323CAA85BB8599
:10477200A083B18316C0E330A0E0FA0789F40E9457
:10478200253C0E94F13B0E942A3C59F4AE85BF852C
:10479200E4E00E94323C0E94203C0E94674201C039
:1047A20052E0AA89BB891496E1E0EC93E52F0E94BE
:1047B200EB42649608950E94714224971A930E94D4
:1047C2003B3C0E94A13B18F00E94403C10F012E0DA
:1047D20044C010E00E94403C08F03FC0E985FA85E1
:1047E200FA93EA93AF81B88589859A85C9DEE98310
:1047F200FA836B837C830E94493C0E94D04269F118
:104802000E945C3B0E944E3C11F412E026C00E94C2
:104812005C3B0E94563C11F411E01FC0E985FA8509
:10482200FA93EA93EF81F88569857A850E946C4252
:104832000E945E3C20DF1E2F103079F4E985FA8554
:104842000E94633C29F00E94683C1596E1E0EC93DB
:104852000E94493C0E94733CBDCFE12F188178C26F
:104862000E9471426097AC89BD895E960E943F4268
:104872000E946D370E94783CB1F4AC89BD891A96CA
:104882000E94A93B0E947C3C0E94D44239F00E94C3
:10489200813C0E947C3C0E94DF4220F00E946837EB
:1048A2000E94D8371DC00E94843C0E94893C68DE69
:1048B2000E94BF370E94EB370E94A13B18F40E946E
:1048C200683785C00E94813C0E94EB370E94DF421C
:1048D20018F40E942B387BC00E94AF370E94D83751
:1048E2000E94F5370E94D3370E94F0370E947D372D
:1048F2000E94D3370E94813C0E9426380E94DF42E8
:1049020060F0E2E0F0E060E070E00E94D3370E94E5
:104912008E3C18F40E941B375AC00E94843C0E94AD
:10492200203C2EDE0E94933CA1F00E94EB370E94B5
:10493200563C29F00E94EB370E944E3C19F40E942B
:104942002B3845C00E948E3C19F40E941B373FC091
:10495200CBCF0E94843C0E94983C0E946C42AFEFF5
:10496200BFEF8FEF9FE087DEE03019F00E94F83B47
:104972002EC00E94783C71F00E94843C0E949D3CB3
:104982000E946C420E94FD3B76DEE03019F00E94EC
:10499200F83B1DC00E94F037AC89BD891A960E946F
:1049A2004A42EC89FD890E94633C79F0AC89BD8959
:1049B2001E960E9445423197604070400E944F42CD
:1049C200AC89BD891596E1E0EC930E94F0376696BA
:1049D20008950E9471420E94813CE250F040604082
:1049E20070400E946D37EC81FD81A68DB78D80A14C
:1049F20091A1E2E0F0E060E070E00E94A23C0E943F
:104A0200A73C0E94DF4218F00E941B3775C3EC815D
:104A1200FD81E281F0E00E94A73C0E945D410E947C
:104A220071417F936F93FF93EF93AC81BD819A960F
:104A32000E943F42AF91BF918F919F910E94D240BD
:104A42005BC3BA93AA9324971A930A93EE81FF81C8
:104A5200A885B9851496ED93FC93A885B985169619
:104A62000E94AA3C0E94B13C0E944E3C29F00E9446
:104A7200B63C0E94BB3C10F0E2E076C00E94C33C10
:104A820029F40E94B63CA081A33009F006C00E941E
:104A9200B63CB696DF010E94AA3C0E94C33CA1F438
:104AA2000E94CA3C3896DF010E943B42AE81BF8120
:104AB200AE17BF0710F0E2E057C00E94B63CB696B0
:104AC200DF010E943F4235C00E94B63CE281A0E174
:104AD200EA9F8001AE81BF81A017B10718F10E9441
:104AE200B63CFA93EA930E947C3C4ADD0E94D43C95
:104AF2000E94B13C0E94563C11F4E1E035C00E9494
:104B0200B13C0E94A13B28F00E94B63C0E94BB3CF3
:104B120010F0E2E029C0EE81FF81E01BF10BEE8391
:104B2200FF83D8CF0E94CA3CFA93EA930E947C3C4E
:104B320050DFDF01CB01EE81FF810E9433410E94F1
:104B4200D93CA885B9851E960E944A420E94B63C6D
:104B5200F296DF01EE81FF810E94DE3CA885B985D5
:104B62005296ED93FC93E0E0198108812A9608950C
:104B7200AA9324970E94E642A985BA8514960E94B8
:104B82003B4231968F01002E012A31F0A985BA8568
:104B92001E960E94E63C11F4E4E0D8C0F801EF70E2
:104BA20009F0C1C00E94683C1A960E94E63C61F47A
:104BB2000E94EB3C3896DF010E943B420E171F0712
:104BC20010F0E4E0C3C0AFC0F8010E9433410F010E
:104BD2000E94EB3CE281F0E03197E021F121309735
:104BE20009F0A1C00E94EB3C0E94F03CC9DC0E948B
:104BF200D8370E947C3C0E94A13B10F4E2E0A6C0A0
:104C02000E947C3C0E94563C11F4E1E09FC00E944D
:104C1200EB3C7E96DF010E943F420E947C3C0E9458
:104C2200DF4208F470C0E885E03011F4E4E08EC0A1
:104C32000E94EB3C0E94F03C13DE0E94F93C0E9471
:104C4200D04211F4E7E082C00E947C3C0E944E3CBC
:104C520011F4E2E07BC00E947C3C0E94563C11F4BD
:104C6200E1E074C00E94EB3C0E947F3BE03011F017
:104C7200E1E06CC00E94EB3CF2960E943D39A0E05C
:104C8200B2E00E9477330E94EB3CDF01BE96FF93B5
:104C9200EF93FD010E94FB3CAF91BF910E944A42FB
:104CA20030E00E94EB3CE2813E17C8F40E94EB3CEC
:104CB2003496A1E0A0830E94EB3C0E947F3BE0304F
:104CC20011F0E1E043C00E94EB3CBE96DF010E947E
:104CD20045420E947D370E944F423F5FE2CF0E94D1
:104CE200EB3CBE96FF93EF93DF010E943F42DF0150
:104CF200CB01E32FF0E00E945D410E94A23CAF9104
:104D0200BF910E944A420E94F537A985BA851A9638
:104D12000E944A420E94EB3C0E94FB3CA985BA8554
:104D22001E960E944A42F801A985BA851496ED930F
:104D3200FC930E94EB3CF296DF01F8010E94DE3CFC
:104D4200A985BA855296ED93FC93E0E00E94ED426C
:104D52002B9608950E94033D21F0E12F0E94ED421F
:104D6200CBC10E94123D01F5AC81BD8152962D91BD
:104D72003C91D9010C91003011F414E015C0F901F5
:104D8200E385E87031F40E94233D0E944C33E03009
:104D920009F001C009C0EC81FD81FA93EA93A0E019
:104DA200E7DE1E2F1030E9F2E12F0E94ED42A4C18E
:104DB2000E94033DB1F40E94123D99F4EC81FD8101
:104DC200A289B3890C91053E11F0003009F409C0A3
:104DD200EC81FD81FA93EA93A1E0CADE1E2F103026
:104DE20051F3103029F50E94123D11F5AC81BD81BD
:104DF20052962D913C913A932A93E0E0EA93A0E2F5
:104E0200B0E00E9477330E94233D0E946533AC815B
:104E1200BD8154960E943B42E385E871D9011C96FC
:104E2200EC93AC81BD810E943B423496A1E0A08309
:104E3200E12F0E94ED4260C1BA93AA9325970E9486
:104E4200E442AD85BE8554964D915C915A934A9346
:104E5200E0E2EA93ABE0B0E00E947733E0E0E8877B
:104E6200E9871E2F2E2FE8E0EA87AB85BC850E94DA
:104E72002E3D0E94333DAE0FBF1FAC91AE3209F5FD
:104E82000E94383D0E3221F4A885B98513970CF0A3
:104E920003C00E94443DF4CF0F3221F00C3511F0D3
:104EA200013208F402C0E6E06DC00E94333D0E9468
:104EB2004B3D10F4E4E201C0E0E2DA011B96EC9310
:104EC20060C00E94383D013220F00F3211F00C35E3
:104ED20009F432C00E3219F0EA852E1768F0AA855D
:104EE200A83011F40E3211F0E6E04CC028E0EBE0FD
:104EF200EA87110F110F1FC0003818F01360E6E0A7
:104F020041C0EAE0F2E0FA93EA93A02F4EDA30973A
:104F120011F0E6E037C0013410F00B3508F002C0A2
:104F2200126007C0013610F00B3708F002C01160A2
:104F320000520E94443DC5CF0E94333D0E944B3D2A
:104F420010F4E4E001C0E0E00E2F203011F4E6E0BE
:104F520019C0DA01AC91A53E19F4DA01E5E0EC934F
:104F6200AA85A83011F4110F110FE12FE370E1307F
:104F720009F40061E12FEC70E43009F40860FA01F1
:104F82000387E0E00E94EB422F960895BA93AA931A
:104F92000E94E642E1E0E03029F0AC81BD81AC91B3
:104FA200A03209F006C0EC81FD813196EC83FD83CD
:104FB200F1CFAC81BD81AC91AF3229F0AC81BD8122
:104FC200AC91AC3559F4EC81FD813196EC83FD83D3
:104FD200AE81BF8116960E94873B0AC0AE81BF8117
:104FE2000E943B427696DF010E943F420E94533D5F
:104FF200AC81BD81AC91BB27909760F40E94593D72
:10500200A0E0B0E01EDD1E2FAE81BF8152960E944D
:105012005E3D3DC00E94593DDE0116960DDF1E2FFA
:105022001030A9F5AE81BF8195DE1E2FAE81BF8102
:1050320054960E943B42E385E4700E2F103039F003
:10504200143011F4003009F001C015E020C0003026
:10505200F1F4AE81BF8152962D913C91F901E38525
:10506200E07111F415E013C00E94633D0E945241A9
:105072007F936F93FF93EF930E94663DAF91BF9131
:105082008F919F910E946B3D0E94533DC3CFE12FB0
:105092000E94ED42289608950E947142EC81FD81A2
:1050A200A181AA93ED81FE81F296FA93EA93EB81B4
:1050B200FC816D817E810E94703D11F0E3E01CC095
:1050C200EC81FD810E94773D11F0E2E015C0AC81D8
:1050D200BD81A859BF4F0E94813D11F4E0E00CC090
:1050E200EC81FD81F296EE5AFF4FDF010E94813D75
:1050F20011F4E0E001C0E1E026960895AA936497D6
:105102000E94E442AD8DBE8D0E943B42E887F98742
:10511200A885B985EC91E0530E2F0A3020F4119640
:10512200AC91AA3309F00AC0E885F9853296E8877E
:10513200F987AD8DBE8DED93FC9302C00091C5360B
:10514200013010F0EBE0CAC1E02F0E948F3D0E94B7
:105152002E3DAB8DBC8DED93FC93EE81FF8130979C
:1051620011F4ECE0BBC1AE81BF81EC91E03089F07B
:10517200EE81FF81A1810E94C11E5E2F50FD09C0F8
:10518200EA8DE03011F052FD01C002C0EAE0A6C192
:10519200A4C1AE81BF81E0E0EC93E02FAE81BF817C
:1051A2001196EC93EE81FF81A1810E94EB1D5E2F8F
:1051B20050FF02C0E3E092C1EA8DE03011F052FDEF
:1051C20001C002C0EAE08AC10E94593D0E941B3719
:1051D200E88FF98F6A8F7B8FDF01CB015DDF1E2F96
:1051E2001130C9F4EE81FF81F296E254FE4F9F0125
:1051F200E481E03081F0D90118960E943F42EE8BA3
:10520200FF8B688F798F0E94593DA88DB98D8A8D49
:105212009B8D42DF1E2F133011F4E1E05FC110308D
:1052220049F4AE81BF81DD960E943B42E030A2E0AC
:10523200FA0711F0EDE052C1AE81BF81A85BBF4F0A
:105242000E94EC3B0E94973D0E949D3C0E94D042EE
:1052520041F4AE81BF81AA5ABF4F0E943F420E94D1
:10526200973D0E949D3CAE81BF815A960E944A4260
:10527200EE81FF81EE5BFF4FE081AE81BF8113962D
:10528200EC93EE81FF81E381F0E00E94893C0E9471
:105292005D410E9471410E94973D0E949C3D0E9487
:1052A200A33DAE81BF8192960E944A42EE81FF8168
:1052B200E7ADAE81BF811296EC93AE81BF81AD5B4B
:1052C200BF4F0E943B42AE81BF811896ED93FC9383
:1052D200AE81BF81AB5BBF4F0E94EC3BEE87FF8785
:1052E200688B798B0E94D04251F4AE81BF81AE5A55
:1052F200BF4F0E943F42EE87FF87688B798B0E94E7
:105302009C3D0E94FD3B662777270E94A23C0E949B
:10531200893C0E94DC407F936F93FF93EF930E943E
:10532200A83DAF91BF918F919F91662777270E94E9
:10533200E140EE81FF81E281F0E00E945D410E9446
:10534200C241EE5FFF4F6F4F7F4F0E94B03DAE8173
:10535200BF815E960E944A4211E00E94203CA73F14
:10536200EFE0BE07E0E08E07E0E09E0708F012E003
:105372000E94203CA73FEFEFBE07E0E08E07E0E08F
:105382009E0708F013E0133039F4AE81BF81A25AB0
:10539200BF4F0E943F4202C00E94B53DAE81BF8115
:1053A20096960E944A420E94B53D7F936F93FF9367
:1053B200EF930E94A83DAF91BF918F919F910E9460
:1053C200D93CAE81BF819A960E944A42AE81BF818A
:1053D2001E960E94F83B0E944A42AE81BF811496FB
:1053E200E0E0EC93133009F05FC0AE81BF81159607
:1053F200EC93AE81BF81AE59BF4F0E943B420E94E7
:10540200A33DAE81BF8152960E944A42EE81FF8146
:10541200A181AA93EF81F885F296FA93EA93E9853E
:10542200FA850E94993B0E94CB1EE03011F5EE8175
:10543200FF810E94773DE9F4AE81BF81D2960E943E
:105442003F42E235A2E5FA07A1E66A07A1E47A073C
:1054520081F4EE81FF81F296EC51FE4FDF010E9452
:105462003F42E237A2E7FA07A1E46A07A1E67A0718
:1054720009F01AC0EE81FF81F296E451FE4FDF017E
:105482000E943F42AE81BF811A960E944A42EE813B
:10549200FF81F296E851FE4FDF010E943F42AE814A
:1054A200BF811E960E944A42AE81BF811C939E9686
:1054B2000E94873BAE81BF8156960E94873BE09156
:1054C200C336F091C4363196E093C336F093C436B6
:1054D200AE81BF811696ED93FC93E0E00E94EB4211
:1054E2006F960895BA93AA93EA81FB81309771F07F
:1054F200AA81BB81EC91E03049F0EA81FB81A6816F
:10550200B781E881F981EA17FB0711F0E9E00AC0E7
:10551200EA81FB81A1810E94C11EE17011F0E3E0EA
:1055220001C0E0E024960895BA93AA931A930A93CD
:10553200AC81A13010F0EBE01DC0EC810E948F3DE8
:105542000D911C91002E012A19F0D801E0E0EC9394
:10555200EA81FB81309721F0AA81BB81E0E0EC93E4
:10556200EC81A1ECB6E30E942D39AA81BB81A08314
:10557200B183E0E01981088125960895AA93A29744
:105582000E94E642A9A5BAA50E945E3DEEA1EF7176
:10559200EEA3FE01B796FA93EA93FE017296FA938E
:1055A200EA93EAA5EE71AE2FA9DD1E2F103009F0A5
:1055B20013C1FE013496ECA3FDA3FE017096FA938B
:1055C200EA93A9A5BAA5E2DC1E2FEEA1EC7109F4BB
:1055D20096C02897103089F0143021F4DE015896D5
:1055E200E7DB1E2F103019F0E12F2896F5C0EEA54B
:1055F200E860EEA72AA53BA569C0EEA5E47019F004
:10560200E8E02896E9C02AA53BA5022E032A21F04C
:10561200F901E385E17119F0E7E02896DDC0EEA516
:10562200E87009F453C00E94633D0E9452417F9387
:105632006F93FF93EF930E94663DAF91BF918F915D
:105642009F910E946B3D0E946D37F9017496A0E014
:10565200B0E0A083B183F9017A96A083B183F90106
:105662007C960E945E3C0E946742A88DB98D14967A
:10567200E1E0EC93A88DB98D9E960E94A93B0E9411
:105682009D37A9F0E88DF98DFA93EA930E94B13C17
:1056920092D81E2F103011F028969EC00E94813C95
:1056A2000E943038A88DB98D1A960E944A42E88D20
:1056B200F98DFA93EA93AE81BF81888599850E941C
:1056C200ED211E2F103011F0289686C0EEA5E8704D
:1056D200A1F0F9013B96A0E0A0830E9455210E940F
:1056E200F93CD9011E960E944A42A88DB98D1496A2
:1056F200E1E0EC93EEA5E062EEA7289619C0103027
:1057020011F0E12F69C02AA13BA1022E032A21F048
:10571200F901E385E07111F0E4E05EC0EEA1E27010
:1057220021F0F901E385E17009F402C0E7E054C019
:10573200A889B9899E960E943F42A9A5BAA55A9600
:105742000E944A42EAA1FBA1A9A5BAA55E96ED93E1
:10575200FC93EEA1A9A5BAA51496EC930E94633D11
:105762000E9452417F936F93FF93EF930E94663D95
:10577200AF91BF918F919F910E946B3DA9A5BAA550
:105782001E960E944A42D9015C960E943F42A9A5F8
:10579200BAA51A960E944A42A9A5BAA516960E94CF
:1057A200873BA9A5BAA51596EFEFEC93A9A5BAA5D3
:1057B20056960E94873BE889F989A9A5BAA5ED9377
:1057C200FC93A889B98916960E943B42A9A5BAA55D
:1057D2001296ED93FC93E0E00E94ED42AB960895A1
:1057E200BA93AA932A970E94E442EC89FD89EE8338
:1057F200FF83A889B9890E945E3D0E94BC3D0E9438
:10580200C13D0E94C63D11F0E12FB2C1EE89FF8970
:10581200A481A07811F0E2E0ABC1EE89FF89A481F6
:10582200A27011F4E7E0A4C1EE89FF89A285B385D5
:1058320084859585EA89FB890E94D93C7F936F9381
:10584200FF93EF930E94CD3DAF91BF918F919F91B6
:105852000E94DF4218F4E0E0EA8BEB8BEA89FB89D5
:10586200309709F46BC10E94D33DFD01BC01F17078
:10587200309709F01FC1EE89FF8905800E94BC3D67
:10588200E2810E1608F44AC0AE89BF8916960E94BC
:10589200E63CA1F4AE89BF891E960E943F420E9457
:1058A200933C59F40E94BC3D0E94DA3D0E94BF37EE
:1058B200AE89BF891E960E944A420CC00E94BC3D1E
:1058C2000E94C13DA289B389848995890E943124AD
:1058D2000E94BF370E942B380E94D04209F42EC189
:1058E2000E94EB370E944E3C21F40E94DF3DE2E031
:1058F2003FC10E94EB370E94563C21F40E94DF3DDB
:10590200E1E036C10E942B38AE89BF8952960E94CF
:105912004A42AE89BF891596E0E0EC93EE89FF8991
:10592200A481A07489F00E94BC3D0E94E63DE98DED
:10593200FA8D0E94EE3D0E94F33D21F00E94DF3D70
:10594200E1E016C10E94FA3D0E94BC3D0E94C13DA9
:10595200A289B389848995893CD80E94D3370E9451
:10596200F0370E94D04221F40E94DF3DE2E000C104
:105972000E94013E0E9426380E94D5380E94D337E9
:10598200AA89BB89E0E0F2E00E94AF41AF01042E98
:10599200052A09F464C00E94013EE40FF51F0F01BD
:1059A2000E94BC3DE281D001F0E0EA17FB0750F40F
:1059B2000E94BC3DE281F0E0DF010E94013EAE1B8D
:1059C200BF0BAD010E94BC3DE181EA93EF81F885F6
:1059D200FA93EA93EB85FC856D857E850E946C4285
:1059E200A42F0E942F1FE03021F00E94DF3DE1E052
:1059F200BFC00E94063E0E94E140FA016627772757
:105A02000E94DF42F8F4EE89FF89B0960E94C13D00
:105A12000E94EE3D0E94983C0E94E140E0E0F2E0EC
:105A220060E070E00E947141A885B98588279927B6
:105A3200EA0FFB1FFA93EA93A0E0B2E00E946533FB
:105A42000E94FA3DAE89BF891596EC91E40FEC9362
:105A5200FA01EE0FFF1FFE2FE0E09F014DC00E94F2
:105A6200063E0E94DA42C9F00E94D33D0D010E9417
:105A7200CD3DD0010E94DF4258F40E94BC3D0E94FD
:105A8200E63DEB85FC856D857E850E94703D09F4BF
:105A920004C00E94DF3DE1E06BC00E94F037AE8996
:105AA200BF8956960E944A42AE89BF891596EC91EB
:105AB200EF5FEC930E940A3EA0E0B2E0AE1BBF0B88
:105AC2009D01EA89FB89E217F30710F42A893B89D1
:105AD2000E940A3EAE89BF899096EA0FFB1FFA9395
