:0E0000000C9428010C9400000C9400000C9449
:10000E0000000C9400000C9400000C9400000C9462
:10001E0000000C9400000C9400000C9400000C9452
:10002E0000000C9400000C9400000C9460090C94D9
:10003E0000000C9400000C9400000C9400000C9432
:10004E0000000C947D090C9400000C9400000C949C
:10005E0000000C9400000C948A050C9400000C9483
:10006E0000000C9400000C9400000C9400000C9402
:10007E0000000C9400000C9400000C9400000C94F2
:10008E0000000C9400000C9400000C9400000C94E2
:10009E0000000C9400000C9400000C9400000C94D2
:1000AE0000000C9400000C9400000C9400000C94C2
:1000BE0000000C9400000C9400000C9400000C94B2
:1000CE0000000C9400000C9400000C9400000C94A2
:1000DE0000000C9400000C9400000C9400000C9492
:1000EE0000000C9400000C9400000C9400000C9482
:1000FE0000000C9400000C9400000C9400000C9472
:10010E0000000C9400000C9400000C9400000C9461
:10011E0000000C9400000C9400000C9400000C9451
:10012E0000000C9400000C947E090C9400000C94BA
:10013E0000000C9400000C9400000C9400000C9431
:10014E0000000C9400000C9400000C9400000C9421
:10015E0000000C9400000C9400000C9400000C9411
:10016E0000000C9400000C9400000C9400000C9401
:10017E0000000C9400000C9400000C9400000C94F1
:10018E0000000C9400000C9400000C9400000C94E1
:10019E0000000C9400000C9400000C9400000C94D1
:1001AE0000000C9400000C9400000C9400000C94C1
:1001BE0000000C9400000C9400000C9400000C94B1
:1001CE0000000C9400000C9400000C9400000C94A1
:1001DE0000000C9400000C940000FF007265672074
:1001EE00696E6974206F6B00696E69742062756642
:1001FE006572206F6B005354415254205748494C3E
:10020E0045004D783D25782C4255463A2532782CBE
:10021E002532782C2532782C53697A653D25326942
:10022E0000002D4E414E000001002D4E414E004962
:10023E004E46000001007130E801010074303602B4
:10024E000000F894EE27F091CC01F860F093CC0109
:10025E00F8EDF4BFE093A200A0918000AD7FA16005
:10026E00F4BFA093800080E090E4A0E0B0E2ED93B4
:10027E000197E9F7E2E4F2E085919591009761F03C
:10028E00A591B59105901590BF01F00105900D92C5
:10029E000197E1F7FB01F0CF8BBF8CBFE0E0E0B937
:1002AE00E1B9E2B9E3B9E4B9E5B9E6B9E7B9E8B954
:1002BE00E9B9EAB9EBB9ECB9EDB9EEB9EFB92E2E51
:1002CE00E1E03E2EE0E04E2E5E2E6E2E7E2E8E2E27
:1002DE009E2EAE2EBE2ECE2EDE2EEFEFEDBFEFE516
:1002EE00EEBFC0E0D0E30C947F091A930A9310E09E
:1002FE0000E0163180F4103031F0E12FF0E0E45CD4
:10030E00FF4CE0810E0FE12FF0E0E45CFF4CA0818A
:10031E0085D61F5FEECF00935230A09152307ED61D
:10032E000991199108950E944E0E11F5A2E0B0E0C8
:10033E00E0EA0E94DB13A3E0B0E0E0E30E94DB13EF
:10034E00A4E0B0E0E3E30E94DB13A5E0B0E0E5E358
:10035E000E94DB13A6E0B0E00E94540E0E945F0ED6
:10036E000E94660E24F40E946E0E7394F9CF6624DA
:10037E000E944E0E09F058C0A8E0B0E0EFEA0E94CD
:10038E00DB13A9E0B0E0E1E00E94DB13AAE0B0E0ED
:10039E00E3E60E94DB13ABE0B0E0E0E60E94DB1385
:1003AE00ACE0B0E0E4E60E94DB13ADE0B0E0E0E0EC
:1003BE000E94DB13AEE0B0E00E94DB13AFE0B0E0D2
:1003CE000E94DB13A0E1B0E00E94DB13A1E1B0E0DC
:1003DE000E94DB13A2E1B0E00E94DB13A3E1B0E0C8
:1003EE000E94DB13A4E1B0E0E8E90E94DB13A5E173
:1003FE00B0E0EAE30E94DB13A6E1B0E0ECED0E9470
:10040E00DB13A7E1B0E0E5E00E94DB13A8E1B0E06A
:10041E000E94DB130E94830E0E94660E24F40E943B
:10042E00910E7394F9CF66240E944E0EC9F4AAE180
:10043E00B0E0EAEA0E94DB13ABE1B0E0E0E60E9436
:10044E00DB13ACE1B0E0EAEE0E94A60E0E94B00E05
:10045E000E94660E24F40E94B70E7394F9CF6624A0
:10046E000E944E0EC9F4A6E5B0E0E2EA0E94DB134C
:10047E00A7E5B0E0E2E00E94DB13A8E5B0E0E0E023
:10048E000E94A60E0E94CC0E0E94660E24F40E94BC
:10049E00D30E7394F9CF66240E944E0E11F5A9E384
:1004AE00B0E0EDEA0E94DB13AAE3B0E0EAE50E94B9
:1004BE00DB13ABE3B0E0E0E00E94DB13ACE3B0E0B3
:1004CE00EAE50E94DB13ADE3B0E00E94540E0E94F9
:1004DE00E80E0E94660E24F40E94EF0E7394F9CF7C
:1004EE0066240E944E0E09F5A6E7B0E0E6EA0E94E9
:1004FE00DB13A7E7B0E0E0E00E94DB13A8E7B0E073
:10050E000E94DB13A9E7B0E0E1E00E94DB13AAE74B
:10051E00B0E00E94540E0E94040F0E94660E24F456
:10052E000E940B0F7394F9CF66240E944E0E09F0B1
:10053E008CC0AEE1B0E0E1EA0E94DB13AFE1B0E0C7
:10054E00E3E50E94DB13A0E2B0E0E5E70E94DB13D7
:10055E00A1E2B0E0EEE60E94DB13A2E2B0E0E0E240
:10056E000E94DB13A3E2B0E0E3E50E94DB13A4E2FA
:10057E00B0E0E5E60E94DB13A5E2B0E0E0E70E9402
:10058E00DB13A6E2B0E0E0E20E94DB13A7E2B0E0EC
:10059E00E2E30E94DB13A8E2B0E0E1E30E94DB138A
:1005AE00A9E2B0E0E0E20E94DB13AAE2B0E0E2E3EF
:1005BE000E94DB13ABE2B0E0E3E30E94DB13ACE29C
:1005CE00B0E0EAE30E94DB13ADE2B0E0E3E30E94A9
:1005DE00DB13AEE2B0E0E6E30E94DB13AFE2B0E085
:1005EE00EAE30E94DB13A0E3B0E0E2E30E94DB1338
:1005FE00A1E3B0E0E4E30E94DB13A2E3B0E0E0E2AB
:10060E000E94DB13A3E3B0E0E2E30E94DB13A4E35A
:10061E00B0E0E0E30E94DB13A5E3B0E0E1E30E946B
:10062E00DB13A6E3B0E0E4E30E94DB13A7E3B0E044
:10063E00E0E00E94DB130E94200F0E94660E24F45D
:10064E000E942E0F7394F9CF66240E944E0EA1F4D1
:10065E00AFE3B0E0E7EA0E94DB13A0E4B0E0E2E42F
:10066E000E94DB130E94430F0E94660E24F40E9428
:10067E00510F7394F9CF66240E944E0EC9F4A2E472
:10068E00B0E0E7E70E94DB13A3E4B0E0E0E00E94F5
:10069E00DB13A4E4B0E0ECEF0E94A60E0E94660FFE
:1006AE000E94660E24F40E946D0F7394F9CF662497
:1006BE000E944E0E09F041C0AAE4B0E0EBEA0E949F
:1006CE00DB13ABE4B0E0E5E70E94DB13ACE4B0E093
:1006DE00EEE60E94DB13ADE4B0E0E7E30E94DB132D
:1006EE00AEE4B0E0E0E30E94DB13AFE4B0E0E2E39F
:1006FE000E94DB13A0E5B0E0E2E60E94DB13A1E569
:10070E00B0E0EEE00E94DB13A2E5B0E0E4E00E9470
:10071E00DB13A3E5B0E0E4E10E94DB13A4E5B0E057
:10072E00EEE00E94DB130E94820F0E94660E24F4FC
:10073E000E94900F7394F9CF66240E944E0E81F59D
:10074E00AAE5B0E0EEEA0E94DB13ABE5B0E0EFEF16
:10075E000E94DB13ACE5B0E00E94DB13ADE5B0E028
:10076E000E94DB13AEE5B0E00E94DB13AFE5B0E014
:10077E000E94DB13A0E6B0E00E94DB13A1E6B0E01E
:10078E000E94DB13A2E6B0E00E94DB130E94A50FCD
:10079E000E94660E24F40E94B30F7394F9CF662460
:1007AE000E944E0E29F5AAE6B0E0E4EA0E94DB13A1
:1007BE00ABE6B0E0E0E00E94DB13ACE6B0E0ECEFBD
:1007CE000E94DB13ADE6B0E0E8E60E94DB13AEE676
:1007DE00B0E0E7EF0E94DB130E94C80F0E94D00F1B
:1007EE000E94660E24F40E94D70F7394F9CF6624EC
:1007FE000E944E0E09F5A0E7B0E0E8E50E94DB137B
:10080E00A1E7B0E0E0E00E94DB13A2E7B0E00E94B7
:10081E00DB13A3E7B0E0E1E00E94DB13A4E7B0E056
:10082E000E94540E0E94EC0F0E94660E24F40E9449
:10083E00F30F7394F9CF66240E944E0EC1F4A6E412
:10084E00B0E0E6E70E94DB13A7E4B0E0EFEF0E9412
:10085E00DB13A8E4B0E00E94A60E0E9408100E94CE
:10086E00660E24F40E940F107394F9CF66240E9432
:10087E004E0E01F5A4E6B0E0EAE60E94DB13A5E613
:10088E00B0E0E0E00E94DB13A6E6B0E00E94DB13CE
:10089E00A7E6B0E00E94DB13A8E6B0E00E94540E7B
:1008AE000E9424100E94660E24F40E942B10739452
:1008BE00F9CF66240895E5EAE0933C30E0E4E09356
:1008CE003D30EFE1E0933E30E0E0E0933F30E093E7
:1008DE004030E1E0E0934130EFE0E0934230E0E27F
:1008EE00E0934330E9E0E0934430E0E2E0934530BA
:1008FE00E1E0E0934630EDEAE0934730EDE0E0933F
:10090E004830ECEAE0934930EDE0E0934A30E8EA13
:10091E00E0934B30E1E6E0934C30E0E3E0934D3072
:10092E00E1E0E0934E30E0E4E0934F30E1E0E0931D
:10093E005030E9E8E09351300895E0E0E09304068A
:10094E00E0930006E0931006E0931106E093120682
:10095E00E0931306E0931406E0931506E093160653
:10096E00E0931706E0910906E07FE0930906E0E0C8
:10097E00E0930A06E0930B06E0932406E09320062C
:10098E00E0933006E0933106E0933206E0933306AF
:10099E00E0933406E0933506E0933606E09337068F
:1009AE00E0912906E07FE0932906E0E0E0932A0635
:1009BE00E0932B06E8E1E0934406E8EBE093400673
:1009CE00E0E0E0935006E0935106E0935206E09388
:1009DE005306E0935406E0935506E0935606E093D3
:1009EE005706E0914906E07FE0934906E0E0E09388
:1009FE004A06E0934B06E0E8E0936406E093600657
:100A0E00E0E0E0937006E0937106E0937206E093E7
:100A1E007306E0937406E0937506E0937606E09312
:100A2E007706E0916906E07FE0936906E0E0E093E7
:100A3E006A06E0936B06E0938406E0938006E8E195
:100A4E00E0939006E0939106E0E0E0939206E09347
:100A5E009306E0939406E0939506E0939606E09352
:100A6E009706E0918906E07FE0938906E0E0E09347
:100A7E008A06E0938B06E093A406E093A006E0932B
:100A8E00B006E093B106E093B206E093B306E093AE
:100A9E00B406E093B606E093B706E091A906E07FB0
:100AAE00E093A906E0E0E093AA06E093AB06E0939C
:100ABE00E407E093E007E093F007E093F107E0919D
:100ACE00E907E07FE093E907E0E0E093EA07E093CF
:100ADE00EB070895E8E0E0934506E3E0E093A50810
:100AEE00E091A308E07CE063E093A308E5EFE093D8
:100AFE00A608ECECE093A708E091A408E07EE8617C
:100B0E00E093A40808950E9440108090A108B09030
:100B1E00A008E82DEC7131F4E22DF0E0E050F04D3C
:100B2E00B0822394E0917130F0E0EF3FA0E0FA073D
:100B3E0009F0F8C1E0910030F0E0EF3FA0E0FA07D5
:100B4E0031F40E944E10EFEFE0930030E9C1EA3C21
:100B5E00A0E0FA0721F4EAEC0E945410E1C1E53F4F
:100B6E00A0E0FA0721F4E5EF0E945410D9C1E53B4D
:100B7E00A0E0FA0749F4E5EBE0937130E4E03E2E95
:100B8E00EFEFE0930030CCC1E03AA0E0FA07D9F4E1
:100B9E000E945C100E94C80F0E945F0E0E94660E9B
:100BAE0024F40E946E0E7394F9CF7724761440F4D9
:100BBE00A72DB0E0AE5FBF4F0E9461107394F6CFC9
:100BCE000E946610ADC1E13AA0E0FA07C9F40E9496
:100BDE005C100E94200F0E94660E24F40E942E0FBD
:100BEE007394F9CF7724761440F4A72DB0E0A25E6B
:100BFE00BF4F0E9461107394F6CF0E94661091C190
:100C0E00E23AA0E0FA07D9F40E945C100E946B1041
:100C1E000E94CC0E0E94660E24F40E94D30E739492
:100C2E00F9CF7724761440F4A72DB0E0AA5ABF4F1F
:100C3E000E9461107394F6CF0E94661072C1E43A5E
:100C4E00A0E0FA07D9F40E945C100E94C80F0E941F
:100C5E00D00F0E94660E24F40E94D70F7394F9CF22
:100C6E007724761440F4A72DB0E0A659BF4F0E940A
:100C7E0061107394F6CF0E94661053C1E63AA0E05D
:100C8E00FA07D9F40E945C100E94C80F0E94040F4C
:100C9E000E94660E24F40E940B0F7394F9CF7724F2
:100CAE00761440F4A72DB0E0AA58BF4F0E946110F1
:100CBE007394F6CF0E94661034C1E73AA0E0FA07AB
:100CCE00C9F40E945C100E94430F0E94660E24F429
:100CDE000E94510F7394F9CF7724761440F4A72D08
:100CEE00B0E0A15CBF4F0E9461107394F6CF0E94DA
:100CFE00661017C1EA3AA0E0FA07D9F40E945C1018
:100D0E000E946B100E94B00E0E94660E24F40E9488
:100D1E00B70E7394F9CF7724761440F4A72DB0E074
:100D2E00A65EBF4F0E9461107394F6CF0E946610AC
:100D3E00F8C0EB3AA0E0FA07C9F40E945C100E94DA
:100D4E00820F0E94660E24F40E94900F7394F9CFC6
:100D5E007724761440F4A72DB0E0A65BBF4F0E9417
:100D6E0061107394F6CF0E946610DBC0ED3AA0E0DE
:100D7E00FA07D9F40E945C100E94C80F0E94E80E78
:100D8E000E94660E24F40E94EF0E7394F9CF77241E
:100D9E00761440F4A72DB0E0A75CBF4F0E946110FF
:100DAE007394F6CF0E946610BCC0EE3AA0E0FA072C
:100DBE00C9F40E945C100E94A50F0E94660E24F4D6
:100DCE000E94B30F7394F9CF7724761440F4A72DB5
:100DDE00B0E0A65ABF4F0E9461107394F6CF0E94E6
:100DEE0066109FC0EF3AA0E0FA07C9F40E945C10AB
:100DFE000E94830E0E94660E24F40E94910E73943C
:100E0E00F9CF7724761440F4A72DB0E0A85FBF4F3A
:100E1E000E9461107394F6CF0E94661082C0E8356E
:100E2E00A0E0FA07D9F40E945C100E94C80F0E943D
:100E3E00EC0F0E94660E24F40E94F30F7394F9CF08
:100E4E007724761440F4A72DB0E0A059BF4F0E942E
:100E5E0061107394F6CF0E94661063C0EA36A0E06C
:100E6E00FA07D9F40E945C100E94C80F0E94241049
:100E7E000E94660E24F40E942B107394F9CF7724EF
:100E8E00761440F4A72DB0E0AC59BF4F0E9461100C
:100E9E007394F6CF0E94661044C0E637A0E0FA07BE
:100EAE00D9F40E945C100E946B100E9408100E94E0
:100EBE00660E24F40E940F107394F9CF77247614E3
:100ECE0040F4A72DB0E0AA5BBF4F0E94611073944F
:100EDE00F6CF0E94661025C0E737A0E0FA07D9F4D6
:100EEE000E945C100E946B100E94660F0E94660E9C
:100EFE0024F40E946D0F7394F9CF7724761440F486
:100F0E00A72DB0E0AE5BBF4F0E9461107394F6CF79
:100F1E000E94661006C0EFEFE09300300E944E1064
:100F2E00222404C0EA3CA0E0FA0731F5E2E0E21523
:100F3E0011F5A0910030A13021F4A0910130A13023
:100F4E0009F003C00E94731010C0A0910030AF30A2
:100F5E0021F4A0910130AF3009F007C00E94731048
:100F6E000E944E10E1E0AE2E05C0EFEFE09371301F
:100F7E00E1E03E2E222451C0E53FA0E0FA0719F52C
:100F8E00E2E0E215F9F4A0910030AF3521F4A09122
:100F9E000130AF3509F013C0A5EF40D0A5EF3ED01C
:100FAE00A5EF3CD00E944E102224A5E0B0E00E9496
:100FBE008411E8EDE4BFE1E0E093790003C00E9404
:100FCE004E1022242AC0E53BA0E0FA0701F5E4E02A
:100FDE00E215E1F47724E3E07E1640F4E72DF0E02D
:100FEE00E050F04DE0819E0E7394F5CFA09103304A
:100FFE009A1649F4A5EB12D0A5EB10D00E944E1014
:10100E002224992403C00E944E10222406C0EFEF22
:10101E00E09300300E944E1022245AC1AA93E09110
:10102E00A108E072E1F3E881E093A00820C0E0E8B7
:10103E00E0936506E3E0E093B509E091B309E07C47
:10104E00E093B309EEE6E093B609E8EAE093B70958
:10105E00E091B409E07EE860E093B4090895AA93A4
:10106E00E091B109E072E1F3E881E093B0092196D5
:10107E0008951A9310E01E3140F4E12FF0E0E25E85
:10108E00FF4CA081ECDF1F5FF6CFAAE0E8DFADE0FA
:10109E00E6DFDCC01A930A931FB7F894E0910008BC
:1010AE00E07FE560E0930008E0910108E870E093CE
:1010BE000108E0910308E071E0930308E09106084F
:1010CE00E07FE160E0930608E0910708E070E093AE
:1010DE000708E0919900EE7F0E2FE8EDE4BF009334
:1010EE009900E0918008E07CE0938008E09183080D
:1010FE00E87EE0938308E0E0E0938208A4E8B8E09D
:10110E000A2EAC91E0918408E470EA2BA02DEC93AA
:10111E00E0910C08E0930C08E0E0F0E0E09320088A
:10112E00F0932108E1E1FAE7E0932608F09327080F
:10113E00E0E0F0E0E0932808F0932908E0932A0815
:10114E00F0932B08E0932C08F0932D08E0932E08D3
:10115E00F0932F081FBFAAC01A931FB7F894E091FF
:10116E004008E07FE460E0934008E0914108E87CAD
:10117E00E0934108E0914308E071E0934308E09169
:10118E004608E07FE160E0934608E0914708E07F83
:10119E00E0934708E0914C08E0934C08E0E0F0E063
:1011AE00E0936008F0936108EFE3FCE9E0936608D2
:1011BE00F0936708E0E0F0E0E0936808F0936908C8
:1011CE00E0936A08F0936B0840C01A931FB7F89427
:1011DE00E0910009E07FE160E0930009E0910109F0
:1011EE00E870E0930109E0910309E071E0930309CF
:1011FE00E0910609E07FE160E0930609E0910709BE
:10120E00E070E0930709E0910C09E0930C09E0E02F
:10121E00F0E0E0932009F0932109EFE3F6EAE09382
:10122E002609F0932709E0E0F0E0E0932809F09317
:10123E002909E0932A09F0932B09E0932C09F093E6
:10124E002D09E0932E09F0932F091FBF19910895D0
:10125E001A930A930FB7F894E0915000E260E0936E
:10126E005000E0914100E0781E2FE8EDE4BF1093AE
:10127E004100E0916000EE7FE0936000E09151004C
:10128E00E270E1F3E0914000E87FE1601E2FE8EDAF
:10129E00E4BF10934000E0915000E27EE0935000D6
:1012AE00E091B400EC7FE093B4000FBF0991199167
:1012BE0008950E944010AA2021F0A0917130AF3FF6
:1012CE0009F006C00E947C01A2E0B0E00E948411E9
:1012DE00E991EFBFF991E991B991A991999189910C
:1012EE0079916991F990199009901895189518951A
:1012FE00F894E091A200E873E5601E2FE8EDE4BFDC
:10130E001093A200E0E0E093A100A2DF16DBE2DB87
:10131E008EDE0E9462040E947910EAEEF1E00E94D5
:10132E007E100E947910E6EFF1E00E947E104DDFF4
:10133E00B1DE12DF78940E947910E4E0F2E0FA93C5
:10134E00EA9380E061D3249694DE0E949A01A1E094
:10135E00B0E00E94D213E23010F0E93C28F0A1E098
:10136E00B0E0E1E00E94DB13A1E0B0E00E94D213F6
:10137E00EF5F0E94DB13A0917130AF3FE9F00E9446
:10138E007910E0E1F2E0FA93EA93E09171300E9475
:10139E008A10E09100300E948A10E09101300E9484
:1013AE008A10E09102300E948A10E32D0E948A106A
:1013BE0084E12AD368965DDEDECFFFCFBA93AA937F
:1013CE001A930A93AA81BB8112960E94A213309798
:1013DE0029F1AA81BB8114960E94A2138F01309726
:1013EE0061F00230E0E01E0780F0F80131978F01C6
:1013FE00AA81BB811496ED93FC93AA81BB811296B0
:10140E000E9490103197AC81A083AA81BB810E946B
:10141E00A213FF2312F00E94901006C0AA81BB8176
:10142E00EFEFFFEFED93FC93198108812596089558
:10143E000E949610E0E8EA83EFE3EB830E940B1420
:10144E00EE85FF85EF3FAFEFFA0749F4E885F985A2
:10145E00FA93EA93A0E3B2E00E943F0DB7C0EF3FCC
:10146E00AFE7FA0749F4E885F985FA93EA93A1E321
:10147E00B2E00E943F0DAAC0AB85A73010F0E6E0A7
:10148E00EB871B85E12F1150E03019F00E949D1063
:10149E00F9CFEC85FD856E857F850E94051421F4BC
:1014AE0030E00E949D102DC03B850E94AC1009F0CB
:1014BE0008F40BC00E949D100E94AC1028F00E94F0
:1014CE00B7100E94BC10F8CF0DC00E94AC1040F4B3
:1014DE000E94B7100E94C8100E94CF103150F5CF55
:1014EE000E949D10EC85FD856E857F850E94D4102F
:1014FE000E94CF100E94AC1020F00E94B7100E94E4
:10150E00BC1010E0EB85E117A8F1AC81BD818E8196
:10151E009F810E94DB100E94D410DF01CB010E943C
:10152E00960DEC83FD836E837F830E94B7100E941D
:10153E00D2120E94C1110E2F0E94E2100E94E910D9
:10154E00FF27662777270E94FA11AC81BD818E8115
:10155E009F810E9484120E94B7100E94EE100E947A
:10156E00CF10E12F1F5FE03069F60E94E210EEE22D
:10157E00EC93C8CF0E94F3103197AA85A083303028
:10158E002CF43195A885B985EDE203C0A885B985FF
:10159E00EBE2EC930E94F3100E94F3103197BF011F
:1015AE00A32FEAE00E945C13E05DDB01EC930E9446
:1015BE00F3103197BF01A32FEAE00E948613E05D7E
:1015CE00DB01EC93A885B985E0E0EC930E94121440
:1015DE0060960895BA93AA93EF9761970E940914A3
:1015EE0010E0FE01E85AFF4F0190F081E02DE887F0
:1015FE00F987FE01EA5AFF4F0190F081E02DEE834C
:10160E00FF83AE81BF81E0E0F0E0ED93FC93DE015D
:10161E00A45ABF4F0E9490103197E4912E2FE030C4
:10162E0009F4E9C1E12FE03039F4253211F411E06B
:10163E0002C00E94F910DEC1E130C1F4253219F466
:10164E000E94F910D6C112E0E0E0ED8B00E02D32E1
:10165E0011F401E0CFC12B3219F4EBE2ED8BCAC1CC
:10166E00203219F4E0E2ED8BC5C102C0E23039F44C
:10167E0050E013E0203311F40068BCC102C0E33027
:10168E0091F4203310F02A3308F007C0AAE05A9FD5
:10169E00502DE22FE0535E0FADC140E02E3211F41B
:1016AE0014E0A8C10FC0E43099F4203310F02A33AF
:1016BE0008F008C00062AAE04A9F402DE22FE053D6
:1016CE004E0F98C12C3619F4026015E093C103C079
:1016DE00E53009F08FC1E22FE33659F40E94001174
:1016EE000E9407110E940011A481AA930E940E115C
:1016FE0080C1E53411F0E53609F403C0E63609F091
:10170E0048C0FE017696EE87FF870E9414110E9454
:10171E00A6130E941B110E942011AD85AA2332F040
:10172E00AD89AB3259F0A03281F017C00E94221160
:10173E000E948E110E941B11EDE2ED8B07FF05C07A
:10174E00ED89EA930E940E1108C0EE85FF85319651
:10175E00EE87FF873197AD89A08305FF46E02636D9
:10176E0051F40E9422110E94BB134A93AB89BC898B
:10177E000E94AD0D09C00E9422110E94BB134A9314
:10178E002A93AC89BD8954DEFE0176960E942711FC
:10179E001EC0E33739F40E9420110E942F110E94BF
:1017AE0027110EC0E037C1F40E9420110E942F11A4
:1017BE00EE87FF87AE85BF850E94580D1E2F0860ED
:1017CE000F77403011F0411708F001C0142F40E0A0
:1017DE00E0E0EC8B30E06DC0E43611F0E93611F448
:1017EE00046002C0E537A1F4EAE0EC8B01FF08C00B
:1017FE00E0E0FAEC6AE97BE30E9434111AE022C0C1
:10180E00E0E1F7E260E070E00E94341115E01AC0EA
:10181E00E83511F4086003C0E83709F0EAC0E0E1EA
:10182E00EC8B01FF08C0E0E0F0E060E070E10E94A8
:10183E00341118E007C0E0E0F0E160E070E00E94D3
:10184E00341114E0403011F00F7701C041E001FF78
:10185E0008C00E9420110E94141114960E94A61313
:10186E000FC002FF07C00E9420110E942F110E947C
:10187E00491306C00E9420110E942F116627772758
:10188E00EA87FB876C877D8702FF12C0AD85AA238E
:10189E0042F40E9422110E943B130E941B11EDE2A2
:1018AE00ED8BED89E03019F01F5F4F5F01C00B7FAC
:1018BE00342F00FD14C0151710F4351708F00FC0A3
:1018CE0007FF08C002FF04C00B7F2D89115001C015
:1018DE0020E301C020E20E94F9105150ECCF141702
:1018EE0090F4006102FF06C00E94391109F05150B8
:1018FE0011504150E0E3EA930E940E11503009F06E
:10190E0051504150ECCF312FEC89E030B9F43030EA
:10191E00A1F003FF06C0EE85FF852591EE87FF87B8
:10192E0005C0AE85BF852D91AE87BF870E94F91089
:10193E00503009F051503150EACF51C00E944B1136
:10194E000E9461132E2F2A3030F003FF02C0295C53
:10195E0001C0295A01C0205D04FD21C0213360F46D
:10196E00A889B9898A899B89A130E0E0BE07E0E0A9
:10197E008E07E0E09E0709F40BC0431740F453179F
:10198E0010F000FF01C010C020E207FF08C020E3E6
:10199E00006102FF04C00E94391109F051500E94EB
:1019AE00F910503009F0515031500E944B110E94E5
:1019BE0092130E941B11EC89A889B9898A899B8987
:1019CE00FF27662777270E9461130E943411E8894A
:1019DE00F9896A897B890E94051409F0AFCF00FF4F
:1019EE0008C0503031F05150E0E2EA930E940E11DF
:1019FE00F8CF10E00CCEAE81BF810E94A2130E94E0
:101A0E001014EF966F960895FF92F82E26970E9467
:101A1E000B140E945411309719F4EFEFFFEF23C00F
:101A2E00DE0116960E9437138D010E945411EE832B
:101A3E00FF83E0E0E887E987DE011A960E943713FC
:101A4E000E94A213FA93EA931A930A93E5EEF9E031
:101A5E00FA93EA93DE011A96BDDD9F01AE81BF8136
:101A6E00E0E0EC93F9010E9412142A96FF9008957B
:101A7E00BA93AA93E991F991A991B991CD010590E3
:101A8E000D920020E1F7FC010895BA93AA93A99153
:101A9E00B991EE27FF276D91662311F03196FBCF9A
:101AAE000895BA93AA93AA27BB27E991F9910590B5
:101ABE00002011F01196FBCFFD0108950E94C01376
:101ACE007B816A81F981E88177FB770F67FD716011
:101ADE00972F9E5781F078F0983190F4AA27BB2764
:101AEE00882708948795B795A7959A95D1F7EA23F5
:101AFE00FB23682305C0E8947727EE27FF27662788
:101B0E006F77769508F4606877F9A991B991899104
:101B1E009991EA17FB076807790797FB08950E94CA
:101B2E00C0130E94B1130E94650D0E94B61319F4E2
:101B3E000E94AC1309C0E6F70E94AC13A0E0B0E01F
:101B4E0080E89FE30E942D1224960895E8D2E0E0EB
:101B5E00EA83EFE3EB831A930A93EB85FC85EF3F61
:101B6E00AFEFFA0731F4A0D3A8E3B2E00E943F0D25
:101B7E008AC0EF3FAFE7FA0731F496D3A9E3B2E09C
:101B8E000E943F0D80C0AC85AA2352F4E985FA85E8
:101B9E006B857C850E948E118CD390D3EDE2EC93F5
:101BAE00A885A73010F0E6E0E8871885E12F1150E0
:101BBE00E03021F08AD3F8D28DD3F8CF90D30E94A3
:101BCE00341277D310E0E0E0F0E060E87FE382D3F8
:101BDE0086D30E94171368F078D3D3D27BD31F5FBE
:101BEE00173230F061D3ADE3B2E00E943F0D4BC02F
:101BFE00EFCF103021F462D3E0E3EC9320C0E12F5D
:101C0E001150E030E1F061D3CFD2C7D2DF01CB016A
:101C1E000E94960D5FD363D30E94D2120E94C1110F
:101C2E000E2F4CD3CFD2F0E050D30E9449130E9416
:101C3E00FA110E9484125CD3CAD23BD3E0CFE8855E
:101C4E00E030E9F03BD3EEE2EC93E885E150E88733
:101C5E00EF5FA9F04DD395D22CD3E985FA856B852C
:101C6E007C850E94C1110E2F29D3ACD2F0E040D357
:101C7E000E9449130E94FA11AAD21BD3E6CFAE815D
:101C8E00BF81E0E0EC93198108812D960895A1E0C3
:101C9E00B0E00E94D213EF3F0895E0E00E94DB1304
:101CAE00E6E06E2EE1E07E2EE62DF0E0319708950F
:101CBE00EE5FFF4FDF01E0E00E94DB130895E62D9B
:101CCE00F0E03197A72DB0E0AE17BF070895E62DCF
:101CDE00F0E03197EE5FFF4FBF01DF010E94D2139C
:101CEE000E2EA72DB0E0AE5FBF4F0E94D213E00DB7
:101CFE00DB010E94DB130895E2E16E2EE1E07E2E01
:101D0E00E62DF0E03197E85FFF4FDF01E0E00E9443
:101D1E00DB130895E62DF0E03197E85FFF4FBF012A
:101D2E00DF010E94D2130E2EA72DB0E0A85FBF4F89
:101D3E000E94D213E00DDB010E94DB1308950E9476
:101D4E00DB13E4E06E2EE1E07E2EE62DF0E031971F
:101D5E000895E65EFF4FDF01E0E00E94DB13089579
:101D6E00E62DF0E03197E65EFF4FBF01DF010E94E6
:101D7E00D2130E2EA72DB0E0A65EBF4F0E94D21337
:101D8E00E00DDB010E94DB130895EA5AFF4FDF01DD
:101D9E00E0E00E94DB130895E62DF0E03197EA5A59
:101DAE00FF4FBF01DF010E94D2130E2EA72DB0E010
:101DBE00AA5ABF4F0E94D213E00DDB010E94DB1323
:101DCE000895E75CFF4FDF01E0E00E94DB1308950A
:101DDE00E62DF0E03197E75CFF4FBF01DF010E9477
:101DEE00D2130E2EA72DB0E0A75CBF4F0E94D213C8
:101DFE00E00DDB010E94DB130895EA58FF4FDF016F
:101E0E00E0E00E94DB130895E62DF0E03197EA58EA
:101E1E00FF4FBF01DF010E94D2130E2EA72DB0E09F
:101E2E00AA58BF4F0E94D213E00DDB010E94DB13B4
:101E3E000895EBE16E2EE1E07E2EE62DF0E0319777
:101E4E00E25EFF4FDF01E0E00E94DB130895E62D16
:101E5E00F0E03197E25EFF4FBF01DF010E94D21327
:101E6E000E2EA72DB0E0A25EBF4F0E94D213E00D42
:101E7E00DB010E94DB130895E3E06E2EE1E07E2E7F
:101E8E00E62DF0E03197E15CFF4FDF01E0E00E94CC
:101E9E00DB130895E62DF0E03197E15CFF4FBF01B3
:101EAE00DF010E94D2130E2EA72DB0E0A15CBF4F12
:101EBE000E94D213E00DDB010E94DB130895EE5B4E
:101ECE00FF4FDF01E0E00E94DB130895E62DF0E006
:101EDE003197EE5BFF4FBF01DF010E94D2130E2E32
:101EEE00A72DB0E0AE5BBF4F0E94D213E00DDB0119
:101EFE000E94DB130895ECE06E2EE1E07E2EE62DBF
:101F0E00F0E03197E65BFF4FDF01E0E00E94DB136C
:101F1E000895E62DF0E03197E65BFF4FBF01DF013C
:101F2E000E94D2130E2EA72DB0E0A65BBF4F0E94CB
:101F3E00D213E00DDB010E94DB130895EAE06E2E52
:101F4E00E1E07E2EE62DF0E03197E65AFF4FDF01FD
:101F5E00E0E00E94DB130895E62DF0E03197E65A9B
:101F6E00FF4FBF01DF010E94D2130E2EA72DB0E04E
:101F7E00A65ABF4F0E94D213E00DDB010E94DB1365
:101F8E000895E6E06E2EE1E07E2EE62DF0E031972C
:101F9E000895E659FF4FDF01E0E00E94DB1308953C
:101FAE00E62DF0E03197E659FF4FBF01DF010E94A9
:101FBE00D2130E2EA72DB0E0A659BF4F0E94D213FA
:101FCE00E00DDB010E94DB130895E059FF4FDF01A6
:101FDE00E0E00E94DB130895E62DF0E03197E05922
:101FEE00FF4FBF01DF010E94D2130E2EA72DB0E0CE
:101FFE00A059BF4F0E94D213E00DDB010E94DB13EC
:10200E000895EA5BFF4FDF01E0E00E94DB130895C5
:10201E00E62DF0E03197EA5BFF4FBF01DF010E9432
:10202E00D2130E2EA72DB0E0AA5BBF4F0E94D21383
:10203E00E00DDB010E94DB130895EC59FF4FDF0129
:10204E00E0E00E94DB130895E62DF0E03197EC59A5
:10205E00FF4FBF01DF010E94D2130E2EA72DB0E05D
:10206E00AC59BF4F0E94D213E00DDB010E94DB136F
:10207E0008950A921A92FA926A937A938A939A938D
:10208E00AA93BA93EA93FA93EFB7EA930895EFEF10
:10209E00E0937130E1E03E2E0895E0937130E2E07E
:1020AE003E2EEFEFE09300300895EFEFE093003017
:1020BE00222408950E94D213AE2F0C941508662484
:1020CE00EFEFE09371300895E4E06E2EE1E07E2EA6
:1020DE00E62DF0E031970895AAEC0E941508AAECBF
:1020EE000C941508EEE1F0E3FA93EA930895FA934F
:1020FE00EA9380E00E940B0D24960E944008A2E312
:10210E00B0E00C948411FF27662777270E94BB133B
:10211E0008950E94A2133196ED93FC930895BA93FD
:10212E00AA932497E0E0E883E9830895AC81BD810A
:10213E008E819F81E0E0F0E060E271E40E94841203
:10214E00EC83FD836E837F830895EC81FD816E8128
:10215E007F81AC85BD858E859F850E94171308955E
:10216E00AC85BD858E859F850895EDECFCEC6CEC01
:10217E007DE30E948412EC87FD876E877F873F5F29
:10218E000895E0E0F0E060E271E40E9484120895A8
:10219E00EC87FD876E877F870895A0E0B0E080E032
:1021AE009FE30E9434120895EDECFCEC6CEC7DE3A1
:1021BE000E9484120895A885B9851196A887B987BB
:1021CE0011970895E02FE05DEC93E02F08950E94A3
:1021DE00C5130E942D120895E885F9853196E8877A
:1021EE00F98708952A93AF81B885E985FA8509950F
:1021FE000895FE01E65AFF4F0190F081E02D0895FB
:10220E003497DE01A65ABF4FED93FC930895AF812C
:10221E00B885E985FA8509950895DE01A65ABF4F5E
:10222E000D90BC91A02D0895EA87FB876C877D8762
:10223E000895DFDFE5CFEA85FB856C857D85089502
:10224E00EE87FF87AE85BF850E944C0D1E2F089529
:10225E00E4DF14960E94A2130895E88BF98B6A8B23
:10226E007B8B08950B7FED89EA93DE01A95ABF4F50
:10227E000D90BC91A02DFE01E75AFF4F0190F08109
:10228E00E02D099550300895E889F9896A897B898E
:10229E00AA85BB858C859D850895DE011C960E94BE
:1022AE0037130E94A2130895EE81FF81FA93EA93E9
:1022BE000895E987FA876B877C870895AE81BF8181
:1022CE001196AE83BF8311970895AA81BB818C812D
:1022DE009D810895EA83FB836C837D830895EA8153
:1022EE00FB816C817D81A985BA858B859C8508953E
:1022FE00A985BA858B859C850895109639F080E462
:10230E009FE10197F1F7A8951197C9F708953097B6
:10231E006040704009F070580895552342F45038CB
:10232E0011F4E0FF04C03196691F791F6BF050E87D
:10233E00572711F45F93CFC05F3F31F0660F000C4B
:10234E0057956795752F08955F9300200AF0CFC0BB
:10235E00C8C050E8192E1522880F991F9527550FC2
:10236E00879550E8072E0522660F771F7527550FA4
:10237E0067950895689401C0E8945F93F2DF703812
:10238E0018F07F3F08F4A7C056E1571BAAF45195E9
:10239E0058300EF4593030F0EFEFFFEF6FEF7FE76C
:1023AE0077F91AC077275523B9F0EE0FFF1F661F76
:1023BE00771F5A95D1F710C07727583028F0EF2F96
:1023CE00F62F672F5850F9CF552331F07695679534
:1023DE00F795E7955A95D1F700200AF445D15F910C
:1023EE000895689401C0E894309760407040B1F051
:1023FE00002426F0772312F4009436D1172E7EE1B6
:10240E00112032F07A95EE0FFF1F661F111CF9CFC7
:10241E00EF2FF62F612D5F938ADF5F9108954F9313
:10242E00AF01FD01DA01AB01BC01CA01402D012C47
:10243E00142E4F910895EA0FFB1F681F0895E09523
:10244E00F0956095EF5FFF4F6F4F08955F9381DFBB
:10245E00903871F150E8152604C05F937ADF9038FA
:10246E0039F1703821F1572F591B2BF112F4D7DFA8
:10247E00FACF583118F0AA27BB278827583028F0F2
:10248E00AB2FB82F88275850F9CF552329F08695B2
:10249E00B795A7955A95D9F7502D512572F0CBDFE8
:1024AE0038F46795F795E795739513F420C0B7DF69
:1024BE003EDF5F910895D8F7FBCFEA1BFB0B680B4D
:1024CE0051F010F40094BBDF662392F3EE0FFF1F62
:1024DE00661F7A95CBF7EE27FF27662777275F9142
:1024EE000895EFEFFFEF6FE77FEF5F910895EFEF46
:1024FE00FFEF6FE77FE75F9108955F932ADF7038F4
:10250E0051F3903841F301240894791F23F41CF3FE
:10251E0000203AF3ECCF0F921F932F933F934F93DC
:10252E00112722279927689FA0018F9F302D410DDB
:10253E00591F6B9F300D411D591F8E9F27D0BF9F76
:10254E0025D06A9F23D0BE9F1DD0AF9F1BD0AE9FBC
:10255E00110D291F391F491F591FE32FF42F652F06
:10256E00522F4F913F912F911F910F9066232AF07A
:10257E00550FEE1FFF1F661F02C073954BF2CDDE87
:10258E005F910895100D211D391F02C0200D311DC0
:10259E00491F591F08955F93DCDE703821F4112016
:1025AE000AF49FCFA4CF903809F495CF0124089454
:1025BE00970B1BF4D4F30020F3CF792F1F932F9397
:1025CE003F934F9311241127222733274427552752
:1025DE0090E2AE17BF078607410730F0AE1BBF0B68
:1025EE00860B410B089401C08894551F221F331F80
:1025FE00111CAA1FBB1F881F441F9A9551F7F90182
:10260E00612D4F913F912F911F91662332F0550FFF
:10261E00EE1FFF1F661F7A9543F27FDE5F910895CE
:10262E0099239AF0772342F0971748F029F4AE17C2
:10263E00BF07860720F031F09894889408959894F7
:10264E00089408951894889408957723C2F79717DD
:10265E0098F3A9F7EA17FB07680788F399F3ECCF0D
:10266E000024AF0DB01D0895F09560957095E1951D
:10267E00FF4F6F4F7F4F0895FE2FFF0FFF0B6F2FF2
:10268E007F2F08956F2F660F660B762F0895002407
:10269E0098E0AA0F001C0E1A10F40E0E01C0A160D5
:1026AE009A95B9F7EA2FA02D089539D0F0DF0EF4E0
:1026BE00E19508953F934F935F930024112444278F
:1026CE00552730E2AA0FBB1F881F991F001C111C33
:1026DE00441F551F0E1A1F0A460B570B28F40E0ED9
:1026EE001F1E461F571F01C0A1603A9559F7FD01E5
:1026FE00BC01D001CA015F914F913F910895E894BA
:10270E00A7FF02C0A1956894E7FDE195C0DFEA2F0F
:10271E000EF4E1950895CEDFFD01BC010895E89415
:10272E00E7FF02C0E1956894A7FF04C0A19500F8E9
:10273E00039400FA0895ED91FC9111970895ED918F
:10274E00FD916D917C9113970895E881F9816A81CD
:10275E007B810895A881B9818A819B810895E88340
:10276E00F9836A837B8308957A936A93FA93EA9343
:10277E0008959A938A93BA93AA930895182E862F42
:10278E00612D192E972F712D1B2EBF2FF12D1A2E65
:10279E00AE2FE12D0895A895E091CF01E7FDFBCF77
:1027AE00B05FEC91B051089523D0B05F8C918E172D
:1027BE0011F4B05108959E2F1BD07F937FB7F894DC
:1027CE009C93B051A093C001B093C10180E080935F
:1027DE00C20185E38093CA0188ED91E084BF909396
:1027EE00CB0106D080E08093CA017FBF7F91089510
:1027FE00A8958091CF0187FDFBCF0895309760405B
:10280E00704008955A934A933A932A931A930A93CF
:10281E0008955D814C813B812A811981088108953B
:00000001FF
