:080000000C9428010C9400008F
:100008000C9400000C9400000C9400000C94000068
:100018000C9400000C9400000C9400000C94000058
:100028000C9400000C9400000C9400000C94000048
:100038000C942D0A0C9400000C9400000C94000001
:100048000C9400000C9400000C944A0A0C940000D4
:100058000C9400000C9400000C9400000C948A0589
:100068000C9400000C9400000C9400000C94000008
:100078000C9400000C9400000C9400000C940000F8
:100088000C9400000C9400000C9400000C940000E8
:100098000C9400000C9400000C9400000C940000D8
:1000A8000C9400000C9400000C9400000C940000C8
:1000B8000C9400000C9400000C9400000C940000B8
:1000C8000C9400000C9400000C9400000C940000A8
:1000D8000C9400000C9400000C9400000C94000098
:1000E8000C9400000C9400000C9400000C94000088
:1000F8000C9400000C9400000C9400000C94000078
:100108000C9400000C9400000C9400000C94000067
:100118000C9400000C9400000C9400000C94000057
:100128000C9400000C9400000C9400000C944B0AF2
:100138000C9400000C9400000C9400000C94000037
:100148000C9400000C9400000C9400000C94000027
:100158000C9400000C9400000C9400000C94000017
:100168000C9400000C9400000C9400000C94000007
:100178000C9400000C9400000C9400000C940000F7
:100188000C9400000C9400000C9400000C940000E7
:100198000C9400000C9400000C9400000C940000D7
:1001A8000C9400000C9400000C9400000C940000C7
:1001B8000C9400000C9400000C9400000C940000B7
:1001C8000C9400000C9400000C9400000C940000A7
:1001D8000C9400000C9400000C9400000C94000097
:1001E800FF0072656720696E6974206F6B00696E25
:1001F8006974206275666572206F6B0053544152B2
:1002080054205748494C45004D783D25782C425597
:10021800463A2532782C2532782C2532782C5369A9
:100228007A653D25326900002D4E414E00000100DF
:100238002D4E414E00494E46000001007130E80144
:100248000100723036020000F894EE27F091CC01DC
:10025800F860F093CC01F8EDF4BFE093A200A09110
:100268008000AD7FA160F4BFA093800080E090E49F
:10027800A0E0B0E2ED930197E9F7E2E4F2E08591BE
:100288009591009761F0A591B59105901590BF01E2
:10029800F00105900D920197E1F7FB01F0CF8BBFBC
:1002A8008CBFE0E0E0B9E1B9E2B9E3B9E4B9E5B996
:1002B800E6B9E7B9E8B9E9B9EAB9EBB9ECB9EDB922
:1002C800EEB9EFB92E2EE1E03E2EE0E04E2E5E2E86
:1002D8006E2E7E2E8E2E9E2EAE2EBE2EEFEFEDBFF4
:1002E800EFE5EEBFC0E0D0E30C944C0A1A930A93F2
:1002F80010E000E0163188F4103031F0E12FF0E022
:10030800E45CFF4CE0810E0FE12FF0E0E45CFF4C71
:10031800A0810E94E2081F5FEDCF00935230A091A8
:1003280052300E94E2080991199108950E941C0F09
:1003380011F5A2E0B0E0E0EA0E94B814A3E0B0E052
:10034800E0E30E94B814A4E0B0E0E3E30E94B8142C
:10035800A5E0B0E0E5E30E94B814A6E0B0E00E9492
:10036800220F0E942D0F0E94340F24F40E943C0F8C
:100378007394F9CF66240E941C0F09F058C0A8E0B6
:10038800B0E0EFEA0E94B814A9E0B0E0E1E00E9412
:10039800B814AAE0B0E0E3E60E94B814ABE0B0E01D
:1003A800E0E60E94B814ACE0B0E0E4E60E94B814BD
:1003B800ADE0B0E0E0E00E94B814AEE0B0E00E942A
:1003C800B814AFE0B0E00E94B814A0E1B0E00E9419
:1003D800B814A1E1B0E00E94B814A2E1B0E00E9414
:1003E800B814A3E1B0E00E94B814A4E1B0E0E8E9D1
:1003F8000E94B814A5E1B0E0EAE30E94B814A6E1AF
:10040800B0E0ECED0E94B814A7E1B0E0E5E00E948E
:10041800B814A8E1B0E00E94B8140E94510F0E94DD
:10042800340F24F40E945F0F7394F9CF66240E945E
:100438001C0FC9F4AAE1B0E0EAEA0E94B814ABE1E3
:10044800B0E0E0E60E94B814ACE1B0E0EAEE0E9449
:10045800740F0E947E0F0E94340F24F40E94850FAF
:100468007394F9CF66240E941C0FC9F4A6E5B0E086
:10047800E2EA0E94B814A7E5B0E0E2E00E94B814EE
:10048800A8E5B0E0E0E00E94740F0E949A0F0E9475
:10049800340F24F40E94A10F7394F9CF66240E94AC
:1004A8001C0F11F5A9E3B0E0EDEA0E94B814AAE325
:1004B800B0E0EAE50E94B814ABE3B0E0E0E00E94E7
:1004C800B814ACE3B0E0EAE50E94B814ADE3B0E0DC
:1004D8000E94220F0E94B60F0E94340F24F40E943B
:1004E800BD0F7394F9CF66240E941C0F09F5A6E787
:1004F800B0E0E6EA0E94B814A7E7B0E0E0E00E94A6
:10050800B814A8E7B0E00E94B814A9E7B0E0E1E0A9
:100518000E94B814AAE7B0E00E94220F0E94D20FEE
:100528000E94340F24F40E94D90F7394F9CF6624E3
:100538000E941C0F09F08CC0AEE1B0E0E1EA0E9415
:10054800B814AFE1B0E0E3E50E94B814A0E2B0E06F
:10055800E5E70E94B814A1E2B0E0EEE60E94B81404
:10056800A2E2B0E0E0E20E94B814A3E2B0E0E3E562
:100578000E94B814A4E2B0E0E5E60E94B814A5E22F
:10058800B0E0E0E70E94B814A6E2B0E0E0E20E9422
:10059800B814A7E2B0E0E2E30E94B814A8E2B0E021
:1005A800E1E30E94B814A9E2B0E0E0E20E94B814C6
:1005B800AAE2B0E0E2E30E94B814ABE2B0E0E3E301
:1005C8000E94B814ACE2B0E0EAE30E94B814ADE2CD
:1005D800B0E0E3E30E94B814AEE2B0E0E6E30E94C4
:1005E800B814AFE2B0E0EAE30E94B814A0E3B0E0C8
:1005F800E2E30E94B814A1E3B0E0E4E30E94B81477
:10060800A2E3B0E0E0E20E94B814A3E3B0E0E2E3C2
:100618000E94B814A4E3B0E0E0E30E94B814A5E394
:10062800B0E0E1E30E94B814A6E3B0E0E4E30E947E
:10063800B814A7E3B0E0E0E00E94B8140E94EE0FFF
:100648000E94340F24F40E94FC0F7394F9CF66249F
:100658000E941C0FA1F4AFE3B0E0E7EA0E94B814CF
:10066800A0E4B0E0E2E40E94B8140E9411100E94D5
:10067800340F24F40E941F107394F9CF66240E944B
:100688001C0FC9F4A2E4B0E0E7E70E94B814A3E4A1
:10069800B0E0E0E00E94B814A4E4B0E0ECEF0E94FF
:1006A800740F0E9434100E94340F24F40E943B10EF
:1006B8007394F9CF66240E941C0F09F041C0AAE484
:1006C800B0E0EBEA0E94B814ABE4B0E0E5E70E94C2
:1006D800B814ACE4B0E0EEE60E94B814ADE4B0E0C3
:1006E800E7E30E94B814AEE4B0E0E0E30E94B81477
:1006F800AFE4B0E0E2E30E94B814A0E5B0E0E2E6BF
:100708000E94B814A1E5B0E0EEE00E94B814A2E59A
:10071800B0E0E4E00E94B814A3E5B0E0E4E10E9490
:10072800B814A4E5B0E0EEE00E94B8140E9450109E
:100738000E94340F24F40E945E107394F9CF66244B
:100748000E941C0F81F5AAE5B0E0EEEA0E94B814F9
:10075800ABE5B0E0EFEF0E94B814ACE5B0E00E9462
:10076800B814ADE5B0E00E94B814AEE5B0E00E9460
:10077800B814AFE5B0E00E94B814A0E6B0E00E945B
:10078800B814A1E6B0E00E94B814A2E6B0E00E9456
:10079800B8140E9473100E94340F24F40E94811030
:1007A8007394F9CF66240E941C0F29F5AAE6B0E0DD
:1007B800E4EA0E94B814ABE6B0E0E0E00E94B814A6
:1007C800ACE6B0E0ECEF0E94B814ADE6B0E0E8E6C5
:1007D8000E94B814AEE6B0E0E7EF0E94B8140E9499
:1007E80096100E949E100E94340F24F40E94A510B7
:1007F8007394F9CF66240E941C0F09F5A0E7B0E0B6
:10080800E8E50E94B814A1E7B0E0E0E00E94B8145F
:10081800A2E7B0E00E94B814A3E7B0E0E1E00E94CC
:10082800B814A4E7B0E00E94220F0E94BA100E94F8
:10083800340F24F40E94C1107394F9CF66240E94E7
:100848001C0FC1F4A6E4B0E0E6E70E94B814A7E4E0
:10085800B0E0EFEF0E94B814A8E4B0E00E94740F73
:100868000E94D6100E94340F24F40E94DD10739465
:10087800F9CF66240E941C0F01F5A4E6B0E0EAE671
:100888000E94B814A5E6B0E0E0E00E94B814A6E61D
:10089800B0E00E94B814A7E6B0E00E94B814A8E639
:1008A800B0E00E94220F0E94F2100E94340F24F43C
:1008B8000E94F9107394F9CF66240895E5EAE0934D
:1008C8003C30E0E4E0933D30EFE1E0933E30E0E09F
:1008D800E0933F30E0934030E1E0E0934130EFE0D7
:1008E800E0934230E0E2E0934330E9E0E0934430C3
:1008F800E0E2E0934530E1E0E0934630EDEAE09352
:100908004730EDE0E0934830ECEAE0934930EDE021
:10091800E0934A30E0E1E0934B30EEE0E0934C3076
:10092800E0E3E0934D30E1E0E0934E30E0E4E09323
:100938004F30E1E0E0935030E9E8E093513008951A
:10094800E0E0E0930406E0930006E0931006E093ED
:100958001106E0931206E0931306E0931406E09361
:100968001506E0931606E0931706E0910906E07F66
:10097800E0930906E0E0E0930A06E0930B06E093B3
:100988002406E0932006E0933006E0933106E093D6
:100998003206E0933306E0933406E0933506E0939D
:1009A8003606E0933706E0912906E07FE0932906B2
:1009B800E0E0E0932A06E0932B06E8E1E0934406A2
:1009C800E8EBE0934006E0E0E0935006E093510640
:1009D800E0935206E0935306E0935406E0935506DD
:1009E800E0935606E0935706E0914906E07FE093CE
:1009F8004906E0E0E0934A06E0934B06E0E8E0931E
:100A08006406E0936006E0E0E0937006E093710608
:100A1800E0937206E0937306E0937406E09375061C
:100A2800E0937606E0937706E0916906E07FE0932D
:100A38006906E0E0E0936A06E0936B06E0938406BB
:100A4800E0938006E8E1E0939006E0939106E0E009
:100A5800E0939206E0939306E0939406E09395065C
:100A6800E0939606E0939706E0918906E07FE0938D
:100A78008906E0E0E0938A06E0938B06E093A406FB
:100A8800E093A006E093B006E093B106E093B206C7
:100A9800E093B306E093B406E093B606E093B70696
:100AA800E091A906E07FE093A906E0E0E093AA06BA
:100AB800E093AB06E093E407E093E007E093F007E8
:100AC800E093F107E091E907E07FE093E907E0E0D0
:100AD800E093EA07E093EB070895E8E0E093450622
:100AE800E3E0E093A508E091A308E07CE063E093ED
:100AF800A308E5EFE093A608ECECE093A708E091E3
:100B0800A408E07EE861E093A40808950E940E110D
:100B18008090A108B090A008E82DEC7131F4E22D86
:100B2800F0E0E050F04DB0822394E0917130F0E0B5
:100B3800EF3FA0E0FA0709F02AC2E0910030F0E0A8
:100B4800EF3FA0E0FA0731F40E941C11EFEFE093A9
:100B580000301BC2EA3CA0E0FA0721F4EAEC0E944C
:100B6800221113C2E53FA0E0FA0721F4E5EF0E9445
:100B780022110BC2E53BA0E0FA0739F4E5EBE0935C
:100B88007130E4E00E942A1100C2EA3EA0E0FA07B0
:100B980021F4EAEE0E942211F8C1E53EA0E0FA072E
:100BA80039F4E5EEE0937130E7E00E942A11EDC1D7
:100BB800E73EA0E0FA0739F4E7EEE0937130E7E0AA
:100BC8000E942A11E2C1E83EA0E0FA0739F4E8EEF3
:100BD800E0937130E3E00E942A11D7C1E93EA0E01A
:100BE800FA0739F4E9EEE0937130E3E00E942A1144
:100BF800CCC1E03AA0E0FA07D9F40E942F110E9474
:100C080096100E942D0F0E94340F24F40E943C0F6E
:100C18007394F9CF7724761440F4A72DB0E0AE5F33
:100C2800BF4F0E9434117394F6CF0E943911ADC1A1
:100C3800E13AA0E0FA07C9F40E942F110E94EE0FD2
:100C48000E94340F24F40E94FC0F7394F9CF772488
:100C5800761440F4A72DB0E0A25EBF4F0E94341175
:100C68007394F6CF0E94391191C1E23AA0E0FA07D5
:100C7800D9F40E942F110E943E110E949A0F0E94DF
:100C8800340F24F40E94A10F7394F9CF77247614BB
:100C980040F4A72DB0E0AA5ABF4F0E9434117394B4
:100CA800F6CF0E94391172C1E43AA0E0FA07D9F4EC
:100CB8000E942F110E9496100E949E100E94340FCD
:100CC80024F40E94A5107394F9CF7724761440F485
:100CD800A72DB0E0A659BF4F0E9434117394F6CFE8
:100CE8000E94391153C1E63AA0E0FA07D9F40E94EC
:100CF8002F110E9496100E94D20F0E94340F24F4E4
:100D08000E94D90F7394F9CF7724761440F4A72D55
:100D1800B0E0AA58BF4F0E9434117394F6CF0E94D6
:100D2800391134C1E73AA0E0FA07C9F40E942F113B
:100D38000E9411100E94340F24F40E941F10739413
:100D4800F9CF7724761440F4A72DB0E0A15CBF4F0B
:100D58000E9434117394F6CF0E94391117C1EA3AF0
:100D6800A0E0FA07D9F40E942F110E943E110E94B8
:100D78007E0F0E94340F24F40E94850F7394F9CFDC
:100D88007724761440F4A72DB0E0A65EBF4F0E94EA
:100D980034117394F6CF0E943911F8C0EB3AA0E0F1
:100DA800FA07C9F40E942F110E9450100E94340FB4
:100DB80024F40E945E107394F9CF7724761440F4DB
:100DC800A72DB0E0A65BBF4F0E9434117394F6CFF5
:100DD8000E943911DBC0ED3AA0E0FA07D9F40E946D
:100DE8002F110E9496100E94B60F0E94340F24F40F
:100DF8000E94BD0F7394F9CF7724761440F4A72D81
:100E0800B0E0A75CBF4F0E9434117394F6CF0E94E4
:100E18003911BCC0EE3AA0E0FA07C9F40E942F11BC
:100E28000E9473100E94340F24F40E94811073945E
:100E3800F9CF7724761440F4A72DB0E0A65ABF4F17
:100E48000E9434117394F6CF0E9439119FC0EF3A73
:100E5800A0E0FA07C9F40E942F110E94510F0E94C6
:100E6800340F24F40E945F0F7394F9CF772476141B
:100E780040F4A72DB0E0A85FBF4F0E9434117394CF
:100E8800F6CF0E94391182C0E835A0E0FA07D9F4FC
:100E98000E942F110E9496100E94BA100E94340FCF
:100EA80024F40E94C1107394F9CF7724761440F487
:100EB800A72DB0E0A059BF4F0E9434117394F6CF0C
:100EC8000E94391163C0EA36A0E0FA07D9F40E94FB
:100ED8002F110E9496100E94F2100E94340F24F4E1
:100EE8000E94F9107394F9CF7724761440F4A72D53
:100EF800B0E0AC59BF4F0E9434117394F6CF0E94F2
:100F0800391144C0E637A0E0FA07D9F40E942F113E
:100F18000E943E110E94D6100E94340F24F40E94B1
:100F2800DD107394F9CF7724761440F4A72DB0E040
:100F3800AA5BBF4F0E9434117394F6CF0E943911F7
:100F480025C0E737A0E0FA07D9F40E942F110E94C4
:100F58003E110E9434100E94340F24F40E943B106A
:100F68007394F9CF7724761440F4A72DB0E0AE5BE4
:100F7800BF4F0E9434117394F6CF0E94391106C0F6
:100F8800EFEFE09300300E941C11222404C0EA3CD9
:100F9800A0E0FA0731F5E2E0E21511F5A091003082
:100FA800A13021F4A0910130A13009F003C00E94C2
:100FB800461110C0A0910030AF3021F4A09101304B
:100FC800AF3009F007C00E9446110E941C11E1E0F1
:100FD800AE2E05C0EFEFE0937130E1E03E2E222403
:100FE800ECC0E53FA0E0FA0711F5E2E0E215F1F404
:100FF800A0910030AF3521F4A0910130AF3509F050
:1010080012C0A5EFDBD0A5EFD9D0A5EF0E944C11F7
:101018002224A5E0B0E00E946112E8EDE4BFE1E01F
:10102800E093790003C00E941C112224C6C0E53B4E
:10103800A0E0FA07E1F4E4E0E215C1F4772499248A
:10104800E3E07E1620F40E944F117394F9CFA0912B
:1010580003309A1641F4A5EBB1D0A5EB0E944C11D0
:101068002224992403C00E941C112224A6C0EA3E0F
:10107800A0E0FA07E1F4E2E0E215C1F4772499244C
:10108800E1E07E1620F40E944F117394F9CFA091ED
:1010980001309A1641F4AAEE91D0AAEE0E944C11A2
:1010A8002224992403C00E941C11222486C0E53EF4
:1010B800A0E0FA07E1F4E7E0E215C1F47724992407
:1010C800E6E07E1620F40E944F117394F9CFA091A8
:1010D80006309A1641F4A5EE71D0A5EE0E944C1187
:1010E8002224992403C00E941C11222466C0E73ED2
:1010F800A0E0FA07E1F4E7E0E215C1F477249924C7
:10110800E6E07E1620F40E944F117394F9CFA09167
:1011180006309A1641F4A7EE51D0A7EE0E944C1162
:101128002224992403C00E941C11222446C0E83EB0
:10113800A0E0FA07E1F4E3E0E215C1F4772499248A
:10114800E2E07E1620F40E944F117394F9CFA0912B
:1011580002309A1641F4A8EE31D0A8EE0E944C1144
:101168002224992403C00E941C11222426C0E93E8F
:10117800A0E0FA07E1F4E3E0E215C1F4772499244A
:10118800E2E07E1620F40E944F117394F9CFA091EB
:1011980002309A1641F4A9EE11D0A9EE0E944C1122
:1011A8002224992403C00E941C11222406C0EFEFB8
:1011B800E09300300E941C1122245AC1AA93E091A6
:1011C800A108E072E1F3E881E093A00820C0E0E81C
:1011D800E0936506E3E0E093B509E091B309E07CAC
:1011E800E093B309EEE6E093B609E8EAE093B709BD
:1011F800E091B409E07EE860E093B4090895AA9309
:10120800E091B109E072E1F3E881E093B009219639
:1012180008951A9310E01E3140F4E12FF0E0E25EE9
:10122800FF4CA081ECDF1F5FF6CFAAE0E8DFADE05E
:10123800E6DFDCC01A930A931FB7F894E091000820
:10124800E07FE560E0930008E0910108E870E09332
:101258000108E0910308E071E0930308E0910608B3
:10126800E07FE160E0930608E0910708E070E09312
:101278000708E0919900EE7F0E2FE8EDE4BF009398
:101288009900E0918008E07CE0938008E091830871
:10129800E87EE0938308E0E0E0938208A4E8B8E001
:1012A8000A2EAC91E0918408E470EA2BA02DEC930F
:1012B800E0910C08E0930C08E0E0F0E0E0932008EF
:1012C800F0932108E1E1FAE7E0932608F093270874
:1012D800E0E0F0E0E0932808F0932908E0932A087A
:1012E800F0932B08E0932C08F0932D08E0932E0838
:1012F800F0932F081FBFAAC01A931FB7F894E09164
:101308004008E07FE460E0934008E0914108E87C11
:10131800E0934108E0914308E071E0934308E091CD
:101328004608E07FE160E0934608E0914708E07FE7
:10133800E0934708E0914C08E0934C08E0E0F0E0C7
:10134800E0936008F0936108EFE3FCE9E093660836
:10135800F0936708E0E0F0E0E0936808F09369082C
:10136800E0936A08F0936B0840C01A931FB7F8948B
:10137800E0910009E07FE160E0930009E091010954
:10138800E870E0930109E0910309E071E093030933
:10139800E0910609E07FE160E0930609E091070922
:1013A800E070E0930709E0910C09E0930C09E0E094
:1013B800F0E0E0932009F0932109EFE3F6EAE093E7
:1013C8002609F0932709E0E0F0E0E0932809F0937C
:1013D8002909E0932A09F0932B09E0932C09F0934B
:1013E8002D09E0932E09F0932F091FBF1991089535
:1013F8001A930A930FB7F894E0915000E260E093D3
:101408005000E0914100E0781E2FE8EDE4BF109312
:101418004100E0916000EE7FE0936000E0915100B0
:10142800E270E1F3E0914000E87FE1601E2FE8ED13
:10143800E4BF10934000E0915000E27EE09350003A
:10144800E091B400EC7FE093B4000FBF09911991CB
:1014580008950E940E11AA2021F0A0917130AF3F8B
:1014680009F006C00E947A01A1E0B0E00E94611272
:10147800E991EFBFF991E991B991A9919991899170
:1014880079916991F990199009901895189518957E
:10149800F894E091A200E873E5601E2FE8EDE4BF40
:1014A8001093A200E0E0E093A100A2DF0E94A40450
:1014B80014DB8DDE0E9462040E945611EAEEF1E010
:1014C8000E945B110E945611E6EFF1E00E945B1149
:1014D8004CDFB0DE11DF78940E945611E4E0F2E0B0
:1014E800FA93EA9380E061D3249693DE0E949A01EE
:1014F800A1E0B0E00E94AF14E23010F0E93C28F01F
:10150800A1E0B0E0E1E00E94B814A1E0B0E00E94E0
:10151800AF14EF5F0E94B814A0917130AF3FE9F0AB
:101528000E945611E0E1F2E0FA93EA93E0917130FB
:101538000E946711E09100300E946711E09101302C
:101548000E946711E09102300E946711E32D0E940A
:10155800671184E12AD368965CDEDECFFFCFBA93A9
:10156800AA931A930A93AA81BB8112960E947F14A8
:10157800309729F1AA81BB8114960E947F148F01AC
:10158800309761F00230E0E01E0780F0F8013197F3
:101598008F01AA81BB811496ED93FC93AA81BB812C
:1015A80012960E946D113197AC81A083AA81BB81EC
:1015B8000E947F14FF2312F00E946D1106C0AA81B9
:1015C800BB81EFEFFFEFED93FC931981088125961E
:1015D80008950E947311E0E8EA83EFE3EB830E9429
:1015E800E814EE85FF85EF3FAFEFFA0749F4E88589
:1015F800F985FA93EA93A0E3B2E00E940D0EB7C012
:10160800EF3FAFE7FA0749F4E885F985FA93EA93DB
:10161800A1E3B2E00E940D0EAAC0AB85A73010F07E
:10162800E6E0EB871B85E12F1150E03019F00E94AE
:101638007A11F9CFEC85FD856E857F850E94E214CD
:1016480021F430E00E947A112DC03B850E94891157
:1016580009F008F40BC00E947A110E94891128F041
:101668000E9494110E949911F8CF0DC00E9489110F
:1016780040F40E9494110E94A5110E94AC113150AF
:10168800F5CF0E947A11EC85FD856E857F850E94D5
:10169800B1110E94AC110E94891120F00E9494118E
:1016A8000E94991110E0EB85E117A8F1AC81BD818A
:1016B8008E819F810E94B8110E94B111DF01CB0178
:1016C8000E94640EEC83FD836E837F830E949411D5
:1016D8000E94AF130E949E120E2F0E94BF110E94FB
:1016E800C611FF27662777270E94D712AC81BD81D4
:1016F8008E819F810E9461130E9494110E94CB11D8
:101708000E94AC11E12F1F5FE03069F60E94BF1103
:10171800EEE2EC93C8CF0E94D0113197AA85A0833E
:1017280030302CF43195A885B985EDE203C0A88541
:10173800B985EBE2EC930E94D0110E94D011319749
:10174800BF01A32FEAE00E943914E05DDB01EC93AE
:101758000E94D0113197BF01A32FEAE00E946314C1
:10176800E05DDB01EC93A885B985E0E0EC930E948D
:10177800EF1460960895BA93AA93EF9761970E9421
:10178800E61410E0FE01E85AFF4F0190F081E02DC9
:10179800E887F987FE01EA5AFF4F0190F081E02DB2
:1017A800EE83FF83AE81BF81E0E0F0E0ED93FC9330
:1017B800DE01A45ABF4F0E946D113197E4912E2F7C
:1017C800E03009F4E9C1E12FE03039F4253211F4B1
:1017D80011E002C00E94D611DEC1E130C1F4253209
:1017E80019F40E94D611D6C112E0E0E0ED8B00E0BA
:1017F8002D3211F401E0CFC12B3219F4EBE2ED8B5D
:10180800CAC1203219F4E0E2ED8BC5C102C0E23052
:1018180039F450E013E0203311F40068BCC102C071
:10182800E33091F4203310F02A3308F007C0AAE01F
:101838005A9F502DE22FE0535E0FADC140E02E328B
:1018480011F414E0A8C10FC0E43099F4203310F06B
:101858002A3308F008C00062AAE04A9F402DE22F10
:10186800E0534E0F98C12C3619F4026015E093C16D
:1018780003C0E53009F08FC1E22FE33659F40E9426
:10188800DD110E94E4110E94DD11A481AA930E9437
:10189800EB1180C1E53411F0E53609F403C0E636F2
:1018A80009F048C0FE017696EE87FF870E94F11185
:1018B8000E9483140E94F8110E94FD11AD85AA238D
:1018C80032F0AD89AB3259F0A03281F017C00E94D6
:1018D800FF110E946B120E94F811EDE2ED8B07FFD9
:1018E80005C0ED89EA930E94EB1108C0EE85FF85DB
:1018F8003196EE87FF873197AD89A08305FF46E0D3
:10190800263651F40E94FF110E9498144A93AB891D
:10191800BC890E947B0E09C00E94FF110E94981486
:101928004A932A93AC89BD8954DEFE0176960E94BB
:1019380004121EC0E33739F40E94FD110E940C12F4
:101948000E9404120EC0E037C1F40E94FD110E94EB
:101958000C12EE87FF87AE85BF850E94260E1E2FCC
:1019680008600F77403011F0411708F001C0142FBC
:1019780040E0E0E0EC8B30E06DC0E43611F0E93691
:1019880011F4046002C0E537A1F4EAE0EC8B01FF32
:1019980008C0E0E0FAEC6AE97BE30E9411121AE061
:1019A80022C0E0E1F7E260E070E00E94111215E069
:1019B8001AC0E83511F4086003C0E83709F0EAC036
:1019C800E0E1EC8B01FF08C0E0E0F0E060E070E1EE
:1019D8000E94111218E007C0E0E0F0E160E070E05A
:1019E8000E94111214E0403011F00F7701C041E05D
:1019F80001FF08C00E94FD110E94F11114960E9477
:101A080083140FC002FF07C00E94FD110E940C1230
:101A18000E94261406C00E94FD110E940C1266271F
:101A28007727EA87FB876C877D8702FF12C0AD8521
:101A3800AA2342F40E94FF110E9418140E94F81170
:101A4800EDE2ED8BED89E03019F01F5F4F5F01C0CB
:101A58000B7F342F00FD14C0151710F4351708F04C
:101A68000FC007FF08C002FF04C00B7F2D8911506B
:101A780001C020E301C020E20E94D6115150ECCFF2
:101A8800141790F4006102FF06C00E94161209F0B4
:101A9800515011504150E0E3EA930E94EB1150304D
:101AA80009F051504150ECCF312FEC89E030B9F4B6
:101AB8003030A1F003FF06C0EE85FF852591EE8743
:101AC800FF8705C0AE85BF852D91AE87BF870E9471
:101AD800D611503009F051503150EACF51C00E9410
:101AE80028120E943E142E2F2A3030F003FF02C025
:101AF800295C01C0295A01C0205D04FD21C02133A1
:101B080060F4A889B9898A899B89A130E0E0BE0779
:101B1800E0E08E07E0E09E0709F40BC0431740F4AD
:101B2800531710F000FF01C010C020E207FF08C0E3
:101B380020E3006102FF04C00E94161209F0515010
:101B48000E94D611503009F0515031500E9428128D
:101B58000E946F140E94F811EC89A889B9898A89B2
:101B68009B89FF27662777270E943E140E9411123F
:101B7800E889F9896A897B890E94E21409F0AFCF64
:101B880000FF08C0503031F05150E0E2EA930E9463
:101B9800EB11F8CF10E00CCEAE81BF810E947F140C
:101BA8000E94ED14EF966F960895FF92F82E2697EF
:101BB8000E94E8140E943112309719F4EFEFFFEFFA
:101BC80023C0DE0116960E9414148D010E94311262
:101BD800EE83FF83E0E0E887E987DE011A960E943A
:101BE80014140E947F14FA93EA931A930A93E3EB6E
:101BF800FAE0FA93EA93DE011A96BDDD9F01AE8101
:101C0800BF81E0E0EC93F9010E94EF142A96FF905F
:101C18000895BA93AA93E991F991A991B991CD013F
:101C280005900D920020E1F7FC010895BA93AA935C
:101C3800A991B991EE27FF276D91662311F031968E
:101C4800FBCF0895BA93AA93AA27BB27E991F991E4
:101C58000590002011F01196FBCFFD0108950E9418
:101C68009D147B816A81F981E88177FB770F67FD95
:101C78007160972F9E5781F078F0983190F4AA27D9
:101C8800BB27882708948795B795A7959A95D1F784
:101C9800EA23FB23682305C0E8947727EE27FF276C
:101CA80066276F77769508F4606877F9A991B991F6
:101CB80089919991EA17FB076807790797FB0895B7
:101CC8000E949D140E948E140E94330E0E94931449
:101CD80019F40E94891409C0E6F70E948914A0E04B
:101CE800B0E080E89FE30E940A1324960895F7D293
:101CF800E0E0EA83EFE3EB831A930A93EB85FC8534
:101D0800EF3FAFEFFA0731F4AFD3A8E3B2E00E9498
:101D18000D0E8AC0EF3FAFE7FA0731F4A5D3A9E368
:101D2800B2E00E940D0E80C0AC85AA2352F4E9856A
:101D3800FA856B857C850E946B129BD39FD3EDE25D
:101D4800EC93A885A73010F0E6E0E8871885E12F26
:101D58001150E03021F099D307D39CD3F8CF9FD30B
:101D68000E94111386D310E0E0E0F0E060E87FE322
:101D780091D395D30E94F41368F087D3E2D28AD323
:101D88001F5F173230F070D3ADE3B2E00E940D0E42
:101D98004BC0EFCF103021F471D3E0E3EC9320C0B7
:101DA800E12F1150E030E1F070D3DED2D6D2DF015E
:101DB800CB010E94640E6ED372D30E94AF130E94AF
:101DC8009E120E2F5BD3DED2F0E05FD30E94261462
:101DD8000E94D7120E9461136BD3D9D24AD3E0CFA5
:101DE800E885E030E9F04AD3EEE2EC93E885E1508B
:101DF800E887EF5FA9F05CD3A4D23BD3E985FA85E5
:101E08006B857C850E949E120E2F38D3BBD2F0E0E2
:101E18004FD30E9426140E94D712B9D22AD3E6CFF4
:101E2800AE81BF81E0E0EC93198108812D96089579
:101E3800A1E0B0E00E94AF14EF3F0895E0E00E94F7
:101E4800B814E6E06E2EE1E07E2EE62DF0E0319744
:101E58000895EE5FFF4FDF01E0E00E94B814089597
:101E6800E62DF0E03197A72DB0E0AE17BF07089533
:101E7800E62DF0E03197EE5FFF4FBF01DF010E94D2
:101E8800AF140E2EA72DB0E0AE5FBF4F0E94AF1467
:101E9800E00DDB010E94B8140895E2E16E2EE1E046
:101EA8007E2EE62DF0E03197E85FFF4FDF01E0E09E
:101EB8000E94B8140895E62DF0E03197E85FFF4FCF
:101EC800BF01DF010E94AF140E2EA72DB0E0A85F5E
:101ED800BF4F0E94AF14E00DDB010E94B8140895B3
:101EE8000E94B814E4E06E2EE1E07E2EE62DF0E0CC
:101EF80031970895E65EFF4FDF01E0E00E94B814D5
:101F08000895E62DF0E03197E65EFF4FBF01DF014F
:101F18000E94AF140E2EA72DB0E0A65EBF4F0E9400
:101F2800AF14E00DDB010E94B8140895EA5AFF4F80
:101F3800DF01E0E00E94B8140895E62DF0E0319743
:101F4800EA5AFF4FBF01DF010E94AF140E2EA72DE2
:101F5800B0E0AA5ABF4F0E94AF14E00DDB010E9407
:101F6800B8140895E75CFF4FDF01E0E00E94B81461
:101F78000895E62DF0E03197E75CFF4FBF01DF01E0
:101F88000E94AF140E2EA72DB0E0A75CBF4F0E9491
:101F9800AF14E00DDB010E94B8140895EA58FF4F12
:101FA800DF01E0E00E94B8140895E62DF0E03197D3
:101FB800EA58FF4FBF01DF010E94AF140E2EA72D74
:101FC800B0E0AA58BF4F0E94AF14E00DDB010E9499
:101FD800B8140895EBE16E2EE1E07E2EE62DF0E0D8
:101FE8003197E25EFF4FDF01E0E00E94B8140895E8
:101FF800E62DF0E03197E25EFF4FBF01DF010E945E
:10200800AF140E2EA72DB0E0A25EBF4F0E94AF14F2
:10201800E00DDB010E94B8140895E3E06E2EE1E0C4
:102028007E2EE62DF0E03197E15CFF4FDF01E0E026
:102038000E94B8140895E62DF0E03197E15CFF4F57
:10204800BF01DF010E94AF140E2EA72DB0E0A15CE6
:10205800BF4F0E94AF14E00DDB010E94B814089531
:10206800EE5BFF4FDF01E0E00E94B8140895E62D13
:10207800F0E03197EE5BFF4FBF01DF010E94AF1424
:102088000E2EA72DB0E0AE5BBF4F0E94AF14E00D3F
:10209800DB010E94B8140895ECE06E2EE1E07E2E7C
:1020A800E62DF0E03197E65BFF4FDF01E0E00E94AC
:1020B800B8140895E62DF0E03197E65BFF4FBF01B5
:1020C800DF010E94AF140E2EA72DB0E0A65BBF4F14
:1020D8000E94AF14E00DDB010E94B8140895EAE0F5
:1020E8006E2EE1E07E2EE62DF0E03197E65AFF4FA6
:1020F800DF01E0E00E94B8140895E62DF0E0319782
:10210800E65AFF4FBF01DF010E94AF140E2EA72D24
:10211800B0E0A65ABF4F0E94AF14E00DDB010E9449
:10212800B8140895E6E06E2EE1E07E2EE62DF0E08C
:1021380031970895E659FF4FDF01E0E00E94B81497
:102148000895E62DF0E03197E659FF4FBF01DF0112
:102158000E94AF140E2EA72DB0E0A659BF4F0E94C3
:10216800AF14E00DDB010E94B8140895E059FF4F49
:10217800DF01E0E00E94B8140895E62DF0E0319701
:10218800E059FF4FBF01DF010E94AF140E2EA72DAB
:10219800B0E0A059BF4F0E94AF14E00DDB010E94D0
:1021A800B8140895EA5BFF4FDF01E0E00E94B8141D
:1021B8000895E62DF0E03197EA5BFF4FBF01DF019C
:1021C8000E94AF140E2EA72DB0E0AA5BBF4F0E944D
:1021D800AF14E00DDB010E94B8140895EC59FF4FCD
:1021E800DF01E0E00E94B8140895E62DF0E0319791
:1021F800EC59FF4FBF01DF010E94AF140E2EA72D2F
:10220800B0E0AC59BF4F0E94AF14E00DDB010E9453
:10221800B81408950A921A92FA926A937A938A9352
:102228009A93AA93BA93EA93FA93EFB7EA93089525
:10223800EFEFE0937130E1E03E2E0895E0937130C6
:10224800E2E03E2EEFEFE093003008953E2EEFEFF0
:10225800E09300300895EFEFE093003022240895D2
:102268000E94AF14AE2F0C94E2086624EFEFE093BF
:1022780071300895E4E06E2EE1E07E2EE62DF0E068
:1022880031970895AAEC0E94E208AAEC0C94E2089F
:102298000E94E208CDCFE72DF0E0E050F04DE0815C
:1022A8009E0E0895EEE1F0E3FA93EA930895FA9307
:1022B800EA9380E00E94D90D24960E940D09A2E3BA
:1022C800B0E00C946112FF27662777270E949814C4
:1022D80008950E947F143196ED93FC930895BA9364
:1022E800AA932497E0E0E883E9830895AC81BD814F
:1022F8008E819F81E0E0F0E060E271E40E9461136A
:10230800EC83FD836E837F830895EC81FD816E816C
:102318007F81AC85BD858E859F850E94F4130895C5
:10232800AC85BD858E859F850895EDECFCEC6CEC45
:102338007DE30E946113EC87FD876E877F873F5F8F
:102348000895E0E0F0E060E271E40E94611308950E
:10235800EC87FD876E877F870895A0E0B0E080E076
:102368009FE30E9411130895EDECFCEC6CEC7DE307
:102378000E9461130895A885B9851196A887B98721
:1023880011970895E02FE05DEC93E02F08950E94E7
:10239800A2140E940A130895E885F9853196E88702
:1023A800F98708952A93AF81B885E985FA85099553
:1023B8000895FE01E65AFF4F0190F081E02D08953F
:1023C8003497DE01A65ABF4FED93FC930895AF8171
:1023D800B885E985FA8509950895DE01A65ABF4FA3
:1023E8000D90BC91A02D0895EA87FB876C877D87A7
:1023F8000895DFDFE5CFEA85FB856C857D85089547
:10240800EE87FF87AE85BF850E941A0E1E2F08959E
:10241800E4DF14960E947F140895E88BF98B6A8B89
:102428007B8B08950B7FED89EA93DE01A95ABF4F94
:102438000D90BC91A02DFE01E75AFF4F0190F0814D
:10244800E02D099550300895E889F9896A897B89D2
:10245800AA85BB858C859D850895DE011C960E9402
:1024680014140E947F140895EE81FF81FA93EA9371
:102478000895E987FA876B877C870895AE81BF81C5
:102488001196AE83BF8311970895AA81BB818C8171
:102498009D810895EA83FB836C837D830895EA8197
:1024A800FB816C817D81A985BA858B859C85089582
:1024B800A985BA858B859C850895109639F080E4A6
:1024C8009FE10197F1F7A8951197C9F708953097FB
:1024D8006040704009F070580895552342F4503810
:1024E80011F4E0FF04C03196691F791F6BF050E8C2
:1024F800572711F45F93CFC05F3F31F0660F000C90
:1025080057956795752F08955F9300200AF0CFC0FF
:10251800C8C050E8192E1522880F991F9527550F06
:10252800879550E8072E0522660F771F7527550FE8
:1025380067950895689401C0E8945F93F2DF703856
:1025480018F07F3F08F4A7C056E1571BAAF451952D
:1025580058300EF4593030F0EFEFFFEF6FEF7FE7B0
:1025680077F91AC077275523B9F0EE0FFF1F661FBA
:10257800771F5A95D1F710C07727583028F0EF2FDA
:10258800F62F672F5850F9CF552331F07695679578
:10259800F795E7955A95D1F700200AF445D15F9150
:1025A8000895689401C0E894309760407040B1F095
:1025B800002426F0772312F4009436D1172E7EE1FA
:1025C800112032F07A95EE0FFF1F661F111CF9CF0C
:1025D800EF2FF62F612D5F938ADF5F9108954F9358
:1025E800AF01FD01DA01AB01BC01CA01402D012C8C
:1025F800142E4F910895EA0FFB1F681F0895E09568
:10260800F0956095EF5FFF4F6F4F08955F9381DFFF
:10261800903871F150E8152604C05F937ADF90383E
:1026280039F1703821F1572F591B2BF112F4D7DFEC
:10263800FACF583118F0AA27BB278827583028F036
:10264800AB2FB82F88275850F9CF552329F08695F6
:10265800B795A7955A95D9F7502D512572F0CBDF2C
:1026680038F46795F795E795739513F420C0B7DFAD
:102678003EDF5F910895D8F7FBCFEA1BFB0B680B91
:1026880051F010F40094BBDF662392F3EE0FFF1FA6
:10269800661F7A95CBF7EE27FF27662777275F9186
:1026A8000895EFEFFFEF6FE77FEF5F910895EFEF8A
:1026B800FFEF6FE77FE75F9108955F932ADF703838
:1026C80051F3903841F301240894791F23F41CF343
:1026D80000203AF3ECCF0F921F932F933F934F9321
:1026E800112722279927689FA0018F9F302D410D20
:1026F800591F6B9F300D411D591F8E9F27D0BF9FBB
:1027080025D06A9F23D0BE9F1DD0AF9F1BD0AE9F00
:10271800110D291F391F491F591FE32FF42F652F4A
:10272800522F4F913F912F911F910F9066232AF0BE
:10273800550FEE1FFF1F661F02C073954BF2CDDECB
:102748005F910895100D211D391F02C0200D311D04
:10275800491F591F08955F93DCDE703821F411205A
:102768000AF49FCFA4CF903809F495CF0124089498
:10277800970B1BF4D4F30020F3CF792F1F932F93DB
:102788003F934F9311241127222733274427552796
:1027980090E2AE17BF078607410730F0AE1BBF0BAC
:1027A800860B410B089401C08894551F221F331FC4
:1027B800111CAA1FBB1F881F441F9A9551F7F901C6
:1027C800612D4F913F912F911F91662332F0550F44
:1027D800EE1FFF1F661F7A9543F27FDE5F91089513
:1027E80099239AF0772342F0971748F029F4AE1707
:1027F800BF07860720F031F098948894089598943C
:10280800089408951894889408957723C2F7971721
:1028180098F3A9F7EA17FB07680788F399F3ECCF51
:102828000024AF0DB01D0895F09560957095E19561
:10283800FF4F6F4F7F4F0895FE2FFF0FFF0B6F2F36
:102848007F2F08956F2F660F660B762F089500244B
:1028580098E0AA0F001C0E1A10F40E0E01C0A16019
:102868009A95B9F7EA2FA02D089539D0F0DF0EF424
:10287800E19508953F934F935F93002411244427D3
:10288800552730E2AA0FBB1F881F991F001C111C77
:10289800441F551F0E1A1F0A460B570B28F40E0E1D
:1028A8001F1E461F571F01C0A1603A9559F7FD0129
:1028B800BC01D001CA015F914F913F910895E894FE
:1028C800A7FF02C0A1956894E7FDE195C0DFEA2F54
:1028D8000EF4E1950895CEDFFD01BC010895E8945A
:1028E800E7FF02C0E1956894A7FF04C0A19500F82E
:1028F800039400FA0895ED91FC9111970895ED91D4
:10290800FD916D917C9113970895E881F9816A8111
:102918007B810895A881B9818A819B810895E88384
:10292800F9836A837B8308957A936A93FA93EA9387
:1029380008959A938A93BA93AA930895182E862F86
:10294800612D192E972F712D1B2EBF2FF12D1A2EA9
:10295800AE2FE12D0895A895E091CF01E7FDFBCFBB
:10296800B05FEC91B051089523D0B05F8C918E1771
:1029780011F4B05108959E2F1BD07F937FB7F89420
:102988009C93B051A093C001B093C10180E08093A3
:10299800C20185E38093CA0188ED91E084BF9093DA
:1029A800CB0106D080E08093CA017FBF7F91089554
:1029B800A8958091CF0187FDFBCF0895309760409F
:1029C800704008955A934A933A932A931A930A9314
:1029D80008955D814C813B812A8119810881089580
:00000001FF
