:0E0000000C9460010C9400000C9400000C9411
:10000E0000000C9400000C9400000C9400000C9462
:10001E0000000C9400000C9400000C9400000C9452
:10002E0000000C9400000C9400000C94A10F0C9492
:10003E0000000C9400000C9400000C9400000C9432
:10004E0000000C94B10F0C9400000C9400000C9462
:10005E0000000C9400000C94BE050C9400000C944F
:10006E0000000C9400000C9400000C9400000C9402
:10007E0000000C9400000C9400000C9400000C94F2
:10008E0000000C9400000C9400000C9400000C94E2
:10009E0000000C9400000C9400000C9400000C94D2
:1000AE0000000C9400000C9400000C94CF0A0C94E9
:1000BE0000000C9400000C9400000C9400000C94B2
:1000CE0000000C9400000C9400000C9400000C94A2
:1000DE0000000C9400000C9400000C9400000C9492
:1000EE0000000C9400000C9400000C9400000C9482
:1000FE0000000C9400000C9400000C9400000C9472
:10010E0000000C9400000C9400000C9400000C9461
:10011E0000000C9400000C9400000C9400000C9451
:10012E0000000C9400000C943F100C9400000C94F2
:10013E0000000C9400000C9400000C9400000C9431
:10014E0000000C9400000C9400000C9400000C9421
:10015E0000000C9400000C9400000C9400000C9411
:10016E0000000C9400000C9400000C9400000C9401
:10017E0000000C9400000C9400000C9400000C94F1
:10018E0000000C9400000C9400000C9400000C94E1
:10019E0000000C9400000C9400000C9400000C94D1
:1001AE0000000C9400000C9400000C9400000C94C1
:1001BE0000000C9400000C9400000C9400000C94B1
:1001CE0000000C9400000C9400000C9400000C94A1
:1001DE0000000C9400000C940000FF005D00230052
:1001EE0001007374617274206465766963650073CF
:1001FE00746172742069326300626D7020693263BB
:10020E00207374617274206F6B00535049205354E5
:10021E004152540061643737303520737461727403
:10022E00206F6B005354415254205748494C45009F
:10023E0065787465726E616C204144433D25782C5F
:10024E0025782C257800696E747465726E616C2049
:10025E00414443613D25692C256900696E747465BE
:10026E00726E616C20414443623D25692C25690004
:10027E00424D5020503D25662C543D256600424D82
:10028E005020503D25782C543D2578002D4E414E62
:10029E00000001002D4E414E00494E460000010067
:1002AE008130E80101003031EE0101003331A0024E
:1002BE000000F894EE27F091CC01F860F093CC0199
:1002CE00F8EDF4BFE093A200A0918000AD7FA16095
:1002DE00F4BFA093800080E090E4A0E0B0E2ED9344
:1002EE000197E9F7ECEAF2E085919591009761F0BC
:1002FE00A591B59105901590BF01F00105900D9255
:10030E000197E1F7FB01F0CF8BBF8CBFE0E0E0B9C6
:10031E00E1B9E2B9E3B9E4B9E5B9E6B9E7B9E8B9E3
:10032E00E9B9EAB9EBB9ECB9EDB9EEB9EFB92E2EE0
:10033E00E1E03E2EE0E04E2E5E2E6E2E7E2E8E2EB6
:10034E009E2EAE2EBE2EDE2EEFEFEDBFEFE5EEBFF4
:10035E00C0E0D0E30C9440101A930A9310E000E032
:10036E00163188F4103031F0E12FF0E0E45BFF4CF1
:10037E00E0810E0FE12FF0E0E45BFF4CA0810E94C4
:10038E006F091F5FEDCF00936230A09162300E9423
:10039E006F090991199108950E942D1711F5A2E088
:1003AE00B0E0E0EA0E949B1EA3E0B0E0E0E30E9412
:1003BE009B1EA4E0B0E0E3E30E949B1EA5E0B0E02C
:1003CE00E5E30E949B1EA6E0B0E00E9433170E9458
:1003DE003E170E94451724F40E944D176394F9CFDF
:1003EE0099240E942D1709F058C0A8E0B0E0EFEA5A
:1003FE000E949B1EA9E0B0E0E1E00E949B1EAAE0D5
:10040E00B0E0E3E60E949B1EABE0B0E0E0E60E94A7
:10041E009B1EACE0B0E0E4E60E949B1EADE0B0E0B7
:10042E00E0E00E949B1EAEE0B0E00E949B1EAFE09B
:10043E00B0E00E949B1EA0E1B0E00E949B1EA1E1D5
:10044E00B0E00E949B1EA2E1B0E00E949B1EA3E1C1
:10045E00B0E00E949B1EA4E1B0E0E8E90E949B1E62
:10046E00A5E1B0E0EAE30E949B1EA6E1B0E0ECED50
:10047E000E949B1EA7E1B0E0E5E00E949B1EA8E152
:10048E00B0E00E949B1E0E9462170E94451724F442
:10049E000E9470176394F9CF99240E942D17C9F406
:1004AE00AAE1B0E0EAEA0E949B1EABE1B0E0E0E612
:1004BE000E949B1EACE1B0E0EAEE0E9485170E94FE
:1004CE008F170E94451724F40E9496176394F9CF54
:1004DE0099240E942D17C9F4A6E5B0E0E2EA0E9425
:1004EE009B1EA7E5B0E0E1E00E949B1EA8E5B0E0F0
:1004FE00E0E00E9485170E94AB170E94451724F476
:10050E000E94B2176394F9CF99240E942D1711F50A
:10051E00A9E3B0E0EDEA0E949B1EAAE3B0E0EAE593
:10052E000E949B1EABE3B0E0E0E00E949B1EACE39A
:10053E00B0E0EAE50E949B1EADE3B0E00E943317E7
:10054E000E94C7170E94451724F40E94CE17639489
:10055E00F9CF99240E942D1709F5A6E7B0E0E6EA37
:10056E000E949B1EA7E7B0E0E0E00E949B1EA8E75A
:10057E00B0E00E949B1EA9E7B0E0E1E00E949B1E46
:10058E00AAE7B0E00E9433170E94E3170E944517B6
:10059E0024F40E94EA176394F9CF99240E942D1730
:1005AE0009F08CC0AEE1B0E0E1EA0E949B1EAFE123
:1005BE00B0E0E3E50E949B1EA0E2B0E0E5E70E94FA
:1005CE009B1EA1E2B0E0EEE60E949B1EA2E2B0E00E
:1005DE00E0E20E949B1EA3E2B0E0E3E50E949B1EB8
:1005EE00A4E2B0E0E5E60E949B1EA5E2B0E0E0E7E3
:1005FE000E949B1EA6E2B0E0E0E20E949B1EA7E2D4
:10060E00B0E0E2E30E949B1EA8E2B0E0E1E30E94AC
:10061E009B1EA9E2B0E0E0E20E949B1EAAE2B0E0BF
:10062E00E2E30E949B1EABE2B0E0E3E30E949B1E5E
:10063E00ACE2B0E0EAE30E949B1EADE2B0E0E3E381
:10064E000E949B1EAEE2B0E0E6E30E949B1EAFE26C
:10065E00B0E0EAE30E949B1EA0E3B0E0E2E30E945A
:10066E009B1EA1E3B0E0E4E30E949B1EA2E3B0E078
:10067E00E0E20E949B1EA3E3B0E0E2E30E949B1E19
:10068E00A4E3B0E0E0E30E949B1EA5E3B0E0E1E34B
:10069E000E949B1EA6E3B0E0E4E30E949B1EA7E32C
:1006AE00B0E0E0E00E949B1E0E94FF170E944517DB
:1006BE0024F40E940D186394F9CF99240E942D17EB
:1006CE00A1F4AFE3B0E0E7EA0E949B1EA0E4B0E025
:1006DE00E2E40E949B1E0E9422180E94451724F4F9
:1006EE000E9430186394F9CF99240E942D17C9F4F3
:1006FE00A2E4B0E0E7E70E949B1EA3E4B0E0E0E0D6
:10070E000E949B1EA4E4B0E0ECEF0E9485170E94AD
:10071E0045180E94451724F40E944C186394F9CF93
:10072E0099240E942D1709F041C0AAE4B0E0EBEA2B
:10073E000E949B1EABE4B0E0E5E70E949B1EACE47A
:10074E00B0E0EEE60E949B1EADE4B0E0E7E30E944F
:10075E009B1EAEE4B0E0E0E30E949B1EAFE4B0E06F
:10076E00E2E30E949B1EA0E5B0E0E2E60E949B1E23
:10077E00A1E5B0E0EEE00E949B1EA2E5B0E0E4E051
:10078E000E949B1EA3E5B0E0E4E10E949B1EA4E53F
:10079E00B0E0EEE00E949B1E0E9461180E94451779
:1007AE0024F40E946F186394F9CF99240E942D1798
:1007BE0081F5AAE5B0E0EEEA0E949B1EABE5B0E043
:1007CE00EFEF0E949B1EACE5B0E00E949B1EADE5D4
:1007DE00B0E00E949B1EAEE5B0E00E949B1EAFE50E
:1007EE00B0E00E949B1EA0E6B0E00E949B1EA1E618
:1007FE00B0E00E949B1EA2E6B0E00E949B1E0E94EB
:10080E0084180E94451724F40E9492186394F9CF1D
:10081E0099240E942D1729F5AAE6B0E0E4EA0E9479
:10082E009B1EABE6B0E0E0E00E949B1EACE6B0E0A3
:10083E00ECEF0E949B1EADE6B0E0E8E60E949B1E28
:10084E00AEE6B0E0E7EF0E949B1E0E94A7180E9442
:10085E00AF180E94451724F40E94B6186394F9CF7E
:10086E0099240E942D1709F5A0E7B0E0E8E50E9453
:10087E009B1EA1E7B0E0E0E00E949B1EA2E7B0E065
:10088E000E949B1EA3E7B0E0E1E00E949B1EA4E73E
:10089E00B0E00E9433170E94CB180E94451724F433
:1008AE000E94D2186394F9CF99240E942D17C1F497
:1008BE00A6E4B0E0E6E70E949B1EA7E4B0E0EFEFEF
:1008CE000E949B1EA8E4B0E00E9485170E94E718C4
:1008DE000E94451724F40E94EE186394F9CF9924D0
:1008EE000E942D1701F5A4E6B0E0EAE60E949B1ED9
:1008FE00A5E6B0E0E0E00E949B1EA6E6B0E00E94F6
:10090E009B1EA7E6B0E00E949B1EA8E6B0E00E94E8
:10091E0033170E9403190E94451724F40E940A19E6
:10092E006394F9CF99240895E5EAE0934C30E0E41E
:10093E00E0934D30EFE1E0934E30E8E7E0934F3037
:10094E00E0E0E0935030EBEBE0935130EBE0E093DE
:10095E005230E0E0E0935330EFEFE0935430E0E0BC
:10096E00E0935530E8E0E0935630EDEAE0935730EF
:10097E00EDE0E0935830ECEAE0935930EDE0E0938F
:10098E005A300E941F19E0E0E0935D30E4E0E093FE
:10099E005E30E0E0E0935F30E6E0E0936030EBEF56
:1009AE00E09361300895E0E0E0930406E0930006E2
:1009BE00E0931006E0931106E0931206E0931306FF
:1009CE00E0931406E0931506E0931606E0931706DF
:1009DE00E0910906E07FE0930906E0E0E0930A0665
:1009EE00E0930B06E0932406E0932006E093300696
:1009FE00E0933106E0933206E0933306E09334063B
:100A0E00E0933506E0933606E0933706E09129062B
:100A1E00E07FE0932906E0E0E0932A06E0932B06C0
:100A2E00E8E1E0934406E8EBE0934006E0E0E09373
:100A3E005006E0935106E0935206E0935306E0937E
:100A4E005406E0935506E0935606E0935706E09160
:100A5E004906E07FE0934906E0E0E0934A06E09322
:100A6E004B06E0E8E0936406E0936006E0E0E09376
:100A7E007006E0937106E0937206E0937306E093BE
:100A8E007406E0937506E0937606E0937706E091A0
:100A9E006906E07FE0936906E0E0E0936A06E09382
:100AAE006B06E0938406E0938006E0939006E09355
:100ABE009106E0939206E0939306E0939406E093FA
:100ACE009506E0939606E0939706E0918906E07FFF
:100ADE00E0938906E0E0E0938A06E0938B06E093CC
:100AEE00A406E093A006E093B006E093B106E0936F
:100AFE00B206E093B306E093B406E093B606E09335
:100B0E00B706E091A906E07FE093A906E0E0E09346
:100B1E00AA06E093AB06E093E407E093E007E093C8
:100B2E00F007E093F107E091E907E07FE093E90732
:100B3E00E0E0E093EA07E093EB070895E8E0E09346
:100B4E004506E3E0E093A508E091A308E07CE063AE
:100B5E00E093A308E5EFE093A608ECECE093A7087A
:100B6E00E091A408E07EE861E093A40808950E9455
:100B7E002619B090A108A090A008EB2DEC7131F4CD
:100B8E00E22DF0E0E050F04DA0822394E091813010
:100B9E00F0E0EF3FA0E0FA0709F032C2E09100303A
:100BAE00F0E0EF3FA0E0FA0731F40E943419EFEFC6
:100BBE00E093003023C2EA3CA0E0FA0721F4EAEC0D
:100BCE000E943A191BC2E53FA0E0FA0721F4E5EFB7
:100BDE000E943A1913C2E53BA0E0FA0739F4E5EB9F
:100BEE00E0938130E4E00E94421908C2EA3EA0E0A0
:100BFE00FA0721F4EAEE0E943A1900C2E53EA0E09F
:100C0E00FA0739F4E5EEE0938130E7E00E944219ED
:100C1E00F5C1E73EA0E0FA0739F4E7EEE093813044
:100C2E00E7E00E944219EAC1E036A0E0FA0721F49B
:100C3E00E0E60E943A19E2C1E83EA0E0FA0739F474
:100C4E00E8EEE0938130E3E00E944219D7C1E93E1D
:100C5E00A0E0FA0739F4E9EEE0938130E3E00E9478
:100C6E004219CCC1E03AA0E0FA07D9F40E94471924
:100C7E000E94A7180E943E170E94451724F40E9456
:100C8E004D176394F9CF6624691440F4A62DB0E095
:100C9E00AE5FBF4F0E944C196394F6CF0E9451195C
:100CAE00ADC1E13AA0E0FA07C9F40E9447190E94CB
:100CBE00FF170E94451724F40E940D186394F9CF74
:100CCE006624691440F4A62DB0E0A25EBF4F0E94C8
:100CDE004C196394F6CF0E94511991C1E23AA0E0EB
:100CEE00FA07D9F40E9447190E9456190E94AB17B1
:100CFE000E94451724F40E94B2176394F9CF66241C
:100D0E00691440F4A62DB0E0AA5ABF4F0E944C19A8
:100D1E006394F6CF0E94511972C1E43AA0E0FA072B
:100D2E00D9F40E9447190E94A7180E94AF180E947A
:100D3E00451724F40E94B6186394F9CF66246914FB
:100D4E0040F4A62DB0E0A659BF4F0E944C196394F3
:100D5E00F6CF0E94511953C1E63AA0E0FA07D9F432
:100D6E000E9447190E94A7180E94E3170E94451778
:100D7E0024F40E94EA176394F9CF6624691440F4B0
:100D8E00A62DB0E0AA58BF4F0E944C196394F6CF1F
:100D9E000E94511934C1E73AA0E0FA07C9F40E9443
:100DAE0047190E9422180E94451724F40E943018F9
:100DBE006394F9CF6624691440F4A62DB0E0A15CCB
:100DCE00BF4F0E944C196394F6CF0E94511917C160
:100DDE00EA3AA0E0FA07D9F40E9447190E94561980
:100DEE000E948F170E94451724F40E949617639451
:100DFE00F9CF6624691440F4A62DB0E0A65EBF4F6D
:100E0E000E944C196394F6CF0E945119F8C0EB3A28
:100E1E00A0E0FA07C9F40E9447190E9461180E94C7
:100E2E00451724F40E946F186394F9CF6624691451
:100E3E0040F4A62DB0E0A65BBF4F0E944C19639400
:100E4E00F6CF0E945119DBC0ED3AA0E0FA07D9F4B3
:100E5E000E9447190E94A7180E94C7170E944517A3
:100E6E0024F40E94CE176394F9CF6624691440F4DB
:100E7E00A62DB0E0A75CBF4F0E944C196394F6CF2D
:100E8E000E945119BCC0EE3AA0E0FA07C9F40E94C4
:100E9E0047190E9484180E94451724F40E94921844
:100EAE006394F9CF6624691440F4A62DB0E0A65AD7
:100EBE00BF4F0E944C196394F6CF0E9451199FC0E8
:100ECE00EF3AA0E0FA07C9F40E9447190E94621790
:100EDE000E94451724F40E9470176394F9CF66247C
:100EEE00691440F4A62DB0E0A85FBF4F0E944C19C4
:100EFE006394F6CF0E94511982C0E835A0E0FA073C
:100F0E00D9F40E9447190E94A7180E94CB180E947C
:100F1E00451724F40E94D2186394F9CF66246914FD
:100F2E0040F4A62DB0E0A059BF4F0E944C19639417
:100F3E00F6CF0E94511963C0EA36A0E0FA07D9F441
:100F4E000E9447190E94A7180E9403190E94451774
:100F5E0024F40E940A196394F9CF6624691440F4AC
:100F6E00A62DB0E0AC59BF4F0E944C196394F6CF3A
:100F7E000E94511944C0E637A0E0FA07D9F40E9446
:100F8E0047190E9456190E94E7180E94451724F42B
:100F9E000E94EE186394F9CF6624691440F4A62DCE
:100FAE00B0E0AA5BBF4F0E944C196394F6CF0E942B
:100FBE00511925C0E737A0E0FA07D9F40E94471966
:100FCE000E9456190E9445180E94451724F40E944B
:100FDE004C186394F9CF6624691440F4A62DB0E042
:100FEE00AE5BBF4F0E944C196394F6CF0E9451190D
:100FFE0006C0EFEFE09300300E943419222404C0A3
:10100E00EA3CA0E0FA0731F5E2E0E21511F5A09115
:10101E000030A13021F4A0910130A13009F003C0BD
:10102E000E945E1910C0A0910030AF3021F4A09143
:10103E000130AF3009F007C00E945E190E943419CA
:10104E00E1E0DE2E05C0EFEFE0938130E1E03E2ED1
:10105E0022243DC1E53FA0E0FA0711F5E2E0E215DA
:10106E00F1F4A0910030AF3521F4A0910130AF35ED
:10107E0009F012C0A5EF2CD1A5EF2AD1A5EF0E9441
:10108E0064192224A5E0B0E00E948D1BE8EDE4BFB8
:10109E00E1E0E093790003C00E943419222417C1C5
:1010AE00E53BA0E0FA0709F04AC0E4E0E21509F0DA
:1010BE0045C066248824E3E06E1620F40E9467196A
:1010CE006394F9CFA09103308A16A9F5E091003010
:1010DE00E87049F4E0916130E860E0936130E091AE
:1010EE006130EB7F0DC0E0910030E870E83051F4D4
:1010FE00E0916130E460E0936130E0916130E77F30
:10110E00E0936130E0910030E470E43031F4ECEAC9
:10111E00E0935B30E6E2E0935C30E0910030E47007
:10112E0011F40E941F19A5EBD3D0A5EB0E946419F0
:10113E002224882403C00E9434192224C8C0EA3E07
:10114E00A0E0FA07E1F4E2E0E215C1F46624882497
:10115E00E1E06E1620F40E9467196394F9CFA09116
:10116E0001308A1641F4AAEEB3D0AAEE0E94641999
:10117E002224882403C00E9434192224A8C0E036F9
:10118E00A0E0FA07F1F4E2E0E215D1F46624882437
:10119E00E1E06E1620F40E9467196394F9CFA091D6
:1011AE0001308A1651F4A0E693D0A0E091D0A0E0D1
:1011BE000E9464192224882403C00E943419222418
:1011CE0086C0E53EA0E0FA07E1F4E7E0E215C1F4DF
:1011DE0066248824E6E06E1620F40E946719639454
:1011EE00F9CFA09106308A1641F4A5EE71D0A5EE86
:1011FE000E9464192224882403C00E9434192224D8
:10120E0066C0E73EA0E0FA07E1F4E7E0E215C1F4BC
:10121E0066248824E6E06E1620F40E946719639413
:10122E00F9CFA09106308A1641F4A7EE51D0A7EE61
:10123E000E9464192224882403C00E943419222497
:10124E0046C0E83EA0E0FA07E1F4E3E0E215C1F49F
:10125E0066248824E2E06E1620F40E9467196394D7
:10126E00F9CFA09102308A1641F4A8EE31D0A8EE43
:10127E000E9464192224882403C00E943419222457
:10128E0026C0E93EA0E0FA07E1F4E3E0E215C1F47E
:10129E0066248824E2E06E1620F40E946719639497
:1012AE00F9CFA09102308A1641F4A9EE11D0A9EE21
:1012BE000E9464192224882403C00E943419222417
:1012CE0006C0EFEFE09300300E943419222471C162
:1012DE00AA93E091A108E072E1F3E881E093A008FF
:1012EE003DC1E0E8E0936506E3E0E093B509E091E7
:1012FE00B309E07CE093B309EEE6E093B609E8EAC1
:10130E00E093B709E091B409E07EE860E093B40998
:10131E000895AA93E091B109E072E1F3E881E093B8
:10132E00B0091CC11A9310E0AEE2B0E30E94FA14A9
:10133E00A12FB0E0AE17BF0740F4E12FF0E0E25D61
:10134E00FF4CA081E6DF1F5FEFCF0E946E19E0E039
:10135E00EA93AEE1B0E00E94DD14AAE0DADFADE080
:10136E00D8DFE7C0BA93AA93A881B981EC91E07F48
:10137E00EC931996ECE0EC9333C51A930A931FB7CE
:10138E00F894E0910008E07FE560E0930008E091BA
:10139E000108E870E0930108E0910308E071E09322
:1013AE000308E0910608E07FE160E0930608E09113
:1013BE000708E070E0930708E0919900EE7F0E2F8A
:1013CE00E8EDE4BF00939900E0918008E07CE093A3
:1013DE008008E0918308E87EE0938308E0E0E093E4
:1013EE008208A4E8B8E00A2EAC91E0918408E4707B
:1013FE00EA2BA02DEC93E0910C08E0930C08E0E0B2
:10140E00F0E0E0932008F0932108E1E1FAE7E093A1
:10141E002608F0932708E0E0F0E0E0932808F09328
:10142E002908E0932A08F0932B08E0932C08F093F8
:10143E002D08E0932E08F0932F081FBFC1C41A93F6
:10144E001FB7F894A0E4B8E08DDFE5E0E093400824
:10145E00E0E0E0934108E0934308E0934408E09114
:10146E004608E07FE160E0934608E0E0E09347083D
:10147E00E0919008ED7FE0939008E0914C08E093A6
:10148E004C08E0E0F0E0E0936008F0936108E7EAD2
:10149E00F1E6E0936608F0936708E0E0F0E0E09391
:1014AE006808F0936908E0936A08F0936B0840C0EF
:1014BE001A931FB7F894E0910009E07FE160E09382
:1014CE000009E0910109E870E0930109E091030938
:1014DE00E071E0930309E0910609E07FE160E0939B
:1014EE000609E0910709E070E0930709E0910C0905
:1014FE00E0930C09E0E0F0E0E0932009F09321097D
:10150E00EFE3F6EAE0932609F0932709E0E0F0E036
:10151E00E0932809F0932909E0932A09F0932B0907
:10152E00E0932C09F0932D09E0932E09F0932F09E7
:10153E001FBF19910895E3E5E093C008E091C1083B
:10154E00EC7FE093C1080895AA93E881E093C30865
:10155E00E091C208E078E1F3E091C3082196089586
:10156E00E0EAF4E0FA93EA93E0E0EA93A0E00E9466
:10157E0013150E947319E0EAF4E0FA93EA93E0E49B
:10158E00EA93ABE90E942815E0E0E093A8040895E1
:10159E000A921A92FA926A937A938A939A93AA93D8
:1015AE00BA93EA93FA93EFB7EA93A2E8B0E30E94F4
:1015BE005315E991EFBFF991E991B991A9919991DB
:1015CE00899179916991F990199009901895E6EFA2
:1015DE00E0930C31E7EFE0930D31E4EFE0930A3145
:1015EE00EEE2E0930B31E6EFE0931231E7EFE0939A
:1015FE001331E8EFE0931431E4EFE0931031E09112
:10160E00A830E295E07FEE0FEE0FEC5CE093113127
:10161E00EAEAE093DE30EBEAE093DF30ECEAE093C7
:10162E00E030EDEAE093E130EEEAE093E230EFEA0B
:10163E00E093E330E0EBE093E430E1EBE093E53070
:10164E00E2EBE093E630E3EBE093E730E4EBE0939C
:10165E00E830E5EBE093E930E6EBE093EA30E7EBD8
:10166E00E093EB30E8EBE093EC30E9EBE093ED3018
:10167E00EAEBE093EE30EBEBE093EF30ECEBE09344
:10168E00F030EDEBE093F130EEEBE093F230EFEB78
:10169E00E093F33008959BDF0E947319E7E7EA9316
:1016AE00EEEDF0E30E947819E4EFF0E30E947D196D
:1016BE00E7E7EA93E0EEF0E30E947819E6EFF0E355
:1016CE000E947D19E7E7EA93E2EEF0E30E947819B3
:1016DE00E8EFF0E30E947D19E7E7EA93E4EEF0E32A
:1016EE000E947819EAEFF0E30E947D19E7E7EA938A
:1016FE00E6EEF0E30E947819ECEFF0E30E947D191C
:10170E00E7E7EA93E8EEF0E30E947819EEEFF0E3F4
:10171E000E947D19E7E7EA93EAEEF0E30E9478195A
:10172E00E0E0F1E30E947D19E7E7EA93ECEEF0E3E7
:10173E000E947819E2E0F1E30E947D19E7E7EA934F
:10174E00EEEEF0E30E947819E4E0F1E30E947D19D9
:10175E00E7E7EA93E0EFF0E30E947819E6E0F1E3C1
:10176E000E947D19E7E7EA93E2EFF0E30E94781911
:10177E00E8E0F1E3FA93EA93A2E00E94DB15B09160
:10178E00F430A0E0E091F530F0E0EA0FFB1FE093BB
:10179E008E30F0938F30F091F630E0E0DF01E09183
:1017AE00F730F0E0EA0FFB1FE0939030F0939130AA
:1017BE00F091F830E0E0DF01E091F930F0E0EA0F6F
:1017CE00FB1FE0939230F0939330F091FA30E0E00B
:1017DE00DF01E091FB30F0E0EA0FFB1FE093943065
:1017EE00F0939530F091FC30E0E0DF01E091FD30B8
:1017FE00F0E0EA0FFB1FE0939630F0939730F091F4
:10180E00FE30E0E0DF01E091FF30F0E0EA0FFB1F79
:10181E00E0939830F0939930F0910031E0E0DF01E1
:10182E00E0910131F0E0EA0FFB1FE0939A30F09364
:10183E009B30F0910231E0E0DF01E0910331F0E006
:10184E00EA0FFB1FE0939C30F0939D30F091043132
:10185E00E0E0DF01E0910531F0E0EA0FFB1FE093DD
:10186E009E30F0939F30F0910631E0E0DF01E09181
:10187E000731F0E0EA0FFB1FE093A030F093A130A8
:10188E00F0910831E0E0DF01E0910931F0E0EA0F7C
:10189E00FB1FE093A230F093A33008950E947319BA
:1018AE00E7E7EA93EAE0F1E30E9478190E948319D0
:1018BE00E7E7EA93ECE0F1E30E947819EEE0F1E35A
:1018CE000E947D19E7E7EA93E0E1F1E30E947819BF
:1018DE000E948319E7E7EA93E2E1F1E30E948B1994
:1018EE00E5E1F1E30E949019E7E7EA93E3E1F1E322
:1018FE000E948B19E6E1F1E30E949019E7E7EA9363
:10190E00E4E1F1E30E948B19E7E1F1E3FA93EA9344
:10191E00A1E00E94DB15B0910E31A0E0E0910F31F5
:10192E000E949619E093A430F093A5306093A630F0
:10193E007093A730A0911531BB27E091A830E85FD6
:10194E000E94601D0E94C21D0E949C19A091AD3084
:10195E00AA2332F40E94A5190E94581D0E949C19B8
:10196E00A0911631B0E0E091A8300E94601DA091C8
:10197E00AA30B091AB308091AC309091AD300E94D6
:10198E00AE197F936F93FF93EF930090173111244D
:10199E00A091A830E8E0EA1BD0010E94691DAF912A
:1019AE00BF918F919F910E94AE190E949C19E09158
:1019BE009830F0919930A091A430B091A5308091DB
:1019CE00A6309091A730662777270E94531DE0918D
:1019DE009630F0919730662777270E94B3190E94B0
:1019EE00BB19A091A030B091A1300E94C71DEBE0B1
:1019FE000E947B1D7F936F93FF93EF93E091A23034
:101A0E00F091A3300E94C4190E94AE19AF91BF91FC
:101A1E008F919F910E942E1E0E94CD19E093B63099
:101A2E00F093B7306093B8307093B9300E94D919E3
:101A3E00E85FFF4F6F4F7F4FDF01CB01E4E00E9465
:101A4E00871DE093BA30F093BB306093BC30709337
:101A5E00BD300E94E2190E94031CDF01CB010E94DF
:101A6E00EB190E94DB1CE093D630F093D7306093D5
:101A7E00D8307093D9300E94D919E05AFF40604097
:101A8E007040E093BE30F093BF306093C0307093DF
:101A9E00C1300E94F0190E94F919A0919C30B091AA
:101AAE009D300E94041AECE00E94871DDF01CB01DD
:101ABE00EBE00E940B1AA0919030B09191300E94F1
:101ACE00041AEBE00E94871D0E94CD190E940F1A86
:101ADE00E0918E30F0918F300E94A11DDF010E94A7
:101AEE00181A0E94C71D0E94491DE091A8300E943D
:101AFE007B1D0E94211AE093C630F093C73060938D
:101B0E00C8307093C9300E94F019A0919230B091F4
:101B1E0093300E94041AEDE00E940B1A0E94F919EC
:101B2E00DF01CB01ECE00E94871DA0919A30B091AD
:101B3E009B300E94C71D0E942A1A0E94CD190E9436
:101B4E00211A0E940F1A0E94181AE050F0486F4F87
:101B5E007F4FA0919430B0919530882799270E949D
:101B6E00B319E093D230F093D3306093D4307093A6
:101B7E00D530A091C630B091C7308091C8309091C9
:101B8E00C9300E94A5190E944E1D7F936F93FF933B
:101B9E00EF93E091A830A0E5B3EC0E94721DAF91D7
:101BAE00BF918F919F91662777270E94D11DE09359
:101BBE00CA30F093CB306093CC307093CD300E940E
:101BCE002F1AA030E0E0BE07E0E08E07E0E89E07A7
:101BDE0088F4E091CA30F091CB306091CC307091A6
:101BEE00CD300E94AB1DDF01CB010E94381A0E943E
:101BFE00091E08C00E94381A0E942F1A0E94091E40
:101C0E000E94AB1DE093CE30F093CF306093D03076
:101C1E007093D1300E94411A7F936F93FF93EF938D
:101C2E000E94411AAF91BF918F919F910E94F11D19
:101C3E000E94BB19E091AE30F091AF306091B030A0
:101C4E007091B130AEEDBBE080E090E00E942A1AB8
:101C5E000E94BB190E944D1AA3E4B3EE8FEF9FEFC3
:101C6E000E942A1A0E94CD19E153F14F6F4F7F4FF8
:101C7E00DF01CB01E4E00E94871D0E94561A0E94EC
:101C8E00441DE093CE30F093CF306093D0307093FC
:101C9E00D1300E944D1A0E94031CDF01CB01EFE6EA
:101CAE00F2E565E073E40E94DB1CE093DA30F0931A
:101CBE00DB306093DC307093DD300895AA93E0E161
:101CCE00E0934606AB8140DCAA813EDCA9813CDC78
:101CDE00A8813ADCE0914806ED6FEF3FD9F3E0E1E1
:101CEE00E093450624960895AA930E94CB1EE09198
:101CFE003031AC81EA1729F0A13011F0A23009F48D
:101D0E0001C010C0AC81A13011F40E945F1AAC81E9
:101D1E00A23041F4E1E2EA93ECE0EA93E1E1EA93E6
:101D2E00A0E4CCDFEC81E0933031E0914806ED6F1A
:101D3E00EF3FD9F3E0E1E09346068BE68A95F1F7A3
:101D4E00A8E302DCAFEF00DC0E2F1127AFEFFCDBB8
:101D5E002E2F3327E0E1E0934506F02FE0E0E22B53
:101D6E00F32BE4C01A930A930FB7F894E091500046
:101D7E00E260E0935000E0914100E0781E2FE8ED24
:101D8E00E4BF10934100E0916000EE7FE0936000AD
:101D9E00E0915100E270E1F3E0914000E87FE160F4
:101DAE001E2FE8EDE4BF10934000E0915000E27E5C
:101DBE00E0935000E091B400EC7FE093B4000FBFCD
:101DCE00099119910895AA931A93E2E0E093CA013A
:101DDE00E981F0E01491E0E0E093CA01E12F18816F
:101DEE0022960895A0E2EFDFE0930C02A1E2EBDF72
:101DFE00E0930D02E0E0E0930102E3E0E0930402E1
:101E0E00E1E1E0930202E0E0E0931802E0931902B0
:101E1E00E1E0E0932002E0E2E0932102E1E0E093D2
:101E2E002802E8E2E0932902E1E0E0933002E0E3E9
:101E3E00E0933102E1E0E0933802E8E3E093390207
:101E4E00E0E0E0930302E0932202E0932A02E093A3
:101E5E003202E0933A02E0910002E160E093000268
:101E6E004CC0AA930E94CB1EEC81F0E0A0E2B2E03F
:101E7E000E94681AF801A381A170E1F34FC0A4E299
:101E8E00A2DFE0934C02A5E29EDFE0934D02E0E07C
:101E9E00E0934102E3E0E0934402E0E1E09342028A
:101EAE00E0E0E0935802E0935902E1E0E093600233
:101EBE00E0E0E0936102E1E0E0936802E8E0E093A5
:101ECE006902E1E0E0937002E0E1E0937102E1E08B
:101EDE00E0937802E8E1E0937902E0E0E0934302D8
:101EEE00E0936202E0936A02E0937202E0937A0258
:101EFE00E0914002E160E093400285E18A95F1F7BE
:101F0E000895AA930E94CB1EEC81F0E0A0E6B2E009
:101F1E000E94681AF801A381A170E1F3D80113960B
:101F2E00E1E0EC93F80124813581F9010E94D21E83
:101F3E00259608950E942619DD2021F0A09181306A
:101F4E00AF3F09F006C00E94B301A1E0B0E00E94CD
:101F5E008D1B80C00E942619A1E0C6DEE0933131B0
:101F6E00F0933231E0913131F0913231E050F0485E
:101F7E00E0933131F0933231E0913131E0935330CF
:101F8E00E0913131F09132310E94B01DE093543026
:101F9E007724E4E07E1630F5E72DA6E2B0E3F0E01C
:101FAE00EE0FFF1FEA0FFB1FFF93EF93A72D59DFD5
:101FBE00E456F040AF91BF91ED93FC93E72DAEE167
:101FCE00B0E3F0E0EE0FFF1FEA0FFB1FFF93EF935E
:101FDE00A72D97DFE456F040AF91BF91ED93FC93A0
:101FEE007394D7CFE0911E30E0934D30E0911F30C7
:101FFE00E0934E30E0912030E0935130E09121306B
:10200E00E0935230E0912230E0934F30E091233054
:10201E00E0935030E0912430E0935930E091253038
:10202E00E0935A30E0912630E0935D30E091273016
:10203E00E0935E30E0912830E0935F30E0912930FC
:10204E00E0936030E0912A30E0935530E0912B30F0
:10205E00E0935630E991EFBFF991E991B991A991C9
:10206E009991899179916991F990199009901895A2
:10207E001895F894E091A200E873E7601E2FE8ED42
:10208E00E4BF1093A200E0E0E093A1006BDE0E949B
:10209E00DA04A8DEF4DE0E94A5050E9478094BDA68
:1020AE005FDAA4E6B0E00E948D1B78940E949B0438
:1020BE000E946E19E0EFF1E00E94721A0E946E19F2
:1020CE00EDEFF1E00E94721AE6DA0E946E19E7E077
:1020DE00F2E00E94721A0E946E19E8E1F2E0FA93A1
:1020EE00EA9380E02FD424960E9499090E947E1ACA
:1020FE00E0930106E1E0E09305060E947E1AE0936C
:10210E0006060E947E1AE0930506A2E3B0E00E9446
:10211E008D1B0E945F1A0E946E19E2E2F2E00E948D
:10212E00721AC6D90E94C4090E94260A0E946E190C
:10213E00E2E3F2E00E94721A0E94D301A1E0B0E045
:10214E000E94921EE23010F0E93C28F0A1E0B0E0CF
:10215E00E1E00E949B1EA1E0B0E00E94921EEF5FA4
:10216E000E949B1E0E946E19EEE3F2E0FA93EA9330
:10217E00E0913131F09132310E94C21D0E947B1EDE
:10218E00E0915430FF27662777270E947B1EE0914F
:10219E005330FF27662777270E947B1E8CE0D2D311
:1021AE0060960E94841AE4E5F2E0FA93EA93E091D5
:1021BE002630F09127300E94871AE0912830F09156
:1021CE0029300E94871A0E948C1AE4E5F2E0FA93F5
:1021DE00EA93E0912A30F0912B300E94871AE09119
:1021EE002C30F0912D300E94871A0E948C1AE9E64D
:1021FE00F2E0FA93EA93E0911E30F0911F300E94C4
:10220E00871AE0912030F09121300E94871A0E94A7
:10221E008C1AE9E6F2E0FA93EA93E0912230F0911B
:10222E0023300E94871AE0912430F09125300E94CD
:10223E00871A0E94911A32DB0E946E19EEE7F2E0C5
:10224E00FA93EA93E091DA30F091DB306091DC3072
:10225E007091DD300E947B1EE091D630F091D73028
:10226E006091D8307091D9300E947B1E0E94911AD5
:10227E00E091BA30AAE0EA02F001E09357300E94F2
:10228E00E219AAE0B0E080E090E00E94F11DDF01CB
:10229E00CB01E8E00E94871DE09358300E94971A08
:1022AE00E0935B300E94971ADF01CB01E8E00E94B9
:1022BE00871DE0935C30F2DA0E946E19ECE8F2E0D2
:1022CE00FA93EA93B0915C30A0E0E0915B300E940B
:1022DE0096190E947B1EB0915830A0E0E0915730C5
:1022EE000E9496190E947B1E0E94911AA4E6B0E0ED
:1022FE000E948D1B37CFFFCFBA93AA931A930A93DE
:10230E00AA81BB8112960E94621E309729F1AA8182
:10231E00BB8114960E94621E8F01309761F00230CD
:10232E00E0E01E0780F0F80131978F01AA81BB8192
:10233E001496ED93FC93AA81BB8112960E949F1A6C
:10234E003197AC81A083AA81BB810E94621EFF23BC
:10235E0012F00E949F1A06C0AA81BB81EFEFFFEF19
:10236E00ED93FC93198108810C9426150E94A51AF1
:10237E00E0E8EA83EFE3EB830E94CB1EEE85FF8558
:10238E00EF3FAFEFFA0749F4E885F985FA93EA9340
:10239E00AAE9B2E00E94ED14B7C0EF3FAFE7FA072B
:1023AE0049F4E885F985FA93EA93ABE9B2E00E9425
:1023BE00ED14AAC0AB85A73010F0E6E0EB871B85C5
:1023CE00E12F1150E03019F00E94AC1AF9CFEC85D4
:1023DE00FD856E857F850E94C51E21F430E00E942A
:1023EE00AC1A2DC03B850E94B81A09F008F40BC038
:1023FE000E94AC1A0E94B81A28F00E94C31A0E94BA
:10240E00C81AF8CF0DC00E94B81A40F40E94C31A21
:10241E000E94D41A0E94D81A3150F5CF0E94AC1ADD
:10242E00EC85FD856E857F850E94DD1A0E94D81A87
:10243E000E94B81A20F00E94C31A0E94C81A10E017
:10244E00EB85E117A8F1AC81BD818E819F810E9441
:10245E00E41A0E94DD1ADF01CB010E947516EC838F
:10246E00FD836E837F830E94C31A0E94DB1C0E9431
:10247E00CA1B0E2F0E94EB1A0E94F21AFF27662724
:10248E0077270E94031CAC81BD818E819F810E94A3
:10249E008D1C0E94C31A0E94F71A0E94D81AE12FAF
:1024AE001F5FE03069F60E94EB1AEEE2EC93C8CFA4
:1024BE000E94FC1A3197AA85A08330302CF43195F6
:1024CE00A885B985EDE203C0A885B985EBE2EC934A
:1024DE000E94FC1A0E94FC1A3197BF01A32FEAE05A
:1024EE000E94041EE05DDB01EC930E94FC1A319702
:1024FE00BF01A32FEAE00E94331EE05DDB01EC93E7
:10250E00A885B985E0E0EC930E94D21E60960895EE
:10251E00BA93AA93EF9761970E94C91E10E0FE012D
:10252E00E85AFF4F0190F081E02DE887F987FE0110
:10253E00EA5AFF4F0190F081E02DEE83FF83AE81CA
:10254E00BF81E0E0F0E0ED93FC93DE01A45ABF4FB3
:10255E000E949F1A3197E4912E2FE03009F4E9C1C1
:10256E00E12FE03039F4253211F411E002C00E945F
:10257E00021BDEC1E130C1F4253219F40E94021BA8
:10258E00D6C112E0E0E0ED8B00E02D3211F401E057
:10259E00CFC12B3219F4EBE2ED8BCAC1203219F404
:1025AE00E0E2ED8BC5C102C0E23039F450E013E039
:1025BE00203311F40068BCC102C0E33091F4203323
:1025CE0010F02A3308F007C0AAE05A9F502DE22FD0
:1025DE00E0535E0FADC140E02E3211F414E0A8C1FD
:1025EE000FC0E43099F4203310F02A3308F008C0FD
:1025FE000062AAE04A9F402DE22FE0534E0F98C191
:10260E002C3619F4026015E093C103C0E53009F0D1
:10261E008FC1E22FE33659F40E94091B0E94101B52
:10262E000E94091BA481AA930E94171B80C1E53446
:10263E0011F0E53609F403C0E63609F048C0FE0194
:10264E007696EE87FF870E941D1B0E94661E0E94D3
:10265E00241B0E94291BAD85AA2332F0AD89AB3213
:10266E0059F0A03281F017C00E942B1B0E94971BBD
:10267E000E94241BEDE2ED8B07FF05C0ED89EA9366
:10268E000E94171B08C0EE85FF853196EE87FF87E7
:10269E003197AD89A08305FF46E0263651F40E949E
:1026AE002B1B0E947B1E4A93AB89BC890E948C1601
:1026BE0009C00E942B1B0E947B1E4A932A93AC8951
:1026CE00BD8954DEFE0176960E94301B1EC0E33794
:1026DE0039F40E94291B0E94381B0E94301B0EC029
:1026EE00E037C1F40E94291B0E94381BEE87FF873A
:1026FE00AE85BF850E9406151E2F08600F774030ED
:10270E0011F0411708F001C0142F40E0E0E0EC8B0F
:10271E0030E06DC0E43611F0E93611F4046002C009
:10272E00E537A1F4EAE0EC8B01FF08C0E0E0FAEC3B
:10273E006AE97BE30E943D1B1AE022C0E0E1F7E26A
:10274E0060E070E00E943D1B15E01AC0E83511F400
:10275E00086003C0E83709F0EAC0E0E1EC8B01FF46
:10276E0008C0E0E0F0E060E070E10E943D1B18E080
:10277E0007C0E0E0F0E160E070E00E943D1B14E075
:10278E00403011F00F7701C041E001FF08C00E94F8
:10279E00291B0E941D1B14960E94661E0FC002FF6D
:1027AE0007C00E94291B0E94381B0E94C21D06C032
:1027BE000E94291B0E94381B66277727EA87FB8712
:1027CE006C877D8702FF12C0AD85AA2342F40E945A
:1027DE002B1B0E94581D0E94241BEDE2ED8BED89F0
:1027EE00E03019F01F5F4F5F01C00B7F342F00FDEB
:1027FE0014C0151710F4351708F00FC007FF08C0E6
:10280E0002FF04C00B7F2D89115001C020E301C0CF
:10281E0020E20E94021B5150ECCF141790F400617D
:10282E0002FF06C00E94421B09F051501150415048
:10283E00E0E3EA930E94171B503009F051504150CB
:10284E00ECCF312FEC89E030B9F43030A1F003FF3A
:10285E0006C0EE85FF852591EE87FF8705C0AE8504
:10286E00BF852D91AE87BF870E94021B503009F0A5
:10287E0051503150EACF51C00E94541B0E94091E84
:10288E002E2F2A3030F003FF02C0295C01C0295AD6
:10289E0001C0205D04FD21C0213360F4A889B989EF
:1028AE008A899B89A130E0E0BE07E0E08E07E0E078
:1028BE009E0709F40BC0431740F4531710F000FFA6
:1028CE0001C010C020E207FF08C020E3006102FF34
:1028DE0004C00E94421B09F051500E94021B50304E
:1028EE0009F0515031500E94541B0E943F1E0E940D
:1028FE00241BEC89A889B9898A899B89FF276627B9
:10290E0077270E94091E0E943D1BE889F9896A8972
:10291E007B890E94C51E09F0AFCF00FF08C0503062
:10292E0031F05150E0E2EA930E94171BF8CF10E00D
:10293E000CCEAE81BF810E94621E0E94D01EEF9609
:10294E006F960895FF92F82E26970E94CB1E0E9436
:10295E005D1B309719F4EFEFFFEF23C0DE011696E3
:10296E000E94401D8D010E945D1BEE83FF83E0E0FF
:10297E00E887E987DE011A960E94401D0E94621EBA
:10298E00FA93EA931A930A93E3E8F1E1FA93EA933E
:10299E00DE011A96BDDD9F01AE81BF81E0E0EC93B2
:1029AE00F9010E94D21E2A96FF900895BA93AA9317
:1029BE00B981A881109631F0FC81EB816A81619317
:1029CE001197E9F7EB81FC810C942615BA93AA9323
:1029DE00E991F991A991B991CD0105900D9200203F
:1029EE00E1F7FC010895BA93AA93A991B991EE2744
:1029FE00FF276D91662311F03196FBCF0895BA93A0
:102A0E00AA93AA27BB27E991F9910590002011F00E
:102A1E001196FBCFFD010895AA931A93AB81BC8149
:102A2E00EC91EC7F1E2FEA81E03009F01160E98114
:102A3E00E03009F01260AB81BC811C9318812596A1
:102A4E000895AA93E981E863AA81BB811196EC935C
:102A5E00EA81FB813296A0E0A083E881AA81BB8146
:102A6E001596EC93EA81FB813496A1E0A083EA816E
:102A7E00FB81AC81BD81ED93FC93AC81BD8115963C
:102A8E00E0E0EC93AC81BD811996EC93AC81BD81F5
:102A9E001B96EC9326960895BA93AA9322970E94BA
:102AAE00C91EA885B9850D911C91F8013481339604
:102ABE00AF0133FF02C023E003C032FF04C024E0A5
:102ACE00F801348309C0F8013796EE83FF8336FF91
:102ADE0032C034FF05C025E0DA01E3E0EC935BC0C1
:102AEE00E885F9852681E5812E1798F4E885F98524
:102AFE00A381B481E22F2F5FF0E0AE0FBF1FEC91E8
:102B0E00AE81BF81EC93E22FA885B9851696EC9322
:102B1E0047C0E885F985A285E185AE1748F4E885BA
:102B2E00F985A281E1E0EA2BD8011696EC9338C024
:102B3E00DA01E3E02CC037FF2DC0E885F985228548
:102B4E00E1852E1728F0DA01E3E0EC9322E023C0B2
:102B5E00E885F985A781B085E22F2F5FF0E0EA0FB7
:102B6E00FB1F0F01AE81BF81EC91D001EC93E22FE0
:102B7E00A885B9851A96EC93E885F985E1852E1717
:102B8E0020F4DA01E2E0EC930BC0DA01E7E0EC931B
:102B9E0021E001C026E0E22FA885B9851B96EC93B3
:102BAE000E94D01E2A960895AA931A930A93E98535
:102BBE00FA85A385A07809F05BC0A985BA851B9616
:102BCE00E0E8EC93E885EE0FE887A985BA851296C2
:102BDE00EC93EE81FF81A985BA851396ED93FC9354
:102BEE00ED81A985BA851596EC93A985BA851696B9
:102BFE00E0E0EC93EB81FC81A985BA851796ED9305
:102C0E00FC93EA81A985BA851996EC93A985BA85B4
:102C1E001A96E0E0EC93A985BA850E94621E36965C
:102C2E008F01ED81E03079F0EE81FF81309701F177
:102C3E00EA81E03021F0AB81BC81109709F001C030
:102C4E0017C0E88509C0EA81E03041F0EB81FC81D4
:102C5E00309771F0E885E160D801EC93E985FA854B
:102C6E00A385A078D9F7A385E1E00E94CC1D01C011
:102C7E00E0E0198108812B9608950E94801E7B81C9
:102C8E006A81F981E88177FB770F67FD7160972F75
:102C9E009E5781F078F0983190F4AA27BB278827A9
:102CAE0008948795B795A7959A95D1F7EA23FB23B4
:102CBE00682305C0E8947727EE27FF2766276F77EE
:102CCE00769508F4606877F9A991B99189919991EF
:102CDE00EA17FB076807790797FB08950E94801E85
:102CEE000E94711E0E9444160E94761E19F40E94C4
:102CFE006C1E09C0E6F70E946C1EA0E0B0E080E8F2
:102D0E009FE30E94361C2496089518D4E0E0EA83CF
:102D1E00EFE3EB831A930A93EB85FC85EF3FAFEF5E
:102D2E00FA0731F4CAD4A2EAB2E00E94ED148AC0C6
:102D3E00EF3FAFE7FA0731F4C0D4A3EAB2E00E9446
:102D4E00ED1480C0AC85AA2352F4E985FA856B8513
:102D5E007C850E94971BB6D4BAD4EDE2EC93A8857D
:102D6E00A73010F0E6E0E8871885E12F1150E0302B
:102D7E0021F0B4D422D4B7D4F8CFBAD40E943D1CDB
:102D8E00A1D410E0E0E0F0E060E87FE3ACD4B0D492
:102D9E000E94201D68F0A2D400D4A5D41F5F173264
:102DAE0030F08BD4A7EAB2E00E94ED144BC0EFCF07
:102DBE00103021F48CD4E0E3EC9320C0E12F1150BD
:102DCE00E030E1F08BD4F9D3F1D3DF01CB010E94D7
:102DDE00751689D48DD40E94DB1C0E94CA1B0E2F3F
:102DEE0076D4F9D3F0E07AD40E94C21D0E94031C5F
:102DFE000E948D1C86D4F4D365D4E0CFE885E030F4
:102E0E00E9F065D4EEE2EC93E885E150E887EF5FF8
:102E1E00A9F077D4C2D356D4E985FA856B857C8523
:102E2E000E94CA1B0E2F53D4D6D3F0E06AD40E9450
:102E3E00C21D0E94031CD4D345D4E6CFAE81BF8100
:102E4E00E0E0EC93198108812D960895A1E0B0E0A1
:102E5E000E94921EEF3F0895E0E00E949B1EE6E066
:102E6E009E2EE1E06E2EE92DF0E031970895EE5F93
:102E7E00FF4FDF01E0E00E949B1E0895E92DF0E078
:102E8E003197A62DB0E0AE17BF070895E92DF0E0FB
:102E9E003197EE5FFF4FBF01DF010E94921E0E2E93
:102EAE00A62DB0E0AE5FBF4F0E94921EE00DDB017B
:102EBE000E949B1E0895E2E19E2EE1E06E2EE92D0A
:102ECE00F0E03197E85FFF4FDF01E0E00E949B1ECC
:102EDE000895E92DF0E03197E85FFF4FBF01DF0164
:102EEE000E94921E0E2EA62DB0E0A85FBF4F0E942C
:102EFE00921EE00DDB010E949B1E08950E949B1EF8
:102F0E00E4E09E2EE1E06E2EE92DF0E0319708957B
:102F1E00E65EFF4FDF01E0E00E949B1E0895E92D63
:102F2E00F0E03197E65EFF4FBF01DF010E94921E77
:102F3E000E2EA62DB0E0A65EBF4F0E94921EE00D93
:102F4E00DB010E949B1E0895EA5AFF4FDF01E0E06D
:102F5E000E949B1E0895E92DF0E03197EA5AFF4F2B
:102F6E00BF01DF010E94921E0E2EA62DB0E0AA5ABE
:102F7E00BF4F0E94921EE00DDB010E949B1E089522
:102F8E00E75CFF4FDF01E0E00E949B1E0895E92DF4
:102F9E00F0E03197E75CFF4FBF01DF010E94921E08
:102FAE000E2EA62DB0E0A75CBF4F0E94921EE00D24
:102FBE00DB010E949B1E0895EA58FF4FDF01E0E0FF
:102FCE000E949B1E0895E92DF0E03197EA58FF4FBD
:102FDE00BF01DF010E94921E0E2EA62DB0E0AA5850
:102FEE00BF4F0E94921EE00DDB010E949B1E0895B2
:102FFE00EBE19E2EE1E06E2EE92DF0E03197E25EE0
:10300E00FF4FDF01E0E00E949B1E0895E92DF0E0E6
:10301E003197E25EFF4FBF01DF010E94921E0E2E1E
:10302E00A62DB0E0A25EBF4F0E94921EE00DDB0106
:10303E000E949B1E0895E3E09E2EE1E06E2EE92D88
:10304E00F0E03197E15CFF4FDF01E0E00E949B1E54
:10305E000895E92DF0E03197E15CFF4FBF01DF01EC
:10306E000E94921E0E2EA62DB0E0A15CBF4F0E94B4
:10307E00921EE00DDB010E949B1E0895EE5BFF4F3A
:10308E00DF01E0E00E949B1E0895E92DF0E03197EC
:10309E00EE5BFF4FBF01DF010E94921E0E2EA62D8A
:1030AE00B0E0AE5BBF4F0E94921EE00DDB010E94AE
:1030BE009B1E0895ECE09E2EE1E06E2EE92DF0E0D1
:1030CE003197E65BFF4FDF01E0E00E949B1E089503
:1030DE00E92DF0E03197E65BFF4FBF01DF010E9463
:1030EE00921E0E2EA62DB0E0A65BBF4F0E94921E22
:1030FE00E00DDB010E949B1E0895EAE09E2EE1E0AA
:10310E006E2EE92DF0E03197E65AFF4FDF01E0E039
:10311E000E949B1E0895E92DF0E03197E65AFF4F6D
:10312E00BF01DF010E94921E0E2EA62DB0E0A65A00
:10313E00BF4F0E94921EE00DDB010E949B1E089560
:10314E00E6E09E2EE1E06E2EE92DF0E03197089537
:10315E00E659FF4FDF01E0E00E949B1E0895E92D26
:10316E00F0E03197E659FF4FBF01DF010E94921E3A
:10317E000E2EA62DB0E0A659BF4F0E94921EE00D56
:10318E00DB010E949B1E0895E059FF4FDF01E0E036
:10319E000E949B1E0895E92DF0E03197E059FF4FF4
:1031AE00BF01DF010E94921E0E2EA62DB0E0A05987
:1031BE00BF4F0E94921EE00DDB010E949B1E0895E0
:1031CE00EA5BFF4FDF01E0E00E949B1E0895E92DB0
:1031DE00F0E03197EA5BFF4FBF01DF010E94921EC4
:1031EE000E2EA62DB0E0AA5BBF4F0E94921EE00DE0
:1031FE00DB010E949B1E0895EC59FF4FDF01E0E0BA
:10320E000E949B1E0895E92DF0E03197EC59FF4F77
:10321E00BF01DF010E94921E0E2EA62DB0E0AC590A
:10322E00BF4F0E94921EE00DDB010E949B1E08956F
:10323E00E0E1E0935B30E7E2E0935C3008950A92C0
:10324E001A92FA926A937A938A939A93AA93BA935A
:10325E00EA93FA93EFB7EA930895EFEFE093813094
:10326E00E1E03E2E0895E0938130E2E03E2EEFEF56
:10327E00E093003008953E2EEFEFE0930030089576
:10328E00EFEFE0930030222408950E94921EAE2F9D
:10329E000C946F099924EFEFE09381300895E4E0E8
:1032AE009E2EE1E06E2EE92DF0E031970895AAEC06
:1032BE000E946F09AAEC0C946F090E946F09CDCF82
:1032CE00E62DF0E0E050F04DE0818E0E0895EEE236
:1032DE00F0E3FA93EA930895E2E8F0E3FA93EA93BF
:1032EE000895FA93EA93E2E0EA930895FA93EA9343
:1032FE00A2E00E94DB15F0CFE0E0F0E0FA93EA9353
:10330E00A0E00E94DB15E8CFFA93EA93E1E0EA939E
:10331E000895FA93EA93A1E00E94DB15DDCFF0E069
:10332E00EA0FFB1F0E94C21D0895E093AA30F0938E
:10333E00AB306093AC307093AD300895E091AA300D
:10334E00F091AB306091AC307091AD3008950E9429
:10335E00C21D0E94441D08950E94D11DDF01CB01A4
:10336E00EFE00E94931D0895E093AE30F093AF30DE
:10337E006093B0307093B1300895A091AE30B0919B
:10338E00AF308091B0309091B1300895E093B2306B
:10339E00F093B3306093B4307093B530EEDF0E948B
:1033AE00441D0895E091B630F091B7306091B83079
:1033BE007091B9300895E091BA30F091BB306091C0
:1033CE00BC307091BD300895E0E0F0E060E271E451
:1033DE000895E091BE30F091BF306091C030709191
:1033EE00C1300895A091BE30B091BF308091C030F1
:1033FE009091C1300E94F11D08950E94C71D0E9438
:10340E00F11DDF01CB0108950E94871DADDFE1CFD5
:10341E00E093C230F093C3306093C4307093C530E4
:10342E000895E091C230F091C3306091C430709134
:10343E00C5300895EE5FFF4F6F4F7F4F0E94A61D60
:10344E000E94A61D08950E94F11D0E94B51D0895AB
:10345E00A091CA30B091CB308091CC309091CD30CC
:10346E000895E091D230F091D3306091D4307091C4
:10347E00D5300895A091CE30B091CF308091D0301C
:10348E009091D130E8E00E94871D0895E091CE30F2
:10349E00F091CF306091D0307091D1300895A091DD
:1034AE00CE30B091CF308091D0309091D130089500
:1034BE00E0E2EA93ECE0EA93E0E1EA93A0E40C9414
:1034CE00650E0E949F1DEA0FFB1F8F01D801EC9124
:1034DE00E068EC930895FA93EA9380E00E94A914B1
:1034EE0024960E949909A8ECB0E00C948D1BA2E3DF
:1034FE00B0E00E948D1BE1E008950E949909E7CE8D
:10350E00662777270E947B1E089588E00E94A914E3
:10351E002C96F3CF88E00E94A9142C960C9499094E
:10352E00BEDFEAE0F0E060E070E00E942E1E08953B
:10353E000E94621E3196ED93FC930895BA93AA935E
:10354E002497E0E0E883E9830895AC81BD818E8104
:10355E009F813ADF0E948D1CEC83FD836E837F83F7
:10356E000895EC81FD816E817F81AC85BD858E8550
:10357E009F850E94201D0895AC85BD858E859F85F3
:10358E000895EDECFCEC6CEC7DE30E948D1CEC8759
:10359E00FD876E877F873F5F089516DF0E948D1C23
:1035AE000895EC87FD876E877F870895A0E0B0E0D1
:1035BE0080E09FE30E943D1C0895EDECFCEC6CEC6A
:1035CE007DE30E948D1C0895A885B9851196A88764
:1035DE00B98711970895E02FE05DEC93E02F0895E1
:1035EE000E94851E0E94361C0895E885F985319645
:1035FE00E887F98708952A93AF81B885E985FA851A
:10360E0009950895FE01E65AFF4F0190F081E02DD5
:10361E0008953497DE01A65ABF4FED93FC9308959B
:10362E00AF81B885E985FA8509950895DE01A65A18
:10363E00BF4F0D90BC91A02D0895EA87FB876C8734
:10364E007D870895DFDFE5CFEA85FB856C857D8577
:10365E000895EE87FF87AE85BF850E94FA141E2F50
:10366E000895E4DF14960E94621E0895E88BF98B8C
:10367E006A8B7B8B08950B7FED89EA93DE01A95A45
:10368E00BF4F0D90BC91A02DFE01E75AFF4F019048
:10369E00F081E02D099550300895E889F9896A89FD
:1036AE007B89AA85BB858C859D850895DE011C9638
:1036BE000E94401D0E94621E0895EE81FF81FA93C2
:1036CE00EA930895E987FA876B877C870895AE8120
:1036DE00BF811196AE83BF8311970895AA81BB81D6
:1036EE008C819D810895EA83FB836C837D8308958D
:1036FE00EA81FB816C817D81A985BA858B859C854C
:10370E000895A985BA858B859C850895109639F004
:10371E0080E49FE10197F1F7A8951197C9F70895F5
:10372E0030976040704009F070580895552342F468
:10373E00503811F4E0FF04C03196691F791F6BF009
:10374E0050E8572711F45F93CFC05F3F31F0660FFB
:10375E00000C57956795752F08955F9300200AF01A
:10376E00CFC0C8C050E8192E1522880F991F952773
:10377E00550F879550E8072E0522660F771F752780
:10378E00550F67950895689401C0E8945F93F2DF32
:10379E00703818F07F3F08F4A7C056E1571BAAF403
:1037AE00519558300EF4593030F0EFEFFFEF6FEFC8
:1037BE007FE777F91AC077275523B9F0EE0FFF1F71
:1037CE00661F771F5A95D1F710C07727583028F00B
:1037DE00EF2FF62F672F5850F9CF552331F07695EE
:1037EE006795F795E7955A95D1F700200AF459D1C8
:1037FE005F910895689401C0E894309760407040DE
:10380E00B1F0002426F0772312F400944AD1172E3B
:10381E007EE1112032F07A95EE0FFF1F661F111C0C
:10382E00F9CFEF2FF62F612D5F938ADF5F91089509
:10383E004F93AF01FD01DA01AB01BC01CA01402D6E
:10384E00012C142E4F910895EA0FFB1F681F089547
:10385E00E095F0956095EF5FFF4F6F4F08955F9382
:10386E0081DF903871F150E8152604C05F937ADF3E
:10387E00903839F1703821F1572F591B2BF112F472
:10388E00D7DFFACF583118F0AA27BB278827583030
:10389E0028F0AB2FB82F88275850F9CF552329F091
:1038AE008695B795A7955A95D9F7502D512572F053
:1038BE00CBDF38F46795F795E795739513F420C031
:1038CE00B7DF3EDF5F910895D8F7FBCFEA1BFB0B06
:1038DE00680B51F010F40094BBDF662392F3EE0FE9
:1038EE00FF1F661F7A95CBF7EE27FF2766277727F0
:1038FE005F910895EFEFFFEF6FE77FEF5F91089510
:10390E00EFEFFFEF6FE77FE75F9108955F932ADF99
:10391E00703851F3903841F301240894791F23F441
:10392E001CF300203AF3ECCF0F921F932F933F938B
:10393E004F93112722279927689FA0018F9F302D23
:10394E00410D591F6B9F300D411D591F8E9F27D062
:10395E00BF9F25D06A9F23D0BE9F1DD0AF9F1BD087
:10396E00AE9F110D291F391F491F591FE32FF42F29
:10397E00652F522F4F913F912F911F910F906623DC
:10398E002AF0550FEE1FFF1F661F02C073954BF2F4
:10399E00CDDE5F910895100D211D391F02C0200D3F
:1039AE00311D491F591F08955F93DCDE703821F4D5
:1039BE0011200AF49FCFA4CF903809F495CF01249B
:1039CE000894970B1BF4D4F30020F3CF792F1F9399
:1039DE002F933F934F9311241127222733274427E8
:1039EE00552790E2AE17BF078607410730F0AE1B92
:1039FE00BF0B860B410B089401C08894551F221FE4
:103A0E00331F111CAA1FBB1F881F441F9A9551F705
:103A1E00F901612D4F913F912F911F91662332F045
:103A2E00550FEE1FFF1F661F7A9543F27FDE5F91E3
:103A3E00089599239AF0772342F0971748F029F4C6
:103A4E00AE17BF07860720F031F09894889408953A
:103A5E009894089408951894889408957723C2F73B
:103A6E00971798F3A9F7EA17FB07680788F399F3F6
:103A7E00ECCF0024AF0DB01D0895EA0FFB1F681F99
:103A8E00791F0895AE0FBF1F861F971F0895EA1B5B
:103A9E00FB0B680B790B0895AE1BBF0B860B970BB8
:103AAE000895F09560957095E195FF4F6F4F7F4F9C
:103ABE000895EE230E2EFD0121F0EE0FFF1F0A9446
:103ACE00E1F70895EE230E2EFD0121F0F595E79511
:103ADE000A94E1F70895EE230E2EFD0121F0F695DE
:103AEE00E7950A94E1F70895EE230E2EFD01BC0131
:103AFE0031F0EE0FFF1F661F771F0A94D1F708955E
:103B0E00EE230E2EFD01BC0131F075956795F795EC
:103B1E00E7950A94D1F70895EE230E2EFD01BC0110
:103B2E0031F076956795F795E7950A94D1F7089554
:103B3E00EE0FFF1FEE0FFF1FEE0FFF1F089575957F
:103B4E006795F795E7950895EE0FFF1F661F771F90
:103B5E000895EF2FFF27E7FDFFEF0895E62FF72FCC
:103B6E006627F7FD6FEF762F0895FE2FFF0FFF0BE1
:103B7E006F2F7F2F08956F2F660F660B762F089588
:103B8E008B2F880F880B982F0895EA17E1E009F024
:103B9E00EE2708957A9F702D6B9F700DF89F700D14
:103BAE00E99F700D6A9F602D710DFB9F600D711D59
:103BBE00E89F600D711D8827FA9FF02D610D781F0B
:103BCE00EB9FF00D611D781FEA9FE02DF10D681F30
:103BDE00781F08955DD0DEDF0EF463DF08950024B4
:103BEE0098E0AA0F001C0E1A10F40E0E01C0A16070
:103BFE009A95B9F7EA2FA02D08953ED0F0DF0EF476
:103C0E00E19508953F934F935F9300241124442729
:103C1E00552730E2AA0FBB1F881F991F001C111CCD
:103C2E00441F551F0E1A1F0A460B570B28F40E0E73
:103C3E001F1E461F571F01C0A1603A9559F7FD017F
:103C4E00BC01D001CA015F914F913F91089520D0E0
:103C5E00D9DF0EF426DF0895E894A7FF02C0A195E0
:103C6E006894E7FDE195BBDFEA2F0EF4E195089528
:103C7E00C9DFFD01BC010895E894E7FF02C0E1959C
:103C8E006894A7FF04C0A19500F8039400FA089564
:103C9E00E89477FF02C005DF689497FF0BC00024FD
:103CAE00A095B095809590951196801D901D00F869
:103CBE00039400FA0895ED91FC9111970895ED91FA
:103CCE00FD916D917C9113970895E881F9816A8138
:103CDE007B810895A881B9818A819B810895E883AB
:103CEE00F9836A837B8308957A936A93FA93EA93AE
:103CFE0008959A938A93BA93AA930895182E862FAD
:103D0E00612D192E972F712D1B2EBF2FF12D1A2ECF
:103D1E00AE2FE12D0895A895E091CF01E7FDFBCFE1
:103D2E00B05FEC91B051089523D0B05F8C918E1797
:103D3E0011F4B05108959E2F1BD07F937FB7F89446
:103D4E009C93B051A093C001B093C10180E08093C9
:103D5E00C20185E38093CA0188ED91E084BF909300
:103D6E00CB0106D080E08093CA017FBF7F9108957A
:103D7E00A8958091CF0187FDFBCF089530976040C5
:103D8E00704008955A934A933A932A931A930A933A
:103D9E0008955D814C813B812A81198108810895A6
:00000001FF
