:040000000C949101CA
:100004000C9400000C9400000C9400000C9400006C
:100014000C9400000C9400000C9400000C9400005C
:100024000C9400000C9400000C9400000C9400004C
:100034000C9400000C9459100C9400000C940000D3
:100044000C9400000C9400000C9400000C946910B3
:100054000C9400000C9400000C9400000C9400001C
:100064000C94FF050C9400000C9400000C94000008
:100074000C9400000C9400000C9400000C940000FC
:100084000C9400000C9400000C9400000C940000EC
:100094000C9400000C9400000C9400000C940000DC
:1000A4000C9400000C9400000C9400000C940000CC
:1000B4000C9400000C94EF0A0C9400000C940000C3
:1000C4000C9400000C9400000C9400000C940000AC
:1000D4000C9400000C9400000C9400000C9400009C
:1000E4000C9400000C9400000C9400000C9400008C
:1000F4000C9400000C9400000C9400000C9400007C
:100104000C9400000C9400000C9400000C9400006B
:100114000C9400000C9400000C9400000C9400005B
:100124000C9400000C9400000C9400000C9400004B
:100134000C94FB100C9400000C9400000C94000030
:100144000C9400000C9400000C9400000C9400002B
:100154000C9400000C9400000C9400000C9400001B
:100164000C9400000C9400000C9400000C9400000B
:100174000C9400000C9400000C9400000C940000FB
:100184000C9400000C9400000C9400000C940000EB
:100194000C9400000C9400000C9400000C940000DB
:1001A4000C9400000C9400000C9400000C940000CB
:1001B4000C9400000C9400000C9400000C940000BB
:1001C4000C9400000C9400000C9400000C940000AB
:1001D4000C9400000C9400000C9400000C9400009B
:1001E4000C940000FF005D00230001007374617231
:1001F4007420646576696365007374617274206940
:1002040032630062756620693263207374617274AC
:10021400206F6B00626D70206932632073746172A9
:1002240074206F6B00535049205354415254006161
:100234006437373035207374617274206F6B0053E8
:1002440054415254205748494C4500494E50555446
:100254005F55313D2530782C4F55545F55313D2540
:10026400307800494E5F55323D2530782C4F555437
:100274005F55323D25307800494E5F55333D25307A
:10028400782C4F55545F55333D253078006578748C
:1002940065726E616C204144433D25782C25782C91
:1002A400257800696E747465726E616C20414443F4
:1002B400613D25692C256900696E747465726E61EF
:1002C4006C20414443623D25692C256900424D5010
:1002D40020503D25662C543D25362E336600424D74
:1002E4005020503D25782C543D25780053544154DA
:1002F40055533D25336400002D4E414E000001004E
:100304002D4E414E00494E46000001008130E80167
:1003140001003031EE010100333102030000F89492
:10032400EE27F091CC01F860F093CC01F8EDF4BF26
:10033400E093A200A0918000AD7FA160F4BFA093E0
:10034400800080E090E4A0E0B0E2ED930197E9F74B
:10035400EEE0F3E085919591009761F0A591B59158
:1003640005901590BF01F00105900D920197E1F7FA
:10037400FB01F0CF8BBF8CBFE0E0E0B9E1B9E2B99B
:10038400E3B9E4B9E5B9E6B9E7B9E8B9E9B9EAB96D
:10039400EBB9ECB9EDB9EEB9EFB92E2EE1E03E2E92
:1003A400E0E04E2E5E2E6E2E7E2E8E2E9E2EAE2ED5
:1003B400BE2EDE2EEFEFEDBFEFE5EEBFC0E0D0E3E3
:1003C4000C94FC101A930A93E091E407EE7FE093F7
:1003D400E40710E000E0163188F4103031F0E12F2A
:1003E400F0E0E45BFF4CE0810E0FE12FF0E0E45B12
:1003F400FF4CA0810E948E091F5FEDCF00936230F5
:10040400A09162300E948E09E091E407E160E093DC
:10041400E4070991199108950E94C81811F5A2E002
:10042400B0E0E0EA0E944620A3E0B0E0E0E30E94EE
:100434004620A4E0B0E0E3E30E944620A5E0B0E05B
:10044400E5E30E944620A6E0B0E00E94CE180E9498
:10045400D9180E94E01824F40E94E8186394F9CF94
:1004640099240E94C81809F058C0A8E0B0E0EFEA47
:100474000E944620A9E0B0E0E1E00E944620AAE004
:10048400B0E0E3E60E944620ABE0B0E0E0E60E9484
:100494004620ACE0B0E0E4E60E944620ADE0B0E0E7
:1004A400E0E00E944620AEE0B0E00E944620AFE0CB
:1004B400B0E00E944620A0E1B0E00E944620A1E105
:1004C400B0E00E944620A2E1B0E00E944620A3E1F1
:1004D400B0E00E944620A4E1B0E0E8E90E94462092
:1004E400A5E1B0E0EAE30E944620A6E1B0E0ECED2D
:1004F4000E944620A7E1B0E0E5E00E944620A8E182
:10050400B0E00E9446200E94FD180E94E01824F4E6
:100514000E940B196394F9CF99240E94C818C9F456
:10052400AAE1B0E0EAEA0E944620ABE1B0E0E0E6EE
:100534000E944620ACE1B0E0EAEE0E9420190E943D
:100544002A190E94E01824F40E9431196394F9CF07
:1005540099240E94C818C9F4A6E5B0E0E2EA0E9412
:100564004620A7E5B0E0E1E00E944620A8E5B0E01F
:10057400E0E00E9420190E9446190E94E01824F429
:100584000E944D196394F9CF99240E94C81811F55B
:10059400A9E3B0E0EDEA0E944620AAE3B0E0EAE570
:1005A4000E944620ABE3B0E0E0E00E944620ACE3CA
:1005B400B0E0EAE50E944620ADE3B0E00E94CE1828
:1005C4000E9462190E94E01824F40E94691963943D
:1005D400F9CF99240E94C81809F5A6E7B0E0E6EA25
:1005E4000E944620A7E7B0E0E0E00E944620A8E78A
:1005F400B0E00E944620A9E7B0E0E1E00E94462076
:10060400AAE7B0E00E94CE180E947E190E94E0186A
:1006140024F40E9485196394F9CF99240E94C81880
:1006240009F08CC0AEE1B0E0E1EA0E944620AFE1FF
:10063400B0E0E3E50E944620A0E2B0E0E5E70E94D6
:100644004620A1E2B0E0EEE60E944620A2E2B0E03D
:10065400E0E20E944620A3E2B0E0E3E50E944620E7
:10066400A4E2B0E0E5E60E944620A5E2B0E0E0E7BF
:100674000E944620A6E2B0E0E0E20E944620A7E203
:10068400B0E0E2E30E944620A8E2B0E0E1E30E9489
:100694004620A9E2B0E0E0E20E944620AAE2B0E0EF
:1006A400E2E30E944620ABE2B0E0E3E30E9446208E
:1006B400ACE2B0E0EAE30E944620ADE2B0E0E3E35E
:1006C4000E944620AEE2B0E0E6E30E944620AFE29C
:1006D400B0E0EAE30E944620A0E3B0E0E2E30E9437
:1006E4004620A1E3B0E0E4E30E944620A2E3B0E0A8
:1006F400E0E20E944620A3E3B0E0E2E30E94462049
:10070400A4E3B0E0E0E30E944620A5E3B0E0E1E327
:100714000E944620A6E3B0E0E4E30E944620A7E35B
:10072400B0E0E0E00E9446200E949A190E94E0187E
:1007340024F40E94A8196394F9CF99240E94C8183C
:10074400A1F4AFE3B0E0E7EA0E944620A0E4B0E001
:10075400E2E40E9446200E94BD190E94E01824F49D
:100764000E94CB196394F9CF99240E94C818C9F444
:10077400A2E4B0E0E7E70E944620A3E4B0E0E0E0B2
:100784000E944620A4E4B0E0ECEF0E9420190E94ED
:10079400E0190E94E01824F40E94E7196394F9CF49
:1007A40099240E94C81809F041C0AAE4B0E0EBEA19
:1007B4000E944620ABE4B0E0E5E70E944620ACE4AA
:1007C400B0E0EEE60E944620ADE4B0E0E7E30E942C
:1007D4004620AEE4B0E0E0E30E944620AFE4B0E09F
:1007E400E2E30E944620A0E5B0E0E2E60E94462053
:1007F400A1E5B0E0EEE00E944620A2E5B0E0E4E02E
:100804000E944620A3E5B0E0E4E10E944620A4E56E
:10081400B0E0EEE00E9446200E94FC190E94E0181D
:1008240024F40E940A1A6394F9CF99240E94C818E8
:1008340081F5AAE5B0E0EEEA0E944620ABE5B0E01F
:10084400EFEF0E944620ACE5B0E00E944620ADE503
:10085400B0E00E944620AEE5B0E00E944620AFE53D
:10086400B0E00E944620A0E6B0E00E944620A1E647
:10087400B0E00E944620A2E6B0E00E9446200E941A
:100884001F1A0E94E01824F40E942D1A6394F9CFD1
:1008940099240E94C81829F5AAE6B0E0E4EA0E9467
:1008A4004620ABE6B0E0E0E00E944620ACE6B0E0D3
:1008B400ECEF0E944620ADE6B0E0E8E60E94462058
:1008C400AEE6B0E0E7EF0E9446200E94421A0E9482
:1008D4004A1A0E94E01824F40E94511A6394F9CF32
:1008E40099240E94C81809F5A0E7B0E0E8E50E9441
:1008F4004620A1E7B0E0E0E00E944620A2E7B0E095
:100904000E944620A3E7B0E0E1E00E944620A4E76D
:10091400B0E00E94CE180E94661A0E94E01824F4E7
:100924000E946D1A6394F9CF99240E94C818C1F4E7
:10093400A6E4B0E0E6E70E944620A7E4B0E0EFEFCB
:100944000E944620A8E4B0E00E9420190E94821A66
:100954000E94E01824F40E94891A6394F9CF992420
:100964000E94C81801F5A4E6B0E0EAE60E94462019
:10097400A5E6B0E0E0E00E944620A6E6B0E00E94D2
:100984004620A7E6B0E00E944620A8E6B0E00E9418
:10099400CE180E949E1A0E94E01824F40E94A51A00
:1009A4006394F9CF99240895E5EAE0934C30E0E4A8
:1009B400E0934D30EFE1E0934E30E8E7E0934F30C1
:1009C400E0E0E0935030EBEBE0935130EBE0E09368
:1009D4005230E0E0E0935330EFEFE0935430E0E046
:1009E400E0935530E8E0E0935630EDEAE093573079
:1009F400EDE0E0935830ECEAE0935930EDE0E09319
:100A04005A30E0E1E0935B30E7E2E0935C30E0E011
:100A1400E0935D30E4E0E0935E30E0E0E0935F304B
:100A2400E6E0E0936030E0E0E09361300895E0E0D8
:100A3400E0930406E0930006E0931006E0931106A9
:100A4400E0931206E0931306E0931406E093150670
:100A5400E0931606E0931706E0910906E07FE09321
:100A64000906E0E0E0930A06E0930B06E09324060F
:100A7400E0932006E0933006E0933106E0933206DB
:100A8400E0933306E0933406E0933506E0933606AC
:100A9400E0933706E0912906E07FE0932906E0E041
:100AA400E0932A06E0932B06E8E1E0934406E8EBA2
:100AB400E0934006E0E0E0935006E0935106E093B3
:100AC4005206E0935306E0935406E0935506E093F0
:100AD4005606E0935706E0914906E07FE093490605
:100AE400E0E0E0934A06E0934B06E0E8E093640616
:100AF400E0936006E0E0E0937006E0937106E09313
:100B04007206E0937306E0937406E0937506E0932F
:100B14007606E0937706E0916906E07FE093690644
:100B2400E0E0E0936A06E0936B06E0938406E093CA
:100B34008006E0939006E0939106E0939206E0939A
:100B44009306E0939406E0939506E0939606E0936B
:100B54009706E0918906E07FE0938906E0E0E09360
:100B64008A06E0938B06E093A406E093A006E09344
:100B7400B006E093B106E093B206E093B306E093C7
:100B8400B406E093B606E093B706E091A906E07FC9
:100B9400E093A906E0E0E093AA06E093AB06EFE059
:100BA400E093E407E093E007E0E0E093F007E093EC
:100BB400F107E091E907E07FE093E907E0E0E093E3
:100BC400EA07E093EB070895E8E0E0934506E3E0E5
:100BD400E093A508E091A308E07CE063E093A30818
:100BE400E5EFE093A608ECECE093A708E091A408F5
:100BF400E07EE861E093A40808950E94BA1AB090D8
:100C0400A108A090A008EB2DEC7131F4E22DF0E0E6
:100C1400E050F04DA0822394E0918130F0E0EF3F6A
:100C2400A0E0FA0709F032C2E0910030F0E0EF3FB3
:100C3400A0E0FA0731F40E94C81AEFEFE093003005
:100C440023C2EA3CA0E0FA0721F4EAEC0E94CE1A9F
:100C54001BC2E53FA0E0FA0721F4E5EF0E94CE1A9B
:100C640013C2E53BA0E0FA0739F4E5EBE0938130E9
:100C7400E4E00E94D61A08C2EA3EA0E0FA0721F492
:100C8400EAEE0E94CE1A00C2E53EA0E0FA0739F46B
:100C9400E5EEE0938130E7E00E94D61AF5C1E73E25
:100CA400A0E0FA0739F4E7EEE0938130E7E00E9430
:100CB400D61AEAC1E036A0E0FA0721F4E0E60E9481
:100CC400CE1AE2C1E83EA0E0FA0739F4E8EEE09378
:100CD4008130E3E00E94D61AD7C1E93EA0E0FA07CA
:100CE40039F4E9EEE0938130E3E00E94D61ACCC1F6
:100CF400E03AA0E0FA07D9F40E94DB1A0E94421AF3
:100D04000E94D9180E94E01824F40E94E818639401
:100D1400F9CF6624691440F4A62DB0E0AE5FBF4F4E
:100D24000E94E01A6394F6CF0E94E51AADC1E13A3D
:100D3400A0E0FA07C9F40E94DB1A0E949A190E94E3
:100D4400E01824F40E94A8196394F9CF6624691466
:100D540040F4A62DB0E0A25EBF4F0E94E01A639457
:100D6400F6CF0E94E51A91C1E23AA0E0FA07D9F45D
:100D74000E94DB1A0E94EA1A0E9446190E94E01897
:100D840024F40E944D196394F9CF6624691440F445
:100D9400A62DB0E0AA5ABF4F0E94E01A6394F6CF82
:100DA4000E94E51A72C1E43AA0E0FA07D9F40E945D
:100DB400DB1A0E94421A0E944A1A0E94E01824F484
:100DC4000E94511A6394F9CF6624691440F4A62D45
:100DD400B0E0A659BF4F0E94E01A6394F6CF0E9478
:100DE400E51A53C1E63AA0E0FA07D9F40E94DB1AE7
:100DF4000E94421A0E947E190E94E01824F40E9464
:100E040085196394F9CF6624691440F4A62DB0E0E3
:100E1400AA58BF4F0E94E01A6394F6CF0E94E51AC5
:100E240034C1E73AA0E0FA07C9F40E94DB1A0E9431
:100E3400BD190E94E01824F40E94CB196394F9CFE1
:100E44006624691440F4A62DB0E0A15CBF4F0E9453
:100E5400E01A6394F6CF0E94E51A17C1EA3AA0E0BB
:100E6400FA07D9F40E94DB1A0E94EA1A0E942A198E
:100E74000E94E01824F40E9431196394F9CF662487
:100E8400691440F4A62DB0E0A65EBF4F0E94E01A9C
:100E94006394F6CF0E94E51AF8C0EB3AA0E0FA0793
:100EA400C9F40E94DB1A0E94FC190E94E01824F481
:100EB4000E940A1A6394F9CF6624691440F4A62D9B
:100EC400B0E0A65BBF4F0E94E01A6394F6CF0E9485
:100ED400E51ADBC0ED3AA0E0FA07D9F40E94DB1A68
:100EE4000E94421A0E9462190E94E01824F40E948F
:100EF40069196394F9CF6624691440F4A62DB0E00F
:100F0400A75CBF4F0E94E01A6394F6CF0E94E51AD3
:100F1400BCC0EE3AA0E0FA07C9F40E94DB1A0E94B2
:100F24001F1A0E94E01824F40E942D1A6394F9CF2A
:100F34006624691440F4A62DB0E0A65ABF4F0E945F
:100F4400E01A6394F6CF0E94E51A9FC0EF3AA0E03E
:100F5400FA07C9F40E94DB1A0E94FD180E94E018E7
:100F640024F40E940B196394F9CF6624691440F4A5
:100F7400A62DB0E0A85FBF4F0E94E01A6394F6CF9D
:100F84000E94E51A82C0E835A0E0FA07D9F40E946D
:100F9400DB1A0E94421A0E94661A0E94E01824F486
:100FA4000E946D1A6394F9CF6624691440F4A62D47
:100FB400B0E0A059BF4F0E94E01A6394F6CF0E949C
:100FC400E51A63C0EA36A0E0FA07D9F40E94DB1AF6
:100FD4000E94421A0E949E1A0E94E01824F40E9461
:100FE400A51A6394F9CF6624691440F4A62DB0E0E1
:100FF400AC59BF4F0E94E01A6394F6CF0E94E51AE1
:1010040044C0E637A0E0FA07D9F40E94DB1A0E9434
:10101400EA1A0E94821A0E94E01824F40E94891A93
:101024006394F9CF6624691440F4A62DB0E0AA5B5A
:10103400BF4F0E94E01A6394F6CF0E94E51A25C0C0
:10104400E737A0E0FA07D9F40E94DB1A0E94EA1AF3
:101054000E94E0190E94E01824F40E94E7196394A6
:10106400F9CF6624691440F4A62DB0E0AE5BBF4FFF
:101074000E94E01A6394F6CF0E94E51A06C0EFEFCF
:10108400E09300300E94C81A222404C0EA3CA0E085
:10109400FA0731F5E2E0E21511F5A0910030A13034
:1010A40021F4A0910130A13009F003C00E94F21A8A
:1010B40010C0A0910030AF3021F4A0910130AF30C6
:1010C40009F007C00E94F21A0E94C81AE1E0DE2E5D
:1010D40005C0EFEFE0938130E1E03E2E22241BC1F6
:1010E400E53FA0E0FA0711F5E2E0E215F1F4A09182
:1010F4000030AF3521F4A0910130AF3509F012C0B2
:10110400A5EF0AD1A5EF08D1A5EF0E94F81A222471
:10111400A5E0B0E00E94381DE8EDE4BFE1E0E09313
:10112400790003C00E94C81A2224F5C0E53BA0E060
:10113400FA0749F5E4E0E21529F566248824E3E09A
:101144006E1620F40E94FB1A6394F9CFA091033029
:101154008A16A9F4E0910030E87019F0E0910030AB
:10116400E870E0910030E470E0910030E470A5EBA9
:10117400D3D0A5EB0E94F81A2224882403C00E942D
:10118400C81A2224C8C0EA3EA0E0FA07E1F4E2E06B
:10119400E215C1F466248824E1E06E1620F40E946E
:1011A400FB1A6394F9CFA09101308A1641F4AAEE98
:1011B400B3D0AAEE0E94F81A2224882403C00E9405
:1011C400C81A2224A8C0E036A0E0FA07F1F4E2E04D
:1011D400E215D1F466248824E1E06E1620F40E941E
:1011E400FB1A6394F9CFA09101308A1651F4A0E65A
:1011F40093D0A0E091D0A0E00E94F81A2224882481
:1012040003C00E94C81A222486C0E53EA0E0FA0763
:10121400E1F4E7E0E215C1F466248824E6E06E1602
:1012240020F40E94FB1A6394F9CFA09106308A1629
:1012340041F4A5EE71D0A5EE0E94F81A2224882468
:1012440003C00E94C81A222466C0E73EA0E0FA0741
:10125400E1F4E7E0E215C1F466248824E6E06E16C2
:1012640020F40E94FB1A6394F9CFA09106308A16E9
:1012740041F4A7EE51D0A7EE0E94F81A2224882444
:1012840003C00E94C81A222446C0E83EA0E0FA0720
:10129400E1F4E3E0E215C1F466248824E2E06E168A
:1012A40020F40E94FB1A6394F9CFA09102308A16AD
:1012B40041F4A8EE31D0A8EE0E94F81A2224882422
:1012C40003C00E94C81A222426C0E93EA0E0FA07FF
:1012D400E1F4E3E0E215C1F466248824E2E06E164A
:1012E40020F40E94FB1A6394F9CFA09102308A166D
:1012F40041F4A9EE11D0A9EE0E94F81A2224882400
:1013040003C00E94C81A222406C0EFEFE093003005
:101314000E94C81A222472C1AA93E091A108E07223
:10132400E1F3E881E093A0083EC1E0E8E0936506BC
:10133400E3E0E093B509E091B309E07CE093B309FD
:10134400EEE6E093B609E8EAE093B709E091B40960
:10135400E07EE860E093B4090895AA93E091B109AE
:10136400E072E1F3E881E093B0091DC11A9310E043
:10137400AEE2B0E30E949516A12FB0E0AE17BF070E
:1013840040F4E12FF0E0E25DFF4CA081E6DF1F5F57
:10139400EFCF0E94021BE0E0EA93AEE1B0E00E94CE
:1013A4007816AAE0DADFADE0D8DFE8C0BA93AA93F2
:1013B400A881B981EC91E07FEC931996ECE0EC9371
:1013C400229608951A930A931FB7F894E09100089F
:1013D400E07FE560E0930008E0910108E870E093A5
:1013E4000108E0910308E071E0930308E091060826
:1013F400E07FE160E0930608E0910708E070E09385
:101404000708E0919900EE7F0E2FE8EDE4BF00930A
:101414009900E0918008E07CE0938008E0918308E3
:10142400E87EE0938308E0E0E0938208A4E8B8E073
:101434000A2EAC91E0918408E470EA2BA02DEC9381
:10144400E0910C08E0930C08E0E0F0E0E093200861
:10145400F0932108E1E1FAE7E0932608F0932708E6
:10146400E0E0F0E0E0932808F0932908E0932A08EC
:10147400F0932B08E0932C08F0932D08E0932E08AA
:10148400F0932F081FBF59C51A931FB7F894A0E40F
:10149400B8E08CDFE5E0E0934008E0E0E093410849
:1014A400E0934308E0934408E0914608E07FE1605C
:1014B400E0934608E0E0E0934708E0919008ED7F70
:1014C400E0939008E0914C08E0934C08E0E0F0E0F1
:1014D400E0936008F0936108E7EAF1E6E0936608B8
:1014E400F0936708E0E0F0E0E0936808F09369089F
:1014F400E0936A08F0936B0840C01A931FB7F894FE
:10150400E0910009E07FE160E0930009E0910109C6
:10151400E870E0930109E0910309E071E0930309A5
:10152400E0910609E07FE160E0930609E091070994
:10153400E070E0930709E0910C09E0930C09E0E006
:10154400F0E0E0932009F0932109EFE3F6EAE09359
:101554002609F0932709E0E0F0E0E0932809F093EE
:101564002909E0932A09F0932B09E0932C09F093BD
:101574002D09E0932E09F0932F091FBF19910895A7
:10158400E3E5E093C008E091C108EC7FE093C10873
:101594000895AA93E881E093C308E091C208E07833
:1015A400E1F3E091C30821960895E0EAF4E0FA93A8
:1015B400EA93E0E0EA93A0E00E94AE160E94071BC3
:1015C400E0EAF4E0FA93EA93E0E4EA93ABE90E94F8
:1015D400C316E0E0E093A80408950A921A92FA92DE
:1015E4006A937A938A939A93AA93BA93EA93FA930F
:1015F400EFB7EA93A2E8B0E30E94EE16E991EFBFD9
:10160400F991E991B991A991999189917991699106
:10161400F990199009901895E6EFE0930C31E7EFF3
:10162400E0930D31E4EFE0930A31EEE2E0930B3105
:10163400E6EFE0931231E7EFE0931331E8EFE09344
:101644001431E4EFE0931031E091A830E295E07FAB
:10165400EE0FEE0FEC5CE0931131EAEAE093DE303A
:10166400EBEAE093DF30ECEAE093E030EDEAE0937C
:10167400E130EEEAE093E230EFEAE093E330E0EBCE
:10168400E093E430E1EBE093E530E2EBE093E63025
:10169400E3EBE093E730E4EBE093E830E5EBE09351
:1016A400E930E6EBE093EA30E7EBE093EB30E8EB8C
:1016B400E093EC30E9EBE093ED30EAEBE093EE30CD
:1016C400EBEBE093EF30ECEBE093F030EDEBE093F9
:1016D400F130EEEBE093F230EFEBE093F33008956A
:1016E4009BDF0E94071BE7E7EA93EEEDF0E30E941D
:1016F4000C1BE4EFF0E30E94111BE7E7EA93E0EE32
:10170400F0E30E940C1BE6EFF0E30E94111BE7E7F5
:10171400EA93E2EEF0E30E940C1BE8EFF0E30E9490
:10172400111BE7E7EA93E4EEF0E30E940C1BEAEFF7
:10173400F0E30E94111BE7E7EA93E6EEF0E30E9470
:101744000C1BECEFF0E30E94111BE7E7EA93E8EED1
:10175400F0E30E940C1BEEEFF0E30E94111BE7E79D
:10176400EA93EAEEF0E30E940C1BE0E0F1E30E944E
:10177400111BE7E7EA93ECEEF0E30E940C1BE2E0B6
:10178400F1E30E94111BE7E7EA93EEEEF0E30E9417
:101794000C1BE4E0F1E30E94111BE7E7EA93E0EF9E
:1017A400F0E30E940C1BE6E0F1E30E94111BE7E763
:1017B400EA93E2EFF0E30E940C1BE8E0F1E3FA9312
:1017C400EA93A2E00E947617B091F430A0E0E09191
:1017D400F530F0E0EA0FFB1FE0938E30F0938F308A
:1017E400F091F630E0E0DF01E091F730F0E0EA0F4D
:1017F400FB1FE0939030F0939130F091F830E0E0EB
:10180400DF01E091F930F0E0EA0FFB1FE093923042
:10181400F0939330F091FA30E0E0DF01E091FB3097
:10182400F0E0EA0FFB1FE0939430F0939530F091D1
:10183400FC30E0E0DF01E091FD30F0E0EA0FFB1F57
:10184400E0939630F0939730F091FE30E0E0DF01C2
:10185400E091FF30F0E0EA0FFB1FE0939830F09343
:101864009930F0910031E0E0DF01E0910131F0E0E6
:10187400EA0FFB1FE0939A30F0939B30F091023112
:10188400E0E0DF01E0910331F0E0EA0FFB1FE093B9
:101894009C30F0939D30F0910431E0E0DF01E09161
:1018A4000531F0E0EA0FFB1FE0939E30F0939F3088
:1018B400F0910631E0E0DF01E0910731F0E0EA0F5A
:1018C400FB1FE093A030F093A130F0910831E0E0E9
:1018D400DF01E0910931F0E0EA0FFB1FE093A23051
:1018E400F093A33008950E94071BE7E7EA93EAE028
:1018F400F1E30E940C1B0E94171BE7E7EA93ECE05C
:10190400F1E30E940C1BEEE0F1E30E94111BE7E7F8
:10191400EA93E0E1F1E30E940C1B0E94171BE7E746
:10192400EA93E2E1F1E30E941F1BE5E1F1E30E9487
:10193400241BE7E7EA93E3E1F1E30E941F1BE6E1DE
:10194400F1E30E94241BE7E7EA93E4E1F1E30E9458
:101954001F1BE7E1F1E3FA93EA93A1E00E947617F3
:10196400B0910E31A0E0E0910F310E942A1BE09368
:10197400A430F093A5306093A6307093A730A09163
:101984001531BB27E091A830E85F0E940B1F0E942D
:101994006D1F0E94301BA091AD30AA2332F40E9427
:1019A400391B0E94031F0E94301BA0911631B0E026
:1019B400E091A8300E940B1FA091AA30B091AB30E7
:1019C4008091AC309091AD300E94421B7F936F9315
:1019D400FF93EF93009017311124A091A830E8E011
:1019E400EA1BD0010E94141FAF91BF918F919F9168
:1019F4000E94421B0E94301BE0919830F091993074
:101A0400A091A430B091A5308091A6309091A730D8
:101A1400662777270E94FE1EE0919630F09197305A
:101A2400662777270E94471B0E944F1BA091A03076
:101A3400B091A1300E94721FEBE00E94261F7F9399
:101A44006F93FF93EF93E091A230F091A3300E9443
:101A5400581B0E94421BAF91BF918F919F910E948E
:101A6400D91F0E94611BE093B630F093B7306093A6
:101A7400B8307093B9300E946D1BE85FFF4F6F4F11
:101A84007F4FDF01CB01E4E00E94321FE093BA30C4
:101A9400F093BB306093BC307093BD300E94761BD2
:101AA4000E94AE1DDF01CB010E947F1B0E94861E97
:101AB400E093D630F093D7306093D8307093D93018
:101AC4000E946D1BE05AFF4060407040E093BE30BE
:101AD400F093BF306093C0307093C1300E94841B78
:101AE4000E948D1BA0919C30B0919D300E94981B48
:101AF400ECE00E94321FDF01CB01EBE00E949F1B50
:101B0400A0919030B09191300E94981BEBE00E941C
:101B1400321F0E94611B0E94A31BE0918E30F09142
:101B24008F300E944C1FDF010E94AC1B0E94721F69
:101B34000E94F41EE091A8300E94261F0E94B51B4B
:101B4400E093C630F093C7306093C8307093C930C7
:101B54000E94841BA0919230B09193300E94981BF4
:101B6400EDE00E949F1B0E948D1BDF01CB01ECE086
:101B74000E94321FA0919A30B0919B300E94721F34
:101B84000E94BE1B0E94611B0E94B51B0E94A31BE6
:101B94000E94AC1BE050F0486F4F7F4FA0919430EF
:101BA400B0919530882799270E94471BE093D23043
:101BB400F093D3306093D4307093D530A091C63075
:101BC400B091C7308091C8309091C9300E94391BC0
:101BD4000E94F91E7F936F93FF93EF93E091A830D7
:101BE400A0E5B3EC0E941D1FAF91BF918F919F910F
:101BF400662777270E947C1FE093CA30F093CB308E
:101C04006093CC307093CD300E94C31BA030E0E0D1
:101C1400BE07E0E08E07E0E89E0788F4E091CA3052
:101C2400F091CB306091CC307091CD300E94561F32
:101C3400DF01CB010E94CC1B0E94B41F08C00E948C
:101C4400CC1B0E94C31B0E94B41F0E94561FE0932A
:101C5400CE30F093CF306093D0307093D1300E9467
:101C6400D51B7F936F93FF93EF930E94D51BAF9186
:101C7400BF918F919F910E949C1F0E944F1BE091E6
:101C8400AE30F091AF306091B0307091B130AEEDC4
:101C9400BBE080E090E00E94BE1B0E944F1B0E94AC
:101CA400E11BA3E4B3EE8FEF9FEF0E94BE1B0E94E3
:101CB400611BE153F14F6F4F7F4FDF01CB01E4E034
:101CC4000E94321F0E94EA1B0E94EF1EE093CE3056
:101CD400F093CF306093D0307093D1300E94E11BE9
:101CE4000E94AE1DDF01CB01EFE6F2E565E073E48F
:101CF4000E94861EE093DA30F093DB306093DC3090
:101D04007093DD300895E2E0E0931E31E0E0E0936B
:101D14001F310E94071BE8E1EA93EEE1F1E30E9420
:101D24000C1B0E94F31B0E947617E3E0E0931C3126
:101D3400E2E3E0931D310E94071BE8E1EA93ECE142
:101D4400F1E30E940C1B0E94F31B72C0E0E0E093DD
:101D540018310E94071BE8E1EA93E8E1F1E30E94ED
:101D64001F1BE9E1F1E361C0E2E0E0932631E0E02A
:101D7400E09327310E94071BE9E1EA93E6E2F1E3ED
:101D84000E940C1B0E94F31B0E947617E3E0E09371
:101D94002431E8E9E09325310E94071BE9E1EA9345
:101DA400E4E2F1E30E940C1B0E94F31B41C0E0E05B
:101DB400E09320310E94071BE9E1EA93E0E2F1E3BA
:101DC4000E941F1BE1E2F1E330C0E2E0E0932E3118
:101DD400E0E0E0932F310E94071BEAE1EA93EEE290
:101DE400F1E30E940C1B0E94F31B0E947617E3E0B0
:101DF400E0932C31E0E4E0932D310E94071BEAE1EB
:101E0400EA93ECE2F1E30E940C1B0E94F31B10C066
:101E1400E0E0E09328310E94071BEAE1EA93E8E25C
:101E2400F1E30E941F1BE9E2F1E3FA93EA93A1E0D4
:101E34000E9476170895AA93E0E1E0934606AB81E9
:101E4400A8DBAA81A6DBA981A4DBA881A2DBE0919F
:101E54004806ED6FEF3FD9F3E0E1E09345062496A1
:101E64000895AA930E947620E0913031AC81EA175C
:101E740029F0A13011F0A23009F401C010C0AC81E6
:101E8400A13011F40E94F91BAC81A23041F4E1E2CB
:101E9400EA93ECE0EA93E1E1EA93A0E4CCDFEC819D
:101EA400E0933031E0914806ED6FEF3FD9F3E0E184
:101EB400E09346068BE68A95F1F7A8E36ADBAFEF79
:101EC40068DB0E2F1127AFEF64DB2E2F3327E0E101
:101ED400E0934506F02FE0E0E22BF32BE4C01A93E5
:101EE4000A930FB7F894E0915000E260E093500039
:101EF400E0914100E0781E2FE8EDE4BF109341002B
:101F0400E0916000EE7FE0936000E0915100E270A8
:101F1400E1F3E0914000E87FE1601E2FE8EDE4BFCB
:101F240010934000E0915000E27EE0935000E09175
:101F3400B400EC7FE093B4000FBF099119910895A8
:101F4400AA931A93E2E0E093CA01E981F0E01491C4
:101F5400E0E0E093CA01E12F188122960895A0E2FF
:101F6400EFDFE0930C02A1E2EBDFE0930D02E0E08F
:101F7400E0930102E3E0E0930402E1E1E093020272
:101F8400E0E0E0931802E0931902E1E0E09320021C
:101F9400E0E2E0932102E1E0E0932802E8E2E0934A
:101FA4002902E1E0E0933002E0E3E0933102E1E072
:101FB400E0933802E8E3E0933902E0E0E0930302BF
:101FC400E0932202E0932A02E0933202E0933A0281
:101FD400E0910002E160E09300024CC0AA930E94E9
:101FE4007620EC81F0E0A0E2B2E00E94021CF8014D
:101FF400A381A170E1F34FC0A4E2A2DFE0934C02FD
:10200400A5E29EDFE0934D02E0E0E0934102E3E0CD
:10201400E0934402E0E1E0934202E0E0E0935802FE
:10202400E0935902E1E0E0936002E0E0E0936102B2
:10203400E1E0E0936802E8E0E0936902E1E0E09324
:102044007002E0E1E0937102E1E0E0937802E8E1FC
:10205400E0937902E0E0E0934302E0936202E093CC
:102064006A02E0937202E0937A02E0914002E16036
:10207400E093400285E18A95F1F70895AA930E94BE
:102084007620EC81F0E0A0E6B2E00E94021CF801A8
:10209400A381A170E1F3D8011396E1E0EC93F80178
:1020A40024813581F9010E947D20259608950E949E
:1020B400BA1ADD2021F0A0918130AF3F09F006C0AB
:1020C4000E94E401A1E0B0E00E94381D84C00E9497
:1020D400BA1A0E940C1CA1E0C4DEE0933131F093E3
:1020E4003231E0913131F0913231E050F048E093F7
:1020F4003131F0933231E0913131E0935330E0915A
:102104003131F09132310E945B1FE09354300E94D0
:10211400121C7724E4E07E1630F5E72DA6E2B0E346
:10212400F0E0EE0FFF1FEA0FFB1FFF93EF93A72DC5
:1021340055DFE659F040AF91BF91ED93FC93E72D45
:10214400AEE1B0E3F0E0EE0FFF1FEA0FFB1FFF93D9
:10215400EF93A72D93DFE659F040AF91BF91ED9334
:10216400FC937394D7CFE0911E30E0934D30E0910F
:102174001F30E0934E30E0912030E0935130E091F5
:102184002130E0935230E0912230E0934F30E091DF
:102194002330E0935030E0912430E0935930E091C3
:1021A4002530E0935A30E0912630E0935D30E091A1
:1021B4002730E0935E30E0912830E0935F30E09187
:1021C4002930E0936030E0912A30E0935530E0917B
:1021D4002B30E0935630E991EFBFF991E991B99131
:1021E400A9919991899179916991F990199009909E
:1021F40018951895F894E091A200E873E7601E2FF3
:10220400E8EDE4BF1093A200E0E0E093A10067DEF4
:102214000E941905E0918006E061E0938006E09158
:102224008406E061E09384069ADEE6DE0E94E60519
:102234000E949709A5D9B9D9A4E6B0E00E94381D37
:1022440078940E94D6040E94021BE0EFF1E00E9401
:10225400181C0E94021BEDEFF1E00E94181C53DDD4
:1022640083DDB3DD0E94021BE7E0F2E00E94181C4C
:1022740037DA0E94021BE8E1F2E00E94181C0E9477
:10228400021BE9E2F2E0FA93EA9380E0FBD424969D
:102294000E94B8090E94241CE0930106E1E0E09347
:1022A40005060E94241CE09306060E94241CE09369
:1022B4000506A2E3B0E00E94381D0E94F91B0E94AB
:1022C400021BE3E3F2E00E94181C0E947F0A0E94B2
:1022D400E4090E94460AE0918406EF7EE0938406B6
:1022E4000E94021BE3E4F2E00E94181C0E940E020A
:1022F400E0E0E0931931E0932131E09329310E9429
:10230400C81829F4A1E0B0E0E0E00E944620A1E072
:10231400B0E00E943D20E23308F08DC1A1E0B0E0BE
:102324000E943D20EF5F0E9446200E940C1C0EDD9F
:102334003EDD6EDD0E94121CE0912131E078E03830
:1023440021F4E0916130E26007C0E0912131E0784E
:1023540029F4E0916130ED7FE0936130E09119312F
:10236400E071E03121F4E0916130E46007C0E09174
:102374001931E07129F4E0916130EB7FE093613031
:10238400E0911931E072E03221F4E0916130E860CB
:1023940007C0E0911931E07229F4E0916130E77FE0
:1023A400E0936130E0911931E17021F0E091613006
:1023B400E06107C0E0911931E07029F0E0916130EB
:1023C400EF7EE0936130E0912131E17021F0E09102
:1023D4006130E06207C0E0912131E07029F0E091C2
:1023E4006130EF7DE0936130E0912131E071E031C3
:1023F40021F4E0916130E06407C0E0912131E071A3
:1024040029F4E0916130EF7BE0936130E091293170
:10241400E17021F0E0916130E06807C0E09129317A
:10242400E07029F0E0916130EF77E09361300E9431
:10243400021BEFE4F2E0FA93EA93E09119310E946F
:102444002A1CE0911B310E942A1C0E94301CE7E6E2
:10245400F2E0FA93EA93E09121310E942A1CE09180
:1024640023310E942A1C0E94301CECE7F2E0FA930C
:10247400EA93E09129310E942A1CE0912B310E94B9
:102484002A1C0E94301CE1E9F2E0FA93EA93E091FD
:102494003131F09132310E946D1F0E942620E0916B
:1024A40054300E942A1CE09153300E942A1C8CE074
:1024B400E9D360960E94B8090E94021BE7EAF2E0A1
:1024C400FA93EA93E0912630F09127300E94371C6A
:1024D400E0912830F09129300E94371C0E94301C72
:1024E400E7EAF2E0FA93EA93E0912A30F0912B3094
:1024F4000E94371CE0912C30F0912D300E94371C43
:102504000E94301CECEBF2E0FA93EA93E0911E3067
:10251400F0911F300E94371CE0912030F09121305F
:102524000E94371C0E94301CECEBF2E0FA93EA9311
:10253400E0912230F09123300E94371CE091243046
:10254400F09125300E94371C0E943C1C0E94121CF2
:10255400CAD90E940C1C0E94021BE1EDF2E0FA931E
:10256400EA93E091DA30F091DB306091DC307091E5
:10257400DD300E942620E091D630F091D730609172
:10258400D8307091D9300E9426200E943C1CE091E2
:10259400BA30AAE0EA02F001E09357300E94761BB9
:1025A400AAE0B0E080E090E00E949C1FDF01CB0134
:1025B400E8E00E94321FE09358300E94421CE093EE
:1025C4005B300E94421CDF01CB01E8E00E94321F15
:1025D400E0935C300E940C1C86D90E94121C0E945D
:1025E400021BE2EEF2E0FA93EA93B0915C30A0E0D1
:1025F400E0915B300E942A1B0E942620B091583043
:10260400A0E0E09157300E942A1B0E9426200E94DD
:10261400301CE0EFF2E0FA93EA93E09161300E941B
:102624002A1C84E02FD328960E94B809AAE0B0E0BF
:102634000E94381D7ACEFFCFBA93AA931A930A93B5
:10264400AA81BB8112960E940D20309729F1AA819C
:10265400BB8114960E940D208F01309761F00230E7
:10266400E0E01E0780F0F80131978F01AA81BB8159
:102674001496ED93FC93AA81BB8112960E944A1C86
:102684003197AC81A083AA81BB810E940D20FF23D6
:1026940012F00E944A1C06C0AA81BB81EFEFFFEF33
:1026A400ED93FC93198108810C94C1160E94501C6F
:1026B400E0E8EA83EFE3EB830E947620EE85FF8572
:1026C400EF3FAFEFFA0749F4E885F985FA93EA9307
:1026D400ACEFB2E00E948816B7C0EF3FAFE7FA074D
:1026E40049F4E885F985FA93EA93ADEFB2E00E94E4
:1026F4008816AAC0AB85A73010F0E6E0EB871B85EF
:10270400E12F1150E03019F00E94571CF9CFEC85ED
:10271400FD856E857F850E94702021F430E00E9443
:10272400571C2DC03B850E94631C09F008F40BC0A4
:102734000E94571C0E94631C28F00E946E1C0E9479
:10274400731CF8CF0DC00E94631C40F40E946E1CE1
:102754000E947F1C0E94831C3150F5CF0E94571C9D
:10276400EC85FD856E857F850E94881C0E94831CF4
:102774000E94631C20F00E946E1C0E94731C10E0D7
:10278400EB85E117A8F1AC81BD818E819F810E9408
:102794008F1C0E94881CDF01CB010E941018EC835F
:1027A400FD836E837F830E946E1C0E94861E0E949E
:1027B400751D0E2F0E94961C0E949D1CFF276627E4
:1027C40077270E94AE1DAC81BD818E819F810E94BE
:1027D400381E0E946E1C0E94A21C0E94831CE12FC2
:1027E4001F5FE03069F60E94961CEEE2EC93C8CFBE
:1027F4000E94A71C3197AA85A08330302CF4319510
:10280400A885B985EDE203C0A885B985EBE2EC9310
:102814000E94A71C0E94A71C3197BF01A32FEAE0C6
:102824000E94AF1FE05DDB01EC930E94A71C31976F
:10283400BF01A32FEAE00E94DE1FE05DDB01EC9301
:10284400A885B985E0E0EC930E947D206096089508
:10285400BA93AA93EF9761970E94742010E0FE0147
:10286400E85AFF4F0190F081E02DE887F987FE01D7
:10287400EA5AFF4F0190F081E02DEE83FF83AE8191
:10288400BF81E0E0F0E0ED93FC93DE01A45ABF4F7A
:102894000E944A1C3197E4912E2FE03009F4E9C1DB
:1028A400E12FE03039F4253211F411E002C00E9426
:1028B400AD1CDEC1E130C1F4253219F40E94AD1C17
:1028C400D6C112E0E0E0ED8B00E02D3211F401E01E
:1028D400CFC12B3219F4EBE2ED8BCAC1203219F4CB
:1028E400E0E2ED8BC5C102C0E23039F450E013E000
:1028F400203311F40068BCC102C0E33091F42033EA
:1029040010F02A3308F007C0AAE05A9F502DE22F96
:10291400E0535E0FADC140E02E3211F414E0A8C1C3
:102924000FC0E43099F4203310F02A3308F008C0C3
:102934000062AAE04A9F402DE22FE0534E0F98C157
:102944002C3619F4026015E093C103C0E53009F098
:102954008FC1E22FE33659F40E94B41C0E94BB1CC1
:102964000E94B41CA481AA930E94C21C80C1E534B5
:1029740011F0E53609F403C0E63609F048C0FE015B
:102984007696EE87FF870E94C81C0E9411200E9441
:10299400CF1C0E94D41CAD85AA2332F0AD89AB3282
:1029A40059F0A03281F017C00E94D61C0E94421D2B
:1029B4000E94CF1CEDE2ED8B07FF05C0ED89EA9381
:1029C4000E94C21C08C0EE85FF853196EE87FF8702
:1029D4003197AD89A08305FF46E0263651F40E9465
:1029E400D61C0E9426204A93AB89BC890E942718D2
:1029F40009C00E94D61C0E9426204A932A93AC89BF
:102A0400BD8954DEFE0176960E94DB1C1EC0E337AE
:102A140039F40E94D41C0E94E31C0E94DB1C0EC0EB
:102A2400E037C1F40E94D41C0E94E31CEE87FF87A8
:102A3400AE85BF850E94A1161E2F08600F77403017
:102A440011F0411708F001C0142F40E0E0E0EC8BD6
:102A540030E06DC0E43611F0E93611F4046002C0D0
:102A6400E537A1F4EAE0EC8B01FF08C0E0E0FAEC02
:102A74006AE97BE30E94E81C1AE022C0E0E1F7E285
:102A840060E070E00E94E81C15E01AC0E83511F41B
:102A9400086003C0E83709F0EAC0E0E1EC8B01FF0D
:102AA40008C0E0E0F0E060E070E10E94E81C18E09B
:102AB40007C0E0E0F0E160E070E00E94E81C14E090
:102AC400403011F00F7701C041E001FF08C00E94BF
:102AD400D41C0E94C81C14960E9411200FC002FF2F
:102AE40007C00E94D41C0E94E31C0E946D1F06C0F4
:102AF4000E94D41C0E94E31C66277727EA87FB8781
:102B04006C877D8702FF12C0AD85AA2342F40E9420
:102B1400D61C0E94031F0E94CF1CEDE2ED8BED89B1
:102B2400E03019F01F5F4F5F01C00B7F342F00FDB1
:102B340014C0151710F4351708F00FC007FF08C0AC
:102B440002FF04C00B7F2D89115001C020E301C096
:102B540020E20E94AD1C5150ECCF141790F4006198
:102B640002FF06C00E94ED1C09F051501150415063
:102B7400E0E3EA930E94C21C503009F051504150E6
:102B8400ECCF312FEC89E030B9F43030A1F003FF01
:102B940006C0EE85FF852591EE87FF8705C0AE85CB
:102BA400BF852D91AE87BF870E94AD1C503009F0C0
:102BB40051503150EACF51C00E94FF1C0E94B41FF3
:102BC4002E2F2A3030F003FF02C0295C01C0295A9D
:102BD40001C0205D04FD21C0213360F4A889B989B6
:102BE4008A899B89A130E0E0BE07E0E08E07E0E03F
:102BF4009E0709F40BC0431740F4531710F000FF6D
:102C040001C010C020E207FF08C020E3006102FFFA
:102C140004C00E94ED1C09F051500E94AD1C5030BC
:102C240009F0515031500E94FF1C0E94EA1F0E947B
:102C3400CF1CEC89A889B9898A899B89FF276627D3
:102C440077270E94B41F0E94E81CE889F9896A89E1
:102C54007B890E94702009F0AFCF00FF08C050307C
:102C640031F05150E0E2EA930E94C21CF8CF10E028
:102C74000CCEAE81BF810E940D200E947B20EF9676
:102C84006F960895FF92F82E26970E9476200E9450
:102C9400081D309719F4EFEFFFEF23C0DE011696FD
:102CA4000E94EB1E8D010E94081DEE83FF83E0E06D
:102CB400E887E987DE011A960E94EB1E0E940D2028
:102CC400FA93EA931A930A93EEE1F3E1FA93EA93FF
:102CD400DE011A96BDDD9F01AE81BF81E0E0EC9379
:102CE400F9010E947D202A96FF900895BA93AA9331
:102CF400B981A881109631F0FC81EB816A816193DE
:102D04001197E9F7EB81FC810C94C116BA93AA934D
:102D1400E991F991A991B991CD0105900D92002005
:102D2400E1F7FC010895BA93AA93A991B991EE270A
:102D3400FF276D91662311F03196FBCF0895BA9366
:102D4400AA93AA27BB27E991F9910590002011F0D5
:102D54001196FBCFFD010895AA931A93AB81BC8110
:102D6400EC91EC7F1E2FEA81E03009F01160E981DB
:102D7400E03009F01260AB81BC811C931881259668
:102D84000895AA93E981E863AA81BB811196EC9323
:102D9400EA81FB813296A0E0A083E881AA81BB810D
:102DA4001596EC93EA81FB813496A1E0A083EA8135
:102DB400FB81AC81BD81ED93FC93AC81BD81159603
:102DC400E0E0EC93AC81BD811996EC93AC81BD81BC
:102DD4001B96EC9326960895BA93AA9322970E9481
:102DE4007420A885B9850D911C91F801348133961E
:102DF400AF0133FF02C023E003C032FF04C024E06C
:102E0400F801348309C0F8013796EE83FF8336FF57
:102E140032C034FF05C025E0DA01E3E0EC935BC087
:102E2400E885F9852681E5812E1798F4E885F985EA
:102E3400A381B481E22F2F5FF0E0AE0FBF1FEC91AE
:102E4400AE81BF81EC93E22FA885B9851696EC93E9
:102E540047C0E885F985A285E185AE1748F4E88581
:102E6400F985A281E1E0EA2BD8011696EC9338C0EB
:102E7400DA01E3E02CC037FF2DC0E885F98522850F
:102E8400E1852E1728F0DA01E3E0EC9322E023C079
:102E9400E885F985A781B085E22F2F5FF0E0EA0F7E
:102EA400FB1F0F01AE81BF81EC91D001EC93E22FA7
:102EB400A885B9851A96EC93E885F985E1852E17DE
:102EC40020F4DA01E2E0EC930BC0DA01E7E0EC93E2
:102ED40021E001C026E0E22FA885B9851B96EC937A
:102EE4000E947B202A960895AA931A930A93E9854F
:102EF400FA85A385A07809F05BC0A985BA851B96DD
:102F0400E0E8EC93E885EE0FE887A985BA85129688
:102F1400EC93EE81FF81A985BA851396ED93FC931A
:102F2400ED81A985BA851596EC93A985BA8516967F
:102F3400E0E0EC93EB81FC81A985BA851796ED93CB
:102F4400FC93EA81A985BA851996EC93A985BA857B
:102F54001A96E0E0EC93A985BA850E940D20369676
:102F64008F01ED81E03079F0EE81FF81309701F13E
:102F7400EA81E03021F0AB81BC81109709F001C0F7
:102F840017C0E88509C0EA81E03041F0EB81FC819B
:102F9400309771F0E885E160D801EC93E985FA8512
:102FA400A385A078D9F7A385E1E00E94771F01C02B
:102FB400E0E0198108812B9608950E942B207B81E3
:102FC4006A81F981E88177FB770F67FD7160972F3C
:102FD4009E5781F078F0983190F4AA27BB27882770
:102FE40008948795B795A7959A95D1F7EA23FB237B
:102FF400682305C0E8947727EE27FF2766276F77B5
:10300400769508F4606877F9A991B99189919991B5
:10301400EA17FB076807790797FB08950E942B209E
:103024000E941C200E94DF170E94212019F40E9494
:10303400172009C0E6F70E941720A0E0B0E080E85E
:103044009FE30E94E11D2496089528D4E0E0EA83DA
:10305400EFE3EB831A930A93EB85FC85EF3FAFEF25
:10306400FA0731F4DAD4A4E0B3E00E9488168AC0E7
:10307400EF3FAFE7FA0731F4D0D4A5E0B3E00E9404
:10308400881680C0AC85AA2352F4E985FA856B853D
:103094007C850E94421DC6D4CAD4EDE2EC93A88577
:1030A400A73010F0E6E0E8871885E12F1150E030F2
:1030B40021F0C4D432D4C7D4F8CFCAD40E94E81DB6
:1030C400B1D410E0E0E0F0E060E87FE3BCD4C0D429
:1030D4000E94CB1E68F0B2D410D4B5D41F5F17324F
:1030E40030F09BD4A9E0B3E00E9488164BC0EFCF28
:1030F400103021F49CD4E0E3EC9320C0E12F115074
:10310400E030E1F09BD409D401D4DF01CB010E946B
:10311400101899D49DD40E94861E0E94751D0E2FEE
:1031240086D409D4F0E08AD40E946D1F0E94AE1D9B
:103134000E94381E96D404D475D4E0CFE885E030DC
:10314400E9F075D4EEE2EC93E885E150E887EF5FAF
:10315400A9F087D4D2D366D4E985FA856B857C85BA
:103164000E94751D0E2F63D4E6D3F0E07AD40E943A
:103174006D1F0E94AE1DE4D355D4E6CFAE81BF814E
:10318400E0E0EC93198108812D960895A1E0B0E068
:103194000E943D20EF3F0895E0E00E944620E6E0D3
:1031A4009E2EE1E06E2EE92DF0E031970895EE5F5A
:1031B400FF4FDF01E0E00E9446200895E92DF0E092
:1031C4003197A62DB0E0AE17BF070895E92DF0E0C2
:1031D4003197EE5FFF4FBF01DF010E943D200E2EAD
:1031E400A62DB0E0AE5FBF4F0E943D20E00DDB0195
:1031F4000E9446200895E2E19E2EE1E06E2EE92D24
:10320400F0E03197E85FFF4FDF01E0E00E944620E5
:103214000895E92DF0E03197E85FFF4FBF01DF012A
:103224000E943D200E2EA62DB0E0A85FBF4F0E9445
:103234003D20E00DDB010E94462008950E944620B7
:10324400E4E09E2EE1E06E2EE92DF0E03197089542
:10325400E65EFF4FDF01E0E00E9446200895E92D7D
:10326400F0E03197E65EFF4FBF01DF010E943D2091
:103274000E2EA62DB0E0A65EBF4F0E943D20E00DAD
:10328400DB010E9446200895EA5AFF4FDF01E0E087
:103294000E9446200895E92DF0E03197EA5AFF4F45
:1032A400BF01DF010E943D200E2EA62DB0E0AA5AD8
:1032B400BF4F0E943D20E00DDB010E94462008958F
:1032C400E75CFF4FDF01E0E00E9446200895E92D0E
:1032D400F0E03197E75CFF4FBF01DF010E943D2022
:1032E4000E2EA62DB0E0A75CBF4F0E943D20E00D3E
:1032F400DB010E9446200895EA58FF4FDF01E0E019
:103304000E9446200895E92DF0E03197EA58FF4FD6
:10331400BF01DF010E943D200E2EA62DB0E0AA5869
:10332400BF4F0E943D20E00DDB010E94462008951E
:10333400EBE19E2EE1E06E2EE92DF0E03197E25EA6
:10334400FF4FDF01E0E00E9446200895E92DF0E000
:103354003197E25EFF4FBF01DF010E943D200E2E38
:10336400A62DB0E0A25EBF4F0E943D20E00DDB0120
:103374000E9446200895E3E09E2EE1E06E2EE92DA2
:10338400F0E03197E15CFF4FDF01E0E00E9446206E
:103394000895E92DF0E03197E15CFF4FBF01DF01B3
:1033A4000E943D200E2EA62DB0E0A15CBF4F0E94CE
:1033B4003D20E00DDB010E9446200895EE5BFF4FA7
:1033C400DF01E0E00E9446200895E92DF0E0319706
:1033D400EE5BFF4FBF01DF010E943D200E2EA62DA4
:1033E400B0E0AE5BBF4F0E943D20E00DDB010E94C8
:1033F40046200895ECE09E2EE1E06E2EE92DF0E0EB
:103404003197E65BFF4FDF01E0E00E94462008951C
:10341400E92DF0E03197E65BFF4FBF01DF010E9429
:103424003D200E2EA62DB0E0A65BBF4F0E943D208E
:10343400E00DDB010E9446200895EAE09E2EE1E0C3
:103444006E2EE92DF0E03197E65AFF4FDF01E0E000
:103454000E9446200895E92DF0E03197E65AFF4F87
:10346400BF01DF010E943D200E2EA62DB0E0A65A1A
:10347400BF4F0E943D20E00DDB010E9446200895CD
:10348400E6E09E2EE1E06E2EE92DF0E031970895FE
:10349400E659FF4FDF01E0E00E9446200895E92D40
:1034A400F0E03197E659FF4FBF01DF010E943D2054
:1034B4000E2EA62DB0E0A659BF4F0E943D20E00D70
:1034C400DB010E9446200895E059FF4FDF01E0E050
:1034D4000E9446200895E92DF0E03197E059FF4F0E
:1034E400BF01DF010E943D200E2EA62DB0E0A059A1
:1034F400BF4F0E943D20E00DDB010E94462008954D
:10350400EA5BFF4FDF01E0E00E9446200895E92DC9
:10351400F0E03197EA5BFF4FBF01DF010E943D20DD
:103524000E2EA62DB0E0AA5BBF4F0E943D20E00DF9
:10353400DB010E9446200895EC59FF4FDF01E0E0D3
:103544000E9446200895E92DF0E03197EC59FF4F91
:10355400BF01DF010E943D200E2EA62DB0E0AC5924
:10356400BF4F0E943D20E00DDB010E9446200895DC
:103574000A921A92FA926A937A938A939A93AA93E2
:10358400BA93EA93FA93EFB7EA930895EFEFE093CF
:103594008130E1E03E2E0895E0938130E2E03E2E5A
:1035A400EFEFE093003008953E2EEFEFE09300300C
:1035B4000895EFEFE0930030222408950E943D2007
:1035C400AE2F0C948E099924EFEFE0938130089587
:1035D400E4E09E2EE1E06E2EE92DF0E031970895AF
:1035E400AAEC0E948E09AAEC0C948E090E948E0902
:1035F400CDCFE62DF0E0E050F04DE0818E0E089541
:10360400EEE2F0E3FA93EA930895E2E8F0E3FA9342
:10361400EA930895FA93EA93E2E0EA930895FA9319
:10362400EA93A2E00E947617F0CFE0E0F0E0FA938C
:10363400EA93A0E00E947617E8CFFA93EA93E1E0D8
:10364400EA930895FA93EA93A1E00E947617DDCFF6
:10365400F0E0EA0FFB1F0E946D1F0895E093AA306B
:10366400F093AB306093AC307093AD300895E0913B
:10367400AA30F091AB306091AC307091AD300895C8
:103684000E946D1F0E94EF1E08950E947C1FDF019F
:10369400CB01EFE00E943E1F0895E093AE30F0931B
:1036A400AF306093B0307093B1300895A091AE30D4
:1036B400B091AF308091B0309091B1300895E093E3
:1036C400B230F093B3306093B4307093B530EEDF22
:1036D4000E94EF1E0895E091B630F091B7306091EA
:1036E400B8307091B9300895E091BA30F091BB30A0
:1036F4006091BC307091BD300895E0E0F0E060E28C
:1037040071E40895E091BE30F091BF306091C03013
:103714007091C1300895A091BE30B091BF308091B6
:10372400C0309091C1300E949C1F08950E94721F66
:103734000E949C1FDF01CB0108950E94321FADDF60
:10374400E1CFE093C230F093C3306093C430709300
:10375400C5300895E091C230F091C3306091C43017
:103764007091C5300895EE5FFF4F6F4F7F4F0E94F9
:10377400511F0E94511F08950E949C1F0E94601FA8
:103784000895A091CA30B091CB308091CC30909103
:10379400CD300895E091D230F091D3306091D4309F
:1037A4007091D5300895A091CE30B091CF308091F2
:1037B400D0309091D130E8E00E94321F0895E0911A
:1037C400CE30F091CF306091D0307091D1300895E7
:1037D400A091CE30B091CF308091D0309091D13043
:1037E4000895E0E0F0E0FA93EA93A0E00895E0E2BF
:1037F400EA93ECE0EA93E0E1EA93A0E40C941D0F71
:103804000E944A1FEA0FFB1F8F01D801EC91E06868
:10381400EC930895E091E407ED7FE093E4070895C5
:10382400E091E407E260E093E4070895FA93EA93F1
:1038340080E00E94441624960E94B809A8ECB0E0E7
:103844000C94381DA2E3B0E00E94381DE1E0089515
:10385400FF27662777270E942620089588E00E9484
:1038640044162C960E94B809CBCE662777270E946F
:103874002620089588E00E9444162C960C94B809DA
:10388400A7DFEAE0F0E060E070E00E94D91F08954D
:103894000E940D203196ED93FC930895BA93AA9358
:1038A4002497E0E0E883E9830895AC81BD818E81AB
:1038B4009F8123DF0E94381EEC83FD836E837F8308
:1038C4000895EC81FD816E817F81AC85BD858E85F7
:1038D4009F850E94CB1E0895AC85BD858E859F85EE
:1038E4000895EDECFCEC6CEC7DE30E94381EEC8753
:1038F400FD876E877F873F5F0895FFDE0E94381E35
:103904000895EC87FD876E877F870895A0E0B0E077
:1039140080E09FE30E94E81D0895EDECFCEC6CEC64
:103924007DE30E94381E0895A885B9851196A8875D
:10393400B98711970895E02FE05DEC93E02F089587
:103944000E9430200E94E11D0895E885F985319692
:10395400E887F98708952A93AF81B885E985FA85C0
:1039640009950895FE01E65AFF4F0190F081E02D7C
:1039740008953497DE01A65ABF4FED93FC93089542
:10398400AF81B885E985FA8509950895DE01A65ABF
:10399400BF4F0D90BC91A02D0895EA87FB876C87DB
:1039A4007D870895DFDFE5CFEA85FB856C857D851E
:1039B4000895EE87FF87AE85BF850E9495161E2F5A
:1039C4000895E4DF14960E940D200895E88BF98B86
:1039D4006A8B7B8B08950B7FED89EA93DE01A95AEC
:1039E400BF4F0D90BC91A02DFE01E75AFF4F0190EF
:1039F400F081E02D099550300895E889F9896A89A4
:103A04007B89AA85BB858C859D850895DE011C96DE
:103A14000E94EB1E0E940D200895EE81FF81FA930F
:103A2400EA930895E987FA876B877C870895AE81C6
:103A3400BF811196AE83BF8311970895AA81BB817C
:103A44008C819D810895EA83FB836C837D83089533
:103A5400EA81FB816C817D81A985BA858B859C85F2
:103A64000895A985BA858B859C850895109639F0AB
:103A740080E49FE10197F1F7A8951197C9F708959C
:103A840030976040704009F070580895552342F40F
:103A9400503811F4E0FF04C03196691F791F6BF0B0
:103AA40050E8572711F45F93CFC05F3F31F0660FA2
:103AB400000C57956795752F08955F9300200AF0C1
:103AC400CFC0C8C050E8192E1522880F991F95271A
:103AD400550F879550E8072E0522660F771F752727
:103AE400550F67950895689401C0E8945F93F2DFD9
:103AF400703818F07F3F08F4A7C056E1571BAAF4AA
:103B0400519558300EF4593030F0EFEFFFEF6FEF6E
:103B14007FE777F91AC077275523B9F0EE0FFF1F17
:103B2400661F771F5A95D1F710C07727583028F0B1
:103B3400EF2FF62F672F5850F9CF552331F0769594
:103B44006795F795E7955A95D1F700200AF459D16E
:103B54005F910895689401C0E89430976040704084
:103B6400B1F0002426F0772312F400944AD1172EE2
:103B74007EE1112032F07A95EE0FFF1F661F111CB3
:103B8400F9CFEF2FF62F612D5F938ADF5F910895B0
:103B94004F93AF01FD01DA01AB01BC01CA01402D15
:103BA400012C142E4F910895EA0FFB1F681F0895EE
:103BB400E095F0956095EF5FFF4F6F4F08955F9329
:103BC40081DF903871F150E8152604C05F937ADFE5
:103BD400903839F1703821F1572F591B2BF112F419
:103BE400D7DFFACF583118F0AA27BB2788275830D7
:103BF40028F0AB2FB82F88275850F9CF552329F038
:103C04008695B795A7955A95D9F7502D512572F0F9
:103C1400CBDF38F46795F795E795739513F420C0D7
:103C2400B7DF3EDF5F910895D8F7FBCFEA1BFB0BAC
:103C3400680B51F010F40094BBDF662392F3EE0F8F
:103C4400FF1F661F7A95CBF7EE27FF276627772796
:103C54005F910895EFEFFFEF6FE77FEF5F910895B6
:103C6400EFEFFFEF6FE77FE75F9108955F932ADF40
:103C7400703851F3903841F301240894791F23F4E8
:103C84001CF300203AF3ECCF0F921F932F933F9332
:103C94004F93112722279927689FA0018F9F302DCA
:103CA400410D591F6B9F300D411D591F8E9F27D009
:103CB400BF9F25D06A9F23D0BE9F1DD0AF9F1BD02E
:103CC400AE9F110D291F391F491F591FE32FF42FD0
:103CD400652F522F4F913F912F911F910F90662383
:103CE4002AF0550FEE1FFF1F661F02C073954BF29B
:103CF400CDDE5F910895100D211D391F02C0200DE6
:103D0400311D491F591F08955F93DCDE703821F47B
:103D140011200AF49FCFA4CF903809F495CF012441
:103D24000894970B1BF4D4F30020F3CF792F1F933F
:103D34002F933F934F93112411272227332744278E
:103D4400552790E2AE17BF078607410730F0AE1B38
:103D5400BF0B860B410B089401C08894551F221F8A
:103D6400331F111CAA1FBB1F881F441F9A9551F7AC
:103D7400F901612D4F913F912F911F91662332F0EC
:103D8400550FEE1FFF1F661F7A9543F27FDE5F918A
:103D9400089599239AF0772342F0971748F029F46D
:103DA400AE17BF07860720F031F0989488940895E1
:103DB4009894089408951894889408957723C2F7E2
:103DC400971798F3A9F7EA17FB07680788F399F39D
:103DD400ECCF0024AF0DB01D0895EA0FFB1F681F40
:103DE400791F0895AE0FBF1F861F971F0895EA1B02
:103DF400FB0B680B790B0895AE1BBF0B860B970B5F
:103E04000895F09560957095E195FF4F6F4F7F4F42
:103E14000895EE230E2EFD0121F0EE0FFF1F0A94EC
:103E2400E1F70895EE230E2EFD0121F0F595E795B7
:103E34000A94E1F70895EE230E2EFD0121F0F69584
:103E4400E7950A94E1F70895EE230E2EFD01BC01D7
:103E540031F0EE0FFF1F661F771F0A94D1F7089504
:103E6400EE230E2EFD01BC0131F075956795F79593
:103E7400E7950A94D1F70895EE230E2EFD01BC01B7
:103E840031F076956795F795E7950A94D1F70895FB
:103E9400EE0FFF1FEE0FFF1FEE0FFF1F0895759526
:103EA4006795F795E7950895EE0FFF1F661F771F37
:103EB4000895EF2FFF27E7FDFFEF0895E62FF72F73
:103EC4006627F7FD6FEF762F0895FE2FFF0FFF0B88
:103ED4006F2F7F2F08956F2F660F660B762F08952F
:103EE4008B2F880F880B982F0895EA17E1E009F0CB
:103EF400EE2708957A9F702D6B9F700DF89F700DBB
:103F0400E99F700D6A9F602D710DFB9F600D711DFF
:103F1400E89F600D711D8827FA9FF02D610D781FB1
:103F2400EB9FF00D611D781FEA9FE02DF10D681FD6
:103F3400781F08955DD0DEDF0EF463DF089500245A
:103F440098E0AA0F001C0E1A10F40E0E01C0A16016
:103F54009A95B9F7EA2FA02D08953ED0F0DF0EF41C
:103F6400E19508953F934F935F93002411244427D0
:103F7400552730E2AA0FBB1F881F991F001C111C74
:103F8400441F551F0E1A1F0A460B570B28F40E0E1A
:103F94001F1E461F571F01C0A1603A9559F7FD0126
:103FA400BC01D001CA015F914F913F91089520D087
:103FB400D9DF0EF426DF0895E894A7FF02C0A19587
:103FC4006894E7FDE195BBDFEA2F0EF4E1950895CF
:103FD400C9DFFD01BC010895E894E7FF02C0E19543
:103FE4006894A7FF04C0A19500F8039400FA08950B
:103FF400E89477FF02C005DF689497FF0BC00024A4
:10400400A095B095809590951196801D901D00F80F
:10401400039400FA0895ED91FC9111970895ED91A0
:10402400FD916D917C9113970895E881F9816A81DE
:104034007B810895A881B9818A819B810895E88351
:10404400F9836A837B8308957A936A93FA93EA9354
:1040540008959A938A93BA93AA930895182E862F53
:10406400612D192E972F712D1B2EBF2FF12D1A2E76
:10407400AE2FE12D0895A895E091CF01E7FDFBCF88
:10408400B05FEC91B051089523D0B05F8C918E173E
:1040940011F4B05108959E2F1BD07F937FB7F894ED
:1040A4009C93B051A093C001B093C10180E0809370
:1040B400C20185E38093CA0188ED91E084BF9093A7
:1040C400CB0106D080E08093CA017FBF7F91089521
:1040D400A8958091CF0187FDFBCF0895309760406C
:1040E400704008955A934A933A932A931A930A93E1
:1040F40008955D814C813B812A811981088108954D
:00000001FF
