:060000000C944C010C946D
:1000060000000C9400000C9400000C9400000C946A
:1000160000000C9400000C9400000C9400000C945A
:1000260000000C9400000C9400000C9400000C944A
:1000360000000C947B0F0C9400000C9400000C94B0
:1000460000000C9400000C9400000C948B0F0C9490
:1000560000000C9400000C9400000C9400000C941A
:10006600BA050C9400000C9400000C9400000C944B
:1000760000000C9400000C9400000C9400000C94FA
:1000860000000C9400000C9400000C9400000C94EA
:1000960000000C9400000C9400000C9400000C94DA
:1000A60000000C9400000C9400000C9400000C94CA
:1000B60000000C94A90A0C9400000C9400000C9407
:1000C60000000C9400000C9400000C9400000C94AA
:1000D60000000C9400000C9400000C9400000C949A
:1000E60000000C9400000C9400000C9400000C948A
:1000F60000000C9400000C9400000C9400000C947A
:1001060000000C9400000C9400000C9400000C9469
:1001160000000C9400000C9400000C9400000C9459
:1001260000000C9400000C9400000C9400000C9449
:1001360023100C9400000C9400000C9400000C9406
:1001460000000C9400000C9400000C9400000C9429
:1001560000000C9400000C9400000C9400000C9419
:1001660000000C9400000C9400000C9400000C9409
:1001760000000C9400000C9400000C9400000C94F9
:1001860000000C9400000C9400000C9400000C94E9
:1001960000000C9400000C9400000C9400000C94D9
:1001A60000000C9400000C9400000C9400000C94C9
:1001B60000000C9400000C9400000C9400000C94B9
:1001C60000000C9400000C9400000C9400000C94A9
:1001D60000000C9400000C9400000C9400000C9499
:1001E6000000FF005D00230001007374617274203B
:1001F600646576696365007374617274206932633D
:100206000062756620693263207374617274206FB0
:100216006B00626D702069326320737461727420A2
:100226006F6B005350492053544152540061643758
:10023600373035207374617274206F6B00535441EC
:100246005254205748494C4500424D5020503D25B8
:10025600662C543D25362E336600424D50204845C7
:100266005820503D25782C543D2578002D4E414E82
:10027600000001002D4E414E00494E46000001008F
:100286008130E80101003031EE010100333178029E
:100296000000F894EE27F091CC01F860F093CC01C1
:1002A600F8EDF4BFE093A200A0918000AD7FA160BD
:1002B600F4BFA093800080E090E4A0E0B0E2ED936C
:1002C6000197E9F7E4E8F2E085919591009761F0EE
:1002D600A591B59105901590BF01F00105900D927D
:1002E6000197E1F7FB01F0CF8BBF8CBFE0E0E0B9EF
:1002F600E1B9E2B9E3B9E4B9E5B9E6B9E7B9E8B90C
:10030600E9B9EAB9EBB9ECB9EDB9EEB9EFB92E2E08
:10031600E1E03E2EE0E04E2E5E2E6E2E7E2E8E2EDE
:100326009E2EAE2EBE2EDE2EEFEFEDBFEFE5EEBF1C
:10033600C0E0D0E30C9424101A930A93E091E407EA
:10034600EE7FE093E40710E000E0163188F4103009
:1003560031F0E12FF0E0E45BFF4CE0810E0FE12F7E
:10036600F0E0E45BFF4CA0810E9449091F5FEDCFDE
:1003760000936230A09162300E944909E091E4073F
:10038600E160E093E4070991199108950E94C61669
:1003960011F5A2E0B0E0E0EA0E942F1EA3E0B0E073
:1003A600E0E30E942F1EA4E0B0E0E3E30E942F1ECC
:1003B600A5E0B0E0E5E30E942F1EA6E0B0E00E94B3
:1003C600CC160E94D7160E94DE1624F40E94E6166A
:1003D6006394F9CF99240E94C61609F058C0A8E084
:1003E600B0E0EFEA0E942F1EA9E0B0E0E1E00E9433
:1003F6002F1EAAE0B0E0E3E60E942F1EABE0B0E0BD
:10040600E0E60E942F1EACE0B0E0E4E60E942F1E5C
:10041600ADE0B0E0E0E00E942F1EAEE0B0E00E944A
:100426002F1EAFE0B0E00E942F1EA0E1B0E00E94B8
:100436002F1EA1E1B0E00E942F1EA2E1B0E00E94B3
:100446002F1EA3E1B0E00E942F1EA4E1B0E0E8E970
:100456000E942F1EA5E1B0E0EAE30E942F1EA6E14E
:10046600B0E0ECED0E942F1EA7E1B0E0E5E00E94AF
:100476002F1EA8E1B0E00E942F1E0E94FB160E94CC
:10048600DE1624F40E9409176394F9CF99240E947A
:10049600C616C9F4AAE1B0E0EAEA0E942F1EABE153
:1004A600B0E0E0E60E942F1EACE1B0E0EAEE0E946A
:1004B6001E170E9428170E94DE1624F40E942F178A
:1004C6006394F9CF99240E94C616C9F4A6E5B0E054
:1004D600E2EA0E942F1EA7E5B0E0E1E00E942F1E8F
:1004E600A8E5B0E0E0E00E941E170E9444170E94B3
:1004F600DE1624F40E944B176394F9CF99240E94C8
:10050600C61611F5A9E3B0E0EDEA0E942F1EAAE394
:10051600B0E0EAE50E942F1EABE3B0E0E0E00E9407
:100526002F1EACE3B0E0EAE50E942F1EADE3B0E07B
:100536000E94CC160E9460170E94DE1624F40E94C8
:1005460067176394F9CF99240E94C61609F5A6E7A2
:10055600B0E0E6EA0E942F1EA7E7B0E0E0E00E94C6
:100566002F1EA8E7B0E00E942F1EA9E7B0E0E1E049
:100576000E942F1EAAE7B0E00E94CC160E947C17AC
:100586000E94DE1624F40E9483176394F9CF9924FF
:100596000E94C61609F08CC0AEE1B0E0E1EA0E9406
:1005A6002F1EAFE1B0E0E3E50E942F1EA0E2B0E00F
:1005B600E5E70E942F1EA1E2B0E0EEE60E942F1EA4
:1005C600A2E2B0E0E0E20E942F1EA3E2B0E0E3E583
:1005D6000E942F1EA4E2B0E0E5E60E942F1EA5E2CF
:1005E600B0E0E0E70E942F1EA6E2B0E0E0E20E9443
:1005F6002F1EA7E2B0E0E2E30E942F1EA8E2B0E0C1
:10060600E1E30E942F1EA9E2B0E0E0E20E942F1E65
:10061600AAE2B0E0E2E30E942F1EABE2B0E0E3E321
:100626000E942F1EACE2B0E0EAE30E942F1EADE26C
:10063600B0E0E3E30E942F1EAEE2B0E0E6E30E94E4
:100646002F1EAFE2B0E0EAE30E942F1EA0E3B0E067
:10065600E2E30E942F1EA1E3B0E0E4E30E942F1E16
:10066600A2E3B0E0E0E20E942F1EA3E3B0E0E2E3E3
:100676000E942F1EA4E3B0E0E0E30E942F1EA5E334
:10068600B0E0E1E30E942F1EA6E3B0E0E4E30E949F
:100696002F1EA7E3B0E0E0E00E942F1E0E949817ED
:1006A6000E94DE1624F40E94A6176394F9CF9924BB
:1006B6000E94C616A1F4AFE3B0E0E7EA0E942F1E3F
:1006C600A0E4B0E0E2E40E942F1E0E94BB170E9445
:1006D600DE1624F40E94C9176394F9CF99240E9468
:1006E600C616C9F4A2E4B0E0E7E70E942F1EA3E411
:1006F600B0E0E0E00E942F1EA4E4B0E0ECEF0E9420
:100706001E170E94DE170E94DE1624F40E94E517CB
:100716006394F9CF99240E94C61609F041C0AAE451
:10072600B0E0EBEA0E942F1EABE4B0E0E5E70E94E2
:100736002F1EACE4B0E0EEE60E942F1EADE4B0E062
:10074600E7E30E942F1EAEE4B0E0E0E30E942F1E16
:10075600AFE4B0E0E2E30E942F1EA0E5B0E0E2E6DF
:100766000E942F1EA1E5B0E0EEE00E942F1EA2E53A
:10077600B0E0E4E00E942F1EA3E5B0E0E4E10E94B1
:100786002F1EA4E5B0E0EEE00E942F1E0E94FA178D
:100796000E94DE1624F40E9408186394F9CF992467
:1007A6000E94C61681F5AAE5B0E0EEEA0E942F1E69
:1007B600ABE5B0E0EFEF0E942F1EACE5B0E00E9483
:1007C6002F1EADE5B0E00E942F1EAEE5B0E00E9400
:1007D6002F1EAFE5B0E00E942F1EA0E6B0E00E94FB
:1007E6002F1EA1E6B0E00E942F1EA2E6B0E00E94F6
:1007F6002F1E0E941D180E94DE1624F40E942B183C
:100806006394F9CF99240E94C61629F5AAE6B0E0AA
:10081600E4EA0E942F1EABE6B0E0E0E00E942F1E45
:10082600ACE6B0E0ECEF0E942F1EADE6B0E0E8E6E5
:100836000E942F1EAEE6B0E0E7EF0E942F1E0E9438
:1008460040180E9448180E94DE1624F40E944F1891
:100856006394F9CF99240E94C61609F5A0E7B0E083
:10086600E8E50E942F1EA1E7B0E0E0E00E942F1EFF
:10087600A2E7B0E00E942F1EA3E7B0E0E1E00E94ED
:100886002F1EA4E7B0E00E94CC160E9464180E94B6
:10089600DE1624F40E946B186394F9CF99240E9403
:1008A600C616C1F4A6E4B0E0E6E70E942F1EA7E450
:1008B600B0E0EFEF0E942F1EA8E4B0E00E941E17E2
:1008C6000E9480180E94DE1624F40E948718639402
:1008D600F9CF99240E94C61601F5A4E6B0E0EAE62F
:1008E6000E942F1EA5E6B0E0E0E00E942F1EA6E6BD
:1008F600B0E00E942F1EA7E6B0E00E942F1EA8E6D9
:10090600B0E00E94CC160E949C180E94DE1624F4C9
:100916000E94A3186394F9CF99240895E5EAE09319
:100926004C30E0E4E0934D30EFE1E0934E30E8E701
:10093600E0934F30E0E0E0935030EBEBE093513042
:10094600EBE0E0935230E0E0E0935330EFEFE093DA
:100956005430E0E0E0935530E8E0E0935630EDEABD
:10096600E0935730EDE0E0935830ECEAE0935930ED
:10097600EDE0E0935A30E0E1E0935B30E7E2E093AC
:100986005C30E0E0E0935D30E4E0E0935E30E0E090
:10099600E0935F30E6E0E0936030E0E0E0936130C2
:1009A6000895E0E0E0930406E0930006E093100665
:1009B600E0931106E0931206E0931306E093140603
:1009C600E0931506E0931606E0931706E0910906F4
:1009D600E07FE0930906E0E0E0930A06E0930B0669
:1009E600E0932406E0932006E0933006E093310678
:1009F600E0933206E0933306E0933406E09335063F
:100A0600E0933606E0933706E0912906E07FE0930F
:100A16002906E0E0E0932A06E0932B06E8E1E0935E
:100A26004406E8EBE0934006E0E0E0935006E093EE
:100A36005106E0935206E0935306E0935406E09382
:100A46005506E0935606E0935706E0914906E07F87
:100A5600E0934906E0E0E0934A06E0934B06E0E8BF
:100A6600E0936406E0936006E0E0E0937006E093AE
:100A76007106E0937206E0937306E0937406E093C2
:100A86007506E0937606E0937706E0916906E07FC7
:100A9600E0936906E0E0E0936A06E0936B06E09374
:100AA6008406E0938006E0939006E0939106E09337
:100AB6009206E0939306E0939406E0939506E093FE
:100AC6009606E0939706E0918906E07FE093890613
:100AD600E0E0E0938A06E0938B06E093A406E093B9
:100AE600A006E093B006E093B106E093B206E09369
:100AF600B306E093B406E093B606E093B706E0913A
:100B0600A906E07FE093A906E0E0E093AA06E09359
:100B1600AB06EFE0E093E407E093E007E0E0E09364
:100B2600F007E093F107E091E907E07FE093E9073A
:100B3600E0E0E093EA07E093EB070895E8E0E0934E
:100B46004506E3E0E093A508E091A308E07CE063B6
:100B5600E093A308E5EFE093A608ECECE093A70882
:100B6600E091A408E07EE861E093A40808950E945D
:100B7600B818B090A108A090A008EB2DEC7131F444
:100B8600E22DF0E0E050F04DA0822394E091813018
:100B9600F0E0EF3FA0E0FA0709F032C2E091003042
:100BA600F0E0EF3FA0E0FA0731F40E94C618EFEF3D
:100BB600E093003023C2EA3CA0E0FA0721F4EAEC15
:100BC6000E94CC181BC2E53FA0E0FA0721F4E5EF2E
:100BD6000E94CC1813C2E53BA0E0FA0739F4E5EB16
:100BE600E0938130E4E00E94D41808C2EA3EA0E017
:100BF600FA0721F4EAEE0E94CC1800C2E53EA0E016
:100C0600FA0739F4E5EEE0938130E7E00E94D41864
:100C1600F5C1E73EA0E0FA0739F4E7EEE09381304C
:100C2600E7E00E94D418EAC1E036A0E0FA0721F412
:100C3600E0E60E94CC18E2C1E83EA0E0FA0739F4EB
:100C4600E8EEE0938130E3E00E94D418D7C1E93E94
:100C5600A0E0FA0739F4E9EEE0938130E3E00E9480
:100C6600D418CCC1E03AA0E0FA07D9F40E94D9180A
:100C76000E9440180E94D7160E94DE1624F40E9495
:100C8600E6166394F9CF6624691440F4A62DB0E005
:100C9600AE5FBF4F0E94DE186394F6CF0E94E31842
:100CA600ADC1E13AA0E0FA07C9F40E94D9180E9442
:100CB60098170E94DE1624F40E94A6176394F9CFB3
:100CC6006624691440F4A62DB0E0A25EBF4F0E94D0
:100CD600DE186394F6CF0E94E31891C1E23AA0E0D1
:100CE600FA07D9F40E94D9180E94E8180E944417FE
:100CF6000E94DE1624F40E944B176394F9CF6624F3
:100D0600691440F4A62DB0E0AA5ABF4F0E94DE181F
:100D16006394F6CF0E94E31872C1E43AA0E0FA07A2
:100D2600D9F40E94D9180E9440180E9448180E94BF
:100D3600DE1624F40E944F186394F9CF66246914D2
:100D460040F4A62DB0E0A659BF4F0E94DE1863946A
:100D5600F6CF0E94E31853C1E63AA0E0FA07D9F4A9
:100D66000E94D9180E9440180E947C170E94DE1625
:100D760024F40E9483176394F9CF6624691440F41F
:100D8600A62DB0E0AA58BF4F0E94DE186394F6CF96
:100D96000E94E31834C1E73AA0E0FA07C9F40E94BA
:100DA600D9180E94BB170E94DE1624F40E94C917A8
:100DB6006394F9CF6624691440F4A62DB0E0A15CD3
:100DC600BF4F0E94DE186394F6CF0E94E31817C146
:100DD600EA3AA0E0FA07D9F40E94D9180E94E81866
:100DE6000E9428170E94DE1624F40E942F1763948F
:100DF600F9CF6624691440F4A62DB0E0A65EBF4F75
:100E06000E94DE186394F6CF0E94E318F8C0EB3A0E
:100E1600A0E0FA07C9F40E94D9180E94FA170E94A6
:100E2600DE1624F40E9408186394F9CF6624691428
:100E360040F4A62DB0E0A65BBF4F0E94DE18639477
:100E4600F6CF0E94E318DBC0ED3AA0E0FA07D9F42A
:100E56000E94D9180E9440180E9460170E94DE1650
:100E660024F40E9467176394F9CF6624691440F44A
:100E7600A62DB0E0A75CBF4F0E94DE186394F6CFA4
:100E86000E94E318BCC0EE3AA0E0FA07C9F40E943B
:100E9600D9180E941D180E94DE1624F40E942B18F1
:100EA6006394F9CF6624691440F4A62DB0E0A65ADF
:100EB600BF4F0E94DE186394F6CF0E94E3189FC0CE
:100EC600EF3AA0E0FA07C9F40E94D9180E94FB166F
:100ED6000E94DE1624F40E9409176394F9CF662453
:100EE600691440F4A62DB0E0A85FBF4F0E94DE183B
:100EF6006394F6CF0E94E31882C0E835A0E0FA07B3
:100F0600D9F40E94D9180E9440180E9464180E94C1
:100F1600DE1624F40E946B186394F9CF66246914D4
:100F260040F4A62DB0E0A059BF4F0E94DE1863948E
:100F3600F6CF0E94E31863C0EA36A0E0FA07D9F4B8
:100F46000E94D9180E9440180E949C180E94DE1622
:100F560024F40E94A3186394F9CF6624691440F41C
:100F6600A62DB0E0AC59BF4F0E94DE186394F6CFB1
:100F76000E94E31844C0E637A0E0FA07D9F40E94BD
:100F8600D9180E94E8180E9480180E94DE1624F4E0
:100F96000E9487186394F9CF6624691440F4A62D3D
:100FA600B0E0AA5BBF4F0E94DE186394F6CF0E94A2
:100FB600E31825C0E737A0E0FA07D9F40E94D9184C
:100FC6000E94E8180E94DE170E94DE1624F40E9492
:100FD600E5176394F9CF6624691440F4A62DB0E0B2
:100FE600AE5BBF4F0E94DE186394F6CF0E94E318F3
:100FF60006C0EFEFE09300300E94C618222404C01A
:10100600EA3CA0E0FA0731F5E2E0E21511F5A0911D
:101016000030A13021F4A0910130A13009F003C0C5
:101026000E94F01810C0A0910030AF3021F4A091BA
:101036000130AF3009F007C00E94F0180E94C618B0
:10104600E1E0DE2E05C0EFEFE0938130E1E03E2ED9
:1010560022241BC1E53FA0E0FA0711F5E2E0E21504
:10106600F1F4A0910030AF3521F4A0910130AF35F5
:1010760009F012C0A5EF0AD1A5EF08D1A5EF0E948D
:10108600F6182224A5E0B0E00E94211BE8EDE4BF9B
:10109600E1E0E093790003C00E94C6182224F5C05F
:1010A600E53BA0E0FA0749F5E4E0E21529F56624F8
:1010B6008824E3E06E1620F40E94F9186394F9CFB1
:1010C600A09103308A16A9F4E0910030E87019F077
:1010D600E0910030E870E0910030E470E09100307B
:1010E600E470A5EBD3D0A5EB0E94F6182224882441
:1010F60003C00E94C6182224C8C0EA3EA0E0FA0730
:10110600E1F4E2E0E215C1F466248824E1E06E161B
:1011160020F40E94F9186394F9CFA09101308A1641
:1011260041F4AAEEB3D0AAEE0E94F618222488242F
:1011360003C00E94C6182224A8C0E036A0E0FA0721
:10114600F1F4E2E0E215D1F466248824E1E06E16BB
:1011560020F40E94F9186394F9CFA09101308A1601
:1011660051F4A0E693D0A0E091D0A0E00E94F6183A
:101176002224882403C00E94C618222486C0E53E85
:10118600A0E0FA07E1F4E7E0E215C1F4662488245A
:10119600E6E06E1620F40E94F9186394F9CFA09148
:1011A60006308A1641F4A5EE71D0A5EE0E94F61817
:1011B6002224882403C00E94C618222466C0E73E63
:1011C600A0E0FA07E1F4E7E0E215C1F4662488241A
:1011D600E6E06E1620F40E94F9186394F9CFA09108
:1011E60006308A1641F4A7EE51D0A7EE0E94F618F3
:1011F6002224882403C00E94C618222446C0E83E42
:10120600A0E0FA07E1F4E3E0E215C1F466248824DD
:10121600E2E06E1620F40E94F9186394F9CFA091CB
:1012260002308A1641F4A8EE31D0A8EE0E94F618D4
:101236002224882403C00E94C618222426C0E93E20
:10124600A0E0FA07E1F4E3E0E215C1F4662488249D
:10125600E2E06E1620F40E94F9186394F9CFA0918B
:1012660002308A1641F4A9EE11D0A9EE0E94F618B2
:101276002224882403C00E94C618222406C0EFEF49
:10128600E09300300E94C618222471C1AA93E0910F
:10129600A108E072E1F3E881E093A0083DC1E0E82F
:1012A600E0936506E3E0E093B509E091B309E07CDD
:1012B600E093B309EEE6E093B609E8EAE093B709EE
:1012C600E091B409E07EE860E093B4090895AA933A
:1012D600E091B109E072E1F3E881E093B0091CC145
:1012E6001A9310E0AEE2B0E30E949314A12FB0E08F
:1012F600AE17BF0740F4E12FF0E0E25DFF4CA0819E
:10130600E6DF1F5FEFCF0E940019E0E0EA93AEE14F
:10131600B0E00E947614AAE0DADFADE0D8DFE7C0DD
:10132600BA93AA93A881B981EC91E07FEC931996C0
:10133600ECE0EC9333C51A930A931FB7F894E09147
:101346000008E07FE560E0930008E0910108E8709E
:10135600E0930108E0910308E071E0930308E0914F
:101366000608E07FE160E0930608E0910708E07078
:10137600E0930708E0919900EE7F0E2FE8EDE4BFB9
:1013860000939900E0918008E07CE0938008E0916A
:101396008308E87EE0938308E0E0E0938208A4E80F
:1013A600B8E00A2EAC91E0918408E470EA2BA02DF7
:1013B600EC93E0910C08E0930C08E0E0F0E0E09399
:1013C6002008F0932108E1E1FAE7E0932608F0937C
:1013D6002708E0E0F0E0E0932808F0932908E0937E
:1013E6002A08F0932B08E0932C08F0932D08E0933D
:1013F6002E08F0932F081FBFC1C41A931FB7F89485
:10140600A0E4B8E08DDFE5E0E0934008E0E0E0939B
:101416004108E0934308E0934408E0914608E07FE2
:10142600E160E0934608E0E0E0934708E091900829
:10143600ED7FE0939008E0914C08E0934C08E0E0E3
:10144600F0E0E0936008F0936108E7EAF1E6E093E4
:101456006608F0936708E0E0F0E0E0936808F09330
:101466006908E0936A08F0936B0840C01A931FB7A7
:10147600F894E0910009E07FE160E0930009E091D3
:101486000109E870E0930109E0910309E071E09336
:101496000309E0910609E07FE160E0930609E09127
:1014A6000709E070E0930709E0910C09E0930C0945
:1014B600E0E0F0E0E0932009F0932109EFE3F6EA9B
:1014C600E0932609F0932709E0E0F0E0E09328098D
:1014D600F0932909E0932A09F0932B09E0932C094C
:1014E600F0932D09E0932E09F0932F091FBF199150
:1014F6000895E3E5E093C008E091C108EC7FE0932E
:10150600C1080895AA93E881E093C308E091C20850
:10151600E078E1F3E091C30821960895E0EAF4E06B
:10152600FA93EA93E0E0EA93A0E00E94AC140E94EA
:101536000519E0EAF4E0FA93EA93E0E4EA93ABE90A
:101546000E94C114E0E0E093A80408950A921A925A
:10155600FA926A937A938A939A93AA93BA93EA939E
:10156600FA93EFB7EA93A2E8B0E30E94EC14E9918C
:10157600EFBFF991E991B991A991999189917991E1
:101586006991F990199009901895E6EFE0930C315E
:10159600E7EFE0930D31E4EFE0930A31EEE2E093FA
:1015A6000B31E6EFE0931231E7EFE0931331E8EF0A
:1015B600E0931431E4EFE0931031E091A830E29526
:1015C600E07FEE0FEE0FEC5CE0931131EAEAE09378
:1015D600DE30EBEAE093DF30ECEAE093E030EDEA70
:1015E600E093E130EEEAE093E230EFEAE093E330B5
:1015F600E0EBE093E430E1EBE093E530E2EBE093FF
:10160600E630E3EBE093E730E4EBE093E830E5EB3C
:10161600E093E930E6EBE093EA30E7EBE093EB307A
:10162600E8EBE093EC30E9EBE093ED30EAEBE093A6
:10163600EE30EBEBE093EF30ECEBE093F030EDEBDC
:10164600E093F130EEEBE093F230EFEBE093F33022
:1016560008959BDF0E940519E7E7EA93EEEDF0E3B4
:101666000E940A19E4EFF0E30E940F19E7E7EA93F4
:10167600E0EEF0E30E940A19E6EFF0E30E940F198C
:10168600E7E7EA93E2EEF0E30E940A19E8EFF0E3F7
:101696000E940F19E7E7EA93E4EEF0E30E940A19C5
:1016A600EAEFF0E30E940F19E7E7EA93E6EEF0E3CC
:1016B6000E940A19ECEFF0E30E940F19E7E7EA939C
:1016C600E8EEF0E30E940A19EEEFF0E30E940F192C
:1016D600E7E7EA93EAEEF0E30E940A19E0E0F1E3B5
:1016E6000E940F19E7E7EA93ECEEF0E30E940A196D
:1016F600E2E0F1E30E940F19E7E7EA93EEEEF0E38A
:101706000E940A19E4E0F1E30E940F19E7E7EA9361
:10171600E0EFF0E30E940A19E6E0F1E30E940F19F8
:10172600E7E7EA93E2EFF0E30E940A19E8E0F1E363
:10173600FA93EA93A2E00E947415B091F430A0E007
:10174600E091F530F0E0EA0FFB1FE0938E30F09366
:101756008F30F091F630E0E0DF01E091F730F0E015
:10176600EA0FFB1FE0939030F0939130F091F83040
:10177600E0E0DF01E091F930F0E0EA0FFB1FE093D3
:101786009230F0939330F091FA30E0E0DF01E0918F
:10179600FB30F0E0EA0FFB1FE0939430F0939530B6
:1017A600F091FC30E0E0DF01E091FD30F0E0EA0F7F
:1017B600FB1FE0939630F0939730F091FE30E0E017
:1017C600DF01E091FF30F0E0EA0FFB1FE093983075
:1017D600F0939930F0910031E0E0DF01E0910131C2
:1017E600F0E0EA0FFB1FE0939A30F0939B30F09104
:1017F6000231E0E0DF01E0910331F0E0EA0FFB1F88
:10180600E0939C30F0939D30F0910431E0E0DF01ED
:10181600E0910531F0E0EA0FFB1FE0939E30F09374
:101826009F30F0910631E0E0DF01E0910731F0E012
:10183600EA0FFB1FE093A030F093A130F09108313E
:10184600E0E0DF01E0910931F0E0EA0FFB1FE093F1
:10185600A230F093A33008950E940519E7E7EA93B2
:10186600EAE0F1E30E940A190E941519E7E7EA93F4
:10187600ECE0F1E30E940A19EEE0F1E30E940F1991
:10188600E7E7EA93E0E1F1E30E940A190E941519DD
:10189600E7E7EA93E2E1F1E30E941D19E5E1F1E3EE
:1018A6000E942219E7E7EA93E3E1F1E30E941D199A
:1018B600E6E1F1E30E942219E7E7EA93E4E1F1E3C6
:1018C6000E941D19E7E1F1E3FA93EA93A1E00E9471
:1018D6007415B0910E31A0E0E0910F310E942819E5
:1018E600E093A430F093A5306093A6307093A730B0
:1018F600A0911531BB27E091A830E85F0E94F41C47
:101906000E94561D0E942E19A091AD30AA2332F4D2
:101916000E9437190E94EC1C0E942E19A0911631C4
:10192600B0E0E091A8300E94F41CA091AA30B091DA
:10193600AB308091AC309091AD300E9440197F93CE
:101946006F93FF93EF93009017311124A091A83065
:10195600E8E0EA1BD0010E94FD1CAF91BF918F9178
:101966009F910E9440190E942E19E0919830F091A3
:101976009930A091A430B091A5308091A630909175
:10198600A730662777270E94E71CE0919630F091F2
:101996009730662777270E9445190E944D19A09116
:1019A600A030B091A1300E945B1DEBE00E940F1D9C
:1019B6007F936F93FF93EF93E091A230F091A33062
:1019C6000E9456190E944019AF91BF918F919F9125
:1019D6000E94C21D0E945F19E093B630F093B730A3
:1019E6006093B8307093B9300E946B19E85FFF4F6F
:1019F6006F4F7F4FDF01CB01E4E00E941B1DE09398
:101A0600BA30F093BB306093BC307093BD300E9407
:101A160074190E94971BDF01CB010E947D190E9459
:101A26006F1CE093D630F093D7306093D830709324
:101A3600D9300E946B19E05AFF4060407040E09335
:101A4600BE30F093BF306093C0307093C1300E94B7
:101A560082190E948B19A0919C30B0919D300E94F2
:101A66009619ECE00E941B1DDF01CB01EBE00E9402
:101A76009D19A0919030B09191300E949619EBE09B
:101A86000E941B1D0E945F190E94A119E0918E30D1
:101A9600F0918F300E94351DDF010E94AA190E9425
:101AA6005B1D0E94DD1CE091A8300E940F1D0E9464
:101AB600B319E093C630F093C7306093C830709383
:101AC600C9300E948219A0919230B09193300E9441
:101AD6009619EDE00E949D190E948B19DF01CB013A
:101AE600ECE00E941B1DA0919A30B0919B300E94A1
:101AF6005B1D0E94BC190E945F190E94B3190E94C7
:101B0600A1190E94AA19E050F0486F4F7F4FA0918B
:101B16009430B0919530882799270E944519E09313
:101B2600D230F093D3306093D4307093D530A091F7
:101B3600C630B091C7308091C8309091C9300E94AC
:101B460037190E94E21C7F936F93FF93EF93E09106
:101B5600A830A0E5B3EC0E94061DAF91BF918F910E
:101B66009F91662777270E94651DE093CA30F09300
:101B7600CB306093CC307093CD300E94C119A03029
:101B8600E0E0BE07E0E08E07E0E89E0788F4E0911B
:101B9600CA30F091CB306091CC307091CD300E943C
:101BA6003F1DDF01CB010E94CA190E949D1D08C07E
:101BB6000E94CA190E94C1190E949D1D0E943F1DC4
:101BC600E093CE30F093CF306093D0307093D13025
:101BD6000E94D3197F936F93FF93EF930E94D319BB
:101BE600AF91BF918F919F910E94851D0E944D19C3
:101BF600E091AE30F091AF306091B0307091B1307D
:101C0600AEEDBBE080E090E00E94BC190E944D1949
:101C16000E94DF19A3E4B3EE8FEF9FEF0E94BC1979
:101C26000E945F19E153F14F6F4F7F4FDF01CB01E8
:101C3600E4E00E941B1D0E94E8190E94D81CE09354
:101C4600CE30F093CF306093D0307093D1300E9475
:101C5600DF190E94971BDF01CB01EFE6F2E565E095
:101C660073E40E946F1CE093DA30F093DB306093EC
:101C7600DC307093DD300895AA93E0E1E0934606E8
:101C8600AB8140DCAA813EDCA9813CDCA8813ADC40
:101C9600E0914806ED6FEF3FD9F3E0E1E0934506AA
:101CA60024960895AA930E945F1EE0913031AC817C
:101CB600EA1729F0A13011F0A23009F401C010C0D2
:101CC600AC81A13011F40E94F119AC81A23041F42B
:101CD600E1E2EA93ECE0EA93E1E1EA93A0E4CCDF07
:101CE600EC81E0933031E0914806ED6FEF3FD9F398
:101CF600E0E1E09346068BE68A95F1F7A8E302DC7D
:101D0600AFEF00DC0E2F1127AFEFFCDB2E2F3327B2
:101D1600E0E1E0934506F02FE0E0E22BF32BE4C090
:101D26001A930A930FB7F894E0915000E260E0939B
:101D36005000E0914100E0781E2FE8EDE4BF1093DB
:101D46004100E0916000EE7FE0936000E091510079
:101D5600E270E1F3E0914000E87FE1601E2FE8EDDC
:101D6600E4BF10934000E0915000E27EE093500003
:101D7600E091B400EC7FE093B4000FBF0991199194
:101D86000895AA931A93E2E0E093CA01E981F0E08C
:101D96001491E0E0E093CA01E12F1881229608959C
:101DA600A0E2EFDFE0930C02A1E2EBDFE0930D028D
:101DB600E0E0E0930102E3E0E0930402E1E1E09376
:101DC6000202E0E0E0931802E0931902E1E0E093FA
:101DD6002002E0E2E0932102E1E0E0932802E8E25B
:101DE600E0932902E1E0E0933002E0E3E093310280
:101DF600E1E0E0933802E8E3E0933902E0E0E093C3
:101E06000302E0932202E0932A02E0933202E09377
:101E16003A02E0910002E160E09300024CC0AA930E
:101E26000E945F1EEC81F0E0A0E2B2E00E94FA1987
:101E3600F801A381A170E1F34FC0A4E2A2DFE09311
:101E46004C02A5E29EDFE0934D02E0E0E093410202
:101E5600E3E0E0934402E0E1E0934202E0E0E09355
:101E66005802E0935902E1E0E0936002E0E0E0937B
:101E76006102E1E0E0936802E8E0E0936902E1E0F4
:101E8600E0937002E0E1E0937102E1E0E093780212
:101E9600E8E1E0937902E0E0E0934302E093620236
:101EA600E0936A02E0937202E0937A02E0914002C4
:101EB600E160E093400285E18A95F1F70895AA93DF
:101EC6000E945F1EEC81F0E0A0E6B2E00E94FA19E3
:101ED600F801A381A170E1F3D8011396E1E0EC9338
:101EE600F80124813581F9010E94661E2596089520
:101EF6000E94B818DD2021F0A0918130AF3F09F093
:101F060006C00E949F01A1E0B0E00E94211B8AC08A
:101F16000E94B818E091E407ED7FE093E407A1E0A2
:101F2600C1DEE0933131F0933231E0913131F091FD
:101F36003231E050F048E0933131F0933231E091A4
:101F46003131E0935330E0913131F09132310E94DA
:101F5600441DE0935430E091E407E260E093E40727
:101F66007724E4E07E1630F5E72DA6E2B0E3F0E054
:101F7600EE0FFF1FEA0FFB1FFF93EF93A72D4FDF17
:101F8600E659F040AF91BF91ED93FC93E72DAEE19A
:101F9600B0E3F0E0EE0FFF1FEA0FFB1FFF93EF9396
:101FA600A72D8DDFE659F040AF91BF91ED93FC93DD
:101FB6007394D7CFE0911E30E0934D30E0911F30FF
:101FC600E0934E30E0912030E0935130E0912130A3
:101FD600E0935230E0912230E0934F30E09123308D
:101FE600E0935030E0912430E0935930E091253071
:101FF600E0935A30E0912630E0935D30E09127304F
:10200600E0935E30E0912830E0935F30E091293034
:10201600E0936030E0912A30E0935530E0912B3028
:10202600E0935630E991EFBFF991E991B991A99101
:102036009991899179916991F990199009901895DA
:102046001895F894E091A200E873E7601E2FE8ED7A
:10205600E4BF1093A200E0E0E093A10061DE0E94DD
:10206600D404E0918006E061E0938006E091840666
:10207600E061E093840694DEE0DE0E94A1050E9402
:10208600520937DA4BDAA4E6B0E00E94211B7894B5
:102096000E9491040E940019E0EFF1E00E94041AE8
:1020A600EDEFF1E00E94041AE7E0F2E00E94111A57
:1020B6000E94191ACEDA0E940019E8E1F2E00E94A5
:1020C600041AE9E2F2E00E94111A0E941D1AE09336
:1020D6000106E1E0E09305060E941D1AE09306065C
:1020E6000E941D1AE0930506A2E3B0E00E94211BA0
:1020F6000E94F1190E940019E3E3F2E00E94111A0E
:102106000E94191AB3D90E949E090E94000AE09102
:102116008406EF7EE09384060E940019E3E4F2E071
:102126000E94111A0E94191A0E94C901E0E0E09368
:102136001931E0932131E09329310E94C61629F422
:10214600A1E0B0E0E0E00E942F1EA1E0B0E00E9416
:10215600261EE23308F06CC0A1E0B0E00E94261E05
:10216600EF5F0E942F1EE091E407E260E093E40730
:1021760073DBE091E407ED7FE093E4070E9400192A
:10218600EFE4F2E0FA93EA93E091DA30F091DB3093
:102196006091DC307091DD300E940F1EE091D630E8
:1021A600F091D7306091D8307091D9300E94231ABF
:1021B600E091BA30AAE0EA02F001E09357300E94BB
:1021C6007419AAE0B0E080E090E00E94851DDF016E
:1021D600CB01E8E00E941B1DE09358300E942B1AA9
:1021E600E0935B300E942B1ADF01CB01E8E00E94EE
:1021F6001B1DE0935C300E940019E0E6F2E0FA93C2
:10220600EA93B0915C30A0E0E0915B300E9428191F
:102216000E940F1EB0915830A0E0E09157300E9406
:1022260028190E94231AAAE0B0E00E94211B9BCF26
:10223600FFCFBA93AA931A930A93AA81BB811296E7
:102246000E94F61D309729F1AA81BB8114960E943F
:10225600F61D8F01309761F00230E0E01E0780F036
:10226600F80131978F01AA81BB811496ED93FC93F7
:10227600AA81BB8112960E94331A3197AC81A08342
:10228600AA81BB810E94F61DFF2312F00E94331A19
:1022960006C0AA81BB81EFEFFFEFED93FC93198196
:1022A60008810C94BF140E94391AE0E8EA83EFE330
:1022B600EB830E945F1EEE85FF85EF3FAFEFFA07C7
:1022C60049F4E885F985FA93EA93A2E7B2E00E9419
:1022D6008614B7C0EF3FAFE7FA0749F4E885F985FA
:1022E600FA93EA93A3E7B2E00E948614AAC0AB85EC
:1022F600A73010F0E6E0EB871B85E12F1150E030A8
:1023060019F00E94401AF9CFEC85FD856E857F8510
:102316000E94591E21F430E00E94401A2DC03B85D0
:102326000E944C1A09F008F40BC00E94401A0E9441
:102336004C1A28F00E94571A0E945C1AF8CF0DC05A
:102346000E944C1A40F40E94571A0E94681A0E9472
:102356006C1A3150F5CF0E94401AEC85FD856E85CA
:102366007F850E94711A0E946C1A0E944C1A20F0F6
:102376000E94571A0E945C1A10E0EB85E117A8F13B
:10238600AC81BD818E819F810E94781A0E94711A4C
:10239600DF01CB010E940E16EC83FD836E837F83E3
:1023A6000E94571A0E946F1C0E945E1B0E2F0E94ED
:1023B6007F1A0E94861AFF27662777270E94971B97
:1023C600AC81BD818E819F810E94211C0E94571A7B
:1023D6000E948B1A0E946C1AE12F1F5FE03069F68B
:1023E6000E947F1AEEE2EC93C8CF0E94901A3197B2
:1023F600AA85A08330302CF43195A885B985EDE205
:1024060003C0A885B985EBE2EC930E94901A0E945E
:10241600901A3197BF01A32FEAE00E94981DE05D54
:10242600DB01EC930E94901A3197BF01A32FEAE0DB
:102436000E94C71DE05DDB01EC93A885B985E0E04D
:10244600EC930E94661E60960895BA93AA93EF973E
:1024560061970E945D1E10E0FE01E85AFF4F019051
:10246600F081E02DE887F987FE01EA5AFF4F0190D7
:10247600F081E02DEE83FF83AE81BF81E0E0F0E0E6
:10248600ED93FC93DE01A45ABF4F0E94331A319795
:10249600E4912E2FE03009F4E9C1E12FE03039F460
:1024A600253211F411E002C00E94961ADEC1E13015
:1024B600C1F4253219F40E94961AD6C112E0E0E062
:1024C600ED8B00E02D3211F401E0CFC12B3219F46F
:1024D600EBE2ED8BCAC1203219F4E0E2ED8BC5C107
:1024E60002C0E23039F450E013E0203311F4006802
:1024F600BCC102C0E33091F4203310F02A3308F057
:1025060007C0AAE05A9F502DE22FE0535E0FADC1DF
:1025160040E02E3211F414E0A8C10FC0E43099F463
:10252600203310F02A3308F008C00062AAE04A9F60
:10253600402DE22FE0534E0F98C12C3619F402605D
:1025460015E093C103C0E53009F08FC1E22FE336F1
:1025560059F40E949D1A0E94A41A0E949D1AA481F1
:10256600AA930E94AB1A80C1E53411F0E53609F44E
:1025760003C0E63609F048C0FE017696EE87FF876F
:102586000E94B11A0E94FA1D0E94B81A0E94BD1A32
:10259600AD85AA2332F0AD89AB3259F0A03281F075
:1025A60017C00E94BF1A0E942B1B0E94B81AEDE2A8
:1025B600ED8B07FF05C0ED89EA930E94AB1A08C0B0
:1025C600EE85FF853196EE87FF873197AD89A0832B
:1025D60005FF46E0263651F40E94BF1A0E940F1EE0
:1025E6004A93AB89BC890E94251609C00E94BF1A6E
:1025F6000E940F1E4A932A93AC89BD8954DEFE01C0
:1026060076960E94C41A1EC0E33739F40E94BD1A9A
:102616000E94CC1A0E94C41A0EC0E037C1F40E9470
:10262600BD1A0E94CC1AEE87FF87AE85BF850E9431
:102636009F141E2F08600F77403011F0411708F0E5
:1026460001C0142F40E0E0E0EC8B30E06DC0E436D2
:1026560011F0E93611F4046002C0E537A1F4EAE0AE
:10266600EC8B01FF08C0E0E0FAEC6AE97BE30E942C
:10267600D11A1AE022C0E0E1F7E260E070E00E94C1
:10268600D11A15E01AC0E83511F4086003C0E8371E
:1026960009F0EAC0E0E1EC8B01FF08C0E0E0F0E001
:1026A60060E070E10E94D11A18E007C0E0E0F0E1B6
:1026B60060E070E00E94D11A14E0403011F00F770C
:1026C60001C041E001FF08C00E94BD1A0E94B11A74
:1026D60014960E94FA1D0FC002FF07C00E94BD1A81
:1026E6000E94CC1A0E94561D06C00E94BD1A0E9466
:1026F600CC1A66277727EA87FB876C877D8702FFD8
:1027060012C0AD85AA2342F40E94BF1A0E94EC1C97
:102716000E94B81AEDE2ED8BED89E03019F01F5FEB
:102726004F5F01C00B7F342F00FD14C0151710F446
:10273600351708F00FC007FF08C002FF04C00B7F63
:102746002D89115001C020E301C020E20E94961A93
:102756005150ECCF141790F4006102FF06C00E949E
:10276600D61A09F0515011504150E0E3EA930E9405
:10277600AB1A503009F051504150ECCF312FEC8953
:10278600E030B9F43030A1F003FF06C0EE85FF85D6
:102796002591EE87FF8705C0AE85BF852D91AE8753
:1027A600BF870E94961A503009F051503150EACF37
:1027B60051C00E94E81A0E949D1D2E2F2A3030F02B
:1027C60003FF02C0295C01C0295A01C0205D04FD37
:1027D60021C0213360F4A889B9898A899B89A130EF
:1027E600E0E0BE07E0E08E07E0E09E0709F40BC0DC
:1027F600431740F4531710F000FF01C010C020E249
:1028060007FF08C020E3006102FF04C00E94D61A39
:1028160009F051500E94961A503009F0515031502B
:102826000E94E81A0E94D31D0E94B81AEC89A88952
:10283600B9898A899B89FF27662777270E949D1D6C
:102846000E94D11AE889F9896A897B890E94591EF2
:1028560009F0AFCF00FF08C0503031F05150E0E230
:10286600EA930E94AB1AF8CF10E00CCEAE81BF817E
:102876000E94F61D0E94641EEF966F960895FF92C1
:10288600F82E26970E945F1E0E94F11A309719F4BF
:10289600EFEFFFEF23C0DE0116960E94D41C8D01D8
:1028A6000E94F11AEE83FF83E0E0E887E987DE0104
:1028B6001A960E94D41C0E94F61DFA93EA931A9364
:1028C6000A93ECE1F1E1FA93EA93DE011A96BDDD93
:1028D6009F01AE81BF81E0E0EC93F9010E94661E84
:1028E6002A96FF900895BA93AA93B981A881109663
:1028F60031F0FC81EB816A8161931197E9F7EB81F5
:10290600FC810C94BF14BA93AA93E991F991A99109
:10291600B991CD0105900D920020E1F7FC010895D3
:10292600BA93AA93A991B991EE27FF276D916623D1
:1029360011F03196FBCF0895BA93AA93AA27BB2725
:10294600E991F9910590002011F01196FBCFFD0158
:102956000895AA931A93AB81BC81EC91EC7F1E2F4C
:10296600EA81E03009F01160E981E03009F0126097
:10297600AB81BC811C93188125960895AA93E981A1
:10298600E863AA81BB811196EC93EA81FB813296BA
:10299600A0E0A083E881AA81BB811596EC93EA8129
:1029A600FB813496A1E0A083EA81FB81AC81BD81E5
:1029B600ED93FC93AC81BD811596E0E0EC93AC8180
:1029C600BD811996EC93AC81BD811B96EC9326963E
:1029D6000895BA93AA9322970E945D1EA885B98589
:1029E6000D911C91F80134813396AF0133FF02C07B
:1029F60023E003C032FF04C024E0F801348309C099
:102A0600F8013796EE83FF8336FF32C034FF05C0E8
:102A160025E0DA01E3E0EC935BC0E885F9852681E1
:102A2600E5812E1798F4E885F985A381B481E22F14
:102A36002F5FF0E0AE0FBF1FEC91AE81BF81EC932C
:102A4600E22FA885B9851696EC9347C0E885F985E7
:102A5600A285E185AE1748F4E885F985A281E1E013
:102A6600EA2BD8011696EC9338C0DA01E3E02CC0C5
:102A760037FF2DC0E885F9852285E1852E1728F0D8
:102A8600DA01E3E0EC9322E023C0E885F985A7812B
:102A9600B085E22F2F5FF0E0EA0FFB1F0F01AE813A
:102AA600BF81EC91D001EC93E22FA885B9851A96E7
:102AB600EC93E885F985E1852E1720F4DA01E2E04A
:102AC600EC930BC0DA01E7E0EC9321E001C026E0CD
:102AD600E22FA885B9851B96EC930E94641E2A9660
:102AE6000895AA931A930A93E985FA85A385A0788F
:102AF60009F05BC0A985BA851B96E0E8EC93E885EA
:102B0600EE0FE887A985BA851296EC93EE81FF81D0
:102B1600A985BA851396ED93FC93ED81A985BA85AF
:102B26001596EC93A985BA851696E0E0EC93EB81B1
:102B3600FC81A985BA851796ED93FC93EA81A98550
:102B4600BA851996EC93A985BA851A96E0E0EC93B6
:102B5600A985BA850E94F61D36968F01ED81E03073
:102B660079F0EE81FF81309701F1EA81E03021F0C2
:102B7600AB81BC81109709F001C017C0E88509C078
:102B8600EA81E03041F0EB81FC81309771F0E88515
:102B9600E160D801EC93E985FA85A385A078D9F799
:102BA600A385E1E00E94601D01C0E0E01981088173
:102BB6002B9608950E94141E7B816A81F981E88113
:102BC60077FB770F67FD7160972F9E5781F078F03E
:102BD600983190F4AA27BB27882708948795B7953C
:102BE600A7959A95D1F7EA23FB23682305C0E894B5
:102BF6007727EE27FF2766276F77769508F46068B4
:102C060077F9A991B99189919991EA17FB07680714
:102C1600790797FB08950E94141E0E94051E0E94C4
:102C2600DD150E940A1E19F40E94001E09C0E6F76F
:102C36000E94001EA0E0B0E080E89FE30E94CA1B4D
:102C46002496089513D4E0E0EA83EFE3EB831A9326
:102C56000A93EB85FC85EF3FAFEFFA0731F4C5D455
:102C6600AAE7B2E00E9486148AC0EF3FAFE7FA07F0
:102C760031F4BBD4ABE7B2E00E94861480C0AC85C9
:102C8600AA2352F4E985FA856B857C850E942B1B65
:102C9600B1D4B5D4EDE2EC93A885A73010F0E6E008
:102CA600E8871885E12F1150E03021F0AFD41DD40C
:102CB600B2D4F8CFB5D40E94D11B9CD410E0E0E08A
:102CC600F0E060E87FE3A7D4ABD40E94B41C68F0C0
:102CD6009DD4FBD3A0D41F5F173230F086D4AFE764
:102CE600B2E00E9486144BC0EFCF103021F487D497
:102CF600E0E3EC9320C0E12F1150E030E1F086D400
:102D0600F4D3ECD3DF01CB010E940E1684D488D411
:102D16000E946F1C0E945E1B0E2F71D4F4D3F0E04C
:102D260075D40E94561D0E94971B0E94211C81D4B7
:102D3600EFD360D4E0CFE885E030E9F060D4EEE28E
:102D4600EC93E885E150E887EF5FA9F072D4BDD334
:102D560051D4E985FA856B857C850E945E1B0E2F12
:102D66004ED4D1D3F0E065D40E94561D0E94971B25
:102D7600CFD340D4E6CFAE81BF81E0E0EC9319819A
:102D860008812D960895A1E0B0E00E94261EEF3F2F
:102D96000895E0E00E942F1EE6E09E2EE1E06E2EF2
:102DA600E92DF0E031970895EE5FFF4FDF01E0E097
:102DB6000E942F1E0895E92DF0E03197A62DB0E070
:102DC600AE17BF070895E92DF0E03197EE5FFF4F8C
:102DD600BF01DF010E94261E0E2EA62DB0E0AE5FBB
:102DE600BF4F0E94261EE00DDB010E942F1E089594
:102DF600E2E19E2EE1E06E2EE92DF0E03197E85FEC
:102E0600FF4FDF01E0E00E942F1E0895E92DF0E05C
:102E16003197E85FFF4FBF01DF010E94261E0E2E8D
:102E2600A62DB0E0A85FBF4F0E94261EE00DDB0175
:102E36000E942F1E08950E942F1EE4E09E2EE1E0C0
:102E46006E2EE92DF0E031970895E65EFF4FDF0123
:102E5600E0E00E942F1E0895E92DF0E03197E65E2E
:102E6600FF4FBF01DF010E94261E0E2EA62DB0E0E9
:102E7600A65EBF4F0E94261EE00DDB010E942F1E9C
:102E86000895EA5AFF4FDF01E0E00E942F1E0895E1
:102E9600E92DF0E03197EA5AFF4FBF01DF010E94AA
:102EA600261E0E2EA62DB0E0AA5ABF4F0E94261E41
:102EB600E00DDB010E942F1E0895E75CFF4FDF0146
:102EC600E0E00E942F1E0895E92DF0E03197E75CBF
:102ED600FF4FBF01DF010E94261E0E2EA62DB0E079
:102EE600A75CBF4F0E94261EE00DDB010E942F1E2D
:102EF6000895EA58FF4FDF01E0E00E942F1E089573
:102F0600E92DF0E03197EA58FF4FBF01DF010E943B
:102F1600261E0E2EA62DB0E0AA58BF4F0E94261ED2
:102F2600E00DDB010E942F1E0895EBE19E2EE1E0ED
:102F36006E2EE92DF0E03197E25EFF4FDF01E0E013
:102F46000E942F1E0895E92DF0E03197E25EFF4FB3
:102F5600BF01DF010E94261E0E2EA62DB0E0A25E46
:102F6600BF4F0E94261EE00DDB010E942F1E089512
:102F7600E3E09E2EE1E06E2EE92DF0E03197E15C74
:102F8600FF4FDF01E0E00E942F1E0895E92DF0E0DB
:102F96003197E15CFF4FBF01DF010E94261E0E2E16
:102FA600A62DB0E0A15CBF4F0E94261EE00DDB01FE
:102FB6000E942F1E0895EE5BFF4FDF01E0E00E94A6
:102FC6002F1E0895E92DF0E03197EE5BFF4FBF010C
:102FD600DF010E94261E0E2EA62DB0E0AE5BBF4F6F
:102FE6000E94261EE00DDB010E942F1E0895ECE0D4
:102FF6009E2EE1E06E2EE92DF0E03197E65BFF4F65
:10300600DF01E0E00E942F1E0895E92DF0E03197E0
:10301600E65BFF4FBF01DF010E94261E0E2EA62D86
:10302600B0E0A65BBF4F0E94261EE00DDB010E94AA
:103036002F1E0895EAE09E2EE1E06E2EE92DF0E0C7
:103046003197E65AFF4FDF01E0E00E942F1E0895F8
:10305600E92DF0E03197E65AFF4FBF01DF010E94EC
:10306600261E0E2EA62DB0E0A65ABF4F0E94261E83
:10307600E00DDB010E942F1E0895E6E09E2EE1E0A2
:103086006E2EE92DF0E031970895E659FF4FDF01E6
:10309600E0E00E942F1E0895E92DF0E03197E659F1
:1030A600FF4FBF01DF010E94261E0E2EA62DB0E0A7
:1030B600A659BF4F0E94261EE00DDB010E942F1E5F
:1030C6000895E059FF4FDF01E0E00E942F1E0895AA
:1030D600E92DF0E03197E059FF4FBF01DF010E9473
:1030E600261E0E2EA62DB0E0A059BF4F0E94261E0A
:1030F600E00DDB010E942F1E0895EA5BFF4FDF0102
:10310600E0E00E942F1E0895E92DF0E03197EA5B7A
:10311600FF4FBF01DF010E94261E0E2EA62DB0E036
:10312600AA5BBF4F0E94261EE00DDB010E942F1EE8
:103136000895EC59FF4FDF01E0E00E942F1E08952D
:10314600E92DF0E03197EC59FF4FBF01DF010E94F6
:10315600261E0E2EA62DB0E0AC59BF4F0E94261E8D
:10316600E00DDB010E942F1E08950A921A92FA9230
:103176006A937A938A939A93AA93BA93EA93FA9361
:10318600EFB7EA930895EFEFE0938130E1E03E2E4A
:103196000895E0938130E2E03E2EEFEFE0930030B9
:1031A60008953E2EEFEFE09300300895EFEFE093A1
:1031B6000030222408950E94261EAE2F0C94490941
:1031C6009924EFEFE09381300895E4E09E2EE1E04C
:1031D6006E2EE92DF0E031970895AAEC0E94490978
:1031E600AAEC0C9449090E944909CDCFE62DF0E0DE
:1031F600E050F04DE0818E0E0895EEE2F0E3FA9392
:10320600EA930895E2E8F0E3FA93EA930895FA93CD
:10321600EA93E2E0EA930895FA93EA93A2E00E9421
:103226007415F0CFE0E0F0E0FA93EA93A0E00E9494
:103236007415E8CFFA93EA93E1E0EA930895FA93D6
:10324600EA93A1E00E947415DDCFF0E0EA0FFB1FC0
:103256000E94561D0895E093AA30F093AB30609318
:10326600AC307093AD300895E091AA30F091AB3058
:103276006091AC307091AD3008950E94561D0E9449
:10328600D81C08950E94651DDF01CB01EFE00E9466
:10329600271D0895E093AE30F093AF306093B030C1
:1032A6007093B1300895A091AE30B091AF30809157
:1032B600B0309091B1300895E093B230F093B330CE
:1032C6006093B4307093B530EEDF0E94D81C089539
:1032D600E091B630F091B7306091B8307091B93066
:1032E6000895E091BA30F091BB306091BC30709196
:1032F600BD300895E0E0F0E060E271E40895E09109
:10330600BE30F091BF306091C0307091C1300895E9
:10331600A091BE30B091BF308091C0309091C13045
:103326000E94851D08950E945B1D0E94851DDF0178
:10333600CB0108950E941B1DADDFE1CFE093C230A3
:10334600F093C3306093C4307093C5300895E09114
:10335600C230F091C3306091C4307091C530089589
:10336600EE5FFF4F6F4F7F4F0E943A1D0E943A1D3E
:1033760008950E94851D0E94491D0895A091CA3096
:10338600B091CB308091CC309091CD300895E091C2
:10339600D230F091D3306091D4307091D530089509
:1033A600A091CE30B091CF308091D0309091D13075
:1033B600E8E00E941B1D0895E091CE30F091CF30D9
:1033C6006091D0307091D1300895A091CE30B091F7
:1033D600CF308091D0309091D1300895E0E2EA93D9
:1033E600ECE0EA93E0E1EA93A0E40C943F0E0E943D
:1033F600331DEA0FFB1F8F01D801EC91E068EC93B7
:103406000895FA93EA9380E00E94421424960E945B
:103416007309A8ECB0E00E94211BEFCEFA93EA9361
:1034260080E00E94421424960C947309A8ECB0E044
:103436000C94211BA2E3B0E00E94211BE1E0089559
:103446000E940F1E88E00E9442142C960C94730969
:10345600BCDFEAE0F0E060E070E00E94C21D089583
:103466000E94F61D3196ED93FC930895BA93AA93A4
:103476002497E0E0E883E9830895AC81BD818E81DD
:103486009F8138DF0E94211CEC83FD836E837F833E
:103496000895EC81FD816E817F81AC85BD858E8529
:1034A6009F850E94B41C0895AC85BD858E859F8539
:1034B6000895EDECFCEC6CEC7DE30E94211CEC879E
:1034C600FD876E877F873F5F089514DF0E94211C6A
:1034D6000895EC87FD876E877F870895A0E0B0E0AA
:1034E60080E09FE30E94D11B0895EDECFCEC6CECB0
:1034F6007DE30E94211C0895A885B9851196A887A9
:10350600B98711970895E02FE05DEC93E02F0895B9
:103516000E94191E0E94CA1B0895E885F9853196F6
:10352600E887F98708952A93AF81B885E985FA85F2
:1035360009950895FE01E65AFF4F0190F081E02DAE
:1035460008953497DE01A65ABF4FED93FC93089574
:10355600AF81B885E985FA8509950895DE01A65AF1
:10356600BF4F0D90BC91A02D0895EA87FB876C870D
:103576007D870895DFDFE5CFEA85FB856C857D8550
:103586000895EE87FF87AE85BF850E9493141E2F90
:103596000895E4DF14960E94F61D0895E88BF98BD2
:1035A6006A8B7B8B08950B7FED89EA93DE01A95A1E
:1035B600BF4F0D90BC91A02DFE01E75AFF4F019021
:1035C600F081E02D099550300895E889F9896A89D6
:1035D6007B89AA85BB858C859D850895DE011C9611
:1035E6000E94D41C0E94F61D0895EE81FF81FA9375
:1035F600EA930895E987FA876B877C870895AE81F9
:10360600BF811196AE83BF8311970895AA81BB81AE
:103616008C819D810895EA83FB836C837D83089565
:10362600EA81FB816C817D81A985BA858B859C8524
:103636000895A985BA858B859C850895109639F0DD
:1036460080E49FE10197F1F7A8951197C9F70895CE
:1036560030976040704009F070580895552342F441
:10366600503811F4E0FF04C03196691F791F6BF0E2
:1036760050E8572711F45F93CFC05F3F31F0660FD4
:10368600000C57956795752F08955F9300200AF0F3
:10369600CFC0C8C050E8192E1522880F991F95274C
:1036A600550F879550E8072E0522660F771F752759
:1036B600550F67950895689401C0E8945F93F2DF0B
:1036C600703818F07F3F08F4A7C056E1571BAAF4DC
:1036D600519558300EF4593030F0EFEFFFEF6FEFA1
:1036E6007FE777F91AC077275523B9F0EE0FFF1F4A
:1036F600661F771F5A95D1F710C07727583028F0E4
:10370600EF2FF62F672F5850F9CF552331F07695C6
:103716006795F795E7955A95D1F700200AF459D1A0
:103726005F910895689401C0E894309760407040B6
:10373600B1F0002426F0772312F400944AD1172E14
:103746007EE1112032F07A95EE0FFF1F661F111CE5
:10375600F9CFEF2FF62F612D5F938ADF5F910895E2
:103766004F93AF01FD01DA01AB01BC01CA01402D47
:10377600012C142E4F910895EA0FFB1F681F089520
:10378600E095F0956095EF5FFF4F6F4F08955F935B
:1037960081DF903871F150E8152604C05F937ADF17
:1037A600903839F1703821F1572F591B2BF112F44B
:1037B600D7DFFACF583118F0AA27BB278827583009
:1037C60028F0AB2FB82F88275850F9CF552329F06A
:1037D6008695B795A7955A95D9F7502D512572F02C
:1037E600CBDF38F46795F795E795739513F420C00A
:1037F600B7DF3EDF5F910895D8F7FBCFEA1BFB0BDF
:10380600680B51F010F40094BBDF662392F3EE0FC1
:10381600FF1F661F7A95CBF7EE27FF2766277727C8
:103826005F910895EFEFFFEF6FE77FEF5F910895E8
:10383600EFEFFFEF6FE77FE75F9108955F932ADF72
:10384600703851F3903841F301240894791F23F41A
:103856001CF300203AF3ECCF0F921F932F933F9364
:103866004F93112722279927689FA0018F9F302DFC
:10387600410D591F6B9F300D411D591F8E9F27D03B
:10388600BF9F25D06A9F23D0BE9F1DD0AF9F1BD060
:10389600AE9F110D291F391F491F591FE32FF42F02
:1038A600652F522F4F913F912F911F910F906623B5
:1038B6002AF0550FEE1FFF1F661F02C073954BF2CD
:1038C600CDDE5F910895100D211D391F02C0200D18
:1038D600311D491F591F08955F93DCDE703821F4AE
:1038E60011200AF49FCFA4CF903809F495CF012474
:1038F6000894970B1BF4D4F30020F3CF792F1F9372
:103906002F933F934F9311241127222733274427C0
:10391600552790E2AE17BF078607410730F0AE1B6A
:10392600BF0B860B410B089401C08894551F221FBC
:10393600331F111CAA1FBB1F881F441F9A9551F7DE
:10394600F901612D4F913F912F911F91662332F01E
:10395600550FEE1FFF1F661F7A9543F27FDE5F91BC
:10396600089599239AF0772342F0971748F029F49F
:10397600AE17BF07860720F031F098948894089513
:103986009894089408951894889408957723C2F714
:10399600971798F3A9F7EA17FB07680788F399F3CF
:1039A600ECCF0024AF0DB01D0895EA0FFB1F681F72
:1039B600791F0895AE0FBF1F861F971F0895EA1B34
:1039C600FB0B680B790B0895AE1BBF0B860B970B91
:1039D6000895F09560957095E195FF4F6F4F7F4F75
:1039E6000895EE230E2EFD0121F0EE0FFF1F0A941F
:1039F600E1F70895EE230E2EFD0121F0F595E795EA
:103A06000A94E1F70895EE230E2EFD0121F0F695B6
:103A1600E7950A94E1F70895EE230E2EFD01BC0109
:103A260031F0EE0FFF1F661F771F0A94D1F7089536
:103A3600EE230E2EFD01BC0131F075956795F795C5
:103A4600E7950A94D1F70895EE230E2EFD01BC01E9
:103A560031F076956795F795E7950A94D1F708952D
:103A6600EE0FFF1FEE0FFF1FEE0FFF1F0895759558
:103A76006795F795E7950895EE0FFF1F661F771F69
:103A86000895EF2FFF27E7FDFFEF0895E62FF72FA5
:103A96006627F7FD6FEF762F0895FE2FFF0FFF0BBA
:103AA6006F2F7F2F08956F2F660F660B762F089561
:103AB6008B2F880F880B982F0895EA17E1E009F0FD
:103AC600EE2708957A9F702D6B9F700DF89F700DED
:103AD600E99F700D6A9F602D710DFB9F600D711D32
:103AE600E89F600D711D8827FA9FF02D610D781FE4
:103AF600EB9FF00D611D781FEA9FE02DF10D681F09
:103B0600781F08955DD0DEDF0EF463DF089500248C
:103B160098E0AA0F001C0E1A10F40E0E01C0A16048
:103B26009A95B9F7EA2FA02D08953ED0F0DF0EF44E
:103B3600E19508953F934F935F9300241124442702
:103B4600552730E2AA0FBB1F881F991F001C111CA6
:103B5600441F551F0E1A1F0A460B570B28F40E0E4C
:103B66001F1E461F571F01C0A1603A9559F7FD0158
:103B7600BC01D001CA015F914F913F91089520D0B9
:103B8600D9DF0EF426DF0895E894A7FF02C0A195B9
:103B96006894E7FDE195BBDFEA2F0EF4E195089501
:103BA600C9DFFD01BC010895E894E7FF02C0E19575
:103BB6006894A7FF04C0A19500F8039400FA08953D
:103BC600E89477FF02C005DF689497FF0BC00024D6
:103BD600A095B095809590951196801D901D00F842
:103BE600039400FA0895ED91FC9111970895ED91D3
:103BF600FD916D917C9113970895E881F9816A8111
:103C06007B810895A881B9818A819B810895E88383
:103C1600F9836A837B8308957A936A93FA93EA9386
:103C260008959A938A93BA93AA930895182E862F85
:103C3600612D192E972F712D1B2EBF2FF12D1A2EA8
:103C4600AE2FE12D0895A895E091CF01E7FDFBCFBA
:103C5600B05FEC91B051089523D0B05F8C918E1770
:103C660011F4B05108959E2F1BD07F937FB7F8941F
:103C76009C93B051A093C001B093C10180E08093A2
:103C8600C20185E38093CA0188ED91E084BF9093D9
:103C9600CB0106D080E08093CA017FBF7F91089553
:103CA600A8958091CF0187FDFBCF0895309760409E
:103CB600704008955A934A933A932A931A930A9313
:103CC60008955D814C813B812A811981088108957F
:00000001FF
