:080000000C9428010C9400008F
:100008000C9400000C9400000C9400000C94000068
:100018000C9400000C9400000C9400000C94000058
:100028000C9400000C9400000C9400000C94000048
:100038000C94650A0C9400000C9400000C940000C9
:100048000C9400000C9400000C94820A0C9400009C
:100058000C9400000C9400000C9400000C948B0588
:100068000C9400000C9400000C9400000C94000008
:100078000C9400000C9400000C9400000C940000F8
:100088000C9400000C9400000C9400000C940000E8
:100098000C9400000C9400000C9400000C940000D8
:1000A8000C9400000C9400000C9400000C940000C8
:1000B8000C9400000C9400000C9400000C940000B8
:1000C8000C9400000C9400000C9400000C940000A8
:1000D8000C9400000C9400000C9400000C94000098
:1000E8000C9400000C9400000C9400000C94000088
:1000F8000C9400000C9400000C9400000C94000078
:100108000C9400000C9400000C9400000C94000067
:100118000C9400000C9400000C9400000C94000057
:100128000C9400000C9400000C9400000C94830ABA
:100138000C9400000C9400000C9400000C94000037
:100148000C9400000C9400000C9400000C94000027
:100158000C9400000C9400000C9400000C94000017
:100168000C9400000C9400000C9400000C94000007
:100178000C9400000C9400000C9400000C940000F7
:100188000C9400000C9400000C9400000C940000E7
:100198000C9400000C9400000C9400000C940000D7
:1001A8000C9400000C9400000C9400000C940000C7
:1001B8000C9400000C9400000C9400000C940000B7
:1001C8000C9400000C9400000C9400000C940000A7
:1001D8000C9400000C9400000C9400000C94000097
:1001E800FF0072656720696E6974206F6B00696E25
:1001F8006974206275666572206F6B0053544152B2
:1002080054205748494C45004D783D25782C425597
:10021800463A2532782C2532782C2532782C5369A9
:100228007A653D25326900002D4E414E00000100DF
:100238002D4E414E00494E46000001007130E80144
:100248000100723036020000F894EE27F091CC01DC
:10025800F860F093CC01F8EDF4BFE093A200A09110
:100268008000AD7FA160F4BFA093800080E090E49F
:10027800A0E0B0E2ED930197E9F7E2E4F2E08591BE
:100288009591009761F0A591B59105901590BF01E2
:10029800F00105900D920197E1F7FB01F0CF8BBFBC
:1002A8008CBFE0E0E0B9E1B9E2B9E3B9E4B9E5B996
:1002B800E6B9E7B9E8B9E9B9EAB9EBB9ECB9EDB922
:1002C800EEB9EFB92E2EE1E03E2EE0E04E2E5E2E86
:1002D8006E2E7E2E8E2E9E2EAE2EBE2EEFEFEDBFF4
:1002E800EFE5EEBFC0E0D0E30C94840A1A930A93BA
:1002F80010E000E0163188F4103031F0E12FF0E022
:10030800E45CFF4CE0810E0FE12FF0E0E45CFF4C71
:10031800A0810E941A091F5FEDCF00935230A0916F
:1003280052300E941A090991199108950E94540F98
:1003380011F5A2E0B0E0E0EA0E94F014A3E0B0E01A
:10034800E0E30E94F014A4E0B0E0E3E30E94F014BC
:10035800A5E0B0E0E5E30E94F014A6E0B0E00E945A
:100368005A0F0E94650F0E946C0F24F40E94740FAC
:100378007394F9CF66240E94540F09F058C0A8E07E
:10038800B0E0EFEA0E94F014A9E0B0E0E1E00E94DA
:10039800F014AAE0B0E0E3E60E94F014ABE0B0E0AD
:1003A800E0E60E94F014ACE0B0E0E4E60E94F0144D
:1003B800ADE0B0E0E0E00E94F014AEE0B0E00E94F2
:1003C800F014AFE0B0E00E94F014A0E1B0E00E94A9
:1003D800F014A1E1B0E00E94F014A2E1B0E00E94A4
:1003E800F014A3E1B0E00E94F014A4E1B0E0E8E961
:1003F8000E94F014A5E1B0E0EAE30E94F014A6E13F
:10040800B0E0ECED0E94F014A7E1B0E0E5E00E9456
:10041800F014A8E1B0E00E94F0140E94890F0E9435
:100428006C0F24F40E94970F7394F9CF66240E94EE
:10043800540FC9F4AAE1B0E0EAEA0E94F014ABE173
:10044800B0E0E0E60E94F014ACE1B0E0EAEE0E9411
:10045800AC0F0E94B60F0E946C0F24F40E94BD0FCF
:100468007394F9CF66240E94540FC9F4A6E5B0E04E
:10047800E2EA0E94F014A7E5B0E0E2E00E94F0147E
:10048800A8E5B0E0E0E00E94AC0F0E94D20F0E9405
:100498006C0F24F40E94D90F7394F9CF66240E943C
:1004A800540F11F5A9E3B0E0EDEA0E94F014AAE3B5
:1004B800B0E0EAE50E94F014ABE3B0E0E0E00E94AF
:1004C800F014ACE3B0E0EAE50E94F014ADE3B0E06C
:1004D8000E945A0F0E94EE0F0E946C0F24F40E9493
:1004E800F50F7394F9CF66240E94540F09F5A6E717
:1004F800B0E0E6EA0E94F014A7E7B0E0E0E00E946E
:10050800F014A8E7B0E00E94F014A9E7B0E0E1E039
:100518000E94F014AAE7B0E00E945A0F0E940A1045
:100528000E946C0F24F40E9411107394F9CF662472
:100538000E94540F09F08CC0AEE1B0E0E1EA0E94DD
:10054800F014AFE1B0E0E3E50E94F014A0E2B0E0FF
:10055800E5E70E94F014A1E2B0E0EEE60E94F01494
:10056800A2E2B0E0E0E20E94F014A3E2B0E0E3E52A
:100578000E94F014A4E2B0E0E5E60E94F014A5E2BF
:10058800B0E0E0E70E94F014A6E2B0E0E0E20E94EA
:10059800F014A7E2B0E0E2E30E94F014A8E2B0E0B1
:1005A800E1E30E94F014A9E2B0E0E0E20E94F01456
:1005B800AAE2B0E0E2E30E94F014ABE2B0E0E3E3C9
:1005C8000E94F014ACE2B0E0EAE30E94F014ADE25D
:1005D800B0E0E3E30E94F014AEE2B0E0E6E30E948C
:1005E800F014AFE2B0E0EAE30E94F014A0E3B0E058
:1005F800E2E30E94F014A1E3B0E0E4E30E94F01407
:10060800A2E3B0E0E0E20E94F014A3E3B0E0E2E38A
:100618000E94F014A4E3B0E0E0E30E94F014A5E324
:10062800B0E0E1E30E94F014A6E3B0E0E4E30E9446
:10063800F014A7E3B0E0E0E00E94F0140E94261056
:100648000E946C0F24F40E9434107394F9CF66242E
:100658000E94540FA1F4AFE3B0E0E7EA0E94F0145F
:10066800A0E4B0E0E2E40E94F0140E9449100E9465
:100678006C0F24F40E9457107394F9CF66240E94DB
:10068800540FC9F4A2E4B0E0E7E70E94F014A3E431
:10069800B0E0E0E00E94F014A4E4B0E0ECEF0E94C7
:1006A800AC0F0E946C100E946C0F24F40E9473100F
:1006B8007394F9CF66240E94540F09F041C0AAE44C
:1006C800B0E0EBEA0E94F014ABE4B0E0E5E70E948A
:1006D800F014ACE4B0E0EEE60E94F014ADE4B0E053
:1006E800E7E30E94F014AEE4B0E0E0E30E94F01407
:1006F800AFE4B0E0E2E30E94F014A0E5B0E0E2E687
:100708000E94F014A1E5B0E0EEE00E94F014A2E52A
:10071800B0E0E4E00E94F014A3E5B0E0E4E10E9458
:10072800F014A4E5B0E0EEE00E94F0140E948810F6
:100738000E946C0F24F40E9496107394F9CF6624DB
:100748000E94540F81F5AAE5B0E0EEEA0E94F01489
:10075800ABE5B0E0EFEF0E94F014ACE5B0E00E942A
:10076800F014ADE5B0E00E94F014AEE5B0E00E94F0
:10077800F014AFE5B0E00E94F014A0E6B0E00E94EB
:10078800F014A1E6B0E00E94F014A2E6B0E00E94E6
:10079800F0140E94AB100E946C0F24F40E94B91050
:1007A8007394F9CF66240E94540F29F5AAE6B0E0A5
:1007B800E4EA0E94F014ABE6B0E0E0E00E94F01436
:1007C800ACE6B0E0ECEF0E94F014ADE6B0E0E8E68D
:1007D8000E94F014AEE6B0E0E7EF0E94F0140E9429
:1007E800CE100E94D6100E946C0F24F40E94DD10D7
:1007F8007394F9CF66240E94540F09F5A0E7B0E07E
:10080800E8E50E94F014A1E7B0E0E0E00E94F014EF
:10081800A2E7B0E00E94F014A3E7B0E0E1E00E9494
:10082800F014A4E7B0E00E945A0F0E94F2100E9450
:100838006C0F24F40E94F9107394F9CF66240E9477
:10084800540FC1F4A6E4B0E0E6E70E94F014A7E470
:10085800B0E0EFEF0E94F014A8E4B0E00E94AC0F03
:100868000E940E110E946C0F24F40E9415117394BB
:10087800F9CF66240E94540F01F5A4E6B0E0EAE639
:100888000E94F014A5E6B0E0E0E00E94F014A6E6AD
:10089800B0E00E94F014A7E6B0E00E94F014A8E6C9
:1008A800B0E00E945A0F0E942A110E946C0F24F493
:1008B8000E9431117394F9CF66240895E5EAE09314
:1008C8003C30E0E4E0933D30EFE1E0933E30EAE095
:1008D800E0933F30EEE0E0934030EBEBE0934130C3
:1008E800EBE0E0934230E0E0E0934330EDE7E09363
:1008F8004430E0E0E0934530E8E0E0934630EDEA4C
:10090800E0934730EDE0E0934830ECEAE09349307B
:10091800EDE0E0934A30E0E1E0934B30E7E2E0932A
:100928004C30E0E0E0934D30E4E0E0934E30E0E01E
:10093800E0934F30E6E0E0935030E9E8E09351303F
:100948000895E0E0E0930406E0930006E0931006C3
:10095800E0931106E0931206E0931306E093140661
:10096800E0931506E0931606E0931706E091090652
:10097800E07FE0930906E0E0E0930A06E0930B06C7
:10098800E0932406E0932006E0933006E0933106D6
:10099800E0933206E0933306E0933406E09335069D
:1009A800E0933606E0933706E0912906E07FE0936E
:1009B8002906E0E0E0932A06E0932B06E8E1E093BD
:1009C8004406E8EBE0934006E0E0E0935006E0934D
:1009D8005106E0935206E0935306E0935406E093E1
:1009E8005506E0935606E0935706E0914906E07FE6
:1009F800E0934906E0E0E0934A06E0934B06E0E81E
:100A0800E0936406E0936006E0E0E0937006E0930C
:100A18007106E0937206E0937306E0937406E09320
:100A28007506E0937606E0937706E0916906E07F25
:100A3800E0936906E0E0E0936A06E0936B06E093D2
:100A48008406E0938006E8E1E0939006E09391063F
:100A5800E0E0E0939206E0939306E0939406E09337
:100A68009506E0939606E0939706E0918906E07F65
:100A7800E0938906E0E0E0938A06E0938B06E09332
:100A8800A406E093A006E093B006E093B106E093D5
:100A9800B206E093B306E093B406E093B606E0939B
:100AA800B706E091A906E07FE093A906E0E0E093AD
:100AB800AA06E093AB06E093E407E093E007E0932F
:100AC800F007E093F107E091E907E07FE093E90799
:100AD800E0E0E093EA07E093EB070895E8E0E093AD
:100AE8004506E3E0E093A508E091A308E07CE06315
:100AF800E093A308E5EFE093A608ECECE093A708E1
:100B0800E091A408E07EE861E093A40808950E94BB
:100B180046118090A108B090A008E82DEC7131F43E
:100B2800E22DF0E0E050F04DB0822394E091713076
:100B3800F0E0EF3FA0E0FA0709F032C2E0910030A0
:100B4800F0E0EF3FA0E0FA0731F40E945411EFEF14
:100B5800E093003023C2EA3CA0E0FA0721F4EAEC73
:100B68000E945A111BC2E53FA0E0FA0721F4E5EF05
:100B78000E945A1113C2E53BA0E0FA0739F4E5EBED
:100B8800E0937130E4E00E94621108C2EA3EA0E0FE
:100B9800FA0721F4EAEE0E945A1100C2E53EA0E0ED
:100BA800FA0739F4E5EEE0937130E7E00E9462114C
:100BB800F5C1E73EA0E0FA0739F4E7EEE0937130BB
:100BC800E7E00E946211EAC1E036A0E0FA0721F4EA
:100BD800E0E60E945A11E2C1E83EA0E0FA0739F4C3
:100BE800E8EEE0937130E3E00E946211D7C1E93E7C
:100BF800A0E0FA0739F4E9EEE0937130E3E00E94EF
:100C08006211CCC1E03AA0E0FA07D9F40E9467115A
:100C18000E94CE100E94650F0E946C0F24F40E945F
:100C2800740F7394F9CF7724761440F4A72DB0E0AD
:100C3800AE5FBF4F0E946C117394F6CF0E94711182
:100C4800ADC1E13AA0E0FA07C9F40E9467110E9419
:100C580026100E946C0F24F40E9434107394F9CF6C
:100C68007724761440F4A72DB0E0A25EBF4F0E940F
:100C78006C117394F6CF0E94711191C1E23AA0E011
:100C8800FA07D9F40E9467110E9476110E94D20FC8
:100C98000E946C0F24F40E94D90F7394F9CF772423
:100CA800761440F4A72DB0E0AA5ABF4F0E946C11E9
:100CB8007394F6CF0E94711172C1E43AA0E0FA076A
:100CC800D9F40E9467110E94CE100E94D6100E948B
:100CD8006C0F24F40E94DD107394F9CF77247614F6
:100CE80040F4A72DB0E0A659BF4F0E946C11739431
:100CF800F6CF0E94711153C1E63AA0E0FA07D9F481
:100D08000E9467110E94CE100E940A100E946C0F68
:100D180024F40E9411107394F9CF7724761440F4C8
:100D2800A72DB0E0AA58BF4F0E946C117394F6CF5C
:100D38000E94711134C1E73AA0E0FA07C9F40E9491
:100D480067110E9449100E946C0F24F40E945710EA
:100D58007394F9CF7724761440F4A72DB0E0A15C02
:100D6800BF4F0E946C117394F6CF0E94711117C186
:100D7800EA3AA0E0FA07D9F40E9467110E947611B6
:100D88000E94B60F0E946C0F24F40E94BD0F73944A
:100D9800F9CF7724761440F4A72DB0E0A65EBF4FB4
:100DA8000E946C117394F6CF0E947111F8C0EB3A4F
:100DB800A0E0FA07C9F40E9467110E9488100E94F7
:100DC8006C0F24F40E9496107394F9CF772476144C
:100DD80040F4A72DB0E0A65BBF4F0E946C1173943E
:100DE800F6CF0E947111DBC0ED3AA0E0FA07D9F402
:100DF8000E9467110E94CE100E94EE0F0E946C0F95
:100E080024F40E94F50F7394F9CF7724761440F4F4
:100E1800A72DB0E0A75CBF4F0E946C117394F6CF6A
:100E28000E947111BCC0EE3AA0E0FA07C9F40E9412
:100E380067110E94AB100E946C0F24F40E94B91035
:100E48007394F9CF7724761440F4A72DB0E0A65A0E
:100E5800BF4F0E946C117394F6CF0E9471119FC00E
:100E6800EF3AA0E0FA07C9F40E9467110E94890FBF
:100E78000E946C0F24F40E94970F7394F9CF772483
:100E8800761440F4A72DB0E0A85FBF4F0E946C1104
:100E98007394F6CF0E94711182C0E835A0E0FA077A
:100EA800D9F40E9467110E94CE100E94F2100E948D
:100EB8006C0F24F40E94F9107394F9CF77247614F8
:100EC80040F4A72DB0E0A059BF4F0E946C11739455
:100ED800F6CF0E94711163C0EA36A0E0FA07D9F490
:100EE8000E9467110E94CE100E942A110E946C0F66
:100EF80024F40E9431117394F9CF7724761440F4C6
:100F0800A72DB0E0AC59BF4F0E946C117394F6CF77
:100F18000E94711144C0E637A0E0FA07D9F40E9494
:100F280067110E9476110E940E110E946C0F24F422
:100F38000E9415117394F9CF7724761440F4A72DE5
:100F4800B0E0AA5BBF4F0E946C117394F6CF0E9469
:100F5800711125C0E737A0E0FA07D9F40E9467119C
:100F68000E9476110E946C100E946C0F24F40E945B
:100F780073107394F9CF7724761440F4A72DB0E05A
:100F8800AE5BBF4F0E946C117394F6CF0E94711133
:100F980006C0EFEFE09300300E945411222404C0F1
:100FA800EA3CA0E0FA0731F5E2E0E21511F5A0917C
:100FB8000030A13021F4A0910130A13009F003C024
:100FC8000E947E1110C0A0910030AF3021F4A09192
:100FD8000130AF3009F007C00E947E110E94541101
:100FE800E1E0AE2E05C0EFEFE0937130E1E03E2E78
:100FF80022241BC1E53FA0E0FA0711F5E2E0E21563
:10100800F1F4A0910030AF3521F4A0910130AF3553
:1010180009F012C0A5EF0AD1A5EF08D1A5EF0E94EB
:1010280084112224A5E0B0E00E949912E8EDE4BF03
:10103800E1E0E093790003C00E9454112224F5C036
:10104800E53BA0E0FA0749F5E4E0E21529F5772445
:101058009924E3E07E1620F40E9487117394F9CF57
:10106800A09103309A16A9F4E0910030E160E030D5
:1010780011F0E1EA04C0E091003019F0E1E9E093F1
:101088005130A5EBD3D0A5EB0E94841122249924DA
:1010980003C00E9454112224C8C0EA3EA0E0FA0707
:1010A800E1F4E2E0E215C1F477249924E1E07E1648
:1010B80020F40E9487117394F9CFA09101309A16F9
:1010C80041F4AAEEB3D0AAEE0E94841122249924F6
:1010D80003C00E9454112224A8C0E036A0E0FA07F9
:1010E800F1F4E2E0E215D1F477249924E1E07E16E8
:1010F80020F40E9487117394F9CFA09101309A16B9
:1011080051F4A0E693D0A0E091D0A0E00E94841111
:101118002224992403C00E945411222486C0E53E4B
:10112800A0E0FA07E1F4E7E0E215C1F47724992496
:10113800E6E07E1620F40E9487117394F9CFA091FF
:1011480006309A1641F4A5EE71D0A5EE0E948411DE
:101158002224992403C00E945411222466C0E73E29
:10116800A0E0FA07E1F4E7E0E215C1F47724992456
:10117800E6E07E1620F40E9487117394F9CFA091BF
:1011880006309A1641F4A7EE51D0A7EE0E948411BA
:101198002224992403C00E945411222446C0E83E08
:1011A800A0E0FA07E1F4E3E0E215C1F4772499241A
:1011B800E2E07E1620F40E9487117394F9CFA09183
:1011C80002309A1641F4A8EE31D0A8EE0E9484119C
:1011D8002224992403C00E945411222426C0E93EE7
:1011E800A0E0FA07E1F4E3E0E215C1F477249924DA
:1011F800E2E07E1620F40E9487117394F9CFA09143
:1012080002309A1641F4A9EE11D0A9EE0E94841179
:101218002224992403C00E945411222406C0EFEF0F
:10122800E09300300E94541122245AC1AA93E091FD
:10123800A108E072E1F3E881E093A00820C0E0E8AB
:10124800E0936506E3E0E093B509E091B309E07C3B
:10125800E093B309EEE6E093B609E8EAE093B7094C
:10126800E091B409E07EE860E093B4090895AA9398
:10127800E091B109E072E1F3E881E093B0092196C9
:1012880008951A9310E01E3140F4E12FF0E0E25E79
:10129800FF4CA081ECDF1F5FF6CFAAE0E8DFADE0EE
:1012A800E6DFDCC01A930A931FB7F894E0910008B0
:1012B800E07FE560E0930008E0910108E870E093C2
:1012C8000108E0910308E071E0930308E091060843
:1012D800E07FE160E0930608E0910708E070E093A2
:1012E8000708E0919900EE7F0E2FE8EDE4BF009328
:1012F8009900E0918008E07CE0938008E091830801
:10130800E87EE0938308E0E0E0938208A4E8B8E090
:101318000A2EAC91E0918408E470EA2BA02DEC939E
:10132800E0910C08E0930C08E0E0F0E0E09320087E
:10133800F0932108E1E1FAE7E0932608F093270803
:10134800E0E0F0E0E0932808F0932908E0932A0809
:10135800F0932B08E0932C08F0932D08E0932E08C7
:10136800F0932F081FBFAAC01A931FB7F894E091F3
:101378004008E07FE460E0934008E0914108E87CA1
:10138800E0934108E0914308E071E0934308E0915D
:101398004608E07FE160E0934608E0914708E07F77
:1013A800E0934708E0914C08E0934C08E0E0F0E057
:1013B800E0936008F0936108EFE3FCE9E0936608C6
:1013C800F0936708E0E0F0E0E0936808F0936908BC
:1013D800E0936A08F0936B0840C01A931FB7F8941B
:1013E800E0910009E07FE160E0930009E0910109E4
:1013F800E870E0930109E0910309E071E0930309C3
:10140800E0910609E07FE160E0930609E0910709B1
:10141800E070E0930709E0910C09E0930C09E0E023
:10142800F0E0E0932009F0932109EFE3F6EAE09376
:101438002609F0932709E0E0F0E0E0932809F0930B
:101448002909E0932A09F0932B09E0932C09F093DA
:101458002D09E0932E09F0932F091FBF19910895C4
:101468001A930A930FB7F894E0915000E260E09362
:101478005000E0914100E0781E2FE8EDE4BF1093A2
:101488004100E0916000EE7FE0936000E091510040
:10149800E270E1F3E0914000E87FE1601E2FE8EDA3
:1014A800E4BF10934000E0915000E27EE0935000CA
:1014B800E091B400EC7FE093B4000FBF099119915B
:1014C80008950E944611AA2021F0A0917130AF3FE3
:1014D80009F006C00E947A01A1E0B0E00E949912CA
:1014E800E991EFBFF991E991B991A9919991899100
:1014F80079916991F990199009901895189518950E
:10150800F894E091A200E873E5601E2FE8EDE4BFCF
:101518001093A200E0E0E093A100A2DF0E94A504DE
:10152800DDDA8DDE0E9462040E948E11EAEEF1E09F
:101538000E9493110E948E11E6EFF1E00E94931130
:101548004CDFB0DE11DF78940E948E11E4E0F2E007
:10155800FA93EA9380E061D3249693DE0E949A017D
:10156800A1E0B0E00E94E714E23010F0E93C28F076
:10157800A1E0B0E0E1E00E94F014A1E0B0E00E9438
:10158800E714EF5F0E94F014A0917130AF3FE9F0CB
:101598000E948E11E0E1F2E0FA93EA93E091713053
:1015A8000E949F11E09100300E949F11E09101304C
:1015B8000E949F11E09102300E949F11E32D0E942A
:1015C8009F1184E12AD368965CDEDECFFFCFBA9301
:1015D800AA931A930A93AA81BB8112960E94B71400
:1015E800309729F1AA81BB8114960E94B7148F0104
:1015F800309761F00230E0E01E0780F0F801319783
:101608008F01AA81BB811496ED93FC93AA81BB81BB
:1016180012960E94A5113197AC81A083AA81BB8143
:101628000E94B714FF2312F00E94A51106C0AA81D8
:10163800BB81EFEFFFEFED93FC93198108812596AD
:1016480008950E94AB11E0E8EA83EFE3EB830E9480
:101658002015EE85FF85EF3FAFEFFA0749F4E885DF
:10166800F985FA93EA93A0E3B2E00E94450EB7C069
:10167800EF3FAFE7FA0749F4E885F985FA93EA936B
:10168800A1E3B2E00E94450EAAC0AB85A73010F0D6
:10169800E6E0EB871B85E12F1150E03019F00E943E
:1016A800B211F9CFEC85FD856E857F850E941A15EC
:1016B80021F430E00E94B2112DC03B850E94C11177
:1016C80009F008F40BC00E94B2110E94C11128F061
:1016D8000E94CC110E94D111F8CF0DC00E94C111F7
:1016E80040F40E94CC110E94DD110E94E411315097
:1016F800F5CF0E94B211EC85FD856E857F850E942D
:10170800E9110E94E4110E94C11120F00E94CC113D
:101718000E94D11110E0EB85E117A8F1AC81BD81E1
:101728008E819F810E94F0110E94E911DF01CB0197
:101738000E949C0EEC83FD836E837F830E94CC11F4
:101748000E94E7130E94D6120E2F0E94F7110E94E2
:10175800FE11FF27662777270E940F13AC81BD81F2
:101768008E819F810E9499130E94CC110E940312BE
:101778000E94E411E12F1F5FE03069F60E94F71123
:10178800EEE2EC93C8CF0E9408123197AA85A08395
:1017980030302CF43195A885B985EDE203C0A885D1
:1017A800B985EBE2EC930E9408120E940812319767
:1017B800BF01A32FEAE00E947114E05DDB01EC9306
:1017C8000E9408123197BF01A32FEAE00E949B14E0
:1017D800E05DDB01EC93A885B985E0E0EC930E941D
:1017E800271560960895BA93AA93EF9761970E9478
:1017F8001E1510E0FE01E85AFF4F0190F081E02D20
:10180800E887F987FE01EA5AFF4F0190F081E02D41
:10181800EE83FF83AE81BF81E0E0F0E0ED93FC93BF
:10182800DE01A45ABF4F0E94A5113197E4912E2FD3
:10183800E03009F4E9C1E12FE03039F4253211F440
:1018480011E002C00E940E12DEC1E130C1F425325F
:1018580019F40E940E12D6C112E0E0E0ED8B00E010
:101868002D3211F401E0CFC12B3219F4EBE2ED8BEC
:10187800CAC1203219F4E0E2ED8BC5C102C0E230E2
:1018880039F450E013E0203311F40068BCC102C001
:10189800E33091F4203310F02A3308F007C0AAE0AF
:1018A8005A9F502DE22FE0535E0FADC140E02E321B
:1018B80011F414E0A8C10FC0E43099F4203310F0FB
:1018C8002A3308F008C00062AAE04A9F402DE22FA0
:1018D800E0534E0F98C12C3619F4026015E093C1FD
:1018E80003C0E53009F08FC1E22FE33659F40E94B6
:1018F80015120E941C120E941512A481AA930E941C
:10190800231280C1E53411F0E53609F403C0E63648
:1019180009F048C0FE017696EE87FF870E942912DB
:101928000E94BB140E9430120E943512AD85AA2372
:1019380032F0AD89AB3259F0A03281F017C00E9465
:1019480037120E94A3120E943012EDE2ED8B07FFBE
:1019580005C0ED89EA930E94231208C0EE85FF8531
:101968003196EE87FF873197AD89A08305FF46E062
:10197800263651F40E9437120E94D0144A93AB893C
:10198800BC890E94B30E09C00E9437120E94D0146D
:101998004A932A93AC89BD8954DEFE0176960E944B
:1019A8003C121EC0E33739F40E9435120E944412DB
:1019B8000E943C120EC0E037C1F40E9435120E940A
:1019C8004412EE87FF87AE85BF850E945E0E1E2FEC
:1019D80008600F77403011F0411708F001C0142F4C
:1019E80040E0E0E0EC8B30E06DC0E43611F0E93621
:1019F80011F4046002C0E537A1F4EAE0EC8B01FFC2
:101A080008C0E0E0FAEC6AE97BE30E9449121AE0B8
:101A180022C0E0E1F7E260E070E00E94491215E0C0
:101A28001AC0E83511F4086003C0E83709F0EAC0C5
:101A3800E0E1EC8B01FF08C0E0E0F0E060E070E17D
:101A48000E94491218E007C0E0E0F0E160E070E0B1
:101A58000E94491214E0403011F00F7701C041E0B4
:101A680001FF08C00E9435120E94291214960E9494
:101A7800BB140FC002FF07C00E9435120E94441217
:101A88000E945E1406C00E9435120E944412662706
:101A98007727EA87FB876C877D8702FF12C0AD85B1
:101AA800AA2342F40E9437120E9450140E94301256
:101AB800EDE2ED8BED89E03019F01F5F4F5F01C05B
:101AC8000B7F342F00FD14C0151710F4351708F0DC
:101AD8000FC007FF08C002FF04C00B7F2D891150FB
:101AE80001C020E301C020E20E940E125150ECCF49
:101AF800141790F4006102FF06C00E944E1209F00C
:101B0800515011504150E0E3EA930E9423125030A3
:101B180009F051504150ECCF312FEC89E030B9F445
:101B28003030A1F003FF06C0EE85FF852591EE87D2
:101B3800FF8705C0AE85BF852D91AE87BF870E9400
:101B48000E12503009F051503150EACF51C00E9466
:101B580060120E9476142E2F2A3030F003FF02C044
:101B6800295C01C0295A01C0205D04FD21C0213330
:101B780060F4A889B9898A899B89A130E0E0BE0709
:101B8800E0E08E07E0E09E0709F40BC0431740F43D
:101B9800531710F000FF01C010C020E207FF08C073
:101BA80020E3006102FF04C00E944E1209F0515068
:101BB8000E940E12503009F0515031500E946012AC
:101BC8000E94A7140E943012EC89A889B9898A89D1
:101BD8009B89FF27662777270E9476140E9449125F
:101BE800E889F9896A897B890E941A1509F0AFCFBB
:101BF80000FF08C0503031F05150E0E2EA930E94F3
:101C08002312F8CF10E00CCEAE81BF810E94B7142A
:101C18000E942515EF966F960895FF92F82E269745
:101C28000E9420150E946912309719F4EFEFFFEF18
:101C380023C0DE0116960E944C148D010E94691281
:101C4800EE83FF83E0E0E887E987DE011A960E94C9
:101C58004C140E94B714FA93EA931A930A93EBEE82
:101C6800FAE0FA93EA93DE011A96BDDD9F01AE8190
:101C7800BF81E0E0EC93F9010E9427152A96FF90B6
:101C88000895BA93AA93E991F991A991B991CD01CF
:101C980005900D920020E1F7FC010895BA93AA93EC
:101CA800A991B991EE27FF276D91662311F031961E
:101CB800FBCF0895BA93AA93AA27BB27E991F99174
:101CC8000590002011F01196FBCFFD0108950E94A8
:101CD800D5147B816A81F981E88177FB770F67FDED
:101CE8007160972F9E5781F078F0983190F4AA2769
:101CF800BB27882708948795B795A7959A95D1F714
:101D0800EA23FB23682305C0E8947727EE27FF27FB
:101D180066276F77769508F4606877F9A991B99185
:101D280089919991EA17FB076807790797FB089546
:101D38000E94D5140E94C6140E946B0E0E94CB14F8
:101D480019F40E94C11409C0E6F70E94C114A0E06A
:101D5800B0E080E89FE30E94421324960895F7D2EA
:101D6800E0E0EA83EFE3EB831A930A93EB85FC85C3
:101D7800EF3FAFEFFA0731F4AFD3A8E3B2E00E9428
:101D8800450E8AC0EF3FAFE7FA0731F4A5D3A9E3C0
:101D9800B2E00E94450E80C0AC85AA2352F4E985C2
:101DA800FA856B857C850E94A3129BD39FD3EDE2B5
:101DB800EC93A885A73010F0E6E0E8871885E12FB6
:101DC8001150E03021F099D307D39CD3F8CF9FD39B
:101DD8000E94491386D310E0E0E0F0E060E87FE37A
:101DE80091D395D30E942C1468F087D3E2D28AD37A
:101DF8001F5F173230F070D3ADE3B2E00E94450E9A
:101E08004BC0EFCF103021F471D3E0E3EC9320C046
:101E1800E12F1150E030E1F070D3DED2D6D2DF01ED
:101E2800CB010E949C0E6ED372D30E94E7130E94CE
:101E3800D6120E2F5BD3DED2F0E05FD30E945E1481
:101E48000E940F130E9499136BD3D9D24AD3E0CFC3
:101E5800E885E030E9F04AD3EEE2EC93E885E1501A
:101E6800E887EF5FA9F05CD3A4D23BD3E985FA8574
:101E78006B857C850E94D6120E2F38D3BBD2F0E03A
:101E88004FD30E945E140E940F13B9D22AD3E6CF13
:101E9800AE81BF81E0E0EC93198108812D96089509
:101EA800A1E0B0E00E94E714EF3F0895E0E00E944F
:101EB800F014E6E06E2EE1E07E2EE62DF0E031979C
:101EC8000895EE5FFF4FDF01E0E00E94F0140895EF
:101ED800E62DF0E03197A72DB0E0AE17BF070895C3
:101EE800E62DF0E03197EE5FFF4FBF01DF010E9462
:101EF800E7140E2EA72DB0E0AE5FBF4F0E94E71487
:101F0800E00DDB010E94F0140895E2E16E2EE1E09D
:101F18007E2EE62DF0E03197E85FFF4FDF01E0E02D
:101F28000E94F0140895E62DF0E03197E85FFF4F26
:101F3800BF01DF010E94E7140E2EA72DB0E0A85FB5
:101F4800BF4F0E94E714E00DDB010E94F0140895D2
:101F58000E94F014E4E06E2EE1E07E2EE62DF0E023
:101F680031970895E65EFF4FDF01E0E00E94F0142C
:101F78000895E62DF0E03197E65EFF4FBF01DF01DF
:101F88000E94E7140E2EA72DB0E0A65EBF4F0E9458
:101F9800E714E00DDB010E94F0140895EA5AFF4FA0
:101FA800DF01E0E00E94F0140895E62DF0E031979B
:101FB800EA5AFF4FBF01DF010E94E7140E2EA72D3A
:101FC800B0E0AA5ABF4F0E94E714E00DDB010E945F
:101FD800F0140895E75CFF4FDF01E0E00E94F01481
:101FE8000895E62DF0E03197E75CFF4FBF01DF0170
:101FF8000E94E7140E2EA72DB0E0A75CBF4F0E94E9
:10200800E714E00DDB010E94F0140895EA58FF4F31
:10201800DF01E0E00E94F0140895E62DF0E031972A
:10202800EA58FF4FBF01DF010E94E7140E2EA72DCB
:10203800B0E0AA58BF4F0E94E714E00DDB010E94F0
:10204800F0140895EBE16E2EE1E07E2EE62DF0E02F
:102058003197E25EFF4FDF01E0E00E94F01408953F
:10206800E62DF0E03197E25EFF4FBF01DF010E94ED
:10207800E7140E2EA72DB0E0A25EBF4F0E94E71412
:10208800E00DDB010E94F0140895E3E06E2EE1E01C
:102098007E2EE62DF0E03197E15CFF4FDF01E0E0B6
:1020A8000E94F0140895E62DF0E03197E15CFF4FAF
:1020B800BF01DF010E94E7140E2EA72DB0E0A15C3E
:1020C800BF4F0E94E714E00DDB010E94F014089551
:1020D800EE5BFF4FDF01E0E00E94F0140895E62D6B
:1020E800F0E03197EE5BFF4FBF01DF010E94E7147C
:1020F8000E2EA72DB0E0AE5BBF4F0E94E714E00D97
:10210800DB010E94F0140895ECE06E2EE1E07E2ED3
:10211800E62DF0E03197E65BFF4FDF01E0E00E943B
:10212800F0140895E62DF0E03197E65BFF4FBF010C
:10213800DF010E94E7140E2EA72DB0E0A65BBF4F6B
:102148000E94E714E00DDB010E94F0140895EAE014
:102158006E2EE1E07E2EE62DF0E03197E65AFF4F35
:10216800DF01E0E00E94F0140895E62DF0E03197D9
:10217800E65AFF4FBF01DF010E94E7140E2EA72D7C
:10218800B0E0A65ABF4F0E94E714E00DDB010E94A1
:10219800F0140895E6E06E2EE1E07E2EE62DF0E0E4
:1021A80031970895E659FF4FDF01E0E00E94F014EF
:1021B8000895E62DF0E03197E659FF4FBF01DF01A2
:1021C8000E94E7140E2EA72DB0E0A659BF4F0E941B
:1021D800E714E00DDB010E94F0140895E059FF4F69
:1021E800DF01E0E00E94F0140895E62DF0E0319759
:1021F800E059FF4FBF01DF010E94E7140E2EA72D03
:10220800B0E0A059BF4F0E94E714E00DDB010E9427
:10221800F0140895EA5BFF4FDF01E0E00E94F0143C
:102228000895E62DF0E03197EA5BFF4FBF01DF012B
:102238000E94E7140E2EA72DB0E0AA5BBF4F0E94A4
:10224800E714E00DDB010E94F0140895EC59FF4FEC
:10225800DF01E0E00E94F0140895E62DF0E03197E8
:10226800EC59FF4FBF01DF010E94E7140E2EA72D86
:10227800B0E0AC59BF4F0E94E714E00DDB010E94AB
:10228800F01408950A921A92FA926A937A938A93AA
:102298009A93AA93BA93EA93FA93EFB7EA930895B5
:1022A800EFEFE0937130E1E03E2E0895E093713056
:1022B800E2E03E2EEFEFE093003008953E2EEFEF80
:1022C800E09300300895EFEFE09300302224089562
:1022D8000E94E714AE2F0C941A096624EFEFE093DE
:1022E80071300895E4E06E2EE1E07E2EE62DF0E0F8
:1022F80031970895AAEC0E941A09AAEC0C941A09BD
:102308000E941A09CDCFE72DF0E0E050F04DE081B2
:102318009E0E0895EEE1F0E3FA93EA930895FA9396
:10232800EA9380E00E94110E24960E944509A2E3D8
:10233800B0E00C949912FF27662777270E94D014E3
:1023480008950E94B7143196ED93FC930895BA93BB
:10235800AA932497E0E0E883E9830895AC81BD81DE
:102368008E819F81E0E0F0E060E271E40E949913C1
:10237800EC83FD836E837F830895EC81FD816E81FC
:102388007F81AC85BD858E859F850E942C1408951C
:10239800AC85BD858E859F850895EDECFCEC6CECD5
:1023A8007DE30E949913EC87FD876E877F873F5FE7
:1023B8000895E0E0F0E060E271E40E949913089566
:1023C800EC87FD876E877F870895A0E0B0E080E006
:1023D8009FE30E9449130895EDECFCEC6CEC7DE35F
:1023E8000E9499130895A885B9851196A887B98779
:1023F80011970895E02FE05DEC93E02F08950E9477
:10240800DA140E9442130895E885F9853196E88721
:10241800F98708952A93AF81B885E985FA850995E2
:102428000895FE01E65AFF4F0190F081E02D0895CE
:102438003497DE01A65ABF4FED93FC930895AF8100
:10244800B885E985FA8509950895DE01A65ABF4F32
:102458000D90BC91A02D0895EA87FB876C877D8736
:102468000895DFDFE5CFEA85FB856C857D850895D6
:10247800EE87FF87AE85BF850E94520E1E2F0895F6
:10248800E4DF14960E94B7140895E88BF98B6A8BE1
:102498007B8B08950B7FED89EA93DE01A95ABF4F24
:1024A8000D90BC91A02DFE01E75AFF4F0190F081DD
:1024B800E02D099550300895E889F9896A897B8962
:1024C800AA85BB858C859D850895DE011C960E9492
:1024D8004C140E94B7140895EE81FF81FA93EA9391
:1024E8000895E987FA876B877C870895AE81BF8155
:1024F8001196AE83BF8311970895AA81BB818C8101
:102508009D810895EA83FB836C837D830895EA8126
:10251800FB816C817D81A985BA858B859C85089511
:10252800A985BA858B859C850895109639F080E435
:102538009FE10197F1F7A8951197C9F7089530978A
:102548006040704009F070580895552342F450389F
:1025580011F4E0FF04C03196691F791F6BF050E851
:10256800572711F45F93CFC05F3F31F0660F000C1F
:1025780057956795752F08955F9300200AF0CFC08F
:10258800C8C050E8192E1522880F991F9527550F96
:10259800879550E8072E0522660F771F7527550F78
:1025A80067950895689401C0E8945F93F2DF7038E6
:1025B80018F07F3F08F4A7C056E1571BAAF45195BD
:1025C80058300EF4593030F0EFEFFFEF6FEF7FE740
:1025D80077F91AC077275523B9F0EE0FFF1F661F4A
:1025E800771F5A95D1F710C07727583028F0EF2F6A
:1025F800F62F672F5850F9CF552331F07695679508
:10260800F795E7955A95D1F700200AF445D15F91DF
:102618000895689401C0E894309760407040B1F024
:10262800002426F0772312F4009436D1172E7EE189
:10263800112032F07A95EE0FFF1F661F111CF9CF9B
:10264800EF2FF62F612D5F938ADF5F9108954F93E7
:10265800AF01FD01DA01AB01BC01CA01402D012C1B
:10266800142E4F910895EA0FFB1F681F0895E095F7
:10267800F0956095EF5FFF4F6F4F08955F9381DF8F
:10268800903871F150E8152604C05F937ADF9038CE
:1026980039F1703821F1572F591B2BF112F4D7DF7C
:1026A800FACF583118F0AA27BB278827583028F0C6
:1026B800AB2FB82F88275850F9CF552329F0869586
:1026C800B795A7955A95D9F7502D512572F0CBDFBC
:1026D80038F46795F795E795739513F420C0B7DF3D
:1026E8003EDF5F910895D8F7FBCFEA1BFB0B680B21
:1026F80051F010F40094BBDF662392F3EE0FFF1F36
:10270800661F7A95CBF7EE27FF27662777275F9115
:102718000895EFEFFFEF6FE77FEF5F910895EFEF19
:10272800FFEF6FE77FE75F9108955F932ADF7038C7
:1027380051F3903841F301240894791F23F41CF3D2
:1027480000203AF3ECCF0F921F932F933F934F93B0
:10275800112722279927689FA0018F9F302D410DAF
:10276800591F6B9F300D411D591F8E9F27D0BF9F4A
:1027780025D06A9F23D0BE9F1DD0AF9F1BD0AE9F90
:10278800110D291F391F491F591FE32FF42F652FDA
:10279800522F4F913F912F911F910F9066232AF04E
:1027A800550FEE1FFF1F661F02C073954BF2CDDE5B
:1027B8005F910895100D211D391F02C0200D311D94
:1027C800491F591F08955F93DCDE703821F41120EA
:1027D8000AF49FCFA4CF903809F495CF0124089428
:1027E800970B1BF4D4F30020F3CF792F1F932F936B
:1027F8003F934F9311241127222733274427552726
:1028080090E2AE17BF078607410730F0AE1BBF0B3B
:10281800860B410B089401C08894551F221F331F53
:10282800111CAA1FBB1F881F441F9A9551F7F90155
:10283800612D4F913F912F911F91662332F0550FD3
:10284800EE1FFF1F661F7A9543F27FDE5F910895A2
:1028580099239AF0772342F0971748F029F4AE1796
:10286800BF07860720F031F09894889408959894CB
:10287800089408951894889408957723C2F79717B1
:1028880098F3A9F7EA17FB07680788F399F3ECCFE1
:102898000024AF0DB01D0895F09560957095E195F1
:1028A800FF4F6F4F7F4F0895FE2FFF0FFF0B6F2FC6
:1028B8007F2F08956F2F660F660B762F08950024DB
:1028C80098E0AA0F001C0E1A10F40E0E01C0A160A9
:1028D8009A95B9F7EA2FA02D089539D0F0DF0EF4B4
:1028E800E19508953F934F935F9300241124442763
:1028F800552730E2AA0FBB1F881F991F001C111C07
:10290800441F551F0E1A1F0A460B570B28F40E0EAC
:102918001F1E461F571F01C0A1603A9559F7FD01B8
:10292800BC01D001CA015F914F913F910895E8948D
:10293800A7FF02C0A1956894E7FDE195C0DFEA2FE3
:102948000EF4E1950895CEDFFD01BC010895E894E9
:10295800E7FF02C0E1956894A7FF04C0A19500F8BD
:10296800039400FA0895ED91FC9111970895ED9163
:10297800FD916D917C9113970895E881F9816A81A1
:102988007B810895A881B9818A819B810895E88314
:10299800F9836A837B8308957A936A93FA93EA9317
:1029A80008959A938A93BA93AA930895182E862F16
:1029B800612D192E972F712D1B2EBF2FF12D1A2E39
:1029C800AE2FE12D0895A895E091CF01E7FDFBCF4B
:1029D800B05FEC91B051089523D0B05F8C918E1701
:1029E80011F4B05108959E2F1BD07F937FB7F894B0
:1029F8009C93B051A093C001B093C10180E0809333
:102A0800C20185E38093CA0188ED91E084BF909369
:102A1800CB0106D080E08093CA017FBF7F910895E3
:102A2800A8958091CF0187FDFBCF0895309760402E
:102A3800704008955A934A933A932A931A930A93A3
:102A480008955D814C813B812A811981088108950F
:00000001FF
