:060000000C9494020C9424
:1000060000000C9400000C9400000C9400000C946A
:1000160000000C9400000C9400000C9400000C945A
:1000260000000C9400000C9400000C9400000C944A
:1000360000000C944A160C9400000C9400000C94DA
:1000460000000C9400000C9400000C947B160C9499
:1000560000000C9400000C9400000C9400000C941A
:1000660062090C9400000C9400000C9400000C949F
:1000760000000C9400000C9400000C9400000C94FA
:1000860000000C9400000C9400000C9400000C94EA
:1000960000000C9400000C9400000C9400000C94DA
:1000A60000000C9400000C9400000C9400000C94CA
:1000B60000000C9414100C9400000C9400000C9496
:1000C60000000C9400000C9400000C9400000C94AA
:1000D60000000C9400000C9400000C9400000C949A
:1000E60000000C9400000C9400000C9400000C948A
:1000F60000000C9400000C9400000C9400000C947A
:1001060000000C9400000C9400000C9400000C9469
:1001160000000C9400000C9400000C9400000C9459
:1001260000000C9400000C9400000C9400000C9449
:100136006F170C9400000C9400000C9400000C94B3
:1001460000000C9400000C9400000C9400000C9429
:1001560000000C9400000C9400000C9400000C9419
:1001660000000C9400000C9400000C9400000C9409
:1001760000000C9400000C9400000C9400000C94F9
:1001860000000C9400000C9400000C9400000C94E9
:1001960000000C9400000C9400000C9400000C94D9
:1001A60000000C9400000C9400000C9478170C943A
:1001B60000000C9400000C9400000C9400000C94B9
:1001C60000000C9400000C9400000C9400000C94A9
:1001D60000000C9400000C9400000C9400000C9499
:1001E6000000DE02DF02EB02EB02F60203030E035F
:1001F6001903290333033C034E036103720381038E
:100206009203A20320222A2B2C5B3D5D7C7F0000FB
:1002160000040002000180004000200010000800D9
:1002260004000200000000800040002000100008CA
:10023600004000200010000800040002FF0000003B
:1002460000000000000000000000010000000100A6
:100256000000B207000080DE28008033E1010000C4
:1002660000001F0000001C0000001F0000001E0010
:1002760000001F0000001E0000001F0000001F00FD
:1002860000001E0000001F0000001E0000001F00EE
:100296000000000000001F0000001C0000001F00FE
:1002A60000001E0000001F0000001E0000001F00CE
:1002B60000001F0000001E0000001F0000001E00BE
:1002C60000001F000000303A2F746573742E747896
:1002D60074000100030001000046525F4449534B7D
:1002E6005F4552520046525F494E545F4552520096
:1002F60046525F4E4F545F52454144590046525F45
:100306004E4F5F46494C450046525F4E4F5F504147
:1003160054480046525F494E56414C49445F4E414F
:100326004D450046525F44454E4945440046525F9E
:1003360045584953540046525F494E56414C49442C
:100346005F4F424A4543540046525F57524954450F
:100356005F50524F5445435445440046525F494E00
:1003660056414C49445F44524956450046525F4EF9
:100376004F545F454E41424C45440046525F4E4FF6
:100386005F46494C4553595354454D0046525F4DBF
:100396004B46535F41424F525445440046525F54C8
:1003A600494D454F5554004552524F523A202570FB
:1003B6000D0A00303A2F256C642E62696E002536D0
:1003C6006C64004C6F676963616C20647269766562
:1003D60020303A206D6F756E746564204F4B0D0AA0
:1003E6000046696C652025732063726561746564D7
:1003F600204F4B0D0A007468697320697320746579
:100406007374002575206279746573207772697438
:1004160074656E206F662025750D0A0066696C6529
:1004260020736420636172640046696C65202573DD
:1004360020636C6F736564204F4B0D0A0046696C30
:10044600652065737420797A6500253248007374D7
:1004560061727420693263006275662069326320B6
:100466007374617274206F6B00626D702069326301
:10047600207374617274206F6B005350492053547B
:100486004152540061643737303520737461727499
:10049600206F6B007374617274206465766963659E
:1004A600005354415254205748494C45000001001E
:1004B600EBFE904D53444F53352E30004E4F204E99
:1004C600414D452020202046415433322020200033
:1004D6004E4F204E414D452020202046415420209D
:1004E600202020002D4E414E000001002D4E414E91
:1004F60000494E46000001003C3142020B00A9357E
:10050600CC020100B535D80201001E36DA02010020
:10051600A536DC020100AF36B4040100B836F0049B
:100526000000F894EE27F091CC01F860F093CC012E
:10053600F8EDF4BFE093A200A0918000AD7FA1602A
:10054600F4BFA093800080E090E4A0E0B0E2ED93D9
:100556000197E9F7ECEFF4E085919591009761F04A
:10056600A591B59105901590BF01F00105900D92EA
:100576000197E1F7FB01F0CF8BBF8CBFE0E0E0B95C
:10058600E1B9E2B9E3B9E4B9E5B9E6B9E7B9E8B979
:10059600E9B9EAB9EBB9ECB9EDB9EEB9EFB92E2E76
:1005A600E1E03E2EE0E04E2E5E2E7E2E8E2E9E2E1C
:1005B600AE2EBE2ECE2EDE2EEFEFEDBFEFE5EEBF5A
:1005C600C0E0D0E30C94DB17AA931A93E2E0E09321
:1005D600CA01E981F0E01491E0E0E093CA01E12F5D
:1005E6001881E1C3A0E2F0DFE0930C02A1E2ECDFA8
:1005F600E0930D02E0E0E0930102E3E0E093040201
:10060600E1E1E0930202E0E0E0931802E0931902D0
:10061600E1E0E0932002E0E2E0932102E1E0E093F2
:100626002802E8E2E0932902E1E0E0933002E0E309
:10063600E0933102E1E0E0933802E8E3E093390227
:10064600E0E0E0930302E0932202E0932A02E093C3
:100656003202E0933A02E0910002E160E093000288
:100666004CC0AA930E94A040EC81F0E0A0E2B2E068
:100676000E94B433F801A381A170E1F34FC0A4E254
:10068600A3DFE0934C02A5E29FDFE0934D02E0E09A
:10069600E0934102E3E0E0934402E0E1E0934202AA
:1006A600E0E0E0935802E0935902E1E0E093600253
:1006B600E0E0E0936102E1E0E0936802E8E0E093C5
:1006C6006902E1E0E0937002E0E1E0937102E1E0AB
:1006D600E0937802E8E1E0937902E0E0E0934302F8
:1006E600E0936202E0936A02E0937202E0937A0278
:1006F600E0914002E160E093400285E18A95F1F7DE
:100706000895AA930E94A040EC81F0E0A0E6B2E032
:100716000E94B433F801A381A170E1F3D8011396C6
:10072600E1E0EC93F80124813581F9010E94A740AC
:10073600259608951A930A93E091E407EE7FE093D5
:10074600E40710E000E0163188F4103031F0E12FB4
:10075600F0E0EA5FFE4CE0810E0FE12FF0E0EA5F89
:10076600FE4CA0810E94520E1F5FEDCF00931C31FC
:10077600A0911C310E94520EE091E407E160E093E3
:10078600E407099119910895E0EAE0936E30E0E3F9
:10079600E0936F30E3E3E0937030E5E3E09371308C
:1007A600E0E0E09372300E94BE33E259FF4CA0E0D5
:1007B600A0830E94C63324F40E94CE338394F9CFDB
:1007C600BB24EFEAE0937430E1E0E0937530E3E6B2
:1007D600E0937630E0E6E0937730E4E6E093783035
:1007E600E0E0E0937930E0937A30E0937B30E09379
:1007F6007C30E0937D30E0937E30E0937F30E8E913
:10080600E0938030EAE3E0938130ECEDE0938230D0
:10081600E5E0E0938330E09384300E94DE330E946B
:10082600C63324F40E94EA338394F9CFBB24EAEA60
:10083600E0938630E0E6E0938730EAEEE093883096
:100846000E94FA33EA57FF4CA0E0A0830E94C63309
:1008560024F40E9402348394F9CFBB24E2EAE093A5
:10086600C230E1E0E093C330E0E0E093C4300E94A0
:10087600FA33EE53FF4CA0E0A0830E94C63324F463
:100886000E9412348394F9CFBB24EDEAE093A5309D
:10089600EAE5E093A630E0E0E093A730EAE5E093EE
:1008A600A830E0E0E093A9300E94BE33EB55FF4C40
:1008B600A0E0A0830E94C63324F40E9422348394CD
:1008C600F9CFBB24E6EAE093E230E0E0E093E330E0
:1008D600E093E430E1E0E093E530E0E0E093E630F9
:1008E6000E94BE33EE51FF4CA0E0A0830E94C633A7
:1008F60024F40E9432348394F9CFBB24E1EAE093D6
:100906008A30E3E5E0938B30E5E7E0938C30EEE662
:10091600E0938D30E0E2E0938E30E3E5E0938F30B4
:10092600E5E6E0939030E0E7E0939130E0E2E09393
:100936009230E2E3E0939330E1E3E0939430E0E237
:10094600E0939530E2E3E0939630E3E3E09397306B
:10095600EAE3E0939830E3E3E0939930E6E3E0934B
:100966009A30EAE3E0939B30E2E3E0939C30E4E3E1
:10097600E0939D30E0E2E0939E30E2E3E0939F3027
:10098600E0E3E093A030E1E3E093A130E4E3E09319
:10099600A230E0E0E093A3300E9442340E94C633C6
:1009A60024F40E944E348394F9CFBB24E7EAE09303
:1009B600AB30E2E4E093AC300E945E340E94C63372
:1009C60024F40E946A348394F9CFBB24E7E7E093CA
:1009D600AE30E0E0E093AF30ECEFE093B0300E9451
:1009E600FA33E255FF4CA0E0A0830E94C63324F4FC
:1009F6000E947A348394F9CFBB24EBEAE093B630B5
:100A0600E5E7E093B730EEE6E093B830E7E3E0934E
:100A1600B930E0E3E093BA30E2E3E093BB30E2E6DC
:100A2600E093BC30EEE0E093BD30E4E0E093BE300E
:100A3600E4E1E093BF30EEE0E093C0300E948A34F8
:100A46000E94C63324F40E9496348394F9CFBB24C3
:100A5600EEEAE093C630EFEFE093C730E093C8309C
:100A6600E093C930E093CA30E093CB30E093CC30CA
:100A7600E093CD30E093CE300E94A6340E94C63378
:100A860024F40E94B2348394F9CFBB24E4EAE093C1
:100A9600D630E0E0E093D730ECEFE093D830E8E6EC
:100AA600E093D930E7EFE093DA300E94BE33EA52A2
:100AB600FF4CA0E0A0830E94C63324F40E94C234F7
:100AC6008394F9CFBB24E8E5E093DC30E0E0E093E3
:100AD600DD30E093DE30E1E0E093DF30E0E0E0930C
:100AE600E0300E94BE33E452FF4CA0E0A0830E9497
:100AF600C63324F40E94D2348394F9CFBB24E6E7AC
:100B0600E093B230EFEFE093B330E093B4300E945D
:100B1600FA33EE54FF4CA0E0A0830E94C63324F4BF
:100B26000E94E2348394F9CFBB24EAE6E093D03006
:100B3600E0E0E093D130E093D230E093D330E0931D
:100B4600D4300E94BE33E053FF4CA0E0A0830E9445
:100B5600C63324F40E94F2348394F9CFBB2408955B
:100B6600E5EAE0930631E0E4E0930731EFE1E09354
:100B76000831E8E7E0930931E0E0E0930A31EBEB76
:100B8600E0930B31EBE0E0930C31E0E0E0930F31C2
:100B9600E8E0E0931031EDEAE0931131EDE0E09307
:100BA6001231ECEAE0931331EDE0E0931431E0E129
:100BB600E0931531E7E2E0931631E0E0E093173178
:100BC600E4E0E0931831E0E0E0931931E6E0E093E9
:100BD6001A31E0E0E0931B310895E0E0E09304066B
:100BE600E0930006E0931006E0931106E0931206E8
:100BF600E0931306E0931406E0931506E0931606B9
:100C0600E0931706E0910906E07FE0930906E0E02D
:100C1600E0930A06E0930B06E0932406E093200691
:100C2600E0933006E0933106E0933206E093330614
:100C3600E0933406E0933506E0933606E0933706F4
:100C4600E0912906E07FE0932906E0E0E0932A069A
:100C5600E0932B060E940235E0E0E0935006E09315
:100C66005106E0935206E0935306E0935406E09350
:100C76005506E0935606E0935706E0914906E07F55
:100C8600E0934906E0E0E0934A06E0934B06E0E88D
:100C9600E0936406E0936006E0E0E0937006E0937C
:100CA6007106E0937206E0937306E0937406E09390
:100CB6007506E0937606E0937706E0916906E07F95
:100CC600E0936906E0E0E0936A06E0936B06E09342
:100CD6008406E0938006E0918006E061E09380065A
:100CE600E0E0E0939006E0939106E0E1E09392065F
:100CF600E0E0E0939306E0939406E0939506E09394
:100D06009606E0939706E0918906E07FE0938906D0
:100D1600E0E0E0938A06E0938B06E093A406E09376
:100D2600A006E093B006E093B106E093B206E09326
:100D3600B306E093B406E093B606E093B706E091F7
:100D4600A906E07FE093A906E0E0E093AA06E09317
:100D5600AB06EFE0E093E407E093E007E0E0E09322
:100D6600F007E093F107E091E907E07FE093E907F8
:100D7600E0E0E093EA07E093EB070895BA93AA93BD
:100D8600E0E1E0932104E0912104E071E1F7E091D4
:100D96002404F09125046091260470912704A8810B
:100DA600B9810E940440229608951A93E8EDE4BFA3
:100DB600E091F000E260E093F000E0915200EF7DF8
:100DC600E0935200E12FEE7FE8601E2FE8EDE4BFCE
:100DD6001093F000E091F100E870E1F31460E8EDA3
:100DE600E4BF1093F000E0E0E0932004E0912104DA
:100DF600E171E1F70E940935E0912104E061E09399
:100E060021040E941635E0932C04F0932D04609380
:100E16002E0470932F04E1E0E0932004E0E0E093D9
:100E2600220419910895E8EDE4BFE0E0E093200480
:100E3600E0912104E171E1F70E9409350E941B351A
:100E4600E0932404F093250460932604709327040A
:100E5600E0912104E061E0932104E1E0E0932004C5
:100E66000895BA93AA93EF97659784E5A0E0B0E05A
:100E7600E4E4F2E00E94AC40FE01E85AFF4F019024
:100E8600119061917081F0010E9424350E942B35EA
:100E96000E949B3EFE01E45AFF4FA193B1938193BA
:100EA6009083EC8DFD8D6E8D7F8D0E942B350E947B
:100EB60094404CF50E9434350E94393549F40E941D
:100EC60042350E94473519F40E94503509F401C095
:100ED60003C00E945A3502C00E9416350E945F3533
:100EE6000E946235EC8FFD8F6E8F7F8F0E943435A6
:100EF6000E946F350E947435AC8DBD8D8E8D9F8D91
:100F06000E947935CECF0E948B3539F40E948D35FB
:100F160019F40E94503509F401C003C00E945A35E5
:100F260002C00E9416350E945F350E948F3529F057
:100F3600EDE1F0E060E070E004C0ECE1F0E060E0DC
:100F460070E0E8A7F9A76AA77BA7E88DF98D6A8DF7
:100F56007B8D0E942B350E949940BCF0E889F98967
:100F6600DE0190960E949435E88FF98F6A8F7B8F09
:100F76000E94A1350E946F350E94A635A88DB98DB5
:100F86008A8D9B8D0E947935E0CF0E94AB350E94F9
:100F9600A13FEF5FFF4F6F4F7F4F0E94B1350E9419
:100FA600AB350E94B6350E94C0350E94A13F0E9413
:100FB600C5350E942B350E94C0350E94B635ECE33C
:100FC600F0E060E070E00E94A13F0E94CA350E94F6
:100FD6002B35ECE3F0E060E070E00E94B63FDE0106
:100FE600A45ABF4FED93FD936D937C930E943435C5
:100FF6000E94CF357F936F93FF93EF930E94A135A5
:101006000E94D635AF91BF918F919F910E948C3EE1
:101016000E94DD350E948C3EDE01AA5ABF4F0D901C
:10102600BC91A02D0E9404400E94E2350E94CF355B
:101036007F936F93FF93EF930E94E7350E94D63517
:10104600AF91BF918F919F910E948C3E0E942B354C
:101056000E948C3EDE01AC5ABF4F0D90BC91A02D74
:101066000E940440EF96A1960895BA93AA93EF972B
:101076002D9784E3A8E1B0E0E8E9F2E00E94AC40F5
:101086000E94EC350E947C3F0E9474350E94EC352C
:101096000E94F9350E94A635DE01AA5ABF4F0D906F
:1010A6001D908D919C91D0010E9404360E94B1350D
:1010B6000E940B360E947C3F0E94C5350E940B366B
:1010C6000E94F9350E94CA350E948B3539F40E9478
:1010D6008D3519F40E94503509F401C003C00E94F1
:1010E6005A3502C00E9416350E945F35DE01AE5A9F
:1010F600BF4F0D901D908D919C91D0010E9404369A
:101106007F936F93FF93EF930E94E735ACE3B0E0D4
:1011160080E090E00E94513FAF91BF918F919F91E7
:101126000E948C3E7F936F93FF93EF93FE01E25BE9
:10113600FF4F0190119061917081F0010E94183665
:101146000E94913E0E94C0350E942B3FAF91BF91F5
:101156008F919F910E948C3E7F936F93FF93EF93A5
:101166000E941D360E942236A8E1B0E080E090E0A1
:101176000E94513F0E942435AF91BF918F919F915C
:101186000E948C3E0E9427360E9404400E948F35A2
:1011960029F0EDE1F0E060E070E004C0ECE1F0E0A1
:1011A60060E070E0E8A3F9A36AA37BA30E94A135DF
:1011B6000E9422360E94A6350E942E360E948E403C
:1011C60014F50E942736BF93AF930E94F93F7F9391
:1011D6006F93FF93EF93E889F989DE0158960E9491
:1011E6009435AF91BF918F919F910E948C3EAF91A4
:1011F600BF910E9404400E94A13531976040704023
:101206000E94A635D9CF0E9434350E9422360E940C
:1012160074350E944235A23BE7E0BE07E0E08E0748
:10122600E0E09E0784F10E948B3539F40E948D35EB
:1012360019F40E94503509F401C003C00E945A35C2
:1012460002C00E9416350E945F350E942736BF9362
:10125600AF930E94F93F7F936F93FF93EF930E94A2
:101266006235AF91BF918F919F910E948C3EAF9155
:10127600BF910E9404400E9434353197604070400F
:101286000E947435C6CFEF966B960895E8E0E0931A
:101296004506E3E0E093A508E091A308E07CE0635F
:1012A600E093A308E5EFE093A608ECECE093A7082B
:1012B600E091A408E07EE861E093A40808950E9406
:1012C6003336D090A108C090A008ED2DEC7131F412
:1012D600E22DF0E0E05CFF4CC0822394E0913C31CB
:1012E600F0E0EF3FA0E0FA0709F05EC2E09140307F
:1012F600F0E0EF3FA0E0FA0731F40E944136EFEF4D
:10130600E09340304FC2EA3CA0E0FA0721F4EAEC51
:101316000E94473647C2E53FA0E0FA0721F4E5EF11
:101326000E9447363FC2E53BA0E0FA0721F4E5EB11
:101336000E944F3637C2EA3EA0E0FA0721F4EAEEF1
:101346000E9447362FC2E53EA0E0FA0721F4E5EEFB
:101356000E94573627C2E73EA0E0FA0721F4E7EEDF
:101366000E9457361FC2E036A0E0FA0721F4E0E6F5
:101376000E94473617C2E83EA0E0FA0721F4E8EEDD
:101386000E945F360FC2E93EA0E0FA0721F4E9EEBB
:101396000E945F3607C2E13DA0E0FA0749F4E1ED9D
:1013A600E0933C31E5E03E2EEFEFE0934030FAC1AA
:1013B600E33DA0E0FA0721F4E3ED0E944F36F2C1C7
:1013C600E53DA0E0FA0721F4E5ED0E946736E8C1A5
:1013D600E73DA0E0FA0721F4E7ED0E946736E0C199
:1013E600E03AA0E0FA07E9F40E946D360E94BE33A7
:1013F600E259FF4CA0E0A0830E94C63324F40E9469
:10140600CE338394F9CF88248B1440F4E82DF0E092
:10141600E259FF4CA08143D48394F6CF0E947236E2
:10142600C1C1E13AA0E0FA07C9F40E946D360E94F4
:1014360042340E94C63324F40E944E348394F9CF7A
:1014460088248B1440F4E82DF0E0E657FF4CA08189
:1014560026D48394F6CF0E947236A5C1E23AA0E064
:10146600FA07E9F40E946D360E94FA33EE53FF4CF8
:10147600A0E0A0830E94C63324F40E941234839411
:10148600F9CF88248B1440F4E82DF0E0EE53FF4C9E
:10149600A08105D48394F6CF0E94723684C1E43AC3
:1014A600A0E0FA07E9F40E946D360E94BE33EA52C4
:1014B600FF4CA0E0A0830E94C63324F40E94C234ED
:1014C6008394F9CF88248B1440F4E82DF0E0EA5297
:1014D600FF4CA081E4D38394F6CF0E94723663C199
:1014E600E63AA0E0FA07E9F40E946D360E94BE33A0
:1014F600EE51FF4CA0E0A0830E94C63324F40E9464
:1015060032348394F9CF88248B1440F4E82DF0E02C
:10151600EE51FF4CA081C3D38394F6CF0E9472365E
:1015260042C1E73AA0E0FA07C9F40E946D360E946C
:101536005E340E94C63324F40E946A348394F9CF41
:1015460088248B1440F4E82DF0E0E555FF4CA0818B
:10155600A6D38394F6CF0E94723625C1EA3AA0E05C
:10156600FA07E9F40E946D360E94FA33EA57FF4CF7
:10157600A0E0A0830E94C63324F40E940234839420
:10158600F9CF88248B1440F4E82DF0E0EA57FF4C9D
:10159600A08185D38394F6CF0E94723604C1EB3ABC
:1015A600A0E0FA07C9F40E946D360E948A340E94B0
:1015B600C63324F40E9496348394F9CF88248B147E
:1015C60040F4E82DF0E0EA54FF4CA08168D3839400
:1015D600F6CF0E947236E7C0ED3AA0E0FA07E9F4CA
:1015E6000E946D360E94BE33EB55FF4CA0E0A083EF
:1015F6000E94C63324F40E9422348394F9CF8824AF
:101606008B1440F4E82DF0E0EB55FF4CA08147D356
:101616008394F6CF0E947236C6C0EE3AA0E0FA076F
:10162600C9F40E946D360E94A6340E94C63324F483
:101636000E94B2348394F9CF88248B1440F4E82DA9
:10164600F0E0EA53FF4CA0812AD38394F6CF0E94A0
:101656007236A9C0EF3AA0E0FA07C9F40E946D36C7
:101666000E94DE330E94C63324F40E94EA33839438
:10167600F9CF88248B1440F4E82DF0E0EC58FF4CA9
:10168600A0810DD38394F6CF0E9472368CC0E835C4
:10169600A0E0FA07E9F40E946D360E94BE33E452D8
:1016A600FF4CA0E0A0830E94C63324F40E94D234EB
:1016B6008394F9CF88248B1440F4E82DF0E0E452AB
:1016C600FF4CA081ECD28394F6CF0E9472366BC099
:1016D600EA36A0E0FA07E9F40E946D360E94BE33AE
:1016E600E053FF4CA0E0A0830E94C63324F40E947E
:1016F600F2348394F9CF88248B1440F4E82DF0E07B
:10170600E053FF4CA081CBD28394F6CF0E94723671
:101716004AC0E637A0E0FA07E9F40E946D360E9457
:10172600FA33EE54FF4CA0E0A0830E94C63324F4A3
:101736000E94E2348394F9CF88248B1440F4E82D78
:10174600F0E0EE54FF4CA081AAD28394F6CF0E941B
:10175600723629C0E737A0E0FA07E9F40E946D3631
:101766000E94FA33E255FF4CA0E0A0830E94C633E4
:1017760024F40E947A348394F9CF88248B1440F49D
:10178600E82DF0E0E255FF4CA08189D28394F6CF94
:101796000E94723608C0EFEFE0934030E0933C3190
:1017A600E1E03E2E222404C0EA3CA0E0FA0739F527
:1017B600E2E0E21519F5A0914030A13021F4A091A4
:1017C6004130A13009F003C00E94773611C0A091C4
:1017D6004030AF3021F4A0914130AF3009F008C05D
:1017E6000E9477360E944136E1E0E0933B3105C026
:1017F600EFEFE0933C31E1E03E2E22244FC2E53F7D
:10180600A0E0FA0711F5E2E0E215F1F4A09140300C
:10181600AF3521F4A0914130AF3509F012C0A5EFE4
:101826003ED2A5EF3CD2A5EF0E947D362224A5E04C
:10183600B0E00E94D53CE8EDE4BFE1E0E09379003A
:1018460003C00E944136222429C2E53BA0E0FA07E4
:1018560051F5E4E0E21531F58824AA24E3E08E167A
:1018660060F40E948036AE0EA82DB0E0A35CBE4C9C
:101876000E948036EC938394F1CFE0914330E0935D
:101886004031A0914330AA1651F490904030A5EB18
:1018960006D2A5EB0E947D362224AA2403C00E940C
:1018A60041362224FBC1EA3EA0E0FA07E9F4E2E071
:1018B600E215C9F48824AA24E1E08E1628F40E94D1
:1018C6008036AE0E8394F8CFA0914130AA1641F42B
:1018D600AAEEE5D1AAEE0E947D362224AA2403C0F0
:1018E6000E9441362224DAC1E036A0E0FA07F9F474
:1018F600E2E0E215D9F48824AA24E1E08E1628F461
:101906000E948036AE0E8394F8CFA0914130AA167D
:1019160051F4A0E6C4D1A0E0C2D1A0E00E947D3679
:101926002224AA2403C00E9441362224B7C1E53EE0
:10193600A0E0FA07E9F4E7E0E215C9F48824AA244E
:10194600E6E08E1628F40E948036AE0E8394F8CF19
:10195600A0914630AA1641F4A5EEA1D1A5EE0E94AB
:101966007D362224AA2403C00E944136222496C131
:10197600E73EA0E0FA07E9F4E7E0E215C9F48824B7
:10198600AA24E6E08E1628F40E948036AE0E8394D2
:10199600F8CFA0914630AA1641F4A7EE80D1A7EE63
:1019A6000E947D362224AA2403C00E9441362224A6
:1019B60075C1E83EA0E0FA07E9F4E3E0E215C9F4F0
:1019C6008824AA24E2E08E1628F40E948036AE0E01
:1019D6008394F8CFA0914230AA1641F4A8EE5FD1C5
:1019E600A8EE0E947D362224AA2403C00E94413616
:1019F600222454C1E93EA0E0FA07E9F4E3E0E21547
:101A0600C9F48824AA24E2E08E1628F40E948036BF
:101A1600AE0E8394F8CFA0914230AA1641F4A9EEF7
:101A26003ED1A9EE0E947D362224AA2403C00E943C
:101A36004136222433C1E13DA0E0FA0709F040C057
:101A4600E5E0E215E1F58824AA24E4E08E1628F400
:101A56000E948036AE0E8394F8CFA0914430AA1629
:101A660059F5E0E0E0934430E0934531E0934631A8
:101A7600E0934731E09348310E9486360E949436BF
:101A86000E94A5360E949436E0914330F0E00E9411
:101A9600AD36E0934531F09346316093473170930C
:101AA6004831E1E0E0934931A1EDF9D0A1ED0E9482
:101AB6007D362224AA2403C00E9441362224EEC089
:101AC600E33DA0E0FA07E9F5E4E0E215C9F588246C
:101AD600AA24E3E08E1628F40E948036AE0E839484
:101AE600F8CFA0914330AA1641F5E0E0E0934330E9
:101AF600E0934B31E0934C31E0934D31E0934E311E
:101B06000E9486360E94B2360E94BB36A4E6B0E03A
:101B160080E090E00E942B3FDF01CB010E94A536BA
:101B26000E94B236E1E0E0934A31A3EDB8D0A3EDCE
:101B36000E947D362224AA2403C00E944136222414
:101B4600ADC0E53DA0E0FA0709F053C0E1E0E215BB
:101B560009F04EC0A0914030A53D09F043C00E9457
:101B6600C4360E94D6360E947C3FE0934F310E94D5
:101B7600D6360E94B23FDF01CB010E94E3360E94B7
:101B86007C3FE09350310E94E8360E94E3360E9483
:101B9600F935E09351310E94E8360E940436E0930D
:101BA60052318824E0E0E0935331E4E08E1650F49D
:101BB600A09153310E94F136E081EA0FE093533150
:101BC6008394F3CFA5ED6BD08824E5E08E1630F430
:101BD6000E94F136A08163D08394F7CFEFEF0E9485
:101BE600673603C0EFEFE0933C31E1E03E2E22245E
:101BF60055C0E73DA0E0FA0709F04AC0E1E0E2156A
:101C060009F045C0A0914030A73DD9F50E94C436E1
:101C16000E94F6360E947C3FE0934F310E94F636D2
:101C26000E94F935E0935031A0914B31B0914C317F
:101C360080914D3190914E310E940436E09351319E
:101C46008824E0E0E0935231E3E08E1650F4A09150
:101C560052310E94F136E081EA0FE09352318394CB
:101C6600F3CFA7ED1CD08824E4E08E1630F40E9452
:101C7600F136A08114D08394F7CFEFEF0E94673638
:101C860003C0EFEFE0933C31E1E03E2E222406C094
:101C9600EFEFE09340300E9441362224D3C1AA934D
:101CA600E091A108E072E1F3E881E093A008A1C108
:101CB600E0E8E0936506E3E0E093B509E091B30957
:101CC600E07CE093B309EEE6E093B609E8EAE09338
:101CD600B709E091B409E07EE860E093B40908959D
:101CE600AA93E091B109E072E1F3E881E093B009CB
:101CF60080C11A9310E0A8EEB0E30E946331A12FD1
:101D0600B0E0AE17BF0740F4E12FF0E0E851FF4C1A
:101D1600A081E6DF1F5FEFCF0E94FF36E0E0EA9387
:101D2600AEE1B0E00E944631AAE0DADFADE0D8DFEE
:101D36004BC1AA93A881A13010F0A03108F01EC0B3
:101D46000E94FF36EDEAF3E0FA93EA93EC81A8EEFF
:101D5600B1E00E9404370E940E400E940A37E0E07C
:101D6600EA93A0E0B0E00E946C28E0E0E093B5358D
:101D7600E0934006E09344060E9402353AC1BA93C6
:101D8600AA93A881B981EC91E07FEC931996ECE0D7
:101D9600EC93229608951A930A931FB7F894E0914C
:101DA6000008E07FE560E0930008E0910108E87034
:101DB600E0930108E0910308E071E0930308E091E5
:101DC6000608E07FE160E0930608E0910708E0700E
:101DD600E0930708E0919900EE7F0E2FE8EDE4BF4F
:101DE60000939900E0918008E07CE0938008E09100
:101DF6008308E87EE0938308E0E0E0938208A4E8A5
:101E0600B8E00A2EAC91E0918408E470EA2BA02D8C
:101E1600EC93E0910C08E0930C08E0E0F0E0E0932E
:101E26002008F0932108E1E1FAE7E0932608F09311
:101E36002708E0E0F0E0E0932808F0932908E09313
:101E46002A08F0932B08E0932C08F0932D08E093D2
:101E56002E08F0932F081FBF0991199108951A9320
:101E66001FB7F894A0E4B8E08ADFE5E0E093400805
:101E7600E0E0E0934108E0934308E0934408E091F2
:101E86004608E07FE160E0934608E0E0E09347081B
:101E9600E0919008ED7FE0939008E0914C08E09384
:101EA6004C08E0E0F0E0E0936008F0936108E7EAB0
:101EB600F1E6E0936608F0936708E0E0F0E0E0936F
:101EC6006808F0936908E0936A08F0936B087BC092
:101ED6001A931FB7F894A0E0B9E051DFE4E0E0936D
:101EE6000009E0E0E0930109E0930309E0930409A7
:101EF600E3E0E0930609E0E0E0930709E09190094A
:101F0600EE7FE0939009E0910C09E0930C09E0E084
:101F1600F0E0E0932009F0932109EFE3FCE9E09378
:101F26002609F0932709E0E0F0E0E0932809F09312
:101F36002909E0932A09F0932B09E0932C09F093E1
:101F46002D09E0932E09F0932F093DC01A931FB770
:101F5600F894A0E0BBE013DFE7E0E093000BE0E0DD
:101F6600E093010BE093030BE093040BE3E0E093B3
:101F7600060BE0E0E093070BE091900BEE7FE09319
:101F8600900BE0910C0BE0930C0BE0E0F0E0E0939B
:101F9600200BF093210BE1E1FAE7E093260BF09397
:101FA600270BE0E0F0E0E093280BF093290BE09399
:101FB6002A0BF0932B0BE0932C0BF0932D0BE09355
:101FC6002E0BF0932F0B1FBF19910895E2E5E093B6
:101FD600C008E091C108EC7FE093C1080895AA9378
:101FE600E881E093C308E091C208E078E1F3E0916C
:101FF600C30821960895E0EAF4E00E941437A0E0B1
:102006000E943E320E941937E0EAF4E0FA93EA931E
:10201600E0E4EA93ABE90E945332E0E0E093A804DF
:1020260008950A921A92FA926A937A938A939A93E5
:10203600AA93BA93EA93FA93EFB7EA93A8EFB5E3B4
:102046000E947E32E991EFBFF991E991B991A99188
:102056009991899179916991F990199009901895BA
:10206600E6EFE0938136E7EFE0938236E4EFE09324
:102076007F36EEE2E0938036E6EFE0938736E7EFD1
:10208600E0938836E8EFE0938936E4EFE09385360F
:10209600E0911E36E295E07FEE0FEE0FEC5CE093EA
:1020A6008636EAEAE0935336EBEAE0935436ECEAF6
:1020B600E0935536EDEAE0935636EEEAE09357366E
:1020C600EFEAE0935836E0EBE0935936E1EBE09324
:1020D6005A36E2EBE0935B36E3EBE0935C36E4EBF7
:1020E600E0935D36E5EBE0935E36E6EBE0935F3634
:1020F600E7EBE0936036E8EBE0936136E9EBE093DB
:102106006236EAEBE0936336EBEBE0936436ECEB96
:10211600E0936536EDEBE0936636EEEBE0936736DB
:10212600EFEBE093683608959BDF0E941937E7E7E7
:10213600EA93E3E5F6E30E941E37E9E6F6E30E943A
:102146002337E7E7EA93E5E5F6E30E941E37EBE679
:10215600F6E30E942337E7E7EA93E7E5F6E30E9412
:102166001E37EDE6F6E30E942337E7E7EA93E9E553
:10217600F6E30E941E37EFE6F6E30E942337E7E711
:10218600EA93EBE5F6E30E941E37E1E7F6E30E94E9
:102196002337E7E7EA93EDE5F6E30E941E37E3E728
:1021A600F6E30E942337E7E7EA93EFE5F6E30E94BA
:1021B6001E37E5E7F6E30E942337E7E7EA93E1E611
:1021C600F6E30E941E37E7E7F6E30E942337E7E7C8
:1021D600EA93E3E6F6E30E941E37E9E7F6E30E9498
:1021E6002337E7E7EA93E5E6F6E30E941E37EBE7D7
:1021F600F6E30E942337E7E7EA93E7E6F6E30E9471
:102206001E37EDE7F6E3FA93EA93A2E00E9406335F
:10221600B0916936A0E0E0916A36F0E0EA0FFB1F64
:10222600E0930436F0930536F0916B36E0E0DF017B
:10223600E0916C36F0E0EA0FFB1FE0930636F09370
:102246000736F0916D36E0E0DF01E0916E36F0E0A2
:10225600EA0FFB1FE0930836F0930936F0916F36CC
:10226600E0E0DF01E0917036F0E0EA0FFB1FE0935B
:102276000A36F0930B36F0917136E0E0DF01E0911B
:102286007236F0E0EA0FFB1FE0930C36F0930D3642
:10229600F0917336E0E0DF01E0917436F0E0EA0F8A
:1022A600FB1FE0930E36F0930F36F0917536E0E0A3
:1022B600DF01E0917636F0E0EA0FFB1FE09310367F
:1022C600F0931136F0917736E0E0DF01E091783651
:1022D600F0E0EA0FFB1FE0931236F0931336F0910D
:1022E6007936E0E0DF01E0917A36F0E0EA0FFB1F95
:1022F600E0931436F0931536F0917B36E0E0DF017B
:10230600E0917C36F0E0EA0FFB1FE0931636F0937F
:102316001736F0917D36E0E0DF01E0917E36F0E0A1
:10232600EA0FFB1FE0931836F093193608950E94C2
:102336001937E7E7EA93EFE7F6E30E941E370E94B4
:102346002937E7E7EA93E1E8F6E30E941E37E3E878
:10235600F6E30E942337E7E7EA93E5E8F6E30E940F
:102366001E370E942937E7E7EA93E7E8F6E30E947B
:102376003537EAE8F6E30E943A37E7E7EA93E8E812
:10238600F6E30E943537EBE8F6E30E943A37E7E7D3
:10239600EA93E9E8F6E30E943537ECE8F6E3FA93C8
:1023A600EA93A1E00E940633B0918336A0E0E09163
:1023B6008436F0E0EA0FFB1F0E94173FE0931A36BF
:1023C600F0931B3660931C3670931D36E0918A3667
:1023D600FF27662777270E9440370E944937E8E0A3
:1023E6000E94BB3E0E944037E0918B36F0E00E948F
:1023F60049370E94AD360E9440370E944937E8E0CF
:102406000E94BB3E0E944037E0918C36F0E00E946D
:1024160049370E94AD360E944037A0911E36E8E04B
:10242600EA1B0E9449370E94C73E0E944037E0914E
:102436000E36F0910F36A0911A36B0911B36809168
:102446001C3690911D36662777270E949B3EE091A9
:102456000C36F0910D36662777270E945237EFE04B
:102466000E945737A0911636B09117360E941C3F2E
:10247600EBE00E94BB3E7F936F93FF93EF93E09157
:102486001836F09119360E9462370E94AD36AF9128
:10249600BF918F919F910E94A13F0E946B37E0935D
:1024A6002B36F0932C3660932D3670932E360E9481
:1024B6007737E85FFF4F6F4F7F4FDF01CB01E4E0D7
:1024C6000E94C73EE0932F36F09330366093313644
:1024D600709332360E944B3DDF01CB010E9480375C
:1024E6000E94233EE0934B36F0934C3660934D3674
:1024F60070934E360E947737E05AFF406040704036
:10250600E0933336F093343660933536709336362F
:102516000E9485370E948E370E94513FA091123645
:10252600B09113360E949737ECE00E94C73EDF0158
:10253600CB01EBE00E9457370E948537A091063603
:10254600B09107360E949737EBE00E94C73E0E9483
:102556006B370E949A37A0910436B09105360E94D7
:102566001C3FE4E0F0E060E070E00E94513FA09183
:102576003736B09138368091393690913A360E9486
:10258600913EE0911E360E94BB3E0E94A337E09327
:102596003B36F0933C3660933D3670933E360E9450
:1025A6008537A0910836B09109360E949737EDE03D
:1025B6000E9457370E9485370E948E370E945237F5
:1025C600ECE00E94C73EA0911036B09111360E94F1
:1025D6001C3F0E94AC370E946B370E94A3370E94B3
:1025E6009A37E0913736F0913836609139367091E6
:1025F6003A36E050F0486F4F7F4FA0910A36B091BF
:102606000B36882799270E942B3FDF01CB01EFE08D
:102616000E94D33EE0934336F093443660934536AA
:1026260070934636A0913B36B0913C3680913D364C
:1026360090913E36E0911F36F0912036609121361A
:10264600709122360E94963E7F936F93FF93EF938D
:10265600E0911E36A0E5B3EC0E94B23EAF91BF9169
:102666008F919F91662777270E942B3FE0934736ED
:10267600F09348366093493670934A360E94B137D4
:10268600A030E0E0BE07E0E08E07E0E89E0788F4B1
:10269600E0914736F09148366091493670914A3656
:1026A6000E94F63EDF01CB010E94BA370E947C3FB2
:1026B60008C00E94BA370E94B1370E947C3F0E9430
:1026C600F63EE0933F36F093403660934136709382
:1026D60042360E94C3377F936F93FF93EF930E9416
:1026E600C337AF91BF918F919F910E94513F0E9436
:1026F600CF37E0912336F0912436609125367091DC
:102706002636AEEDBBE080E090E00E94AC370E943A
:10271600CF370E94D837A3E4B3EE8FEF9FEF0E9426
:10272600AC370E946B37E153F14F6F4F7F4FDF019C
:10273600CB01E4E00E94C73E0E94E1370E948C3E36
:10274600E0933F36F09340366093413670934236BD
:102756000E94D8370E944B3DDF01CB01EFE6F2E540
:1027660065E073E40E94233EE0934F36F0935036C3
:1027760060935136709352360895E2E0E0939336B3
:10278600E0E0E09394360E941937E8E1EA93E3E942
:10279600F6E30E941E370E94EA37E0939136E2E3A1
:1027A600E09392360E941937E8E1EA93E1E9F6E30D
:1027B60088C0E0E0E0938D360E941937E8E1EA939D
:1027C600EDE8F6E30E943537EEE8F6E3FA93EA938E
:1027D600A1E080C0E1E0E0938F360E941937E8E17E
:1027E600EA93EFE8F6E36DC0E2E0E0939B36E0E0C3
:1027F600E0939C360E941937E9E1EA93EBE9F6E3A8
:102806000E941E370E94EA37E0939936E8E9E09382
:102816009A360E941937E9E1EA93E9E9F6E351C0ED
:10282600E0E0E09395360E941937E9E1EA93E5E99D
:10283600F6E30E943537E6E9F6E3FA93EA93A1E078
:1028460049C0E1E0E09397360E941937E9E1EA933F
:10285600E7E9F6E336C0E2E0E093A336E0E0E09392
:10286600A4360E941937EAE1EA93E3EAF6E30E9406
:102876001E370E94EA37E093A136E0E4E093A236E1
:102886000E941937EAE1EA93E1EAF6E31AC0E0E0CA
:10289600E0939D360E941937EAE1EA93EDE9F6E303
:1028A6000E943537EEE9F6E3FA93EA93A1E012C007
:1028B600E1E0E0939F360E941937EAE1EA93EFE9F7
:1028C600F6E3FA93EA93E2E0EA93E0E0F0E0FA93C3
:1028D600EA93A0E00E9406330895AA93E0E1E0930C
:1028E6004606AB817CDBAA817ADBA98178DBA881ED
:1028F60076DBE0914806ED6FEF3FD9F3E0E1E09338
:10290600450624960895AA930E94A040E091A53614
:10291600AC81EA1729F0A13011F0A23009F401C008
:1029260010C0AC81A13011F40E94F337AC81A23003
:1029360041F4E1E2EA93ECE0EA93E1E1EA93A0E410
:10294600CCDFEC81E093A536E0914806ED6FEF3FD2
:10295600D9F3E0E1E09346068BE68A95F1F7A8E322
:102966003EDBAFEF3CDB0E2F1127AFEF38DB2E2F10
:102976003327E0E1E0934506F02FE0E0E22BF32B6E
:102986000E94A740259608952F971A930A9300E070
:10299600FE0132960E94FC3710E01B3070F40E9454
:1029A6001138AC91E12FF0E0EC5FFF4CE081EA17C3
:1029B60011F001E01CE01F5FF0CF0030F9F010E0ED
:1029C6001F3060F4E12FF0E0EC5FFF4C0F010E9436
:1029D6001138EC91D001EC931F5FF2CF0E941838AA
:1029E600A3E00E942138E03029F00E941838AAE0BE
:1029F6000E942138A9E8B3E30E942638198108818C
:102A060061960895AA971A93FE013196FA93EA936E
:102A1600E4ECF3E0FA93EA930E94BB360E942B386B
:102A2600E4EFEF8311E0173088F40E943238EA0FA2
:102A3600FB1F0F01E12FF0E03197DE011196AE0F7B
:102A4600BF1FEC91D001EC931F5FEDCFE5EAEE8757
:102A560018E01E3168F40E943238AE0FBF1FE12F16
:102A6600F0E03797EA5FFE4CE081EC931F5FF1CF11
:102A7600E5EBEDA31FE1133268F40E943238AE0F86
:102A8600BF1FE12FF0E07F97E35CFE4CE081EC9303
:102A96001F5FF1CFE8EFEAA7EDE3F1E30E941437F9
:102AA600A4E0B0E00E94463110E0143270F4E12F49
:102AB600F0E0EA54FA4C0F010E943238AE0FBF1F05
:102AC600EC91D001EC931F5FF0CF1881AB9608957F
:102AD600E0E0EA93A7E5B1E30E946C28E093543165
:102AE600E03049F40E94FF36E9ECF3E00E94373803
:102AF6000E943E3802C00E9444380E944838E9EAE3
:102B0600F5E3FA93EA93AAE00E942138E03051F403
:102B16000E94FF36E7EEF3E00E944D38E1E0E093D5
:102B2600B53507C00E944438E0E0E093B535E09340
:102B3600060BA091B535A13009F0A5C0EAEDF5E385
:102B4600FA93EA93ECEFF3E00E943738EDE0E09376
:102B5600E735EAE0E093E8350E944838EAEDF5E328
:102B66000E94523829F40E94FF360E94603802C043
:102B76000E944438E9EEF5E3FA93EA93E2E2F4E0E0
:102B86000E943738EDE0E093F635EAE0E093F7355A
:102B96000E944838E9EEF5E30E94523829F40E9473
:102BA600FF360E94603802C00E9444380E9478387E
:102BB600E03039F40E94FF36EFE2F4E00E944D382F
:102BC60002C00E9444380E94C436E4E0F0E30E944A
:102BD600FC3718DF0E941838A1E00E949628A0E072
:102BE6000E94263FE0935431E03049F00E94FF36C0
:102BF600E3E4F4E00E9437380E947C0E33C00E9462
:102C06001838AAE00E942138E03039F40E94FF36D5
:102C1600E7EEF3E00E947B3802C00E9444380E942F
:102C260048380E948038E030D9F40E94FF36E9E047
:102C3600F4E0FA93EA93E0915531F0915631662724
:102C460077270E942640E3E2F0E060E070E00E9411
:102C5600264088E00E94E1302C960E947C0E02C03D
:102C66000E9444380E947838E03039F40E94FF36DA
:102C7600EFE2F4E00E947B3802C00E944438A4E6EA
:102C8600B0E00E94D53CE1E1E093450608950E943C
:102C960033361A930A93E0913B31E03021F0A0914C
:102CA6003C31AF3F09F006C00E949D03A1E0B0E0B1
:102CB6000E94D53C10E000E00731B8F4E12FF0E0C7
:102CC600ED5EFF4CFA93EA93E0E5F4E0FA93EA93BB
:102CD600E02FF0E0EA5FFE4CE081FF2766277727CA
:102CE6000E942B380F5F1E5FE7CF0991199121C112
:102CF6000E943336A1E007DEE093A836F093A936AA
:102D0600E091A836F091A936E050F048E093A83655
:102D1600F093A9360E948F380E94AD36E093AA360A
:102D2600F093AB366093AC367093AD367724E4E01F
:102D36007E1640F50E949838FF93EF930E949C38C8
:102D4600FF93EF93A72D0E943403AF91BF91EA0F33
:102D5600FB1FAF91BF91ED93FC930E94A738FF93A1
:102D6600EF930E94AB38FF93EF93A72D0E94840345
:102D7600AF91BF91EA0FFB1FAF91BF91ED93FC930B
:102D86007394D5CFE091AE36EF5FE093AE36A09167
:102D9600AE36A83009F09FC00E948F38E8E0F0E018
:102DA60060E070E00E94A13FE093A636F093A7365C
:102DB600E0E0E093AE36E093AA36E093AB36E093DC
:102DC600AC36E093AD360E94B6387724E4E07E1642
:102DD600D0F50E949C380E94EF3EE839A0E0FA0741
:102DE60050F00E9498380F010E949C380E94EF3ED6
:102DF600E659F04007C00E9498380F010E949C389F
:102E06000E94EF3ED001ED93FC930E94AB380E94E6
:102E1600EF3EE839A0E0FA0750F00E94A7380F010C
:102E26000E94AB380E94EF3EE659F04007C00E9470
:102E3600A7380F010E94AB380E94EF3ED001ED93F8
:102E4600FC937394C3CFE0915E30E0930731E09139
:102E56005F30E0930831E0916030E0930B31E09110
:102E66006130E0930C31E0916230E0930931E091FA
:102E76006330E0930A31E0916430E0931331E091DE
:102E86006530E0931431E0916630E0931731E091BC
:102E96006730E0931831E0916830E0931931E091A2
:102EA6006930E0931A31E0916A30E0930F31E09196
:102EB6006B30E09310317724E4E07E1660F4E72D62
:102EC600A6E6B0E30E94C338E72DAEE5B0E30E9464
:102ED600C3387394F1CF2DC00E943336E091B535D7
:102EE600E03011F00E94161F24C00E9433360E9463
:102EF600C436A091B535A130D1F40E941838A3E0AC
:102F06000E9421380E944838A0919333B09194339F
:102F160080919533909196330E942D2CE0935431F5
:102F260071DD0E9448380E9480380E9478380E94DD
:102F36004438E991EFBFF991E991B991A991999135
:102F4600899179916991F9901990099018951A9338
:102F56000A930FB7F894E0915000E260E0935000B6
:102F6600E0914100E0781E2FE8EDE4BF10934100A8
:102F7600E0916000EE7FE0936000E0915100E27026
:102F8600E1F3E0914000E87FE1601E2FE8EDE4BF49
:102F960010934000E0915000E27EE0935000E091F3
:102FA600B400EC7FE093B4000FBF09911991089526
:102FB600F894E091A200E873E7601E2FE8EDE4BF05
:102FC6001093A200E0E0E093A100C1DF0E94F005AB
:102FD6000E9449090E945B0E0E94D8060E94CD38C5
:102FE6000E946B0F0E94FE0F0E94FF36E4E5F4E09C
:102FF6000E9437380E94D1387894A1E00E94D438D4
:10300600E061E0938406B9DB0E94CD380E94DA388D
:103016000E94E038E9DB0E94CD380E94DA380E942F
:10302600E03819DC0E94CD380E94DA380E94FF365B
:10303600EEE5F4E00E9437380E94D1380E94E0386D
:103046000E9497100E94CD380E94FF36EFE6F4E00A
:103056000E9437380E94DA380E943E380E94E90FF3
:103066000E94FF36E0E8F4E00E9437380E947C0EAA
:103076007894A8ECB0E00E94D53C2ADD0E94E90FC6
:10308600E1E0E09301060E94E638E1E0E0930606FF
:10309600A4E6B0E00E94D53C0E94E6380E94F337D1
:1030A600AAE00E94D438EF7EE0938406AAE00E944C
:1030B600D438E061E09384060E94FF36EAE8F4E043
:1030C6000E9437380E947C0EA1E01DDCE093A636F4
:1030D600F093A7360E94B6380E94F5020E9442037A
:1030E6000E94CE0E0E94320F0E94A90FAAE0B0E005
:1030F6000E94D53C0E94FF36EAE9F4E00E94373888
:103106000E94D138A1E0B0E00E943D40EF3FAFEF12
:10311600FA07AFEF6A07AFEF7A0731F4A1E0B0E044
:103126000E9416350E944A400E94FF36E7EAF4E004
:103136000E9437380E94D138E0918406EF7EE093F2
:1031460084060E94C7030E94B305E2E0E093E70706
:103156000E949A11E0914B36F0914C3660914D36B3
:1031660070914E360E9484407CF4A0914B36B0910B
:103176004C3680914D3690914E36E0E0F0E060E7B7
:1031860072E40E94683E08F020C0E0914F36F0914C
:1031960050366091513670915236A0E0B0E086E923
:1031A60093E40E94683E78F4A0914F36B091503671
:1031B6008091513690915236E0E0F0E46EE474E48A
:1031C6000E94683E08F001C001C01EC0E0912F3683
:1031D600E0931131A0912F36B0913036809131367F
:1031E60090913236E8E00E94C73EE09312310E9489
:1031F600ED38E09315310E94ED38DF01CB01E8E0B0
:103206000E94C73EE0931631E091B535E03009F0F3
:10321600BBDBCFDA05DB3BDBE0919636E078E038C6
:1032260021F4E0911B31E26007C0E0919636E07828
:1032360029F4E0911B31ED7FE0931B31E0918E364E
:10324600E071E03121F4E0911B31E46007C0E091C8
:103256008E36E07129F4E0911B31EB7FE0931B3150
:10326600E0918E36E072E03221F4E0911B31E860A5
:1032760007C0E0918E36E07229F4E0911B31E77FBA
:10328600E0931B31E0918E36E270E23021F4E0915A
:103296001B31E06107C0E0918E36E27029F4E091BF
:1032A6001B31EF7EE0931B31E0919636E870E830F3
:1032B60021F4E0911B31E06207C0E0919636E87098
:1032C60029F4E0911B31EF7DE0931B31E0919636B6
:1032D600E071E03121F4E0911B31E06407C0E09138
:1032E6009636E07129F4E0911B31EF7BE0931B31B8
:1032F600E0919E36E074E03421F4E0911B31E06801
:1033060007C0E0919E36E07429F4E0911B31EF7717
:10331600E0931B31E92DE270E23021F4E091A03612
:10332600E26005C091FC05C0E091A036ED7FE09318
:10333600A036E92DE470E43021F4E091A036E46093
:1033460005C092FC05C0E091A036EB7FE093A03665
:10335600E92DE870E83021F40E94F538E06405C0F4
:1033660093FC05C00E94F538E068E0939036E92D9D
:10337600E071E03121F4E091A036E86005C094FCEC
:1033860005C0E091A036E77FE093A036E92DE07214
:10339600E03221F4E091A036E06105C095FC05C05D
:1033A600E091A036EF7EE093A036E92DE074E0349C
:1033B60021F4E0919036EE7F05C096FC05C0E091C1
:1033C6009036E160E0939036E92DE078E03821F41C
:1033D600E0919836EE7F05C097FC05C0E0919836DF
:1033E600E160E0939836F6D92CDA62DAA0914A3198
:1033F600A13021F0A0914931A13019F5E091453174
:10340600F091463160914731709148310E942640D3
:103416000E94BB360E9426400E9416350E94264016
:10342600A1E4B1E30E9438080E941B35A1E0B0E098
:103436000E944A400E941607E0E0E0934931E0937B
:103446004A3183CEFFCFAA930E94A04020E00C8190
:10345600AD81BE813D91AD83BE8318E0220FE22F80
:10346600E327E07811F0E9E02E27330F1150B1F78A
:10347600015071F7E22FEE0FE1600E94A74068C588
:103486001A93E2E3E093B136EFEFE093C308E091DD
:10349600C208E078E1F3EFEFE093C308E091C208D9
:1034A600E078E1F31091C3081F3F21F0E091B136B7
:1034B600E03009F401C0EFCFE12FC9C4E1E0E093A9
:1034C6004506EFEFE093C308E091C208E078E1F328
:1034D6000895BA93AA930E94A040E4E1E093B0361F
:1034E600EFEFE093C308E091C208E078E1F31091B2
:1034F600C3081F3F21F4E091B036E03009F401C063
:10350600EFCF1E3F21F0E0E00E94A740F1C22E81DE
:103516003F81EFEFE093C308E091C208E078E1F362
:103526003F932F932F5F3F4FE091C308AF91BF9119
:10353600EC93EFEFE093C308E091C208E078E1F383
:103546003F932F932F5F3F4FE091C308AF91BF91F9
:10355600EC93EFEFE093C308E091C208E078E1F363
:103566003F932F932F5F3F4FE091C308AF91BF91D9
:10357600EC93EFEFE093C308E091C208E078E1F343
:103586003F932F932F5F3F4FE091C308AF91BF91B9
:10359600EC93EC81FD813497EC83FD8309F0B9CF80
:1035A600EFEFE093C308E091C208E078E1F3EFEFB4
:1035B600E093C308E091C208E078E1F3E1E00E94FD
:1035C600A74096C2AA930E94A0405ADFEF3F21F07F
:1035D600E0E00E94A740BCC4EC81E093C308E09100
:1035E600C208E078E1F3AC81AD3FC1F100E02D8186
:1035F6003E81D9012F5F3F4FEC91E093C308E091E4
:10360600C208E078E1F3D9012F5F3F4FEC91E093D8
:10361600C308E091C208E078E1F3015051F7EFEFFB
:10362600E093C308E091C208E078E1F3EFEFE0939E
:10363600C308E091C208E078E1F3EFEFE093C30836
:10364600E091C208E078E1F31091C308E12FEF7131
:10365600E53021F0E0E00E94A7407AC4E1E00E9454
:10366600A74076C40E942B401A930A93EE81E07815
:1036760081F0EE81EF77EE83E7E7EA93A0E0B0E032
:1036860080E090E0EFDF0E2F023018F019810881FC
:103696005FC4AE81AC3459F011DFE1E0E093460639
:1036A600EFDEEF3F21F0EFEF1981088151C4EE8183
:1036B600E093C308E091C208E078E1F3ED81E0937E
:1036C600C308E091C208E078E1F3EC81E093C30817
:1036D600E091C208E078E1F3EB81E093C308E09162
:1036E600C208E078E1F3EA81E093C308E091C208FA
:1036F600E078E1F311E0AE81A03411F415E904C0DD
:10370600AE81A83409F417E81093C308E091C20803
:10371600E078E1F3AE81AC3439F4EFEFE093C3081F
:10372600E091C208E078E1F31FEFEFEFE093C30802
:10373600E091C208E078E1F30091C30807FF02C0F8
:10374600115009F401C0F1CFE02F1981088100C49E
:10375600BA93AA931A9314E0EFEFE093C308E091AB
:10376600C208E078E1F3A981BA811196A983BA83E8
:103776001197E091C308EC93115071F7D3C4AA9343
:1037860024970E94A040E885E03011F0E1E0C9C02E
:10379600EAE0E093B036E091B036E030E1F7E09150
:1037A600AF36E27009F0BBC0E1E0E0934106E0937A
:1037B6004506E0EAE0934606E0E4E0934206E8E1E7
:1037C600E0935606E0EBE0934106E3E5E093C0089C
:1037D60035E01AE0EFEFE093C308E091C208E07825
:1037E600E1F31150B9F7E0E4EA93A0E0B0E080E03D
:1037F60090E038DF0E2F3150013011F0303009F4EF
:1038060001C0E7CF30E0013009F068C0E4E6E0939C
:10381600B036E8E4EA93AAEAB1E080E090E022DF7D
:10382600E13091F5DE01149693DFAE81A13019F4F3
:10383600AF81AA3A09F027C0E091B036E03049F0EE
:10384600E9EEEA93A0E0B0E080E090E40BDFE03040
:1038560009F401C0F1CFE091B036E03049F0EAE773
:10386600EA93A0E0B0E080E090E0FCDEE03009F012
:103876000AC0DE0114966CDFEC81E07411F0ECE016
:1038860001C0E4E03E2F2AC0E9EEEA93A0E0B0E0F2
:1038960080E090E0E7DEE23018F432E009EE02C0A4
:1038A60031E001E4E091B036E03041F00A93A0E067
:1038B600B0E080E090E0D6DEE03009F401C0F2CF5F
:1038C600E091B036E03049F0E0E5EA93A0E0B2E0FE
:1038D60080E090E0C7DEE03009F030E03093B236A9
:1038E600EDDD303049F0E091AF36EE7FE093AF3654
:1038F600E0EDE093C00813C0E1E0E0934606C0DDCA
:10390600DDDDE0E0E093C008E0EFE0934206E1E0B1
:10391600E0934206E091AF36E160E093AF36E09186
:10392600AF360E94A74029960895AA93E881E03011
:1039360011F0E1E002C0E091AF3621960895AA9316
:10394600EF81E03019F4E881E03011F4E4E0D0C012
:10395600E091AF36E17011F0E3E0CAC0E091B23613
:10396600E87071F4E981FA816B817C81A0E0B2E0B4
:1039760080E090E00E942B3FE983FA836B837C838F
:10398600A881A130A9F4E1E5EA93AA81BB818C81E3
:103996009D8168DEE03059F4ED81FE81FA93EA9369
:1039A600A0E0B2E096DDE03011F0E0E0E88323C06D
:1039B600E2E5EA93AA81BB818C819D8153DEE030EA
:1039C600D1F4ED81FE81FA93EA93A0E0B2E081DDC5
:1039D600E03051F0ED81FE81E050FE4FED83FE8335
:1039E600E881E150E88369F7ECE4EA93A0E0B0E00F
:1039F60080E090E037DE62DDE881E03011F0E1E062
:103A060001C0E0E075C0AA93EF81E03019F4E881C7
:103A1600E03011F4E4E06CC0E091AF36E17011F0F3
:103A2600E3E066C0E091AF36E47011F0E2E060C01A
:103A3600E091B236E87071F4E981FA816B817C819C
:103A4600A0E0B2E080E090E00E942B3FE983FA8399
:103A56006B837C83A881A130A1F4E8E5EA93AA816F
:103A6600BB818C819D81FEDDE03051F4ED81FE81CC
:103A7600FA93EA93AEEFA6DDE03011F0E0E0E883DA
:103A860030C0E091B236E67039F0E7EDEA93A981ED
:103A9600BB2788279927E6DDE9E5EA93AA81BB815A
:103AA6008C819D81DFDDE030E1F4ED81FE81FA93CA
:103AB600EA93ACEF87DDE03051F0ED81FE81E05016
:103AC600FE4FED83FE83E881E150E88371F7E0E085
:103AD600F0E0FA93EA93ADEF75DDE03011F4E1E042
:103AE600E883ECDCE881E03011F0E1E001C0E0E0E1
:103AF60028960895BA93AA9360970E94A040EF89EA
:103B0600E03011F0E4E08BC1E091AF36E17011F0E6
:103B1600E3E085C111E0EE89E03041F4E1E0E093B5
:103B26004606AEDCEF3F09F410E077C1E13009F05C
:103B36005BC0E9E4EA93A0E0B0E080E090E092DDCB
:103B4600E03049F4FE013496FA93EA93A0E1B0E03E
:103B5600C0DCE03009F447C0EC81E295EF70E695F1
:103B6600E695E13069F4E0E0FC85AD85B0E0EA0F6A
:103B7600FB1F31969F01D90188279927EAE02CC0BF
:103B8600E985EF70AE2FEE85E078EE1FE0E0EE1FE0
:103B9600AE0FED85E370EE0FEA0FEE5F0E2FEC85AC
:103BA600E295EF70E695E695AE2FEB85F0E00E9484
:103BB600E33EB0E0AE0FBF1FEA85E370F0E00E947F
:103BC600E33EFE2FE0E0EA0FFB1F31969F01D9018D
:103BD60088279927E02FE9500E94BB3EAC89BD8912
:103BE6000E94044010E019C1E23041F4AC89BD895D
:103BF600E0E0F2E0ED93FC9310E00FC1E33009F052
:103C0600AFC0E091B236E470A1F1EDECEA93A0E02A
:103C1600B0E080E090E026DDE03051F5EFEFE09394
:103C2600C308E091C208E078E1F3FE013496FA9306
:103C3600EA93A0E1B0E04DDCE030D1F000E30030E3
:103C460049F0EFEFE093C308E091C208E078E1F3B2
:103C56000150F5CFEE85E295EF70A0E1B0E080E08F
:103C660090E00E94BB3EAC89BD890E94044010E0F2
:103C760076C0E9E4EA93A0E0B0E080E090E0F2DC10
:103C8600E03009F06CC0FE013496FA93EA93A0E1A5
:103C9600B0E01FDCE03009F462C0E091B236E270B9
:103CA60051F1EE85EF73FF27662777270E94F63ED0
:103CB6007F936F93FF93EF93EF85E078FF27662757
:103CC6007727DF01CB01E7E00E94D33EAF91BF919A
:103CD6008F919F910E948C3EEF5FFF4F6F4F7F4FFA
:103CE600DF01CB01E989E295EF70E695E695E150B3
:103CF6000E94BB3E2FC0EE85EC77E695E695FF2742
:103D060066277727EF5FFF4F6F4F7F4F7F936F9346
:103D1600FF93EF93EF85E370FF2766277727DF0191
:103D2600CB01E3E00E94BB3EDF01CB01EF85E07EE5
:103D3600E295EF70E695FF27662777270E948C3E6F
:103D4600EF5FFF4F6F4F7F4FAF91BF918F919F9165
:103D56000E942B3FAC89BD890E94044010E05DC0E3
:103D6600EA3039F4E091B236AC89BD89EC9310E0C3
:103D760054C0EB3011F409E403C0EC3001F50AE459
:103D86000A93A0E0B0E080E090E06CDCE030B1F4B3
:103D9600EC89FD89FA93EA93A0E1B0E09ADBE03082
:103DA60069F0EC89FD89FA93EA93AFE04CDBAE2F1C
:103DB600EC89FD89E785EA1709F410E02EC0ED309D
:103DC60071F4EAE7EA93A0E0B0E080E090E04ADC34
:103DD600E03021F4AC89BD89BBDC10E01EC0EE30BA
:103DE600D9F4EDECEA93A0E0B0E080E090E03ADCB4
:103DF600E03089F4EFEFE093C308E091C208E07881
:103E0600E1F3EC89FD89FA93EA93A0E4B0E061DB83
:103E1600E03009F010E001C014E050DBE12F0E9411
:103E2600A740689608951A931091B036103019F08D
:103E360011501093B0361091B136103019F0115060
:103E46001093B136E091AF36EB7FE093AF36199120
:103E560008952797A0910030B0910130109731F066
:103E6600A0910230B0910330109729F4E0E0F0E021
:103E760061E27AE36DC0FE013696FA93EA93FE019B
:103E86003796FA93EA93DE011896E0910030F091A6
:103E960001300995FE013396FA93EA93FE013496B2
:103EA600FA93EA93DE011496E0910230F091033022
:103EB6000995E881F981EC5BF74066277727DF01F2
:103EC600CB01E9E10E94BB3E7F936F93FF93EF9393
:103ED600EA810E94FD38E5E10E94BB3EAF91BF91A9
:103EE6008F919F910E94A53EDF01CB01EB81F0E00F
:103EF6000E94173F0E940C3F0E94A53E7F936F933E
:103F0600FF93EF93EE810E94FD38EBE00E94BB3EEB
:103F1600AF91BF918F919F910E94A53E7F936F9322
:103F2600FF93EF93ED810E94FD38E5E00E94BB3ED2
:103F3600AF91BF918F919F910E94A53EDF01CB016A
:103F4600EC81F0E0F595E7950E94173F0E94A53EAB
:103F560027960895AA931A93EA81FB81E4911E2F6E
:103F6600E03019F0E981E11709F406C0EA81FB8126
:103F76003196EA83FB83F0CFE12FF0E01881249697
:103F860008950E942B4024971A93A985BA859E9678
:103F96000E9403390E940A390E940F390E949440F8
:103FA60009F450C0E985FA85E481E03089F10E9480
:103FB6001439E030E1F5A985BA851496E0E0EC9372
:103FC600E985FA850E9423390D01A985BA855A9695
:103FD6000E94F93FD0010E948C3E0E940F390E9438
:103FE6009940B0F4E985FA851381123088F0A985E5
:103FF600BA855A960E94F93F0E940F390E948C3E5C
:10400600E983FA836B837C830E9414391150EDCFC8
:104016000E940A390E948A40A9F0E985FA85A181A1
:10402600AA93EA85FB85F2960E94283921F0E1E001
:1040360018812B9608950E940A39A985BA859E96FD
:104046000E940440E0E0188158C4BA93AA931A93D8
:10405600E981FA810E9432391E2F103009F061C0C1
:10406600A981BA81AC91A33029F4E981FA81E5816D
:10407600E03009F44AC0A981BA819E960E943A3975
:10408600E981FA81F2960E941437A0E0B2E00E941C
:104096004631E981FA81F296E250FE4FA5E5BAEA89
:1040A600A083B183E981FA81F296A2E5B2E581E6C1
:1040B60091E40E943E39EC51FE4FA2E7B2E781E45B
:1040C60091E60E943E39E851FE4F0F01A981BA815F
:1040D6001E960E944439F296E451FE4F0F01A981C3
:1040E600BA811A960E944439A181AA93EA81FB817A
:1040F600F296FA93EA93EC81FD810E944C3983DCB7
:10410600A981BA811596E0E0EC93E981FA81A18153
:10411600AA93E0E0EA93A0E0B0E0ECDCE03009F03E
:1041260011E0E12F1881239608950E942B402497D1
:104136000E94A0400E9418360E94543950F0AC8567
:10414600BD855E960E94F93F0E9418360E949940EE
:1041560018F00E945A3560C0AC85BD8592960E94C3
:104166005C39AC85BD85EC91F0E0E130A0E0FA0762
:1041760039F528853985F901F695E7952E0F3F1F04
:104186000E945F3909F046C00E9474390C911127CC
:104196002F5F3F4F0E945F39E9F50E947439EC9119
:1041A600FE2FE0E00E2B1F2BE885E17021F0F801D1
:1041B6000E94ED3E02C0F801FF70662777272CC0EB
:1041C600E230A0E0FA0779F40E947C390E94853932
:1041D6000E948C39F9F4A885B985E2E00E949639E7
:1041E6000E949F3919C0E330A0E0FA0799F40E94B3
:1041F6007C390E94A4390E948C3961F4A885B9855E
:10420600E4E00E9496390E94F93FEF7FFF7F6F7FBF
:104216007F7002C00E94AB390E94A7402E96089577
:104226000E942B4024970E949E400E94B0390E9413
:10423600543950F0AA89BB895E960E94F93F0E94C4
:10424600B0390E94994010F052E085C0AA89BB8916
:1042560092960E94F93FEE83FF8368877987AA8941
:10426600BB89EC91F0E0E130A0E0FA0709F043C029
:104276000E851F85F801F695E7950E0F1F1F0E9404
:10428600B53909F063C00E94C83951F0D901EC91E3
:10429600EF70AE2FEA85F0E00E94DF3EEA2B01C008
:1042A600EA85D901EC930F5F1F4FAA89BB89149643
:1042B600E1E0EC930E94B53909F048C00E94C83984
:1042C60049F00E94D339E4E00E94D33EFF276627D7
:1042D60077270EC0D901EC91E07F1E2E0E94D339BC
:1042E600E8E00E94D33EFF2766277727EF70E12993
:1042F600D901EC932BC0E230A0E0FA0789F40E94C2
:10430600D8390E9485390E94DD3901F5AE85BF8511
:10431600E2E00E94E539AA85BB85A083B18316C079
:10432600E330A0E0FA0789F40E94D8390E94A43944
:104336000E94DD3959F4AE85BF85E4E00E94E53977
:104346000E94D3390E94214001C052E0AA89BB894C
:104356001496E1E0EC93E52F0E94A540649608953B
:104366000E942B4024971A930E94EE390E945439DA
:1043760018F00E94F33910F012E044C010E00E94D9
:10438600F33908F03FC0E985FA85FA93EA93AF81DD
:10439600B88589859A85C9DEE983FA836B837C8330
:1043A6000E94FC390E948A4069F10E940F390E94DE
:1043B600013A11F412E026C00E940F390E94093A10
:1043C60011F411E01FC0E985FA85FA93EA93EF81AB
:1043D600F88569857A850E9426400E94113A20DF79
:1043E6001E2F103079F4E985FA850E94163A29F0D5
:1043F6000E941B3A1596E1E0EC930E94FC390E945C
:10440600263ABDCFE12F188178C20E942B406097D3
:10441600AC89BD895E960E94F93F0E945F350E9475
:104426002B3AB1F4AC89BD891A960E945C390E9478
:104436002F3A0E948E4039F00E94343A0E942F3A59
:104446000E94994020F00E945A350E94CA351DC02C
:104456000E94373A0E943C3A68DE0E94B1350E94BB
:10446600DD350E94543918F40E945A3585C00E94E1
:10447600343A0E94DD350E94994018F40E941D3698
:104486007BC00E94A1350E94CA350E94E7350E9472
:10449600C5350E94E2350E946F350E94C5350E94DF
:1044A600343A0E9418360E94994060F0E2E0F0E04B
:1044B60060E070E00E94C5350E94413A18F40E94FF
:1044C60016355AC00E94373A0E94D3392EDE0E9412
:1044D600463AA1F00E94DD350E94093A29F00E9471
:1044E600DD350E94013A19F40E941D3645C00E942E
:1044F600413A19F40E9416353FC0CBCF0E94373A95
:104506000E944B3A0E942640AFEFBFEF8FEF9FE02D
:1045160087DEE03019F00E94AB392EC00E942B3A9C
:1045260071F00E94373A0E94503A0E9426400E943B
:10453600B03976DEE03019F00E94AB391DC00E941A
:10454600E235AC89BD891A960E940440EC89FD8942
:104556000E94163A79F0AC89BD891E960E94FF3FEB
:104566003197604070400E940940AC89BD8915961C
:10457600E1E0EC930E94E235669608950E942B4096
:104586000E94343AE250F040604070400E945F352D
:10459600EC81FD81A68DB78D80A191A1E2E0F0E0CE
:1045A60060E070E00E94553A0E945A3A0E94994093
:1045B60018F00E94163575C3EC81FD81E281F0E0AA
:1045C6000E945A3A0E94173F0E942B3F7F936F9397
:1045D600FF93EF93AC81BD819A960E94F93FAF910C
:1045E600BF918F919F910E948C3E5BC3BA93AA9311
:1045F60024971A930A93EE81FF81A885B9851496AC
:10460600ED93FC93A885B98516960E945D3A0E94A3
:10461600643A0E94013A29F00E94693A0E946E3A71
:1046260010F0E2E076C00E94763A29F40E94693AD8
:10463600A081A33009F006C00E94693AB696DF0150
:104646000E945D3A0E94763AA1F40E947D3A38961D
:10465600DF010E94F53FAE81BF81AE17BF0710F0A4
:10466600E2E057C00E94693AB696DF010E94F93F20
:1046760035C00E94693AE281A0E1EA9F8001AE81DD
:10468600BF81A017B10718F10E94693AFA93EA931D
:104696000E942F3A4ADD0E94873A0E94643A0E949D
:1046A600093A11F4E1E035C00E94643A0E94543997
:1046B60028F00E94693A0E946E3A10F0E2E029C0A2
:1046C600EE81FF81E01BF10BEE83FF83D8CF0E94C2
:1046D6007D3AFA93EA930E942F3A50DFDF01CB012D
:1046E600EE81FF810E94ED3E0E948C3AA885B98535
:1046F6001E960E9404400E94693AF296DF01EE81FE
:10470600FF810E94913AA885B9855296ED93FC9354
:10471600E0E0198108812A960895AA9324970E94B9
:10472600A040A985BA8514960E94F53F31968F015F
:10473600002E012A31F0A985BA851E960E94993A63
:1047460011F4E4E0D8C0F801EF7009F0C1C00E948E
:104756001B3A1A960E94993A61F40E949E3A38963C
:10476600DF010E94F53F0E171F0710F0E4E0C3C0FB
:10477600AFC0F8010E94ED3E0F010E949E3AE28111
:10478600F0E03197E021F121309709F0A1C00E94B5
:104796009E3A0E94A33AC9DC0E94CA350E942F3A6B
:1047A6000E94543910F4E2E0A6C00E942F3A0E94FB
:1047B600093A11F4E1E09FC00E949E3A7E96DF011D
:1047C6000E94F93F0E942F3A0E94994008F470C057
:1047D600E885E03011F4E4E08EC00E949E3A0E9423
:1047E600A33A13DE0E94AC3A0E948A4011F4E7E035
:1047F60082C00E942F3A0E94013A11F4E2E07BC087
:104806000E942F3A0E94093A11F4E1E074C00E9416
:104816009E3A0E943239E03011F0E1E06CC00E940D
:104826009E3AF2960E941437A0E0B2E00E9446310A
:104836000E949E3ADF01BE96FF93EF93FD010E9410
:10484600AE3AAF91BF910E94044030E00E949E3A7A
:10485600E2813E17C8F40E949E3A3496A1E0A083F6
:104866000E949E3A0E943239E03011F0E1E043C0E6
:104876000E949E3ABE96DF010E94FF3F0E946F355E
:104886000E9409403F5FE2CF0E949E3ABE96FF9388
:10489600EF93DF010E94F93FDF01CB01E32FF0E048
:1048A6000E94173F0E94553AAF91BF910E94044063
:1048B6000E94E735A985BA851A960E9404400E948F
:1048C6009E3A0E94AE3AA985BA851E960E94044079
:1048D600F801A985BA851496ED93FC930E949E3A39
:1048E600F296DF01F8010E94913AA985BA8552969F
:1048F600ED93FC93E0E00E94A7402B9608950E945A
:10490600B63A21F0E12F0E94A740CBC10E94C53ADA
:1049160001F5AC81BD8152962D913C91D9010C9146
:10492600003011F414E015C0F901E385E87031F4A4
:104936000E94D63A0E941B31E03009F001C009C03E
:10494600EC81FD81FA93EA93A0E0E7DE1E2F10309A
:10495600E9F2E12F0E94A740A4C10E94B63AB1F441
:104966000E94C53A99F4EC81FD81A289B3890C9124
:10497600053E11F0003009F409C0EC81FD81FA937F
:10498600EA93A1E0CADE1E2F103051F3103029F54C
:104996000E94C53A11F5AC81BD8152962D913C918C
:1049A6003A932A93E0E0EA93A0E2B0E00E9446310F
:1049B6000E94D63A0E943431AC81BD8154960E9441
:1049C600F53FE385E871D9011C96EC93AC81BD8176
:1049D6000E94F53F3496A1E0A083E12F0E94A740F4
:1049E60060C1BA93AA9325970E949E40AD85BE8565
:1049F60054964D915C915A934A93E0E2EA93ABE068
:104A0600B0E00E944631E0E0E887E9871E2F2E2FAE
:104A1600E8E0EA87AB85BC850E94E13A0E94E63A67
:104A2600AE0FBF1FAC91AE3209F50E94EB3A0E32C3
:104A360021F4A885B98513970CF003C00E94F73AB4
:104A4600F4CF0F3221F00C3511F0013208F402C018
:104A5600E6E06DC00E94E63A0E94FE3A10F4E4E2F7
:104A660001C0E0E2DA011B96EC9360C00E94EB3ACB
:104A7600013220F00F3211F00C3509F432C00E323B
:104A860019F0EA852E1768F0AA85A83011F40E32BF
:104A960011F0E6E04CC028E0EBE0EA87110F110FB9
:104AA6001FC0003818F01360E6E041C0EAE0F2E00B
:104AB600FA93EA93A02F4EDA309711F0E6E037C06A
:104AC600013410F00B3508F002C0126007C0013641
:104AD60010F00B3708F002C0116000520E94F73A3E
:104AE600C5CF0E94E63A0E94FE3A10F4E4E001C007
:104AF600E0E00E2F203011F4E6E019C0DA01AC91A7
:104B0600A53E19F4DA01E5E0EC93AA85A83011F484
:104B1600110F110FE12FE370E13009F40061E12F6D
:104B2600EC70E43009F40860FA010387E0E00E94C3
:104B3600A5402F960895BA93AA930E94A040E1E05B
:104B4600E03029F0AC81BD81AC91A03209F006C0FD
:104B5600EC81FD813196EC83FD83F1CFAC81BD8183
:104B6600AC91AF3229F0AC81BD81AC91AC3559F432
:104B7600EC81FD813196EC83FD83AE81BF81169673
:104B86000E943A390AC0AE81BF810E94F53F7696EF
:104B9600DF010E94F93F0E94063BAC81BD81AC91CA
:104BA600BB27909760F40E940C3BA0E0B0E01EDDAE
:104BB6001E2FAE81BF8152960E94113B3DC00E94BE
:104BC6000C3BDE0116960DDF1E2F1030A9F5AE81C7
:104BD600BF8195DE1E2FAE81BF8154960E94F53FA0
:104BE600E385E4700E2F103039F0143011F40030E4
:104BF60009F001C015E020C00030F1F4AE81BF819C
:104C060052962D913C91F901E385E07111F415E07E
:104C160013C00E94163B0E940C3F7F936F93FF9335
:104C2600EF930E94193BAF91BF918F919F910E9484
:104C36001E3B0E94063BC3CFE12F0E94A740289649
:104C460008950E942B40EC81FD81A181AA93ED81FC
:104C5600FE81F296FA93EA93EB81FC816D817E8167
:104C66000E94233B11F0E3E01CC0EC81FD810E9411
:104C76002A3B11F0E2E015C0AC81BD81A859BF4FB7
:104C86000E94343B11F4E0E00CC0EC81FD81F29609
:104C9600EE5AFF4FDF010E94343B11F4E0E001C001
:104CA600E1E026960895AA9364970E949E40AD8DF2
:104CB600BE8D0E94F53FE887F987A885B985EC91F6
:104CC600E0530E2F0A3020F41196AC91AA3309F066
:104CD6000AC0E885F9853296E887F987AD8DBE8DDD
:104CE600ED93FC9302C00091B736013010F0EBE073
:104CF600CAC1E02F0E94423B0E94E13AAB8DBC8DB7
:104D0600ED93FC93EE81FF81309711F4ECE0BBC18B
:104D1600AE81BF81EC91E03089F0EE81FF81A18107
:104D26000E94981C5E2F50FD09C0EA8DE03011F0FC
:104D360052FD01C002C0EAE0A6C1A4C1AE81BF8196
:104D4600E0E0EC93E02FAE81BF811196EC93EE810B
:104D5600FF81A1810E94C21B5E2F50FF02C0E3E0CB
:104D660092C1EA8DE03011F052FD01C002C0EAE0C6
:104D76008AC10E940C3B0E941635E88FF98F6A8F14
:104D86007B8FDF01CB015DDF1E2F1130C9F4EE8171
:104D9600FF81F296E254FE4F9F01E481E03081F0FC
:104DA600D90118960E94F93FEE8BFF8B688F798F99
:104DB6000E940C3BA88DB98D8A8D9B8D42DF1E2FDC
:104DC600133011F4E1E05FC1103049F4AE81BF81C8
:104DD600DD960E94F53FE030A2E0FA0711F0EDE023
:104DE60052C1AE81BF81A85BBF4F0E949F390E940E
:104DF6004A3B0E94503A0E948A4041F4AE81BF81EC
:104E0600AA5ABF4F0E94F93F0E944A3B0E94503A5D
:104E1600AE81BF815A960E940440EE81FF81EE5B0F
:104E2600FF4FE081AE81BF811396EC93EE81FF8147
:104E3600E381F0E00E943C3A0E94173F0E942B3F1C
:104E46000E944A3B0E944F3B0E94563BAE81BF8167
:104E560092960E940440EE81FF81E7ADAE81BF814C
:104E66001296EC93AE81BF81AD5BBF4F0E94F53FBA
:104E7600AE81BF811896ED93FC93AE81BF81AB5B8B
:104E8600BF4F0E949F39EE87FF87688B798B0E9400
:104E96008A4051F4AE81BF81AE5ABF4F0E94F93F9E
:104EA600EE87FF87688B798B0E944F3B0E94B03953
:104EB600662777270E94553A0E943C3A0E94963E02
:104EC6007F936F93FF93EF930E945B3BAF91BF91EC
:104ED6008F919F91662777270E949B3EEE81FF81E7
:104EE600E281F0E00E94173F0E947C3FEE5FFF4F99
:104EF6006F4F7F4F0E94633BAE81BF815E960E94DB
:104F0600044011E00E94D339A73FEFE0BE07E0E07E
:104F16008E07E0E09E0708F012E00E94D339A73F13
:104F2600EFEFBE07E0E08E07E0E09E0708F013E033
:104F3600133039F4AE81BF81A25ABF4F0E94F93FA8
:104F460002C00E94683BAE81BF8196960E940440D3
:104F56000E94683B7F936F93FF93EF930E945B3BA6
:104F6600AF91BF918F919F910E948C3AAE81BF8184
:104F76009A960E940440AE81BF811E960E94AB396C
:104F86000E940440AE81BF811496E0E0EC9313309A
:104F960009F05FC0AE81BF811596EC93AE81BF81EB
:104FA600AE59BF4F0E94F53F0E94563BAE81BF816E
:104FB60052960E940440EE81FF81A181AA93EF815F
:104FC600F885F296FA93EA93E985FA850E944C39B8
:104FD6000E94A21CE03011F5EE81FF810E942A3B5F
:104FE600E9F4AE81BF81D2960E94F93FE235A2E58F
:104FF600FA07A1E66A07A1E47A0781F4EE81FF8148
:10500600F296EC51FE4FDF010E94F93FE237A2E72C
:10501600FA07A1E46A07A1E67A0709F01AC0EE8149
:10502600FF81F296E451FE4FDF010E94F93FAE8107
:10503600BF811A960E940440EE81FF81F296E851E4
:10504600FE4FDF010E94F93FAE81BF811E960E948E
:105056000440AE81BF811C939E960E943A39AE8170
:10506600BF8156960E943A39E091B536F091B63630
:105076003196E093B536F093B636AE81BF8116967B
:10508600ED93FC93E0E00E94A5406F960895BA93D5
:10509600AA93EA81FB81309771F0AA81BB81EC91DA
:1050A600E03049F0EA81FB81A681B781E881F98188
:1050B600EA17FB0711F0E9E00AC0EA81FB81A1814A
:1050C6000E94981CE17011F0E3E001C0E0E0249634
:1050D6000895BA93AA931A930A93AC81A13010F05B
:1050E600EBE01DC0EC810E94423B0D911C91002E0D
:1050F600012A19F0D801E0E0EC93EA81FB813097B0
:1051060021F0AA81BB81E0E0EC93EC81A3EBB6E34E
:105116000E940437AA81BB81A083B183E0E0198194
:10512600088125960895AA93A2970E94A040A9A552
:10513600BAA50E94113BEEA1EF71EEA3FE01B79650
:10514600FA93EA93FE017296FA93EA93EAA5EE7150
:10515600AE2FA9DD1E2F103009F013C1FE013496C3
:10516600ECA3FDA3FE017096FA93EA93A9A5BAA54E
:10517600E2DC1E2FEEA1EC7109F496C028971030E0
:1051860089F0143021F4DE015896E7DB1E2F10302B
:1051960019F0E12F2896F5C0EEA5E860EEA72AA53E
:1051A6003BA569C0EEA5E47019F0E8E02896E9C0D1
:1051B6002AA53BA5022E032A21F0F901E385E17118
:1051C60019F0E7E02896DDC0EEA5E87009F453C0B3
:1051D6000E94163B0E940C3F7F936F93FF93EF93C1
:1051E6000E94193BAF91BF918F919F910E941E3BE8
:1051F6000E945F35F9017496A0E0B0E0A083B18308
:10520600F9017A96A083B183F9017C960E94113A3E
:105216000E942140A88DB98D1496E1E0EC93A88DEB
:10522600B98D9E960E945C390E948F35A9F0E88D53
:10523600F98DFA93EA930E94643A92D81E2F1030A1
:1052460011F028969EC00E94343A0E942236A88DFC
:10525600B98D1A960E940440E88DF98DFA93EA9367
:10526600AE81BF81888599850E94C41F1E2F10308C
:1052760011F0289686C0EEA5E870A1F0F9013B96DC
:10528600A0E0A0830E942C1F0E94AC3AD9011E9672
:105296000E940440A88DB98D1496E1E0EC93EEA52A
:1052A600E062EEA7289619C0103011F0E12F69C010
:1052B6002AA13BA1022E032A21F0F901E385E07120
:1052C60011F0E4E05EC0EEA1E27021F0F901E385A1
:1052D600E17009F402C0E7E054C0A889B9899E9636
:1052E6000E94F93FA9A5BAA55A960E940440EAA1D0
:1052F600FBA1A9A5BAA55E96ED93FC93EEA1A9A57F
:10530600BAA51496EC930E94163B0E940C3F7F931D
:105316006F93FF93EF930E94193BAF91BF918F91CB
:105326009F910E941E3BA9A5BAA51E960E94044005
:10533600D9015C960E94F93FA9A5BAA51A960E94C2
:105346000440A9A5BAA516960E943A39A9A5BAA5F8
:105356001596EFEFEC93A9A5BAA556960E943A3991
:10536600E889F989A9A5BAA5ED93FC93A889B98915
:1053760016960E94F53FA9A5BAA51296ED93FC9341
:10538600E0E00E94A740AB960895BA93AA932A97A5
:105396000E949E40EC89FD89EE83FF83A889B98926
:1053A6000E94113B0E946F3B0E94743B0E94793B16
:1053B60011F0E12FB2C1EE89FF89A481A07811F026
:1053C600E2E0ABC1EE89FF89A481A27011F4E7E0A7
:1053D600A4C1EE89FF89A285B38584859585EA896E
:1053E600FB890E948C3A7F936F93FF93EF930E9401
:1053F600803BAF91BF918F919F910E94994018F485
:10540600E0E0EA8BEB8BEA89FB89309709F46BC104
:105416000E94863BFD01BC01F170309709F01FC167
:10542600EE89FF8905800E946F3BE2810E1608F423
:105436004AC0AE89BF8916960E94993AA1F4AE89F0
:10544600BF891E960E94F93F0E94463A59F40E946F
:105456006F3B0E948D3B0E94B135AE89BF891E9677
:105466000E9404400CC00E946F3B0E94743BA289BC
:10547600B389848995890E9408220E94B1350E94C9
:105486001D360E948A4009F42EC10E94DD350E9415
:10549600013A21F40E94923BE2E03FC10E94DD35D1
:1054A6000E94093A21F40E94923BE1E036C10E9433
:1054B6001D36AE89BF8952960E940440AE89BF89C7
:1054C6001596E0E0EC93EE89FF89A481A07489F03B
:1054D6000E946F3B0E94993BE98DFA8D0E94A13B89
:1054E6000E94A63B21F00E94923BE1E016C10E9479
:1054F600AD3B0E946F3B0E94743BA289B3898489AD
:1055060095893CD80E94C5350E94E2350E948A40A2
:1055160021F40E94923BE2E000C10E94B43B0E944B
:1055260018360E94AD360E94C535AA89BB89E0E0CF
:10553600F2E00E94693FAF01042E052A09F464C017
:105546000E94B43BE40FF51F0F010E946F3BE281FE
:10555600D001F0E0EA17FB0750F40E946F3BE281AE
:10556600F0E0DF010E94B43BAE1BBF0BAD010E9411
:105576006F3BE181EA93EF81F885FA93EA93EB8535
:10558600FC856D857E850E942640A42F0E94061DFF
:10559600E03021F00E94923BE1E0BFC00E94B93B9F
:1055A6000E949B3EFA01662777270E949940F8F4ED
:1055B600EE89FF89B0960E94743B0E94A13B0E942F
:1055C6004B3A0E949B3EE0E0F2E060E070E00E9411
:1055D6002B3FA885B98588279927EA0FFB1FFA93E1
:1055E600EA93A0E0B2E00E9434310E94AD3BAE895E
:1055F600BF891596EC91E40FEC93FA01EE0FFF1FAD
:10560600FE2FE0E09F014DC00E94B93B0E949440EE
:10561600C9F00E94863B0D010E94803BD0010E948A
:10562600994058F40E946F3B0E94993BEB85FC859C
:105636006D857E850E94233B09F404C00E94923B3F
:10564600E1E06BC00E94E235AE89BF8956960E94A2
:105656000440AE89BF891596EC91EF5FEC930E94EA
:10566600BD3BA0E0B2E0AE1BBF0B9D01EA89FB8902
:10567600E217F30710F42A893B890E94BD3BAE89E5
:10568600BF899096EA0FFB1FFA93EA930E94C43BE8
:10569600D9010E943431AE89BF891496EC91E06439
:1056A600EC93F901AE81BF81EA0FFB1FEE83FF8306
:1056B600EE89FF890E94C93BDF01CB01F9010E94F7
:1056C6008C3AD0010E940440A889B9890E94F53F0E
:1056D600E20FF31FED93FC93EA89FB89E21BF30BC0
:1056E600EA8BFB8B90CE0E94863B0D010E94803B8D
:1056F600D0010E94944050F4AE89BF8916960E944C
:10570600F93FAE89BF891A960E940440AE89BF89C7
:105716001496EC91E062EC93E0E00E94A540689656
:105726000895BA93AA9324970E94A0400E94693ACA
:10573600FA93EA93EA85FB850E94793B09F074C0E7
:10574600E885F985A481A07209F46EC0A481A074CD
:10575600C1F00E94693AE181EA93E985FA85B0963B
:10576600FA93EA93EB85FC850E94A13B0E94A63B37
:1057760011F0E1E05AC0A885B9851496EC91EF7B4B
:10578600EC930E94693AFA93EA93EA85FB85A28D27
:10579600B38D848D958D0E94C41F1E2F103009F085
:1057A60043C0A885B9855E962D913C91D9011B967B
:1057B600EC91E062EC93A885B9851A960E94F93FB0
:1057C600D9015C960E940440A885B9851E960E9460
:1057D600F53FD9015A96ED93FC93E885F985A685A0
:1057E600B78580899189FD01BC010E94073FD901D7
:1057F6005496ED93FC930E942C1F0E94AC3AD9015B
:1058060056960E940440A885B9851496EC91EF7DC2
:10581600EC930E94693A3496A1E0A0830E94693A0B
:10582600DF010E9428201E2FE12F0E94A7402A9602
:105836000895BA93AA931A93A981BA8172DF1E2F8B
:10584600103021F4A981BA810E94113BE12F188101
:10585600239608950E942B4060971A930E94CF3B8F
:10586600FA93EA93EF89F88D0E94793B09F09AC181
:10587600ED89FE89A481A07811F0E2E094C10E942E
:10588600D43B0E94DA3B0E94944028F4ED89FE89BD
:10589600A481A27009F004C00E94D43B0E94DF3BA1
:1058A600AD89BE8916960E9403390E9416350E945C
:1058B600263A0E94E43B1596EFEFEC930E94DA3B02
:1058C6000E948E4008F011C10E94CF3BE281F0E0B9
:1058D6000E94173FA0E0B2E080E090E00E942B3FDC
:1058E6000E94EC3B0E940F390E948E4098F40E9461
:1058F600F13B0E94F63B7F936F93FF93EF930E94D9
:10590600FC390E94F63BAF91BF918F919F910E9407
:10591600994008F421C00E94FC390E942236DF011A
:10592600CB010E94003C0E9422360E94213F0E9429
:10593600A03E0E94E43B16960E94F93F0E94DA3B85
:105946000E949B3EA98BBA8B8B8B9C8BAD89BE89A3
:1059560052960E94053C2BC0AD89BE891E960E94B8
:10596600053C0E940C3C0E948A40F9F40E94CF3B01
:105976000E948D3B0E94113C0E94163C0E94013AF7
:1059860021F40E941B3CE2E00EC10E94163C0E94DC
:10599600093A21F40E941B3CE1E005C10E940C3C3F
:1059A600AD89BE891E960E9404400E94223C0E9438
:1059B6000C3C0E948A4009F498C00E94003C0E9458
:1059C600DA3B0E94944008F053C0ED89FE89A48119
:1059D600A27099F00E94CF3B0E94293C0E940822A7
:1059E6000E94113C0E940C3C0E948A4029F40E94AD
:1059F600003C0E94DF3B3CC008C00E94CF3B0E9497
:105A0600293C0E9498200E94113C0E94163C0E944C
:105A1600093A21F40E941B3CE1E0C5C00E94163CF5
:105A26000E94543958F00E94CF3B7E96DF010E94B7
:105A3600F93F0E94163C0E94994020F00E941B3CB0
:105A4600E2E0B1C00E94223CED89FE890E94C93B7A
:105A56000E94303C0E948C3ED0010E9404400E946D
:105A6600303C0E94F13B0E94963E0E94DF3BA5CF50
:105A7600ED89FE890E94C93B0E94DA3B0E948C3E5A
:105A8600D0010E9404400E94DA3BE0E0F2E060E0D0
:105A960070E00E947C3FAD89BE891596EC930E940A
:105AA600F13BF170309709F10E94CF3B0E94293CEF
:105AB6000E94C1220E94263A0E940A390E948A4008
:105AC60021F40E941B3CE2E06EC0ED89FE89E5816F
:105AD600F0E00E94EE390E94AD360E94263AAD896A
