:0E0000000C94A2020C9400000C9400000C94CE
:10000E0000000C9400000C9400000C9400000C9462
:10001E0000000C9400000C9400000C9400000C9452
:10002E0000000C9400000C9400000C94D3150C945A
:10003E0000000C9400000C9400000C9400000C9432
:10004E0000000C9404160C9400000C9400000C9408
:10005E0000000C9400000C949D090C9400000C946C
:10006E0000000C9400000C9400000C9400000C9402
:10007E0000000C9400000C9400000C9400000C94F2
:10008E0000000C9400000C9400000C9400000C94E2
:10009E0000000C9400000C9400000C9400000C94D2
:1000AE0000000C9400000C9400000C943B100C9477
:1000BE0000000C9400000C9400000C9400000C94B2
:1000CE0000000C9400000C9400000C9400000C94A2
:1000DE0000000C9400000C9400000C9400000C9492
:1000EE0000000C9400000C9400000C9400000C9482
:1000FE0000000C9400000C9400000C9400000C9472
:10010E0000000C9400000C9400000C9400000C9461
:10011E0000000C9400000C9400000C9400000C9451
:10012E0000000C9400000C94BB160C9400000C9470
:10013E0000000C9400000C9400000C9400000C9431
:10014E0000000C9400000C9400000C9400000C9421
:10015E0000000C9400000C9400000C9400000C9411
:10016E0000000C9400000C9400000C9400000C9401
:10017E0000000C9400000C9400000C9400000C94F1
:10018E0000000C9400000C9400000C9400000C94E1
:10019E0000000C9400000C9400000C9400000C94D1
:1001AE0000000C9468170C9400000C9400000C9442
:1001BE0000000C9400000C9400000C9400000C94B1
:1001CE0000000C9400000C9400000C9400000C94A1
:1001DE0000000C9400000C940000DE02DF02EB0223
:1001EE00EB02F60203030E031903290333033C0348
:1001FE004E036103720381039203A20320222A2B72
:10020E002C5B3D5D7C7F000000040002000180003D
:10021E0040002000100008000400020000000080D2
:10022E0000400020001000080040002000100008D0
:10023E0000040002FF0000000000000000000000AB
:10024E0000000100000001000000B207000080DE87
:10025E0028008033E101000000001F0000001C0098
:10026E0000001F0000001E0000001F0000001E0006
:10027E0000001F0000001F0000001E0000001F00F5
:10028E0000001E0000001F000000000000001F0004
:10029E0000001C0000001F0000001E0000001F00D8
:1002AE0000001E0000001F0000001F0000001E00C6
:1002BE0000001F0000001E0000001F000000303A6A
:1002CE002F746573742E747874000100030001009E
:1002DE000046525F4449534B5F4552520046525FAF
:1002EE00494E545F4552520046525F4E4F545F5234
:1002FE00454144590046525F4E4F5F46494C4500BA
:10030E0046525F4E4F5F504154480046525F494E31
:10031E0056414C49445F4E414D450046525F44455F
:10032E004E4945440046525F455849535400465283
:10033E005F494E56414C49445F4F424A4543540033
:10034E0046525F57524954455F50524F544543549D
:10035E0045440046525F494E56414C49445F445213
:10036E004956450046525F4E4F545F454E41424CF2
:10037E0045440046525F4E4F5F46494C45535953D4
:10038E0054454D0046525F4D4B46535F41424F52CE
:10039E005445440046525F54494D454F555400450F
:1003AE0052524F523A2025700D0A00253248003025
:1003BE003A2F256C642E62696E0025366C640073CC
:1003CE0074617274206932630062756620693263EB
:1003DE00207374617274206F6B00626D70206932CD
:1003EE0063207374617274206F6B004C6F67696366
:1003FE00616C20647269766520303A206D6F756E7F
:10040E00746564204F4B0D0A0046696C6520257398
:10041E002063726561746564204F4B0D0A00746829
:10042E006973206973207465737400257520627971
:10043E00746573207772697474656E206F662025FB
:10044E00750D0A0066696C652073642063617264C1
:10045E000046696C6520257320636C6F736564209C
:10046E004F4B0D0A0046696C652065737420797ACE
:10047E00650053504920535441525400616437373C
:10048E003035207374617274206F6B0073746172F7
:10049E007420646576696365005354415254205745
:1004AE0048494C4500524553554C543D256C64000B
:1004BE00424D5020503D25662C543D25362E336638
:1004CE0000000100EBFE904D53444F53352E30008B
:1004DE004E4F204E414D4520202020464154333270
:1004EE00202020004E4F204E414D452020202046FA
:1004FE0041542020202020002D4E414E00000100AE
:10050E002D4E414E00494E4600000100C2304202BF
:10051E000B002F35CC0201003B35D8020100A4356B
:10052E00DA0201002B36DC0201002E36D004010067
:10053E0037360C050000F894EE27F091CC01F860E8
:10054E00F093CC01F8EDF4BFE093A200A0918000EF
:10055E00AD7FA160F4BFA093800080E090E4A0E0A6
:10056E00B0E2ED930197E9F7E8E1F5E08591959119
:10057E00009761F0A591B59105901590BF01F0011E
:10058E0005900D920197E1F7FB01F0CF8BBF8CBF69
:10059E00E0E0E0B9E1B9E2B9E3B9E4B9E5B9E6B949
:1005AE00E7B9E8B9E9B9EAB9EBB9ECB9EDB9EEB921
:1005BE00EFB92E2EE1E03E2EE0E04E2E5E2E6E2E98
:1005CE007E2E8E2E9E2EAE2EBE2ECE2EDE2EEFEF3B
:1005DE00EDBFEFE5EEBFC0E0D0E30C949A171A938F
:1005EE000A93E091E407EE7FE093E40710E000E069
:1005FE00163188F4103031F0E12FF0E0E457FF4C63
:10060E00E0810E0FE12FF0E0E457FF4CA0810E9435
:10061E00790E1F5FEDCF0093A230A091A2300E9401
:10062E00790EE091E407E160E093E40709911991F6
:10063E0008950E94543411F5A2E0B0E0E0EA0E9461
:10064E00AE41A3E0B0E0E0E30E94AE41A4E0B0E032
:10065E00E3E30E94AE41A5E0B0E0E5E30E94AE41C7
:10066E00A6E0B0E00E945A340E9465340E946C34B9
:10067E0024F40E9474348394F9CFBB240E94543422
:10068E0009F058C0A8E0B0E0EFEA0E94AE41A9E040
:10069E00B0E0E1E00E94AE41AAE0B0E0E3E60E94E5
:1006AE00AE41ABE0B0E0E0E60E94AE41ACE0B0E0BF
:1006BE00E4E60E94AE41ADE0B0E0E0E00E94AE4163
:1006CE00AEE0B0E00E94AE41AFE0B0E00E94AE41BD
:1006DE00A0E1B0E00E94AE41A1E1B0E00E94AE41C7
:1006EE00A2E1B0E00E94AE41A3E1B0E00E94AE41B3
:1006FE00A4E1B0E0E8E90E94AE41A5E1B0E0EAE392
:10070E000E94AE41A6E1B0E0ECED0E94AE41A7E141
:10071E00B0E0E5E00E94AE41A8E1B0E00E94AE413B
:10072E000E9489340E946C3424F40E94973483947E
:10073E00F9CFBB240E945434C9F4AAE1B0E0EAEA2E
:10074E000E94AE41ABE1B0E0E0E60E94AE41ACE10A
:10075E00B0E0EAEE0E94AC340E94B6340E946C34D3
:10076E0024F40E94BD348394F9CFBB240E945434E8
:10077E00C9F4A6E5B0E0E2EA0E94AE41A7E5B0E01A
:10078E00E1E00E94AE41A8E5B0E0E0E00E94AC34AA
:10079E000E94D2340E946C3424F40E94D934839483
:1007AE00F9CFBB240E94543411F5A9E3B0E0EDEA71
:1007BE000E94AE41AAE3B0E0EAE50E94AE41ABE38F
:1007CE00B0E0E0E00E94AE41ACE3B0E0EAE50E94AA
:1007DE00AE41ADE3B0E00E945A340E94EE340E9466
:1007EE006C3424F40E94F5348394F9CFBB240E9418
:1007FE00543409F5A6E7B0E0E6EA0E94AE41A7E759
:10080E00B0E0E0E00E94AE41A8E7B0E00E94AE4149
:10081E00A9E7B0E0E1E00E94AE41AAE7B0E00E9495
:10082E005A340E940A350E946C3424F40E94113509
:10083E008394F9CFBB240E94543409F08CC0AEE1EE
:10084E00B0E0E1EA0E94AE41AFE1B0E0E3E50E9424
:10085E00AE41A0E2B0E0E5E70E94AE41A1E2B0E019
:10086E00EEE60E94AE41A2E2B0E0E0E20E94AE41AE
:10087E00A3E2B0E0E3E50E94AE41A4E2B0E0E5E61B
:10088E000E94AE41A5E2B0E0E0E70E94AE41A6E2D2
:10089E00B0E0E0E20E94AE41A7E2B0E0E2E30E94E7
:1008AE00AE41A8E2B0E0E1E30E94AE41A9E2B0E0C1
:1008BE00E0E20E94AE41AAE2B0E0E2E30E94AE4165
:1008CE00ABE2B0E0E3E30E94AE41ACE2B0E0EAE3BB
:1008DE000E94AE41ADE2B0E0E3E30E94AE41AEE273
:1008EE00B0E0E6E30E94AE41AFE2B0E0EAE30E9480
:1008FE00AE41A0E3B0E0E2E30E94AE41A1E3B0E07E
:10090E00E4E30E94AE41A2E3B0E0E0E20E94AE4119
:10091E00A3E3B0E0E2E30E94AE41A4E3B0E0E0E383
:10092E000E94AE41A5E3B0E0E1E30E94AE41A6E332
:10093E00B0E0E4E30E94AE41A7E3B0E0E0E00E9445
:10094E00AE410E9426350E946C3424F40E94343548
:10095E008394F9CFBB240E945434A1F4AFE3B0E0EA
:10096E00E7EA0E94AE41A0E4B0E0E2E40E94AE41AC
:10097E000E9449350E946C3424F40E9457358394AA
:10098E00F9CFBB240E945434C9F4A2E4B0E0E7E7E7
:10099E000E94AE41A3E4B0E0E0E00E94AE41A4E4C8
:1009AE00B0E0ECEF0E94AC340E946C350E946C34C7
:1009BE0024F40E9473358394F9CFBB240E945434DF
:1009CE0009F041C0AAE4B0E0EBEA0E94AE41ABE40C
:1009DE00B0E0E5E70E94AE41ACE4B0E0EEE60E9486
:1009EE00AE41ADE4B0E0E7E30E94AE41AEE4B0E06C
:1009FE00E0E30E94AE41AFE4B0E0E2E30E94AE411C
:100A0E00A0E5B0E0E2E60E94AE41A1E5B0E0EEE086
:100A1E000E94AE41A2E5B0E0E4E00E94AE41A3E543
:100A2E00B0E0E4E10E94AE41A4E5B0E0EEE00E9449
:100A3E00AE410E9488350E946C3424F40E94963593
:100A4E008394F9CFBB240E94543481F5AAE5B0E01B
:100A5E00EEEA0E94AE41ABE5B0E0EFEF0E94AE4190
:100A6E00ACE5B0E00E94AE41ADE5B0E00E94AE4113
:100A7E00AEE5B0E00E94AE41AFE5B0E00E94AE41FF
:100A8E00A0E6B0E00E94AE41A1E6B0E00E94AE4109
:100A9E00A2E6B0E00E94AE410E94AB350E946C34DB
:100AAE0024F40E94B9358394F9CFBB240E945434A8
:100ABE0029F5AAE6B0E0E4EA0E94AE41ABE6B0E06A
:100ACE00E0E00E94AE41ACE6B0E0ECEF0E94AE4139
:100ADE00ADE6B0E0E8E60E94AE41AEE6B0E0E7EF8C
:100AEE000E94AE410E94CE350E94D6350E946C34D3
:100AFE0024F40E94DD358394F9CFBB240E94543434
:100B0E0009F5A0E7B0E0E8E50E94AE41A1E7B0E04C
:100B1E00E0E00E94AE41A2E7B0E00E94AE41A3E742
:100B2E00B0E0E1E00E94AE41A4E7B0E00E945A348A
:100B3E000E94F2350E946C3424F40E94F93583949D
:100B4E00F9CFBB240E945434C1F4A6E4B0E0E6E72A
:100B5E000E94AE41A7E4B0E0EFEF0E94AE41A8E4E0
:100B6E00B0E00E94AC340E940E360E946C3424F425
:100B7E000E9415368394F9CFBB240E94543401F59C
:100B8E00A4E6B0E0EAE60E94AE41A5E6B0E0E0E001
:100B9E000E94AE41A6E6B0E00E94AE41A7E6B0E0EC
:100BAE000E94AE41A8E6B0E00E945A340E942A3656
:100BBE000E946C3424F40E9431368394F9CFBB2406
:100BCE000895E5EAE0938C30E0E4E0938D30EFE1B8
:100BDE00E0938E30E8E7E0938F30E0E0E0939030E2
:100BEE00EBEBE0939130EBE0E0939230E0E0E093BA
:100BFE009330EFEFE0939430E0E0E0939530E8E04F
:100C0E00E0939630EDEAE0939730EDE0E093983084
:100C1E00ECEAE0939930EDE0E0939A30E0E1E09376
:100C2E009B30E7E2E0939C30E0E0E0939D30E4E01F
:100C3E00E0939E30E0E0E0939F30E6E0E093A0305A
:100C4E00E0E0E093A1300895E0E0E0930406E09345
:100C5E000006E0931006E0931106E0931206E0936F
:100C6E001306E0931406E0931506E0931606E09340
:100C7E001706E0910906E07FE0930906E0E0E093B5
:100C8E000A06E0930B06E0932406E0932006E09319
:100C9E003006E0933106E0933206E0933306E0939C
:100CAE003406E0933506E0933606E0933706E0917E
:100CBE002906E07FE0932906E0E0E0932A06E09320
:100CCE002B060E944636E0E0E0935006E093510674
:100CDE00E0935206E0935306E0935406E0935506D4
:100CEE00E0935606E0935706E0914906E07FE093C5
:100CFE004906E0E0E0934A06E0934B06E0E8E09315
:100D0E006406E0936006E0E0E0937006E0937106FF
:100D1E00E0937206E0937306E0937406E093750613
:100D2E00E0937606E0937706E0916906E07FE09324
:100D3E006906E0E0E0936A06E0936B06E0938406B2
:100D4E00E0938006E0918006E061E0938006E0E0AB
:100D5E00E0939006E0939106E0E1E0939206E0E0E6
:100D6E00E0939306E0939406E0939506E09396063F
:100D7E00E0939706E0918906E07FE0938906E0E034
:100D8E00E0938A06E0938B06E093A406E093A00618
:100D9E00E093B006E093B106E093B206E093B3069B
:100DAE00E093B406E093B606E093B706E091A90689
:100DBE00E07FE093A906E0E0E093AA06E093AB069D
:100DCE00EFE0E093E407E093E007E0E0E093F00764
:100DDE00E093F107E091E907E07FE093E907E0E0B7
:100DEE00E093EA07E093EB070895BA93AA93E0E144
:100DFE00E0932104E0912104E071E1F7E0912404F5
:100E0E00F09125046091260470912704A881B98180
:100E1E000E944F41229608951A93E8EDE4BFE091A7
:100E2E00F000E260E093F000E0915200EF7DE0937D
:100E3E005200E12FEE7FE8601E2FE8EDE4BF109325
:100E4E00F000E091F100E870E1F31460E8EDE4BF2A
:100E5E001093F000E0E0E0932004E0912104E171B2
:100E6E00E1F70E944D36E0912104E061E093210408
:100E7E000E945A36E0932C04F0932D0460932E04B6
:100E8E0070932F04E1E0E0932004E0E0E09322046D
:100E9E0019910895E8EDE4BFE0E0E0932004E091BD
:100EAE002104E171E1F70E944D360E945F36E09316
:100EBE002404F09325046093260470932704E09194
:100ECE002104E061E0932104E1E0E0932004089521
:100EDE00BA93AA93EF97659784E5A0E0B0E0E4E4B7
:100EEE00F2E00E940042FE01E85AFF4F019011907D
:100EFE0061917081F0010E9468360E946F360E94E7
:100F0E00E63FFE01E45AFF4FA193B1938193908384
:100F1E00EC8DFD8D6E8D7F8D0E946F360E94E841A7
:100F2E004CF50E9478360E947D3649F40E94863632
:100F3E000E948B3619F40E94943609F401C003C046
:100F4E000E949E3602C00E945A360E94A3360E940C
:100F5E00A636EC8FFD8F6E8F7F8F0E9478360E94A3
:100F6E00B3360E94B836AC8DBD8D8E8D9F8D0E948E
:100F7E00BD36CECF0E94CF3639F40E94D13619F449
:100F8E000E94943609F401C003C00E949E3602C02E
:100F9E000E945A360E94A3360E94D33629F0EDE104
:100FAE00F0E060E070E004C0ECE1F0E060E070E0E2
:100FBE00E8A7F9A76AA77BA7E88DF98D6A8D7B8DC7
:100FCE000E946F360E94ED41BCF0E889F989DE017E
:100FDE0090960E94D836E88FF98F6A8F7B8F0E9489
:100FEE00E5360E94B3360E94EA36A88DB98D8A8DF9
:100FFE009B8D0E94BD36E0CF0E94EF360E94EC40E2
:10100E00EF5FFF4F6F4F7F4F0E94F5360E94EF3616
:10101E000E94FA360E9404370E94EC400E94093763
:10102E000E946F360E9404370E94FA36ECE3F0E01D
:10103E0060E070E00E94EC400E940E370E946F3616
:10104E00ECE3F0E060E070E00E940141DE01A45AA2
:10105E00BF4FED93FD936D937C930E9478360E9463
:10106E0013377F936F93FF93EF930E94E5360E94A1
:10107E001A37AF91BF918F919F910E94D73F0E94D7
:10108E0021370E94D73FDE01AA5ABF4F0D90BC9167
:10109E00A02D0E944F410E9426370E9413377F9346
:1010AE006F93FF93EF930E942B370E941A37AF91E5
:1010BE00BF918F919F910E94D73F0E946F360E94E1
:1010CE00D73FDE01AC5ABF4F0D90BC91A02D0E94B0
:1010DE004F41EF96A1960895BA93AA93EF972D9745
:1010EE0084E3A8E1B0E0E8E9F2E00E9400420E9449
:1010FE0030370E94C7400E94B8360E9430370E9497
:10110E003D370E94EA36DE01AA5ABF4F0D901D9060
:10111E008D919C91D0010E9448370E94F5360E9415
:10112E004F370E94C7400E9409370E944F370E94D6
:10113E003D370E940E370E94CF3639F40E94D136C9
:10114E0019F40E94943609F401C003C00E949E3621
:10115E0002C00E945A360E94A336DE01AE5ABF4F1D
:10116E000D901D908D919C91D0010E9448377F93D8
:10117E006F93FF93EF930E942B37ACE3B0E080E0C8
:10118E0090E00E949C40AF91BF918F919F910E94E1
:10119E00D73F7F936F93FF93EF93FE01E25BFF4F79
:1011AE000190119061917081F0010E945C370E9454
:1011BE00DC3F0E9404370E947640AF91BF918F9121
:1011CE009F910E94D73F7F936F93FF93EF930E945F
:1011DE0061370E946637A8E1B0E080E090E00E949F
:1011EE009C400E946836AF91BF918F919F910E9453
:1011FE00D73F0E946B370E944F410E94D33629F091
:10120E00EDE1F0E060E070E004C0ECE1F0E060E001
:10121E0070E0E8A3F9A36AA37BA30E94E5360E94BF
:10122E0066370E94EA360E9472370E94E24114F538
:10123E000E946B37BF93AF930E9444417F936F938D
:10124E00FF93EF93E889F989DE0158960E94D8360C
:10125E00AF91BF918F919F910E94D73FAF91BF9158
:10126E000E944F410E94E5363197604070400E94C7
:10127E00EA36D9CF0E9478360E9466370E94B83679
:10128E000E948636A23BE7E0BE07E0E08E07E0E074
:10129E009E0784F10E94CF3639F40E94D13619F49C
:1012AE000E94943609F401C003C00E949E3602C00B
:1012BE000E945A360E94A3360E946B37BF93AF939B
:1012CE000E9444417F936F93FF93EF930E94A63643
:1012DE00AF91BF918F919F910E94D73FAF91BF91D8
:1012EE000E944F410E9478363197604070400E94B4
:1012FE00B836C6CFEF966B960895E8E0E0934506B4
:10130E00E3E0E093A508E091A308E07CE063E093BE
:10131E00A308E5EFE093A608ECECE093A708E091B4
:10132E00A408E07EE861E093A40808950E94773750
:10133E00D090A108C090A008ED2DEC7131F4E22DF3
:10134E00F0E0E05CFF4CC0822394E091C230F0E00C
:10135E00EF3FA0E0FA0709F04AC2E0914030F0E01A
:10136E00EF3FA0E0FA0731F40E948537EFEFE093EC
:10137E0040303BC2EA3CA0E0FA0721F4EAEC0E94BE
:10138E008B3733C2E53FA0E0FA0721F4E5EF0E9468
:10139E008B372BC2E53BA0E0FA0721F4E5EB0E9468
:1013AE00933723C2EA3EA0E0FA0721F4EAEE0E9448
:1013BE008B371BC2E53EA0E0FA0721F4E5EE0E9452
:1013CE009B3713C2E73EA0E0FA0721F4E7EE0E9436
:1013DE009B370BC2E036A0E0FA0721F4E0E60E944C
:1013EE008B3703C2E83EA0E0FA0721F4E8EE0E9434
:1013FE00A337FBC1E93EA0E0FA0721F4E9EE0E9413
:10140E00A337F3C1E13DA0E0FA0749F4E1EDE09323
:10141E00C230E5E03E2EEFEFE0934030E6C1E33D13
:10142E00A0E0FA0721F4E3ED0E949337DEC1E53D1B
:10143E00A0E0FA0721F4E5ED0E94AB37D4C1E73DF9
:10144E00A0E0FA0721F4E7ED0E94AB37CCC1E03AF9
:10145E00A0E0FA07D9F40E94B1370E94CE350E945F
:10146E0065340E946C3424F40E9474348394F9CF52
:10147E0088248B1440F4A82DB0E0AE5FBF4F0E94BD
:10148E00B6378394F6CF0E94BB37AFC1E13AA0E0E6
:10149E00FA07C9F40E94B1370E9426350E946C34B7
:1014AE0024F40E9434358394F9CF88248B1440F4AD
:1014BE00A82DB0E0A25EBF4F0E94B6378394F6CF40
:1014CE000E94BB3793C1E23AA0E0FA07D9F40E941A
:1014DE00B1370E94C0370E94D2340E946C3424F47B
:1014EE000E94D9348394F9CF88248B1440F4A82D0C
:1014FE00B0E0AA5ABF4F0E94B6378394F6CF0E942F
:10150E00BB3774C1E43AA0E0FA07D9F40E94B137B0
:10151E000E94CE350E94D6350E946C3424F40E946F
:10152E00DD358394F9CF88248B1440F4A82DB0E0D8
:10153E00A659BF4F0E94B6378394F6CF0E94BB3791
:10154E0055C1E63AA0E0FA07D9F40E94B1370E94DD
:10155E00CE350E940A350E946C3424F40E94113557
:10156E008394F9CF88248B1440F4A82DB0E0AA58A8
:10157E00BF4F0E94B6378394F6CF0E94BB3736C159
:10158E00E73AA0E0FA07C9F40E94B1370E94493544
:10159E000E946C3424F40E9457358394F9CF88242A
:1015AE008B1440F4A82DB0E0A15CBF4F0E94B6375B
:1015BE008394F6CF0E94BB3719C1EA3AA0E0FA072E
:1015CE00D9F40E94B1370E94C0370E94B6340E94EF
:1015DE006C3424F40E94BD348394F9CF88248B1488
:1015EE0040F4A82DB0E0A65EBF4F0E94B63783949C
:1015FE00F6CF0E94BB37FAC0EB3AA0E0FA07C9F467
:10160E000E94B1370E9488350E946C3424F40E94E7
:10161E0096358394F9CF88248B1440F4A82DB0E02E
:10162E00A65BBF4F0E94B6378394F6CF0E94BB379E
:10163E00DDC0ED3AA0E0FA07D9F40E94B1370E945E
:10164E00CE350E94EE340E946C3424F40E94F534A0
:10165E008394F9CF88248B1440F4A82DB0E0A75CB6
:10166E00BF4F0E94B6378394F6CF0E94BB37BEC0E1
:10167E00EE3AA0E0FA07C9F40E94B1370E94AB35EA
:10168E000E946C3424F40E94B9358394F9CF8824D7
:10169E008B1440F4A82DB0E0A65ABF4F0E94B63767
:1016AE008394F6CF0E94BB37A1C0EF3AA0E0FA07B1
:1016BE00C9F40E94B1370E9489340E946C3424F41C
:1016CE000E9497348394F9CF88248B1440F4A82D6C
:1016DE00B0E0A85FBF4F0E94B6378394F6CF0E944A
:1016EE00BB3784C0E835A0E0FA07D9F40E94B137C1
:1016FE000E94CE350E94F2350E946C3424F40E9472
:10170E00F9358394F9CF88248B1440F4A82DB0E0DA
:10171E00A059BF4F0E94B6378394F6CF0E94BB37B5
:10172E0065C0EA36A0E0FA07D9F40E94B1370E94EC
:10173E00CE350E942A360E946C3424F40E94313633
:10174E008394F9CF88248B1440F4A82DB0E0AC59C3
:10175E00BF4F0E94B6378394F6CF0E94BB3746C068
:10176E00E637A0E0FA07D9F40E94B1370E94C037DD
:10177E000E940E360E946C3424F40E941536839417
:10178E00F9CF88248B1440F4A82DB0E0AA5BBF4F8C
:10179E000E94B6378394F6CF0E94BB3727C0E73737
:1017AE00A0E0FA07D9F40E94B1370E94C0370E9418
:1017BE006C350E946C3424F40E9473358394F9CFF7
:1017CE0088248B1440F4A82DB0E0AE5BBF4F0E946E
:1017DE00B6378394F6CF0E94BB3708C0EFEFE09385
:1017EE004030E093C230E1E03E2E222404C0EA3CB9
:1017FE00A0E0FA0739F5E2E0E21519F5A0914030C4
:10180E00A13021F4A0914130A13009F003C00E9413
:10181E00C83711C0A0914030AF3021F4A0914130B3
:10182E00AF3009F008C00E94C8370E948537E1E04A
:10183E00E093C13005C0EFEFE093C230E1E03E2E01
:10184E0022244FC2E53FA0E0FA0711F5E2E0E215CF
:10185E00F1F4A0914030AF3521F4A0914130AF3575
:10186E0009F012C0A5EF3ED2A5EF3CD2A5EF0E9423
:10187E00CE372224A5E0B0E00E94203EE8EDE4BF82
:10188E00E1E0E093790003C00E948537222429C24B
:10189E00E53BA0E0FA0751F5E4E0E21531F58824C6
:1018AE00AA24E3E08E1660F40E94D137AE0EA82D66
:1018BE00B0E0AD53BF4C0E94D137EC938394F1CF7F
:1018CE00E0914330E093C630A0914330AA1651F414
:1018DE0090904030A5EB06D2A5EB0E94CE37222485
:1018EE00AA2403C00E9485372224FBC1EA3EA0E051
:1018FE00FA07E9F4E2E0E215C9F48824AA24E1E04B
:10190E008E1628F40E94D137AE0E8394F8CFA09194
:10191E004130AA1641F4AAEEE5D1AAEE0E94CE37C6
:10192E002224AA2403C00E9485372224DAC1E0367D
:10193E00A0E0FA07F9F4E2E0E215D9F48824AA242B
:10194E00E1E08E1628F40E94D137AE0E8394F8CFC4
:10195E00A0914130AA1651F4A0E6C4D1A0E0C2D1A4
:10196E00A0E00E94CE372224AA2403C00E9485370D
:10197E002224B7C1E53EA0E0FA07E9F4E7E0E2155C
:10198E00C9F48824AA24E6E08E1628F40E94D137E2
:10199E00AE0E8394F8CFA0914630AA1641F4A5EE70
:1019AE00A1D1A5EE0E94CE372224AA2403C00E9404
:1019BE008537222496C1E73EA0E0FA07E9F4E7E076
:1019CE00E215C9F48824AA24E6E08E1628F40E94B3
:1019DE00D137AE0E8394F8CFA0914630AA1641F4BB
:1019EE00A7EE80D1A7EE0E94CE372224AA2403C0F0
:1019FE000E948537222475C1E83EA0E0FA07E9F47B
:101A0E00E3E0E215C9F48824AA24E2E08E1628F455
:101A1E000E94D137AE0E8394F8CFA0914230AA1611
:101A2E0041F4A8EE5FD1A8EE0E94CE372224AA245C
:101A3E0003C00E948537222454C1E93EA0E0FA0774
:101A4E00E9F4E3E0E215C9F48824AA24E2E08E1654
:101A5E0028F40E94D137AE0E8394F8CFA091423075
:101A6E00AA1641F4A9EE3ED1A9EE0E94CE37222449
:101A7E00AA2403C00E948537222433C1E13DA0E091
:101A8E00FA0709F040C0E5E0E215E1F58824AA2442
:101A9E00E4E08E1628F40E94D137AE0E8394F8CF70
:101AAE00A0914430AA1659F5E0E0E0934430E0935B
:101ABE00CB30E093CC30E093CD30E093CE300E942B
:101ACE00D7370E94E5370E94F6370E94E537E0913E
:101ADE004330F0E00E94FE37E093CB30F093CC30F1
:101AEE006093CD307093CE30E1E0E093CF30A1ED36
:101AFE00F9D0A1ED0E94CE372224AA2403C00E9461
:101B0E0085372224EEC0E33DA0E0FA07E9F5E4E0D4
:101B1E00E215C9F58824AA24E3E08E1628F40E9463
:101B2E00D137AE0E8394F8CFA0914330AA1641F56B
:101B3E00E0E0E0934330E093D130E093D230E09395
:101B4E00D330E093D4300E94D7370E9403380E94DE
:101B5E000C38A4E6B0E080E090E00E947640DF0111
:101B6E00CB010E94F6370E940338E1E0E093D030BB
:101B7E00A3EDB8D0A3ED0E94CE372224AA2403C031
:101B8E000E9485372224ADC0E53DA0E0FA0709F09A
:101B9E0053C0E1E0E21509F04EC0A0914030A53DE2
:101BAE0009F043C00E9415380E9427380E94C74092
:101BBE00E093D5300E9427380E94FD40DF01CB0113
:101BCE000E9434380E94C740E093D6300E943938C4
:101BDE000E9434380E943D37E093D7300E94393846
:101BEE000E944837E093D8308824E0E0E093D93063
:101BFE00E4E08E1650F4A091D9300E944238E08174
:101C0E00EA0FE093D9308394F3CFA5ED6BD08824FF
:101C1E00E5E08E1630F40E944238A08163D08394A2
:101C2E00F7CFEFEF0E94AB3703C0EFEFE093C23078
:101C3E00E1E03E2E222455C0E73DA0E0FA0709F070
:101C4E004AC0E1E0E21509F045C0A0914030A73D41
:101C5E00D9F50E9415380E9447380E94C740E0937C
:101C6E00D5300E9447380E943D37E093D630A09180
:101C7E00D130B091D2308091D3309091D4300E9437
:101C8E004837E093D7308824E0E0E093D830E3E0A3
:101C9E008E1650F4A091D8300E944238E081EA0F9F
:101CAE00E093D8308394F3CFA7ED1CD08824E4E0E2
:101CBE008E1630F40E944238A08114D08394F7CF50
:101CCE00EFEF0E94AB3703C0EFEFE093C230E1E0DD
:101CDE003E2E222406C0EFEFE09340300E9485375F
:101CEE002224D3C1AA93E091A108E072E1F3E88126
:101CFE00E093A008A1C1E0E8E0936506E3E0E0937D
:101D0E00B509E091B309E07CE093B309EEE6E09308
:101D1E00B609E8EAE093B709E091B409E07EE8601D
:101D2E00E093B4090895AA93E091B109E072E1F34A
:101D3E00E881E093B00980C11A9310E0AEE6B0E3FB
:101D4E000E940332A12FB0E0AE17BF0740F4E12F7F
:101D5E00F0E0E259FF4CA081E6DF1F5FEFCF0E945B
:101D6E005038E0E0EA93AEE1B0E00E94E631AAE03E
:101D7E00DADFADE0D8DF4BC1AA93A881A13010F015
:101D8E00A03108F01EC00E945038EDEAF3E0FA933D
:101D9E00EA93EC81A8EEB1E00E9455380E945941B9
:101DAE000E945B38E0E0EA93A0E0B0E00E940C29CC
:101DBE00E0E0E0933B35E0934006E09344060E945A
:101DCE0046363AC1BA93AA93A881B981EC91E07FC5
:101DDE00EC931996ECE0EC93229608951A930A93DD
:101DEE001FB7F894E0910008E07FE560E0930008EB
:101DFE00E0910108E870E0930108E0910308E071BA
:101E0E00E0930308E0910608E07FE160E0930608A6
:101E1E00E0910708E070E0930708E0919900EE7FEB
:101E2E000E2FE8EDE4BF00939900E0918008E07C6E
:101E3E00E0938008E0918308E87EE0938308E0E079
:101E4E00E0938208A4E8B8E00A2EAC91E0918408F1
:101E5E00E470EA2BA02DEC93E0910C08E0930C08B3
:101E6E00E0E0F0E0E0932008F0932108E1E1FAE7EA
:101E7E00E0932608F0932708E0E0F0E0E0932808CE
:101E8E00F0932908E0932A08F0932B08E0932C088E
:101E9E00F0932D08E0932E08F0932F081FBF0991A1
:101EAE00199108951A931FB7F894A0E4B8E08ADF49
:101EBE00E5E0E0934008E0E0E0934108E09343085A
:101ECE00E0934408E0914608E07FE160E093460825
:101EDE00E0E0E0934708E0919008ED7FE0939008F2
:101EEE00E0914C08E0934C08E0E0F0E0E0936008ED
:101EFE00F0936108E7EAF1E6E0936608F09367086D
:101F0E00E0E0F0E0E0936808F0936908E0936A0877
:101F1E00F0936B087BC01A931FB7F894A0E0B9E05A
:101F2E0051DFE4E0E0930009E0E0E0930109E09383
:101F3E000309E0930409E3E0E0930609E0E0E0938F
:101F4E000709E0919009EE7FE0939009E0910C096A
:101F5E00E0930C09E0E0F0E0E0932009F093210912
:101F6E00EFE3FCE9E0932609F0932709E0E0F0E0C7
:101F7E00E0932809F0932909E0932A09F0932B099D
:101F8E00E0932C09F0932D09E0932E09F0932F097D
:101F9E003DC01A931FB7F894A0E0BBE013DFE7E053
:101FAE00E093000BE0E0E093010BE093030BE09372
:101FBE00040BE2E0E093060BE0E0E093070BE09108
:101FCE00900BEE7FE093900BE0910C0BE0930C0BDB
:101FDE00E0E0F0E0E093200BF093210BE1E1FAE773
:101FEE00E093260BF093270BE0E0F0E0E093280B54
:101FFE00F093290BE0932A0BF0932B0BE0932C0B11
:10200E00F0932D0BE0932E0BF0932F0B1FBF199116
:10201E000895E3E5E093C008E091C108EC7FE093FA
:10202E00C1080895AA93E881E093C308E091C2081D
:10203E00E078E1F3E091C30821960895E0EAF4E038
:10204E000E946538A0E00E94DE320E946A38E0EA03
:10205E00F4E0FA93EA93E0E4EA93ABE90E94F332F8
:10206E00E0E0E093A80408950A921A92FA926A9315
:10207E007A938A939A93AA93BA93EA93FA93EFB7C1
:10208E00EA93AEE7B5E30E941E33E991EFBFF991F3
:10209E00E991B991A9919991899179916991F99063
:1020AE00199009901895E6EFE0930736E7EFE09365
:1020BE000836E4EFE0930536EEE2E0930636E6EFFF
:1020CE00E0930D36E7EFE0930E36E8EFE0930F3630
:1020DE00E4EFE0930B36E091A435E295E07FEE0F4E
:1020EE00EE0FEC5CE0930C36EAEAE093D935EBEABE
:1020FE00E093DA35ECEAE093DB35EDEAE093DC359C
:10210E00EEEAE093DD35EFEAE093DE35E0EBE093C7
:10211E00DF35E1EBE093E035E2EBE093E135E3EB25
:10212E00E093E235E4EBE093E335E5EBE093E43561
:10213E00E6EBE093E535E7EBE093E635E8EBE0938D
:10214E00E735E9EBE093E835EAEBE093E935EBEBC5
:10215E00E093EA35ECEBE093EB35EDEBE093EC3509
:10216E00EEEBE093ED35EFEBE093EE3508959BDF6C
:10217E000E946A38E7E7EA93E9EDF5E30E946F38CB
:10218E00EFEEF5E30E947438E7E7EA93EBEDF5E343
:10219E000E946F38E1EFF5E30E947438E7E7EA93A7
:1021AE00EDEDF5E30E946F38E3EFF5E30E9474382E
:1021BE00E7E7EA93EFEDF5E30E946F38E5EFF5E31D
:1021CE000E947438E7E7EA93E1EEF5E30E946F3878
:1021DE00E7EFF5E30E947438E7E7EA93E3EEF5E301
:1021EE000E946F38E9EFF5E30E947438E7E7EA934F
:1021FE00E5EEF5E30E946F38EBEFF5E30E947438DD
:10220E00E7E7EA93E7EEF5E30E946F38EDEFF5E3CB
:10221E000E947438E7E7EA93E9EEF5E30E946F381F
:10222E00EFEFF5E30E947438E7E7EA93EBEEF5E3A0
:10223E000E946F38E1E0F6E30E947438E7E7EA9314
:10224E00EDEEF5E30E946F38E3E0F6E3FA93EA93DE
:10225E00A2E00E94A633B091EF35A0E0E091F035F8
:10226E00F0E0EA0FFB1FE0938A35F0938B35F09187
:10227E00F135E0E0DF01E091F235F0E0EA0FFB1F0F
:10228E00E0938C35F0938D35F091F335E0E0DF017E
:10229E00E091F435F0E0EA0FFB1FE0938E35F093FA
:1022AE008F35F091F535E0E0DF01E091F635F0E0A5
:1022BE00EA0FFB1FE0939035F0939135F091F735CF
:1022CE00E0E0DF01E091F835F0E0EA0FFB1FE0936C
:1022DE009235F0939335F091F935E0E0DF01E0911E
:1022EE00FA35F0E0EA0FFB1FE0939435F093953545
:1022FE00F091FB35E0E0DF01E091FC35F0E0EA0F14
:10230E00FB1FE0939635F0939735F091FD35E0E0A5
:10231E00DF01E091FE35F0E0EA0FFB1FE093983508
:10232E00F0939935F091FF35E0E0DF01E091003652
:10233E00F0E0EA0FFB1FE0939A35F0939B35F09196
:10234E000136E0E0DF01E0910236F0E0EA0FFB1F1C
:10235E00E0939C35F0939D35F0910336E0E0DF017C
:10236E00E0910436F0E0EA0FFB1FE0939E35F09308
:10237E009F3508950E946A38E7E7EA93E5E0F6E3B1
:10238E000E946F380E947A38E7E7EA93E7E0F6E3B7
:10239E000E946F38E9E0F6E30E947438E7E7EA93AB
:1023AE00EBE0F6E30E946F380E947A38E7E7EA9393
:1023BE00EDE0F6E30E948638E0E1F6E30E948B380A
:1023CE00E7E7EA93EEE0F6E30E948638E1E1F6E312
:1023DE000E948B38E7E7EA93EFE0F6E30E94863837
:1023EE00E2E1F6E3FA93EA93A1E00E94A633B091FC
:1023FE000936A0E0E0910A36F0E0EA0FFB1F0E94DA
:10240E006240E093A035F093A1356093A2357093AE
:10241E00A335E0911036FF27662777270E94913863
:10242E000E949A38E8E00E9406400E949138E0919E
:10243E001136F0E00E949A380E94FE370E949138C1
:10244E000E949A38E8E00E9406400E949138E0917E
:10245E001236F0E00E949A380E94FE370E949138A0
:10246E00A091A435E8E0EA1B0E949A380E9412401F
:10247E000E949138E0919435F0919535A091A03558
:10248E00B091A1358091A2359091A335662777271B
:10249E000E94E63FE0919235F091933566277727BB
:1024AE000E94A338EFE00E94A838A0919C35B0910D
:1024BE009D350E946740EBE00E9406407F936F932C
:1024CE00FF93EF93E0919E35F0919F350E94B338C4
:1024DE000E94FE37AF91BF918F919F910E94EC4069
:1024EE000E94BC38E093B135F093B2356093B335AA
:1024FE007093B4350E94C838E85FFF4F6F4F7F4F1F
:10250E00DF01CB01E4E00E941240E093B535F09379
:10251E00B6356093B7357093B8350E94963EDF019D
:10252E00CB010E94D1380E946E3FE093D135F093DB
:10253E00D2356093D3357093D4350E94C838E05AA3
:10254E00FF4060407040E093B935F093BA35609328
:10255E00BB357093BC350E94D6380E94DF380E947E
:10256E009C40A0919835B09199350E94E838ECE0E6
:10257E000E941240DF01CB01EBE00E94A8380E94BE
:10258E00D638A0918C35B0918D350E94E838EBE0AD
:10259E000E9412400E94BC380E94EB38A0918A35EE
:1025AE00B0918B350E946740E4E0F0E060E070E0AF
:1025BE000E949C40A091BD35B091BE358091BF3533
:1025CE009091C0350E94DC3FE091A4350E940640F8
:1025DE000E94F438E093C135F093C2356093C33551
:1025EE007093C4350E94D638A0918E35B0918F3538
:1025FE000E94E838EDE00E94A8380E94D6380E946A
:10260E00DF380E94A338ECE00E941240A09196356C
:10261E00B09197350E9467400E94FD380E94BC38E9
:10262E000E94F4380E94EB38E091BD35F091BE3532
:10263E006091BF357091C035E050F0486F4F7F4FBD
:10264E00A0919035B0919135882799270E947640B8
:10265E00DF01CB01EFE00E941E40E093C935F093FD
:10266E00CA356093CB357093CC35A091C135B091FE
:10267E00C2358091C3359091C435E091A535F09166
:10268E00A6356091A7357091A8350E94E13F7F93E2
:10269E006F93FF93EF93E091A435A0E5B3EC0E9406
:1026AE00FD3FAF91BF918F919F91662777270E9433
:1026BE007640E093CD35F093CE356093CF35709361
:1026CE00D0350E940239A030E0E0BE07E0E08E0770
:1026DE00E0E89E0788F4E091CD35F091CE3560911B
:1026EE00CF357091D0350E944140DF01CB010E9461
:1026FE000B390E94C74008C00E940B390E94023954
:10270E000E94C7400E944140E093C535F093C63504
:10271E006093C7357093C8350E9414397F936F93B9
:10272E00FF93EF930E941439AF91BF918F919F91B8
:10273E000E949C400E942039E091A935F091AA3563
:10274E006091AB357091AC35AEEDBBE080E090E0C2
:10275E000E94FD380E9420390E942939A3E4B3EE6D
:10276E008FEF9FEF0E94FD380E94BC38E153F14F6E
:10277E006F4F7F4FDF01CB01E4E00E9412400E94B9
:10278E0032390E94D73FE093C535F093C63560933A
:10279E00C7357093C8350E9429390E94963EDF01D5
:1027AE00CB01EFE6F2E565E073E40E946E3FE09345
:1027BE00D535F093D6356093D7357093D8350895C7
:1027CE00E2E0E0931936E0E0E0931A360E946A38B0
:1027DE00E8E1EA93E9E1F6E30E946F380E943B39A3
:1027EE00E0931736E2E3E09318360E946A38E8E188
:1027FE00EA93E7E1F6E388C0E0E0E09313360E9447
:10280E006A38E8E1EA93E3E1F6E30E948638E4E110
:10281E00F6E3FA93EA93A1E080C0E1E0E093153687
:10282E000E946A38E8E1EA93E5E1F6E36DC0E2E082
:10283E00E0932136E0E0E09322360E946A38E9E127
:10284E00EA93E1E2F6E30E946F380E943B39E0938F
:10285E001F36E8E9E09320360E946A38E9E1EA93F0
:10286E00EFE1F6E351C0E0E0E0931B360E946A38D8
:10287E00E9E1EA93EBE1F6E30E948638ECE1F6E358
:10288E00FA93EA93A1E049C0E1E0E0931D360E947D
:10289E006A38E9E1EA93EDE1F6E336C0E2E0E0936F
:1028AE002936E0E0E0932A360E946A38EAE1EA939C
:1028BE00E9E2F6E30E946F380E943B39E093273637
:1028CE00E0E4E09328360E946A38EAE1EA93E7E210
:1028DE00F6E31AC0E0E0E09323360E946A38EAE19C
:1028EE00EA93E3E2F6E30E948638E4E2F6E3FA9333
:1028FE00EA93A1E012C0E1E0E09325360E946A3827
:10290E00EAE1EA93E5E2F6E3FA93EA93E2E0EA9388
:10291E00E0E0F0E0FA93EA93A0E00E94A633089577
:10292E00AA93E0E1E0934606AB817CDBAA817ADBD9
:10293E00A98178DBA88176DBE0914806ED6FEF3F49
:10294E00D9F3E0E1E093450624960895AA930E94F8
:10295E00F441E0912B36AC81EA1729F0A13011F049
:10296E00A23009F401C010C0AC81A13011F40E9454
:10297E004439AC81A23041F4E1E2EA93ECE0EA930F
:10298E00E1E1EA93A0E4CCDFEC81E0932B36E09119
:10299E004806ED6FEF3FD9F3E0E1E09346068BE694
:1029AE008A95F1F7A8E33EDBAFEF3CDB0E2F112744
:1029BE00AFEF38DB2E2F3327E0E1E0934506F02F03
:1029CE00E0E0E22BF32BE4C01A930A930FB7F894CE
:1029DE00E0915000E260E0935000E0914100E07819
:1029EE001E2FE8EDE4BF10934100E0916000EE7FF2
:1029FE00E0936000E0915100E270E1F3E09140005D
:102A0E00E87FE1601E2FE8EDE4BF10934000E091F7
:102A1E005000E27EE0935000E091B400EC7FE09332
:102A2E00B4000FBF099119910895AA931A93E2E089
:102A3E00E093CA01E981F0E01491E0E0E093CA016D
:102A4E00E12F188122960895A0E2EFDFE0930C02A9
:102A5E00A1E2EBDFE0930D02E0E0E0930102E3E0A0
:102A6E00E0930402E1E1E0930202E0E0E093180259
:102A7E00E0931902E1E0E0932002E0E2E09321020C
:102A8E00E1E0E0932802E8E2E0932902E1E0E0933E
:102A9E003002E0E3E0933102E1E0E0933802E8E354
:102AAE00E0933902E0E0E0930302E0932202E09328
:102ABE002A02E0933202E0933A02E0910002E160D2
:102ACE00E09300024CC0AA930E94F441EC81F0E026
:102ADE00A0E2B2E00E944D39F801A381A170E1F3AA
:102AEE004FC0A4E2A2DFE0934C02A5E29EDFE0938A
:102AFE004D02E0E0E0934102E3E0E0934402E0E1C6
:102B0E00E0934202E0E0E0935802E0935902E1E0E4
:102B1E00E0936002E0E0E0936102E1E0E09368029E
:102B2E00E8E0E0936902E1E0E0937002E0E1E09317
:102B3E007102E1E0E0937802E8E1E0937902E0E0EF
:102B4E00E0934302E0936202E0936A02E093720222
:102B5E00E0937A02E0914002E160E093400285E169
:102B6E008A95F1F70895AA930E94F441EC81F0E062
:102B7E00A0E6B2E00E944D39F801A381A170E1F305
:102B8E00D8011396E1E0EC93F80124813581F90127
:102B9E000E94FB41259608950E9477371A930A9357
:102BAE00E091C130E03021F0A091C230AF3F09F08A
:102BBE0006C00E94F602A1E0B0E00E94203E10E0A6
:102BCE0000E00731B8F4E12FF0E0ED5EFF4CFA9330
:102BDE00EA93E9EBF3E0FA93EA93E02FF0E0E4579F
:102BEE00FF4CE081FF27662777270E9457390F5F3A
:102BFE001E5FE7CF0991199188C10E9477370E9415
:102C0E005E39A1E0A3DEE0932C36F0932D36E091F1
:102C1E002C36F0912D36E050F048E0932C36F093A0
:102C2E002D36E0912C36E0939330E0912C36F091D6
:102C3E002D360E944640E09394300E9464397724EA
:102C4E00E4E07E1650F40E946A390E9473390E94A5
:102C5E0078390E9473397394F3CF6624EAE06E16C6
:102C6E0088F57724E4E07E1658F5E72DA6E6B0E366
:102C7E000E945538FF93EF930E946A390E9440419B
:102C8E00FF93EF93A72D1FDFAF91BF91EA0FFB1FAD
:102C9E00AF91BF910E948139FF93EF930E947839D3
:102CAE000E944041FF93EF93A72D5DDFAF91BF913F
:102CBE00EA0FFB1FAF91BF91ED93FC937394D2CFAC
:102CCE006394CCCF7724E4E07E16A8F4E72DA6E635
:102CDE00B0E30E945538BF010E946A390E948739BD
:102CEE000E948139BF010E9478390E948739ED9385
:102CFE00FC937394E8CFE0915E30E0938D30E091D9
:102D0E005F30E0938E30E0916030E0939130E0914F
:102D1E006130E0939230E0916230E0938F30E09139
:102D2E006330E0939030E0916430E0939930E0911D
:102D3E006530E0939A30E0916630E0939D30E091FB
:102D4E006730E0939E30E0916830E0939F30E091E1
:102D5E006930E093A030E0916A30E0939530E091D5
:102D6E006B30E0939630D1C00E947737E0913B35BF
:102D7E00E03011F00E94B61FC8C02F971A930A9325
:102D8E0000E0FE0132960E94923910E01B3070F482
:102D9E000E94A139AC91E12FF0E0EC5FFF4CE08195
:102DAE00EA1711F001E01CE01F5FF0CF0030F9F0E0
:102DBE0010E01F3060F4E12FF0E0EC5FFF4C0F01EC
:102DCE000E94A139EC91D001EC931F5FF2CF0E94CB
:102DDE00A839A3E00E94B139E03029F00E94A83949
:102DEE00AAE00E94B139AFE0B3E30E94B63919816F
:102DFE00088161960895AA971A93FE013196FA9367
:102E0E00EA93E8ECF3E0FA93EA930E940C380E94FE
:102E1E005739E4EFEF8311E0173088F40E94BB3985
:102E2E00EA0FFB1F0F01E12FF0E03197DE01119643
:102E3E00AE0FBF1FEC91D001EC931F5FEDCFE5EA13
:102E4E00EE8718E01E3168F40E94BB39AE0FBF1F2B
:102E5E00E12FF0E03797E457FF4CE081EC931F5FD2
:102E6E00F1CFE5EBEDA31FE1133268F40E94BB39FD
:102E7E00AE0FBF1FE12FF0E07F97ED53FF4CE081C7
:102E8E00EC931F5FF1CFE8EFEAA7E3ECF0E30E94CB
:102E9E006538A4E0B0E00E94E63110E0143270F420
:102EAE00E12FF0E0E45CFA4C0F010E94BB39AE0F4B
:102EBE00BF1FEC91D001EC931F5FF0CF1881AB9642
:102ECE0008950E9477370E941538A0913B35A130A6
:102EDE00D1F40E94A839A3E00E94B1390E94C039F2
:102EEE00A0911933B0911A3380911B3390911C33FA
:102EFE000E94CD2CE093DA307EDF0E94C0390E9412
:102F0E00C5390E94D4390E94D739E991EFBFF991A2
:102F1E00E991B991A9919991899179916991F990D4
:102F2E00199009901895F894E091A200E873E76063
:102F3E001E2FE8EDE4BF1093A200E0E0E093A100A5
:102F4E0043DD0E942B06E0918406E061E093840647
:102F5E000E9484090E94DB390E94820E0E94DB3996
:102F6E000E9413070E94DB390E94920F0E942510C7
:102F7E000E945038EDECF3E00E94DF3978940E9405
:102F8E00DB391EDC0E94DB3952DC0E94DB3986DC29
:102F9E000E94DB390E945038E7EDF3E00E94DF39E2
:102FAE000E94E7390E94BE100E94DB390E94503801
:102FBE00E8EEF3E00E94DF390E94E739E0E0EA93A1
:102FCE00ADEDB0E30E940C29E093DA30E03039F435
:102FDE000E945038E9EFF3E00E94DF3902C00E94F0
:102FEE00D7390E94C039EFE2F5E3FA93EA93AAE0EB
:102FFE000E94B139E03041F40E945038E7E1F4E02C
:10300E000E94EB39E1E003C00E94D739E0E0E09383
:10301E003B35A0913B35A13009F09BC0E0E6F5E3CE
:10302E00FA93EA93ECE2F4E00E94F039E0936D3506
:10303E00EAE0E0936E350E94C039E0E6F5E30E94C7
:10304E00F83929F40E9450380E94063A02C00E94B4
:10305E00D739EFE6F5E3FA93EA93E2E5F4E00E945E
:10306E00F039E0937C35EAE0E0937D350E94C0397B
:10307E00EFE6F5E30E94F83929F40E9450380E94D9
:10308E00063A02C00E94D7390E94D439E03039F492
:10309E000E945038EFE5F4E00E94EB3902C00E9426
:1030AE00D7390E941538E4E0F0E30E949239A3DE8E
:1030BE000E94A839A1E00E943629A0E00E9471402A
:1030CE00E093DA30E03039F00E945038E3E7F4E074
:1030DE000E94DF392DC00E94A839AAE00E94B139A2
:1030EE00E03039F40E945038E7E1F4E00E941E3AD5
:1030FE0002C00E94D7390E94C0390E94C539E03003
:10310E00A9F40E945038E9E3F4E0FA93EA93E091CF
:10311E00DB30F091DC30662777270E947141E3E2C5
:10312E00F0E060E070E00E94233A02C00E94D739BE
:10313E000E94D439E03039F40E945038EFE5F4E0C3
:10314E000E941E3A02C00E94D739A4EFB1E00E943D
:10315E00203E7ADCC6DC0E9410100E945038E0E857
:10316E00F4E00E94DF39A6E6B0E00E94203E0E9405
:10317E00E739E1E0E0930106E0930506A7E6B0E04B
:10318E000E94203EE1E0E09306060E94E739E1E06E
:10319E00E0930506AEE6B0E00E94203E0E94443960
:1031AE00A4E1B0E00E94203E0E945038EAE8F4E02C
:1031BE000E94DF390E94E7390E94E8050E94DB3940
:1031CE000E94F50E0E94590F0E94D00F0E94DB390B
:1031DE000E9420030E945038EAE9F4E00E94DF3991
:1031EE00AFE0B0E00E94203EE0918406EF7EE093D7
:1031FE0084060E945038E7EAF4E00E94DF39A4EB1F
:10320E00B0E00E94203EACE7B0E00E948841EF3F64
:10321E00AFEFFA07AFEF6A07AFEF7A0731F4ACE71B
:10322E00B0E00E945A360E949E410E94543429F406
:10323E00A1E0B0E0E0E00E94AE41A1E0B0E00E946B
:10324E009541E13608F099C1A1E0B0E00E949541A8
:10325E00EF5F0E94AE4191DD0E945E39CDDA03DB55
:10326E0039DB0E946439E0911C36E078E03821F4B5
:10327E00E091A130E26007C0E0911C36E07829F4BD
:10328E00E091A130ED7FE093A130E0911436E07132
:10329E00E03121F4E091A130E46007C0E0911436F2
:1032AE00E07129F4E091A130EB7FE093A130E09141
:1032BE001436E072E03221F4E091A130E86007C0EC
:1032CE00E0911436E07229F4E091A130E77FE093AB
:1032DE00A130E0911436E270E23021F4E091A13099
:1032EE00E06107C0E0911436E27029F4E091A1305C
:1032FE00EF7EE093A130E0911C36E870E83021F4C7
:10330E00E091A130E06207C0E0911C36E87029F42C
:10331E00E091A130EF7DE093A130E0911C36E07199
:10332E00E03121F4E091A130E06407C0E0911C3659
:10333E00E07129F4E091A130EF7BE093A130E091B0
:10334E002436E074E03421F4E091A130E06807C047
:10335E00E0912436E07429F4E091A130EF77E09308
:10336E00A130E92DE270E23021F4E0912636E260E0
:10337E0005C091FC05C0E0912636ED7FE093263620
:10338E00E92DE470E43021F4E0912636E46005C0C6
:10339E0092FC05C0E0912636EB7FE0932636E92DB0
:1033AE00E870E83021F40E942B3AE06405C093FCEB
:1033BE0005C00E942B3AE068E0931636E92DE071C5
:1033CE00E03121F4E0912636E86005C094FC05C09A
:1033DE00E0912636E77FE0932636E92DE072E03263
:1033EE0021F4E0912636E06105C095FC05C0E09120
:1033FE002636EF7EE0932636E92DE074E03421F494
:10340E00E0911636EE7F05C096FC05C0E0911636AB
:10341E00E160E0931636E92DE078E03821F4E09192
:10342E001E36EE7F05C097FC05C0E0911E36E160AA
:10343E00E0931E36F2D928DA5EDAA091D030A130B0
:10344E0021F0A091CF30A13019F5E091CB30F09161
:10345E00CC306091CD307091CE300E9471410E947F
:10346E000C380E9471410E945A360E947141A7EC9D
:10347E00B0E30E9473080E945F36ACE7B0E00E9492
:10348E009E410E945107E0E0E093CF30E093D030B0
:10349E000E945038E3EBF4E0FA93EA93E0912C3675
:1034AE00F0912D360E9462400E9457390E94A30E61
:1034BE000E9464390E94C1110E945E390E945038E8
:1034CE00EEEBF4E0FA93EA930E94333A0E947141D4
:1034DE000E943C3A0E94233A0E943C3A0E94D841F4
:1034EE007CF4A091D135B091D2358091D3359091A5
:1034FE00D435E0E0F0E060E772E40E94B33F08F0FC
:10350E001AC00E94333AA0E0B0E086E993E40E942C
:10351E00B33F78F4A091D535B091D6358091D7359B
:10352E009091D835E0E0F0E46EE474E40E94B33F8D
:10353E0008F001C001C01EC0E091B535E093973090
:10354E00A091B535B091B6358091B7359091B8351B
:10355E00E8E00E941240E09398300E94453AE093D2
:10356E009B300E94453ADF01CB01E8E00E941240F9
:10357E00E0939C300E94E7396ECEF894FFCFAA9369
:10358E000E94F44120E00C81AD81BE813D91AD835E
:10359E00BE8318E0220FE22FE327E07811F0E9E076
:1035AE002E27330F1150B1F7015071F7E22FEE0FA6
:1035BE00E1600E94FB4168C51A93E2E3E093303666
:1035CE00EFEFE093C308E091C208E078E1F3EFEF8C
:1035DE00E093C308E091C208E078E1F31091C308CC
:1035EE001F3F21F0E0913036E03009F401C0EFCFFB
:1035FE00E12FC9C4E1E0E0934506EFEFE093C30885
:10360E00E091C208E078E1F30895BA93AA930E947C
:10361E00F441E4E1E0932F36EFEFE093C308E0913D
:10362E00C208E078E1F31091C3081F3F21F4E09146
:10363E002F36E03009F401C0EFCF1E3F21F0E0E05D
:10364E000E94FB41F1C22E813F81EFEFE093C30850
:10365E00E091C208E078E1F33F932F932F5F3F4F45
:10366E00E091C308AF91BF91EC93EFEFE093C308E5
:10367E00E091C208E078E1F33F932F932F5F3F4F25
:10368E00E091C308AF91BF91EC93EFEFE093C308C5
:10369E00E091C208E078E1F33F932F932F5F3F4F05
:1036AE00E091C308AF91BF91EC93EFEFE093C308A5
:1036BE00E091C208E078E1F33F932F932F5F3F4FE5
:1036CE00E091C308AF91BF91EC93EC81FD813497EB
:1036DE00EC83FD8309F0B9CFEFEFE093C308E091DF
:1036EE00C208E078E1F3EFEFE093C308E091C2087F
:1036FE00E078E1F3E1E00E94FB4196C2AA930E94BA
:10370E00F4415ADFEF3F21F0E0E00E94FB41BCC4E0
:10371E00EC81E093C308E091C208E078E1F3AC815C
:10372E00AD3FC1F100E02D813E81D9012F5F3F4FAA
:10373E00EC91E093C308E091C208E078E1F3D9017F
:10374E002F5F3F4FEC91E093C308E091C208E07801
:10375E00E1F3015051F7EFEFE093C308E091C20897
:10376E00E078E1F3EFEFE093C308E091C208E07870
:10377E00E1F3EFEFE093C308E091C208E078E1F3E4
:10378E001091C308E12FEF71E53021F0E0E00E94C7
:10379E00FB417AC4E1E00E94FB4176C40E9476416F
:1037AE001A930A93EE81E07881F0EE81EF77EE8343
:1037BE00E7E7EA93A0E0B0E080E090E0EFDF0E2FC5
:1037CE00023018F0198108815FC4AE81AC3459F013
:1037DE0011DFE1E0E0934606EFDEEF3F21F0EFEF81
:1037EE001981088151C4EE81E093C308E091C208AB
:1037FE00E078E1F3ED81E093C308E091C208E07850
:10380E00E1F3EC81E093C308E091C208E078E1F3C4
:10381E00EB81E093C308E091C208E078E1F3EA811E
:10382E00E093C308E091C208E078E1F311E0AE81C5
:10383E00A03411F415E904C0AE81A83409F417E8D8
:10384E001093C308E091C208E078E1F3AE81AC3486
:10385E0039F4EFEFE093C308E091C208E078E1F3AA
:10386E001FEFEFEFE093C308E091C208E078E1F3B9
:10387E000091C30807FF02C0115009F401C0F1CF37
:10388E00E02F1981088100C4BA93AA931A9314E009
:10389E00EFEFE093C308E091C208E078E1F3A9816D
:1038AE00BA811196A983BA831197E091C308EC935C
:1038BE00115071F7D3C4AA9324970E94F441E8855E
:1038CE00E03011F0E1E0C9C0EAE0E0932F36E0917C
:1038DE002F36E030E1F7E0912E36E27009F0BBC0F2
:1038EE00E1E0E0934106E0934506E0EAE093460608
:1038FE00E0E4E0934206E8E1E0935606E0EBE09365
:10390E004106E3E5E093C00835E01AE0EFEFE093FF
:10391E00C308E091C208E078E1F31150B9F7E0E492
:10392E00EA93A0E0B0E080E090E038DF0E2F315057
:10393E00013011F0303009F401C0E7CF30E0013032
:10394E0009F068C0E4E6E0932F36E8E4EA93AAEAC9
:10395E00B1E080E090E022DFE13091F5DE011496D7
:10396E0093DFAE81A13019F4AF81AA3A09F027C0D6
:10397E00E0912F36E03049F0E9EEEA93A0E0B0E0B6
:10398E0080E090E40BDFE03009F401C0F1CFE0916C
:10399E002F36E03049F0EAE7EA93A0E0B0E080E0AD
:1039AE0090E0FCDEE03009F00AC0DE0114966CDF18
:1039BE00EC81E07411F0ECE001C0E4E03E2F2AC08F
:1039CE00E9EEEA93A0E0B0E080E090E0E7DEE230DE
:1039DE0018F432E009EE02C031E001E4E0912F3636
:1039EE00E03041F00A93A0E0B0E080E090E0D6DE57
:1039FE00E03009F401C0F2CFE0912F36E03049F00B
:103A0E00E0E5EA93A0E0B2E080E090E0C7DEE030CF
:103A1E0009F030E030933136EDDD303049F0E09191
:103A2E002E36EE7FE0932E36E0EDE093C00813C005
:103A3E00E1E0E0934606C0DDDDDDE0E0E093C008A6
:103A4E00E0EFE0934206E1E0E0934206E0912E368D
:103A5E00E160E0932E36E0912E360E94FB412996CE
:103A6E000895AA93E881E03011F0E1E002C0E09100
:103A7E002E3621960895AA93EF81E03019F4E8814D
:103A8E00E03011F4E4E0D0C0E0912E36E17011F098
:103A9E00E3E0CAC0E0913136E87071F4E981FA8151
:103AAE006B817C81A0E0B2E080E090E00E947640E5
:103ABE00E983FA836B837C83A881A130A9F4E1E5C5
:103ACE00EA93AA81BB818C819D8168DEE03059F436
:103ADE00ED81FE81FA93EA93A0E0B2E096DDE0304C
:103AEE0011F0E0E0E88323C0E2E5EA93AA81BB810E
:103AFE008C819D8153DEE030D1F4ED81FE81FA930D
:103B0E00EA93A0E0B2E081DDE03051F0ED81FE817C
:103B1E00E050FE4FED83FE83E881E150E88369F7C4
:103B2E00ECE4EA93A0E0B0E080E090E037DE62DD06
:103B3E00E881E03011F0E1E001C0E0E075C0AA9349
:103B4E00EF81E03019F4E881E03011F4E4E06CC06C
:103B5E00E0912E36E17011F0E3E066C0E0912E3672
:103B6E00E47011F0E2E060C0E0913136E87071F47B
:103B7E00E981FA816B817C81A0E0B2E080E090E087
:103B8E000E947640E983FA836B837C83A881A130FF
:103B9E00A1F4E8E5EA93AA81BB818C819D81FEDDCB
:103BAE00E03051F4ED81FE81FA93EA93AEEFA6DD9B
:103BBE00E03011F0E0E0E88330C0E0913136E6709D
:103BCE0039F0E7EDEA93A981BB2788279927E6DD2F
:103BDE00E9E5EA93AA81BB818C819D81DFDDE0302E
:103BEE00E1F4ED81FE81FA93EA93ACEF87DDE030EC
:103BFE0051F0ED81FE81E050FE4FED83FE83E881B2
:103C0E00E150E88371F7E0E0F0E0FA93EA93ADEF6C
:103C1E0075DDE03011F4E1E0E883ECDCE881E030C2
:103C2E0011F0E1E001C0E0E028960895BA93AA935E
:103C3E0060970E94F441EF89E03011F0E4E08BC10F
:103C4E00E0912E36E17011F0E3E085C111E0EE89CE
:103C5E00E03041F4E1E0E0934606AEDCEF3F09F4DC
:103C6E0010E077C1E13009F05BC0E9E4EA93A0E02F
:103C7E00B0E080E090E092DDE03049F4FE01349651
:103C8E00FA93EA93A0E1B0E0C0DCE03009F447C05B
:103C9E00EC81E295EF70E695E695E13069F4E0E0AF
:103CAE00FC85AD85B0E0EA0FFB1F31969F01D9016F
:103CBE0088279927EAE02CC0E985EF70AE2FEE85B4
:103CCE00E078EE1FE0E0EE1FAE0FED85E370EE0F35
:103CDE00EA0FEE5F0E2FEC85E295EF70E695E69516
:103CEE00AE2FEB85F0E00E942E40B0E0AE0FBF1F6E
:103CFE00EA85E370F0E00E942E40FE2FE0E0EA0F2E
:103D0E00FB1F31969F01D90188279927E02FE95093
:103D1E000E940640AC89BD890E944F4110E019C136
:103D2E00E23041F4AC89BD89E0E0F2E0ED93FC9322
:103D3E0010E00FC1E33009F0AFC0E0913136E4700E
:103D4E00A1F1EDECEA93A0E0B0E080E090E026DD9A
:103D5E00E03051F5EFEFE093C308E091C208E07850
:103D6E00E1F3FE013496FA93EA93A0E1B0E04DDC64
:103D7E00E030D1F000E3003049F0EFEFE093C308FC
:103D8E00E091C208E078E1F30150F5CFEE85E295BF
:103D9E00EF70A0E1B0E080E090E00E940640AC89B8
:103DAE00BD890E944F4110E076C0E9E4EA93A0E09D
:103DBE00B0E080E090E0F2DCE03009F06CC0FE0193
:103DCE003496FA93EA93A0E1B0E01FDCE03009F4F8
:103DDE0062C0E0913136E27051F1EE85EF73FF274C
:103DEE00662777270E9441407F936F93FF93EF934F
:103DFE00EF85E078FF2766277727DF01CB01E7E025
:103E0E000E941E40AF91BF918F919F910E94D73F0C
:103E1E00EF5FFF4F6F4F7F4FDF01CB01E989E295D7
:103E2E00EF70E695E695E1500E9406402FC0EE85B4
:103E3E00EC77E695E695FF2766277727EF5FFF4F2E
:103E4E006F4F7F4F7F936F93FF93EF93EF85E370E9
:103E5E00FF2766277727DF01CB01E3E00E940640AC
:103E6E00DF01CB01EF85E07EE295EF70E695FF274F
:103E7E00662777270E94D73FEF5FFF4F6F4F7F4F29
:103E8E00AF91BF918F919F910E947640AC89BD8971
:103E9E000E944F4110E05DC0EA3039F4E0913136B6
:103EAE00AC89BD89EC9310E054C0EB3011F409E4F9
:103EBE0003C0EC3001F50AE40A93A0E0B0E080E024
:103ECE0090E06CDCE030B1F4EC89FD89FA93EA9372
:103EDE00A0E1B0E09ADBE03069F0EC89FD89FA935D
:103EEE00EA93AFE04CDBAE2FEC89FD89E785EA174C
:103EFE0009F410E02EC0ED3071F4EAE7EA93A0E089
:103F0E00B0E080E090E04ADCE03021F4AC89BD897D
:103F1E00BBDC10E01EC0EE30D9F4EDECEA93A0E06D
:103F2E00B0E080E090E03ADCE03089F4EFEFE0932F
:103F3E00C308E091C208E078E1F3EC89FD89FA93B9
:103F4E00EA93A0E4B0E061DBE03009F010E001C0DC
:103F5E0014E050DBE12F0E94FB41689608951A93FE
:103F6E0010912F36103019F0115010932F361091EA
:103F7E003036103019F0115010933036E0912E3645
:103F8E00EB7FE0932E36199108952797A09100307C
:103F9E00B0910130109731F0A0910230B091033002
:103FAE00109729F4E0E0F0E061E27AE36DC0FE01E3
:103FBE003696FA93EA93FE013796FA93EA93DE0168
:103FCE001896E0910030F09101300995FE0133967C
:103FDE00FA93EA93FE013496FA93EA93DE0114966D
:103FEE00E0910230F09103300995E881F981EC5BA4
:103FFE00F74066277727DF01CB01E9E10E940640F3
:10400E007F936F93FF93EF93EA810E944D3AE5E120
:10401E000E940640AF91BF918F919F910E94F03FF9
:10402E00DF01CB01EB81F0E00E9462400E9457401D
:10403E000E94F03F7F936F93FF93EF93EE810E9468
:10404E004D3AEBE00E940640AF91BF918F919F9148
:10405E000E94F03F7F936F93FF93EF93ED810E9449
:10406E004D3AE5E00E940640AF91BF918F919F912E
:10407E000E94F03FDF01CB01EC81F0E0F595E79572
:10408E000E9462400E94F03F27960895AA931A93C9
:10409E00EA81FB81E4911E2FE03019F0E981E117EE
:1040AE0009F406C0EA81FB813196EA83FB83F0CFE7
:1040BE00E12FF0E01881249608950E94764124970E
:1040CE001A93A985BA859E960E94533A0E945A3A2F
:1040DE000E945F3A0E94E84109F450C0E985FA85D2
:1040EE00E481E03089F10E94643AE030E1F5A9857F
:1040FE00BA851496E0E0EC93E985FA850E94733A4E
:10410E000D01A985BA855A960E944441D0010E949C
:10411E00D73F0E945F3A0E94ED41B0F4E985FA85DF
:10412E001381123088F0A985BA855A960E944441AF
:10413E000E945F3A0E94D73FE983FA836B837C83A8
:10414E000E94643A1150EDCF0E945A3A0E94DE410D
:10415E00A9F0E985FA85A181AA93EA85FB85F296F5
:10416E000E94783A21F0E1E018812B9608950E9482
:10417E005A3AA985BA859E960E944F41E0E0188171
:10418E0058C4BA93AA931A93E981FA810E94823A8B
:10419E001E2F103009F061C0A981BA81AC91A330F5
:1041AE0029F4E981FA81E581E03009F44AC0A98158
:1041BE00BA819E960E948A3AE981FA81F2960E940D
:1041CE006538A0E0B2E00E94E631E981FA81F2960C
:1041DE00E250FE4FA5E5BAEAA083B183E981FA81E8
:1041EE00F296A2E5B2E581E691E40E948E3AEC5198
:1041FE00FE4FA2E7B2E781E491E60E948E3AE851C3
:10420E00FE4F0F01A981BA811E960E94943AF29632
:10421E00E451FE4F0F01A981BA811A960E94943A79
:10422E00A181AA93EA81FB81F296FA93EA93EC813B
:10423E00FD810E949C3A83DCA981BA811596E0E04B
:10424E00EC93E981FA81A181AA93E0E0EA93A0E0E0
:10425E00B0E0ECDCE03009F011E0E12F188123969C
:10426E0008950E94764124970E94F4410E945C3783
:10427E000E94A43A50F0AC85BD855E960E944441E2
:10428E000E945C370E94ED4118F00E949E3660C07D
:10429E00AC85BD8592960E94AC3AAC85BD85EC91FD
:1042AE00F0E0E130A0E0FA0739F528853985F9010B
:1042BE00F695E7952E0F3F1F0E94AF3A09F046C0C4
:1042CE000E94C43A0C9111272F5F3F4F0E94AF3AC4
:1042DE00E9F50E94C43AEC91FE2FE0E00E2B1F2B65
:1042EE00E885E17021F0F8010E94384002C0F80123
:1042FE00FF70662777272CC0E230A0E0FA0779F42A
:10430E000E94CC3A0E94D53A0E94DC3AF9F4A88574
:10431E00B985E2E00E94E63A0E94EF3A19C0E33016
:10432E00A0E0FA0799F40E94CC3A0E94F43A0E9457
:10433E00DC3A61F4A885B985E4E00E94E63A0E9471
:10434E004441EF7FFF7F6F7F7F7002C00E94FB3A78
:10435E000E94FB412E9608950E94764124970E945A
:10436E00F2410E94003B0E94A43A50F0AA89BB89F8
:10437E005E960E9444410E94003B0E94ED4110F067
:10438E0052E085C0AA89BB8992960E944441EE8371
:10439E00FF8368877987AA89BB89EC91F0E0E130C9
:1043AE00A0E0FA0709F043C00E851F85F801F695C7
:1043BE00E7950E0F1F1F0E94053B09F063C00E9478
:1043CE00183B51F0D901EC91EF70AE2FEA85F0E079
:1043DE000E942A40EA2B01C0EA85D901EC930F5FB7
:1043EE001F4FAA89BB891496E1E0EC930E94053B0E
:1043FE0009F048C00E94183B49F00E94233BE4E0BC
:10440E000E941E40FF27662777270EC0D901EC9128
:10441E00E07F1E2E0E94233BE8E00E941E40FF27F5
:10442E0066277727EF70E129D901EC932BC0E23094
:10443E00A0E0FA0789F40E94283B0E94D53A0E9418
:10444E002D3B01F5AE85BF85E2E00E94353BAA8586
:10445E00BB85A083B18316C0E330A0E0FA0789F4D0
:10446E000E94283B0E94F43A0E942D3B59F4AE85DF
:10447E00BF85E4E00E94353B0E94233B0E946C41C5
:10448E0001C052E0AA89BB891496E1E0EC93E52FB6
:10449E000E94F941649608950E94764124971A93DA
:1044AE000E943E3B0E94A43A18F00E94433B10F03B
:1044BE0012E044C010E00E94433B08F03FC0E98583
:1044CE00FA85FA93EA93AF81B88589859A85C9DE14
:1044DE00E983FA836B837C830E944C3B0E94DE410E
:1044EE0069F10E945F3A0E94513B11F412E026C01E
:1044FE000E945F3A0E94593B11F411E01FC0E985FA
:10450E00FA85FA93EA93EF81F88569857A850E9498
:10451E0071410E94613B20DF1E2F103079F4E98536
:10452E00FA850E94663B29F00E946B3B1596E1E0EE
:10453E00EC930E944C3B0E94763BBDCFE12F18813D
:10454E0078C20E9476416097AC89BD895E960E94C2
:10455E0044410E94A3360E947B3BB1F4AC89BD89D5
:10456E001A960E94AC3A0E947F3B0E94E24139F0BB
:10457E000E94843B0E947F3B0E94ED4120F00E94EE
:10458E009E360E940E371DC00E94873B0E948C3BB8
:10459E0068DE0E94F5360E9421370E94A43A18F474
:1045AE000E949E3685C00E94843B0E9421370E9445
:1045BE00ED4118F40E9461377BC00E94E5360E94DF
:1045CE000E370E942B370E9409370E9426370E9411
:1045DE00B3360E9409370E94843B0E945C370E94CA
:1045EE00ED4160F0E2E0F0E060E070E00E9409373B
:1045FE000E94913B18F40E945A365AC00E94873B83
:10460E000E94233B2EDE0E94963BA1F00E94213792
:10461E000E94593B29F00E9421370E94513B19F408
:10462E000E94613745C00E94913B19F40E945A3690
:10463E003FC0CBCF0E94873B0E949B3B0E947141A3
:10464E00AFEFBFEF8FEF9FE087DEE03019F00E94F3
:10465E00FB3A2EC00E947B3B71F00E94873B0E946A
:10466E00A03B0E9471410E94003B76DEE03019F0C3
:10467E000E94FB3A1DC00E942637AC89BD891A964E
:10468E000E944F41EC89FD890E94663B79F0AC890E
:10469E00BD891E960E944A413197604070400E942B
:1046AE005441AC89BD891596E1E0EC930E94263702
:1046BE00669608950E9476410E94843BE250F04037
:1046CE00604070400E94A336EC81FD81A68DB78DAF
:1046DE0080A191A1E2E0F0E060E070E00E94A53BD5
:1046EE000E94AA3B0E94ED4118F00E945A3675C3F3
:1046FE00EC81FD81E281F0E00E94AA3B0E946240C3
:10470E000E9476407F936F93FF93EF93AC81BD81B0
:10471E009A960E944441AF91BF918F919F910E94B2
:10472E00D73F5BC3BA93AA9324971A930A93EE8149
:10473E00FF81A885B9851496ED93FC93A885B9855C
:10474E0016960E94AD3B0E94B43B0E94513B29F04D
:10475E000E94B93B0E94BE3B10F0E2E076C00E9480
:10476E00C63B29F40E94B93BA081A33009F006C0D4
:10477E000E94B93BB696DF010E94AD3B0E94C63B3C
:10478E00A1F40E94CD3B3896DF010E944041AE81DC
:10479E00BF81AE17BF0710F0E2E057C00E94B93BD1
:1047AE00B696DF010E94444135C00E94B93BE281BA
:1047BE00A0E1EA9F8001AE81BF81A017B10718F179
:1047CE000E94B93BFA93EA930E947F3B4ADD0E9416
:1047DE00D73B0E94B43B0E94593B11F4E1E035C037
:1047EE000E94B43B0E94A43A28F00E94B93B0E945A
:1047FE00BE3B10F0E2E029C0EE81FF81E01BF10B21
:10480E00EE83FF83D8CF0E94CD3BFA93EA930E94AA
:10481E007F3B50DFDF01CB01EE81FF810E943840EC
:10482E000E94DC3BA885B9851E960E944F410E94CE
:10483E00B93BF296DF01EE81FF810E94E13BA88534
:10484E00B9855296ED93FC93E0E0198108812A9682
:10485E000895AA9324970E94F441A985BA851496C7
:10486E000E94404131968F01002E012A31F0A98518
:10487E00BA851E960E94E93B11F4E4E0D8C0F80117
:10488E00EF7009F0C1C00E946B3B1A960E94E93B83
:10489E0061F40E94EE3B3896DF010E9440410E17F4
:1048AE001F0710F0E4E0C3C0AFC0F8010E9438400B
:1048BE000F010E94EE3BE281F0E03197E021F12101
:1048CE00309709F0A1C00E94EE3B0E94F33BC9DC79
:1048DE000E940E370E947F3B0E94A43A10F4E2E041
:1048EE00A6C00E947F3B0E94593B11F4E1E09FC09D
:1048FE000E94EE3B7E96DF010E9444410E947F3B68
:10490E000E94ED4108F470C0E885E03011F4E4E057
:10491E008EC00E94EE3B0E94F33B13DE0E94FC3BD6
:10492E000E94DE4111F4E7E082C00E947F3B0E94AC
:10493E00513B11F4E2E07BC00E947F3B0E94593B49
:10494E0011F4E1E074C00E94EE3B0E94823AE03026
:10495E0011F0E1E06CC00E94EE3BF2960E946538C9
:10496E00A0E0B2E00E94E6310E94EE3BDF01BE966F
:10497E00FF93EF93FD010E94FE3BAF91BF910E940A
:10498E004F4130E00E94EE3BE2813E17C8F40E9498
:10499E00EE3B3496A1E0A0830E94EE3B0E94823A49
:1049AE00E03011F0E1E043C00E94EE3BBE96DF0125
:1049BE000E944A410E94B3360E9454413F5FE2CFAB
:1049CE000E94EE3BBE96FF93EF93DF010E9444419F
:1049DE00DF01CB01E32FF0E00E9462400E94A53B75
:1049EE00AF91BF910E944F410E942B37A985BA8586
:1049FE001A960E944F410E94EE3B0E94FE3BA985F3
:104A0E00BA851E960E944F41F801A985BA85149663
:104A1E00ED93FC930E94EE3BF296DF01F8010E94AB
:104A2E00E13BA985BA855296ED93FC93E0E00E9496
:104A3E00FB412B9608950E94063C21F0E12F0E9427
:104A4E00FB41CBC10E94153C01F5AC81BD81529654
:104A5E002D913C91D9010C91003011F414E015C048
:104A6E00F901E385E87031F40E94263C0E94BB31C7
:104A7E00E03009F001C009C0EC81FD81FA93EA93A0
:104A8E00A0E0E7DE1E2F1030E9F2E12F0E94FB417D
:104A9E00A4C10E94063CB1F40E94153C99F4EC812D
:104AAE00FD81A289B3890C91053E11F0003009F405
:104ABE0009C0EC81FD81FA93EA93A1E0CADE1E2FB4
:104ACE00103051F3103029F50E94153C11F5AC81D0
:104ADE00BD8152962D913C913A932A93E0E0EA9350
:104AEE00A0E2B0E00E94E6310E94263C0E94D43142
:104AFE00AC81BD8154960E944041E385E871D90195
:104B0E001C96EC93AC81BD810E9440413496A1E08D
:104B1E00A083E12F0E94FB4160C1BA93AA9325970F
:104B2E000E94F241AD85BE8554964D915C915A938B
:104B3E004A93E0E2EA93ABE0B0E00E94E631E0E0B7
:104B4E00E887E9871E2F2E2FE8E0EA87AB85BC8524
:104B5E000E94313C0E94363CAE0FBF1FAC91AE326C
:104B6E0009F50E943B3C0E3221F4A885B9851397B6
:104B7E000CF003C00E94473CF4CF0F3221F00C35ED
:104B8E0011F0013208F402C0E6E06DC00E94363C1E
:104B9E000E944E3C10F4E4E201C0E0E2DA011B9602
:104BAE00EC9360C00E943B3C013220F00F3211F0BA
:104BBE000C3509F432C00E3219F0EA852E1768F062
:104BCE00AA85A83011F40E3211F0E6E04CC028E0B0
:104BDE00EBE0EA87110F110F1FC0003818F01360B9
:104BEE00E6E041C0EAE0F2E0FA93EA93A02F4EDA53
:104BFE00309711F0E6E037C0013410F00B3508F0B5
:104C0E0002C0126007C0013610F00B3708F002C068
:104C1E00116000520E94473CC5CF0E94363C0E9454
:104C2E004E3C10F4E4E001C0E0E00E2F203011F411
:104C3E00E6E019C0DA01AC91A53E19F4DA01E5E01F
:104C4E00EC93AA85A83011F4110F110FE12FE37028
:104C5E00E13009F40061E12FEC70E43009F40860F2
:104C6E00FA010387E0E00E94F9412F960895BA9366
:104C7E00AA930E94F441E1E0E03029F0AC81BD81BD
:104C8E00AC91A03209F006C0EC81FD813196EC8327
:104C9E00FD83F1CFAC81BD81AC91AF3229F0AC81F7
:104CAE00BD81AC91AC3559F4EC81FD813196EC832C
:104CBE00FD83AE81BF8116960E948A3A0AC0AE81EC
:104CCE00BF810E9440417696DF010E9444410E94BE
:104CDE00563CAC81BD81AC91BB27909760F40E948D
:104CEE005C3CA0E0B0E01EDD1E2FAE81BF8152966F
:104CFE000E9473393DC00E945C3CDE0116960DDFAA
:104D0E001E2F1030A9F5AE81BF8195DE1E2FAE810C
:104D1E00BF8154960E944041E385E4700E2F1030FF
:104D2E0039F0143011F4003009F001C015E020C044
:104D3E000030F1F4AE81BF8152962D913C91F90174
:104D4E00E385E07111F415E013C00E94613C0E94EE
:104D5E0057407F936F93FF93EF930E94643CAF9104
:104D6E00BF918F919F910E94693C0E94563CC3CF88
:104D7E00E12F0E94FB41289608950E947641EC8116
:104D8E00FD81A181AA93ED81FE81F296FA93EA93B9
:104D9E00EB81FC816D817E810E946E3C11F0E3E01F
:104DAE001CC0EC81FD810E94753C11F0E2E015C043
:104DBE00AC81BD81A859BF4F0E947F3C11F4E0E049
:104DCE000CC0EC81FD81F296EE5AFF4FDF010E947E
:104DDE007F3C11F4E0E001C0E1E026960895AA932D
:104DEE0064970E94F241AD8DBE8D0E944041E887CE
:104DFE00F987A885B985EC91E0530E2F0A3020F47F
:104E0E001196AC91AA3309F00AC0E885F98532965D
:104E1E00E887F987AD8DBE8DED93FC9302C00091AE
:104E2E003636013010F0EBE0CAC1E02F0E948D3C07
:104E3E000E94313CAB8DBC8DED93FC93EE81FF81D6
:104E4E00309711F4ECE0BBC1AE81BF81EC91E03044
:104E5E0089F0EE81FF81A1810E94381D5E2F50FDE9
:104E6E0009C0EA8DE03011F052FD01C002C0EAE047
:104E7E00A6C1A4C1AE81BF81E0E0EC93E02FAE816C
:104E8E00BF811196EC93EE81FF81A1810E94621C7D
:104E9E005E2F50FF02C0E3E092C1EA8DE03011F0C8
:104EAE0052FD01C002C0EAE08AC10E945C3C0E9431
:104EBE005A36E88FF98F6A8F7B8FDF01CB015DDF6A
:104ECE001E2F1130C9F4EE81FF81F296E254FE4F8F
:104EDE009F01E481E03081F0D90118960E9444418F
:104EEE00EE8BFF8B688F798F0E945C3CA88DB98DFD
:104EFE008A8D9B8D42DF1E2F133011F4E1E05FC1CE
:104F0E00103049F4AE81BF81DD960E944041E03001
:104F1E00A2E0FA0711F0EDE052C1AE81BF81A85BAD
:104F2E00BF4F0E94EF3A0E94953C0E94A03B0E9408
:104F3E00DE4141F4AE81BF81AA5ABF4F0E94444167
:104F4E000E94953C0E94A03BAE81BF815A960E9462
:104F5E004F41EE81FF81EE5BFF4FE081AE81BF815D
:104F6E001396EC93EE81FF81E381F0E00E948C3B7F
:104F7E000E9462400E9476400E94953C0E949A3C9C
:104F8E000E94A13CAE81BF8192960E944F41EE815C
:104F9E00FF81E7ADAE81BF811296EC93AE81BF81EA
:104FAE00AD5BBF4F0E944041AE81BF811896ED931D
:104FBE00FC93AE81BF81AB5BBF4F0E94EF3AEE8791
:104FCE00FF87688B798B0E94DE4151F4AE81BF81E1
:104FDE00AE5ABF4F0E944441EE87FF87688B798B94
:104FEE000E949A3C0E94003B662777270E94A53BB1
:104FFE000E948C3B0E94E13F7F936F93FF93EF9350
:10500E000E94A63CAF91BF918F919F916627772703
:10501E000E94E63FEE81FF81E281F0E00E94624055
:10502E000E94C740EE5FFF4F6F4F7F4F0E94AE3C16
:10503E00AE81BF815E960E944F4111E00E94233BDC
:10504E00A73FEFE0BE07E0E08E07E0E09E0708F026
:10505E0012E00E94233BA73FEFEFBE07E0E08E0772
:10506E00E0E09E0708F013E0133039F4AE81BF8103
:10507E00A25ABF4F0E94444102C00E94B33CAE816F
:10508E00BF8196960E944F410E94B33C7F936F93CF
:10509E00FF93EF930E94A63CAF91BF918F919F918A
:1050AE000E94DC3BAE81BF819A960E944F41AE8139
:1050BE00BF811E960E94FB3A0E944F41AE81BF8176
:1050CE001496E0E0EC93133009F05FC0AE81BF811F
:1050DE001596EC93AE81BF81AE59BF4F0E944041F1
:1050EE000E94A13CAE81BF8152960E944F41EE813B
:1050FE00FF81A181AA93EF81F885F296FA93EA9344
:10510E00E985FA850E949C3A0E94421DE03011F515
:10511E00EE81FF810E94753CE9F4AE81BF81D2968B
:10512E000E944441E235A2E5FA07A1E66A07A1E42E
:10513E007A0781F4EE81FF81F296EC51FE4FDF018A
:10514E000E944441E237A2E7FA07A1E46A07A1E60A
:10515E007A0709F01AC0EE81FF81F296E451FE4FF4
:10516E00DF010E944441AE81BF811A960E944F41D9
:10517E00EE81FF81F296E851FE4FDF010E9444411D
:10518E00AE81BF811E960E944F41AE81BF811C939E
:10519E009E960E948A3AAE81BF8156960E948A3AA6
:1051AE00E0913436F09135363196E0933436F09303
:1051BE003536AE81BF811696ED93FC93E0E00E94EA
:1051CE00F9416F960895BA93AA93EA81FB813097BD
:1051DE0071F0AA81BB81EC91E03049F0EA81FB814C
:1051EE00A681B781E881F981EA17FB0711F0E9E0A2
:1051FE000AC0EA81FB81A1810E94381DE17011F085
:10520E00E3E001C0E0E024960895BA93AA931A93BE
:10521E000A93AC81A13010F0EBE01DC0EC810E942E
:10522E008D3C0D911C91002E012A19F0D801E0E061
:10523E00EC93EA81FB81309721F0AA81BB81E0E0FB
:10524E00EC93EC81A2E3B6E30E945538AA81BB81B0
:10525E00A083B183E0E01981088125960895AA9371
:10526E00A2970E94F441A9A5BAA50E947339EEA196
:10527E00EF71EEA3FE01B796FA93EA93FE017296D2
:10528E00FA93EA93EAA5EE71AE2FA9DD1E2F103028
:10529E0009F013C1FE013496ECA3FDA3FE01709636
:1052AE00FA93EA93A9A5BAA5E2DC1E2FEEA1EC7142
:1052BE0009F496C02897103089F0143021F4DE01DD
:1052CE005896E7DB1E2F103019F0E12F2896F5C007
:1052DE00EEA5E860EEA72AA53BA569C0EEA5E47091
:1052EE0019F0E8E02896E9C02AA53BA5022E032A6C
:1052FE0021F0F901E385E17119F0E7E02896DDC0B0
:10530E00EEA5E87009F453C00E94613C0E9457401C
:10531E007F936F93FF93EF930E94643CAF91BF9185
:10532E008F919F910E94693C0E94A336F901749659
:10533E00A0E0B0E0A083B183F9017A96A083B18397
:10534E00F9017C960E94613B0E946C41A88DB98D3B
:10535E001496E1E0EC93A88DB98D9E960E94AC3A1E
:10536E000E94D336A9F0E88DF98DFA93EA930E9444
:10537E00B43B92D81E2F103011F028969EC00E947A
:10538E00843B0E946637A88DB98D1A960E944F41B4
:10539E00E88DF98DFA93EA93AE81BF818885998560
:1053AE000E9464201E2F103011F0289686C0EEA5A4
:1053BE00E870A1F0F9013B96A0E0A0830E94CC1FFB
:1053CE000E94FC3BD9011E960E944F41A88DB98DBB
:1053DE001496E1E0EC93EEA5E062EEA7289619C0D4
:1053EE00103011F0E12F69C02AA13BA1022E032A31
:1053FE0021F0F901E385E07111F0E4E05EC0EEA169
:10540E00E27021F0F901E385E17009F402C0E7E0F2
:10541E0054C0A889B9899E960E944441A9A5BAA5EF
:10542E005A960E944F41EAA1FBA1A9A5BAA55E9684
:10543E00ED93FC93EEA1A9A5BAA51496EC930E9448
:10544E00613C0E9457407F936F93FF93EF930E94AE
:10545E00643CAF91BF918F919F910E94693CA9A529
:10546E00BAA51E960E944F41D9015C960E944441F6
:10547E00A9A5BAA51A960E944F41A9A5BAA5169636
:10548E000E948A3AA9A5BAA51596EFEFEC93A9A5A5
:10549E00BAA556960E948A3AE889F989A9A5BAA5AD
:1054AE00ED93FC93A889B98916960E944041A9A54F
:1054BE00BAA51296ED93FC93E0E00E94FB41AB96E9
:1054CE000895BA93AA932A970E94F241EC89FD8916
:1054DE00EE83FF83A889B9890E9473390E94BA3C72
:1054EE000E94BF3C0E94C43C11F0E12FB2C1EE8974
:1054FE00FF89A481A07811F0E2E0ABC1EE89FF89AB
:10550E00A481A27011F4E7E0A4C1EE89FF89A285FF
:10551E00B38584859585EA89FB890E94DC3B7F9360
:10552E006F93FF93EF930E94CB3CAF91BF918F91FE
:10553E009F910E94ED4118F4E0E0EA8BEB8BEA8933
:10554E00FB89309709F46BC10E94D13CFD01BC016F
:10555E00F170309709F01FC1EE89FF8905800E9416
:10556E00BA3CE2810E1608F44AC0AE89BF8916967F
:10557E000E94E93BA1F4AE89BF891E960E94444168
:10558E000E94963B59F40E94BA3C0E94D83C0E945D
:10559E00F536AE89BF891E960E944F410CC00E94FF
:1055AE00BA3C0E94BF3CA289B389848995890E9426
:1055BE00A8220E94F5360E9461370E94DE4109F44E
:1055CE002EC10E9421370E94513B21F40E94DD3CE6
:1055DE00E2E03FC10E9421370E94593B21F40E9414
:1055EE00DD3CE1E036C10E946137AE89BF8952963B
:1055FE000E944F41AE89BF891596E0E0EC93EE898B
:10560E00FF89A481A07489F00E94BA3C0E94E43CF8
:10561E00E98DFA8D0E94EC3C0E94F13C21F00E9433
:10562E00DD3CE1E016C10E94F83C0E94BA3C0E94AB
:10563E00BF3CA289B389848995893CD80E940937D9
:10564E000E9426370E94DE4121F40E94DD3CE2E0FA
:10565E0000C10E94FF3C0E945C370E94FE370E94F0
:10566E000937AA89BB89E0E0F2E00E94B440AF019D
:10567E00042E052A09F464C00E94FF3CE40FF51FB6
:10568E000F010E94BA3CE281D001F0E0EA17FB075D
:10569E0050F40E94BA3CE281F0E0DF010E94FF3C30
:1056AE00AE1BBF0BAD010E94BA3CE181EA93EF81C4
:1056BE00F885FA93EA93EB85FC856D857E850E94CD
:1056CE007141A42F0E94A61DE03021F00E94DD3C06
:1056DE00E1E0BFC00E94043D0E94E63FFA0166274A
:1056EE0077270E94ED41F8F4EE89FF89B0960E946B
:1056FE00BF3C0E94EC3C0E949B3B0E94E63FE0E0D8
:10570E00F2E060E070E00E947640A885B9858827B7
:10571E009927EA0FFB1FFA93EA93A0E0B2E00E94EA
:10572E00D4310E94F83CAE89BF891596EC91E40FF6
:10573E00EC93FA01EE0FFF1FFE2FE0E09F014DC02C
:10574E000E94043D0E94E841C9F00E94D13C0D0127
:10575E000E94CB3CD0010E94ED4158F40E94BA3C0D
:10576E000E94E43CEB85FC856D857E850E946E3C37
:10577E0009F404C00E94DD3CE1E06BC00E942637B4
:10578E00AE89BF8956960E944F41AE89BF89159644
:10579E00EC91EF5FEC930E94083DA0E0B2E0AE1BEF
:1057AE00BF0B9D01EA89FB89E217F30710F42A89E2
:1057BE003B890E94083DAE89BF899096EA0FFB1F78
:1057CE00FA93EA930E940F3DD9010E94D431AE891B
:1057DE00BF891496EC91E064EC93F901AE81BF8120
:1057EE00EA0FFB1FEE83FF83EE89FF890E94143DB3
:1057FE00DF01CB01F9010E94DC3BD0010E944F4139
:10580E00A889B9890E944041E20FF31FED93FC93E2
:10581E00EA89FB89E21BF30BEA8BFB8B90CE0E948D
:10582E00D13C0D010E94CB3CD0010E94E84150F4C6
:10583E00AE89BF8916960E944441AE89BF891A96D9
:10584E000E944F41AE89BF891496EC91E062EC93B1
:10585E00E0E00E94F94168960895BA93AA932497BE
:10586E000E94F4410E94B93BFA93EA93EA85FB85C4
:10587E000E94C43C09F074C0E885F985A481A07229
:10588E0009F46EC0A481A074C1F00E94B93BE181FD
:10589E00EA93E985FA85B096FA93EA93EB85FC854F
:1058AE000E94EC3C0E94F13C11F0E1E05AC0A88548
:1058BE00B9851496EC91EF7BEC930E94B93BFA9369
:1058CE00EA93EA85FB85A28DB38D848D958D0E941A
:1058DE0064201E2F103009F043C0A885B9855E964E
:1058EE002D913C91D9011B96EC91E062EC93A88529
:1058FE00B9851A960E944441D9015C960E944F4187
:10590E00A885B9851E960E944041D9015A96ED93FD
:10591E00FC93E885F985A685B78580899189FD0177
:10592E00BC010E945240D9015496ED93FC930E9403
:10593E00CC1F0E94FC3BD90156960E944F41A88570
:10594E00B9851496EC91EF7DEC930E94B93B349699
:10595E00A1E0A0830E94B93BDF010E94C8201E2F48
:10596E00E12F0E94FB412A960895BA93AA931A93A7
:10597E00A981BA8172DF1E2F103021F4A981BA815C
:10598E000E947339E12F1881239608950E94764163
:10599E0060971A930E941A3DFA93EA93EF89F88D55
:1059AE000E94C43C09F09AC1ED89FE89A481A078B9
:1059BE0011F0E2E094C10E941F3D0E94253D0E941D
:1059CE00E84128F4ED89FE89A481A27009F004C093
:1059DE000E941F3D0E942A3DAD89BE8916960E94E7
:1059EE00533A0E945A360E94763B0E942F3D1596DE
:1059FE00EFEFEC930E94253D0E94E24108F011C1A9
:105A0E000E941A3DE281F0E00E946240A0E0B2E006
:105A1E0080E090E00E9476400E94373D0E945F3AFF
:105A2E000E94E24198F40E943C3D0E94413D7F93CA
:105A3E006F93FF93EF930E944C3B0E94413DAF91B9
:105A4E00BF918F919F910E94ED4108F421C00E9459
:105A5E004C3B0E946637DF01CB010E944B3D0E94FA
:105A6E0066370E946C400E94EB3F0E942F3D1696B7
:105A7E000E9444410E94253D0E94E63FA98BBA8BAD
:105A8E008B8B9C8BAD89BE8952960E94503D2BC04C
:105A9E00AD89BE891E960E94503D0E94573D0E94C0
:105AAE00DE41F9F40E941A3D0E94D83C0E945C3DF2
:105ABE000E94613D0E94513B21F40E94663DE2E04E
:105ACE000EC10E94613D0E94593B21F40E94663D29
