:040000000C949C01BF
:100004000C9400000C9400000C9400000C9400006C
:100014000C9400000C9400000C9400000C9400005C
:100024000C9400000C9400000C94120B0C9400002F
:100034000C9400000C9485100C9400000C940000A7
:100044000C9400000C9400000C9400000C94971085
:100054000C9400000C9400000C9400000C9400001C
:100064000C940B060C9400000C9400000C940000FB
:100074000C9400000C9400000C9400000C940000FC
:100084000C9400000C9400000C9400000C940000EC
:100094000C9400000C9400000C9400000C940000DC
:1000A4000C9400000C9400000C9400000C940000CC
:1000B4000C9400000C94F30A0C9400000C940000BF
:1000C4000C9400000C9400000C9400000C940000AC
:1000D4000C9400000C9400000C9400000C9400009C
:1000E4000C9400000C9400000C9400000C9400008C
:1000F4000C9400000C9400000C9400000C9400007C
:100104000C9400000C9400000C9400000C9400006B
:100114000C9400000C9400000C9400000C9400005B
:100124000C9400000C9400000C9400000C9400004B
:100134000C9461110C9400000C9400000C940000C9
:100144000C9400000C9400000C9400000C9400002B
:100154000C9400000C9400000C9400000C9400001B
:100164000C9400000C9400000C9400000C9400000B
:100174000C9400000C9400000C9400000C940000FB
:100184000C9400000C9400000C9400000C940000EB
:100194000C9400000C9400000C9400000C940000DB
:1001A4000C9400000C9400000C9400000C940000CB
:1001B4000C9400000C9400000C9400000C940000BB
:1001C4000C9400000C9400000C9400000C940000AB
:1001D4000C9400000C9400000C9400000C9400009B
:1001E4000C940000FF00000000000000000000006C
:1001F40000000100000001000000B207000080DEE2
:1002040028008033E101000000001F0000001C00F2
:1002140000001F0000001E0000001F0000001E0060
:1002240000001F0000001F0000001E0000001F004F
:1002340000001E0000001F000000000000001F005E
:1002440000001C0000001F0000001E0000001F0032
:1002540000001E0000001F0000001F0000001E0020
:1002640000001F0000001E0000001F0000005D00D1
:100274002300010073746172742064657669636598
:100284000073746172742069326300627566206958
:100294003263207374617274206F6B00626D70201E
:1002A400693263207374617274206F6B0053504918
:1002B40020535441525400616437373035207374ED
:1002C400617274206F6B0053544152542057484953
:1002D4004C4500424D5020503D25662C543D25365A
:1002E4002E336600424D502048455820503D257815
:1002F4002C543D2578005354415455533D256400F6
:100304005533696E2E696E7075743D2564002D4EEB
:10031400414E000001002D4E414E00494E46000062
:1003240001008230E80101003531760201003831E4
:1003340018030000F894EE27F091CC01F860F093D4
:10034400CC01F8EDF4BFE093A200A0918000AD7F52
:10035400A160F4BFA093800080E090E4A0E0B0E24C
:10036400ED930197E9F7E4E2F3E085919591009725
:1003740061F0A591B59105901590BF01F00105902C
:100384000D920197E1F7FB01F0CF8BBF8CBFE0E04A
:10039400E0B9E1B9E2B9E3B9E4B9E5B9E6B9E7B975
:1003A400E8B9E9B9EAB9EBB9ECB9EDB9EEB9EFB925
:1003B4002E2EE1E03E2EE0E04E2E5E2E6E2E7E2EA0
:1003C4008E2E9E2EAE2EBE2ECE2EDE2EEFEFEDBF47
:1003D400EFE5EEBFC0E0D0E30C9462111A930A93E8
:1003E400E091E407EE7FE093E40710E000E01631CB
:1003F40088F4103031F0E12FF0E0E45BFF4CE08151
:100404000E0FE12FF0E0E45BFF4CA0810E94900905
:100414001F5FEDCF00936230A09162300E9490097B
:10042400E091E407E160E093E407099119910895EC
:100434000E94041911F5A2E0B0E0E0EA0E94B6209F
:10044400A3E0B0E0E0E30E94B620A4E0B0E0E3E380
:100454000E94B620A5E0B0E0E5E30E94B620A6E045
:10046400B0E00E940A190E9415190E941C1924F474
:100474000E9424198394F9CFBB240E94041909F023
:1004840058C0A8E0B0E0EFEA0E94B620A9E0B0E0CE
:10049400E1E00E94B620AAE0B0E0E3E60E94B620C4
:1004A400ABE0B0E0E0E60E94B620ACE0B0E0E4E609
:1004B4000E94B620ADE0B0E0E0E00E94B620AEE0DD
:1004C400B0E00E94B620AFE0B0E00E94B620A0E108
:1004D400B0E00E94B620A1E1B0E00E94B620A2E103
:1004E400B0E00E94B620A3E1B0E00E94B620A4E1EF
:1004F400B0E0E8E90E94B620A5E1B0E0EAE30E949A
:10050400B620A6E1B0E0ECED0E94B620A7E1B0E091
:10051400E5E00E94B620A8E1B0E00E94B6200E9467
:1005240039190E941C1924F40E9447198394F9CFA5
:10053400BB240E940419C9F4AAE1B0E0EAEA0E94CB
:10054400B620ABE1B0E0E0E60E94B620ACE1B0E05A
:10055400EAEE0E945C190E9466190E941C1924F498
:100564000E946D198394F9CFBB240E940419C9F425
:10057400A6E5B0E0E2EA0E94B620A7E5B0E0E1E03B
:100584000E94B620A8E5B0E0E0E00E945C190E9459
:1005940082190E941C1924F40E9489198394F9CFAA
:1005A400BB240E94041911F5A9E3B0E0EDEA0E940E
:1005B400B620AAE3B0E0EAE50E94B620ABE3B0E0DF
:1005C400E0E00E94B620ACE3B0E0EAE50E94B62089
:1005D400ADE3B0E00E940A190E949E190E941C1902
:1005E40024F40E94A5198394F9CFBB240E94041912
:1005F40009F5A6E7B0E0E6EA0E94B620A7E7B0E076
:10060400E0E00E94B620A8E7B0E00E94B620A9E787
:10061400B0E0E1E00E94B620AAE7B0E00E940A1927
:100624000E94BA190E941C1924F40E94C1198394CF
:10063400F9CFBB240E94041909F08CC0AEE1B0E0EC
:10064400E1EA0E94B620AFE1B0E0E3E50E94B62003
:10065400A0E2B0E0E5E70E94B620A1E2B0E0EEE659
:100664000E94B620A2E2B0E0E0E20E94B620A3E23B
:10067400B0E0E3E50E94B620A4E2B0E0E5E60E9423
:10068400B620A5E2B0E0E0E70E94B620A6E2B0E022
:10069400E0E20E94B620A7E2B0E0E2E30E94B620C6
:1006A400A8E2B0E0E1E30E94B620A9E2B0E0E0E213
:1006B4000E94B620AAE2B0E0E2E30E94B620ABE2D8
:1006C400B0E0E3E30E94B620ACE2B0E0EAE30E94CB
:1006D400B620ADE2B0E0E3E30E94B620AEE2B0E0C3
:1006E400E6E30E94B620AFE2B0E0EAE30E94B6205F
:1006F400A0E3B0E0E2E30E94B620A1E3B0E0E4E3CB
:100704000E94B620A2E3B0E0E0E20E94B620A3E398
:10071400B0E0E2E30E94B620A4E3B0E0E0E30E948C
:10072400B620A5E3B0E0E1E30E94B620A6E3B0E082
:10073400E4E30E94B620A7E3B0E0E0E00E94B62024
:100744000E94D6190E941C1924F40E94E41983946F
:10075400F9CFBB240E940419A1F4AFE3B0E0E7EAA7
:100764000E94B620A0E4B0E0E2E40E94B6200E9419
:10077400F9190E941C1924F40E94071A8394F9CFD2
:10078400BB240E940419C9F4A2E4B0E0E7E70E9484
:10079400B620A3E4B0E0E0E00E94B620A4E4B0E018
:1007A400ECEF0E945C190E941C1A0E941C1924F48C
:1007B4000E94231A8394F9CFBB240E94041909F0E0
:1007C40041C0AAE4B0E0EBEA0E94B620ABE4B0E09A
:1007D400E5E70E94B620ACE4B0E0EEE60E94B62065
:1007E400ADE4B0E0E7E30E94B620AEE4B0E0E0E3BD
:1007F4000E94B620AFE4B0E0E2E30E94B620A0E598
:10080400B0E0E2E60E94B620A1E5B0E0EEE00E948E
:10081400B620A2E5B0E0E4E00E94B620A3E5B0E093
:10082400E4E10E94B620A4E5B0E0EEE00E94B62028
:100834000E94381A0E941C1924F40E94461A8394B8
:10084400F9CFBB240E94041981F5AAE5B0E0EEEAD1
:100854000E94B620ABE5B0E0EFEF0E94B620ACE515
:10086400B0E00E94B620ADE5B0E00E94B620AEE54F
:10087400B0E00E94B620AFE5B0E00E94B620A0E64A
:10088400B0E00E94B620A1E6B0E00E94B620A2E645
:10089400B0E00E94B6200E945B1A0E941C1924F446
:1008A4000E94691A8394F9CFBB240E94041929F584
:1008B400AAE6B0E0E4EA0E94B620ABE6B0E0E0E0ED
:1008C4000E94B620ACE6B0E0ECEF0E94B620ADE6A4
:1008D400B0E0E8E60E94B620AEE6B0E0E7EF0E94A2
:1008E400B6200E947E1A0E94861A0E941C1924F4C3
:1008F4000E948D1A8394F9CFBB240E94041909F530
:10090400A0E7B0E0E8E50E94B620A1E7B0E0E0E0AF
:100914000E94B620A2E7B0E00E94B620A3E7B0E0B0
:10092400E1E00E94B620A4E7B0E00E940A190E9408
:10093400A21A0E941C1924F40E94A91A8394F9CFC4
:10094400BB240E940419C1F4A6E4B0E0E6E70E94C7
:10095400B620A7E4B0E0EFEF0E94B620A8E4B0E030
:100964000E945C190E94BE1A0E941C1924F40E9461
:10097400C51A8394F9CFBB240E94041901F5A4E697
:10098400B0E0EAE60E94B620A5E6B0E0E0E00E940E
:10099400B620A6E6B0E00E94B620A7E6B0E00E942A
:1009A400B620A8E6B0E00E940A190E94DA1A0E9452
:1009B4001C1924F40E94E11A8394F9CFBB240895EE
:1009C400E5EAE0934C30E0E4E0934D30EFE1E0936E
:1009D4004E30E8E7E0934F30E0E0E0935030EBEB4B
:1009E400E0935130EBE0E0935230E0E0E093533099
:1009F400EFEFE0935430E0E0E0935530E8E0E0932B
:100A04005630EDEAE0935730EDE0E0935830ECEAED
:100A1400E0935930EDE0E0935A30E0E1E0935B304D
:100A2400E7E2E0935C30E0E0E0935D30E4E0E09303
:100A34005E30E0E0E0935F30E6E0E0936030E0E0D9
:100A4400E09361300895E0E0E0930406E09300064B
:100A5400E0931006E0931106E0931206E093130668
:100A6400E0931406E0931506E0931606E093170648
:100A7400E0910906E07FE0930906E0E0E0930A06CE
:100A8400E0930B06E0932406E0932006E0933006FF
:100A9400E0933106E0933206E0933306E0933406A4
:100AA400E0933506E0933606E0933706E091290695
:100AB400E07FE0932906E0E0E0932A06E0932B062A
:100AC400E8E1E0934406E8EBE0934006E0E0E093DD
:100AD4005006E0935106E0935206E0935306E093E8
:100AE4005406E0935506E0935606E0935706E091CA
:100AF4004906E07FE0934906E0E0E0934A06E0938C
:100B04004B06E0E8E0936406E0936006E0E0E093DF
:100B14007006E0937106E0937206E0937306E09327
:100B24007406E0937506E0937606E0937706E09109
:100B34006906E07FE0936906E0E0E0936A06E093EB
:100B44006B06E0938406E0938006E0939006E093BE
:100B54009106E0939206E0939306E0939406E09363
:100B64009506E0939606E0939706E0918906E07F68
:100B7400E0938906E0E0E0938A06E0938B06E09335
:100B8400A406E093A006E093B006E093B106E093D8
:100B9400B206E093B306E093B406E093B606E0939E
:100BA400B706E091A906E07FE093A906E0E0E093B0
:100BB400AA06E093AB06EFE0E093E407E093E007D6
:100BC400E0E0E093F007E093F107E091E907E07FCC
:100BD400E093E907E0E0E093EA07E093EB07089588
:100BE400E8E0E0934506E3E0E093A508E091A3087C
:100BF400E07CE063E093A308E5EFE093A608ECEC67
:100C0400E093A708E091A408E07EE861E093A408DB
:100C140008950E94F61AD090A108C090A008ED2D66
:100C2400EC7131F4E22DF0E0E050F04DC0822394F9
:100C3400E0918230F0E0EF3FA0E0FA0709F032C221
:100C4400E0910030F0E0EF3FA0E0FA0731F40E94B9
:100C5400041BEFEFE093003023C2EA3CA0E0FA0764
:100C640021F4EAEC0E940A1B1BC2E53FA0E0FA074C
:100C740021F4E5EF0E940A1B13C2E53BA0E0FA074A
:100C840039F4E5EBE0938230E4E00E94121B08C2E1
:100C9400EA3EA0E0FA0721F4EAEE0E940A1B00C231
:100CA400E53EA0E0FA0739F4E5EEE0938230E7E0B0
:100CB4000E94121BF5C1E73EA0E0FA0739F4E7EE03
:100CC400E0938230E7E00E94121BEAC1E036A0E024
:100CD400FA0721F4E0E60E940A1BE2C1E83EA0E024
:100CE400FA0739F4E8EEE0938230E3E00E94121B45
:100CF400D7C1E93EA0E0FA0739F4E9EEE093823087
:100D0400E3E00E94121BCCC1E03AA0E0FA07D9F458
:100D14000E94171B0E947E1A0E9415190E941C191A
:100D240024F40E9424198394F9CF88248B1440F46A
:100D3400A82DB0E0AE5FBF4F0E941C1B8394F6CF7A
:100D44000E94211BADC1E13AA0E0FA07C9F40E9458
:100D5400171B0E94D6190E941C1924F40E94E4193E
:100D64008394F9CF88248B1440F4A82DB0E0A25EBC
:100D7400BF4F0E941C1B8394F6CF0E94211B91C17C
:100D8400E23AA0E0FA07D9F40E94171B0E94261B3E
:100D94000E9482190E941C1924F40E9489198394C8
:100DA400F9CF88248B1440F4A82DB0E0AA5ABF4F81
:100DB4000E941C1B8394F6CF0E94211B72C1E43A4B
:100DC400A0E0FA07D9F40E94171B0E947E1A0E9421
:100DD400861A0E941C1924F40E948D1A8394F9CF58
:100DE40088248B1440F4A82DB0E0A659BF4F0E946C
:100DF4001C1B8394F6CF0E94211B53C1E63AA0E04A
:100E0400FA07D9F40E94171B0E947E1A0E94BA198D
:100E14000E941C1924F40E94C1198394F9CF8824D8
:100E24008B1440F4A82DB0E0AA58BF4F0E941C1B9D
:100E34008394F6CF0E94211B34C1E73AA0E0FA075D
:100E4400C9F40E94171B0E94F9190E941C1924F46A
:100E54000E94071A8394F9CF88248B1440F4A82D98
:100E6400B0E0A15CBF4F0E941C1B8394F6CF0E948C
:100E7400211B17C1EA3AA0E0FA07D9F40E94171B14
:100E84000E94261B0E9466190E941C1924F40E94C9
:100E94006D198394F9CF88248B1440F4A82DB0E005
:100EA400A65EBF4F0E941C1B8394F6CF0E94211B99
:100EB400F8C0EB3AA0E0FA07C9F40E94171B0E949D
:100EC400381A0E941C1924F40E94461A8394F9CFFC
:100ED40088248B1440F4A82DB0E0A65BBF4F0E9479
:100EE4001C1B8394F6CF0E94211BDBC0ED3AA0E0CB
:100EF400FA07D9F40E94171B0E947E1A0E949E19B9
:100F04000E941C1924F40E94A5198394F9CF882403
:100F14008B1440F4A82DB0E0A75CBF4F0E941C1BAB
:100F24008394F6CF0E94211BBCC0EE3AA0E0FA07DE
:100F3400C9F40E94171B0E945B1A0E941C1924F416
:100F44000E94691A8394F9CF88248B1440F4A82D45
:100F5400B0E0A65ABF4F0E941C1B8394F6CF0E9498
:100F6400211B9FC0EF3AA0E0FA07C9F40E94171BA7
:100F74000E9439190E941C1924F40E944719839471
:100F8400F9CF88248B1440F4A82DB0E0A85FBF4F9C
:100F94000E941C1B8394F6CF0E94211B82C0E8355B
:100FA400A0E0FA07D9F40E94171B0E947E1A0E943F
:100FB400A21A0E941C1924F40E94A91A8394F9CF3E
:100FC40088248B1440F4A82DB0E0A059BF4F0E9490
:100FD4001C1B8394F6CF0E94211B63C0EA36A0E059
:100FE400FA07D9F40E94171B0E947E1A0E94DA1A8B
:100FF4000E941C1924F40E94E11A8394F9CF8824D6
:101004008B1440F4A82DB0E0AC59BF4F0E941C1BB8
:101014008394F6CF0E94211B44C0E637A0E0FA0770
:10102400D9F40E94171B0E94261B0E94BE1A0E941C
:101034001C1924F40E94C51A8394F9CF88248B14B4
:1010440040F4A82DB0E0AA5BBF4F0E941C1B839400
:10105400F6CF0E94211B25C0E737A0E0FA07D9F498
:101064000E94171B0E94261B0E941C1A0E941C1916
:1010740024F40E94231A8394F9CF88248B1440F417
:10108400A82DB0E0AE5BBF4F0E941C1B8394F6CF2B
:101094000E94211B06C0EFEFE09300300E94041B66
:1010A400222404C0EA3CA0E0FA0739F5E2E0E215A4
:1010B40019F5A0910030A13021F4A0910130A130A4
:1010C40009F003C00E942E1B11C0A0910030AF3064
:1010D40021F4A0910130AF3009F008C00E942E1B0A
:1010E4000E94041BE1E0E093813005C0EFEFE09340
:1010F4008230E1E03E2E222410C1E53FA0E0FA0751
:1011040011F5E2E0E215F1F4A0910030AF3521F4DD
:10111400A0910130AF3509F012C0A5EFFFD0A5EFC3
:10112400FDD0A5EF0E94341B2224A5E0B0E00E946C
:10113400951DE8EDE4BFE1E0E093790003C00E946F
:10114400041B2224EAC0E53BA0E0FA07F1F4E4E042
:10115400E215D1F48824AA24E3E08E1620F40E9438
:10116400371B8394F9CFA0910330AA1651F49090C1
:101174000030A5EBD3D0A5EB0E94341B2224AA2473
:1011840003C00E94041B2224C8C0EA3EA0E0FA0760
:10119400E1F4E2E0E215C1F48824AA24E1E08E1629
:1011A40020F40E94371B8394F9CFA0910130AA1632
:1011B40041F4AAEEB3D0AAEE0E94341B2224AA243E
:1011C40003C00E94041B2224A8C0E036A0E0FA0752
:1011D400F1F4E2E0E215D1F48824AA24E1E08E16C9
:1011E40020F40E94371B8394F9CFA0910130AA16F2
:1011F40051F4A0E693D0A0E091D0A0E00E94341B6B
:101204002224AA2403C00E94041B222486C0E53E93
:10121400A0E0FA07E1F4E7E0E215C1F48824AA2487
:10122400E6E08E1620F40E94371B8394F9CFA09138
:101234000630AA1641F4A5EE71D0A5EE0E94341B27
:101244002224AA2403C00E94041B222466C0E73E71
:10125400A0E0FA07E1F4E7E0E215C1F48824AA2447
:10126400E6E08E1620F40E94371B8394F9CFA091F8
:101274000630AA1641F4A7EE51D0A7EE0E94341B03
:101284002224AA2403C00E94041B222446C0E83E50
:10129400A0E0FA07E1F4E3E0E215C1F48824AA240B
:1012A400E2E08E1620F40E94371B8394F9CFA091BC
:1012B4000230AA1641F4A8EE31D0A8EE0E94341BE5
:1012C4002224AA2403C00E94041B222426C0E93E2F
:1012D400A0E0FA07E1F4E3E0E215C1F48824AA24CB
:1012E400E2E08E1620F40E94371B8394F9CFA0917C
:1012F4000230AA1641F4A9EE11D0A9EE0E94341BC3
:101304002224AA2403C00E94041B222406C0EFEF57
:10131400E09300300E94041B222474C1AA93E0913C
:10132400A108E072E1F3E881E093A00840C1E0E89D
:10133400E0936506E3E0E093B509E091B309E07C4E
:10134400E093B309EEE6E093B609E8EAE093B7095F
:10135400E091B409E07EE860E093B4090895AA93AB
:10136400E091B109E072E1F3E881E093B0091FC1B3
:101374001A9310E0AEE2B0E30E94D116A12FB0E0C0
:10138400AE17BF0740F4E12FF0E0E25DFF4CA0810F
:10139400E6DF1F5FEFCF0E943E1BE0E0EA93AEE181
:1013A400B0E00E94B416AAE0DADFADE0D8DFEAC00C
:1013B400BA93AA93A881B981EC91E07FEC93199632
:1013C400ECE0EC93229608951A930A931FB7F894CD
:1013D400E0910008E07FE560E0930008E0910108F7
:1013E400E870E0930108E0910308E071E0930308DA
:1013F400E0910608E07FE160E0930608E0910708C9
:10140400E070E0930708E0919900EE7F0E2FE8ED7D
:10141400E4BF00939900E0918008E07CE0938008A9
:10142400E0918308E87EE0938308E0E0E09382089B
:10143400A4E8B8E00A2EAC91E0918408E470EA2BA9
:10144400A02DEC93E0910C08E0930C08E0E0F0E0B0
:10145400E0932008F0932108E1E1FAE7E0932608FD
:10146400F0932708E0E0F0E0E0932808F0932908DF
:10147400E0932A08F0932B08E0932C08F0932D08AE
:10148400E0932E08F0932F081FBF09911991089536
:101494001A931FB7F894A0E4B8E08ADFE5E0E0937C
:1014A4004008E0E0E0934108E0934308E0934408F7
:1014B400E0914608E07FE160E0934608E0E0E093D5
:1014C4004708E0919008ED7FE0939008E0914C0884
:1014D400E0934C08E0E0F0E0E0936008F0936108EA
:1014E400E7EAF1E6E0936608F0936708E0E0F0E0ED
:1014F400E0936808F0936908E0936A08F0936B0836
:1015040040C01A931FB7F894E0910009E07FE160AE
:10151400E0930009E0910109E870E0930109E0918A
:101524000309E071E0930309E0910609E07FE160BB
:10153400E0930609E0910709E070E0930709E09160
:101544000C09E0930C09E0E0F0E0E0932009F0934B
:101554002109EFE3F6EAE0932609F0932709E0E096
:10156400F0E0E0932809F0932909E0932A09F09325
:101574002B09E0932C09F0932D09E0932E09F093A5
:101584002F091FBF19910895E3E5E093C008E09186
:10159400C108EC7FE093C1080895AA93E881E09321
:1015A400C308E091C208E078E1F3E091C308219612
:1015B4000895E0EAF4E0FA93EA93E0E0EA93A0E025
:1015C4000E94EA160E94431BE0EAF4E0FA93EA93CD
:1015D400E0E4EA93ABE90E94FF16E0E0E093A8049C
:1015E40008950A921A92FA926A937A938A939A9332
:1015F400AA93BA93EA93FA93EFB7EA93A3E8B0E312
:101604000E942A17E991EFBFF991E991B991A99143
:101614009991899179916991F99019900990189506
:101624001895E6EFE0931131E7EFE0931231E4EF20
:10163400E0930F31EEE2E0931031E6EFE0931731DF
:10164400E7EFE0931831E8EFE0931931E4EFE0932A
:101654001531E091AD30E295E07FEE0FEE0FEC5CDA
:10166400E0931631EAEAE093E330EBEAE093E43006
:10167400ECEAE093E530EDEAE093E630EEEAE0935D
:10168400E730EFEAE093E830E0EBE093E930E1EBB8
:10169400E093EA30E2EBE093EB30E3EBE093EC3001
:1016A400E4EBE093ED30E5EBE093EE30E6EBE09332
:1016B400EF30E7EBE093F030E8EBE093F130E9EB67
:1016C400E093F230EAEBE093F330EBEBE093F430A9
:1016D400ECEBE093F530EDEBE093F630EEEBE093DA
:1016E400F730EFEBE093F83008959BDF0E94431B43
:1016F400E7E7EA93E3EEF0E30E94481BE9EFF0E347
:101704000E944D1BE7E7EA93E5EEF0E30E94481BD5
:10171400EBEFF0E30E944D1BE7E7EA93E7EEF0E31B
:101724000E94481BEDEFF0E30E944D1BE7E7EA93AC
:10173400E9EEF0E30E94481BEFEFF0E30E944D1B3B
:10174400E7E7EA93EBEEF0E30E94481BE1E0F1E304
:101754000E944D1BE7E7EA93EDEEF0E30E94481B7D
:10176400E3E0F1E30E944D1BE7E7EA93EFEEF0E3D9
:101774000E94481BE5E0F1E30E944D1BE7E7EA9372
:10178400E1EFF0E30E94481BE7E0F1E30E944D1B08
:10179400E7E7EA93E3EFF0E30E94481BE9E0F1E3B3
:1017A4000E944D1BE7E7EA93E5EFF0E30E94481B34
:1017B400EBE0F1E30E944D1BE7E7EA93E7EFF0E388
:1017C4000E94481BEDE0F1E3FA93EA93A2E00E9441
:1017D400B217B091F930A0E0E091FA30F0E0EA0FEE
:1017E400FB1FE0939330F0939430F091FB30E0E0F2
:1017F400DF01E091FC30F0E0EA0FFB1FE09395304D
:10180400F0939630F091FD30E0E0DF01E091FE309E
:10181400F0E0EA0FFB1FE0939730F0939830F091DB
:10182400FF30E0E0DF01E0910031F0E0EA0FFB1F60
:10183400E0939930F0939A30F0910131E0E0DF01C8
:10184400E0910231F0E0EA0FFB1FE0939B30F0934C
:101854009C30F0910331E0E0DF01E0910431F0E0ED
:10186400EA0FFB1FE0939D30F0939E30F091053119
:10187400E0E0DF01E0910631F0E0EA0FFB1FE093C6
:101884009F30F093A030F0910731E0E0DF01E09168
:101894000831F0E0EA0FFB1FE093A130F093A2308F
:1018A400F0910931E0E0DF01E0910A31F0E0EA0F64
:1018B400FB1FE093A330F093A430F0910B31E0E0F0
:1018C400DF01E0910C31F0E0EA0FFB1FE093A5305B
:1018D400F093A630F0910D31E0E0DF01E0910E319C
:1018E400F0E0EA0FFB1FE093A730F093A8300895CF
:1018F4000E94431BE7E7EA93EFE0F1E30E94481BF1
:101904000E94531BE0918806EB60EB30D9F30E94F0
:10191400431BE7E7EA93E1E1F1E30E94481BE3E1BB
:10192400F1E30E944D1BE7E7EA93E5E1F1E30E944E
:10193400481B0E94531BE0918806EB60EB30D9F3FF
:101944000E94431BE7E7EA93E7E1F1E30E945A1B95
:10195400EAE1F1E30E945F1BE7E7EA93E8E1F1E3E0
:101964000E945A1BEBE1F1E30E945F1BE7E7EA9355
:10197400E9E1F1E30E945A1BECE1F1E3FA93EA9303
:10198400A1E00E94B217B0911331A0E0E0911431AC
:101994000E94651BE093A930F093AA306093AB30AA
:1019A4007093AC30A0911A31BB27E091AD30E85F61
:1019B4000E94681F0E94CA1F0E946B1BA091B23034
:1019C400AA2332F40E94741B0E94601F0E946B1BA6
:1019D400A0911B31B0E0E091AD300E94681FA0914E
:1019E400AF30B091B0308091B1309091B2300E945C
:1019F4007D1B7F936F93FF93EF9300901C31112411
:101A0400A091AD30E8E0EA1BD0010E94711FAF91B4
:101A1400BF918F919F910E947D1B0E946B1BE0914F
:101A24009D30F0919E30A091A930B091AA30809160
:101A3400AB309091AC30662777270E945B1FE09112
:101A44009B30F0919C30662777270E94821B0E946E
:101A54008A1BA091A530B091A6300E94CF1FEBE065
:101A64000E94831F7F936F93FF93EF93E091A730BE
:101A7400F091A8300E94931B0E947D1BAF91BF91EF
:101A84008F919F910E9449200E949C1BE093BB3040
:101A9400F093BC306093BD307093BE300E94A81B9D
:101AA400E85FFF4F6F4F7F4FDF01CB01E4E00E94FF
:101AB4008F1FE093BF30F093C0306093C1307093B8
:101AC400C2300E940B1EDF01CB010E94B11B0E9499
:101AD400E31EE093DB30F093DC306093DD307093F1
:101AE400DE300E94A81BE05AFF4060407040E09343
:101AF400C330F093C4306093C5307093C6300E94F5
:101B0400B61B0E94BF1BA091A130B091A2300E94CD
:101B1400CA1BECE00E948F1FDF01CB01EBE00E94A7
:101B2400D11BA0919530B09196300E94CA1BEBE076
:101B34000E948F1F0E949C1B0E94D51BE091933032
:101B4400F09194300E94A91FDF010E94DE1B0E94C5
:101B5400CF1F0E94511FE091AD300E94831F0E944D
:101B6400E71BE093CB30F093CC306093CD3070938F
:101B7400CE300E94B61BA0919730B09198300E944D
:101B8400CA1BEDE00E94D11B0E94BF1BDF01CB01E9
:101B9400ECE00E948F1FA0919F30B091A0300E9472
:101BA400CF1F0E94F01B0E949C1B0E94E71B0E94F7
:101BB400D51B0E94DE1BE050F0486F4F7F4FA09171
:101BC4009930B0919A30882799270E94821BE0931C
:101BD400D730F093D8306093D9307093DA30A09135
:101BE400CB30B091CC308091CD309091CE300E94EA
:101BF400741B0E94561F7F936F93FF93EF93E091A2
:101C0400AD30A0E5B3EC0E947A1FAF91BF918F91E4
:101C14009F91662777270E94D91FE093CF30F093D6
:101C2400D0306093D1307093D2300E94F51BA03035
:101C3400E0E0BE07E0E08E07E0E89E0788F4E0916C
:101C4400CF30F091D0306091D1307091D2300E9479
:101C5400B31FDF01CB010E94FE1B0E94242008C099
:101C64000E94FE1B0E94F51B0E9424200E94B31FA9
:101C7400E093D330F093D4306093D5307093D63062
:101C84000E94071C7F936F93FF93EF930E94071C9E
:101C9400AF91BF918F919F910E94F91F0E948A1B5F
:101CA400E091B330F091B4306091B5307091B630BA
:101CB400AEEDBBE080E090E00E94F01B0E948A1B26
:101CC4000E94131CA3E4B3EE8FEF9FEF0E94F01B5E
:101CD4000E949C1BE153F14F6F4F7F4FDF01CB01FB
:101CE400E4E00E948F1F0E941C1C0E944C1FE09382
:101CF400D330F093D4306093D5307093D6300E94B3
:101D0400131C0E940B1EDF01CB01EFE6F2E565E038
:101D140073E40E94E31EE093DF30F093E0306093BD
:101D2400E1307093E2300895E2E0E0932331E0E0A3
:101D3400E09324310E94431BE8E1EA93E3E2F1E3F8
:101D44000E94481B0E94531BE3E0E0932131E2E32D
:101D5400E09322310E94431BE8E1EA93E1E2F1E3DC
:101D64008AC0E0E0E0931D310E94431BE8E1EA935E
:101D7400EDE1F1E30E945A1BEEE1F1E3FA93EA93F9
:101D8400A1E082C0E1E0E0931F310E94431BE8E13F
:101D9400EA93EFE1F1E36FC0E2E0E0932B31E0E09E
:101DA400E0932C310E94431BE9E1EA93EBE2F1E377
:101DB4000E94481B0E94531BE3E0E0932931E8E9A9
:101DC400E0932A310E94431BE9E1EA93E9E2F1E35B
:101DD40052C0E0E0E09325310E94431BE9E1EA931D
:101DE400E5E2F1E30E945A1BE6E2F1E3FA93EA9397
:101DF400A1E04AC0E1E0E09327310E94431BE9E1FE
:101E0400EA93E7E2F1E337C0E2E0E0933331E0E064
:101E1400E09334310E94431BEAE1EA93E3E3F1E304
:101E24000E94481B0E94531BE3E0E0933131E0E43D
:101E3400E09332310E94431BEAE1EA93E1E3F1E3E8
:101E44001AC0E0E0E0932D310E94431BEAE1EA93DB
:101E5400EDE2F1E30E945A1BEEE2F1E3FA93EA9316
:101E6400A1E012C0E1E0E0932F310E94431BEAE1BC
:101E7400EA93EFE2F1E3FA93EA93E2E0EA93E0E033
:101E8400F0E0FA93EA93A0E00E94B2170895AA93AF
:101E9400E0E1E0934606AB8180DBAA817EDBA98189
:101EA4007CDBA8817ADBE0914806ED6FEF3FD9F344
:101EB400E0E1E093450624960895AA930E94E62063
:101EC400E0913531AC81EA1729F0A13011F0A2304C
:101ED40009F401C010C0AC81A13011F40E94251C8A
:101EE400AC81A23041F4E1E2EA93ECE0EA93E1E16F
:101EF400EA93A0E4CCDFEC81E0933531E09148062D
:101F0400ED6FEF3FD9F3E0E1E09346068BE68A9567
:101F1400F1F7A8E342DBAFEF40DB0E2F1127AFEF61
:101F24003CDB2E2F3327E0E1E0934506F02FE0E081
:101F3400E22BF32BE4C01A930A930FB7F894E091C1
:101F44005000E260E0935000E0914100E0781E2FE1
:101F5400E8EDE4BF10934100E0916000EE7FE09370
:101F64006000E0915100E270E1F3E0914000E87F0D
:101F7400E1601E2FE8EDE4BF10934000E0915000B3
:101F8400E27EE0935000E091B400EC7FE093B40073
:101F94000FBF099119910895AA931A93E2E0E0936F
:101FA400CA01E981F0E01491E0E0E093CA01E12F75
:101FB400188122960895A0E2EFDFE0930C02A1E2DB
:101FC400EBDFE0930D02E0E0E0930102E3E0E09355
:101FD4000402E1E1E0930202E0E0E0931802E093FE
:101FE4001902E1E0E0932002E0E2E0932102E1E063
:101FF400E0932802E8E2E0932902E1E0E093300272
:10200400E0E3E0933102E1E0E0933802E8E3E093B7
:102014003902E0E0E0930302E0932202E0932A0213
:10202400E0933202E0933A02E0910002E160E0932F
:1020340000024CC0AA930E94E620EC81F0E0A0E2EA
:10204400B2E00E942E1CF801A381A170E1F34FC0FD
:10205400A4E2A2DFE0934C02A5E29EDFE0934D02EE
:10206400E0E0E0934102E3E0E0934402E0E1E09346
:102074004202E0E0E0935802E0935902E1E0E09389
:102084006002E0E0E0936102E1E0E0936802E8E0EE
:10209400E0936902E1E0E0937002E0E1E093710211
:1020A400E1E0E0937802E8E1E0937902E0E0E09394
:1020B4004302E0936202E0936A02E0937202E093C7
:1020C4007A02E0914002E160E093400285E18A9562
:1020D400F1F70895AA930E94E620EC81F0E0A0E6CF
:1020E400B2E00E942E1CF801A381A170E1F3D80193
:1020F4001396E1E0EC93F80124813581F9010E9403
:10210400ED20259608950E94F61AE0918130E03082
:1021140021F0A0918230AF3F09F006C00E94F00187
:10212400A1E0B0E00E94951DBCC00E94F61A0E9476
:10213400381CA1E0C2DEE0933631F0933731E091F0
:102144003631F0913731E050F048E0933631F09376
:102154003731E0913631E0935330E0913631F091EC
:1021640037310E94B81FE09354300E943E1C7724FC
:10217400E4E07E1650F40E94441C0E944B1C0E9412
:10218400521C0E944B1C7394F3CF6624EAE06E1633
:10219400A0F57724E4E07E1670F50E94441CEA0F53
:1021A400FB1FFF93EF930E94441C0E94591CFF9352
:1021B400EF93A72D3FDFAF91BF91EA0FFB1FAF91C4
:1021C400BF91ED93FC930E94521CEA0FFB1FFF93F7
:1021D400EF930E94521C0E94591CFF93EF93A72D6A
:1021E40079DFAF91BF91EA0FFB1FAF91BF91ED93E0
:1021F400FC937394CFCF6394C9CF7724E4E07E1625
:10220400C0F40E94441CEA0FFB1FBF010E94441C3F
:102214000E94591C0E945E1C0E94521CEA0FFB1F64
:10222400BF010E94521C0E94591C0E945E1C7394A0
:10223400E5CFE0911E30E0934D30E0911F30E09304
:102244004E30E0912030E0935130E0912130E09322
:102254005230E0912230E0934F30E0912330E0930C
:102264005030E0912430E0935930E0912530E093F0
:102274005A30E0912630E0935D30E0912730E093CE
:102284005E30E0912830E0935F30E0912930E093B4
:102294006030E0912A30E0935530E0912B30E093A8
:1022A4005630E991EFBFF991E991B991A9919991CA
:1022B400899179916991F9901990099018951895D7
:1022C400F894E091A200E873E7601E2FE8EDE4BF04
:1022D4001093A200E0E0E093A1002DDE0E9425050A
:1022E400E0918006E061E0938006E0918406E0617D
:1022F400E093840660DEACDE0E94F2050E94990938
:1023040043D957D9A4E6B0E00E94951D78940E9461
:10231400E2040E943E1BE8E7F2E00E94691C0E946E
:102324003E1BE5E8F2E00E94691CFEDC35DD6CDD55
:102334000E943E1BEFE8F2E00E94691CD6D90E947D
:102344003E1BE0EAF2E00E94691C0E943E1BE1EBA6
:10235400F2E0FA93EA9380E0D1D424960E94BA0979
:102364000E94751CE0930106E1E0E09305060E94DB
:10237400751CE09306060E94751CE0930506A2E313
:10238400B0E00E94951D0E94251C0E943E1BEBEBB1
:10239400F2E00E94691C0E94830A0E94E6090E94DE
:1023A4004A0AE0918406EF7EE09384060E943E1B75
:1023B400EBECF2E00E94691C0E941A020E940419CC
:1023C40029F4A1E0B0E0E0E00E94B620A1E0B0E092
:1023D4000E94AD20E23308F06AC1A1E0B0E00E949F
:1023E400AD20EF5F0E94B6200E94381CBADCF1DCFD
:1023F40028DD0E943E1CE0912631E078E03821F48B
:10240400E0916130E26007C0E0912631E07829F480
:10241400E0916130ED7FE0936130E0911E31E07135
:10242400E03121F4E0916130E46007C0E0911E31B5
:10243400E07129F4E0916130EB7FE0936130E09149
:102444001E31E072E03221F4E0916130E86007C0AF
:10245400E0911E31E07229F4E0916130E77FE0936E
:102464006130E0911E31E270E23021F4E09161309C
:10247400E06107C0E0911E31E27029F4E09161301F
:10248400EF7EE0936130E0912631E870E83021F48A
:10249400E0916130E06207C0E0912631E87029F4F0
:1024A400E0916130EF7DE0936130E0912631E0719D
:1024B400E03121F4E0916130E06407C0E09126311D
:1024C400E07129F4E0916130EF7BE0936130E091B9
:1024D4002E31E074E03421F4E0916130E06807C00B
:1024E400E0912E31E07429F4E0916130EF77E093CC
:1024F4006130E92DE270E23021F4E0913031E260A4
:1025040005C091FC05C0E0913031ED7FE09330319E
:10251400E92DE470E43021F4E0913031E46005C049
:1025240092FC05C0E0913031EB7FE0933031E92D2E
:10253400E870E83021F40E947B1CE06405C093FC41
:1025440005C00E947B1CE068E0932031E92DE07116
:10255400E03121F4E0913031E86005C094FC05C01D
:10256400E0913031E77FE0933031E92DE072E032E1
:1025740021F4E0913031E06105C095FC05C0E091A3
:102584003031EF7EE0933031E92DE074E03221F414
:10259400E0912031EE7F05C096FC05C0E09120312A
:1025A400E160E0932031E92DE078E03821F4E09116
:1025B4002831EE7F05C097FC05C0E0912831E16029
:1025C400E0932831DFDB16DC4DDC0E943E1C90D901
:1025D4000E94381C0E943E1BE7EDF2E0FA93EA9356
:1025E400E091DF30F091E0306091E1307091E230C1
:1025F4000E949620E091DB30F091DC306091DD3078
:102604007091DE300E94831C0E948B1CA835E2E08E
:10261400BE07E0E08E07E0E09E07C4F4E091BF301F
:10262400E09357300E948B1CE8E00E948F1FE093D8
:1026340058300E94941CE0935B300E94941CDF018C
:10264400CB01E8E00E948F1FE0935C300E943E1BA8
:10265400E8EEF2E0FA93EA93B0915C30A0E0E09106
:102664005B300E94651B0E949620B0915830A0E018
:10267400E09157300E94651B0E94831C0E943E1B00
:10268400EAEFF2E0FA93EA93E09161300E949C1C35
:102694000E943E1BE4E0F3E0FA93EA93E0912E31CA
:1026A4000E949C1CAEEDB0E00E94951D9DCEFFCF14
:1026B400BA93AA931A930A93AA81BB8112960E9491
:1026C4007D20309729F1AA81BB8114960E947D2038
:1026D4008F01309761F00230E0E01E0780F0F801CE
:1026E40031978F01AA81BB811496ED93FC93AA8143
:1026F400BB8112960E94A71C3197AC81A083AA814A
:10270400BB810E947D20FF2312F00E94A71C06C0FB
:10271400AA81BB81EFEFFFEFED93FC931981088150
:102724000C94FD160E94AD1CE0E8EA83EFE3EB8312
:102734000E94E620EE85FF85EF3FAFEFFA0749F4EC
:10274400E885F985FA93EA93A2E1B3E00E94C416FE
:10275400B7C0EF3FAFE7FA0749F4E885F985FA9384
:10276400EA93A3E1B3E00E94C416AAC0AB85A730E4
:1027740010F0E6E0EB871B85E12F1150E03019F0F3
:102784000E94B41CF9CFEC85FD856E857F850E947F
:10279400E02021F430E00E94B41C2DC03B850E944F
:1027A400C01C09F008F40BC00E94B41C0E94C01C99
:1027B40028F00E94CB1C0E94D01CF8CF0DC00E94B0
:1027C400C01C40F40E94CB1C0E94DC1C0E94E01C34
:1027D4003150F5CF0E94B41CEC85FD856E857F8554
:1027E4000E94E51C0E94E01C0E94C01C20F00E9474
:1027F400CB1C0E94D01C10E0EB85E117A8F1AC8142
:10280400BD818E819F810E94EC1C0E94E51CDF012A
:10281400CB010E944C18EC83FD836E837F830E945E
:10282400CB1C0E94E31E0E94D21D0E2F0E94F31C9B
:102834000E94FA1CFF27662777270E940B1EAC8193
:10284400BD818E819F810E94951E0E94CB1C0E9497
:10285400FF1C0E94E01CE12F1F5FE03069F60E941C
:10286400F31CEEE2EC93C8CF0E94041D3197AA85B5
:10287400A08330302CF43195A885B985EDE203C0EE
:10288400A885B985EBE2EC930E94041D0E94041D07
:102894003197BF01A32FEAE00E940C20E05DDB0129
:1028A400EC930E94041D3197BF01A32FEAE00E941C
:1028B4004E20E05DDB01EC93A885B985E0E0EC9364
:1028C4000E94ED2060960895BA93AA93EF976197BA
:1028D4000E94E42010E0FE01E85AFF4F0190F081CD
:1028E400E02DE887F987FE01EA5AFF4F0190F08155
:1028F400E02DEE83FF83AE81BF81E0E0F0E0ED9355
:10290400FC93DE01A45ABF4F0E94A71C3197E491A7
:102914002E2FE03009F4E9C1E12FE03039F42532FB
:1029240011F411E002C00E940A1DDEC1E130C1F4BD
:10293400253219F40E940A1DD6C112E0E0E0ED8BA5
:1029440000E02D3211F401E0CFC12B3219F4EBE297
:10295400ED8BCAC1203219F4E0E2ED8BC5C102C08F
:10296400E23039F450E013E0203311F40068BCC1C4
:1029740002C0E33091F4203310F02A3308F007C08A
:10298400AAE05A9F502DE22FE0535E0FADC140E004
:102994002E3211F414E0A8C10FC0E43099F42033AE
:1029A40010F02A3308F008C00062AAE04A9F402DC4
:1029B400E22FE0534E0F98C12C3619F4026015E053
:1029C40093C103C0E53009F08FC1E22FE33659F417
:1029D4000E94111D0E94181D0E94111DA481AA931A
:1029E4000E941F1D80C1E53411F0E53609F403C0CF
:1029F400E63609F048C0FE017696EE87FF870E940E
:102A0400251D0E9481200E942C1D0E94311DAD8530
:102A1400AA2332F0AD89AB3259F0A03281F017C04D
:102A24000E94331D0E949F1D0E942C1DEDE2ED8B20
:102A340007FF05C0ED89EA930E941F1D08C0EE85BB
:102A4400FF853196EE87FF873197AD89A08305FF17
:102A540046E0263651F40E94331D0E9496204A9384
:102A6400AB89BC890E94631809C00E94331D0E946F
:102A740096204A932A93AC89BD8954DEFE0176964A
:102A84000E94381D1EC0E33739F40E94311D0E9494
:102A9400401D0E94381D0EC0E037C1F40E94311D54
:102AA4000E94401DEE87FF87AE85BF850E94DD161C
:102AB4001E2F08600F77403011F0411708F001C055
:102AC400142F40E0E0E0EC8B30E06DC0E43611F010
:102AD400E93611F4046002C0E537A1F4EAE0EC8BB6
:102AE40001FF08C0E0E0FAEC6AE97BE30E94451DBF
:102AF4001AE022C0E0E1F7E260E070E00E94451DC8
:102B040015E01AC0E83511F4086003C0E83709F08D
:102B1400EAC0E0E1EC8B01FF08C0E0E0F0E060E037
:102B240070E10E94451D18E007C0E0E0F0E160E0BC
:102B340070E00E94451D14E0403011F00F7701C091
:102B440041E001FF08C00E94311D0E94251D14961A
:102B54000E9481200FC002FF07C00E94311D0E9405
:102B6400401D0E94CA1F06C00E94311D0E94401DC4
:102B740066277727EA87FB876C877D8702FF12C069
:102B8400AD85AA2342F40E94331D0E94601F0E9457
:102B94002C1DEDE2ED8BED89E03019F01F5F4F5FE6
:102BA40001C00B7F342F00FD14C0151710F4351726
:102BB40008F00FC007FF08C002FF04C00B7F2D8977
:102BC400115001C020E301C020E20E940A1D5150AF
:102BD400ECCF141790F4006102FF06C00E944A1D56
:102BE40009F0515011504150E0E3EA930E941F1D37
:102BF400503009F051504150ECCF312FEC89E03086
:102C0400B9F43030A1F003FF06C0EE85FF852591AD
:102C1400EE87FF8705C0AE85BF852D91AE87BF8740
:102C24000E940A1D503009F051503150EACF51C072
:102C34000E945C1D0E9424202E2F2A3030F003FFB6
:102C440002C0295C01C0295A01C0205D04FD21C0D5
:102C5400213360F4A889B9898A899B89A130E0E08D
:102C6400BE07E0E08E07E0E09E0709F40BC04317BF
:102C740040F4531710F000FF01C010C020E207FF1A
:102C840008C020E3006102FF04C00E944A1D09F04D
:102C940051500E940A1D503009F0515031500E9489
:102CA4005C1D0E945A200E942C1DEC89A889B989B8
:102CB4008A899B89FF27662777270E9424200E9400
:102CC400451DE889F9896A897B890E94E02009F019
:102CD400AFCF00FF08C0503031F05150E0E2EA932A
:102CE4000E941F1DF8CF10E00CCEAE81BF810E9460
:102CF4007D200E94EB20EF966F960895FF92F82EA8
:102D040026970E94E6200E94651D309719F4EFEF84
:102D1400FFEF23C0DE0116960E94481F8D010E941A
:102D2400651DEE83FF83E0E0E887E987DE011A96FC
:102D34000E94481F0E947D20FA93EA931A930A93F3
:102D4400EAE5F3E1FA93EA93DE011A96BDDD9F0109
:102D5400AE81BF81E0E0EC93F9010E94ED202A9658
:102D6400FF900895BA93AA93B981A881109631F07F
:102D7400FC81EB816A8161931197E9F7EB81FC8116
:102D84000C94FD16BA93AA93E991F991A991B9917A
:102D9400CD0105900D920020E1F7FC010895BA934E
:102DA400AA93A991B991EE27FF276D91662311F09B
:102DB4003196FBCF0895BA93AA93AA27BB27E9912A
:102DC400F9910590002011F01196FBCFFD010895B3
:102DD400AA931A93AB81BC81EC91EC7F1E2FEA81FC
:102DE400E03009F01160E981E03009F01260AB8154
:102DF400BC811C93188125960895AA93E981E86300
:102E0400AA81BB811196EC93EA81FB813296A0E002
:102E1400A083E881AA81BB811596EC93EA81FB81AA
:102E24003496A1E0A083EA81FB81AC81BD81ED935E
:102E3400FC93AC81BD811596E0E0EC93AC81BD813F
:102E44001996EC93AC81BD811B96EC93269608955C
:102E5400BA93AA9322970E94E420A885B9850D917C
:102E64001C91F80134813396AF0133FF02C023E093
:102E740003C032FF04C024E0F801348309C0F80120
:102E84003796EE83FF8336FF32C034FF05C025E05A
:102E9400DA01E3E0EC935BC0E885F9852681E581FE
:102EA4002E1798F4E885F985A381B481E22F2F5F6A
:102EB400F0E0AE0FBF1FEC91AE81BF81EC93E22F27
:102EC400A885B9851696EC9347C0E885F985A2854F
:102ED400E185AE1748F4E885F985A281E1E0EA2BA3
:102EE400D8011696EC9338C0DA01E3E02CC037FF22
:102EF4002DC0E885F9852285E1852E1728F0DA01B1
:102F0400E3E0EC9322E023C0E885F985A781B0854E
:102F1400E22F2F5FF0E0EA0FFB1F0F01AE81BF81AC
:102F2400EC91D001EC93E22FA885B9851A96EC9325
:102F3400E885F985E1852E1720F4DA01E2E0EC93C7
:102F44000BC0DA01E7E0EC9321E001C026E0E22FB8
:102F5400A885B9851B96EC930E94EB202A960895C8
:102F6400AA931A930A93E985FA85A385A07809F0B0
:102F74005BC0A985BA851B96E0E8EC93E885EE0F63
:102F8400E887A985BA851296EC93EE81FF81A9851D
:102F9400BA851396ED93FC93ED81A985BA851596B0
:102FA400EC93A985BA851696E0E0EC93EB81FC815D
:102FB400A985BA851796ED93FC93EA81A985BA850C
:102FC4001996EC93A985BA851A96E0E0EC93A98545
:102FD400BA850E947D2036968F01ED81E03079F02C
:102FE400EE81FF81309701F1EA81E03021F0AB817D
:102FF400BC81109709F001C017C0E88509C0EA81B7
:10300400E03041F0EB81FC81309771F0E885E160BC
:10301400D801EC93E985FA85A385A078D9F7A3852F
:10302400E1E00E94D41F01C0E0E0198108812B96E1
:1030340008950E949B207B816A81F981E88177FB56
:10304400770F67FD7160972F9E5781F078F0983164
:1030540090F4AA27BB27882708948795B795A79546
:103064009A95D1F7EA23FB23682305C0E8947727D0
:10307400EE27FF2766276F77769508F4606877F95F
:10308400A991B99189919991EA17FB076807790782
:1030940097FB08950E949B200E948C200E941B187D
:1030A4000E94912019F40E94872009C0E6F70E942B
:1030B4008720A0E0B0E080E89FE30E943E1E2496B3
:1030C400089549D4E0E0EA83EFE3EB831A930A938B
:1030D400EB85FC85EF3FAFEFFA0731F4FBD4AAE1AF
:1030E400B3E00E94C4168AC0EF3FAFE7FA0731F499
:1030F400F1D4ABE1B3E00E94C41680C0AC85AA232E
:1031040052F4E985FA856B857C850E949F1DE7D47E
:10311400EBD4EDE2EC93A885A73010F0E6E0E88765
:103124001885E12F1150E03021F0E5D453D4E8D4D0
:10313400F8CFEBD40E94451ED2D410E0E0E0F0E0DA
:1031440060E87FE3DDD4E1D40E94281F68F0D3D483
:1031540031D4D6D41F5F173230F0BCD4AFE1B3E022
:103164000E94C4164BC0EFCF103021F4BDD4E0E36D
:10317400EC9320C0E12F1150E030E1F0BCD42AD40C
:1031840022D4DF01CB010E944C18BAD4BED40E94D1
:10319400E31E0E94D21D0E2FA7D42AD4F0E0ABD494
:1031A4000E94CA1F0E940B1E0E94951EB7D425D4EC
:1031B40096D4E0CFE885E030E9F096D4EEE2EC93E3
:1031C400E885E150E887EF5FA9F0A8D4F3D387D46A
:1031D400E985FA856B857C850E94D21D0E2F84D4E7
:1031E40007D4F0E09BD40E94CA1F0E940B1E05D492
:1031F40076D4E6CFAE81BF81E0E0EC9319810881FB
:103204002D960895A1E0B0E00E94AD20EF3F08950F
:10321400E0E00E94B620E6E0BE2EE1E08E2EEB2D2B
:10322400F0E031970895EE5FFF4FDF01E0E00E9488
:10323400B6200895EB2DF0E03197A82DB0E0AE173D
:10324400BF070895EB2DF0E03197EE5FFF4FBF010C
:10325400DF010E94AD200E2EA82DB0E0AE5FBF4F5F
:103264000E94AD20E00DDB010E94B6200895E2E14A
:10327400BE2EE1E08E2EEB2DF0E03197E85FFF4F9C
:10328400DF01E0E00E94B6200895EB2DF0E03197D5
:10329400E85FFF4FBF01DF010E94AD200E2EA82D75
:1032A400B0E0A85FBF4F0E94AD20E00DDB010E949B
:1032B400B62008950E94B620E4E0BE2EE1E08E2EF2
:1032C400EB2DF0E031970895E65EFF4FDF01E0E07B
:1032D4000E94B6200895EB2DF0E03197E65EFF4F93
:1032E400BF01DF010E94AD200E2EA82DB0E0A65E26
:1032F400BF4F0E94AD20E00DDB010E94B62008956F
:10330400EA5AFF4FDF01E0E00E94B6200895EB2D5A
:10331400F0E03197EA5AFF4FBF01DF010E94AD2070
:103324000E2EA82DB0E0AA5ABF4F0E94AD20E00D8A
:10333400DB010E94B6200895E75CFF4FDF01E0E067
:103344000E94B6200895EB2DF0E03197E75CFF4F23
:10335400BF01DF010E94AD200E2EA82DB0E0A75CB6
:10336400BF4F0E94AD20E00DDB010E94B6200895FE
:10337400EA58FF4FDF01E0E00E94B6200895EB2DEC
:10338400F0E03197EA58FF4FBF01DF010E94AD2002
:103394000E2EA82DB0E0AA58BF4F0E94AD20E00D1C
:1033A400DB010E94B6200895EBE1BE2EE1E08E2EF3
:1033B400EB2DF0E03197E25EFF4FDF01E0E00E9489
:1033C400B6200895EB2DF0E03197E25EFF4FBF0188
:1033D400DF010E94AD200E2EA82DB0E0A25EBF4FEB
:1033E4000E94AD20E00DDB010E94B6200895E3E0C9
:1033F400BE2EE1E08E2EEB2DF0E03197E15CFF4F25
:10340400DF01E0E00E94B6200895EB2DF0E0319753
:10341400E15CFF4FBF01DF010E94AD200E2EA82DFD
:10342400B0E0A15CBF4F0E94AD20E00DDB010E9423
:10343400B6200895EE5BFF4FDF01E0E00E94B62066
:103444000895EB2DF0E03197EE5BFF4FBF01DF01F4
:103454000E94AD200E2EA82DB0E0AE5BBF4F0E949F
:10346400AD20E00DDB010E94B6200895ECE0BE2EF5
:10347400E1E08E2EEB2DF0E03197E65BFF4FDF01AC
:10348400E0E00E94B6200895EB2DF0E03197E65B72
:10349400FF4FBF01DF010E94AD200E2EA82DB0E02A
:1034A400A65BBF4F0E94AD20E00DDB010E94B62059
:1034B4000895EAE0BE2EE1E08E2EEB2DF0E0319788
:1034C400E65AFF4FDF01E0E00E94B6200895EB2D9D
:1034D400F0E03197E65AFF4FBF01DF010E94AD20B3
:1034E4000E2EA82DB0E0A65ABF4F0E94AD20E00DCD
:1034F400DB010E94B6200895E6E0BE2EE1E08E2EA8
:10350400EB2DF0E031970895E659FF4FDF01E0E03D
:103514000E94B6200895EB2DF0E03197E659FF4F55
:10352400BF01DF010E94AD200E2EA82DB0E0A659E8
:10353400BF4F0E94AD20E00DDB010E94B62008952C
:10354400E059FF4FDF01E0E00E94B6200895EB2D23
:10355400F0E03197E059FF4FBF01DF010E94AD2039
:103564000E2EA82DB0E0A059BF4F0E94AD20E00D53
:10357400DB010E94B6200895EA5BFF4FDF01E0E023
:103584000E94B6200895EB2DF0E03197EA5BFF4FDF
:10359400BF01DF010E94AD200E2EA82DB0E0AA5B72
:1035A400BF4F0E94AD20E00DDB010E94B6200895BC
:1035B400EC59FF4FDF01E0E00E94B6200895EB2DA7
:1035C400F0E03197EC59FF4FBF01DF010E94AD20BD
:1035D4000E2EA82DB0E0AC59BF4F0E94AD20E00DD7
:1035E400DB010E94B62008950A921A92FA926A9315
:1035F4007A938A939A93AA93BA93EA93FA93EFB736
:10360400EA930895EFEFE0938230E1E03E2E0895CF
:10361400E0938230E2E03E2EEFEFE0930030089535
:103624003E2EEFEFE09300300895EFEFE09300308B
:10363400222408950E94AD20AE2F0C949009BB243F
:10364400EFEFE09382300895E4E0BE2EE1E08E2EA9
:10365400EB2DF0E031970895AAEC0E949009AAECB2
:103664000C9490090E949009CDCFE82DF0E0E05031
:10367400F04DE081AE0E0895EEE2F0E3FA93EA93A2
:103684000895E3E8F0E3FA93EA930895FA93EA934A
:10369400E2E0EA930895FA93EA93A2E00E94B21753
:1036A400F0CFE0E0F0E0FA93EA93A0E00C94B217D4
:1036B400FA93EA93E1E0EA930895FA93EA93A1E096
:1036C4000E94B217DECFF0E0EA0FFB1F0E94CA1F70
:1036D4000895E093AF30F093B0306093B1307093BD
:1036E400B2300895E091AF30F091B0306091B130D4
:1036F4007091B23008950E94CA1F0E944C1F089511
:103704000E94D91FDF01CB01EFE00E949B1F0895A7
:10371400E093B330F093B4306093B5307093B63027
:103724000895A091B330B091B4308091B5309091A8
:10373400B6300895E093B730F093B8306093B93061
:103744007093BA30EEDF0E944C1F0895E091BB30B5
:10375400F091BC306091BD307091BE300895E0E0CE
:10376400F0E060E271E40895E091C330F091C43078
:103774006091C5307091C6300895A091C330B09166
:10378400C4308091C5309091C6300E94F91F0895CD
:103794000E94CF1F0E94F91FDF01CB0108950E94F0
:1037A4008F1FB6DFE1CFE093C730F093C83060934A
:1037B400C9307093CA300895E091C730F091C83091
:1037C4006091C9307091CA300895EE5FFF4F6F4F1A
:1037D4007F4F0E94AE1F0E94AE1F08950E94F91FE2
:1037E4000E94BD1F0895A091CF30B091D030809138
:1037F400D1309091D2300895E091D730F091D83003
:103804006091D9307091DA300895A091D330B0919D
:10381400D4308091D5309091D630E8E00E948F1F4B
:103824000895E091D330F091D4306091D530709107
:10383400D6300895A091D330B091D4308091D53052
:103844009091D6300895E0E2EA93ECE0EA93E0E167
:10385400EA93A0E40C94490F0E94A71FEA0FFB1FF0
:103864008F01D801EC91E068EC930895E091E407AE
:10387400ED7FE093E4070895E091E407E260E093CC
:10388400E4070895E72DA6E2B0E3F0E0EE0FFF1F92
:103894000895AE0FBF1FE0E0F0E0ED93FC930895B0
:1038A400E72DAEE1B0E3F0E0EE0FFF1F0895AE0F99
:1038B400BF1F0E947D200895DF01EAE0F0E00E942E
:1038C4001120E659F040DB01ED93FC930895FA933F
:1038D400EA9380E00E94801624960E94BA09A8EC1C
:1038E400B0E00C94951DA2E3B0E00E94951DE1E0C8
:1038F4000895E0912031EF73E0932031E09120317D
:1039040008950E94962088E00E9480162C960C94BC
:10391400BA09A091BF30B091C0308091C13090916C
:10392400C230089587DFEAE0F0E060E070E00E94D2
:1039340049200895FF27662777270E94962084E070
:103944000E94801628960C94BA090E947D20319614
:10395400ED93FC930895BA93AA932497E0E0E88347
:10396400E9830895AC81BD818E819F81F8DE0E9438
:10397400951EEC83FD836E837F830895EC81FD8126
:103984006E817F81AC85BD858E859F850E94281FB1
:103994000895AC85BD858E859F850895EDECFCEC7E
:1039A4006CEC7DE30E94951EEC87FD876E877F8714
:1039B4003F5F0895D4DE0E94951E0895EC87FD872D
:1039C4006E877F870895A0E0B0E080E09FE30E94C7
:1039D400451E0895EDECFCEC6CEC7DE30E94951E15
:1039E4000895A885B9851196A887B9871197089570
:1039F400E02FE05DEC93E02F08950E94A0200E9448
:103A04003E1E0895E885F9853196E887F98708957B
:103A14002A93AF81B885E985FA8509950895FE0151
:103A2400E65AFF4F0190F081E02D08953497DE01AE
:103A3400A65ABF4FED93FC930895AF81B885E985ED
:103A4400FA8509950895DE01A65ABF4F0D90BC91E1
:103A5400A02D0895EA87FB876C877D870895DFDFB3
:103A6400E5CFEA85FB856C857D850895EE87FF8724
:103A7400AE85BF850E94D1161E2F0895E4DF1496EB
:103A84000E947D200895E88BF98B6A8B7B8B0895C7
:103A94000B7FED89EA93DE01A95ABF4F0D90BC91CB
:103AA400A02DFE01E75AFF4F0190F081E02D09950A
:103AB40050300895E889F9896A897B89AA85BB858C
:103AC4008C859D850895DE011C960E94481F0E94E6
:103AD4007D200895EE81FF81FA93EA930895E987A2
:103AE400FA876B877C870895AE81BF811196AE8378
:103AF400BF8311970895AA81BB818C819D8108950C
:103B0400EA83FB836C837D830895EA81FB816C8166
:103B14007D81A985BA858B859C850895A985BA85FB
:103B24008B859C850895109639F080E49FE1019778
:103B3400F1F7A8951197C9F7089530976040704040
:103B440009F070580895552342F4503811F4E0FFF9
:103B540004C03196691F791F6BF050E8572711F4A0
:103B64005F93CFC05F3F31F0660F000C57956795A8
:103B7400752F08955F9300200AF0CFC0C8C050E8A5
:103B8400192E1522880F991F9527550F879550E8F0
:103B9400072E0522660F771F7527550F6795089521
:103BA400689401C0E8945F93F2DF703818F07F3FA7
:103BB40008F4A7C056E1571BAAF4519558300EF4E7
:103BC400593030F0EFEFFFEF6FEF7FE777F91AC06E
:103BD40077275523B9F0EE0FFF1F661F771F5A95FD
:103BE400D1F710C07727583028F0EF2FF62F672F22
:103BF4005850F9CF552331F076956795F795E795A9
:103C04005A95D1F700200AF459D15F910895689428
:103C140001C0E894309760407040B1F0002426F071
:103C2400772312F400944AD1172E7EE1112032F04A
:103C34007A95EE0FFF1F661F111CF9CFEF2FF62F99
:103C4400612D5F938ADF5F9108954F93AF01FD016A
:103C5400DA01AB01BC01CA01402D012C142E4F9195
:103C64000895EA0FFB1F681F0895E095F09560958D
:103C7400EF5FFF4F6F4F08955F9381DF903871F1CD
:103C840050E8152604C05F937ADF903839F1703814
:103C940021F1572F591B2BF112F4D7DFFACF5831EA
:103CA40018F0AA27BB278827583028F0AB2FB82F45
:103CB40088275850F9CF552329F08695B795A795AD
:103CC4005A95D9F7502D512572F0CBDF38F467950A
:103CD400F795E795739513F420C0B7DF3EDF5F9146
:103CE4000895D8F7FBCFEA1BFB0B680B51F010F4D7
:103CF4000094BBDF662392F3EE0FFF1F661F7A95D5
:103D0400CBF7EE27FF27662777275F910895EFEF1C
:103D1400FFEF6FE77FEF5F910895EFEFFFEF6FE73E
:103D24007FE75F9108955F932ADF703851F39038ED
:103D340041F301240894791F23F41CF300203AF37F
:103D4400ECCF0F921F932F933F934F93112722276A
:103D54009927689FA0018F9F302D410D591F6B9F9C
:103D6400300D411D591F8E9F27D0BF9F25D06A9FBC
:103D740023D0BE9F1DD0AF9F1BD0AE9F110D291F16
:103D8400391F491F591FE32FF42F652F522F4F91CD
:103D94003F912F911F910F9066232AF0550FEE1F2C
:103DA400FF1F661F02C073954BF2CDDE5F9108952D
:103DB400100D211D391F02C0200D311D491F591F2F
:103DC40008955F93DCDE703821F411200AF49FCF4C
:103DD400A4CF903809F495CF01240894970B1BF4D1
:103DE400D4F30020F3CF792F1F932F933F934F9356
:103DF40011241127222733274427552790E2AE1791
:103E0400BF078607410730F0AE1BBF0B860B410B83
:103E1400089401C08894551F221F331F111CAA1F28
:103E2400BB1F881F441F9A9551F7F901612D4F91CB
:103E34003F912F911F91662332F0550FEE1FFF1F04
:103E4400661F7A9543F27FDE5F91089599239AF075
:103E5400772342F0971748F029F4AE17BF07860777
:103E640020F031F0989488940895989408940895D3
:103E74001894889408957723C2F7971798F3A9F7AD
:103E8400EA17FB07680788F399F3ECCF0024AF0D1A
:103E9400B01D0895EA0FFB1F681F791F0895AE0F28
:103EA400BF1F861F971F0895EA1BFB0B680B790B36
:103EB4000895AE1BBF0B860B970B0895F095609584
:103EC4007095E195FF4F6F4F7F4F0895EE230E2EAF
:103ED400FD0121F0EE0FFF1F0A94E1F70895EE2390
:103EE4000E2EFD0121F0F595E7950A94E1F708956A
:103EF400EE230E2EFD0121F0F695E7950A94E1F7E5
:103F04000895EE230E2EFD01BC0131F0EE0FFF1FCC
:103F1400661F771F0A94D1F70895EE230E2EFD0134
:103F2400BC0131F075956795F795E7950A94D1F73B
:103F34000895EE230E2EFD01BC0131F076956795B0
:103F4400F795E7950A94D1F70895EE0FFF1FEE0F4A
:103F5400FF1FEE0FFF1F089575956795F795E79579
:103F64000895EE0FFF1F661F771F0895EF2FFF2799
:103F7400E7FDFFEF0895E62FF72F6627F7FD6FEFB4
:103F8400762F0895FE2FFF0FFF0B6F2F7F2F0895BD
:103F94006F2F660F660B762F08958B2F880F880B73
:103FA400982F0895EA17E1E009F0EE2708957A9F23
:103FB400702D6B9F700DF89F700DE99F700D6A9FB7
:103FC400602D710DFB9F600D711DE89F600D711DCB
:103FD4008827FA9FF02D610D781FEB9FF00D611D6E
:103FE400781FEA9FE02DF10D681F781F089570D0A7
:103FF400DEDF0EF463DF0895002498E0AA0F001CAE
:104004000E1A10F40E0E01C0A1609A95B9F7EA2FAA
:10401400A02D089551D0F0DF0EF4E1950895002409
:10402400112490E1AA0FBB1F001C111C0E1A1F0AB9
:1040340018F40E0E1F1E01C0A1609A9599F7FD0198
:10404400D00108953F934F935F9300241124442794
:10405400552730E2AA0FBB1F881F991F001C111C93
:10406400441F551F0E1A1F0A460B570B28F40E0E39
:104074001F1E461F571F01C0A1603A9559F7FD0145
:10408400BC01D001CA015F914F913F91089520D0A6
:10409400D9DF0EF413DF0895E894A7FF02C0A195B9
:1040A4006894E7FDE195A8DFEA2F0EF4E195089501
:1040B400C9DFFD01BC010895E894E7FF02C0E19562
:1040C4006894A7FF04C0A19500F8039400FA08952A
:1040D400E89477FF02C0F2DE689497FF0BC00024D7
:1040E400A095B095809590951196801D901D00F82F
:1040F400039400FA0895ED91FC9111970895ED91C0
:10410400FD916D917C9113970895E881F9816A81FD
:104114007B810895A881B9818A819B810895E88370
:10412400F9836A837B8308957A936A93FA93EA9373
:1041340008959A938A93BA93AA930895182E862F72
:10414400612D192E972F712D1B2EBF2FF12D1A2E95
:10415400AE2FE12D0895A895E091CF01E7FDFBCFA7
:10416400B05FEC91B051089523D0B05F8C918E175D
:1041740011F4B05108959E2F1BD07F937FB7F8940C
:104184009C93B051A093C001B093C10180E080938F
:10419400C20185E38093CA0188ED91E084BF9093C6
:1041A400CB0106D080E08093CA017FBF7F91089540
:1041B400A8958091CF0187FDFBCF0895309760408B
:1041C400704008955A934A933A932A931A930A9300
:1041D40008955D814C813B812A811981088108956C
:00000001FF
