:0A0000000C9489010C9400000C948C
:10000A0000000C9400000C9400000C9400000C9466
:10001A0000000C9400000C9400000C9400000C9456
:10002A0000000C94070B0C9400000C9400000C9434
:10003A0088100C9400000C9400000C9400000C949E
:10004A0000000C9400000C949A100C9400000C947C
:10005A0000000C9400000C9400000C9400060C9410
:10006A0000000C9400000C9400000C9400000C9406
:10007A0000000C9400000C9400000C9400000C94F6
:10008A0000000C9400000C9400000C9400000C94E6
:10009A0000000C9400000C9400000C9400000C94D6
:1000AA0000000C9400000C9400000C9400000C94C6
:1000BA00E80A0C9400000C9400000C9400000C94C4
:1000CA0000000C9400000C9400000C9400000C94A6
:1000DA0000000C9400000C9400000C9400000C9496
:1000EA0000000C9400000C9400000C9400000C9486
:1000FA0000000C9400000C9400000C9400000C9476
:10010A0000000C9400000C9400000C9400000C9465
:10011A0000000C9400000C9400000C9400000C9455
:10012A0000000C9400000C9400000C9464110C94D0
:10013A0000000C9400000C9400000C9400000C9435
:10014A0000000C9400000C9400000C9400000C9425
:10015A0000000C9400000C9400000C9400000C9415
:10016A0000000C9400000C9400000C9400000C9405
:10017A0000000C9400000C9400000C9400000C94F5
:10018A0000000C9400000C9400000C9400000C94E5
:10019A0000000C9400000C9400000C9400000C94D5
:1001AA0000000C9400000C9400000C9400000C94C5
:1001BA0000000C9400000C9400000C9400000C94B5
:1001CA0000000C9400000C9400000C9400000C94A5
:1001DA0000000C9400000C9400000C940000FF0036
:1001EA000000000000000000000000000100000004
:1001FA0001000000B207000080DE28008033E10120
:10020A00000000001F0000001C0000001F0000008A
:10021A001E0000001F0000001E0000001F0000005A
:10022A001F0000001E0000001F0000001E0000004A
:10023A001F000000000000001F0000001C0000005A
:10024A001F0000001E0000001F0000001E0000002A
:10025A001F0000001F0000001E0000001F00000019
:10026A001E0000001F00000001000100737461728B
:10027A0074206465766963650073746172742069B9
:10028A003263006275662069326320737461727426
:10029A00206F6B00626D7020693263207374617223
:1002AA0074206F6B005350492053544152540061DB
:1002BA006437373035207374617274206F6B005362
:1002CA0054415254205748494C4500424D50205001
:1002DA003D25662C543D25362E3366002D4E414E63
:1002EA00000001002D4E414E00494E46000001001B
:1002FA008230E8010100AD3072020100343174022B
:10030A0001003731EC020000F894EE27F091CC019D
:10031A00F860F093CC01F8EDF4BFE093A200A0914D
:10032A008000AD7FA160F4BFA093800080E090E4DC
:10033A00A0E0B0E2ED930197E9F7E8EFF2E08591EA
:10034A009591009761F0A591B59105901590BF011F
:10035A00F00105900D920197E1F7FB01F0CF8BBFF9
:10036A008CBFE0E0E0B9E1B9E2B9E3B9E4B9E5B9D3
:10037A00E6B9E7B9E8B9E9B9EAB9EBB9ECB9EDB95F
:10038A00EEB9EFB92E2EE1E03E2EE0E04E2E5E2EC3
:10039A006E2E7E2E8E2E9E2EAE2EBE2ECE2EDE2EB3
:1003AA00EFEFEDBFEFE5EEBFC0E0D0E30C946511CF
:1003BA001A930A93E091E407EE7FE093E40710E0D2
:1003CA0000E0163188F4103031F0E12FF0E0E45B00
:1003DA00FF4CE0810E0FE12FF0E0E45BFF4CA081BF
:1003EA000E9485091F5FEDCF00936230A0916230B1
:1003FA000E948509E091E407E160E093E40709912E
:10040A00199108950E94FC1811F5A2E0B0E0E0EA03
:10041A000E948320A3E0B0E0E0E30E948320A4E0EE
:10042A00B0E0E3E30E948320A5E0B0E0E5E30E94A8
:10043A008320A6E0B0E00E9402190E940D190E94D2
:10044A00141924F40E941C198394F9CFBB240E9426
:10045A00FC1809F058C0A8E0B0E0EFEA0E94832037
:10046A00A9E0B0E0E1E00E948320AAE0B0E0E3E680
:10047A000E948320ABE0B0E0E0E60E948320ACE07B
:10048A00B0E0E4E60E948320ADE0B0E0E0E00E9444
:10049A008320AEE0B0E00E948320AFE0B0E00E948B
:1004AA008320A0E1B0E00E948320A1E1B0E00E9495
:1004BA008320A2E1B0E00E948320A3E1B0E00E9481
:1004CA008320A4E1B0E0E8E90E948320A5E1B0E03E
:1004DA00EAE30E948320A6E1B0E0ECED0E948320CB
:1004EA00A7E1B0E0E5E00E948320A8E1B0E00E9425
:1004FA0083200E9431190E94141924F40E943F1982
:10050A008394F9CFBB240E94FC18C9F4AAE1B0E095
:10051A00EAEA0E948320ABE1B0E0E0E60E94832091
:10052A00ACE1B0E0EAEE0E9454190E945E190E9402
:10053A00141924F40E9465198394F9CFBB240E94EC
:10054A00FC18C9F4A6E5B0E0E2EA0E948320A7E518
:10055A00B0E0E1E00E948320A8E5B0E0E0E00E947C
:10056A0054190E947A190E94141924F40E948119BC
:10057A008394F9CFBB240E94FC1811F5A9E3B0E0DB
:10058A00EDEA0E948320AAE3B0E0EAE50E94832014
:10059A00ABE3B0E0E0E00E948320ACE3B0E0EAE540
:1005AA000E948320ADE3B0E00E9402190E949619CE
:1005BA000E94141924F40E949D198394F9CFBB2434
:1005CA000E94FC1809F5A6E7B0E0E6EA0E9483203B
:1005DA00A7E7B0E0E0E00E948320A8E7B0E00E942D
:1005EA008320A9E7B0E0E1E00E948320AAE7B0E017
:1005FA000E9402190E94B2190E94141924F40E943E
:10060A00B9198394F9CFBB240E94FC1809F08CC055
:10061A00AEE1B0E0E1EA0E948320AFE1B0E0E3E5B9
:10062A000E948320A0E2B0E0E5E70E948320A1E2D5
:10063A00B0E0EEE60E948320A2E2B0E0E0E20E948F
:10064A008320A3E2B0E0E3E50E948320A4E2B0E0C5
:10065A00E5E60E948320A5E2B0E0E0E70E9483205D
:10066A00A6E2B0E0E0E20E948320A7E2B0E0E2E383
:10067A000E948320A8E2B0E0E1E30E948320A9E27D
:10068A00B0E0E0E20E948320AAE2B0E0E2E30E9446
:10069A008320ABE2B0E0E3E30E948320ACE2B0E067
:1006AA00EAE30E948320ADE2B0E0E3E30E94832004
:1006BA00AEE2B0E0E6E30E948320AFE2B0E0EAE314
:1006CA000E948320A0E3B0E0E2E30E948320A1E33A
:1006DA00B0E0E4E30E948320A2E3B0E0E0E20E94FB
:1006EA008320A3E3B0E0E2E30E948320A4E3B0E026
:1006FA00E0E30E948320A5E3B0E0E1E30E948320C7
:10070A00A6E3B0E0E4E30E948320A7E3B0E0E0E0E0
:10071A000E9483200E94CE190E94141924F40E9478
:10072A00DC198394F9CFBB240E94FC18A1F4AFE32F
:10073A00B0E0E7EA0E948320A0E4B0E0E2E40E948D
:10074A0083200E94F1190E94141924F40E94FF19AF
:10075A008394F9CFBB240E94FC18C9F4A2E4B0E048
:10076A00E7E70E948320A3E4B0E0E0E00E94832050
:10077A00A4E4B0E0ECEF0E9454190E94141A0E94FB
:10078A00141924F40E941B1A8394F9CFBB240E94E3
:10079A00FC1809F041C0AAE4B0E0EBEA0E94832009
:1007AA00ABE4B0E0E5E70E948320ACE4B0E0EEE61B
:1007BA000E948320ADE4B0E0E7E30E948320AEE428
:1007CA00B0E0E0E30E948320AFE4B0E0E2E30E94FD
:1007DA008320A0E5B0E0E2E60E948320A1E5B0E034
:1007EA00EEE00E948320A2E5B0E0E4E00E948320CC
:1007FA00A3E5B0E0E4E10E948320A4E5B0E0EEE0E6
:10080A000E9483200E94301A0E94141924F40E9424
:10081A003E1A8394F9CFBB240E94FC1881F5AAE5FD
:10082A00B0E0EEEA0E948320ABE5B0E0EFEF0E9471
:10083A008320ACE5B0E00E948320ADE5B0E00E94E1
:10084A008320AEE5B0E00E948320AFE5B0E00E94CD
:10085A008320A0E6B0E00E948320A1E6B0E00E94D7
:10086A008320A2E6B0E00E9483200E94531A0E94CD
:10087A00141924F40E94611A8394F9CFBB240E94AC
:10088A00FC1829F5AAE6B0E0E4EA0E948320ABE668
:10089A00B0E0E0E00E948320ACE6B0E0ECEF0E941A
:1008AA008320ADE6B0E0E8E60E948320AEE6B0E041
:1008BA00E7EF0E9483200E94761A0E947E1A0E9405
:1008CA00141924F40E94851A8394F9CFBB240E9438
:1008DA00FC1809F5A0E7B0E0E8E50E948320A1E74B
:1008EA00B0E0E0E00E948320A2E7B0E00E9483200B
:1008FA00A3E7B0E0E1E00E948320A4E7B0E00E9411
:10090A0002190E949A1A0E94141924F40E94A11A28
:10091A008394F9CFBB240E94FC18C1F4A6E4B0E08A
:10092A00E6E70E948320A7E4B0E0EFEF0E9483206D
:10093A00A8E4B0E00E9454190E94B61A0E94141941
:10094A0024F40E94BD1A8394F9CFBB240E94FC1898
:10095A0001F5A4E6B0E0EAE60E948320A5E6B0E04D
:10096A00E0E00E948320A6E6B0E00E948320A7E68A
:10097A00B0E00E948320A8E6B0E00E9402190E941B
:10098A00D21A0E94141924F40E94D91A8394F9CF16
:10099A00BB240895E5EAE0934C30E0E4E0934D305F
:1009AA00EFE1E0934E30E8E7E0934F30E0E0E09388
:1009BA005030EBEBE0935130EBE0E0935230E0E063
:1009CA00E0935330EFEFE0935430E0E0E09355309A
:1009DA00E8E0E0935630EDEAE0935730EDE0E0933B
:1009EA005830ECEAE0935930EDE0E0935A30E0E118
:1009FA00E0935B30E7E2E0935C30E0E0E0935D3067
:100A0A00E4E0E0935E30E0E0E0935F30E6E0E0931C
:100A1A006030E0E0E09361300895E0E0E09304069E
:100A2A00E0930006E0931006E0931106E0931206A5
:100A3A00E0931306E0931406E0931506E093160676
:100A4A00E0931706E0910906E07FE0930906E0E0EB
:100A5A00E0930A06E0930B06E0932406E09320064F
:100A6A00E0933006E0933106E0933206E0933306D2
:100A7A00E0933406E0933506E0933606E0933706B2
:100A8A00E0912906E07FE0932906E0E0E0932A0658
:100A9A00E0932B06E8E1E0934406E8EBE093400696
:100AAA00E0E0E0935006E0935106E0935206E093AB
:100ABA005306E0935406E0935506E0935606E093F6
:100ACA005706E0914906E07FE0934906E0E0E093AB
:100ADA004A06E0934B06E0E8E0936406E09360067A
:100AEA00E0E0E0937006E0937106E0937206E0930B
:100AFA007306E0937406E0937506E0937606E09336
:100B0A007706E0916906E07FE0936906E0E0E0930A
:100B1A006A06E0936B06E0938406E0938006E09110
:100B2A008006E061E0938006E0E0E0939006E093BF
:100B3A009106E0E1E0939206E0E0E0939306E09309
:100B4A009406E0939506E0939606E0939706E09163
:100B5A008906E07FE0938906E0E0E0938A06E09365
:100B6A008B06E093A406E093A006E093B006E09318
:100B7A00B106E093B206E093B306E093B406E093BD
:100B8A00B606E093B706E091A906E07FE093A906CE
:100B9A00E0E0E093AA06E093AB06EFE0E093E40717
:100BAA00E093E007E0E0E093F007E093F107E091DB
:100BBA00E907E07FE093E907E0E0E093EA07E093E2
:100BCA00EB070895E8E0E0934506E3E0E093A50823
:100BDA00E091A308E07CE063E093A308E5EFE093EB
:100BEA00A608ECECE093A708E091A408E07EE8618F
:100BFA00E093A40808950E94EE1AD090A108C0902C
:100C0A00A008ED2DEC7131F4E22DF0E0E050F04D4A
:100C1A00C0822394E0918230F0E0EF3FA0E0FA072F
:100C2A0009F032C2E0910030F0E0EF3FA0E0FA07AD
:100C3A0031F40E94FC1AEFEFE093003023C2EA3C41
:100C4A00A0E0FA0721F4EAEC0E94021B1BC2E53F6E
:100C5A00A0E0FA0721F4E5EF0E94021B13C2E53B6C
:100C6A00A0E0FA0739F4E5EBE0938230E4E00E9471
:100C7A000A1B08C2EA3EA0E0FA0721F4EAEE0E9443
:100C8A00021B00C2E53EA0E0FA0739F4E5EEE09364
:100C9A008230E7E00E940A1BF5C1E73EA0E0FA07AE
:100CAA0039F4E7EEE0938230E7E00E940A1BEAC1DA
:100CBA00E036A0E0FA0721F4E0E60E94021BE2C156
:100CCA00E83EA0E0FA0739F4E8EEE0938230E3E088
:100CDA000E940A1BD7C1E93EA0E0FA0739F4E9EEFF
:100CEA00E0938230E3E00E940A1BCCC1E03AA0E024
:100CFA00FA07D9F40E940F1B0E94761A0E940D1956
:100D0A000E94141924F40E941C198394F9CF882490
:100D1A008B1440F4A82DB0E0AE5FBF4F0E94141BA5
:100D2A008394F6CF0E94191BADC1E13AA0E0FA07FD
:100D3A00C9F40E940F1B0E94CE190E94141924F4B0
:100D4A000E94DC198394F9CF88248B1440F4A82DCF
:100D5A00B0E0A25EBF4F0E94141B8394F6CF0E949C
:100D6A00191B91C1E23AA0E0FA07D9F40E940F1BBD
:100D7A000E941E1B0E947A190E94141924F40E94D0
:100D8A0081198394F9CF88248B1440F4A82DB0E0FC
:100D9A00AA5ABF4F0E94141B8394F6CF0E94191BB4
:100DAA0072C1E43AA0E0FA07D9F40E940F1B0E942C
:100DBA00761A0E947E1A0E94141924F40E94851A37
:100DCA008394F9CF88248B1440F4A82DB0E0A65957
:100DDA00BF4F0E94141B8394F6CF0E94191B53C164
:100DEA00E63AA0E0FA07D9F40E940F1B0E94761A8D
:100DFA000E94B2190E94141924F40E94B91983940A
:100E0A00F9CF88248B1440F4A82DB0E0AA58BF4F1C
:100E1A000E94141B8394F6CF0E94191B34C1E73A2F
:100E2A00A0E0FA07C9F40E940F1B0E94F1190E9460
:100E3A00141924F40E94FF198394F9CF88248B147F
:100E4A0040F4A82DB0E0A15CBF4F0E94141B83940C
:100E5A00F6CF0E94191B17C1EA3AA0E0FA07D9F4A3
:100E6A000E940F1B0E941E1B0E945E190E941419E9
:100E7A0024F40E9465198394F9CF88248B1440F4D2
:100E8A00A82DB0E0A65EBF4F0E94141B8394F6CF34
:100E9A000E94191BF8C0EB3AA0E0FA07C9F40E94B5
:100EAA000F1B0E94301A0E94141924F40E943E1A41
:100EBA008394F9CF88248B1440F4A82DB0E0A65B64
:100ECA00BF4F0E94141B8394F6CF0E94191BDBC0EC
:100EDA00ED3AA0E0FA07D9F40E940F1B0E94761A95
:100EEA000E9496190E94141924F40E949D19839451
:100EFA00F9CF88248B1440F4A82DB0E0A75CBF4F2B
:100F0A000E94141B8394F6CF0E94191BBCC0EE3AB0
:100F1A00A0E0FA07C9F40E940F1B0E94531A0E940C
:100F2A00141924F40E94611A8394F9CF88248B142B
:100F3A0040F4A82DB0E0A65ABF4F0E94141B839418
:100F4A00F6CF0E94191B9FC0EF3AA0E0FA07C9F436
:100F5A000E940F1B0E9431190E94141924F40E9446
:100F6A003F198394F9CF88248B1440F4A82DB0E05C
:100F7A00A85FBF4F0E94141B8394F6CF0E94191BCF
:100F8A0082C0E835A0E0FA07D9F40E940F1B0E943C
:100F9A00761A0E949A1A0E94141924F40E94A11A1D
:100FAA008394F9CF88248B1440F4A82DB0E0A0597B
:100FBA00BF4F0E94141B8394F6CF0E94191B63C073
:100FCA00EA36A0E0FA07D9F40E940F1B0E94761AAB
:100FDA000E94D21A0E94141924F40E94D91A8394E6
:100FEA00F9CF88248B1440F4A82DB0E0AC59BF4F38
:100FFA000E94141B8394F6CF0E94191B44C0E63743
:10100A00A0E0FA07D9F40E940F1B0E941E1B0E943F
:10101A00B61A0E94141924F40E94BD1A8394F9CFB7
:10102A0088248B1440F4A82DB0E0AA5BBF4F0E941D
:10103A00141B8394F6CF0E94191B25C0E737A0E042
:10104A00FA07D9F40E940F1B0E941E1B0E94141A51
:10105A000E94141924F40E941B1A8394F9CF88243D
:10106A008B1440F4A82DB0E0AE5BBF4F0E94141B56
:10107A008394F6CF0E94191B06C0EFEFE09300306D
:10108A000E94FC1A222404C0EA3CA0E0FA0739F5BF
:10109A00E2E0E21519F5A0910030A13021F4A09107
:1010AA000130A13009F003C00E94261B11C0A09193
:1010BA000030AF3021F4A0910130AF3009F008C000
:1010CA000E94261B0E94FC1AE1E0E093813005C0D1
:1010DA00EFEFE0938230E1E03E2E222410C1E53F9B
:1010EA00A0E0FA0711F5E2E0E215F1F4A091003070
:1010FA00AF3521F4A0910130AF3509F012C0A5EF48
:10110A00FFD0A5EFFDD0A5EF0E942C1B2224A5E05D
:10111A00B0E00E94741DE8EDE4BFE1E0E0937900DD
:10112A0003C00E94FC1A2224EAC0E53BA0E0FA07A9
:10113A00F1F4E4E0E215D1F48824AA24E3E08E165F
:10114A0020F40E942F1B8394F9CFA0910330AA1692
:10115A0051F490900030A5EBD3D0A5EB0E942C1B44
:10116A002224AA2403C00E94FC1A2224C8C0EA3EF0
:10117A00A0E0FA07E1F4E2E0E215C1F48824AA2427
:10118A00E1E08E1620F40E942F1B8394F9CFA091E0
:10119A000130AA1641F4AAEEB3D0AAEE0E942C1B83
:1011AA002224AA2403C00E94FC1A2224A8C0E036E2
:1011BA00A0E0FA07F1F4E2E0E215D1F48824AA24C7
:1011CA00E1E08E1620F40E942F1B8394F9CFA091A0
:1011DA000130AA1651F4A0E693D0A0E091D0A0E085
:1011EA000E942C1B2224AA2403C00E94FC1A222437
:1011FA0086C0E53EA0E0FA07E1F4E7E0E215C1F4B3
:10120A008824AA24E6E08E1620F40E942F1B8394D9
:10121A00F9CFA0910630AA1641F4A5EE71D0A5EE39
:10122A000E942C1B2224AA2403C00E94FC1A2224F6
:10123A0066C0E73EA0E0FA07E1F4E7E0E215C1F490
:10124A008824AA24E6E08E1620F40E942F1B839499
:10125A00F9CFA0910630AA1641F4A7EE51D0A7EE15
:10126A000E942C1B2224AA2403C00E94FC1A2224B6
:10127A0046C0E83EA0E0FA07E1F4E3E0E215C1F473
:10128A008824AA24E2E08E1620F40E942F1B83945D
:10129A00F9CFA0910230AA1641F4A8EE31D0A8EEF7
:1012AA000E942C1B2224AA2403C00E94FC1A222476
:1012BA0026C0E93EA0E0FA07E1F4E3E0E215C1F452
:1012CA008824AA24E2E08E1620F40E942F1B83941D
:1012DA00F9CFA0910230AA1641F4A9EE11D0A9EED5
:1012EA000E942C1B2224AA2403C00E94FC1A222436
:1012FA0006C0EFEFE09300300E94FC1A222474C16A
:10130A00AA93E091A108E072E1F3E881E093A008D2
:10131A0040C1E0E8E0936506E3E0E093B509E091B7
:10132A00B309E07CE093B309EEE6E093B609E8EA94
:10133A00E093B709E091B409E07EE860E093B4096C
:10134A000895AA93E091B109E072E1F3E881E0938C
:10135A00B0091FC11A9310E0AEE2B0E30E94C916A9
:10136A00A12FB0E0AE17BF0740F4E12FF0E0E25D35
:10137A00FF4CA081E6DF1F5FEFCF0E94361BE0E043
:10138A00EA93AEE1B0E00E94AC16AAE0DADFADE083
:10139A00D8DFEAC0BA93AA93A881B981EC91E07F19
:1013AA00EC931996ECE0EC93229608951A930A931B
:1013BA001FB7F894E0910008E07FE560E093000829
:1013CA00E0910108E870E0930108E0910308E071F8
:1013DA00E0930308E0910608E07FE160E0930608E5
:1013EA00E0910708E070E0930708E0919900EE7F2A
:1013FA000E2FE8EDE4BF00939900E0918008E07CAD
:10140A00E0938008E0918308E87EE0938308E0E0B7
:10141A00E0938208A4E8B8E00A2EAC91E09184082F
:10142A00E470EA2BA02DEC93E0910C08E0930C08F1
:10143A00E0E0F0E0E0932008F0932108E1E1FAE728
:10144A00E0932608F0932708E0E0F0E0E09328080C
:10145A00F0932908E0932A08F0932B08E0932C08CC
:10146A00F0932D08E0932E08F0932F081FBF0991DF
:10147A00199108951A931FB7F894A0E4B8E08ADF87
:10148A00E5E0E0934008E0E0E0934108E093430898
:10149A00E0934408E0914608E07FE160E093460863
:1014AA00E0E0E0934708E0919008ED7FE093900830
:1014BA00E0914C08E0934C08E0E0F0E0E09360082B
:1014CA00F0936108E7EAF1E6E0936608F0936708AB
:1014DA00E0E0F0E0E0936808F0936908E0936A08B6
:1014EA00F0936B0840C01A931FB7F894E091000973
:1014FA00E07FE160E0930009E0910109E870E09380
:10150A000109E0910309E071E0930309E0910609FA
:10151A00E07FE160E0930609E0910709E070E0935B
:10152A000709E0910C09E0930C09E0E0F0E0E09390
:10153A002009F0932109EFE3F6EAE0932609F093F4
:10154A002709E0E0F0E0E0932809F0932909E09305
:10155A002A09F0932B09E0932C09F0932D09E093C3
:10156A002E09F0932F091FBF19910895E3E5E0931F
:10157A00C008E091C108EC7FE093C1080895AA93DE
:10158A00E881E093C308E091C208E078E1F3E091D2
:10159A00C30821960895E0EAF4E0FA93EA93E0E0BA
:1015AA00EA93A0E00E94E2160E943B1BE0EAF4E004
:1015BA00FA93EA93E0E4EA93ABE90E94F716E0E0D3
:1015CA00E093A80408950A921A92FA926A937A9377
:1015DA008A939A93AA93BA93EA93FA93EFB7EA9300
:1015EA00A3E8B0E30E942217E991EFBFF991E991CC
:1015FA00B991A9919991899179916991F9901990E3
:10160A00099018951895E6EFE0931031E7EFE0930B
:10161A001131E4EFE0930E31EEE2E0930F31E6EFA1
:10162A00E0931631E7EFE0931731E8EFE0931831D2
:10163A00E4EFE0931431E091AD30E295E07FEE0FF4
:10164A00EE0FEC5CE0931531EAEAE093E230EBEA64
:10165A00E093E330ECEAE093E430EDEAE093E5303E
:10166A00EEEAE093E630EFEAE093E730E0EBE0936E
:10167A00E830E1EBE093E930E2EBE093EA30E3EBC8
:10168A00E093EB30E4EBE093EC30E5EBE093ED3004
:10169A00E6EBE093EE30E7EBE093EF30E8EBE09334
:1016AA00F030E9EBE093F130EAEBE093F230EBEB68
:1016BA00E093F330ECEBE093F430EDEBE093F530AC
:1016CA00EEEBE093F630EFEBE093F73008959BDF13
:1016DA000E943B1BE7E7EA93E2EEF0E30E94401B1D
:1016EA00E8EFF0E30E94451BE7E7EA93E4EEF0E354
:1016FA000E94401BEAEFF0E30E94451BE7E7EA93EA
:10170A00E6EEF0E30E94401BECEFF0E30E94451B7B
:10171A00E7E7EA93E8EEF0E30E94401BEEEFF0E31E
:10172A000E94451BE7E7EA93EAEEF0E30E94401BBA
:10173A00E0E0F1E30E94451BE7E7EA93ECEEF0E311
:10174A000E94401BE2E0F1E30E94451BE7E7EA93AF
:10175A00EEEEF0E30E94401BE4E0F1E30E94451B39
:10176A00E7E7EA93E0EFF0E30E94401BE6E0F1E3EB
:10177A000E94451BE7E7EA93E2EFF0E30E94401B71
:10178A00E8E0F1E30E94451BE7E7EA93E4EFF0E3C0
:10179A000E94401BEAE0F1E30E94451BE7E7EA9357
:1017AA00E6EFF0E30E94401BECE0F1E3FA93EA93E0
:1017BA00A2E00E94AA17B091F830A0E0E091F930B7
:1017CA00F0E0EA0FFB1FE0939330F0939430F0912E
:1017DA00FA30E0E0DF01E091FB30F0E0EA0FFB1FB6
:1017EA00E0939530F0939630F091FC30E0E0DF0121
:1017FA00E091FD30F0E0EA0FFB1FE0939730F093A1
:10180A009830F091FE30E0E0DF01E091FF30F0E047
:10181A00EA0FFB1FE0939930F0939A30F091003170
:10182A00E0E0DF01E0910131F0E0EA0FFB1FE09315
:10183A009B30F0939C30F0910231E0E0DF01E091BF
:10184A000331F0E0EA0FFB1FE0939D30F0939E30E6
:10185A00F0910431E0E0DF01E0910531F0E0EA0FB8
:10186A00FB1FE0939F30F093A030F0910631E0E047
:10187A00DF01E0910731F0E0EA0FFB1FE093A130AE
:10188A00F093A230F0910831E0E0DF01E0910931F4
:10189A00F0E0EA0FFB1FE093A330F093A430F0913D
:1018AA000A31E0E0DF01E0910B31F0E0EA0FFB1FC3
:1018BA00E093A530F093A630F0910C31E0E0DF011F
:1018CA00E0910D31F0E0EA0FFB1FE093A730F093AF
:1018DA00A83008950E943B1BE7E7EA93EEE0F1E3A4
:1018EA000E94401B0E944B1BE0918806E470E1F3C2
:1018FA000E943B1BE7E7EA93E0E1F1E30E94401B09
:10190A00E2E1F1E30E94451BE7E7EA93E4E1F1E350
:10191A000E94401B0E944B1BE0918806E470E1F391
:10192A000E943B1BE7E7EA93E6E1F1E30E94521BC0
:10193A00E9E1F1E30E94571BE7E7EA93E7E1F1E304
:10194A000E94521BEAE1F1E30E94571BE7E7EA9380
:10195A00E8E1F1E30E94521BEBE1F1E3FA93EA9327
:10196A00A1E00E94AA17B0911231A0E0E0911331D0
:10197A00F0E0EA0FFB1F0E94971FE093A930F09353
:10198A00AA306093AB307093AC30E0911931FF27E5
:10199A00662777270E945D1B0E94661BE8E00E946B
:1019AA00501F0E945D1BE0911A310E946F1B0E941A
:1019BA00661BE8E00E94501F0E945D1BE0911B31EC
:1019CA000E946F1BA091AD30E8E0EA1B0E94661BE3
:1019DA000E945C1F0E945D1BE0919D30F0919E3039
:1019EA00A091A930B091AA308091AB309091AC30DF
:1019FA00662777270E943A1FE0919B30F0919C302E
:101A0A00662777270E94761BEFE00E947B1BA09136
:101A1A00A530B091A6300E949C1FEBE00E94501F97
:101A2A007F936F93FF93EF93E091A730F091A830E3
:101A3A000E94861B0E94971F0E942B1FAF91BF9185
:101A4A008F919F910E9416200E948F1BE093BA30BB
:101A5A00F093BB306093BC307093BD300E949B1BE7
:101A6A00E85FFF4F6F4F7F4FDF01CB01E4E00E9439
:101A7A005C1FE093BE30F093BF306093C030709328
:101A8A00C1300E94EA1DDF01CB010E94A41B0E9403
:101A9A00C21EE093DA30F093DB306093DC3070934F
:101AAA00DD300E949B1BE05AFF4060407040E0938B
:101ABA00C230F093C3306093C4307093C5300E9433
:101ACA00A91B0E94B21B0E94C61FA091A130B0910F
:101ADA00A2300E94BB1BECE00E945C1FDF01CB011D
:101AEA00EBE00E947B1B0E94A91BA0919530B0914C
:101AFA0096300E94BB1BEBE00E945C1F0E948F1B6A
:101B0A000E94BE1BA0919330B09194300E949C1FFA
:101B1A00E4E0F0E060E070E00E94C61FA091C630E9
:101B2A00B091C7308091C8309091C9300E94301F5F
:101B3A00E091AD300E94501F0E94C71BE093CA304B
:101B4A00F093CB306093CC307093CD300E94A91BB8
:101B5A00A0919730B09198300E94BB1BEDE00E9493
:101B6A007B1B0E94A91B0E94B21B0E94761BECE001
:101B7A000E945C1FA0919F30B091A0300E949C1FD0
:101B8A000E94D01B0E948F1B0E94C71B0E94BE1B73
:101B9A00E091C630F091C7306091C8307091C93079
:101BAA00E050F0486F4F7F4FA0919930B0919A3032
:101BBA00882799270E94A61FDF01CB01EFE00E9428
:101BCA00681FE093D230F093D3306093D43070938F
:101BDA00D530A091CA30B091CB308091CC30909161
:101BEA00CD30E091AE30F091AF306091B03070916D
:101BFA00B1300E94351F7F936F93FF93EF93E0916B
:101C0A00AD30A0E5B3EC0E94471FAF91BF918F9111
:101C1A009F91662777270E94A61FE093D630F093FC
:101C2A00D7306093D8307093D9300E94D51BA0303A
:101C3A00E0E0BE07E0E08E07E0E89E0788F4E09166
:101C4A00D630F091D7306091D8307091D9300E9457
:101C5A00801FDF01CB010E94DE1B0E94F11F08C01A
:101C6A000E94DE1B0E94D51B0E94F11F0E94801F4A
:101C7A00E093CE30F093CF306093D0307093D13070
:101C8A000E94E71B7F936F93FF93EF930E94E71BDA
:101C9A00AF91BF918F919F910E94C61F0E94F31B23
:101CAA00E091B230F091B3306091B4307091B530B8
:101CBA00AEEDBBE080E090E00E94D01B0E94F31BD7
:101CCA000E94FC1BA3E4B3EE8FEF9FEF0E94D01B90
:101CDA000E948F1BE153F14F6F4F7F4FDF01CB0102
:101CEA00E4E00E945C1F0E94051C0E942B1FE093E7
:101CFA00CE30F093CF306093D0307093D1300E94C1
:101D0A00FC1B0E94EA1DDF01CB01EFE6F2E565E06C
:101D1A0073E40E94C21EE093DE30F093DF306093DA
:101D2A00E0307093E1300895E2E0E0932231E0E0A0
:101D3A00E09323310E943B1BE8E1EA93E2E2F1E3FC
:101D4A000E94401B0E944B1BE3E0E0932031E2E338
:101D5A00E09321310E943B1BE8E1EA93E0E2F1E3E0
:101D6A008AC0E0E0E0931C310E943B1BE8E1EA9361
:101D7A00ECE1F1E30E94521BEDE1F1E3FA93EA93FD
:101D8A00A1E082C0E1E0E0931E310E943B1BE8E142
:101D9A00EA93EEE1F1E36FC0E2E0E0932A31E0E09A
:101DAA00E0932B310E943B1BE9E1EA93EAE2F1E37B
:101DBA000E94401B0E944B1BE3E0E0932831E8E9B4
:101DCA00E09329310E943B1BE9E1EA93E8E2F1E35F
:101DDA0052C0E0E0E09324310E943B1BE9E1EA9320
:101DEA00E4E2F1E30E94521BE5E2F1E3FA93EA939B
:101DFA00A1E04AC0E1E0E09326310E943B1BE9E101
:101E0A00EA93E6E2F1E337C0E2E0E0933231E0E060
:101E1A00E09333310E943B1BEAE1EA93E2E3F1E308
:101E2A000E94401B0E944B1BE3E0E0933031E0E448
:101E3A00E09331310E943B1BEAE1EA93E0E3F1E3EC
:101E4A001AC0E0E0E0932C310E943B1BEAE1EA93DE
:101E5A00ECE2F1E30E94521BEDE2F1E3FA93EA931A
:101E6A00A1E012C0E1E0E0932E310E943B1BEAE1BF
:101E7A00EA93EEE2F1E3FA93EA93E2E0EA93E0E02E
:101E8A00F0E0FA93EA93A0E00E94AA170895AA93B1
:101E9A00E0E1E0934606AB8172DBAA8170DBA9819F
:101EAA006EDBA8816CDBE0914806ED6FEF3FD9F35A
:101EBA00E0E1E093450624960895AA930E94B9208A
:101ECA00E0913431AC81EA1729F0A13011F0A23047
:101EDA0009F401C010C0AC81A13011F40E940E1C9B
:101EEA00AC81A23041F4E1E2EA93ECE0EA93E1E169
:101EFA00EA93A0E4CCDFEC81E0933431E091480628
:101F0A00ED6FEF3FD9F3E0E1E09346068BE68A9561
:101F1A00F1F7A8E334DBAFEF32DB0E2F1127AFEF77
:101F2A002EDB2E2F3327E0E1E0934506F02FE0E089
:101F3A00E22BF32BE4C01A930A930FB7F894E091BB
:101F4A005000E260E0935000E0914100E0781E2FDB
:101F5A00E8EDE4BF10934100E0916000EE7FE0936A
:101F6A006000E0915100E270E1F3E0914000E87F07
:101F7A00E1601E2FE8EDE4BF10934000E0915000AD
:101F8A00E27EE0935000E091B400EC7FE093B4006D
:101F9A000FBF099119910895AA931A93E2E0E09369
:101FAA00CA01E981F0E01491E0E0E093CA01E12F6F
:101FBA00188122960895A0E2EFDFE0930C02A1E2D5
:101FCA00EBDFE0930D02E0E0E0930102E3E0E0934F
:101FDA000402E1E1E0930202E0E0E0931802E093F8
:101FEA001902E1E0E0932002E0E2E0932102E1E05D
:101FFA00E0932802E8E2E0932902E1E0E09330026C
:10200A00E0E3E0933102E1E0E0933802E8E3E093B1
:10201A003902E0E0E0930302E0932202E0932A020D
:10202A00E0933202E0933A02E0910002E160E09329
:10203A0000024CC0AA930E94B920EC81F0E0A0E211
:10204A00B2E00E94171CF801A381A170E1F34FC00E
:10205A00A4E2A2DFE0934C02A5E29EDFE0934D02E8
:10206A00E0E0E0934102E3E0E0934402E0E1E09340
:10207A004202E0E0E0935802E0935902E1E0E09383
:10208A006002E0E0E0936102E1E0E0936802E8E0E8
:10209A00E0936902E1E0E0937002E0E1E09371020B
:1020AA00E1E0E0937802E8E1E0937902E0E0E0938E
:1020BA004302E0936202E0936A02E0937202E093C1
:1020CA007A02E0914002E160E093400285E18A955C
:1020DA00F1F70895AA930E94B920EC81F0E0A0E6F6
:1020EA00B2E00E94171CF801A381A170E1F3D801A4
:1020FA001396E1E0EC93F80124813581F9010E94FD
:10210A00C020259608950E94EE1AE0918130E030B1
:10211A0021F0A0918230AF3F09F006C00E94DD0194
:10212A00A1E0B0E00E94741DBCC00E94EE1A0E9499
:10213A00211CA1E0C2DEE0933531F0933631E09103
:10214A003531F0913631E050F048E0933531F09373
:10215A003631E0913531E0935330E0913531F091E9
:10216A0036310E94851FE09354300E94271C772441
:10217A00E4E07E1650F40E942D1C0E94341C0E943A
:10218A003B1C0E94341C7394F3CF6624EAE06E165B
:10219A00A0F57724E4E07E1670F50E942D1CEA0F64
:1021AA00FB1FFF93EF930E942D1C0E94421CFF937A
:1021BA00EF93A72D3FDFAF91BF91EA0FFB1FAF91BE
:1021CA00BF91ED93FC930E943B1CEA0FFB1FFF9308
:1021DA00EF930E943B1C0E94421CFF93EF93A72D92
:1021EA0079DFAF91BF91EA0FFB1FAF91BF91ED93DA
:1021FA00FC937394CFCF6394C9CF7724E4E07E161F
:10220A00C0F40E942D1CEA0FFB1FBF010E942D1C67
:10221A000E94421C0E94471C0E943B1CEA0FFB1FA3
:10222A00BF010E943B1C0E94421C0E94471C7394DF
:10223A00E5CFE0911E30E0934D30E0911F30E093FE
:10224A004E30E0912030E0935130E0912130E0931C
:10225A005230E0912230E0934F30E0912330E09306
:10226A005030E0912430E0935930E0912530E093EA
:10227A005A30E0912630E0935D30E0912730E093C8
:10228A005E30E0912830E0935F30E0912930E093AE
:10229A006030E0912A30E0935530E0912B30E093A2
:1022AA005630E991EFBFF991E991B991A9919991C4
:1022BA00899179916991F9901990099018951895D1
:1022CA00F894E091A200E873E7601E2FE8EDE4BFFE
:1022DA001093A200E0E0E093A1002DDE0E94120517
:1022EA00E0918406E061E093840665DEB1DE0E9437
:1022FA00E7050E948E090E94BB0A4DD9A4E6B0E008
:10230A000E94741D78940E94CF040E94361BE6E74F
:10231A00F2E00E94521C0E94361BE3E8F2E00E949F
:10232A00521C02DD39DD70DD0E94361BEDE8F2E059
:10233A000E94521CCCD90E94361BEEE9F2E00E94A0
:10234A00521C0E94361BEFEAF2E0FA93EA9380E00D
:10235A00CAD424960E94AF090E945E1CE09301062B
:10236A00E1E0E09305060E945E1CE09306060E94E7
:10237A005E1CE0930506A2E3B0E00E94741D0E9471
:10238A000E1C0E94361BE9EBF2E00E94521C0E94CE
:10239A00780A0E94DB090E943F0AE0918406EF7ED8
:1023AA00E09384060E94361BE9ECF2E00E94521C7C
:1023BA000E9407020E94FC1829F4A1E0B0E0E0E0C4
:1023CA000E948320A1E0B0E00E947A20E23308F064
:1023DA0063C1A1E0B0E00E947A20EF5F0E948320EF
:1023EA000E94211CBEDCF5DC2CDD0E94271CE0913A
:1023FA002531E078E03821F4E0916130E26007C0ED
:10240A00E0912531E07829F4E0916130ED7FE093A5
:10241A006130E0911D31E071E03121F4E0916130E9
:10242A00E46007C0E0911D31E07129F4E091613068
:10243A00EB7FE0936130E0911D31E072E03221F4EC
:10244A00E0916130E86007C0E0911D31E07229F443
:10245A00E0916130E77FE0936130E0911D31E270F5
:10246A00E23021F4E0916130E06107C0E0911D3172
:10247A00E27029F4E0916130EF7EE0936130E091FF
:10248A002531E870E83021F4E0916130E06207C05C
:10249A00E0912531E87029F4E0916130EF7DE09315
:1024AA006130E0912531E071E03121F4E091613051
:1024BA00E06407C0E0912531E07129F4E0916130D0
:1024CA00EF7BE0936130E0912D31E074E03421F448
:1024DA00E0916130E06807C0E0912D31E07429F4A1
:1024EA00E0916130EF77E0936130E92DE270E230FC
:1024FA0021F4E0912F31E26005C091FC05C0E09122
:10250A002F31ED7FE0932F31E92DE470E43021F48F
:10251A00E0912F31E46005C092FC05C0E0912F31B3
:10252A00EB7FE0932F31E92DE870E83021F40E9427
:10253A00641CE06405C093FC05C00E94641CE0684A
:10254A00E0931F31E92DE071E03121F4E0912F3160
:10255A00E86005C094FC05C0E0912F31E77FE09365
:10256A002F31E92DE072E03221F4E0912F31E06160
:10257A0005C095FC05C0E0912F31EF7EE0932F3125
:10258A00E92DE074E03421F4E0911F31EE7F05C0BB
:10259A0096FC05C0E0911F31E160E0931F31E92DFF
:1025AA00E078E03821F4E0912731EE7F05C097FC0E
:1025BA0005C0E0912731E160E0932731E3DB1ADCC3
:1025CA0051DC0E94271C86D90E94211C0E94361BBE
:1025DA00E5EDF2E0FA93EA930E946C1C0E946320F4
:1025EA000E94751C0E94632088E07DD32C960E946D
:1025FA00AF090E94751C0E94AD207CF4A091DA30CC
:10260A00B091DB308091DC309091DD30E0E0F0E099
:10261A0060E772E40E94071F08F01AC00E946C1C4F
:10262A00A0E0B0E086E993E40E94071F78F4A09145
:10263A00DE30B091DF308091E0309091E130E0E01F
:10264A00F0E46EE474E40E94071F08F001C001C0C0
:10265A001EC0E091BE30E0935730A091BE30B091D9
:10266A00BF308091C0309091C130E8E00E945C1F79
:10267A00E09358300E947E1CE0935B300E947E1CDF
:10268A00DF01CB01E8E00E945C1FE0935C30A4E626
:10269A00B0E00E94741DA4CEFFCFBA93AA931A93F6
:1026AA000A93AA81BB8112960E944A20309729F187
:1026BA00AA81BB8114960E944A208F01309761F04B
:1026CA000230E0E01E0780F0F80131978F01AA81FD
:1026DA00BB811496ED93FC93AA81BB8112960E944A
:1026EA00861C3197AC81A083AA81BB810E944A20B3
:1026FA00FF2312F00E94861C06C0AA81BB81EFEF5D
:10270A00FFEFED93FC93198108810C94F5160E9452
:10271A008C1CE0E8EA83EFE3EB830E94B920EE85A4
:10272A00FF85EF3FAFEFFA0749F4E885F985FA9399
:10273A00EA93A6EEB2E00E94BC16B7C0EF3FAFE73D
:10274A00FA0749F4E885F985FA93EA93A7EEB2E025
:10275A000E94BC16AAC0AB85A73010F0E6E0EB8752
:10276A001B85E12F1150E03019F00E94931CF9CF1C
:10277A00EC85FD856E857F850E94B32021F430E0CB
:10278A000E94931C2DC03B850E949F1C09F008F4EF
:10279A000BC00E94931C0E949F1C28F00E94AA1C36
:1027AA000E94AF1CF8CF0DC00E949F1C40F40E94EB
:1027BA00AA1C0E94BB1C0E94BF1C3150F5CF0E946C
:1027CA00931CEC85FD856E857F850E94C41C0E9442
:1027DA00BF1C0E949F1C20F00E94AA1C0E94AF1CD2
:1027EA0010E0EB85E117A8F1AC81BD818E819F8154
:1027FA000E94CB1C0E94C41CDF01CB010E9444181A
:10280A00EC83FD836E837F830E94AA1C0E94C21EF2
:10281A000E94B11D0E2F0E94D21C0E94D91CFF27B4
:10282A00662777270E94EA1DAC81BD818E819F8130
:10283A000E94741E0E94AA1C0E94DE1C0E94BF1CD9
:10284A00E12F1F5FE03069F60E94D21CEEE2EC93A2
:10285A00C8CF0E94E31C3197AA85A08330302CF49C
:10286A003195A885B985EDE203C0A885B985EBE263
:10287A00EC930E94E31C0E94E31C3197BF01A32F33
:10288A00EAE00E94D91FE05DDB01EC930E94E31CA1
:10289A003197BF01A32FEAE00E941B20E05DDB0114
:1028AA00EC93A885B985E0E0EC930E94C02060967D
:1028BA000895BA93AA93EF9761970E94B72010E000
:1028CA00FE01E85AFF4F0190F081E02DE887F98771
:1028DA00FE01EA5AFF4F0190F081E02DEE83FF835B
:1028EA00AE81BF81E0E0F0E0ED93FC93DE01A45AF3
:1028FA00BF4F0E94861C3197E4912E2FE03009F4D5
:10290A00E9C1E12FE03039F4253211F411E002C0B7
:10291A000E94E91CDEC1E130C1F4253219F40E949B
:10292A00E91CD6C112E0E0E0ED8B00E02D3211F493
:10293A0001E0CFC12B3219F4EBE2ED8BCAC1203290
:10294A0019F4E0E2ED8BC5C102C0E23039F450E07F
:10295A0013E0203311F40068BCC102C0E33091F4E3
:10296A00203310F02A3308F007C0AAE05A9F502DEE
:10297A00E22FE0535E0FADC140E02E3211F414E0B5
:10298A00A8C10FC0E43099F4203310F02A3308F0BC
:10299A0008C00062AAE04A9F402DE22FE0534E0F82
:1029AA0098C12C3619F4026015E093C103C0E530D2
:1029BA0009F08FC1E22FE33659F40E94F01C0E94FD
:1029CA00F71C0E94F01CA481AA930E94FE1C80C1DD
:1029DA00E53411F0E53609F403C0E63609F048C0DB
:1029EA00FE017696EE87FF870E94041D0E944E2004
:1029FA000E940B1D0E94101DAD85AA2332F0AD89DD
:102A0A00AB3259F0A03281F017C00E94121D0E9409
:102A1A007E1D0E940B1DEDE2ED8B07FF05C0ED89BF
:102A2A00EA930E94FE1C08C0EE85FF853196EE8768
:102A3A00FF873197AD89A08305FF46E0263651F41A
:102A4A000E94121D0E9463204A93AB89BC890E948E
:102A5A005B1809C00E94121D0E9463204A932A93A0
:102A6A00AC89BD8954DEFE0176960E94171D1EC0F0
:102A7A00E33739F40E94101D0E941F1D0E94171D82
:102A8A000EC0E037C1F40E94101D0E941F1DEE8780
:102A9A00FF87AE85BF850E94D5161E2F08600F7767
:102AAA00403011F0411708F001C0142F40E0E0E077
:102ABA00EC8B30E06DC0E43611F0E93611F40460B5
:102ACA0002C0E537A1F4EAE0EC8B01FF08C0E0E0C0
:102ADA00FAEC6AE97BE30E94241D1AE022C0E0E1D5
:102AEA00F7E260E070E00E94241D15E01AC0E835A4
:102AFA0011F4086003C0E83709F0EAC0E0E1EC8BA2
:102B0A0001FF08C0E0E0F0E060E070E10E94241DEF
:102B1A0018E007C0E0E0F0E160E070E00E94241DE8
:102B2A0014E0403011F00F7701C041E001FF08C006
:102B3A000E94101D0E94041D14960E944E200FC070
:102B4A0002FF07C00E94101D0E941F1D0E94971FAE
:102B5A0006C00E94101D0E941F1D66277727EA875C
:102B6A00FB876C877D8702FF12C0AD85AA2342F4DA
:102B7A000E94121D0E943F1F0E940B1DEDE2ED8B69
:102B8A00ED89E03019F01F5F4F5F01C00B7F342FD2
:102B9A0000FD14C0151710F4351708F00FC007FF11
:102BAA0008C002FF04C00B7F2D89115001C020E329
:102BBA0001C020E20E94E91C5150ECCF141790F496
:102BCA00006102FF06C00E94291D09F051501150F0
:102BDA004150E0E3EA930E94FE1C503009F0515044
:102BEA004150ECCF312FEC89E030B9F43030A1F00C
:102BFA0003FF06C0EE85FF852591EE87FF8705C096
:102C0A00AE85BF852D91AE87BF870E94E91C5030E3
:102C1A0009F051503150EACF51C00E943B1D0E9429
:102C2A00F11F2E2F2A3030F003FF02C0295C01C0A9
:102C3A00295A01C0205D04FD21C0213360F4A8890E
:102C4A00B9898A899B89A130E0E0BE07E0E08E0756
:102C5A00E0E09E0709F40BC0431740F4531710F045
:102C6A0000FF01C010C020E207FF08C020E3006196
:102C7A0002FF04C00E94291D09F051500E94E91C5C
:102C8A00503009F0515031500E943B1D0E942720BC
:102C9A000E940B1DEC89A889B9898A899B89FF271B
:102CAA00662777270E94F11F0E94241DE889F98967
:102CBA006A897B890E94B32009F0AFCF00FF08C060
:102CCA00503031F05150E0E2EA930E94FE1CF8CFF6
:102CDA0010E00CCEAE81BF810E944A200E94BE2025
:102CEA00EF966F960895FF92F82E26970E94B920C4
:102CFA000E94441D309719F4EFEFFFEF23C0DE0165
:102D0A0016960E94271F8D010E94441DEE83FF83A1
:102D1A00E0E0E887E987DE011A960E94271F0E94F1
:102D2A004A20FA93EA931A930A93E2E5F3E1FA93B3
:102D3A00EA93DE011A96BDDD9F01AE81BF81E0E014
:102D4A00EC93F9010E94C0202A96FF900895BA9345
:102D5A00AA93B981A881109631F0FC81EB816A812E
:102D6A0061931197E9F7EB81FC810C94F516BA93FC
:102D7A00AA93E991F991A991B991CD0105900D9282
:102D8A000020E1F7FC010895BA93AA93A991B99199
:102D9A00EE27FF276D91662311F03196FBCF089538
:102DAA00BA93AA93AA27BB27E991F9910590002023
:102DBA0011F01196FBCFFD010895AA931A93AB81E6
:102DCA00BC81EC91EC7F1E2FEA81E03009F01160A2
:102DDA00E981E03009F01260AB81BC811C93188153
:102DEA0025960895AA93E981E863AA81BB81119681
:102DFA00EC93EA81FB813296A0E0A083E881AA8164
:102E0A00BB811596EC93EA81FB813496A1E0A083FD
:102E1A00EA81FB81AC81BD81ED93FC93AC81BD81DC
:102E2A001596E0E0EC93AC81BD811996EC93AC81E8
:102E3A00BD811B96EC9326960895BA93AA9322977E
:102E4A000E94B720A885B9850D911C91F80134819B
:102E5A003396AF0133FF02C023E003C032FF04C040
:102E6A0024E0F801348309C0F8013796EE83FF8322
:102E7A0036FF32C034FF05C025E0DA01E3E0EC9307
:102E8A005BC0E885F9852681E5812E1798F4E885E7
:102E9A00F985A381B481E22F2F5FF0E0AE0FBF1F47
:102EAA00EC91AE81BF81EC93E22FA885B985169685
:102EBA00EC9347C0E885F985A285E185AE1748F409
:102ECA00E885F985A281E1E0EA2BD8011696EC9310
:102EDA0038C0DA01E3E02CC037FF2DC0E885F98558
:102EEA002285E1852E1728F0DA01E3E0EC9322E04F
:102EFA0023C0E885F985A781B085E22F2F5FF0E02E
:102F0A00EA0FFB1F0F01AE81BF81EC91D001EC9358
:102F1A00E22FA885B9851A96EC93E885F985E185AB
:102F2A002E1720F4DA01E2E0EC930BC0DA01E7E0B5
:102F3A00EC9321E001C026E0E22FA885B9851B9613
:102F4A00EC930E94BE202A960895AA931A930A9394
:102F5A00E985FA85A385A07809F05BC0A985BA85B9
:102F6A001B96E0E8EC93E885EE0FE887A985BA8519
:102F7A001296EC93EE81FF81A985BA851396ED939B
:102F8A00FC93ED81A985BA851596EC93A985BA8536
:102F9A001696E0E0EC93EB81FC81A985BA85179639
:102FAA00ED93FC93EA81A985BA851996EC93A985D4
:102FBA00BA851A96E0E0EC93A985BA850E944A2060
:102FCA0036968F01ED81E03079F0EE81FF813097FE
:102FDA0001F1EA81E03021F0AB81BC81109709F060
:102FEA0001C017C0E88509C0EA81E03041F0EB81F1
:102FFA00FC81309771F0E885E160D801EC93E985AE
:10300A00FA85A385A078D9F7A385E1E00E94A11FDC
:10301A0001C0E0E0198108812B9608950E9468207A
:10302A007B816A81F981E88177FB770F67FD71609F
:10303A00972F9E5781F078F0983190F4AA27BB27F2
:10304A00882708948795B795A7959A95D1F7EA2383
:10305A00FB23682305C0E8947727EE27FF27662716
:10306A006F77769508F4606877F9A991B991899193
:10307A009991EA17FB076807790797FB08950E9459
:10308A0068200E9459200E9413180E945E2019F499
:10309A000E94542009C0E6F70E945420A0E0B0E044
:1030AA0080E89FE30E941D1E2496089530D4E0E034
:1030BA00EA83EFE3EB831A930A93EB85FC85EF3FF0
:1030CA00AFEFFA0731F4E2D4AEEEB2E00E94BC16DA
:1030DA008AC0EF3FAFE7FA0731F4D8D4AFEEB2E0D7
:1030EA000E94BC1680C0AC85AA2352F4E985FA85F1
:1030FA006B857C850E947E1DCED4D2D4EDE2EC9302
:10310A00A885A73010F0E6E0E8871885E12F11506E
:10311A00E03021F0CCD43AD4CFD4F8CFD2D40E9424
:10312A00241EB9D410E0E0E0F0E060E87FE3C4D404
:10313A00C8D40E94071F68F0BAD418D4BDD41F5F40
:10314A00173230F0A3D4A3EFB2E00E94BC164BC0F2
:10315A00EFCF103021F4A4D4E0E3EC9320C0E12FA8
:10316A001150E030E1F0A3D411D409D4DF01CB012E
:10317A000E944418A1D4A5D40E94C21E0E94B11D67
:10318A000E2F8ED411D4F0E092D40E94971F0E9481
:10319A00EA1D0E94741E9ED40CD47DD4E0CFE8852B
:1031AA00E030E9F07DD4EEE2EC93E885E150E8877F
:1031BA00EF5FA9F08FD4DAD36ED4E985FA856B85EF
:1031CA007C850E94B11D0E2F6BD4EED3F0E082D421
:1031DA000E94971F0E94EA1DECD35DD4E6CFAE8110
:1031EA00BF81E0E0EC93198108812D960895A1E052
:1031FA00B0E00E947A20EF3F0895E0E00E94832029
:10320A00E6E0BE2EE1E08E2EEB2DF0E03197089538
:10321A00EE5FFF4FDF01E0E00E9483200895EB2D6F
:10322A00F0E03197A82DB0E0AE17BF070895EB2D57
:10323A00F0E03197EE5FFF4FBF01DF010E947A2075
:10324A000E2EA82DB0E0AE5FBF4F0E947A20E00D8F
:10325A00DB010E9483200895E2E1BE2EE1E08E2E7A
:10326A00EB2DF0E03197E85FFF4FDF01E0E00E94CD
:10327A0083200895EB2DF0E03197E85FFF4FBF01FF
:10328A00DF010E947A200E2EA82DB0E0A85FBF4F62
:10329A000E947A20E00DDB010E94832008950E949B
:1032AA008320E4E0BE2EE1E08E2EEB2DF0E0319794
:1032BA000895E65EFF4FDF01E0E00E948320089553
:1032CA00EB2DF0E03197E65EFF4FBF01DF010E9470
:1032DA007A200E2EA82DB0E0A65EBF4F0E947A205B
:1032EA00E00DDB010E9483200895EA5AFF4FDF01B7
:1032FA00E0E00E9483200895EB2DF0E03197EA5A2E
:10330A00FF4FBF01DF010E947A200E2EA82DB0E0E8
:10331A00AA5ABF4F0E947A20E00DDB010E94832047
:10332A000895E75CFF4FDF01E0E00E9483200895E3
:10333A00EB2DF0E03197E75CFF4FBF01DF010E9400
:10334A007A200E2EA82DB0E0A75CBF4F0E947A20EB
:10335A00E00DDB010E9483200895EA58FF4FDF0148
:10336A00E0E00E9483200895EB2DF0E03197EA58BF
:10337A00FF4FBF01DF010E947A200E2EA82DB0E078
:10338A00AA58BF4F0E947A20E00DDB010E948320D9
:10339A000895EBE1BE2EE1E08E2EEB2DF0E03197A1
:1033AA00E25EFF4FDF01E0E00E9483200895EB2DEB
:1033BA00F0E03197E25EFF4FBF01DF010E947A2001
:1033CA000E2EA82DB0E0A25EBF4F0E947A20E00D1B
:1033DA00DB010E9483200895E3E0BE2EE1E08E2EF9
:1033EA00EB2DF0E03197E15CFF4FDF01E0E00E9456
:1033FA0083200895EB2DF0E03197E15CFF4FBF0188
:10340A00DF010E947A200E2EA82DB0E0A15CBF4FEA
:10341A000E947A20E00DDB010E9483200895EE5B72
:10342A00FF4FDF01E0E00E9483200895EB2DF0E0DA
:10343A003197EE5BFF4FBF01DF010E947A200E2E0B
:10344A00A82DB0E0AE5BBF4F0E947A20E00DDB01F1
:10345A000E9483200895ECE0BE2EE1E08E2EEB2D33
:10346A00F0E03197E65BFF4FDF01E0E00E94832046
:10347A000895EB2DF0E03197E65BFF4FBF01DF01C6
:10348A000E947A200E2EA82DB0E0A65BBF4F0E94A4
:10349A007A20E00DDB010E9483200895EAE0BE2E27
:1034AA00E1E08E2EEB2DF0E03197E65AFF4FDF0177
:1034BA00E0E00E9483200895EB2DF0E03197E65A70
:1034CA00FF4FBF01DF010E947A200E2EA82DB0E027
:1034DA00A65ABF4F0E947A20E00DDB010E9483208A
:1034EA000895E6E0BE2EE1E08E2EEB2DF0E0319756
:1034FA000895E659FF4FDF01E0E00E948320089516
:10350A00EB2DF0E03197E659FF4FBF01DF010E9432
:10351A007A200E2EA82DB0E0A659BF4F0E947A201D
:10352A00E00DDB010E9483200895E059FF4FDF017F
:10353A00E0E00E9483200895EB2DF0E03197E059F6
:10354A00FF4FBF01DF010E947A200E2EA82DB0E0A6
:10355A00A059BF4F0E947A20E00DDB010E94832010
:10356A000895EA5BFF4FDF01E0E00E94832008959F
:10357A00EB2DF0E03197EA5BFF4FBF01DF010E94BC
:10358A007A200E2EA82DB0E0AA5BBF4F0E947A20A7
:10359A00E00DDB010E9483200895EC59FF4FDF0103
:1035AA00E0E00E9483200895EB2DF0E03197EC597A
:1035BA00FF4FBF01DF010E947A200E2EA82DB0E036
:1035CA00AC59BF4F0E947A20E00DDB010E94832094
:1035DA0008950A921A92FA926A937A938A939A931C
:1035EA00AA93BA93EA93FA93EFB7EA930895EFEF9F
:1035FA00E0938230E1E03E2E0895E0938230E2E0EB
:10360A003E2EEFEFE093003008953E2EEFEFE09369
:10361A0000300895EFEFE0930030222408950E94CD
:10362A007A20AE2F0C948509BB24EFEFE093823009
:10363A000895E4E0BE2EE1E08E2EEB2DF0E0319706
:10364A000895AAEC0E948509AAEC0C9485090E94A7
:10365A008509CDCFE82DF0E0E050F04DE081AE0EC7
:10366A000895EEE2F0E3FA93EA930895E3E8F0E3CB
:10367A00FA93EA930895FA93EA93E2E0EA930895B3
:10368A00FA93EA93A2E00E94AA17F0CFE0E0F0E0F2
:10369A00FA93EA93A0E00C94AA17FA93EA93E1E06A
:1036AA00EA930895FA93EA93A1E00E94AA17DECF5B
:1036BA00E093AE30F093AF306093B0307093B13096
:1036CA000895A091AE30B091AF308091B030909112
:1036DA00B1300895F0E0F5DF0E94971F0E942B1F7A
:1036EA00E7CF0E94C61FDF01CB0108950E945C1F2D
:1036FA00E093B230F093B3306093B4307093B53046
:10370A000895A091B230B091B3308091B4309091C5
:10371A00B5300895E093B630F093B7306093B8307F
:10372A007093B930EEDF0E942B1F0895E091BA30F2
:10373A00F091BB306091BC307091BD300895E0E0EB
:10374A00F0E060E271E40895E091C230F091C33094
:10375A006091C4307091C5300895A091C230B09183
:10376A00C3308091C4309091C53008950E949C1F47
:10377A00B8CFE093C630F093C7306093C8307093E7
:10378A00C9300895EE5FFF4F6F4F7F4F0E947B1F36
:10379A000E947B1F08950E94C61F0E948A1F0895D7
:1037AA00A091D630B091D7308091D8309091D9304D
:1037BA000895E091D230F091D3306091D430709175
:1037CA00D5300895A091CE30B091CF308091D030CD
:1037DA009091D130E8E00E945C1F0895E093B230E6
:1037EA00F093B3306093B4307093B5300895E0919C
:1037FA00CE30F091CF306091D0307091D1300895B1
:10380A00A091CE30B091CF308091D0309091D1300C
:10381A000895E0E2EA93ECE0EA93E0E1EA93A0E4B7
:10382A000C944C0F0E94741FEA0FFB1F8F01D801E2
:10383A00EC91E068EC930895E091E407ED7FE09362
:10384A00E4070895E091E407E260E093E40708954D
:10385A00E72DA6E2B0E3F0E0EE0FFF1F0895AE0FEA
:10386A00BF1FE0E0F0E0ED93FC930895E72DAEE191
:10387A00B0E3F0E0EE0FFF1F0895AE0FBF1F0E94E6
:10388A004A200895DF01EAE0F0E00E94DE1FE659CF
:10389A00F040DB01ED93FC930895FA93EA9380E0FC
:1038AA000E94781624960E94AF09A8ECB0E00C9406
:1038BA00741DA2E3B0E00E94741DE1E00895E09156
:1038CA001F31EF73E0931F31E0911F310895E091AA
:1038DA00DE30F091DF306091E0307091E130089590
:1038EA00E091DA30F091DB306091DC307091DD30BC
:1038FA00089586DFEAE0F0E060E070E00E941620BA
:10390A0008950E944A203196ED93FC930895BA9344
:10391A00AA932497E0E0E883E9830895AC81BD8106
:10392A008E819F810CDF0E94741EEC83FD836E835F
:10393A007F830895EC81FD816E817F81AC85BD8591
:10394A008E859F850E94071F0895AC85BD858E854B
:10395A009F850895EDECFCEC6CEC7DE30E94741EEF
:10396A00EC87FD876E877F873F5F0895E8DE0E94B8
:10397A00741E0895EC87FD876E877F870895A0E0FF
:10398A00B0E080E09FE30E94241E0895EDECFCEC79
:10399A006CEC7DE30E94741E0895A885B985119682
:1039AA00A887B98711970895E02FE05DEC93E02F7F
:1039BA0008950E946D200E941D1E0895E885F985CC
:1039CA003196E887F98708952A93AF81B885E98502
:1039DA00FA8509950895FE01E65AFF4F0190F08194
:1039EA00E02D08953497DE01A65ABF4FED93FC935C
:1039FA000895AF81B885E985FA8509950895DE01AC
:103A0A00A65ABF4F0D90BC91A02D0895EA87FB8757
:103A1A006C877D870895DFDFE5CFEA85FB856C85B6
:103A2A007D850895EE87FF87AE85BF850E94C916FA
:103A3A001E2F0895E4DF14960E944A200895E88B09
:103A4A00F98B6A8B7B8B08950B7FED89EA93DE01F4
:103A5A00A95ABF4F0D90BC91A02DFE01E75AFF4F06
:103A6A000190F081E02D099550300895E889F9898F
:103A7A006A897B89AA85BB858C859D850895DE0127
:103A8A001C960E94271F0E944A200895EE81FF81FA
:103A9A00FA93EA930895E987FA876B877C870895F2
:103AAA00AE81BF811196AE83BF8311970895AA8113
:103ABA00BB818C819D810895EA83FB836C837D831E
:103ACA000895EA81FB816C817D81A985BA858B8500
:103ADA009C850895A985BA858B859C85089510963D
:103AEA0039F080E49FE10197F1F7A8951197C9F79A
:103AFA00089530976040704009F070580895552332
:103B0A0042F4503811F4E0FF04C03196691F791F5E
:103B1A006BF050E8572711F45F93CFC05F3F31F045
:103B2A00660F000C57956795752F08955F930020CF
:103B3A000AF0CFC0C8C050E8192E1522880F991F65
:103B4A009527550F879550E8072E0522660F771F90
:103B5A007527550F67950895689401C0E8945F9397
:103B6A00F2DF703818F07F3F08F4A7C056E1571B00
:103B7A00AAF4519558300EF4593030F0EFEFFFEFB8
:103B8A006FEF7FE777F91AC077275523B9F0EE0F61
:103B9A00FF1F661F771F5A95D1F710C07727583035
:103BAA0028F0EF2FF62F672F5850F9CF552331F011
:103BBA0076956795F795E7955A95D1F700200AF417
:103BCA0059D15F910895689401C0E8943097604094
:103BDA007040B1F0002426F0772312F400944AD101
:103BEA00172E7EE1112032F07A95EE0FFF1F661F25
:103BFA00111CF9CFEF2FF62F612D5F938ADF5F91AA
:103C0A0008954F93AF01FD01DA01AB01BC01CA016E
:103C1A00402D012C142E4F910895EA0FFB1F681FA7
:103C2A000895E095F0956095EF5FFF4F6F4F089507
:103C3A005F9381DF903871F150E8152604C05F93D5
:103C4A007ADF903839F1703821F1572F591B2BF14F
:103C5A0012F4D7DFFACF583118F0AA27BB278827E2
:103C6A00583028F0AB2FB82F88275850F9CF552352
:103C7A0029F08695B795A7955A95D9F7502D5125CC
:103C8A0072F0CBDF38F46795F795E795739513F4DF
:103C9A0020C0B7DF3EDF5F910895D8F7FBCFEA1B5C
:103CAA00FB0B680B51F010F40094BBDF662392F310
:103CBA00EE0FFF1F661F7A95CBF7EE27FF276627C1
:103CCA0077275F910895EFEFFFEF6FE77FEF5F913F
:103CDA000895EFEFFFEF6FE77FE75F9108955F9336
:103CEA002ADF703851F3903841F301240894791F80
:103CFA0023F41CF300203AF3ECCF0F921F932F9377
:103D0A003F934F93112722279927689FA0018F9FDE
:103D1A00302D410D591F6B9F300D411D591F8E9F2C
:103D2A0027D0BF9F25D06A9F23D0BE9F1DD0AF9FAB
:103D3A001BD0AE9F110D291F391F491F591FE32F91
:103D4A00F42F652F522F4F913F912F911F910F9072
:103D5A0066232AF0550FEE1FFF1F661F02C07395D8
:103D6A004BF2CDDE5F910895100D211D391F02C05F
:103D7A00200D311D491F591F08955F93DCDE7038ED
:103D8A0021F411200AF49FCFA4CF903809F495CFDB
:103D9A0001240894970B1BF4D4F30020F3CF792F56
:103DAA001F932F933F934F931124112722273327D1
:103DBA004427552790E2AE17BF078607410730F020
:103DCA00AE1BBF0B860B410B089401C08894551F8C
:103DDA00221F331F111CAA1FBB1F881F441F9A953D
:103DEA0051F7F901612D4F913F912F911F91662350
:103DFA0032F0550FEE1FFF1F661F7A9543F27FDEE2
:103E0A005F91089599239AF0772342F0971748F023
:103E1A0029F4AE17BF07860720F031F098948894EA
:103E2A000895989408940895189488940895772387
:103E3A00C2F7971798F3A9F7EA17FB07680788F3F9
:103E4A0099F3ECCF0024AF0DB01D0895EA0FFB1FC4
:103E5A00681F791F0895AE0FBF1F861F971F089509
:103E6A00EA1BFB0B680B790B0895AE1BBF0B860B85
:103E7A00970B0895F09560957095E195FF4F6F4FF8
:103E8A007F4F0895EE230E2EFD0121F0F695E7955A
:103E9A000A94E1F70895EE230E2EFD01BC0131F0DC
:103EAA00EE0FFF1F661F771F0A94D1F70895EE23BE
:103EBA000E2EFD01BC0131F075956795F795E795D2
:103ECA000A94D1F70895EE230E2EFD01BC0131F0BC
:103EDA0076956795F795E7950A94D1F70895EE0FC9
:103EEA00FF1FEE0FFF1FEE0FFF1F089575956795D1
:103EFA00F795E7950895EE0FFF1F661F771F089540
:103F0A00EF2FFF27E7FDFFEF0895E62FF72F66272C
:103F1A00F7FD6FEF762F0895FE2FFF0FFF0B6F2F20
:103F2A007F2F08956F2F660F660B762F08958B2FBC
:103F3A00880F880B982F0895EA17E1E009F0EE2719
:103F4A0008957A9F702D6B9F700DF89F700DE99FF1
:103F5A00700D6A9F602D710DFB9F600D711DE89FAA
:103F6A00600D711D8827FA9FF02D610D781FEB9F58
:103F7A00F00D611D781FEA9FE02DF10D681F781F73
:103F8A00089570D0DEDF0EF475DF0895002498E0FE
:103F9A00AA0F001C0E1A10F40E0E01C0A1609A9509
:103FAA00B9F7EA2FA02D089551D0F0DF0EF4E1956C
:103FBA0008950024112490E1AA0FBB1F001C111CB4
:103FCA000E1A1F0A18F40E0E1F1E01C0A1609A9540
:103FDA0099F7FD01D00108953F934F935F93002411
:103FEA0011244427552730E2AA0FBB1F881F991FA7
:103FFA00001C111C441F551F0E1A1F0A460B570B93
:10400A0028F40E0E1F1E461F571F01C0A1603A95C5
:10401A0059F7FD01BC01D001CA015F914F913F914F
:10402A00089520D0D9DF0EF425DF0895E894A7FF7C
:10403A0002C0A1956894E7FDE195A8DFEA2F0EF486
:10404A00E1950895C9DFFD01BC010895E894E7FFF1
:10405A0002C0E1956894A7FF04C0A19500F80394F3
:10406A0000FA0895E89477FF02C004DF689497FF86
:10407A000BC00024A095B095809590951196801D4F
:10408A00901D00F8039400FA0895ED91FC911197A0
:10409A000895ED91FD916D917C9113970895E881B2
:1040AA00F9816A817B810895A881B9818A819B817E
:1040BA000895E883F9836A837B8308957A936A93E0
:1040CA00FA93EA9308959A938A93BA93AA930895CE
:1040DA00182E862F612D192E972F712D1B2EBF2F6B
:1040EA00F12D1A2EAE2FE12D0895A895E091CF015A
:1040FA00E7FDFBCFB05FEC91B051089523D0B05FDC
:10410A008C918E1711F4B05108959E2F1BD07F9376
:10411A007FB7F8949C93B051A093C001B093C101AA
:10412A0080E08093C20185E38093CA0188ED91E023
:10413A0084BF9093CB0106D080E08093CA017FBFF1
:10414A007F910895A8958091CF0187FDFBCF0895AF
:10415A0000240E160F0606060706089530976040DB
:10416A00704008955A934A933A932A931A930A935A
:10417A0008955D814C813B812A81198108810895C6
:00000001FF
