:060000000C941E010C949B
:1000060000000C9400000C9400000C9400000C946A
:1000160000000C9400000C9400000C9400000C945A
:1000260000000C9400000C9400000C9400000C944A
:1000360000000C94A3090C9400000C9400000C948E
:1000460000000C9400000C9400000C94B1090C9470
:1000560000000C9400000C9400000C9400000C941A
:1000660036080C9400000C9400000C9400000C94CC
:1000760000000C9400000C9400000C9400000C94FA
:1000860000000C9400000C9400000C9400000C94EA
:1000960000000C9400000C9400000C9400000C94DA
:1000A60000000C9400000C9400000C9400000C94CA
:1000B60000000C9400000C9400000C9400000C94BA
:1000C60000000C9400000C9400000C9400000C94AA
:1000D60000000C9400000C9400000C9400000C949A
:1000E60000000C9400000C9400000C9400000C948A
:1000F60000000C9400000C9400000C9400000C947A
:1001060000000C9400000C9400000C9400000C9469
:1001160000000C9400000C9400000C9400000C9459
:1001260000000C9400000C9400000C9400000C9449
:10013600C7090C9400000C9400000C9400000C9469
:1001460000000C9400000C9400000C9400000C9429
:1001560000000C9400000C9400000C9400000C9419
:1001660000000C9400000C9400000C9400000C9409
:1001760000000C9400000C9400000C9400000C94F9
:1001860000000C9400000C9400000C9400000C94E9
:1001960000000C9400000C9400000C9400000C94D9
:1001A60000000C9400000C9400000C9400000C94C9
:1001B60000000C9400000C9400000C9400000C94B9
:1001C60000000C9400000C9400000C9400000C94A9
:1001D60000000C9400000C9400000C9400000C9499
:1001E6000000545443315F494E5445524150540027
:1001F60072656720696E6974206F6B00696E697439
:10020600206275666572206F6B005354415254200C
:100216005748494C45004D783D2578002D4E414EB6
:10022600000001002D4E414E00494E4600000100DF
:10023600553028020000F894EE27F091CC01F860C2
:10024600F093CC01F8EDF4BFE093A200A0918000FA
:10025600AD7FA160F4BFA093800080E090E4A0E0B1
:10026600B0E2ED930197E9F7E4E3F2E08591959129
:10027600009761F0A591B59105901590BF01F00129
:1002860005900D920197E1F7FB01F0CF8BBF8CBF74
:10029600E0E0E0B9E1B9E2B9E3B9E4B9E5B9E6B954
:1002A600E7B9E8B9E9B9EAB9EBB9ECB9EDB9EEB92C
:1002B600EFB92E2E3E2E4E2E5E2E6E2E7E2E8E2EBC
:1002C6009E2EAE2EBE2ECE2EDE2EEFEFEDBFEFE52E
:1002D600EEBFC0E0D0E30C94C8091A930A9310E06D
:1002E60000E0163180F4103031F0E12FF0E0E25EEC
:1002F600FF4CE0810E0FE12FF0E0E25EFF4CA081A3
:10030600D4D61F5FEECF00933430A0913430CDD6D3
:100316000991199108950E949F0E11F5A2E0B0E08F
:10032600E0EA0E941714A3E0B0E0E0E30E9417148D
:10033600A4E0B0E0E3E30E941714A5E0B0E0E5E333
:100346000E941714A6E0B0E00E94A50E0E94B00E0F
:100356000E94B70E24F40E94BF0E3394F9CF2224D4
:100366000E949F0E09F058C0A8E0B0E0EFEA0E9494
:100376001714A9E0B0E0E1E00E941714AAE0B0E08B
:10038600E3E60E941714ABE0B0E0E0E60E94171423
:10039600ACE0B0E0E4E60E941714ADE0B0E0E0E0C7
:1003A6000E941714AEE0B0E00E941714AFE0B0E070
:1003B6000E941714A0E1B0E00E941714A1E1B0E07A
:1003C6000E941714A2E1B0E00E941714A3E1B0E066
:1003D6000E941714A4E1B0E0E8E90E941714A5E111
:1003E600B0E0EAE30E941714A6E1B0E0ECED0E944B
:1003F6001714A7E1B0E0E5E00E941714A8E1B0E009
:100406000E9417140E94D40E0E94B70E24F40E9474
:10041600E20E3394F9CF22240E949F0EC9F4AAE17A
:10042600B0E0EAEA0E941714ABE1B0E0E0E60E9411
:100436001714ACE1B0E0EAEE0E94F70E0E94010F3D
:100446000E94B70E24F40E94080F3394F9CF222499
:100456000E949F0EC9F4A6E5B0E0E2EA0E941714D6
:10046600A7E5B0E0E2E00E941714A8E5B0E0E0E0FE
:100476000E94F70E0E941D0F0E94B70E24F40E94E0
:10048600240F3394F9CF22240E949F0E11F5A9E37D
:10049600B0E0EDEA0E941714AAE3B0E0EAE50E9494
:1004A6001714ABE3B0E0E0E00E941714ACE3B0E051
:1004B600EAE50E941714ADE3B0E00E94A50E0E9483
:1004C600390F0E94B70E24F40E94400F3394F9CFDF
:1004D60022240E949F0E09F5A6E7B0E0E6EA0E94F4
:1004E6001714A7E7B0E0E0E00E941714A8E7B0E011
:1004F6000E941714A9E7B0E0E1E00E941714AAE7EA
:10050600B0E00E94A50E0E94550F0E94B70E24F47B
:100516000E945C0F3394F9CF22240E949F0E09F0AB
:100526008CC0AEE1B0E0E1EA0E941714AFE1B0E0A2
:10053600E3E50E941714A0E2B0E0E5E70E94171475
:10054600A1E2B0E0EEE60E941714A2E2B0E0E0E21B
:100556000E941714A3E2B0E0E3E50E941714A4E298
:10056600B0E0E5E60E941714A5E2B0E0E0E70E94DD
:100576001714A6E2B0E0E0E20E941714A7E2B0E08A
:10058600E2E30E941714A8E2B0E0E1E30E94171428
:10059600A9E2B0E0E0E20E941714AAE2B0E0E2E3CA
:1005A6000E941714ABE2B0E0E3E30E941714ACE23A
:1005B600B0E0EAE30E941714ADE2B0E0E3E30E9484
:1005C6001714AEE2B0E0E6E30E941714AFE2B0E023
:1005D600EAE30E941714A0E3B0E0E2E30E941714D6
:1005E600A1E3B0E0E4E30E941714A2E3B0E0E0E286
:1005F6000E941714A3E3B0E0E2E30E941714A4E3F9
:10060600B0E0E0E30E941714A5E3B0E0E1E30E9446
:100616001714A6E3B0E0E4E30E941714A7E3B0E0E2
:10062600E0E00E9417140E94710F0E94B70E24F496
:100636000E947F0F3394F9CF22240E949F0EA1F4CB
:10064600AFE3B0E0E7EA0E941714A0E4B0E0E2E40A
:100656000E9417140E94940F0E94B70E24F40E9461
:10066600A20F3394F9CF22240E949F0EC9F4A2E46C
:10067600B0E0E7E70E941714A3E4B0E0E0E00E94D0
:100686001714A4E4B0E0ECEF0E94F70E0E94B70F37
:100696000E94B70E24F40E94BE0F3394F9CF222491
:1006A6000E949F0E09F041C0AAE4B0E0EBEA0E9466
:1006B6001714ABE4B0E0E5E70E941714ACE4B0E031
:1006C600EEE60E941714ADE4B0E0E7E30E941714CB
:1006D600AEE4B0E0E0E30E941714AFE4B0E0E2E37A
:1006E6000E941714A0E5B0E0E2E60E941714A1E507
:1006F600B0E0EEE00E941714A2E5B0E0E4E00E944C
:100706001714A3E5B0E0E4E10E941714A4E5B0E0F5
:10071600EEE00E9417140E94D30F0E94B70E24F435
:100726000E94E10F3394F9CF22240E949F0E81F597
:10073600AAE5B0E0EEEA0E941714ABE5B0E0EFEFF1
:100746000E941714ACE5B0E00E941714ADE5B0E0C6
:100756000E941714AEE5B0E00E941714AFE5B0E0B2
:100766000E941714A0E6B0E00E941714A1E6B0E0BC
:100776000E941714A2E6B0E00E9417140E94F60F1A
:100786000E94B70E24F40E9404103394F9CF222459
:100796000E949F0E29F5AAE6B0E0E4EA0E9417142B
:1007A600ABE6B0E0E0E00E941714ACE6B0E0ECEF98
:1007B6000E941714ADE6B0E0E8E60E941714AEE614
:1007C600B0E0E7EF0E9417140E9419100E94211052
:1007D6000E94B70E24F40E9428103394F9CF2224E5
:1007E6000E949F0E09F5A0E7B0E0E8E50E94171405
:1007F600A1E7B0E0E0E00E941714A2E7B0E00E9493
:100806001714A3E7B0E0E1E00E941714A4E7B0E0F4
:100816000E94A50E0E943D100E94B70E24F40E946D
:1008260044103394F9CF22240E949F0EC1F4A6E40B
:10083600B0E0E6E70E941714A7E4B0E0EFEF0E94ED
:100846001714A8E4B0E00E94F70E0E9459100E9407
:10085600B70E24F40E9460103394F9CF22240E942C
:100866009F0E01F5A4E6B0E0EAE60E941714A5E69D
:10087600B0E0E0E00E941714A6E6B0E00E9417146C
:10088600A7E6B0E00E941714A8E6B0E00E94A50E05
:100896000E9475100E94B70E24F40E947C103394B7
:1008A600F9CF22240895E5EAE0931E30E8EEE093BE
:1008B6001F30E3E0E0932030E0E0E0932130E09366
:1008C6002230E1E0E0932330EFE0E0932430E0E2F1
:1008D600E0932530E9E0E0932630E0E2E09327302C
:1008E600E1E0E0932830EDEAE0932930EDE0E09393
:1008F6002A30ECEAE0932B30EDE0E0932C30E8EA86
:10090600E0932D30E1E6E0932E30E0E3E0932F30E4
:10091600E1E0E0933030E0E4E0933130E1E0E09371
:100926003230E9E8E09333300895E5E3F0E3FA93F3
:10093600EA93E0E0EA93AEE1B0E00E94800D08950C
:10094600AA2009F090C0E42DF0E0E53FA0E0FA0708
:1009560049F4E2E0AE2EE1E06E2E9924E5EFE09355
:10096600353080C0EA3CA0E0FA0719F4AA24EAEC84
:1009760078C0E03AA0E0FA0719F4AA24E0EA71C0C8
:10098600E13AA0E0FA0719F4AA24E1EA6AC0E23AD9
:10099600A0E0FA0719F4AA24E2EA63C0E43AA0E068
:1009A600FA0719F4AA24E4EA5CC0E63AA0E0FA07DA
:1009B60019F4AA24E6EA55C0E73AA0E0FA0719F4C2
:1009C600AA24E7EA4EC0EA3AA0E0FA0719F4AA24F4
:1009D600EAEA47C0EB3AA0E0FA0719F4AA24EBEAE0
:1009E60040C0ED3AA0E0FA0719F4AA24EDEA39C0AE
:1009F600EE3AA0E0FA0719F4AA24EEEA32C0EF3A7A
:100A0600A0E0FA0719F4AA24EFEA2BC0E835A0E023
:100A1600FA0719F4AA24E8E524C0EA36A0E0FA07A2
:100A260019F4AA24EAE61DC0E637A0E0FA0719F48D
:100A3600AA24E6E716C0E737A0E0FA0719F4AA24C5
:100A4600E7E70FC0E53EA0E0FA0719F4AA24E5EEB1
:100A560008C0E53BA0E0FA0719F4AA24E5EB01C0BB
:100A6600EFEF8E2E1AC0AA940E9491104082AA20FF
:100A760029F00E949110E0819E0E0EC00E949110F6
:100A8600E081E91529F4E1E0BE2E8090353004C0FE
:100A9600BB248824992449DF63940895E82DF0E067
:100AA600EF3FA0E0FA0709F4F7C1E53FA0E0FA0737
:100AB600C9F4A0913630AF3521F4A0913730AF3567
:100AC60009F00FC0A5EFF1D2A5EFEFD2A5EFEDD259
:100AD600A5E0B0E00E94C011E8EDE4BFE1E0E093DC
:100AE6007900DAC1E53EA0E0FA0751F4A09136306C
:100AF600A53E11F4A5EED9D2A5EE0E949610CBC163
:100B0600E83EA0E0FA0751F4A0913630A83E11F471
:100B1600A8EECBD2A8EE0E949610BDC1E93EA0E099
:100B2600FA0751F4A0913630A93E11F4A9EEBDD2D0
:100B3600A9EE0E949610AFC1E53BA0E0FA0759F472
:100B4600A5EBB3D2A5EBB1D2A2E0B0E00E94C011F2
:100B5600EFEF8E2EA0C1EA3CA0E0FA0741F4E1E0F7
:100B66007E2EAAECA2D2AAEC0E94961094C1E03A7C
:100B7600A0E0FA07C9F40E9419100E94B00E0E9464
:100B8600B70E24F40E94BF0E3394F9CF33243214E7
:100B960040F4A32DB0E0AE5FBF4F0E949B1033948C
:100BA600F6CF0E94A01078C1EB3AA0E0FA07B9F49C
:100BB6000E94D30F0E94B70E24F40E94E10F3394D3
:100BC600F9CF3324321440F4A32DB0E0A65BBF4F17
:100BD6000E949B103394F6CF0E94A0105DC1E23AAA
:100BE600A0E0FA07C9F40E94A5100E941D0F0E94FA
:100BF600B70E24F40E94240F3394F9CF3324321411
:100C060040F4A32DB0E0AA5ABF4F0E949B10339424
:100C1600F6CF0E94A01040C1EF3AA0E0FA07A9F46F
:100C26000E94D40E0E94B70E24F40E94E20E339462
:100C3600F9CF3324321440F4A32DB0E0A85FBF4FA0
:100C46000E949B103394F6CF22C1EA3AA0E0FA073D
:100C5600B9F40E94A5100E94010F0E94B70E24F459
:100C66000E94080F3394F9CF3324321440F4A32D95
:100C7600B0E0A65EBF4F0E949B103394F6CF07C12B
:100C8600E13AA0E0FA07A9F40E94710F0E94B70E9C
:100C960024F40E947F0F3394F9CF3324321440F4A6
:100CA600A32DB0E0A25EBF4F0E949B103394F6CFF7
:100CB600EEC0E43AA0E0FA07B9F40E9419100E94C7
:100CC60021100E94B70E24F40E9428103394F9CF05
:100CD6003324321440F4A32DB0E0A659BF4F0E942E
:100CE6009B103394F6CFD3C0E835A0E0FA07B9F4E9
:100CF6000E9419100E943D100E94B70E24F40E9413
:100D060044103394F9CF3324321440F4A32DB0E0C9
:100D1600A059BF4F0E949B103394F6CFB8C0E63A55
:100D2600A0E0FA07B9F40E9419100E94550F0E941C
:100D3600B70E24F40E945C0F3394F9CF3324321497
:100D460040F4A32DB0E0AA58BF4F0E949B103394E5
:100D5600F6CF9DC0EE3AA0E0FA07A9F40E94F60F7E
:100D66000E94B70E24F40E9404103394F9CF332462
:100D7600321440F4A32DB0E0A65ABF4F0E949B1038
:100D86003394F6CF84C0EA36A0E0FA07B9F40E949D
:100D960019100E9475100E94B70E24F40E947C1050
:100DA6003394F9CF3324321440F4A32DB0E0AC5978
:100DB600BF4F0E949B103394F6CF69C0ED3AA0E076
:100DC600FA07B9F40E9419100E94390F0E94B70E53
:100DD60024F40E94400F3394F9CF3324321440F4A4
:100DE600A32DB0E0A75CBF4F0E949B103394F6CFB3
:100DF6004EC0E73AA0E0FA07A9F40E94940F0E94B9
:100E0600B70E24F40E94A20F3394F9CF3324321480
:100E160040F4A32DB0E0A15CBF4F0E949B10339419
:100E2600F6CF35C0E737A0E0FA07B9F40E94A5105F
:100E36000E94B70F0E94B70E24F40E94BE0F33948F
:100E4600F9CF3324321440F4A32DB0E0AE5BBF4F8C
:100E56000E949B103394F6CF1AC0E637A0E0FA073B
:100E6600D9F40E94A5100E9459100E94B70E24F4CE
:100E76000E9460103394F9CF3324321440F4A32D2A
:100E8600B0E0AA5BBF4F0E949B103394F6CF22249A
:100E9600EFEF8E2EBB2449DD0895E0E0E0930406D3
:100EA600E0930006E0931006E0931106E093120625
:100EB600E0931306E0931406E0931506E0931606F6
:100EC600E0931706E0910906E07FE0930906E0E06B
:100ED600E0930A06E0930B06E0932406E0932006CF
:100EE600E0933006E0933106E0933206E093330652
:100EF600E0933406E0933506E0933606E093370632
:100F0600E0912906E07FE0932906E0E0E0932A06D7
:100F1600E0932B06E8E1E0934406E8EBE093400615
:100F2600E0E0E0935006E0935106E0935206E0932A
:100F36005306E0935406E0935506E0935606E09375
:100F46005706E0914906E07FE0934906E0E0E0932A
:100F56004A06E0934B06E0E8E0936406E0936006F9
:100F6600E0E0E0937006E0937106E0937206E0938A
:100F76007306E0937406E0937506E0937606E093B5
:100F86007706E0916906E07FE0936906E0E0E0938A
:100F96006A06E0936B06E0938406E0938006E8E138
:100FA600E0939006E0939106E0E0E0939206E093EA
:100FB6009306E0939406E0939506E0939606E093F5
:100FC6009706E0918906E07FE0938906E0E0E093EA
:100FD6008A06E0938B06E093A406E093A006E093CE
:100FE600B006E093B106E093B206E093B306E09351
:100FF600B406E093B606E093B706E091A906E07F53
:10100600E093A906E0E0E093AA06E093AB06E0933E
:10101600E407E093E007E093F007E093F107E0913F
:10102600E907E07FE093E907E0E0E093EA07E09371
:10103600EB070895E8E0E0934506E3E0E093A508B2
:10104600E091A308E07CE063E093A308E5EFE0937A
:10105600A608ECECE093A708E091A408E07EE8611E
:10106600E093A40808950E94AD105090A108409006
:10107600A008E52DEC71A9F4ED2DD394F0E0ED5A1E
:10108600FF4C4082E1E0ED1509F4DD24A0915430D7
:10109600AF5FA0935430A13021F4E0E0E0935430E8
:1010A600009A4EDC0E94BB1061C1AA93E091A10890
:1010B600E072E1F3E881E093A00820C0E0E8E09365
:1010C6006506E3E0E093B509E091B309E07CE093BF
:1010D600B309EEE6E093B609E8EAE093B709E091D2
:1010E600B409E07EE860E093B4090895AA93E0911C
:1010F600B109E072E1F3E881E093B0092196089521
:101106001A9310E01E3140F4E12FF0E0E050F04D6C
:10111600A081ECDF1F5FF6CFAAE0E8DFADE0E6DFF7
:10112600DCC01A930A931FB7F894E0910008E07F99
:10113600E560E0930008E0910108E870E09301089B
:10114600E0910308E071E0930308E0910608E07F70
:10115600E360E0930608E0910708E070E093070873
:10116600E0919900EE7F0E2FE8EDE4BF0093990021
:10117600E0918008E07CE0938008E0918308E87EB7
:10118600E0938308E0E0E0938208A4E8B8E00A2E42
:10119600AC91E0918408E470EA2BA02DEC93E091E9
:1011A6000C08E0930C08E0E0F0E0E0932008F093F0
:1011B6002108E1E1FAE7E0932608F0932708E0E04A
:1011C600F0E0E0932808F0932908E0932A08F093CA
:1011D6002B08E0932C08F0932D08E0932E08F0934B
:1011E6002F081FBFAAC01A931FB7F894E0914008B2
:1011F600E07FE460E0934008E0914108E87CE093FA
:101206004108E0914308E071E0934308E091460805
:10121600E07FE160E0934608E0914708E07FE093D5
:101226004708E0914C08E0934C08E0E0F0E0E093DA
:101236006008F0936108EFE3FCE9E0936608F09339
:101246006708E0E0F0E0E0936808F0936908E0934F
:101256006A08F0936B0840C01A931FB7F894E091A0
:101266000009E07FE160E0930009E0910109E87080
:10127600E0930109E0910309E071E0930309E0912D
:101286000609E07FE160E0930609E0910709E07056
:10129600E0930709E0910C09E0930C09E0E0F0E027
:1012A600E0932009F0932109EFE3F6EAE09326099B
:1012B600F0932709E0E0F0E0E0932809F09329098C
:1012C600E0932A09F0932B09E0932C09F0932D095A
:1012D600E0932E09F0932F091FBF199108951A93D1
:1012E6000A930FB7F894E0915000E260E093500043
:1012F600E0914100E0781E2FE8EDE4BF1093410035
:10130600E0916000EE7FE0936000E0915100E270B2
:10131600E1F3E0914000E87FE1601E2FE8EDE4BFD5
:1013260010934000E0915000E27EE0935000E0917F
:10133600B400EC7FE093B4000FBF099119910895B2
:101346000E94AD10772011F00E947001A3E0B0E07A
:101356000E94C011A3DB0E94BB1008C00E94AD1002
:101366000E94BF10E8EEF1E00E94C410E991EFBFC1
:10137600F991E991B991A991999189917991699197
:10138600F9901990099018951895F894E091A20093
:10139600E873E5601E2FE8EDE4BF1093A200E0E0DD
:1013A600E093A1009CDF79DD45DE88DE0E945604CD
:1013B6000E94BF10E6EFF1E00E94C410A2E3B0E085
:1013C6000E94C0110E94BF10E2E0F2E00E94C41029
:1013D600A2E3B0E00E94C0113FDFA3DE04DF7894F1
:1013E6000E94BF10E0E1F2E00E94C4100E948E014C
:1013F600A1E0B0E00E940E14E23010F0E93C28F0C3
:10140600A1E0B0E0E1E00E941714A1E0B0E00E9484
:101416000E14EF5F0E941714EFEFE81591F00E948B
:10142600BF10ECE1F2E0FA93EA93E82DFF27662776
:1014360077270E94F71384E02CD3289661DE0E945A
:10144600BB10EACFFFCFBA93AA931A930A93AA8145
:10145600BB8112960E94DE13309729F1AA81BB81C7
:1014660014960E94DE138F01309761F00230E0E09F
:101476001E0780F0F80131978F01AA81BB8114966F
:10148600ED93FC93AA81BB8112960E94CC103197F2
:10149600AC81A083AA81BB810E94DE13FF2312F0D8
:1014A6000E94CC1006C0AA81BB81EFEFFFEFED933F
:1014B600FC93198108810C948E0D0E94D210E0E8ED
:1014C600EA83EFE3EB830E944714EE85FF85EF3F47
:1014D600AFEFFA0749F4E885F985FA93EA93A2E2B1
:1014E600B2E00E94900DB7C0EF3FAFE7FA0749F4AC
:1014F600E885F985FA93EA93A3E2B2E00E94900D9B
:10150600AAC0AB85A73010F0E6E0EB871B85E12F7C
:101516001150E03019F00E94D910F9CFEC85FD8505
:101526006E857F850E94411421F430E00E94D91017
:101536002DC03B850E94E81009F008F40BC00E94FC
:10154600D9100E94E81028F00E94F3100E94F810AB
:10155600F8CF0DC00E94E81040F40E94F3100E94DC
:1015660004110E940B113150F5CF0E94D910EC8561
:10157600FD856E857F850E9410110E940B110E94C9
:10158600E81020F00E94F3100E94F81010E0EB859E
:10159600E117A8F1AC81BD818E819F810E94171150
:1015A6000E941011DF01CB010E94E70DEC83FD8341
:1015B6006E837F830E94F3100E940E130E94FD111A
:1015C6000E2F0E941E110E942511FF2766277727DE
:1015D6000E943612AC81BD818E819F810E94C0120D
:1015E6000E94F3100E942A110E940B11E12F1F5F27
:1015F600E03069F60E941E11EEE2EC93C8CF0E941D
:101606002F113197AA85A08330302CF43195A88507
:10161600B985EDE203C0A885B985EBE2EC930E949B
:101626002F110E942F113197BF01A32FEAE00E94CC
:101636009813E05DDB01EC930E942F113197BF01F7
:10164600A32FEAE00E94C213E05DDB01EC93A885BC
:10165600B985E0E0EC930E944E1460960895BA9323
:10166600AA93EF9761970E94451410E0FE01E85A8D
:10167600FF4F0190F081E02DE887F987FE01EA5AD5
:10168600FF4F0190F081E02DEE83FF83AE81BF8195
:10169600E0E0F0E0ED93FC93DE01A45ABF4F0E9418
:1016A600CC103197E4912E2FE03009F4E9C1E12FF7
:1016B600E03039F4253211F411E002C00E943511F0
:1016C600DEC1E130C1F4253219F40E943511D6C1CC
:1016D60012E0E0E0ED8B00E02D3211F401E0CFC125
:1016E6002B3219F4EBE2ED8BCAC1203219F4E0E299
:1016F600ED8BC5C102C0E23039F450E013E020336F
:1017060011F40068BCC102C0E33091F4203310F03C
:101716002A3308F007C0AAE05A9F502DE22FE05363
:101726005E0FADC140E02E3211F414E0A8C10FC027
:10173600E43099F4203310F02A3308F008C0006230
:10174600AAE04A9F402DE22FE0534E0F98C12C3657
:1017560019F4026015E093C103C0E53009F08FC1AA
:10176600E22FE33659F40E943C110E9443110E9475
:101776003C11A481AA930E944A1180C1E53411F05C
:10178600E53609F403C0E63609F048C0FE01769650
:10179600EE87FF870E9450110E94E2130E945711A4
:1017A6000E945C11AD85AA2332F0AD89AB3259F0A7
:1017B600A03281F017C00E945E110E94CA110E94D9
:1017C6005711EDE2ED8B07FF05C0ED89EA930E9404
:1017D6004A1108C0EE85FF853196EE87FF8731975F
:1017E600AD89A08305FF46E0263651F40E945E11BE
:1017F6000E94F7134A93AB89BC890E94FE0D09C06B
:101806000E945E110E94F7134A932A93AC89BD8900
:1018160054DEFE0176960E9463111EC0E33739F44A
:101826000E945C110E946B110E9463110EC0E0378A
:10183600C1F40E945C110E946B11EE87FF87AE8592
:10184600BF850E94A90D1E2F08600F77403011F04A
:10185600411708F001C0142F40E0E0E0EC8B30E0C7
:101866006DC0E43611F0E93611F4046002C0E537C4
:10187600A1F4EAE0EC8B01FF08C0E0E0FAEC6AE9CB
:101886007BE30E9470111AE022C0E0E1F7E260E01B
:1018960070E00E94701115E01AC0E83511F4086076
:1018A60003C0E83709F0EAC0E0E1EC8B01FF08C0AD
:1018B600E0E0F0E060E070E10E94701118E007C01F
:1018C600E0E0F0E160E070E00E94701114E040306A
:1018D60011F00F7701C041E001FF08C00E945C11C2
:1018E6000E94501114960E94E2130FC002FF07C017
:1018F6000E945C110E946B110E94851306C00E9413
:101906005C110E946B1166277727EA87FB876C8735
:101916007D8702FF12C0AD85AA2342F40E945E11A4
:101926000E9477130E945711EDE2ED8BED89E030AE
:1019360019F01F5F4F5F01C00B7F342F00FD14C0ED
:10194600151710F4351708F00FC007FF08C002FF7F
:1019560004C00B7F2D89115001C020E301C020E295
:101966000E9435115150ECCF141790F4006102FF1C
:1019760006C00E94751109F0515011504150E0E324
:10198600EA930E944A11503009F051504150ECCF71
:10199600312FEC89E030B9F43030A1F003FF06C0F6
:1019A600EE85FF852591EE87FF8705C0AE85BF854D
:1019B6002D91AE87BF870E943511503009F05150E6
:1019C6003150EACF51C00E9487110E949D132E2FDD
:1019D6002A3030F003FF02C0295C01C0295A01C039
:1019E600205D04FD21C0213360F4A889B9898A8964
:1019F6009B89A130E0E0BE07E0E08E07E0E09E07AD
:101A060009F40BC0431740F4531710F000FF01C050
:101A160010C020E207FF08C020E3006102FF04C0F7
:101A26000E94751109F051500E943511503009F08D
:101A3600515031500E9487110E94CE130E945711B7
:101A4600EC89A889B9898A899B89FF276627772720
:101A56000E949D130E947011E889F9896A897B8921
:101A66000E94411409F0AFCF00FF08C0503031F09A
:101A76005150E0E2EA930E944A11F8CF10E00CCEF2
:101A8600AE81BF810E94DE130E944C14EF966F96C2
:101A96000895FF92F82E26970E9447140E949011EF
:101AA600309719F4EFEFFFEF23C0DE0116960E9480
:101AB60073138D010E949011EE83FF83E0E0E887A7
:101AC600E987DE011A960E9473130E94DE13FA93C9
:101AD600EA931A930A93E6E2FAE0FA93EA93DE01AE
:101AE6001A96BDDD9F01AE81BF81E0E0EC93F9015E
:101AF6000E944E142A96FF900895BA93AA93B9812C
:101B0600A881109631F0FC81EB816A81619311976F
:101B1600E9F7EB81FC8125960895BA93AA93E9919A
:101B2600F991A991B991CD0105900D920020E1F7A7
:101B3600FC010895BA93AA93A991B991EE27FF27BC
:101B46006D91662311F03196FBCF0895BA93AA934F
:101B5600AA27BB27E991F9910590002011F011966B
:101B6600FBCFFD0108950E94FC137B816A81F981F8
:101B7600E88177FB770F67FD7160972F9E5781F09D
:101B860078F0983190F4AA27BB2788270894879580
:101B9600B795A7959A95D1F7EA23FB23682305C045
:101BA600E8947727EE27FF2766276F77769508F460
:101BB600606877F9A991B99189919991EA17FB071C
:101BC6006807790797FB08950E94FC130E94ED139E
:101BD6000E94B60D0E94F21319F40E94E81309C080
:101BE600E6F70E94E813A0E0B0E080E89FE30E94D9
:101BF600691224960895D3D2E0E0EA83EFE3EB83FB
:101C06001A930A93EB85FC85EF3FAFEFFA0731F4A1
:101C16008BD3AAE2B2E00E94900D8AC0EF3FAFE7F5
:101C2600FA0731F481D3ABE2B2E00E94900D80C096
:101C3600AC85AA2352F4E985FA856B857C850E94DA
:101C4600CA1177D37BD3EDE2EC93A885A73010F0C9
:101C5600E6E0E8871885E12F1150E03021F075D3D2
:101C6600E3D278D3F8CF7BD30E94701262D310E010
:101C7600E0E0F0E060E87FE36DD371D30E94531398
:101C860068F063D3BED266D31F5F173230F04CD3F1
:101C9600AFE2B2E00E94900D4BC0EFCF103021F4BE
:101CA6004DD3E0E3EC9320C0E12F1150E030E1F09A
:101CB6004CD3BAD2B2D2DF01CB010E94E70D4AD390
:101CC6004ED30E940E130E94FD110E2F37D3BAD2A7
:101CD600F0E03BD30E9485130E9436120E94C01288
:101CE60047D3B5D226D3E0CFE885E030E9F026D356
:101CF600EEE2EC93E885E150E887EF5FA9F038D390
:101D060080D217D3E985FA856B857C850E94FD1103
:101D16000E2F14D397D2F0E02BD30E9485130E9486
:101D2600361295D206D3E6CFAE81BF81E0E0EC93C2
:101D3600198108812D960895A1E0B0E00E940E1445
:101D4600EF3F0895E0E00E941714E6E02E2EE1E052
:101D56003E2EE22DF0E031970895EE5FFF4FDF0152
:101D6600E0E00E9417140895E22DF0E03197A32DCC
:101D7600B0E0AE17BF070895E22DF0E03197EE5FB1
:101D8600FF4FBF01DF010E940E140E2EA32DB0E0FF
:101D9600AE5FBF4F0E940E14E00DDB010E941714C8
:101DA6000895E2E12E2EE1E03E2EE22DF0E031979D
:101DB600E85FFF4FDF01E0E00E9417140895E22D6F
:101DC600F0E03197E85FFF4FBF01DF010E940E147C
:101DD6000E2EA32DB0E0A85FBF4F0E940E14E00D9B
:101DE600DB010E94171408950E941714E4E02E2EBA
:101DF600E1E03E2EE22DF0E031970895E65EFF4FDA
:101E0600DF01E0E00E9417140895E22DF0E031971B
:101E1600E65EFF4FBF01DF010E940E140E2EA32DBA
:101E2600B0E0A65EBF4F0E940E14E00DDB010E94DB
:101E360017140895EA5AFF4FDF01E0E00E941714D5
:101E46000895E22DF0E03197EA5AFF4FBF01DF0116
:101E56000E940E140E2EA32DB0E0AA5ABF4F0E9468
:101E66000E14E00DDB010E9417140895E75CFF4F86
:101E7600DF01E0E00E9417140895E22DF0E03197AB
:101E8600E75CFF4FBF01DF010E940E140E2EA32D4B
:101E9600B0E0A75CBF4F0E940E14E00DDB010E946C
:101EA60017140895EA58FF4FDF01E0E00E94171467
:101EB6000895E22DF0E03197EA58FF4FBF01DF01A8
:101EC6000E940E140E2EA32DB0E0AA58BF4F0E94FA
:101ED6000E14E00DDB010E9417140895EBE12E2E7F
:101EE600E1E03E2EE22DF0E03197E25EFF4FDF01AA
:101EF600E0E00E9417140895E22DF0E03197E25ECB
:101F0600FF4FBF01DF010E940E140E2EA32DB0E07D
:101F1600A25EBF4F0E940E14E00DDB010E94171453
:101F26000895E3E02E2EE1E03E2EE22DF0E031971B
:101F3600E15CFF4FDF01E0E00E9417140895E22DF7
:101F4600F0E03197E15CFF4FBF01DF010E940E1404
:101F56000E2EA32DB0E0A15CBF4F0E940E14E00D23
:101F6600DB010E9417140895EE5BFF4FDF01E0E0EE
:101F76000E9417140895E22DF0E03197EE5BFF4FB3
:101F8600BF01DF010E940E140E2EA32DB0E0AE5B42
:101F9600BF4F0E940E14E00DDB010E941714089536
:101FA600ECE02E2EE1E03E2EE22DF0E03197E65BEE
:101FB600FF4FDF01E0E00E9417140895E22DF0E0E4
:101FC6003197E65BFF4FBF01DF010E940E140E2E14
:101FD600A32DB0E0A65BBF4F0E940E14E00DDB01FF
:101FE6000E9417140895EAE02E2EE1E03E2EE22D1F
:101FF600F0E03197E65AFF4FDF01E0E00E94171448
:102006000895E22DF0E03197E65AFF4FBF01DF0158
:102016000E940E140E2EA32DB0E0A65ABF4F0E94AA
:102026000E14E00DDB010E9417140895E6E02E2E33
:10203600E1E03E2EE22DF0E031970895E659FF4F9C
:10204600DF01E0E00E9417140895E22DF0E03197D9
:10205600E659FF4FBF01DF010E940E140E2EA32D7D
:10206600B0E0A659BF4F0E940E14E00DDB010E949E
:1020760017140895E059FF4FDF01E0E00E9417149E
:102086000895E22DF0E03197E059FF4FBF01DF01DF
:102096000E940E140E2EA32DB0E0A059BF4F0E9431
:1020A6000E14E00DDB010E9417140895EA5BFF4F42
:1020B600DF01E0E00E9417140895E22DF0E0319769
:1020C600EA5BFF4FBF01DF010E940E140E2EA32D07
:1020D600B0E0AA5BBF4F0E940E14E00DDB010E9428
:1020E60017140895EC59FF4FDF01E0E00E94171422
:1020F6000895E22DF0E03197EC59FF4FBF01DF0163
:102106000E940E140E2EA32DB0E0AC59BF4F0E94B4
:102116000E14E00DDB010E9417140895E62DF0E081
:10212600EB5CFF4C08950E945808EFEF8E2E089541
:102136000E940E14AE2F0C9458082224EFEF8E2E18
:10214600BB240895E4E02E2EE1E03E2EE22DF0E0E1
:10215600319708950A921A92FA926A937A938A9319
:102166009A93AA93BA93EA93FA93EFB7EA930895E8
:10217600A1E0B0E00C94C011E0E0F0E3FA93EA933A
:102186000895FA93EA9380E00E944C0D24960C94ED
:1021960083080E94DE133196ED93FC930895BA935B
:1021A600AA932497E0E0E883E9830895AC81BD8192
:1021B6008E819F81E0E0F0E060E271E40E94C0124F
:1021C600EC83FD836E837F830895EC81FD816E81B0
:1021D6007F81AC85BD858E859F850E9453130895AA
:1021E600AC85BD858E859F850895EDECFCEC6CEC89
:1021F6007DE30E94C012EC87FD876E877F873F5F75
:102206000895E0E0F0E060E271E40E94C0120895F3
:10221600EC87FD876E877F870895A0E0B0E080E0B9
:102226009FE30E9470120895EDECFCEC6CEC7DE3EC
:102236000E94C0120895A885B9851196A887B98706
:1022460011970895E02FE05DEC93E02F08950E942A
:1022560001140E9469120895E885F9853196E88788
:10226600F98708952A93AF81B885E985FA85099596
:102276000895FE01E65AFF4F0190F081E02D089582
:102286003497DE01A65ABF4FED93FC930895AF81B4
:10229600B885E985FA8509950895DE01A65ABF4FE6
:1022A6000D90BC91A02D0895EA87FB876C877D87EA
:1022B6000895DFDFE5CFEA85FB856C857D8508958A
:1022C600EE87FF87AE85BF850E949D0D1E2F089560
:1022D600E4DF14960E94DE130895E88BF98B6A8B6F
:1022E6007B8B08950B7FED89EA93DE01A95ABF4FD8
:1022F6000D90BC91A02DFE01E75AFF4F0190F08191
:10230600E02D099550300895E889F9896A897B8915
:10231600AA85BB858C859D850895DE011C960E9445
:1023260073130E94DE130895EE81FF81FA93EA93F8
:102336000895E987FA876B877C870895AE81BF8108
:102346001196AE83BF8311970895AA81BB818C81B4
:102356009D810895EA83FB836C837D830895EA81DA
:10236600FB816C817D81A985BA858B859C850895C5
:10237600A985BA858B859C850895109639F080E4E9
:102386009FE10197F1F7A8951197C9F7089530973E
:102396006040704009F070580895552342F4503853
:1023A60011F4E0FF04C03196691F791F6BF050E805
:1023B600572711F45F93CFC05F3F31F0660F000CD3
:1023C60057956795752F08955F9300200AF0CFC043
:1023D600C8C050E8192E1522880F991F9527550F4A
:1023E600879550E8072E0522660F771F7527550F2C
:1023F60067950895689401C0E8945F93F2DF70389A
:1024060018F07F3F08F4A7C056E1571BAAF4519570
:1024160058300EF4593030F0EFEFFFEF6FEF7FE7F3
:1024260077F91AC077275523B9F0EE0FFF1F661FFD
:10243600771F5A95D1F710C07727583028F0EF2F1D
:10244600F62F672F5850F9CF552331F076956795BB
:10245600F795E7955A95D1F700200AF445D15F9193
:102466000895689401C0E894309760407040B1F0D8
:10247600002426F0772312F4009436D1172E7EE13D
:10248600112032F07A95EE0FFF1F661F111CF9CF4F
:10249600EF2FF62F612D5F938ADF5F9108954F939B
:1024A600AF01FD01DA01AB01BC01CA01402D012CCF
:1024B600142E4F910895EA0FFB1F681F0895E095AB
:1024C600F0956095EF5FFF4F6F4F08955F9381DF43
:1024D600903871F150E8152604C05F937ADF903882
:1024E60039F1703821F1572F591B2BF112F4D7DF30
:1024F600FACF583118F0AA27BB278827583028F07A
:10250600AB2FB82F88275850F9CF552329F0869539
:10251600B795A7955A95D9F7502D512572F0CBDF6F
:1025260038F46795F795E795739513F420C0B7DFF0
:102536003EDF5F910895D8F7FBCFEA1BFB0B680BD4
:1025460051F010F40094BBDF662392F3EE0FFF1FE9
:10255600661F7A95CBF7EE27FF27662777275F91C9
:102566000895EFEFFFEF6FE77FEF5F910895EFEFCD
:10257600FFEF6FE77FE75F9108955F932ADF70387B
:1025860051F3903841F301240894791F23F41CF386
:1025960000203AF3ECCF0F921F932F933F934F9364
:1025A600112722279927689FA0018F9F302D410D63
:1025B600591F6B9F300D411D591F8E9F27D0BF9FFE
:1025C60025D06A9F23D0BE9F1DD0AF9F1BD0AE9F44
:1025D600110D291F391F491F591FE32FF42F652F8E
:1025E600522F4F913F912F911F910F9066232AF002
:1025F600550FEE1FFF1F661F02C073954BF2CDDE0F
:102606005F910895100D211D391F02C0200D311D47
:10261600491F591F08955F93DCDE703821F411209D
:102626000AF49FCFA4CF903809F495CF01240894DB
:10263600970B1BF4D4F30020F3CF792F1F932F931E
:102646003F934F93112411272227332744275527D9
:1026560090E2AE17BF078607410730F0AE1BBF0BEF
:10266600860B410B089401C08894551F221F331F07
:10267600111CAA1FBB1F881F441F9A9551F7F90109
:10268600612D4F913F912F911F91662332F0550F87
:10269600EE1FFF1F661F7A9543F27FDE5F91089556
:1026A60099239AF0772342F0971748F029F4AE174A
:1026B600BF07860720F031F098948894089598947F
:1026C600089408951894889408957723C2F7971765
:1026D60098F3A9F7EA17FB07680788F399F3ECCF95
:1026E6000024AF0DB01D0895F09560957095E195A5
:1026F600FF4F6F4F7F4F0895FE2FFF0FFF0B6F2F7A
:102706007F2F08956F2F660F660B762F089500248E
:1027160098E0AA0F001C0E1A10F40E0E01C0A1605C
:102726009A95B9F7EA2FA02D089539D0F0DF0EF467
:10273600E19508953F934F935F9300241124442716
:10274600552730E2AA0FBB1F881F991F001C111CBA
:10275600441F551F0E1A1F0A460B570B28F40E0E60
:102766001F1E461F571F01C0A1603A9559F7FD016C
:10277600BC01D001CA015F914F913F910895E89441
:10278600A7FF02C0A1956894E7FDE195C0DFEA2F97
:102796000EF4E1950895CEDFFD01BC010895E8949D
:1027A600E7FF02C0E1956894A7FF04C0A19500F871
:1027B600039400FA0895ED91FC9111970895ED9117
:1027C600FD916D917C9113970895E881F9816A8155
:1027D6007B810895A881B9818A819B810895E883C8
:1027E600F9836A837B8308957A936A93FA93EA93CB
:1027F60008959A938A93BA93AA930895182E862FCA
:10280600612D192E972F712D1B2EBF2FF12D1A2EEC
:10281600AE2FE12D0895A895E091CF01E7FDFBCFFE
:10282600B05FEC91B051089523D0B05F8C918E17B4
:1028360011F4B05108959E2F1BD07F937FB7F89463
:102846009C93B051A093C001B093C10180E08093E6
:10285600C20185E38093CA0188ED91E084BF90931D
:10286600CB0106D080E08093CA017FBF7F91089597
:10287600A8958091CF0187FDFBCF089530976040E2
:10288600704008955A934A933A932A931A930A9357
:1028960008955D814C813B812A81198108810895C3
:00000001FF
