:0C0000000C9492020C9400000C94000080
:10000C000C9400000C9400000C9400000C94000064
:10001C000C9400000C9400000C9400000C94000054
:10002C000C9400000C9400000C9400000C9401182B
:10003C000C9400000C9400000C9400000C94000034
:10004C000C9400000C9417180C9400000C940000F5
:10005C000C9400000C9400000C94D9090C94000032
:10006C000C9400000C9400000C9400000C94000004
:10007C000C9400000C9400000C9400000C940000F4
:10008C000C9400000C9400000C9400000C940000E4
:10009C000C9400000C9400000C9400000C940000D4
:1000AC000C9400000C9400000C9400000C947E1135
:1000BC000C9400000C9400000C9400000C940000B4
:1000CC000C9400000C9400000C9400000C940000A4
:1000DC000C9400000C9400000C9400000C94000094
:1000EC000C9400000C9400000C9400000C94000084
:1000FC000C9400000C9400000C9400000C94000074
:10010C000C9400000C9400000C9400000C94000063
:10011C000C9400000C9400000C9400000C94000053
:10012C000C9400000C9400000C9468190C940000C2
:10013C000C9400000C9400000C9400000C94000033
:10014C000C9400000C9400000C9400000C94000023
:10015C000C9400000C9400000C9400000C94000013
:10016C000C9400000C9400000C9400000C94000003
:10017C000C9400000C9400000C9400000C940000F3
:10018C000C9400000C9400000C9400000C940000E3
:10019C000C9400000C9400000C9400000C940000D3
:1001AC000C9400000C9471190C9400000C94000039
:1001BC000C9400000C9400000C9400000C940000B3
:1001CC000C9400000C9400000C9400000C940000A3
:1001DC000C9400000C9400000C940000DE02DF0272
:1001EC00EB02EB02F60203030E031903290333039C
:1001FC003C034E036103720381039203A20320228A
:10020C002A2B2C5B3D5D7C7F00000004000200016A
:10021C0080004000200010000800040002000000D4
:10022C00008000400020001000080040002000105A
:10023C00000800040002FF000000000000000000A5
:10024C00000000000100000001000000B2070000E7
:10025C0080DE28008033E101000000001F00000058
:10026C001C0000001F0000001E0000001F0000000A
:10027C001E0000001F0000001F0000001E000000F8
:10028C001F0000001E0000001F0000000000000006
:10029C001F0000001C0000001F0000001E000000DA
:1002AC001F0000001E0000001F0000001F000000C7
:1002BC001E0000001F0000001E0000001F000000B8
:1002CC00303A2F746573742E747874000100030037
:1002DC0001000046525F4449534B5F455252004661
:1002EC00525F494E545F4552520046525F4E4F5436
:1002FC005F52454144590046525F4E4F5F46494C50
:10030C00450046525F4E4F5F504154480046525F85
:10031C00494E56414C49445F4E414D450046525F53
:10032C0044454E4945440046525F45584953540094
:10033C0046525F494E56414C49445F4F424A4543F1
:10034C00540046525F57524954455F50524F5445E2
:10035C00435445440046525F494E56414C49445F14
:10036C0044524956450046525F4E4F545F454E41EC
:10037C00424C45440046525F4E4F5F46494C4553F4
:10038C00595354454D0046525F4D4B46535F4142C5
:10039C004F525445440046525F54494D454F5554B5
:1003AC00004552524F523A2025700D0A00303A2F18
:1003BC00256C642E62696E0025366C64004C6F6788
:1003CC006963616C20647269766520303A206D6FC8
:1003DC00756E746564204F4B0D0A0046696C652080
:1003EC0025732063726561746564204F4B0D0A00A0
:1003FC0074686973206973207465737400257520A3
:10040C006279746573207772697474656E206F6697
:10041C002025750D0A0066696C6520736420636184
:10042C0072640046696C6520257320636C6F73657C
:10043C0064204F4B0D0A0046696C6520657374206F
:10044C00797A650073746172742069326300627525
:10045C006620693263207374617274206F6B006262
:10046C006D7020693263207374617274206F6B003D
:10047C00535049205354415254006164373730353E
:10048C00207374617274206F6B00737461727420CA
:10049C00646576696365005354415254205748494A
:1004AC004C4500000100EBFE904D53444F53352E4C
:1004BC0030004E4F204E414D4520202020464154C7
:1004CC003332202020004E4F204E414D452020201D
:1004DC00204641542020202020002D4E414E00006B
:1004EC0001002D4E414E00494E46000001004A319C
:1004FC0042020B00B735CC020100C335D802010013
:10050C002C36DA020100B336DC020100BD36B00431
:10051C000100C636EC040000F894EE27F091CC01F3
:10052C00F860F093CC01F8EDF4BFE093A200A09139
:10053C008000AD7FA160F4BFA093800080E090E4C8
:10054C00A0E0B0E2ED930197E9F7E8EFF4E08591D4
:10055C009591009761F0A591B59105901590BF010B
:10056C00F00105900D920197E1F7FB01F0CF8BBFE5
:10057C008CBFE0E0E0B9E1B9E2B9E3B9E4B9E5B9BF
:10058C00E6B9E7B9E8B9E9B9EAB9EBB9ECB9EDB94B
:10059C00EEB9EFB93E2E4E2E5E2E6E2E7E2E8E2E88
:1005AC009E2EAE2EE1E0BE2EE0E0CE2EDE2EEFEF44
:1005BC00EDBFEFE5EEBFC0E0D0E30C94D119AA93E8
:1005CC001A93E2E0E093CA01E981F0E01491E0E0D3
:1005DC00E093CA01E12F188160C4A0E2F0DFE09340
:1005EC000C02A1E2ECDFE0930D02E0E0E0930102EB
:1005FC00E3E0E0930402E1E1E0930202E0E0E09347
:10060C001802E0931902E1E0E0932002E0E2E093AB
:10061C002102E1E0E0932802E8E2E0932902E1E024
:10062C00E0933002E0E3E0933102E1E0E093380242
:10063C00E8E3E0933902E0E0E0930302E093220266
:10064C00E0932A02E0933202E0933A02E091000236
:10065C00E160E09300024CC0AA930E94E342EC815B
:10066C00F0E0A0E2B2E00E94E235F801A381A170B3
:10067C00E1F34FC0A4E2A3DFE0934C02A5E29FDFBD
:10068C00E0934D02E0E0E0934102E3E0E0934402AA
:10069C00E0E1E0934202E0E0E0935802E09359027B
:1006AC00E1E0E0936002E0E0E0936102E1E0E093DE
:1006BC006802E8E0E0936902E1E0E0937002E0E1B7
:1006CC00E0937102E1E0E0937802E8E1E0937902D3
:1006DC00E0E0E0934302E0936202E0936A02E0936D
:1006EC007202E0937A02E0914002E160E0934002F2
:1006FC0085E18A95F1F70895AA930E94E342EC8173
:10070C00F0E0A0E6B2E00E94E235F801A381A1700E
:10071C00E1F3D8011396E1E0EC93F80124813581E3
:10072C00F9010E94EA42259608951A930A93E091E2
:10073C00E407EE7FE093E40710E000E0163188F464
:10074C00103031F0E12FF0E0EC5EFE4CE0810E0F4A
:10075C00E12FF0E0EC5EFE4CA0810E94BC0F1F5F0D
:10076C00EDCF00932A31A0912A310E94BC0FE09169
:10077C00E407E160E093E407099119910895E0EA38
:10078C00E0937730E0E3E0937830E3E3E093793083
:10079C00E5E3E0937A30E0E0E0937B300E94EC35C7
:1007AC00E958FF4CA0E0A0830E94F7350E94FC356D
:1007BC003CF40E94F7350E9402360E941036F4CFAA
:1007CC00E0E0E093C030EFEAE0937D30E1E0E093CD
:1007DC007E30E3E6E0937F30E0E6E0938030E4E6C1
:1007EC00E0938130E0E0E0938230E0938330E0935B
:1007FC008430E0938530E0938630E0938730E0934B
:10080C008830E8E9E0938930EAE3E0938A30ECED54
:10081C00E0938B30E5E0E0938C30E0938D300E94D8
:10082C001636E358FF4CA0E0A0830E94F7350E94D7
:10083C00FC353CF40E94F7350E941D360E941036A0
:10084C00F4CFE0E0E093C030EAEAE0938F30E0E6EA
:10085C00E0939030EAEEE09391300E942B36E15712
:10086C00FF4CA0E0A0830E94F7350E94FC353CF4BD
:10087C000E94F7350E9432360E941036F4CFE0E029
:10088C00E093C030E2EAE093CD30E1E0E093CE308B
:10089C00E0E0E093CF300E942B36E353FF4CA0E016
:1008AC00A0830E94F7350E94FC353CF40E94F7357A
:1008BC000E9440360E941036F4CFE0E0E093C03046
:1008CC00EDEAE093AE30EAE5E093AF30E0E0E093A0
:1008DC00B030EAE5E093B130E0E0E093B2300E9452
:1008EC00EC35E255FF4CA0E0A0830E94F7350E9446
:1008FC00FC353CF40E94F7350E944E360E941036AF
:10090C00F4CFE0E0E093C030E6EAE093ED30E0E0D5
:10091C00E093EE30E093EF30E1E0E093F030E0E094
:10092C00E093F1300E94EC35E351FF4CA0E0A08342
:10093C000E94F7350E94FC353CF40E94F7350E946A
:10094C005C360E941036F4CFE0E0E093C030E1EA70
:10095C00E0939330E3E5E0939430E5E7E093953052
:10096C00EEE6E0939630E0E2E0939730E3E5E09337
:10097C009830E5E6E0939930E0E7E0939A30E0E2D6
:10098C00E0939B30E2E3E0939C30E1E3E0939D3015
:10099C00E0E2E0939E30E2E3E0939F30E3E3E09308
:1009AC00A030EAE3E093A130E3E3E093A230E6E386
:1009BC00E093A330EAE3E093A430E2E3E093A530C4
:1009CC00E4E3E093A630E0E2E093A730E2E3E093C7
:1009DC00A830E0E3E093A930E1E3E093AA30E4E34C
:1009EC00E093AB30E0E0E093AC300E946A36ED5619
:1009FC00FF4CA0E0A0830E94F7350E94FC353CF42C
:100A0C000E94F7350E9471360E941036F4CFE0E058
:100A1C00E093C030E7EAE093B430E2E4E093B53021
:100A2C000E947F36EC54FF4CA0E0A0830E94F73567
:100A3C000E94FC353CF40E94F7350E9486360E94D9
:100A4C001036F4CFE0E0E093C030E7E7E093B73046
:100A5C00E0E0E093B830ECEFE093B9300E942B3635
:100A6C00E954FF4CA0E0A0830E94F7350E94FC35AE
:100A7C003CF40E94F7350E9494360E941036F4CF55
:100A8C00E0E0E093C030EBEAE093C130E5E7E093BF
:100A9C00C230EEE6E093C330E7E3E093C430E0E32A
:100AAC00E093C530E2E3E093C630E2E6E093C73072
:100ABC00EEE0E093C830E4E0E093C930E4E1E09389
:100ACC00CA30EEE0E093CB300E94A236EF53FF4CDD
:100ADC00A0E0A0830E94F7350E94FC353CF40E94F4
:100AEC00F7350E94A9360E941036F4CFE0E0E0936F
:100AFC00C030EEEAE093D130EFEFE093D230E093E8
:100B0C00D330E093D430E093D530E093D630E093FB
:100B1C00D730E093D830E093D9300E94B736EF52FB
:100B2C00FF4CA0E0A0830E94F7350E94FC353CF4FA
:100B3C000E94F7350E94BE360E941036F4CFE0E0DA
:100B4C00E093C030E4EAE093E130E0E0E093E2309F
:100B5C00ECEFE093E330E8E6E093E430E7EFE0938A
:100B6C00E5300E94EC35EF51FF4CA0E0A0830E94D1
:100B7C00F7350E94FC353CF40E94F7350E94CC36C8
:100B8C000E941036F4CFE0E0E093C030E8E5E0934B
:100B9C00E730E0E0E093E830E093E930E1E0E09327
:100BAC00EA30E0E0E093EB300E94EC35E951FF4C89
:100BBC00A0E0A0830E94F7350E94FC353CF40E9413
:100BCC00F7350E94DA360E941036F4CFE0E0E0935D
:100BDC00C030E6E7E093BB30EFEFE093BC30E0933E
:100BEC00BD300E942B36E554FF4CA0E0A0830E9440
:100BFC00F7350E94FC353CF40E94F7350E94E8362C
:100C0C000E941036F4CFE0E0E093C030EAE6E093C7
:100C1C00DB30E0E0E093DC30E093DD30E093DE307D
:100C2C00E093DF300E94EC35E552FF4CA0E0A0834E
:100C3C000E94F7350E94FC353CF40E94F7350E9467
:100C4C00F6360E941036F4CFE0E0E093C030089501
:100C5C00E5EAE0931431E0E4E0931531EFE1E09341
:100C6C001631E8E7E0931731E0E0E0931831EBEB55
:100C7C00E0931931EBE0E0931A31E0E0E0931D31A1
:100C8C00E8E0E0931E31EDEAE0931F31EDE0E093F4
:100C9C002031ECEAE0932131EDE0E0932231E0E108
:100CAC00E0932331E7E2E0932431E0E0E093253157
:100CBC00E4E0E0932631E0E0E0932731E6E0E093D6
:100CCC002831E0E0E09329310895E0E0E093040658
:100CDC00E0930006E0931006E0931106E0931206F1
:100CEC00E0931306E0931406E0931506E0931606C2
:100CFC00E0931706E0910906E07FE0930906E0E037
:100D0C00E0930A06E0930B06E0932406E09320069A
:100D1C00E0933006E0933106E0933206E09333061D
:100D2C00E0933406E0933506E0933606E0933706FD
:100D3C00E0912906E07FE0932906E0E0E0932A06A3
:100D4C00E0932B060E940437E0E0E0935006E8E1C4
:100D5C00E0935106E0E0E0935206E0935306E093F3
:100D6C005406E0935506E0935606E0935706E0913F
:100D7C004906E07FE0934906E0E0E0934A06E09301
:100D8C004B06E0E8E0936406E0936006E0E0E09355
:100D9C007006E0937106E0937206E0937306E0939D
:100DAC007406E0937506E0937606E0937706E0917F
:100DBC006906E07FE0936906E0E0E0936A06E09361
:100DCC006B06E0938406E0938006E0918006E06178
:100DDC00E0938006E0E0E0939006E0939106E0E17A
:100DEC00E0939206E0E0E0939306E0939406E093A0
:100DFC009506E0939606E0939706E0918906E07FCE
:100E0C00E0938906E0E0E0938A06E0938B06E0939A
:100E1C00A406E093A006E093B006E093B106E0933D
:100E2C00B206E093B306E093B406E093B606E09303
:100E3C00B706E091A906E07FE093A906E0E0E09315
:100E4C00AA06E093AB06EFE0E093E407E093E0073B
:100E5C00E0E0E093F007E093F107E091E907E07F31
:100E6C00E093E907E0E0E093EA07E093EB070895ED
:100E7C00BA93AA93E0E1E0932104E0912104E0719C
:100E8C00E1F7E0912404F09125046091260470911F
:100E9C002704A881B9810E944742229608951A938B
:100EAC00E8EDE4BFE091F000E260E093F000E09147
:100EBC005200EF7DE0935200E12FEE7FE8601E2F91
:100ECC00E8EDE4BF1093F000E091F100E870E1F37D
:100EDC001460E8EDE4BF1093F000E0E0E093200430
:100EEC00E0912104E171E1F70E940B37E0912104BC
:100EFC00E061E09321040E941837E0932C04F093F6
:100F0C002D0460932E0470932F04E1E0E0932004F1
:100F1C00E0E0E093220419910895E8EDE4BFE0E0ED
:100F2C00E0932004E0912104E171E1F70E940B377A
:100F3C000E941D370E942637E0912104E061E09366
:100F4C002104E1E0E09320040895BA93AA93EF976B
:100F5C00659784E5A0E0B0E0E4E4F2E00E94EF42A3
:100F6C00FE01E85AFF4F0190119061917081F001E0
:100F7C000E942F370E9436370E94DE40FE01E45A51
:100F8C00FF4FA193B19381939083EC8DFD8D6E8D6A
:100F9C007F8D0E9436370E94D7424CF50E943F3716
:100FAC000E94443749F40E944D370E94523719F47D
:100FBC000E945B3709F401C003C00E94653702C070
:100FCC000E9418370E946A370E946D37EC8FFD8F94
:100FDC006E8F7F8F0E943F370E947A370E947F3737
:100FEC00AC8DBD8D8E8D9F8D0E948437CECF0E948F
:100FFC00963739F40E94983719F40E945B3709F43C
:10100C0001C003C00E94653702C00E9418370E94BD
:10101C006A370E949A3729F0EDE1F0E060E070E069
:10102C0004C0ECE1F0E060E070E0E8A7F9A76AA783
:10103C007BA7E88DF98D6A8D7B8D0E9436370E94D7
:10104C00DC42BCF0E889F989DE0190960E949F375A
:10105C00E88FF98F6A8F7B8F0E94AC370E947A37AA
:10106C000E94B137A88DB98D8A8D9B8D0E948437D3
:10107C00E0CF0E94B6370E94E441EF5FFF4F6F4F05
:10108C007F4F0E94BC370E94B6370E94C1370E9426
:10109C00CB370E94E4410E94D0370E9436370E9421
:1010AC00CB370E94C137ECE3F0E060E070E00E94C7
:1010BC00E4410E94D5370E943637ECE3F0E060E063
:1010CC0070E00E94F941DE01A45ABF4FED93FD93ED
:1010DC006D937C930E943F370E94DA377F936F9316
:1010EC00FF93EF930E94AC370E94E137AF91BF9111
:1010FC008F919F910E94CF400E94E8370E94CF4071
:10110C00DE01AA5ABF4F0D90BC91A02D0E94474200
:10111C000E94ED370E94DA377F936F93FF93EF9322
:10112C000E94F2370E94E137AF91BF918F919F914E
:10113C000E94CF400E9436370E94CF40DE01AC5A4D
:10114C00BF4F0D90BC91A02D0E944742EF96A196E7
:10115C000895BA93AA93EF972D9784E3A8E1B0E092
:10116C00E8E9F2E00E94EF420E94F7370E94BF418B
:10117C000E947F370E94F7370E9404380E94B137D3
:10118C00DE01AA5ABF4F0D901D908D919C91D001FC
:10119C000E940F380E94BC370E9416380E94BF4133
:1011AC000E94D0370E9416380E9404380E94D5370E
:1011BC000E94963739F40E94983719F40E945B37D5
:1011CC0009F401C003C00E94653702C00E941837A1
:1011DC000E946A37DE01AE5ABF4F0D901D908D9163
:1011EC009C91D0010E940F387F936F93FF93EF93E4
:1011FC000E94F237ACE3B0E080E090E00E949441B2
:10120C00AF91BF918F919F910E94CF407F936F932D
:10121C00FF93EF93FE01E25BFF4F01901190619100
:10122C007081F0010E9423380E94D4400E94CB3779
:10123C000E946E41AF91BF918F919F910E94CF40C0
:10124C007F936F93FF93EF930E9428380E942D3861
:10125C00A8E1B0E080E090E00E9494410E942F371A
:10126C00AF91BF918F919F910E94CF400E943238D5
:10127C000E9447420E949A3729F0EDE1F0E060E0CD
:10128C0070E004C0ECE1F0E060E070E0E8A3F9A3EA
:10129C006AA37BA30E94AC370E942D380E94B13701
:1012AC000E9439380E94D14214F50E943238BF9303
:1012BC00AF930E943C427F936F93FF93EF93E88927
:1012CC00F989DE0158960E949F37AF91BF918F919B
:1012DC009F910E94CF40AF91BF910E9447420E94C4
:1012EC00AC373197604070400E94B137D9CF0E9423
:1012FC003F370E942D380E947F370E944D37A23B0A
:10130C00E7E0BE07E0E08E07E0E09E0784F10E9474
:10131C00963739F40E94983719F40E945B3709F418
:10132C0001C003C00E94653702C00E9418370E949A
:10133C006A370E943238BF93AF930E943C427F932E
:10134C006F93FF93EF930E946D37AF91BF918F9185
:10135C009F910E94CF40AF91BF910E9447420E9443
:10136C003F373197604070400E947F37C6CFEF9671
:10137C006B960895E8E0E0934506E3E0E093A5085A
:10138C00E091A308E07CE063E093A308E5EFE09331
:10139C00A608ECECE093A708E091A408E07EE861D5
:1013AC00E093A40808950E943E38E091A108E093D0
:1013BC001231E091A008E0931331E0911231EC71FD
:1013CC0041F4EA2DF0E0E95CFF4CA0911331A083CD
:1013DC00A394E0914A31F0E0EF3FA0E0FA0709F066
:1013EC0008C3E0913730F0E0EF3FA0E0FA0731F4AA
:1013FC000E944C38EFEFE0933730F9C2EA3CA0E0A2
:10140C00FA0721F4EAEC0E945238F1C2E53FA0E061
:10141C00FA0721F4E5EF0E945238E9C2E53BA0E05F
:10142C00FA0721F4E5EB0E945A38E1C2EA3EA0E04B
:10143C00FA0721F4EAEE0E945238D9C2E53EA0E048
:10144C00FA0721F4E5EE0E946238D1C2E73EA0E033
:10145C00FA0721F4E7EE0E946238C9C2E036A0E038
:10146C00FA0721F4E0E60E945238C1C2E83EA0E03F
:10147C00FA0721F4E8EE0E946A38B9C2E93EA0E00E
:10148C00FA0721F4E9EE0E946A38B1C2E13DA0E00E
:10149C00FA0749F4E1EDE0934A31E5E0BE2EEFEFB7
:1014AC00E0933730A4C2E33DA0E0FA0721F4E3ED6A
:1014BC000E945A389CC2E53DA0E0FA0721F4E5ED04
:1014CC000E94723892C2E73DA0E0FA0721F4E7EDE2
:1014DC000E9472388AC2E03AA0E0FA0739F50E94FD
:1014EC0078380E94EC35E958FF4CA0E0A0830E94AC
:1014FC00F7350E94FC353CF40E94F7350E94023609
:10150C000E941036F4CFE0E0E093BF300E947D38AB
:10151C0050F4E091BF30F0E0E958FF4CA08126D5A3
:10152C000E941036F3CF0E94833861C2E13AA0E0EA
:10153C00FA0739F50E9478380E946A36ED56FF4C4E
:10154C00A0E0A0830E94F7350E94FC353CF40E9479
:10155C00F7350E9471360E941036F4CFE0E0E0932C
:10156C00BF300E947D3850F4E091BF30F0E0ED5672
:10157C00FF4CA081FBD40E941036F3CF0E9483381D
:10158C0037C2E23AA0E0FA0739F50E9478380E9497
:10159C002B36E353FF4CA0E0A0830E94F7350E944A
:1015AC00FC353CF40E94F7350E9440360E94103600
:1015BC00F4CFE0E0E093BF300E947D3850F4E0912E
:1015CC00BF30F0E0E353FF4CA081D0D40E94103622
:1015DC00F3CF0E9483380CC2E43AA0E0FA0739F545
:1015EC000E9478380E94EC35EF51FF4CA0E0A083AC
:1015FC000E94F7350E94FC353CF40E94F7350E949E
:10160C00CC360E941036F4CFE0E0E093BF300E945D
:10161C007D3850F4E091BF30F0E0EF51FF4CA081E9
:10162C00A5D40E941036F3CF0E948338E1C1E63A6C
:10163C00A0E0FA0739F50E9478380E94EC35E351A6
:10164C00FF4CA0E0A0830E94F7350E94FC353CF4CF
:10165C000E94F7350E945C360E941036F4CFE0E011
:10166C00E093BF300E947D3850F4E091BF30F0E041
:10167C00E351FF4CA0817AD40E941036F3CF0E9424
:10168C008338B6C1E73AA0E0FA0739F50E947838FA
:10169C000E947F36EC54FF4CA0E0A0830E94F735EB
:1016AC000E94FC353CF40E94F7350E9486360E945D
:1016BC001036F4CFE0E0E093BF300E947D3850F458
:1016CC00E091BF30F0E0EC54FF4CA0814FD40E946D
:1016DC001036F3CF0E9483388BC1EA3AA0E0FA07A8
:1016EC0039F50E9478380E942B36E157FF4CA0E068
:1016FC00A0830E94F7350E94FC353CF40E94F7351C
:10170C000E9432360E941036F4CFE0E0E093BF30F6
:10171C000E947D3850F4E091BF30F0E0E157FF4C6F
:10172C00A08124D40E941036F3CF0E94833860C16C
:10173C00EB3AA0E0FA0739F50E9478380E94A236FD
:10174C00EF53FF4CA0E0A0830E94F7350E94FC35BC
:10175C003CF40E94F7350E94A9360E941036F4CF53
:10176C00E0E0E093BF300E947D3850F4E091BF3050
:10177C00F0E0EF53FF4CA081F9D30E941036F3CF69
:10178C000E94833835C1ED3AA0E0FA0739F50E9482
:10179C0078380E94EC35E255FF4CA0E0A0830E9403
:1017AC00F7350E94FC353CF40E94F7350E944E360A
:1017BC000E941036F4CFE0E0E093BF300E947D38F9
:1017CC0050F4E091BF30F0E0E255FF4CA081CED355
:1017DC000E941036F3CF0E9483380AC1EE3AA0E083
:1017EC00FA0739F50E9478380E94B736EF52FF4C51
:1017FC00A0E0A0830E94F7350E94FC353CF40E94C7
:10180C00F7350E94BE360E941036F4CFE0E0E0932C
:10181C00BF300E947D3850F4E091BF30F0E0EF52C1
:10182C00FF4CA081A3D30E941036F3CF0E948338C3
:10183C00DFC0EF3AA0E0FA0739F50E9478380E9431
:10184C001636E358FF4CA0E0A0830E94F7350E94A7
:10185C00FC353CF40E94F7350E941D360E94103670
:10186C00F4CFE0E0E093BF300E947D3850F4E0917B
:10187C00BF30F0E0E358FF4CA08178D30E941036C3
:10188C00F3CF0E948338B4C0E835A0E0FA0739F5ED
:10189C000E9478380E94EC35E951FF4CA0E0A083FF
:1018AC000E94F7350E94FC353CF40E94F7350E94EB
:1018BC00DA360E941036F4CFE0E0E093BF300E949D
:1018CC007D3850F4E091BF30F0E0E951FF4CA0813D
:1018DC004DD30E941036F3CF0E94833889C0EA366C
:1018EC00A0E0FA0739F50E9478380E94EC35E552F1
:1018FC00FF4CA0E0A0830E94F7350E94FC353CF41D
:10190C000E94F7350E94F6360E941036F4CFE0E0C4
:10191C00E093BF300E947D3850F4E091BF30F0E08E
:10192C00E552FF4CA08122D30E941036F3CF0E94C7
:10193C0083385EC0E637A0E0FA0739F50E947838A4
:10194C000E942B36E554FF4CA0E0A0830E94F73593
:10195C000E94FC353CF40E94F7350E94E8360E9448
:10196C001036F4CFE0E0E093BF300E947D3850F4A5
:10197C00E091BF30F0E0E554FF4CA081F7D20E941B
:10198C001036F3CF0E94833833C0E737A0E0FA0754
:10199C0039F50E9478380E942B36E954FF4CA0E0B0
:1019AC00A0830E94F7350E94FC353CF40E94F73569
:1019BC000E9494360E941036F4CFE0E0E093BF30E2
:1019CC000E947D3850F4E091BF30F0E0E954FF4CB8
:1019DC00A081CCD20E941036F3CF0E94833808C06D
:1019EC00EFEFE0933730E0934A31E1E0BE2EAA24CA
:1019FC0004C0EA3CA0E0FA0739F5E2E0EA1519F573
:101A0C00A0913730A13021F4A0913830A13009F0E9
:101A1C0003C00E948A3811C0A0913730AF3021F436
:101A2C00A0913830AF3009F008C00E948A380E946B
:101A3C004C38E1E0E093493105C0EFEFE0934A31D7
:101A4C00E1E0BE2EAA2491C2E53FA0E0FA0711F511
:101A5C00E2E0EA15F1F4A0913730AF3521F4A09112
:101A6C003830AF3509F012C0A5EF80D2A5EF7ED289
:101A7C00A5EF0E949038AA24A5E0B0E00E94183F80
:101A8C00E8EDE4BFE1E0E093790003C00E944C383C
:101A9C00AA246BC2E53BA0E0FA0791F5E4E0EA1555
:101AAC0071F50E949338A091BF30A33078F40E9456
:101ABC0099380E94A038A091BF30B0E0A55BBE4C15
:101ACC000E949938EC930E941036EDCFE0913A3099
:101ADC00E0934E31A0913A30E091F330EA1761F483
:101AEC00E0913730E0937630A5EB40D2A5EB0E9425
:101AFC0090380E94A63803C00E944C38AA2435C2E4
:101B0C00EA3EA0E0FA0711F5E2E0EA15F1F40E94D2
:101B1C009338A091BF30A13038F40E9499380E94BC
:101B2C00A0380E941036F5CFA0913830E091F330F8
:101B3C00EA1741F4AAEE1AD2AAEE0E9490380E943B
:101B4C00A63803C00E944C38AA240FC2E036A0E08D
:101B5C00FA0721F5E2E0EA1501F50E949338A0910D
:101B6C00BF30A13038F40E9499380E94A0380E94EE
:101B7C001036F5CFA0913830E091F330EA1751F4DC
:101B8C00A0E6F4D1A0E0F2D1A0E00E9490380E942F
:101B9C00A63803C00E944C38AA24E7C1E53EA0E059
:101BAC00FA0711F5E7E0EA15F1F40E949338A091D9
:101BBC00BF30A63038F40E9499380E94A0380E9499
:101BCC001036F5CFA0913D30E091F330EA1741F497
:101BDC00A5EECCD1A5EE0E9490380E94A63803C089
:101BEC000E944C38AA24C1C1E73EA0E0FA0711F5C7
:101BFC00E7E0EA15F1F40E949338A091BF30A630CB
:101C0C0038F40E9499380E94A0380E941036F5CF03
:101C1C00A0913D30E091F330EA1741F4A7EEA6D144
:101C2C00A7EE0E9490380E94A63803C00E944C3840
:101C3C00AA249BC1E83EA0E0FA0711F5E3E0EA15FF
:101C4C00F1F40E949338A091BF30A23038F40E9476
:101C5C0099380E94A0380E941036F5CFA0913930E7
:101C6C00E091F330EA1741F4A8EE80D1A8EE0E947F
:101C7C0090380E94A63803C00E944C38AA2475C123
:101C8C00E93EA0E0FA0711F5E3E0EA15F1F40E9451
:101C9C009338A091BF30A23038F40E9499380E943A
:101CAC00A0380E941036F5CFA0913930E091F33076
:101CBC00EA1741F4A9EE5AD1A9EE0E9490380E947D
:101CCC00A63803C00E944C38AA244FC1E13DA0E0C5
:101CDC00FA0709F046C0E5E0EA1509F041C00E9498
:101CEC009338A091BF30A43038F40E9499380E94E8
:101CFC00A0380E941036F5CFA0913B30E091F33024
:101D0C00EA1759F5E0E0E0933B30E0935331E09370
:101D1C005431E0935531E09356310E94AB380E9418
:101D2C00B9380E94CA380E94B938E0913A30F0E0D4
:101D3C000E94D238E0935331F09354316093553173
:101D4C0070935631E1E0E0935731A1ED0FD1A1ED45
:101D5C000E9490380E94A63803C00E944C38AA24D6
:101D6C0004C1E33DA0E0FA0709F043C0E4E0EA1542
:101D7C0009F03EC00E949338A091BF30A33038F4D4
:101D8C000E9499380E94A0380E941036F5CFA0917D
:101D9C003A30E091F330EA1741F5E0E0E0933A3065
:101DAC00E0935931E0935A31E0935B31E0935C312D
:101DBC000E94AB380E94D7380E94E038A4E6B0E00D
:101DCC0080E090E00E946E41DF01CB010E94CA3896
:101DDC000E94D738E1E0E0935831A3EDC7D0A3EDD2
:101DEC000E9490380E94A63803C00E944C38AA2446
:101DFC00BCC0E53DA0E0FA0709F05AC0E1E0EA15E5
:101E0C0009F055C0A0913730A53D09F04AC00E9499
:101E1C00E9380E94FB380E94BF41E0935D310E947B
:101E2C00FB380E94F541DF01CB010E9408390E946A
:101E3C00BF41E0935E310E940D390E9408390E9427
:101E4C000438E0935F310E940D390E940F38E09303
:101E5C006031E0E0E093BF30E0936131A091BF309E
:101E6C00A43058F4A09161310E941639E081EA0F38
:101E7C00E09361310E941036F1CFA5ED77D0E0E010
:101E8C00E093BF30A091BF30A53038F40E941639D2
:101E9C00A0816CD00E941036F5CFEFEF0E94723803
:101EAC0003C0EFEFE0934A31E1E0BE2EAA245DC0FF
:101EBC00E73DA0E0FA0709F052C0E1E0EA1509F0AD
:101ECC004DC0A0913730A73D09F042C00E94E938BF
:101EDC000E941C390E94BF41E0935D310E941C3965
:101EEC000E940438E0935E31A0915931B0915A317F
:101EFC0080915B3190915C310E940F38E0935F319F
:101F0C00E0E0E093BF30E0936031A091BF30A330AC
:101F1C0058F4A09160310E941639E081EA0FE093E9
:101F2C0060310E941036F1CFA7ED20D0E0E0E093B5
:101F3C00BF30A091BF30A43038F40E941639A08174
:101F4C0015D00E941036F5CFEFEF0E94723803C007
:101F5C00EFEFE0934A31E1E0BE2EAA2406C0EFEF8A
:101F6C00E09337300E944C38AA24D3C1AA93E09155
:101F7C00A108E072E1F3E881E093A008A1C1E0E8D8
:101F8C00E0936506E3E0E093B509E091B309E07CEA
:101F9C00E093B309EEE6E093B609E8EAE093B709FB
:101FAC00E091B409E07EE860E093B4090895AA9347
:101FBC00E091B109E072E1F3E881E093B00980C1EE
:101FCC001A9310E0A4EFB0E30E949133A12FB0E07C
:101FDC00AE17BF0740F4E12FF0E0EC50FF4CA081AE
:101FEC00E6DF1F5FEFCF0E942539E0E0EA93AEE118
:101FFC00B0E00E947433AAE0DADFADE0D8DF4BC169
:10200C00AA93A881A13010F0A03108F01EC00E9444
:10201C002539EDEAF3E0FA93EA93EC81A8EEB1E00E
:10202C000E942A390E9451420E943039E0E0EA9322
:10203C00A0E0B0E00E94922AE0E0E093C335E09388
:10204C004006E09344060E9404373AC1BA93AA931F
:10205C00A881B981EC91E07FEC931996ECE0EC93BC
:10206C00229608951A930A931FB7F894E0910008EA
:10207C00E07FE560E0930008E0910108E870E093F0
:10208C000108E0910308E071E0930308E091060871
:10209C00E07FE160E0930608E0910708E070E093D0
:1020AC000708E0919900EE7F0E2FE8EDE4BF009356
:1020BC009900E0918008E07CE0938008E09183082F
:1020CC00E87EE0938308E0E0E0938208A4E8B8E0BF
:1020DC000A2EAC91E0918408E470EA2BA02DEC93CD
:1020EC00E0910C08E0930C08E0E0F0E0E0932008AD
:1020FC00F0932108E1E1FAE7E0932608F093270832
:10210C00E0E0F0E0E0932808F0932908E0932A0837
:10211C00F0932B08E0932C08F0932D08E0932E08F5
:10212C00F0932F081FBF0991199108951A931FB7A7
:10213C00F894A0E4B8E08ADFE5E0E0934008E0E042
:10214C00E0934108E0934308E0934408E09146088B
:10215C00E07FE160E0934608E0E0E0934708E0911F
:10216C009008ED7FE0939008E0914C08E0934C08C8
:10217C00E0E0F0E0E0936008F0936108EFE1FEE44A
:10218C00E0936608F0936708E0E0F0E0E0936808FD
:10219C00F0936908E0936A08F0936B087BC01A937C
:1021AC001FB7F894A0E0B9E051DFE4E0E093000938
:1021BC00E0E0E0930109E0930309E0930409E3E014
:1021CC00E0930609E0E0E0930709E0919009EE7FC7
:1021DC00E0939009E0910C09E0930C09E0E0F0E049
:1021EC00E0932009F0932109EFE3FCE9E093260941
:1021FC00F0932709E0E0F0E0E0932809F093290937
:10220C00E0932A09F0932B09E0932C09F0932D0904
:10221C00E0932E09F0932F093DC01A931FB7F89441
:10222C00A0E0BBE013DFE7E0E093000BE0E0E0931D
:10223C00010BE093030BE093040BE3E0E093060B3C
:10224C00E0E0E093070BE091900BEE7FE093900BB6
:10225C00E0910C0BE0930C0BE0E0F0E0E093200B32
:10226C00F093210BE1E1FAE7E093260BF093270BB7
:10227C00E0E0F0E0E093280BF093290BE0932A0BBD
:10228C00F0932B0BE0932C0BF0932D0BE0932E0B78
:10229C00F0932F0B1FBF19910895E2E5E093C0084E
:1022AC00E091C108EC7FE093C1080895AA93E881FE
:1022BC00E093C308E091C208E078E1F3E091C30831
:1022CC0021960895E0EAF4E00E943A39A0E00E94D9
:1022DC006C340E943F39E0EAF4E0FA93EA93E0E4CC
:1022EC00EA93ABE90E948134E0E0E093A8040895FE
:1022FC000A921A92FA926A937A938A939A93AA936D
:10230C00BA93EA93FA93EFB7EA93A6E0B6E30E9486
:10231C00AC34E991EFBFF991E991B991A9919991F7
:10232C00899179916991F990199009901895E6EF36
:10233C00E0938F36E7EFE0939036E4EFE0938D3641
:10234C00EEE2E0938E36E6EFE0939536E7EFE0931E
:10235C009636E8EFE0939736E4EFE0939336E0910E
:10236C002C36E295E07FEE0FEE0FEC5CE0939436AA
:10237C00EAEAE0936136EBEAE0936236ECEAE0934A
:10238C006336EDEAE0936436EEEAE0936536EFEA05
:10239C00E0936636E0EBE0936736E1EBE09368366A
:1023AC00E2EBE0936936E3EBE0936A36E4EBE0931F
:1023BC006B36E5EBE0936C36E6EBE0936D36E7EBD2
:1023CC00E0936E36E8EBE0936F36E9EBE093703612
:1023DC00EAEBE0937136EBEBE0937236ECEBE093C7
:1023EC007336EDEBE0937436EEEBE0937536EFEB72
:1023FC00E093763608959BDF0E943F39E7E7EA9336
:10240C00E1E6F6E30E944439E7E7F6E30E94493936
:10241C00E7E7EA93E3E6F6E30E944439E9E7F6E3FB
:10242C000E944939E7E7EA93E5E6F6E30E9444396E
:10243C00EBE7F6E30E944939E7E7EA93E7E6F6E3D0
:10244C000E944439EDE7F6E30E944939E7E7EA9345
:10245C00E9E6F6E30E944439EFE7F6E30E944939D6
:10246C00E7E7EA93EBE6F6E30E944439E1E8F6E3AA
:10247C000E944939E7E7EA93EDE6F6E30E94443916
:10248C00E3E8F6E30E944939E7E7EA93EFE6F6E37F
:10249C000E944439E5E8F6E30E944939E7E7EA93FC
:1024AC00E1E7F6E30E944439E7E8F6E30E94493994
:1024BC00E7E7EA93E3E7F6E30E944439E9E8F6E359
:1024CC000E944939E7E7EA93E5E7F6E30E944439CD
:1024DC00EBE8F6E3FA93EA93A2E00E943435B0916C
:1024EC007736A0E0E0917836F0E0EA0FFB1FE0933E
:1024FC001236F0931336F0917936E0E0DF01E0917B
:10250C007A36F0E0EA0FFB1FE0931436F0931536A1
:10251C00F0917B36E0E0DF01E0917C36F0E0EA0FF1
:10252C00FB1FE0931636F0931736F0917D36E0E002
:10253C00DF01E0917E36F0E0EA0FFB1FE0931836E6
:10254C00F0931936F0917F36E0E0DF01E0918036B0
:10255C00F0E0EA0FFB1FE0931A36F0931B36F09174
:10256C008136E0E0DF01E0918236F0E0EA0FFB1FFC
:10257C00E0931C36F0931D36F0918336E0E0DF01DA
:10258C00E0918436F0E0EA0FFB1FE0931E36F093E7
:10259C001F36F0918536E0E0DF01E0918636F0E001
:1025AC00EA0FFB1FE0932036F0932136F09187362B
:1025BC00E0E0DF01E0918836F0E0EA0FFB1FE093EA
:1025CC002236F0932336F0918936E0E0DF01E0917A
:1025DC008A36F0E0EA0FFB1FE0932436F0932536A1
:1025EC00F0918B36E0E0DF01E0918C36F0E0EA0F01
:1025FC00FB1FE0932636F093273608950E943F394F
:10260C00E7E7EA93EDE8F6E30E9444390E944F397C
:10261C00E7E7EA93EFE8F6E30E944439E1E9F6E3F1
:10262C000E944939E7E7EA93E3E9F6E30E9444396B
:10263C000E944F39E7E7EA93E5E9F6E30E945B393C
:10264C00E8E9F6E30E946039E7E7EA93E6E9F6E3A6
:10265C000E945B39E9E9F6E30E946039E7E7EA9307
:10266C00E7E9F6E30E945B39EAE9F6E3FA93EA93C9
:10267C00A1E00E943435B0919136A0E0E091923601
:10268C00F0E0EA0FFB1F0E945A41E0932836F093CA
:10269C00293660932A3670932B36E0919836FF27B3
:1026AC00662777270E9466390E946F39E8E00E94FE
:1026BC00FE400E946639E0919936F0E00E946F3935
:1026CC000E94D2380E9466390E946F39E8E00E945D
:1026DC00FE400E946639E0919A36F0E00E946F3914
:1026EC000E94D2380E946639A0912C36E8E0EA1B91
:1026FC000E946F390E940A410E946639E0911C3693
:10270C00F0911D36A0912836B091293680912A3649
:10271C0090912B36662777270E94DE40E0911A367F
:10272C00F0911B36662777270E947839EFE00E94DC
:10273C007D39A0912436B09125360E945F41EBE0A3
:10274C000E94FE407F936F93FF93EF93E0912636A8
:10275C00F09127360E9488390E94D238AF91BF91F0
:10276C008F919F910E94E4410E949139E0933936F8
:10277C00F0933A3660933B3670933C360E949D3909
:10278C00E85FFF4F6F4F7F4FDF01CB01E4E00E940A
:10279C000A41E0933D36F0933E3660933F3670939A
:1027AC0040360E948E3FDF01CB010E94A6390E9469
:1027BC006640E0935936F0935A3660935B367093CB
:1027CC005C360E949D39E05AFF4060407040E093B7
:1027DC004136F093423660934336709344360E94F0
:1027EC00AB390E94B4390E949441A0912036B0912B
:1027FC0021360E94BD39ECE00E940A41DF01CB0179
:10280C00EBE00E947D390E94AB39A0911436B09157
:10281C0015360E94BD39EBE00E940A410E949139A5
:10282C000E94C039A0911236B09113360E945F41BC
:10283C00E4E0F0E060E070E00E949441A091453645
:10284C00B091463680914736909148360E94D440DC
:10285C00E0912C360E94FE400E94C939E093493623
:10286C00F0934A3660934B3670934C360E94AB39DA
:10287C00A0911636B09117360E94BD39EDE00E943A
:10288C007D390E94AB390E94B4390E947839ECE052
:10289C000E940A41A0911E36B0911F360E945F41E2
:1028AC000E94D2390E9491390E94C9390E94C039C4
:1028BC00E0914536F0914636609147367091483636
:1028CC00E050F0486F4F7F4FA0911836B0911936F9
:1028DC00882799270E946E41DF01CB01EFE00E940F
:1028EC001641E0935136F093523660935336709301
:1028FC005436A0914936B0914A3680914B3690911E
:10290C004C36E0912D36F0912E3660912F36709129
:10291C0030360E94D9407F936F93FF93EF93E091F1
:10292C002C36A0E5B3EC0E94F540AF91BF918F918E
:10293C009F91662777270E946E41E0935536F0935E
:10294C00563660935736709358360E94D739A0305C
:10295C00E0E0BE07E0E08E07E0E89E0788F4E09137
:10296C005536F091563660915736709158360E9414
:10297C003941DF01CB010E94E0390E94BF4108C000
:10298C000E94E0390E94D7390E94BF410E94394110
:10299C00E0934D36F0934E3660934F36709350362D
:1029AC000E94E9397F936F93FF93EF930E94E9396B
:1029BC00AF91BF918F919F910E9494410E94F539E4
:1029CC00E0913136F0913236609133367091343675
:1029DC00AEEDBBE080E090E00E94D2390E94F53968
:1029EC000E94FE39A3E4B3EE8FEF9FEF0E94D23921
:1029FC000E949139E153F14F6F4F7F4FDF01CB01B3
:102A0C00E4E00E940A410E94073A0E94CF40E09302
:102A1C004D36F0934E3660934F36709350360E947D
:102A2C00FE390E948E3FDF01CB01EFE6F2E565E057
:102A3C0073E40E946640E0935D36F0935E366093DB
:102A4C005F36709360360895E2E0E093A136E0E0E3
:102A5C00E093A2360E943F39E8E1EA93E1EAF6E31B
:102A6C000E9444390E94103AE0939F36E2E3E093CF
:102A7C00A0360E943F39E8E1EA93EFE9F6E388C01B
:102A8C00E0E0E0939B360E943F39E8E1EA93EBE902
:102A9C00F6E30E945B39ECE9F6E3FA93EA93A1E0E2
:102AAC0080C0E1E0E0939D360E943F39E8E1EA9373
:102ABC00EDE9F6E36DC0E2E0E093A936E0E0E093E7
:102ACC00AA360E943F39E9E1EA93E9EAF6E30E946B
:102ADC0044390E94103AE093A736E8E9E093A8360F
:102AEC000E943F39E9E1EA93E7EAF6E351C0E0E0FE
:102AFC00E093A3360E943F39E9E1EA93E3EAF6E377
:102B0C000E945B39E4EAF6E3FA93EA93A1E049C048
:102B1C00E1E0E093A5360E943F39E9E1EA93E5EA6A
:102B2C00F6E336C0E2E0E093B136E0E0E093B23693
:102B3C000E943F39EAE1EA93E1EBF6E30E94443963
:102B4C000E94103AE093AF36E0E4E093B0360E9476
:102B5C003F39EAE1EA93EFEAF6E31AC0E0E0E093EA
:102B6C00AB360E943F39EAE1EA93EBEAF6E30E94C6
:102B7C005B39ECEAF6E3FA93EA93A1E012C0E1E0E8
:102B8C00E093AD360E943F39EAE1EA93EDEAF6E3D1
:102B9C00FA93EA93E2E0EA93E0E0F0E0FA93EA9346
:102BAC00A0E00E9434350895AA93E0E1E093460634
:102BBC00AB817CDBAA817ADBA98178DBA88176DB0F
:102BCC00E0914806ED6FEF3FD9F3E0E1E093450665
:102BDC0024960895AA930E94E142E091B336AE8107
:102BEC00EA1729F0A13011F0A23009F401C010C08D
:102BFC00AE81A13011F40E94193AAE81A23041F499
:102C0C00E1E2EA93ECE0EA93E1E1EA93A0E4CCDFC1
:102C1C00EE81E093B33688249924E0914806ED6F59
:102C2C00EF3F29F4E0E2FEE48E169F0608F007C0A1
:102C3C00F40131964F018BE08A95F1F7EECFE0E28B
:102C4C00FEE4E815F90519F4EFEFF3E017C0E0E145
:102C5C00E09346068BE68A95F1F7A8E327DBAFEF06
:102C6C0025DB2E2F3327AFEF21DB4E2F5527E0E14D
:102C7C00E0934506F22FE0E0E42BF52B0E94E842AE
:102C8C00279608952F971A930A9300E0FE01329627
:102C9C000E94223A10E01B3070F40E94373AAC913B
:102CAC00E12FF0E0EC5FFF4CE081EA1711F001E05E
:102CBC001CE01F5FF0CF0030F9F010E01F3060F423
:102CCC00E12FF0E0EC5FFF4C0F010E94373AEC91E2
:102CDC00D001EC931F5FF2CF0E943E3AA3E00E941A
:102CEC00473AE03029F00E943E3AAAE00E94473A67
:102CFC00A7E9B3E30E944C3A1981088161960895C3
:102D0C00AA971A93FE01B596FA93EA93E4ECF3E0D2
:102D1C00FA93EA930E94E0380E94694284E00E9490
:102D2C000F332896E4EFE98311E0173088F40E9402
:102D3C00513AEA0FFB1F0F01E12FF0E03197DE0152
:102D4C009596AE0FBF1FEC91D001EC931F5FEDCFAA
:102D5C00E5EAE887E0911B30E987E0911C30EA87CF
:102D6C00E0911D30EB87E0911E30EC87E0911F3035
:102D7C00ED87E0912030EE87E0912130EF87E091F4
:102D8C002230E88BE0912330E98BE0912430EA8B00
:102D9C00E0911F31EB8BE0912031EC8BE0912730EF
:102DAC00ED8BE0912830EE8BE0912331EF8BE091AD
:102DBC002431E88FE0912B30E98FE0912C30EA8FB1
:102DCC00E0912D30EB8FE0912E30EC8FE09129319A
:102DDC00ED8FE0912A31EE8FE5EBEF8F1FE113328F
:102DEC0068F40E94513AAE0FBF1FE12FF0E07F97BD
:102DFC00E55BFE4CE081EC931F5FF1CFE8EFECA3B9
:102E0C00EBE4F1E30E943A39A4E0B0E00E947433A1
:102E1C0010E0143270F4E12FF0E0EC53FA4C0F0197
:102E2C000E94513AAE0FBF1FEC91D001EC931F5F83
:102E3C00F0CF1881AB960895E0E0EA93A5E6B1E3F4
:102E4C000E94922AE0936231E03049F40E942539C5
:102E5C00E9ECF3E00E94563A0E945D3A02C00E94EF
:102E6C00633A0E94673AE7EBF5E3FA93EA93AAE038
:102E7C000E94473AE03051F40E942539E7EEF3E026
:102E8C000E946C3AE1E0E093C33507C00E94633ABC
:102E9C00E0E0E093C335E093060BA091C335A1307D
:102EAC0009F0A5C0E8EEF5E3FA93EA93ECEFF3E052
:102EBC000E94563AEDE0E093F535EAE0E093F63502
:102ECC000E94673AE8EEF5E30E94713A29F40E94F9
:102EDC0025390E947F3A02C00E94633AE7EFF5E37E
:102EEC00FA93EA93E2E2F4E00E94563AEDE0E093C2
:102EFC000436EAE0E09305360E94673AE7EFF5E323
:102F0C000E94713A29F40E9425390E947F3A02C02E
:102F1C000E94633A0E94973AE03039F40E942539B6
:102F2C00EFE2F4E00E946C3A02C00E94633A0E9405
:102F3C00E938E4E0F0E30E94223AE2DE0E943E3AF5
:102F4C00A1E00E94BC2AA0E00E946941E09362319A
:102F5C00E03049F00E942539E3E4F4E00E94563A4F
:102F6C000E94E60F33C00E943E3AAAE00E94473A04
:102F7C00E03039F40E942539E7EEF3E00E949A3AEA
:102F8C0002C00E94633A0E94673A0E949F3AE03066
:102F9C00D9F40E942539E9E0F4E0FA93EA93E09140
:102FAC006331F0916431662777270E946942E3E22E
:102FBC00F0E060E070E00E94694288E00E940F330C
:102FCC002C960E94E60F02C00E94633A0E94973A28
:102FDC00E03039F40E942539EFE2F4E00E949A3A8D
:102FEC0002C00E94633AA4E6B0E00E94183FE1E1FF
:102FFC00E093450608950E943E381A930A93E09197
:10300C004931E03021F0A0914A31AF3F09F006C0C0
:10301C000E949B0385E38A95F1F73324099119915A
:10302C007BC10E943E38332009F04BC1E1E03E2EBB
:10303C00A1E0D0DDE093B636F093B736E091B6362A
:10304C00F091B736E050F048E093B636F093B736CF
:10305C000E94AE3A0E94D238E093B836F093B9365B
:10306C006093BA367093BB36E091B636E0931B3161
:10307C00E091B636F091B7360E943E41E0931C3198
:10308C00E0E0E0935530A0915530A43008F03FC0FB
:10309C00E0915530AEE5B0E30E942A39FF93EF93EF
:1030AC00A09155300E943203AF91BF910E94B73A64
:1030BC00AEE6B0E30E942A39BF0100801180E09196
:1030CC005530AEE5B0E30E94BC3A0E94B73AA6E593
:1030DC00B0E30E942A39FF93EF93A09155300E94E0
:1030EC008203AF91BF910E94B73AA6E6B0E30E946B
:1030FC002A39BF0100801180E0915530A6E5B0E37C
:10310C000E94BC3AED93FC930E94C73ABCCFE0916D
:10311C005630E0931531E0915730E0931631E09141
:10312C005830E0931931E0915930E0931A31E09125
:10313C005A30E0931731E0915B30E0931831E09115
:10314C005C30F0915D300E94CD3A4092213150922A
:10315C002231E0915E30E0932531E0915F30E093D5
:10316C002631E0916030E0932731E0916130E093BB
:10317C002831E0916230E0931D31E0916330E093AF
:10318C001E31E091C335E03009F49BC0E091BC36B0
:10319C00EF5FE093BC36A091BC36A03109F091C032
:1031AC000E94AE3AE0E1F0E060E070E00E94E441A1
:1031BC00E093B436F093B536E0E0E093BC36E093A0
:1031CC00B836E093B936E093BA36E093BB36E0916B
:1031DC00B436E09321300E94EB3AE0932230E0E0E9
:1031EC00E0935530A0915530A430D8F40E94F23AB7
:1031FC000E942A390F010E94F23A0E94F73A0E946B
:10320C00B73AA6E6B0E30E942A390F01E091553097
:10321C00A6E6B0E30E94F73AED93FC930E94C73AFE
:10322C00E1CFE0916630E0931B30E0916730E093A2
:10323C001C30E0916830E0931F30E0916930E093EE
:10324C002030E0916A30E0931D30E0916B30E093D8
:10325C001E30E0916C30F0916D300E94CD3A40926E
:10326C00273050922830E0916E30E0932B30E09173
:10327C006F30E0932C30E0917030E0932D30E09182
:10328C007130E0932E30E0917230E0932330E09176
:10329C007330E0932430E0E0E0935530A09155304A
:1032AC00A43078F40E94F23A0E94023B0E94B73A92
:1032BC00A6E6B0E30E94023BED93FC930E94C73A52
:1032CC00EDCF2AC00E943E38E091C335E03011F0BA
:1032DC000E943C2121C00E943E38A091C335A130F0
:1032EC00C9F40E943E3AA3E00E94473A0E94673A12
:1032FC00A091A133B091A2338091A3339091A433C8
:10330C000E94532EE09362310E94673A0E949F3ACA
:10331C000E94973A0E94633AE991EFBFF991E991C3
:10332C00B991A9919991899179916991F990199093
:10333C00099018951A930A930FB7F894E0915000DE
:10334C00E260E0935000E0914100E0781E2FE8ED40
:10335C00E4BF10934100E0916000EE7FE0936000C9
:10336C00E0915100E270E1F3E0914000E87FE16010
:10337C001E2FE8EDE4BF10934000E0915000E27E78
:10338C00E0935000E091B400EC7FE093B4000FBFE9
:10339C00099119910895F894E091A200E873E760FF
:1033AC001E2FE8EDE4BF1093A200E0E0E093A10033
:1033BC00C1DF0E946B060E94C0090E94C50F0E94CB
:1033CC0055070E940A3B0E94D5100E9468110E946A
:1033DC002539E0E5F4E00E94563A0E940E3B7894C1
:1033EC00A1E00E94113BE061E09384062DDB0E947A
:1033FC000A3B0E94173B0E941D3B5DDB0E940A3B6F
:10340C000E94173B0E941D3B8DDB0E940A3B0E94D1
:10341C00173B0E942539EAE5F4E00E94563A0E94D7
:10342C000E3B0E941D3B0E9401120E940A3B0E940F
:10343C002539EBE6F4E00E94563A0E94173B0E94B5
:10344C005D3A0E9453110E942539ECE7F4E00E948A
:10345C00563A0E94E60F7894A8ECB0E00E94183F10
:10346C00EBDC0E945311E1E0E09301060E94233B48
:10347C00E1E0E0930606A4E6B0E00E94183F0E944B
:10348C00233B0E94193AAAE00E94113BEF7EE09385
:10349C008406AAE00E94113BE061E09384060E943E
:1034AC002539E6E8F4E00E94563A0E94E60FA1E0C6
:1034BC0091DBE093B436F093B536E091B436E093FB
:1034CC001B310E94EB3AE0931C310E94F3020E94E4
:1034DC0040030E9438100E949C100E941311AAE015
:1034EC00B0E00E94183F0E942539E6E9F4E00E9402
:1034FC00563A0E940E3BA1E0B0E00E948042EF3FA2
:10350C00AFEFFA07AFEF6A07AFEF7A0731F4A1E03C
:10351C00B0E00E9418370E948D420E942539E3EAE0
:10352C00F4E00E94563A0E940E3BA0912404B09104
:10353C0025048091260490912704A132E8ECBE0763
:10354C00E3EB8E07E6E59E0730F4E1E2F8EC63EB83
:10355C0076E50E942637E0918406EF7EE0938406A0
:10356C000E94C5030E942E06E2E0E093E7070E944A
:10357C000413E0915936F0915A3660915B36709194
:10358C005C360E94C7424CF40E942A3BE0E0F0E01B
:10359C0060E772E40E94AB4008F020C0E0915D3619
:1035AC00F0915E3660915F3670916036A0E0B0E0CD
:1035BC0086E993E40E94AB4078F4A0915D36B0911B
:1035CC005E3680915F3690916036E0E0F0E46EE418
:1035DC0074E40E94AB4008F001C001C01EC00E9400
:1035EC002A3B0E94333BA0E0B0EA8AE295E40E94B9
:1035FC00C83F0E94553F3F0160921F3170922031AD
:10360C000E94373BE09323310E94373BDF01CB0113
:10361C00E8E00E940A41E0932431E091C335E030A8
:10362C0021F00E94E9386CDB2DDB2ADA60DA96DABD
:10363C00E091A436E078E03821F4E0912931E260A1
:10364C0007C0E091A436E07829F4E0912931ED7FB0
:10365C00E0932931E0919C36E071E03121F4E09166
:10366C002931E46007C0E0919C36E07129F4E091C7
:10367C002931EB7FE0932931E0919C36E072E03206
:10368C0021F4E0912931E86007C0E0919C36E072AA
:10369C0029F4E0912931E77FE0932931E0919C36C0
:1036AC00E270E23021F4E0912931E06107C0E09151
:1036BC009C36E27029F4E0912931EF7EE0932931B8
:1036CC00E091A436E870E83021F4E0912931E06211
:1036DC0007C0E091A436E87029F4E0912931EF7D20
:1036EC00E0932931E091A436E071E03121F4E091CE
:1036FC002931E06407C0E091A436E07129F4E0912F
:10370C002931EF7BE0932931E091AC36E074E03461
:10371C0021F4E0912931E06807C0E091AC36E07407
:10372C0029F4E0912931EF77E0932931E09176305B
:10373C00E270E23021F4E091AE36E26007C0E09135
:10374C007630E27029F4E091AE36ED7FE093AE3640
:10375C00E0917630E470E43021F4E091AE36E46030
:10376C0007C0E0917630E47029F4E091AE36EB7F3F
:10377C00E093AE36E0917630E870E83021F40E94A8
:10378C003F3BE06407C0E0917630E87029F40E947A
:10379C003F3BE068E0939E36E0917630E071E0319B
:1037AC0021F4E091AE36E86007C0E0917630E0712C
:1037BC0029F4E091AE36E77FE093AE36E0917630B7
:1037CC00E072E03221F4E091AE36E06107C0E091A6
:1037DC007630E07229F4E091AE36EF7EE093AE36AF
:1037EC00E0917630E074E03421F4E0919E36EE7F87
:1037FC0007C0E0917630E07429F4E0919E36E160E8
:10380C00E0939E36E0917630E078E03821F4E09158
:10381C00A636EE7F07C0E0917630E07829F4E0918F
:10382C00A636E160E093A6360E9457150E948E15CD
:10383C00A6D9A0915831A13021F0A0915731A130D7
:10384C0019F5E0915331F0915431609155317091EB
:10385C0056310E9469420E94E0380E9469420E94DF
:10386C0018370E946942AFE4B1E30E94AF080E948E
:10387C001D37A1E0B0E00E948D420E949307E0E06A
:10388C00E0935731E09358316FCEFFCFAA930E944B
:10389C00E34220E00C81AD81BE813D91AD83BE83BE
:1038AC0018E0220FE22FE327E07811F0E9E02E2751
:1038BC00330F1150B1F7015071F7E22FEE0FE160A9
:1038CC000E94EA4268C51A93E2E3E093BF36EFEF39
:1038DC00E093C308E091C208E078E1F3EFEFE093E6
:1038EC00C308E091C208E078E1F31091C3081F3FD0
:1038FC0021F0E091BF36E03009F401C0EFCFE12FA9
:10390C00C9C4E1E0E0934506EFEFE093C308E09112
:10391C00C208E078E1F30895BA93AA930E94E342B7
:10392C00E4E1E093BE36EFEFE093C308E091C20808
:10393C00E078E1F31091C3081F3F21F4E091BE360B
:10394C00E03009F401C0EFCF1E3F21F0E0E00E940F
:10395C00EA42F1C22E813F81EFEFE093C308E09180
:10396C00C208E078E1F33F932F932F5F3F4FE09134
:10397C00C308AF91BF91EC93EFEFE093C308E091D4
:10398C00C208E078E1F33F932F932F5F3F4FE09114
:10399C00C308AF91BF91EC93EFEFE093C308E091B4
:1039AC00C208E078E1F33F932F932F5F3F4FE091F4
:1039BC00C308AF91BF91EC93EFEFE093C308E09194
:1039CC00C208E078E1F33F932F932F5F3F4FE091D4
:1039DC00C308AF91BF91EC93EC81FD813497EC83DC
:1039EC00FD8309F0B9CFEFEFE093C308E091C20873
:1039FC00E078E1F3EFEFE093C308E091C208E078E0
:103A0C00E1F3E1E00E94EA4296C2AA930E94E342EB
:103A1C005ADFEF3F21F0E0E00E94EA42BCC4EC81A7
:103A2C00E093C308E091C208E078E1F3AC81AD3FCC
:103A3C00C1F100E02D813E81D9012F5F3F4FEC9108
:103A4C00E093C308E091C208E078E1F3D9012F5F5D
:103A5C003F4FEC91E093C308E091C208E078E1F3AA
:103A6C00015051F7EFEFE093C308E091C208E07802
:103A7C00E1F3EFEFE093C308E091C208E078E1F3E3
:103A8C00EFEFE093C308E091C208E078E1F3109106
:103A9C00C308E12FEF71E53021F0E0E00E94EA422B
:103AAC007AC4E1E00E94EA4276C40E946E421A9304
:103ABC000A93EE81E07881F0EE81EF77EE83E7E711
:103ACC00EA93A0E0B0E080E090E0EFDF0E2F023050
:103ADC0018F0198108815FC4AE81AC3459F011DF44
:103AEC00E1E0E0934606EFDEEF3F21F0EFEF1981C6
:103AFC00088151C4EE81E093C308E091C208E078DC
:103B0C00E1F3ED81E093C308E091C208E078E1F3C2
:103B1C00EC81E093C308E091C208E078E1F3EB811B
:103B2C00E093C308E091C208E078E1F3EA81E09306
:103B3C00C308E091C208E078E1F311E0AE81A03453
:103B4C0011F415E904C0AE81A83409F417E81093F8
:103B5C00C308E091C208E078E1F3AE81AC3439F4EB
:103B6C00EFEFE093C308E091C208E078E1F31FEFB8
:103B7C00EFEFE093C308E091C208E078E1F3009125
:103B8C00C30807FF02C0115009F401C0F1CFE02FA8
:103B9C001981088100C4BA93AA931A9314E0EFEF29
:103BAC00E093C308E091C208E078E1F3A981BA81FF
:103BBC001196A983BA831197E091C308EC93115025
:103BCC0071F7D3C4AA9324970E94E342E885E030AE
:103BDC0011F0E1E0C9C0EAE0E093BE36E091BE36F8
:103BEC00E030E1F7E091BD36E27009F0BBC0E1E0F6
:103BFC00E0934106E0934506E0EAE0934606E0E4F4
:103C0C00E0934206E8E1E0935606E0EBE0934106D0
:103C1C00E3E5E093C00835E01AE0EFEFE093C3086A
:103C2C00E091C208E078E1F31150B9F7E0E4EA93CF
:103C3C00A0E0B0E080E090E038DF0E2F3150013092
:103C4C0011F0303009F401C0E7CF30E0013009F059
:103C5C0068C0E4E6E093BE36E8E4EA93AAEAB1E091
:103C6C0080E090E022DFE13091F5DE01149693DFE5
:103C7C00AE81A13019F4AF81AA3A09F027C0E091C6
:103C8C00BE36E03049F0E9EEEA93A0E0B0E080E027
:103C9C0090E40BDFE03009F401C0F1CFE091BE36C7
:103CAC00E03049F0EAE7EA93A0E0B0E080E090E091
:103CBC00FCDEE03009F00AC0DE0114966CDFEC810A
:103CCC00E07411F0ECE001C0E4E03E2F2AC0E9EE14
:103CDC00EA93A0E0B0E080E090E0E7DEE23018F498
:103CEC0032E009EE02C031E001E4E091BE36E03092
:103CFC0041F00A93A0E0B0E080E090E0D6DEE03046
:103D0C0009F401C0F2CFE091BE36E03049F0E0E5B5
:103D1C00EA93A0E0B2E080E090E0C7DEE03009F08A
:103D2C0030E03093C036EDDD303049F0E091BD36F7
:103D3C00EE7FE093BD36E0EDE093C00813C0E1E008
:103D4C00E0934606C0DDDDDDE0E0E093C008E0EF87
:103D5C00E0934206E1E0E0934206E091BD36E1607B
:103D6C00E093BD36E091BD360E94EA422996089553
:103D7C00AA93E881E03011F0E1E002C0E091BD3699
:103D8C0021960895AA93EF81E03019F4E881E03090
:103D9C0011F4E4E0D0C0E091BD36E17011F0E3E045
:103DAC00CAC0E091C036E87071F4E981FA816B8188
:103DBC007C81A0E0B2E080E090E00E946E41E9835B
:103DCC00FA836B837C83A881A130A9F4E1E5EA93A3
:103DDC00AA81BB818C819D8168DEE03059F4ED8134
:103DEC00FE81FA93EA93A0E0B2E096DDE03011F0A8
:103DFC00E0E0E88323C0E2E5EA93AA81BB818C81F1
:103E0C009D8153DEE030D1F4ED81FE81FA93EA938B
:103E1C00A0E0B2E081DDE03051F0ED81FE81E050B8
:103E2C00FE4FED83FE83E881E150E88369F7ECE413
:103E3C00EA93A0E0B0E080E090E037DE62DDE8815C
:103E4C00E03011F0E1E001C0E0E075C0AA93EF8131
:103E5C00E03019F4E881E03011F4E4E06CC0E0915A
:103E6C00BD36E17011F0E3E066C0E091BD36E47060
:103E7C0011F0E2E060C0E091C036E87071F4E981C5
:103E8C00FA816B817C81A0E0B2E080E090E00E943E
:103E9C006E41E983FA836B837C83A881A130A1F402
:103EAC00E8E5EA93AA81BB818C819D81FEDDE0303F
:103EBC0051F4ED81FE81FA93EA93AEEFA6DDE0308A
:103ECC0011F0E0E0E88330C0E091C036E67039F0E4
:103EDC00E7EDEA93A981BB2788279927E6DDE9E579
:103EEC00EA93AA81BB818C819D81DFDDE030E1F416
:103EFC00ED81FE81FA93EA93ACEF87DDE03051F06F
:103F0C00ED81FE81E050FE4FED83FE83E881E150B0
:103F1C00E88371F7E0E0F0E0FA93EA93ADEF75DD3A
:103F2C00E03011F4E1E0E883ECDCE881E03011F002
:103F3C00E1E001C0E0E028960895BA93AA93609757
:103F4C000E94E342EF89E03011F0E4E08BC1E09194
:103F5C00BD36E17011F0E3E085C111E0EE89E0308F
:103F6C0041F4E1E0E0934606AEDCEF3F09F410E0EB
:103F7C0077C1E13009F05BC0E9E4EA93A0E0B0E07E
:103F8C0080E090E092DDE03049F4FE013496FA9343
:103F9C00EA93A0E1B0E0C0DCE03009F447C0EC816A
:103FAC00E295EF70E695E695E13069F4E0E0FC858A
:103FBC00AD85B0E0EA0FFB1F31969F01D901882730
:103FCC009927EAE02CC0E985EF70AE2FEE85E078FA
:103FDC00EE1FE0E0EE1FAE0FED85E370EE0FEA0F83
:103FEC00EE5F0E2FEC85E295EF70E695E695AE2F21
:103FFC00EB85F0E00E942641B0E0AE0FBF1FEA85D2
:10400C00E370F0E00E942641FE2FE0E0EA0FFB1F78
:10401C0031969F01D90188279927E02FE9500E94FA
:10402C00FE40AC89BD890E94474210E019C1E230C4
:10403C0041F4AC89BD89E0E0F2E0ED93FC9310E033
:10404C000FC1E33009F0AFC0E091C036E470A1F1CC
:10405C00EDECEA93A0E0B0E080E090E026DDE0300B
:10406C0051F5EFEFE093C308E091C208E078E1F37B
:10407C00FE013496FA93EA93A0E1B0E04DDCE03017
:10408C00D1F000E3003049F0EFEFE093C308E0918A
:10409C00C208E078E1F30150F5CFEE85E295EF70C0
:1040AC00A0E1B0E080E090E00E94FE40AC89BD89C8
:1040BC000E94474210E076C0E9E4EA93A0E0B0E049
:1040CC0080E090E0F2DCE03009F06CC0FE01349648
:1040DC00FA93EA93A0E1B0E01FDCE03009F462C08F
:1040EC00E091C036E27051F1EE85EF73FF27662741
:1040FC0077270E9439417F936F93FF93EF93EF855E
:10410C00E078FF2766277727DF01CB01E7E00E94E5
:10411C001641AF91BF918F919F910E94CF40EF5F5D
:10412C00FF4F6F4F7F4FDF01CB01E989E295EF70B5
:10413C00E695E695E1500E94FE402FC0EE85EC77A7
:10414C00E695E695FF2766277727EF5FFF4F6F4FC2
:10415C007F4F7F936F93FF93EF93EF85E370FF2770
:10416C0066277727DF01CB01E3E00E94FE40DF01E9
:10417C00CB01EF85E07EE295EF70E695FF27662791
:10418C0077270E94CF40EF5FFF4F6F4F7F4FAF916C
:10419C00BF918F919F910E946E41AC89BD890E9405
:1041AC00474210E05DC0EA3039F4E091C036AC898A
:1041BC00BD89EC9310E054C0EB3011F409E403C05A
:1041CC00EC3001F50AE40A93A0E0B0E080E090E066
:1041DC006CDCE030B1F4EC89FD89FA93EA93A0E150
:1041EC00B0E09ADBE03069F0EC89FD89FA93EA9350
:1041FC00AFE04CDBAE2FEC89FD89E785EA1709F4BB
:10420C0010E02EC0ED3071F4EAE7EA93A0E0B0E0E4
:10421C0080E090E04ADCE03021F4AC89BD89BBDC65
:10422C0010E01EC0EE30D9F4EDECEA93A0E0B0E063
:10423C0080E090E03ADCE03089F4EFEFE093C308E3
:10424C00E091C208E078E1F3EC89FD89FA93EA93F6
:10425C00A0E4B0E061DBE03009F010E001C014E054
:10426C0050DBE12F0E94EA42689608951A93109150
:10427C00BE36103019F011501093BE361091BF3667
:10428C00103019F011501093BF36E091BD36EB7F12
:10429C00E093BD36199108952797A0910030B09105
:1042AC000130109731F0A0910230B091033010978B
:1042BC0029F4E0E0F0E061E27AE36DC0FE013696AD
:1042CC00FA93EA93FE013796FA93EA93DE01189675
:1042DC00E0910030F09101300995FE013396FA938C
:1042EC00EA93FE013496FA93EA93DE011496E09178
:1042FC000230F09103300995E881F981EC5BF740CD
:10430C0066277727DF01CB01E9E10E94FE407F930E
:10431C006F93FF93EF93EA810E94473BE5E10E9484
:10432C00FE40AF91BF918F919F910E94E840DF01B9
:10433C00CB01EB81F0E00E945A410E944F410E9458
:10434C00E8407F936F93FF93EF93EE810E94473B7E
:10435C00EBE00E94FE40AF91BF918F919F910E9424
:10436C00E8407F936F93FF93EF93ED810E94473B5F
:10437C00E5E00E94FE40AF91BF918F919F910E940A
:10438C00E840DF01CB01EC81F0E0F595E7950E9468
:10439C005A410E94E84027960895AA931A93EA81FD
:1043AC00FB81E4911E2FE03019F0E981E11709F44B
:1043BC0006C0EA81FB813196EA83FB83F0CFE12FC3
:1043CC00F0E01881249608950E946E4224971A9367
:1043DC00A985BA859E960E944D3B0E94543B0E9433
:1043EC00593B0E94D74209F450C0E985FA85E48113
:1043FC00E03089F10E945E3BE030E1F5A985BA8599
:10440C001496E0E0EC93E985FA850E946D3B0D0172
:10441C00A985BA855A960E943C42D0010E94CF4091
:10442C000E94593B0E94DC42B0F4E985FA85138165
:10443C00123088F0A985BA855A960E943C420E9497
:10444C00593B0E94CF40E983FA836B837C830E94A3
:10445C005E3B1150EDCF0E94543B0E94CD42A9F01F
:10446C00E985FA85A181AA93EA85FB85F2960E94DB
:10447C00723B21F0E1E018812B9608950E94543B89
:10448C00A985BA859E960E944742E0E0188158C4DF
:10449C00BA93AA931A93E981FA810E947C3B1E2F4E
:1044AC00103009F061C0A981BA81AC91A33029F414
:1044BC00E981FA81E581E03009F44AC0A981BA8129
:1044CC009E960E94843BE981FA81F2960E943A39C9
:1044DC00A0E0B2E00E947433E981FA81F296E250D6
:1044EC00FE4FA5E5BAEAA083B183E981FA81F29681
:1044FC00A2E5B2E581E691E40E94883BEC51FE4FC7
:10450C00A2E7B2E781E491E60E94883BE851FE4FB6
:10451C000F01A981BA811E960E948E3BF296E4513E
:10452C00FE4F0F01A981BA811A960E948E3BA18180
:10453C00AA93EA81FB81F296FA93EA93EC81FD81CE
:10454C000E94963B83DCA981BA811596E0E0EC933E
:10455C00E981FA81A181AA93E0E0EA93A0E0B0E0BE
:10456C00ECDCE03009F011E0E12F1881239608957E
:10457C000E946E4224970E94E3420E9423380E94BC
:10458C009E3B50F0AC85BD855E960E943C420E94DD
:10459C0023380E94DC4218F00E94653760C0AC855D
:1045AC00BD8592960E94A63BAC85BD85EC91F0E052
:1045BC00E130A0E0FA0739F528853985F901F6953F
:1045CC00E7952E0F3F1F0E94A93B09F046C00E94A1
:1045DC00BE3B0C9111272F5F3F4F0E94A93BE9F581
:1045EC000E94BE3BEC91FE2FE0E00E2B1F2BE885CA
:1045FC00E17021F0F8010E94304102C0F801FF7017
:10460C00662777272CC0E230A0E0FA0779F40E94E5
:10461C00C63B0E94CF3B0E94D63BF9F4A885B985D6
:10462C00E2E00E94E03B0E94E93B19C0E330A0E0CD
:10463C00FA0799F40E94C63B0E94EE3B0E94D63BBF
:10464C0061F4A885B985E4E00E94E03B0E943C42FD
:10465C00EF7FFF7F6F7F7F7002C00E94F53B0E944F
:10466C00EA422E9608950E946E4224970E94E142DF
:10467C000E94FA3B0E949E3B50F0AA89BB895E9631
:10468C000E943C420E94FA3B0E94DC4210F052E035
:10469C0085C0AA89BB8992960E943C42EE83FF8317
:1046AC0068877987AA89BB89EC91F0E0E130A0E0BA
:1046BC00FA0709F043C00E851F85F801F695E795BA
:1046CC000E0F1F1F0E94FF3B09F063C00E94123C9B
:1046DC0051F0D901EC91EF70AE2FEA85F0E00E9419
:1046EC002241EA2B01C0EA85D901EC930F5F1F4FE1
:1046FC00AA89BB891496E1E0EC930E94FF3B09F078
:10470C0048C00E94123C49F00E941D3CE4E00E940B
:10471C001641FF27662777270EC0D901EC91E07F61
:10472C001E2E0E941D3CE8E00E941641FF276627C2
:10473C007727EF70E129D901EC932BC0E230A0E090
:10474C00FA0789F40E94223C0E94CF3B0E94273C2E
:10475C0001F5AE85BF85E2E00E942F3CAA85BB85A2
:10476C00A083B18316C0E330A0E0FA0789F40E945D
:10477C00223C0E94EE3B0E94273C59F4AE85BF853B
:10478C00E4E00E942F3C0E941D3C0E94644201C048
:10479C0052E0AA89BB891496E1E0EC93E52F0E94C4
:1047AC00E842649608950E946E4224971A930E94E0
:1047BC00383C0E949E3B18F00E943D3C10F012E0E9
:1047CC0044C010E00E943D3C08F03FC0E985FA85EA
:1047DC00FA93EA93AF81B88589859A85C9DEE98316
:1047EC00FA836B837C830E94463C0E94CD4269F124
:1047FC000E94593B0E944B3C11F412E026C00E94CF
:10480C00593B0E94533C11F411E01FC0E985FA8515
:10481C00FA93EA93EF81F88569857A850E9469425B
:10482C000E945B3C20DF1E2F103079F4E985FA855D
:10483C000E94603C29F00E94653C1596E1E0EC93E7
:10484C000E94463C0E94703CBDCFE12F188178C27B
:10485C000E946E426097AC89BD895E960E943C4274
:10486C000E946A370E94753CB1F4AC89BD891A96D6
:10487C000E94A63B0E94793C0E94D14239F00E94D2
:10488C007E3C0E94793C0E94DC4220F00E946537FD
:10489C000E94D5371DC00E94813C0E94863C68DE78
:1048AC000E94BC370E94E8370E949E3B18F40E947D
:1048BC00653785C00E947E3C0E94E8370E94DC422E
:1048CC0018F40E9428387BC00E94AC370E94D53760
:1048DC000E94F2370E94D0370E94ED370E947A373F
:1048EC000E94D0370E947E3C0E9423380E94DC42FA
:1048FC0060F0E2E0F0E060E070E00E94D0370E94EF
:10490C008B3C18F40E9418375AC00E94813C0E94BC
:10491C001D3C2EDE0E94903CA1F00E94E8370E94C4
:10492C00533C29F00E94E8370E944B3C19F40E943A
:10493C00283845C00E948B3C19F40E9418373FC0A0
:10494C00CBCF0E94813C0E94953C0E946942AFEF04
:10495C00BFEF8FEF9FE087DEE03019F00E94F53B50
:10496C002EC00E94753C71F00E94813C0E949A3CC2
:10497C000E9469420E94FA3B76DEE03019F00E94F8
:10498C00F53B1DC00E94ED37AC89BD891A960E947B
:10499C004742EC89FD890E94603C79F0AC89BD8965
:1049AC001E960E9442423197604070400E944C42D9
:1049BC00AC89BD891596E1E0EC930E94ED376696C3
:1049CC0008950E946E420E947E3CE250F04060408E
:1049DC0070400E946A37EC81FD81A68DB78D80A155
:1049EC0091A1E2E0F0E060E070E00E949F3C0E9448
:1049FC00A43C0E94DC4218F00E94183775C3EC816D
:104A0C00FD81E281F0E00E94A43C0E945A410E9488
:104A1C006E417F936F93FF93EF93AC81BD819A9618
:104A2C000E943C42AF91BF918F919F910E94CF40C9
:104A3C005BC3BA93AA9324971A930A93EE81FF81CE
:104A4C00A885B9851496ED93FC93A885B98516961F
:104A5C000E94A73C0E94AE3C0E944B3C29F00E9455
:104A6C00B33C0E94B83C10F0E2E076C00E94C03C1F
:104A7C0029F40E94B33CA081A33009F006C00E9427
:104A8C00B33CB696DF010E94A73C0E94C03CA1F447
:104A9C000E94C73C3896DF010E943842AE81BF812C
:104AAC00AE17BF0710F0E2E057C00E94B33CB696B9
:104ABC00DF010E943C4235C00E94B33CE281A0E180
:104ACC00EA9F8001AE81BF81A017B10718F10E9447
:104ADC00B33CFA93EA930E94793C4ADD0E94D13CA4
:104AEC000E94AE3C0E94533C11F4E1E035C00E94A0
:104AFC00AE3C0E949E3B28F00E94B33C0E94B83C06
:104B0C0010F0E2E029C0EE81FF81E01BF10BEE8397
:104B1C00FF83D8CF0E94C73CFA93EA930E94793C5A
:104B2C0050DFDF01CB01EE81FF810E9430410E94FA
:104B3C00D63CA885B9851E960E9447420E94B33C7C
:104B4C00F296DF01EE81FF810E94DB3CA885B985DE
:104B5C005296ED93FC93E0E0198108812A96089512
:104B6C00AA9324970E94E342A985BA8514960E94C1
:104B7C00384231968F01002E012A31F0A985BA8571
:104B8C001E960E94E33C11F4E4E0D8C0F801EF70EB
:104B9C0009F0C1C00E94653C1A960E94E33C61F486
:104BAC000E94E83C3896DF010E9438420E171F071E
:104BBC0010F0E4E0C3C0AFC0F8010E9430410F0117
:104BCC000E94E83CE281F0E03197E021F12130973E
:104BDC0009F0A1C00E94E83C0E94ED3CC9DC0E9497
:104BEC00D5370E94793C0E949E3B10F4E2E0A6C0AF
:104BFC000E94793C0E94533C11F4E1E09FC00E945A
:104C0C00E83C7E96DF010E943C420E94793C0E9467
:104C1C00DC4208F470C0E885E03011F4E4E08EC0AA
:104C2C000E94E83C0E94ED3C13DE0E94F63C0E9480
:104C3C00CD4211F4E7E082C00E94793C0E944B3CCB
:104C4C0011F4E2E07BC00E94793C0E94533C11F4C9
:104C5C00E1E074C00E94E83C0E947C3BE03011F023
:104C6C00E1E06CC00E94E83CF2960E943A39A0E068
:104C7C00B2E00E9474330E94E83CDF01BE96FF93C1
:104C8C00EF93FD010E94F83CAF91BF910E94474207
:104C9C0030E00E94E83CE2813E17C8F40E94E83CF8
:104CAC003496A1E0A0830E94E83C0E947C3BE0305B
:104CBC0011F0E1E043C00E94E83CBE96DF010E9487
:104CCC0042420E947A370E944C423F5FE2CF0E94E0
:104CDC00E83CBE96FF93EF93DF010E943C42DF015C
:104CEC00CB01E32FF0E00E945A410E949F3CAF9110
:104CFC00BF910E9447420E94F237A985BA851A9645
:104D0C000E9447420E94E83C0E94F83CA985BA8563
:104D1C001E960E944742F801A985BA851496ED9318
:104D2C00FC930E94E83CF296DF01F8010E94DB3C08
:104D3C00A985BA855296ED93FC93E0E00E94EA4275
:104D4C002B9608950E94003D21F0E12F0E94EA422B
:104D5C00CBC10E940F3D01F5AC81BD8152962D91C6
:104D6C003C91D9010C91003011F414E015C0F901FB
:104D7C00E385E87031F40E94203D0E944933E03015
:104D8C0009F001C009C0EC81FD81FA93EA93A0E01F
:104D9C00E7DE1E2F1030E9F2E12F0E94EA42A4C197
:104DAC000E94003DB1F40E940F3D99F4EC81FD810D
:104DBC00A289B3890C91053E11F0003009F409C0A9
:104DCC00EC81FD81FA93EA93A1E0CADE1E2F10302C
:104DDC0051F3103029F50E940F3D11F5AC81BD81C6
:104DEC0052962D913C913A932A93E0E0EA93A0E2FB
:104DFC00B0E00E9474330E94203D0E946233AC816B
:104E0C00BD8154960E943842E385E871D9011C9605
:104E1C00EC93AC81BD810E9438423496A1E0A08312
:104E2C00E12F0E94EA4260C1BA93AA9325970E948F
:104E3C00E142AD85BE8554964D915C915A934A934F
:104E4C00E0E2EA93ABE0B0E00E947433E0E0E88784
:104E5C00E9871E2F2E2FE8E0EA87AB85BC850E94E0
:104E6C002B3D0E94303DAE0FBF1FAC91AE3209F509
:104E7C000E94353D0E3221F4A885B98513970CF0AC
:104E8C0003C00E94413DF4CF0F3221F00C3511F0DC
:104E9C00013208F402C0E6E06DC00E94303D0E9471
:104EAC00483D10F4E4E201C0E0E2DA011B96EC9319
:104EBC0060C00E94353D013220F00F3211F00C35EC
:104ECC0009F432C00E3219F0EA852E1768F0AA8563
:104EDC00A83011F40E3211F0E6E04CC028E0EBE003
:104EEC00EA87110F110F1FC0003818F01360E6E0AD
:104EFC0041C0EAE0F2E0FA93EA93A02F4EDA309741
:104F0C0011F0E6E037C0013410F00B3508F002C0A8
:104F1C00126007C0013610F00B3708F002C01160A8
:104F2C0000520E94413DC5CF0E94303D0E94483D39
:104F3C0010F4E4E001C0E0E00E2F203011F4E6E0C4
:104F4C0019C0DA01AC91A53E19F4DA01E5E0EC9355
:104F5C00AA85A83011F4110F110FE12FE370E13085
:104F6C0009F40061E12FEC70E43009F40860FA01F7
:104F7C000387E0E00E94E8422F960895BA93AA9323
:104F8C000E94E342E1E0E03029F0AC81BD81AC91BC
:104F9C00A03209F006C0EC81FD813196EC83FD83D3
:104FAC00F1CFAC81BD81AC91AF3229F0AC81BD8128
:104FBC00AC91AC3559F4EC81FD813196EC83FD83D9
:104FCC00AE81BF8116960E94843B0AC0AE81BF8120
:104FDC000E9438427696DF010E943C420E94503D6E
:104FEC00AC81BD81AC91BB27909760F40E94563D7B
:104FFC00A0E0B0E01EDD1E2FAE81BF8152960E9454
:10500C005B3D3DC00E94563DDE0116960DDF1E2F06
:10501C001030A9F5AE81BF8195DE1E2FAE81BF8108
:10502C0054960E943842E385E4700E2F103039F00C
:10503C00143011F4003009F001C015E020C000302C
:10504C00F1F4AE81BF8152962D913C91F901E3852B
:10505C00E07111F415E013C00E94603D0E944F41B5
:10506C007F936F93FF93EF930E94633DAF91BF913A
:10507C008F919F910E94683D0E94503DC3CFE12FBC
:10508C000E94EA42289608950E946E42EC81FD81AE
:10509C00A181AA93ED81FE81F296FA93EA93EB81BA
:1050AC00FC816D817E810E946D3D11F0E3E01CC09E
:1050BC00EC81FD810E94743D11F0E2E015C0AC81E1
:1050CC00BD81A859BF4F0E947E3D11F4E0E00CC099
:1050DC00EC81FD81F296EE5AFF4FDF010E947E3D7E
:1050EC0011F4E0E001C0E1E026960895AA936497DC
:1050FC000E94E142AD8DBE8D0E943842E887F9874F
:10510C00A885B985EC91E0530E2F0A3020F4119646
:10511C00AC91AA3309F00AC0E885F9853296E88784
:10512C00F987AD8DBE8DED93FC9302C00091C53611
:10513C00013010F0EBE0CAC1E02F0E948C3D0E94C0
:10514C002B3DAB8DBC8DED93FC93EE81FF813097A5
:10515C0011F4ECE0BBC1AE81BF81EC91E03089F081
:10516C00EE81FF81A1810E94BE1E5E2F50FD09C001
:10517C00EA8DE03011F052FD01C002C0EAE0A6C198
:10518C00A4C1AE81BF81E0E0EC93E02FAE81BF8182
:10519C001196EC93EE81FF81A1810E94E81D5E2F98
:1051AC0050FF02C0E3E092C1EA8DE03011F052FDF5
:1051BC0001C002C0EAE08AC10E94563D0E94183725
:1051CC00E88FF98F6A8F7B8FDF01CB015DDF1E2F9C
:1051DC001130C9F4EE81FF81F296E254FE4F9F012B
:1051EC00E481E03081F0D90118960E943C42EE8BAC
:1051FC00FF8B688F798F0E94563DA88DB98D8A8D53
:10520C009B8D42DF1E2F133011F4E1E05FC1103093
:10521C0049F4AE81BF81DD960E943842E030A2E0B5
:10522C00FA0711F0EDE052C1AE81BF81A85BBF4F10
:10523C000E94E93B0E94943D0E949A3C0E94CD4200
:10524C0041F4AE81BF81AA5ABF4F0E943C420E94DA
:10525C00943D0E949A3CAE81BF815A960E9447426F
:10526C00EE81FF81EE5BFF4FE081AE81BF81139633
:10527C00EC93EE81FF81E381F0E00E94863C0E947A
:10528C005A410E946E410E94943D0E94993D0E9499
:10529C00A03DAE81BF8192960E944742EE81FF8174
:1052AC00E7ADAE81BF811296EC93AE81BF81AD5B51
:1052BC00BF4F0E943842AE81BF811896ED93FC938C
:1052CC00AE81BF81AB5BBF4F0E94E93BEE87FF878E
:1052DC00688B798B0E94CD4251F4AE81BF81AE5A5E
:1052EC00BF4F0E943C42EE87FF87688B798B0E94F0
:1052FC00993D0E94FA3B662777270E949F3C0E94AB
:10530C00863C0E94D9407F936F93FF93EF930E944A
:10531C00A53DAF91BF918F919F91662777270E94F2
:10532C00DE40EE81FF81E281F0E00E945A410E9452
:10533C00BF41EE5FFF4F6F4F7F4F0E94AD3DAE817F
:10534C00BF815E960E94474211E00E941D3CA73F20
:10535C00EFE0BE07E0E08E07E0E09E0708F012E009
:10536C000E941D3CA73FEFEFBE07E0E08E07E0E098
:10537C009E0708F013E0133039F4AE81BF81A25AB6
:10538C00BF4F0E943C4202C00E94B23DAE81BF8121
:10539C0096960E9447420E94B23D7F936F93FF9373
:1053AC00EF930E94A53DAF91BF918F919F910E9469
:1053BC00D63CAE81BF819A960E944742AE81BF8196
:1053CC001E960E94F53B0E944742AE81BF81149607
:1053DC00E0E0EC93133009F05FC0AE81BF8115960D
:1053EC00EC93AE81BF81AE59BF4F0E9438420E94F0
:1053FC00A03DAE81BF8152960E944742EE81FF8153
:10540C00A181AA93EF81F885F296FA93EA93E98544
:10541C00FA850E94963B0E94C81EE03011F5EE8181
:10542C00FF810E94743DE9F4AE81BF81D2960E9447
:10543C003C42E235A2E5FA07A1E66A07A1E47A0745
:10544C0081F4EE81FF81F296EC51FE4FDF010E9458
:10545C003C42E237A2E7FA07A1E46A07A1E67A0721
:10546C0009F01AC0EE81FF81F296E451FE4FDF0184
:10547C000E943C42AE81BF811A960E944742EE8147
:10548C00FF81F296E851FE4FDF010E943C42AE8153
:10549C00BF811E960E944742AE81BF811C939E968F
:1054AC000E94843BAE81BF8156960E94843BE09162
:1054BC00C336F091C4363196E093C336F093C436BC
:1054CC00AE81BF811696ED93FC93E0E00E94E8421A
:1054DC006F960895BA93AA93EA81FB81309771F085
:1054EC00AA81BB81EC91E03049F0EA81FB81A68175
:1054FC00B781E881F981EA17FB0711F0E9E00AC0EE
:10550C00EA81FB81A1810E94BE1EE17011F0E3E0F3
:10551C0001C0E0E024960895BA93AA931A930A93D3
:10552C00AC81A13010F0EBE01DC0EC810E948C3DF1
:10553C000D911C91002E012A19F0D801E0E0EC939A
:10554C00EA81FB81309721F0AA81BB81E0E0EC93EA
:10555C00EC81A1ECB6E30E942A39AA81BB81A0831D
:10556C00B183E0E01981088125960895AA93A2974A
:10557C000E94E342A9A5BAA50E945B3DEEA1EF7182
:10558C00EEA3FE01B796FA93EA93FE017296FA9394
:10559C00EA93EAA5EE71AE2FA9DD1E2F103009F0AB
:1055AC0013C1FE013496ECA3FDA3FE017096FA9391
:1055BC00EA93A9A5BAA5E2DC1E2FEEA1EC7109F4C1
:1055CC0096C02897103089F0143021F4DE015896DB
:1055DC00E7DB1E2F103019F0E12F2896F5C0EEA551
:1055EC00E860EEA72AA53BA569C0EEA5E47019F00A
:1055FC00E8E02896E9C02AA53BA5022E032A21F053
:10560C00F901E385E17119F0E7E02896DDC0EEA51C
:10561C00E87009F453C00E94603D0E944F417F9393
:10562C006F93FF93EF930E94633DAF91BF918F9166
:10563C009F910E94683D0E946A37F9017496A0E020
:10564C00B0E0A083B183F9017A96A083B183F9010C
:10565C007C960E945B3C0E946442A88DB98D149686
:10566C00E1E0EC93A88DB98D9E960E94A63B0E941A
:10567C009A37A9F0E88DF98DFA93EA930E94AE3C23
:10568C0092D81E2F103011F028969EC00E947E3C9E
:10569C000E942D38A88DB98D1A960E944742E88D2C
:1056AC00F98DFA93EA93AE81BF81888599850E9422
:1056BC00EA211E2F103011F0289686C0EEA5E87056
:1056CC00A1F0F9013B96A0E0A0830E9452210E9418
:1056DC00F63CD9011E960E944742A88DB98D1496AE
:1056EC00E1E0EC93EEA5E062EEA7289619C010302D
:1056FC0011F0E12F69C02AA13BA1022E032A21F04F
:10570C00F901E385E07111F0E4E05EC0EEA1E27016
:10571C0021F0F901E385E17009F402C0E7E054C01F
:10572C00A889B9899E960E943C42A9A5BAA55A9609
:10573C000E944742EAA1FBA1A9A5BAA55E96ED93EA
:10574C00FC93EEA1A9A5BAA51496EC930E94603D1A
:10575C000E944F417F936F93FF93EF930E94633DA1
:10576C00AF91BF918F919F910E94683DA9A5BAA559
:10577C001E960E944742D9015C960E943C42A9A504
:10578C00BAA51A960E944742A9A5BAA516960E94D8
:10579C00843BA9A5BAA51596EFEFEC93A9A5BAA5DC
:1057AC0056960E94843BE889F989A9A5BAA5ED9380
:1057BC00FC93A889B98916960E943842A9A5BAA566
:1057CC001296ED93FC93E0E00E94EA42AB960895AA
:1057DC00BA93AA932A970E94E142EC89FD89EE8341
:1057EC00FF83A889B9890E945B3D0E94B93D0E9444
:1057FC00BE3D0E94C33D11F0E12FB2C1EE89FF897D
:10580C00A481A07811F0E2E0ABC1EE89FF89A481FC
:10581C00A27011F4E7E0A4C1EE89FF89A285B385DB
:10582C0084859585EA89FB890E94D63C7F936F938A
:10583C00FF93EF930E94CA3DAF91BF918F919F91BF
:10584C000E94DC4218F4E0E0EA8BEB8BEA89FB89DE
:10585C00309709F46BC10E94D03DFD01BC01F17081
:10586C00309709F01FC1EE89FF8905800E94B93D70
:10587C00E2810E1608F44AC0AE89BF8916960E94C2
:10588C00E33CA1F4AE89BF891E960E943C420E9463
:10589C00903C59F40E94B93D0E94D73D0E94BC3700
:1058AC00AE89BF891E960E9447420CC00E94B93D2A
:1058BC000E94BE3DA289B389848995890E942E24B9
:1058CC000E94BC370E9428380E94CD4209F42EC198
:1058DC000E94E8370E944B3C21F40E94DC3DE2E040
:1058EC003FC10E94E8370E94533C21F40E94DC3DEA
:1058FC00E1E036C10E942838AE89BF8952960E94D9
:10590C004742AE89BF891596E0E0EC93EE89FF899A
:10591C00A481A07489F00E94B93D0E94E33DE98DF9
:10592C00FA8D0E94EB3D0E94F03D21F00E94DC3D7F
:10593C00E1E016C10E94F73D0E94B93D0E94BE3DB8
:10594C00A289B389848995893CD80E94D0370E945A
:10595C00ED370E94CD4221F40E94DC3DE2E000C113
:10596C000E94FE3D0E9423380E94D2380E94D037FC
:10597C00AA89BB89E0E0F2E00E94AC41AF01042EA1
:10598C00052A09F464C00E94FE3DE40FF51F0F01C7
:10599C000E94B93DE281D001F0E0EA17FB0750F418
:1059AC000E94B93DE281F0E0DF010E94FE3DAE1B9A
:1059BC00BF0BAD010E94B93DE181EA93EF81F885FF
:1059CC00FA93EA93EB85FC856D857E850E9469428E
:1059DC00A42F0E942C1FE03021F00E94DC3DE1E05E
:1059EC00BFC00E94033E0E94DE40FA016627772763
:1059FC000E94DC42F8F4EE89FF89B0960E94BE3D0D
:105A0C000E94EB3D0E94953C0E94DE40E0E0F2E0FB
:105A1C0060E070E00E946E41A885B98588279927BF
:105A2C00EA0FFB1FFA93EA93A0E0B2E00E94623304
:105A3C000E94F73DAE89BF891596EC91E40FEC936B
:105A4C00FA01EE0FFF1FFE2FE0E09F014DC00E94F8
:105A5C00033E0E94D742C9F00E94D03D0D010E9426
:105A6C00CA3DD0010E94DC4258F40E94B93D0E940C
:105A7C00E33DEB85FC856D857E850E946D3D09F4CB
:105A8C0004C00E94DC3DE1E06BC00E94ED37AE89A2
:105A9C00BF8956960E944742AE89BF891596EC91F4
:105AAC00EF5FEC930E94073EA0E0B2E0AE1BBF0B91
:105ABC009D01EA89FB89E217F30710F42A893B89D7
:105ACC000E94073EAE89BF899096EA0FFB1FFA939E
