:0E0000000C9458010C9400000C9400000C9419
:10000E0000000C9400000C9400000C9400000C9462
:10001E0000000C9400000C9400000C9400000C9452
:10002E0000000C9400000C9400000C9420100C9412
:10003E0000000C9400000C9400000C9400000C9432
:10004E0000000C9430100C9400000C9400000C94E2
:10005E0000000C9400000C94C6050C9400000C9447
:10006E0000000C9400000C9400000C9400000C9402
:10007E0000000C9400000C9400000C9400000C94F2
:10008E0000000C9400000C9400000C9400000C94E2
:10009E0000000C9400000C9400000C9400000C94D2
:1000AE0000000C9400000C9400000C94B60A0C9402
:1000BE0000000C9400000C9400000C9400000C94B2
:1000CE0000000C9400000C9400000C9400000C94A2
:1000DE0000000C9400000C9400000C9400000C9492
:1000EE0000000C9400000C9400000C9400000C9482
:1000FE0000000C9400000C9400000C9400000C9472
:10010E0000000C9400000C9400000C9400000C9461
:10011E0000000C9400000C9400000C9400000C9451
:10012E0000000C9400000C94C2100C9400000C946F
:10013E0000000C9400000C9400000C9400000C9431
:10014E0000000C9400000C9400000C9400000C9421
:10015E0000000C9400000C9400000C9400000C9411
:10016E0000000C9400000C9400000C9400000C9401
:10017E0000000C9400000C9400000C9400000C94F1
:10018E0000000C9400000C9400000C9400000C94E1
:10019E0000000C9400000C9400000C9400000C94D1
:1001AE0000000C9400000C9400000C9400000C94C1
:1001BE0000000C9400000C9400000C9400000C94B1
:1001CE0000000C9400000C9400000C9400000C94A1
:1001DE0000000C9400000C940000FF005D00230052
:1001EE0001007374617274206465766963650073CF
:1001FE0074617274206932630062756620693263BD
:10020E00207374617274206F6B00626D702069329E
:10021E0063207374617274206F6B005350492053C6
:10022E005441525400616437373035207374617213
:10023E0074206F6B005354415254205748494C451B
:10024E0000424D5020503D25662C543D25362E3310
:10025E006600424D502048455820503D25782C547C
:10026E003D2578005354415455533D256400553374
:10027E00696E2E696E7075743D2564002D4E414E6B
:10028E00000001002D4E414E00494E460000010077
:10029E008130E80101003031EE010100333190026E
:1002AE000000F894EE27F091CC01F860F093CC01A9
:1002BE00F8EDF4BFE093A200A0918000AD7FA160A5
:1002CE00F4BFA093800080E090E4A0E0B0E2ED9354
:1002DE000197E9F7ECE9F2E085919591009761F0CD
:1002EE00A591B59105901590BF01F00105900D9265
:1002FE000197E1F7FB01F0CF8BBF8CBFE0E0E0B9D7
:10030E00E1B9E2B9E3B9E4B9E5B9E6B9E7B9E8B9F3
:10031E00E9B9EAB9EBB9ECB9EDB9EEB9EFB92E2EF0
:10032E00E1E03E2EE0E04E2E5E2E6E2E7E2E8E2EC6
:10033E009E2EAE2EBE2EDE2EEFEFEDBFEFE5EEBF04
:10034E00C0E0D0E30C94C3101A930A93E091E40733
:10035E00EE7FE093E40710E000E0163188F41030F1
:10036E0031F0E12FF0E0E45BFF4CE0810E0FE12F66
:10037E00F0E0E45BFF4CA0810E9455091F5FEDCFBA
:10038E0000936230A09162300E945509E091E4071B
:10039E00E160E093E4070991199108950E94FA171C
:1003AE0011F5A2E0B0E0E0EA0E94731FA3E0B0E016
:1003BE00E0E30E94731FA4E0B0E0E3E30E94731F2A
:1003CE00A5E0B0E0E5E30E94731FA6E0B0E00E9456
:1003DE0000180E940B180E94121824F40E941A187A
:1003EE006394F9CF99240E94FA1709F058C0A8E037
:1003FE00B0E0EFEA0E94731FA9E0B0E0E1E00E94D6
:10040E00731FAAE0B0E0E3E60E94731FABE0B0E01A
:10041E00E0E60E94731FACE0B0E0E4E60E94731FBA
:10042E00ADE0B0E0E0E00E94731FAEE0B0E00E94ED
:10043E00731FAFE0B0E00E94731FA0E1B0E00E9416
:10044E00731FA1E1B0E00E94731FA2E1B0E00E9411
:10045E00731FA3E1B0E00E94731FA4E1B0E0E8E9CE
:10046E000E94731FA5E1B0E0EAE30E94731FA6E1AC
:10047E00B0E0ECED0E94731FA7E1B0E0E5E00E9452
:10048E00731FA8E1B0E00E94731F0E942F180E94F4
:10049E00121824F40E943D186394F9CF99240E94F7
:1004AE00FA17C9F4AAE1B0E0EAEA0E94731FABE1C1
:1004BE00B0E0E0E60E94731FACE1B0E0EAEE0E940D
:1004CE0052180E945C180E94121824F40E9463189D
:1004DE006394F9CF99240E94FA17C9F4A6E5B0E007
:1004EE00E2EA0E94731FA7E5B0E0E1E00E94731FED
:1004FE00A8E5B0E0E0E00E9452180E9478180E9431
:10050E00121824F40E947F186394F9CF99240E9444
:10051E00FA1711F5A9E3B0E0EDEA0E94731FAAE302
:10052E00B0E0EAE50E94731FABE3B0E0E0E00E94AA
:10053E00731FACE3B0E0EAE50E94731FADE3B0E0D9
:10054E000E9400180E9494180E94121824F40E940F
:10055E009B186394F9CF99240E94FA1709F5A6E720
:10056E00B0E0E6EA0E94731FA7E7B0E0E0E00E9469
:10057E00731FA8E7B0E00E94731FA9E7B0E0E1E0A7
:10058E000E94731FAAE7B0E00E9400180E94B018E4
:10059E000E94121824F40E94B7186394F9CF99247C
:1005AE000E94FA1709F08CC0AEE1B0E0E1EA0E94B9
:1005BE00731FAFE1B0E0E3E50E94731FA0E2B0E06D
:1005CE00E5E70E94731FA1E2B0E0EEE60E94731F02
:1005DE00A2E2B0E0E0E20E94731FA3E2B0E0E3E526
:1005EE000E94731FA4E2B0E0E5E60E94731FA5E22D
:1005FE00B0E0E0E70E94731FA6E2B0E0E0E20E94E6
:10060E00731FA7E2B0E0E2E30E94731FA8E2B0E01E
:10061E00E1E30E94731FA9E2B0E0E0E20E94731FC3
:10062E00AAE2B0E0E2E30E94731FABE2B0E0E3E3C4
:10063E000E94731FACE2B0E0EAE30E94731FADE2CA
:10064E00B0E0E3E30E94731FAEE2B0E0E6E30E9487
:10065E00731FAFE2B0E0EAE30E94731FA0E3B0E0C5
:10066E00E2E30E94731FA1E3B0E0E4E30E94731F74
:10067E00A2E3B0E0E0E20E94731FA3E3B0E0E2E386
:10068E000E94731FA4E3B0E0E0E30E94731FA5E392
:10069E00B0E0E1E30E94731FA6E3B0E0E4E30E9442
:1006AE00731FA7E3B0E0E0E00E94731F0E94CC1816
:1006BE000E94121824F40E94DA186394F9CF992438
:1006CE000E94FA17A1F4AFE3B0E0E7EA0E94731FAD
:1006DE00A0E4B0E0E2E40E94731F0E94EF180E94B3
:1006EE00121824F40E94FD186394F9CF99240E94E5
:1006FE00FA17C9F4A2E4B0E0E7E70E94731FA3E47F
:10070E00B0E0E0E00E94731FA4E4B0E0ECEF0E94C2
:10071E0052180E9412190E94121824F40E941919DC
:10072E006394F9CF99240E94FA1709F041C0AAE404
:10073E00B0E0EBEA0E94731FABE4B0E0E5E70E9485
:10074E00731FACE4B0E0EEE60E94731FADE4B0E0C0
:10075E00E7E30E94731FAEE4B0E0E0E30E94731F74
:10076E00AFE4B0E0E2E30E94731FA0E5B0E0E2E682
:10077E000E94731FA1E5B0E0EEE00E94731FA2E598
:10078E00B0E0E4E00E94731FA3E5B0E0E4E10E9454
:10079E00731FA4E5B0E0EEE00E94731F0E942E19B5
:1007AE000E94121824F40E943C196394F9CF9924E4
:1007BE000E94FA1781F5AAE5B0E0EEEA0E94731FD7
:1007CE00ABE5B0E0EFEF0E94731FACE5B0E00E9426
:1007DE00731FADE5B0E00E94731FAEE5B0E00E945E
:1007EE00731FAFE5B0E00E94731FA0E6B0E00E9459
:1007FE00731FA1E6B0E00E94731FA2E6B0E00E9454
:10080E00731F0E9451190E94121824F40E945F193E
:10081E006394F9CF99240E94FA1729F5AAE6B0E05D
:10082E00E4EA0E94731FABE6B0E0E0E00E94731FA3
:10083E00ACE6B0E0ECEF0E94731FADE6B0E0E8E688
:10084E000E94731FAEE6B0E0E7EF0E94731F0E9496
:10085E0074190E947C190E94121824F40E948319A4
:10086E006394F9CF99240E94FA1709F5A0E7B0E036
:10087E00E8E50E94731FA1E7B0E0E0E00E94731F5D
:10088E00A2E7B0E00E94731FA3E7B0E0E1E00E9490
:10089E00731FA4E7B0E00E9400180E9498190E94EE
:1008AE00121824F40E949F196394F9CF99240E9480
:1008BE00FA17C1F4A6E4B0E0E6E70E94731FA7E4BE
:1008CE00B0E0EFEF0E94731FA8E4B0E00E94521850
:1008DE000E94B4190E94121824F40E94BB1963944A
:1008EE00F9CF99240E94FA1701F5A4E6B0E0EAE6E2
:1008FE000E94731FA5E6B0E0E0E00E94731FA6E61B
:10090E00B0E00E94731FA7E6B0E00E94731FA8E636
:10091E00B0E00E9400180E94D0190E94121824F410
:10092E000E94D7196394F9CF99240895E5EAE093CC
:10093E004C30E0E4E0934D30EFE1E0934E30E8E7E9
:10094E00E0934F30E0E0E0935030EBEBE09351302A
:10095E00EBE0E0935230E0E0E0935330EFEFE093C2
:10096E005430E0E0E0935530E8E0E0935630EDEAA5
:10097E00E0935730EDE0E0935830ECEAE0935930D5
:10098E00EDE0E0935A30E0E1E0935B30E7E2E09394
:10099E005C30E0E0E0935D30E4E0E0935E30E0E078
:1009AE00E0935F30E6E0E0936030E0E0E0936130AA
:1009BE000895E0E0E0930406E0930006E09310064D
:1009CE00E0931106E0931206E0931306E0931406EB
:1009DE00E0931506E0931606E0931706E0910906DC
:1009EE00E07FE0930906E0E0E0930A06E0930B0651
:1009FE00E0932406E0932006E0933006E093310660
:100A0E00E0933206E0933306E0933406E093350626
:100A1E00E0933606E0933706E0912906E07FE093F7
:100A2E002906E0E0E0932A06E0932B06E8E1E09346
:100A3E004406E8EBE0934006E0E0E0935006E093D6
:100A4E005106E0935206E0935306E0935406E0936A
:100A5E005506E0935606E0935706E0914906E07F6F
:100A6E00E0934906E0E0E0934A06E0934B06E0E8A7
:100A7E00E0936406E0936006E0E0E0937006E09396
:100A8E007106E0937206E0937306E0937406E093AA
:100A9E007506E0937606E0937706E0916906E07FAF
:100AAE00E0936906E0E0E0936A06E0936B06E0935C
:100ABE008406E0938006E0939006E0939106E0931F
:100ACE009206E0939306E0939406E0939506E093E6
:100ADE009606E0939706E0918906E07FE0938906FB
:100AEE00E0E0E0938A06E0938B06E093A406E093A1
:100AFE00A006E093B006E093B106E093B206E09351
:100B0E00B306E093B406E093B606E093B706E09121
:100B1E00A906E07FE093A906E0E0E093AA06E09341
:100B2E00AB06EFE0E093E407E093E007E0E0E0934C
:100B3E00F007E093F107E091E907E07FE093E90722
:100B4E00E0E0E093EA07E093EB070895E8E0E09336
:100B5E004506E3E0E093A508E091A308E07CE0639E
:100B6E00E093A308E5EFE093A608ECECE093A7086A
:100B7E00E091A408E07EE861E093A40808950E9445
:100B8E00EC19B090A108A090A008EB2DEC7131F4F7
:100B9E00E22DF0E0E050F04DA0822394E091813000
:100BAE00F0E0EF3FA0E0FA0709F032C2E09100302A
:100BBE00F0E0EF3FA0E0FA0731F40E94FA19EFEFF0
:100BCE00E093003023C2EA3CA0E0FA0721F4EAECFD
:100BDE000E94001A1BC2E53FA0E0FA0721F4E5EFE0
:100BEE000E94001A13C2E53BA0E0FA0739F4E5EBC8
:100BFE00E0938130E4E00E94081A08C2EA3EA0E0C9
:100C0E00FA0721F4EAEE0E94001A00C2E53EA0E0C7
:100C1E00FA0739F4E5EEE0938130E7E00E94081A16
:100C2E00F5C1E73EA0E0FA0739F4E7EEE093813034
:100C3E00E7E00E94081AEAC1E036A0E0FA0721F4C4
:100C4E00E0E60E94001AE2C1E83EA0E0FA0739F49D
:100C5E00E8EEE0938130E3E00E94081AD7C1E93E46
:100C6E00A0E0FA0739F4E9EEE0938130E3E00E9468
:100C7E00081ACCC1E03AA0E0FA07D9F40E940D1A86
:100C8E000E9474190E940B180E94121824F40E94DC
:100C9E001A186394F9CF6624691440F4A62DB0E0B7
:100CAE00AE5FBF4F0E94121A6394F6CF0E94171ABE
:100CBE00ADC1E13AA0E0FA07C9F40E940D1A0E94F4
:100CCE00CC180E94121824F40E94DA186394F9CFFB
:100CDE006624691440F4A62DB0E0A25EBF4F0E94B8
:100CEE00121A6394F6CF0E94171A91C1E23AA0E04D
:100CFE00FA07D9F40E940D1A0E941C1A0E94781845
:100D0E000E94121824F40E947F186394F9CF66246F
:100D1E00691440F4A62DB0E0AA5ABF4F0E94121AD1
:100D2E006394F6CF0E94171A72C1E43AA0E0FA0754
:100D3E00D9F40E940D1A0E9474190E947C190E9407
:100D4E00121824F40E9483196394F9CF662469144F
:100D5E0040F4A62DB0E0A659BF4F0E94121A63941C
:100D6E00F6CF0E94171A53C1E63AA0E0FA07D9F45B
:100D7E000E940D1A0E9474190E94B0180E94121837
:100D8E0024F40E94B7186394F9CF6624691440F4D2
:100D9E00A62DB0E0AA58BF4F0E94121A6394F6CF48
:100DAE000E94171A34C1E73AA0E0FA07C9F40E946C
:100DBE000D1A0E94EF180E94121824F40E94FD18BA
:100DCE006394F9CF6624691440F4A62DB0E0A15CBB
:100DDE00BF4F0E94121A6394F6CF0E94171A17C1C2
:100DEE00EA3AA0E0FA07D9F40E940D1A0E941C1AE2
:100DFE000E945C180E94121824F40E9463186394D7
:100E0E00F9CF6624691440F4A62DB0E0A65EBF4F5C
:100E1E000E94121A6394F6CF0E94171AF8C0EB3A8A
:100E2E00A0E0FA07C9F40E940D1A0E942E190E9422
:100E3E00121824F40E943C196394F9CF66246914A5
:100E4E0040F4A62DB0E0A65BBF4F0E94121A639429
:100E5E00F6CF0E94171ADBC0ED3AA0E0FA07D9F4DC
:100E6E000E940D1A0E9474190E9494180E94121862
:100E7E0024F40E949B186394F9CF6624691440F4FD
:100E8E00A62DB0E0A75CBF4F0E94121A6394F6CF56
:100E9E000E94171ABCC0EE3AA0E0FA07C9F40E94ED
:100EAE000D1A0E9451190E94121824F40E945F1903
:100EBE006394F9CF6624691440F4A62DB0E0A65AC7
:100ECE00BF4F0E94121A6394F6CF0E94171A9FC04A
:100EDE00EF3AA0E0FA07C9F40E940D1A0E942F18EB
:100EEE000E94121824F40E943D186394F9CF6624D0
:100EFE00691440F4A62DB0E0A85FBF4F0E94121AED
:100F0E006394F6CF0E94171A82C0E835A0E0FA0764
:100F1E00D9F40E940D1A0E9474190E9498190E9409
:100F2E00121824F40E949F196394F9CF6624691451
:100F3E0040F4A62DB0E0A059BF4F0E94121A639440
:100F4E00F6CF0E94171A63C0EA36A0E0FA07D9F46A
:100F5E000E940D1A0E9474190E94D0190E94121834
:100F6E0024F40E94D7196394F9CF6624691440F4CF
:100F7E00A62DB0E0AC59BF4F0E94121A6394F6CF63
:100F8E000E94171A44C0E637A0E0FA07D9F40E946F
:100F9E000D1A0E941C1A0E94B4190E94121824F4F1
:100FAE000E94BB196394F9CF6624691440F4A62DF0
:100FBE00B0E0AA5BBF4F0E94121A6394F6CF0E9454
:100FCE00171A25C0E737A0E0FA07D9F40E940D1AC8
:100FDE000E941C1A0E9412190E94121824F40E94D8
:100FEE0019196394F9CF6624691440F4A62DB0E064
:100FFE00AE5BBF4F0E94121A6394F6CF0E94171A6F
:10100E0006C0EFEFE09300300E94FA19222404C0CC
:10101E00EA3CA0E0FA0731F5E2E0E21511F5A09105
:10102E000030A13021F4A0910130A13009F003C0AD
:10103E000E94241A10C0A0910030AF3021F4A0916C
:10104E000130AF3009F007C00E94241A0E94FA192D
:10105E00E1E0DE2E05C0EFEFE0938130E1E03E2EC1
:10106E0022241BC1E53FA0E0FA0711F5E2E0E215EC
:10107E00F1F4A0910030AF3521F4A0910130AF35DD
:10108E0009F012C0A5EF0AD1A5EF08D1A5EF0E9475
:10109E002A1A2224A5E0B0E00E94651CE8EDE4BF08
:1010AE00E1E0E093790003C00E94FA192224F5C012
:1010BE00E53BA0E0FA0749F5E4E0E21529F56624E0
:1010CE008824E3E06E1620F40E942D1A6394F9CF63
:1010DE00A09103308A16A9F4E0910030E87019F05F
:1010EE00E0910030E870E0910030E470E091003063
:1010FE00E470A5EBD3D0A5EB0E942A1A22248824F3
:10110E0003C00E94FA192224C8C0EA3EA0E0FA07E2
:10111E00E1F4E2E0E215C1F466248824E1E06E1603
:10112E0020F40E942D1A6394F9CFA09101308A16F3
:10113E0041F4AAEEB3D0AAEE0E942A1A22248824E1
:10114E0003C00E94FA192224A8C0E036A0E0FA07D4
:10115E00F1F4E2E0E215D1F466248824E1E06E16A3
:10116E0020F40E942D1A6394F9CFA09101308A16B3
:10117E0051F4A0E693D0A0E091D0A0E00E942A1AEC
:10118E002224882403C00E94FA19222486C0E53E38
:10119E00A0E0FA07E1F4E7E0E215C1F46624882442
:1011AE00E6E06E1620F40E942D1A6394F9CFA091FA
:1011BE0006308A1641F4A5EE71D0A5EE0E942A1AC9
:1011CE002224882403C00E94FA19222466C0E73E16
:1011DE00A0E0FA07E1F4E7E0E215C1F46624882402
:1011EE00E6E06E1620F40E942D1A6394F9CFA091BA
:1011FE0006308A1641F4A7EE51D0A7EE0E942A1AA5
:10120E002224882403C00E94FA19222446C0E83EF4
:10121E00A0E0FA07E1F4E3E0E215C1F466248824C5
:10122E00E2E06E1620F40E942D1A6394F9CFA0917D
:10123E0002308A1641F4A8EE31D0A8EE0E942A1A86
:10124E002224882403C00E94FA19222426C0E93ED3
:10125E00A0E0FA07E1F4E3E0E215C1F46624882485
:10126E00E2E06E1620F40E942D1A6394F9CFA0913D
:10127E0002308A1641F4A9EE11D0A9EE0E942A1A64
:10128E002224882403C00E94FA19222406C0EFEFFC
:10129E00E09300300E94FA19222472C1AA93E091C1
:1012AE00A108E072E1F3E881E093A0083EC1E0E816
:1012BE00E0936506E3E0E093B509E091B309E07CC5
:1012CE00E093B309EEE6E093B609E8EAE093B709D6
:1012DE00E091B409E07EE860E093B4090895AA9322
:1012EE00E091B109E072E1F3E881E093B0091DC12C
:1012FE001A9310E0AEE2B0E30E94C715A12FB0E042
:10130E00AE17BF0740F4E12FF0E0E25DFF4CA08185
:10131E00E6DF1F5FEFCF0E94341AE0E0EA93AEE102
:10132E00B0E00E94AA15AAE0DADFADE0D8DFE8C08F
:10133E00BA93AA93A881B981EC91E07FEC931996A8
:10134E00ECE0EC93229608951A930A931FB7F89443
:10135E00E0910008E07FE560E0930008E09101086D
:10136E00E870E0930108E0910308E071E093030850
:10137E00E0910608E07FE160E0930608E09107083F
:10138E00E070E0930708E0919900EE7F0E2FE8EDF4
:10139E00E4BF00939900E0918008E07CE093800820
:1013AE00E0918308E87EE0938308E0E0E093820812
:1013BE00A4E8B8E00A2EAC91E0918408E470EA2B20
:1013CE00A02DEC93E0910C08E0930C08E0E0F0E027
:1013DE00E0932008F0932108E1E1FAE7E093260874
:1013EE00F0932708E0E0F0E0E0932808F093290856
:1013FE00E0932A08F0932B08E0932C08F0932D0825
:10140E00E0932E08F0932F081FBF59C51A931FB7EC
:10141E00F894A0E4B8E08CDFE5E0E0934008E0E06B
:10142E00E0934108E0934308E0934408E0914608B6
:10143E00E07FE160E0934608E0E0E0934708E0914A
:10144E009008ED7FE0939008E0914C08E0934C08F3
:10145E00E0E0F0E0E0936008F0936108E7EAF1E67F
:10146E00E0936608F0936708E0E0F0E0E093680828
:10147E00F0936908E0936A08F0936B0840C01A93E2
:10148E001FB7F894E0910009E07FE160E093000956
:10149E00E0910109E870E0930109E0910309E07120
:1014AE00E0930309E0910609E07FE160E09306090D
:1014BE00E0910709E070E0930709E0910C09E093D1
:1014CE000C09E0E0F0E0E0932009F0932109EFE34E
:1014DE00F6EAE0932609F0932709E0E0F0E0E093C6
:1014EE002809F0932909E0932A09F0932B09E09338
:1014FE002C09F0932D09E0932E09F0932F091FBFAD
:10150E0019910895E3E5E093C008E091C108EC7FDE
:10151E00E093C1080895AA93E881E093C308E0918F
:10152E00C208E078E1F3E091C30821960895E0EA5D
:10153E00F4E0FA93EA93E0E0EA93A0E00E94E0156B
:10154E000E94391AE0EAF4E0FA93EA93E0E4EA93AF
:10155E00ABE90E94F515E0E0E093A80408950A9225
:10156E001A92FA926A937A938A939A93AA93BA9357
:10157E00EA93FA93EFB7EA93A2E8B0E30E9420163B
:10158E00E991EFBFF991E991B991A9919991899159
:10159E0079916991F990199009901895E6EFE09379
:1015AE000C31E7EFE0930D31E4EFE0930A31EEE218
:1015BE00E0930B31E6EFE0931231E7EFE093133156
:1015CE00E8EFE0931431E4EFE0931031E091A830AE
:1015DE00E295E07FEE0FEE0FEC5CE0931131EAEA5C
:1015EE00E093DE30EBEAE093DF30ECEAE093E030BC
:1015FE00EDEAE093E130EEEAE093E230EFEAE093D9
:10160E00E330E0EBE093E430E1EBE093E530E2EB46
:10161E00E093E630E3EBE093E730E4EBE093E83081
:10162E00E5EBE093E930E6EBE093EA30E7EBE093AD
:10163E00EB30E8EBE093EC30E9EBE093ED30EAEBE6
:10164E00E093EE30EBEBE093EF30ECEBE093F03029
:10165E00EDEBE093F130EEEBE093F230EFEBE09355
:10166E00F33008959BDF0E94391AE7E7EA93EEED17
:10167E00F0E30E943E1AE4EFF0E30E94431AE7E71C
:10168E00EA93E0EEF0E30E943E1AE6EFF0E30E94EA
:10169E00431AE7E7EA93E2EEF0E30E943E1AE8EF20
:1016AE00F0E30E94431AE7E7EA93E4EEF0E30E94C8
:1016BE003E1AEAEFF0E30E94431AE7E7EA93E6EEFA
:1016CE00F0E30E943E1AECEFF0E30E94431AE7E7C4
:1016DE00EA93E8EEF0E30E943E1AEEEFF0E30E948A
:1016EE00431AE7E7EA93EAEEF0E30E943E1AE0E0DF
:1016FE00F1E30E94431AE7E7EA93ECEEF0E30E946F
:10170E003E1AE2E0F1E30E94431AE7E7EA93EEEEB7
:10171E00F0E30E943E1AE4E0F1E30E94431AE7E789
:10172E00EA93E0EFF0E30E943E1AE6E0F1E30E9456
:10173E00431AE7E7EA93E2EFF0E30E943E1AE8E08D
:10174E00F1E3FA93EA93A2E00E94A816B091F43066
:10175E00A0E0E091F530F0E0EA0FFB1FE0938E3051
:10176E00F0938F30F091F630E0E0DF01E091F7304A
:10177E00F0E0EA0FFB1FE0939030F0939130F09180
:10178E00F830E0E0DF01E091F930F0E0EA0FFB1F06
:10179E00E0939230F0939330F091FA30E0E0DF0175
:1017AE00E091FB30F0E0EA0FFB1FE0939430F093F2
:1017BE009530F091FC30E0E0DF01E091FD30F0E09B
:1017CE00EA0FFB1FE0939630F0939730F091FE30C6
:1017DE00E0E0DF01E091FF30F0E0EA0FFB1FE09365
:1017EE009830F0939930F0910031E0E0DF01E09114
:1017FE000131F0E0EA0FFB1FE0939A30F0939B303B
:10180E00F0910231E0E0DF01E0910331F0E0EA0F08
:10181E00FB1FE0939C30F0939D30F0910431E0E09B
:10182E00DF01E0910531F0E0EA0FFB1FE0939E30FF
:10183E00F0939F30F0910631E0E0DF01E091073147
:10184E00F0E0EA0FFB1FE093A030F093A130F0918F
:10185E000831E0E0DF01E0910931F0E0EA0FFB1F13
:10186E00E093A230F093A33008950E94391AE7E76F
:10187E00EA93EAE0F1E30E943E1A0E94491AE7E772
:10188E00EA93ECE0F1E30E943E1AEEE0F1E30E94EF
:10189E00431AE7E7EA93E0E1F1E30E943E1A0E9461
:1018AE00491AE7E7EA93E2E1F1E30E94511AE5E112
:1018BE00F1E30E94561AE7E7EA93E3E1F1E30E94AF
:1018CE00511AE6E1F1E30E94561AE7E7EA93E4E1E2
:1018DE00F1E30E94511AE7E1F1E3FA93EA93A1E0F2
:1018EE000E94A816B0910E31A0E0E0910F310E9437
:1018FE005C1AE093A430F093A5306093A6307093F9
:10190E00A730A0911531BB27E091A830E85F0E9467
:10191E00381E0E949A1E0E94621AA091AD30AA2310
:10192E0032F40E946B1A0E94301E0E94621AA0911D
:10193E001631B0E0E091A8300E94381EA091AA3076
:10194E00B091AB308091AC309091AD300E94741A52
:10195E007F936F93FF93EF93009017311124A09113
:10196E00A830E8E0EA1BD0010E94411EAF91BF9162
:10197E008F919F910E94741A0E94621AE091983082
:10198E00F0919930A091A430B091A5308091A630FD
:10199E009091A730662777270E942B1EE0919630F4
:1019AE00F0919730662777270E94791A0E94811A44
:1019BE00A091A030B091A1300E949F1EEBE00E943A
:1019CE00531E7F936F93FF93EF93E091A230F091AC
:1019DE00A3300E948A1A0E94741AAF91BF918F9100
:1019EE009F910E94061F0E94931AE093B630F093C7
:1019FE00B7306093B8307093B9300E949F1AE85F89
:101A0E00FF4F6F4F7F4FDF01CB01E4E00E945F1E5F
:101A1E00E093BA30F093BB306093BC307093BD301E
:101A2E000E94A81A0E94DB1CDF01CB010E94B11A92
:101A3E000E94B31DE093D630F093D7306093D83028
:101A4E007093D9300E949F1AE05AFF406040704058
:101A5E00E093BE30F093BF306093C0307093C130CE
:101A6E000E94B61A0E94BF1AA0919C30B0919D3070
:101A7E000E94CA1AECE00E945F1EDF01CB01EBE070
:101A8E000E94D11AA0919030B09191300E94CA1A42
:101A9E00EBE00E945F1E0E94931A0E94D51AE091FD
:101AAE008E30F0918F300E94791EDF010E94DE1A77
:101ABE000E949F1E0E94211EE091A8300E94531E7C
:101ACE000E94E71AE093C630F093C7306093C83097
:101ADE007093C9300E94B61AA0919230B091933093
:101AEE000E94CA1AEDE00E94D11A0E94BF1ADF01AD
:101AFE00CB01ECE00E945F1EA0919A30B0919B301A
:101B0E000E949F1E0E94F01A0E94931A0E94E71ACA
:101B1E000E94D51A0E94DE1AE050F0486F4F7F4F98
:101B2E00A0919430B0919530882799270E94791A08
:101B3E00E093D230F093D3306093D4307093D5309D
:101B4E00A091C630B091C7308091C8309091C93005
:101B5E000E946B1A0E94261E7F936F93FF93EF9342
:101B6E00E091A830A0E5B3EC0E944A1EAF91BF9160
:101B7E008F919F91662777270E94A91EE093CA3006
:101B8E00F093CB306093CC307093CD300E94F51A29
:101B9E00A030E0E0BE07E0E08E07E0E89E0788F4A4
:101BAE00E091CA30F091CB306091CC307091CD3055
:101BBE000E94831EDF01CB010E94FE1A0E94E11ECD
:101BCE0008C00E94FE1A0E94F51A0E94E11E0E9491
:101BDE00831EE093CE30F093CF306093D03070936D
:101BEE00D1300E94071B7F936F93FF93EF930E9458
:101BFE00071BAF91BF918F919F910E94C91E0E94AA
:101C0E00811AE091AE30F091AF306091B0307091AA
:101C1E00B130AEEDBBE080E090E00E94F01A0E9481
:101C2E00811A0E94131BA3E4B3EE8FEF9FEF0E9465
:101C3E00F01A0E94931AE153F14F6F4F7F4FDF015D
:101C4E00CB01E4E00E945F1E0E941C1B0E941C1E22
:101C5E00E093CE30F093CF306093D0307093D1308C
:101C6E000E94131B0E94DB1CDF01CB01EFE6F2E5A5
:101C7E0065E073E40E94B31DE093DA30F093DB303D
:101C8E006093DC307093DD300895E2E0E0931E3116
:101C9E00E0E0E0931F310E94391AE8E1EA93EEE1A9
:101CAE00F1E30E943E1A0E94251B0E94A816E3E053
:101CBE00E0931C31E2E3E0931D310E94391AE8E112
:101CCE00EA93ECE1F1E30E943E1A0E94251B72C0DA
:101CDE00E0E0E09318310E94391AE8E1EA93E8E176
:101CEE00F1E30E94511AE9E1F1E361C0E2E0E09311
:101CFE002631E0E0E09327310E94391AE9E1EA93B8
:101D0E00E6E2F1E30E943E1A0E94251B0E94A816ED
:101D1E00E3E0E0932431E8E9E09325310E94391A9B
:101D2E00E9E1EA93E4E2F1E30E943E1A0E94251BE8
:101D3E0041C0E0E0E09320310E94391AE9E1EA93D4
:101D4E00E0E2F1E30E94511AE1E2F1E330C0E2E099
:101D5E00E0932E31E0E0E0932F310E94391AEAE150
:101D6E00EA93EEE2F1E30E943E1A0E94251B0E94C6
:101D7E00A816E3E0E0932C31E0E4E0932D310E94CD
:101D8E00391AEAE1EA93ECE2F1E30E943E1A0E946C
:101D9E00251B10C0E0E0E09328310E94391AEAE1D9
:101DAE00EA93E8E2F1E30E94511AE9E2F1E3FA93D1
:101DBE00EA93A1E00E94A8160895AA93E0E1E093A9
:101DCE004606AB81A8DBAA81A6DBA981A4DBA8818C
:101DDE00A2DBE0914806ED6FEF3FD9F3E0E1E0932F
:101DEE00450624960895AA930E94A31FE0913031D0
:101DFE00AC81EA1729F0A13011F0A23009F401C02C
:101E0E0010C0AC81A13011F40E942B1BAC81A2300A
:101E1E0041F4E1E2EA93ECE0EA93E1E1EA93A0E433
:101E2E00CCDFEC81E0933031E0914806ED6FEF3F6F
:101E3E00D9F3E0E1E09346068BE68A95F1F7A8E345
:101E4E006ADBAFEF68DB0E2F1127AFEF64DB2E2FAF
:101E5E003327E0E1E0934506F02FE0E0E22BF32B91
:101E6E00E4C01A930A930FB7F894E0915000E26021
:101E7E00E0935000E0914100E0781E2FE8EDE4BFC2
:101E8E0010934100E0916000EE7FE0936000E091DE
:101E9E005100E270E1F3E0914000E87FE1601E2F17
:101EAE00E8EDE4BF10934000E0915000E27EE09335
:101EBE005000E091B400EC7FE093B4000FBF0991A5
:101ECE0019910895AA931A93E2E0E093CA01E98169
:101EDE00F0E01491E0E0E093CA01E12F1881229620
:101EEE000895A0E2EFDFE0930C02A1E2EBDFE093B6
:101EFE000D02E0E0E0930102E3E0E0930402E1E191
:101F0E00E0930202E0E0E0931802E0931902E1E0B0
:101F1E00E0932002E0E2E0932102E1E0E093280268
:101F2E00E8E2E0932902E1E0E0933002E0E3E0939F
:101F3E003102E1E0E0933802E8E3E0933902E0E0B9
:101F4E00E0930302E0932202E0932A02E09332022E
:101F5E00E0933A02E0910002E160E09300024CC08F
:101F6E00AA930E94A31FEC81F0E0A0E2B2E00E94CF
:101F7E00341BF801A381A170E1F34FC0A4E2A2DFEC
:101F8E00E0934C02A5E29EDFE0934D02E0E0E09389
:101F9E004102E3E0E0934402E0E1E0934202E0E03C
:101FAE00E0935802E0935902E1E0E0936002E0E032
:101FBE00E0936102E1E0E0936802E8E0E0936902F9
:101FCE00E1E0E0937002E0E1E0937102E1E0E09382
:101FDE007802E8E1E0937902E0E0E0934302E093D7
:101FEE006202E0936A02E0937202E0937A02E09159
:101FFE004002E160E093400285E18A95F1F7089591
:10200E00AA930E94A31FEC81F0E0A0E6B2E00E942A
:10201E00341BF801A381A170E1F3D8011396E1E01E
:10202E00EC93F80124813581F9010E94AA1F2596AF
:10203E0008950E94EC19DD2021F0A0918130AF3F70
:10204E0009F006C00E94AB01A1E0B0E00E94651C41
:10205E0084C00E94EC190E943E1BA1E0C4DEE093F6
:10206E003131F0933231E0913131F0913231E05033
:10207E00F048E0933131F0933231E0913131E09319
:10208E005330E0913131F09132310E94881EE0934D
:10209E0054300E94441B7724E4E07E1630F5E72D81
:1020AE00A6E2B0E3F0E0EE0FFF1FEA0FFB1FFF9377
:1020BE00EF93A72D55DFE659F040AF91BF91ED9309
:1020CE00FC93E72DAEE1B0E3F0E0EE0FFF1FEA0F59
:1020DE00FB1FFF93EF93A72D93DFE659F040AF91CF
:1020EE00BF91ED93FC937394D7CFE0911E30E093A4
:1020FE004D30E0911F30E0934E30E0912030E09370
:10210E005130E0912130E0935230E0912230E09353
:10211E004F30E0912330E0935030E0912430E09343
:10212E005930E0912530E0935A30E0912630E0931B
:10213E005D30E0912730E0935E30E0912830E093FF
:10214E005F30E0912930E0936030E0912A30E093E7
:10215E005530E0912B30E0935630E991EFBFF99175
:10216E00E991B991A9919991899179916991F99092
:10217E001990099018951895F894E091A200E873BB
:10218E00E7601E2FE8EDE4BF1093A200E0E0E093BD
:10219E00A10067DE0E94E004E0918006E061E0931A
:1021AE008006E0918406E061E09384069ADEE6DE26
:1021BE000E94AD050E945E09A5D9B9D9A4E6B0E08A
:1021CE000E94651C78940E949D040E94341AE0EFD0
:1021DE00F1E00E944A1B0E94341AEDEFF1E00E94DA
:1021EE004A1B53DD83DDB3DD0E94341AE7E0F2E0D3
:1021FE000E944A1B37DA0E94341AE8E1F2E00E948C
:10220E004A1B0E94341AE9E2F2E0FA93EA9380E064
:10221E0066D424960E947F090E94561BE093010605
:10222E00E1E0E09305060E94561BE09306060E942D
:10223E00561BE0930506A2E3B0E00E94651C0E94C7
:10224E002B1B0E94341AE3E3F2E00E944A1B0E9409
:10225E00460A0E94AB090E940D0AE0918406EF7EA9
:10226E00E09384060E94341AE3E4F2E00E944A1BD3
:10227E000E94D5010E94FA1729F4A1E0B0E0E0E037
:10228E000E94731FA1E0B0E00E946A1FE23308F0C3
:10229E00FFC0A1E0B0E00E946A1FEF5F0E94731FB3
:1022AE000E943E1B15DD45DD75DD0E94441BE0914D
:1022BE002131E078E03821F4E0916130E26007C02E
:1022CE00E0912131E07829F4E0916130ED7FE093E7
:1022DE006130E0911931E071E03121F4E09161302B
:1022EE00E46007C0E0911931E07129F4E0916130AA
:1022FE00EB7FE0936130E0911931E072E03221F42E
:10230E00E0916130E86007C0E0911931E07229F484
:10231E00E0916130E77FE0936130E0911931E27036
:10232E00E23021F4E0916130E06107C0E0911931B3
:10233E00E27029F4E0916130EF7EE0936130E0913C
:10234E002131E870E83021F4E0916130E06207C09D
:10235E00E0912131E87029F4E0916130EF7DE09356
:10236E006130E0912131E071E03121F4E091613092
:10237E00E06407C0E0912131E07129F4E091613011
:10238E00EF7BE0936130E0912931E074E03421F489
:10239E00E0916130E06807C0E0912931E07429F4E2
:1023AE00E0916130EF77E09361300E94441B5DDA7B
:1023BE000E943E1B0E94341AEFE4F2E0FA93EA9375
:1023CE00E091DA30F091DB306091DC307091DD30ED
:1023DE000E94531FE091D630F091D7306091D830E3
:1023EE007091D9300E945C1BE091BA30AAE0EA02EB
:1023FE00F001E09357300E94A81AAAE0B0E080E006
:10240E0090E00E94C91EDF01CB01E8E00E945F1E32
:10241E00E09358300E94641BE0935B300E94641B73
:10242E00DF01CB01E8E00E945F1EE0935C300E946A
:10243E00341AE0E6F2E0FA93EA93B0915C30A0E051
:10244E00E0915B300E945C1A0E94531FB09158308D
:10245E00A0E0E09157300E945C1A0E945C1B0E9423
:10246E00341AE2E7F2E0FA93EA93E09161300E94C7
:10247E006C1B0E94341AECE7F2E0FA93EA93E091B7
:10248E0029310E946C1BAAE0B0E00E94651C08CFA7
:10249E00FFCFBA93AA931A930A93AA81BB8112967D
:1024AE000E943A1F309729F1AA81BB8114960E948F
:1024BE003A1F8F01309761F00230E0E01E0780F086
:1024CE00F80131978F01AA81BB811496ED93FC938D
:1024DE00AA81BB8112960E94771B3197AC81A08393
:1024EE00AA81BB810E943A1FFF2312F00E94771B24
:1024FE0006C0AA81BB81EFEFFFEFED93FC9319812C
:10250E0008810C94F3150E947D1BE0E8EA83EFE34B
:10251E00EB830E94A31FEE85FF85EF3FAFEFFA0717
:10252E0049F4E885F985FA93EA93AAE8B2E00E94A5
:10253E00BA15B7C0EF3FAFE7FA0749F4E885F9855A
:10254E00FA93EA93ABE8B2E00E94BA15AAC0AB8543
:10255E00A73010F0E6E0EB871B85E12F1150E0303D
:10256E0019F00E94841BF9CFEC85FD856E857F8561
:10257E000E949D1F21F430E00E94841B2DC03B85DC
:10258E000E94901B09F008F40BC00E94841B0E944D
:10259E00901B28F00E949B1B0E94A01BF8CF0DC021
:1025AE000E94901B40F40E949B1B0E94AC1B0E9439
:1025BE00B01B3150F5CF0E94841BEC85FD856E85D6
:1025CE007F850E94B51B0E94B01B0E94901B20F0BD
:1025DE000E949B1B0E94A01B10E0EB85E117A8F147
:1025EE00AC81BD818E819F810E94BC1B0E94B51B58
:1025FE00DF01CB010E944217EC83FD836E837F8344
:10260E000E949B1B0E94B31D0E94A21C0E2F0E94B3
:10261E00C31B0E94CA1BFF27662777270E94DB1C5D
:10262E00AC81BD818E819F810E94651D0E949B1B86
:10263E000E94CF1B0E94B01BE12F1F5FE03069F696
:10264E000E94C31BEEE2EC93C8CF0E94D41B3197BD
:10265E00AA85A08330302CF43195A885B985EDE29A
:10266E0003C0A885B985EBE2EC930E94D41B0E94AF
:10267E00D41B3197BF01A32FEAE00E94DC1EE05D60
:10268E00DB01EC930E94D41B3197BF01A32FEAE02C
:10269E000E940B1FE05DDB01EC93A885B985E0E09D
:1026AE00EC930E94AA1F60960895BA93AA93EF978F
:1026BE0061970E94A11F10E0FE01E85AFF4F0190A2
:1026CE00F081E02DE887F987FE01EA5AFF4F01906D
:1026DE00F081E02DEE83FF83AE81BF81E0E0F0E07C
:1026EE00ED93FC93DE01A45ABF4F0E94771B3197E6
:1026FE00E4912E2FE03009F4E9C1E12FE03039F4F6
:10270E00253211F411E002C00E94DA1BDEC1E13065
:10271E00C1F4253219F40E94DA1BD6C112E0E0E0B2
:10272E00ED8B00E02D3211F401E0CFC12B3219F404
:10273E00EBE2ED8BCAC1203219F4E0E2ED8BC5C19C
:10274E0002C0E23039F450E013E0203311F4006897
:10275E00BCC102C0E33091F4203310F02A3308F0EC
:10276E0007C0AAE05A9F502DE22FE0535E0FADC175
:10277E0040E02E3211F414E0A8C10FC0E43099F4F9
:10278E00203310F02A3308F008C00062AAE04A9FF6
:10279E00402DE22FE0534E0F98C12C3619F40260F3
:1027AE0015E093C103C0E53009F08FC1E22FE33687
:1027BE0059F40E94E11B0E94E81B0E94E11BA481B8
:1027CE00AA930E94EF1B80C1E53411F0E53609F49F
:1027DE0003C0E63609F048C0FE017696EE87FF8705
:1027EE000E94F51B0E943E1F0E94FC1B0E94011CB2
:1027FE00AD85AA2332F0AD89AB3259F0A03281F00B
:10280E0017C00E94031C0E946F1C0E94FC1BEDE26D
:10281E00ED8B07FF05C0ED89EA930E94EF1B08C000
:10282E00EE85FF853196EE87FF873197AD89A083C0
:10283E0005FF46E0263651F40E94031C0E94531FEA
:10284E004A93AB89BC890E94591709C00E94031C88
:10285E000E94531F4A932A93AC89BD8954DEFE0110
:10286E0076960E94081C1EC0E33739F40E94011CA4
:10287E000E94101C0E94081C0EC0E037C1F40E947A
:10288E00011C0E94101CEE87FF87AE85BF850E943B
:10289E00D3151E2F08600F77403011F0411708F046
:1028AE0001C0142F40E0E0E0EC8B30E06DC0E43668
:1028BE0011F0E93611F4046002C0E537A1F4EAE044
:1028CE00EC8B01FF08C0E0E0FAEC6AE97BE30E94C2
:1028DE00151C1AE022C0E0E1F7E260E070E00E9411
:1028EE00151C15E01AC0E83511F4086003C0E8376E
:1028FE0009F0EAC0E0E1EC8B01FF08C0E0E0F0E097
:10290E0060E070E10E94151C18E007C0E0E0F0E105
:10291E0060E070E00E94151C14E0403011F00F775B
:10292E0001C041E001FF08C00E94011C0E94F51B7E
:10293E0014960E943E1F0FC002FF07C00E94011C8A
:10294E000E94101C0E949A1E06C00E94011C0E942A
:10295E00101C66277727EA87FB876C877D8702FF27
:10296E0012C0AD85AA2342F40E94031C0E94301EA1
:10297E000E94FC1BEDE2ED8BED89E03019F01F5F3C
:10298E004F5F01C00B7F342F00FD14C0151710F4DC
:10299E00351708F00FC007FF08C002FF04C00B7FF9
:1029AE002D89115001C020E301C020E20E94DA1BE4
:1029BE005150ECCF141790F4006102FF06C00E9434
:1029CE001A1C09F0515011504150E0E3EA930E9455
:1029DE00EF1B503009F051504150ECCF312FEC89A4
:1029EE00E030B9F43030A1F003FF06C0EE85FF856C
:1029FE002591EE87FF8705C0AE85BF852D91AE87E9
:102A0E00BF870E94DA1B503009F051503150EACF87
:102A1E0051C00E942C1C0E94E11E2E2F2A3030F035
:102A2E0003FF02C0295C01C0295A01C0205D04FDCC
:102A3E0021C0213360F4A889B9898A899B89A13084
:102A4E00E0E0BE07E0E08E07E0E09E0709F40BC071
:102A5E00431740F4531710F000FF01C010C020E2DE
:102A6E0007FF08C020E3006102FF04C00E941A1C89
:102A7E0009F051500E94DA1B503009F0515031507C
:102A8E000E942C1C0E94171F0E94FC1BEC89A88917
:102A9E00B9898A899B89FF27662777270E94E11EBD
:102AAE000E94151CE889F9896A897B890E949D1FFD
:102ABE0009F0AFCF00FF08C0503031F05150E0E2C6
:102ACE00EA930E94EF1BF8CF10E00CCEAE81BF81CF
:102ADE000E943A1F0E94A81FEF966F960895FF92CC
:102AEE00F82E26970E94A31F0E94351C309719F4CA
:102AFE00EFEFFFEF23C0DE0116960E94181E8D0128
:102B0E000E94351CEE83FF83E0E0E887E987DE0153
:102B1E001A960E94181E0E943A1FFA93EA931A936D
:102B2E000A93E0E5F2E1FA93EA93DE011A96BDDD2F
:102B3E009F01AE81BF81E0E0EC93F9010E94AA1FD4
:102B4E002A96FF900895BA93AA93B981A8811096F8
:102B5E0031F0FC81EB816A8161931197E9F7EB818A
:102B6E00FC810C94F315BA93AA93E991F991A9916A
:102B7E00B991CD0105900D920020E1F7FC01089569
:102B8E00BA93AA93A991B991EE27FF276D91662367
:102B9E0011F03196FBCF0895BA93AA93AA27BB27BB
:102BAE00E991F9910590002011F01196FBCFFD01EE
:102BBE000895AA931A93AB81BC81EC91EC7F1E2FE2
:102BCE00EA81E03009F01160E981E03009F012602D
:102BDE00AB81BC811C93188125960895AA93E98137
:102BEE00E863AA81BB811196EC93EA81FB81329650
:102BFE00A0E0A083E881AA81BB811596EC93EA81BF
:102C0E00FB813496A1E0A083EA81FB81AC81BD817A
:102C1E00ED93FC93AC81BD811596E0E0EC93AC8115
:102C2E00BD811996EC93AC81BD811B96EC932696D3
:102C3E000895BA93AA9322970E94A11FA885B985D9
:102C4E000D911C91F80134813396AF0133FF02C010
:102C5E0023E003C032FF04C024E0F801348309C02E
:102C6E00F8013796EE83FF8336FF32C034FF05C07E
:102C7E0025E0DA01E3E0EC935BC0E885F985268177
:102C8E00E5812E1798F4E885F985A381B481E22FAA
:102C9E002F5FF0E0AE0FBF1FEC91AE81BF81EC93C2
:102CAE00E22FA885B9851696EC9347C0E885F9857D
:102CBE00A285E185AE1748F4E885F985A281E1E0A9
:102CCE00EA2BD8011696EC9338C0DA01E3E02CC05B
:102CDE0037FF2DC0E885F9852285E1852E1728F06E
:102CEE00DA01E3E0EC9322E023C0E885F985A781C1
:102CFE00B085E22F2F5FF0E0EA0FFB1F0F01AE81D0
:102D0E00BF81EC91D001EC93E22FA885B9851A967C
:102D1E00EC93E885F985E1852E1720F4DA01E2E0DF
:102D2E00EC930BC0DA01E7E0EC9321E001C026E062
:102D3E00E22FA885B9851B96EC930E94A81F2A96B0
:102D4E000895AA931A930A93E985FA85A385A07824
:102D5E0009F05BC0A985BA851B96E0E8EC93E8857F
:102D6E00EE0FE887A985BA851296EC93EE81FF8166
:102D7E00A985BA851396ED93FC93ED81A985BA8545
:102D8E001596EC93A985BA851696E0E0EC93EB8147
:102D9E00FC81A985BA851796ED93FC93EA81A985E6
:102DAE00BA851996EC93A985BA851A96E0E0EC934C
:102DBE00A985BA850E943A1F36968F01ED81E030C3
:102DCE0079F0EE81FF81309701F1EA81E03021F058
:102DDE00AB81BC81109709F001C017C0E88509C00E
:102DEE00EA81E03041F0EB81FC81309771F0E885AB
:102DFE00E160D801EC93E985FA85A385A078D9F72F
:102E0E00A385E1E00E94A41E01C0E0E019810881C3
:102E1E002B9608950E94581F7B816A81F981E88163
:102E2E0077FB770F67FD7160972F9E5781F078F0D3
:102E3E00983190F4AA27BB27882708948795B795D1
:102E4E00A7959A95D1F7EA23FB23682305C0E8944A
:102E5E007727EE27FF2766276F77769508F4606849
:102E6E0077F9A991B99189919991EA17FB076807AA
:102E7E00790797FB08950E94581F0E94491F0E94D0
:102E8E0011170E944E1F19F40E94441F09C0E6F745
:102E9E000E94441FA0E0B0E080E89FE30E940E1D58
:102EAE002496089523D4E0E0EA83EFE3EB831A93AC
:102EBE000A93EB85FC85EF3FAFEFFA0731F4D5D4DB
:102ECE00A2E9B2E00E94BA158AC0EF3FAFE7FA0757
:102EDE0031F4CBD4A3E9B2E00E94BA1580C0AC8520
:102EEE00AA2352F4E985FA856B857C850E946F1CB6
:102EFE00C1D4C5D4EDE2EC93A885A73010F0E6E07E
:102F0E00E8871885E12F1150E03021F0BFD42DD481
:102F1E00C2D4F8CFC5D40E94151DACD410E0E0E0A9
:102F2E00F0E060E87FE3B7D4BBD40E94F81D68F0F0
:102F3E00ADD40BD4B0D41F5F173230F096D4A7E9BE
:102F4E00B2E00E94BA154BC0EFCF103021F497D4E7
:102F5E00E0E3EC9320C0E12F1150E030E1F096D485
:102F6E0004D4FCD3DF01CB010E94421794D498D431
:102F7E000E94B31D0E94A21C0E2F81D404D4F0E037
:102F8E0085D40E949A1E0E94DB1C0E94651D91D45E
:102F9E00FFD370D4E0CFE885E030E9F070D4EEE2F4
:102FAE00EC93E885E150E887EF5FA9F082D4CDD3AA
:102FBE0061D4E985FA856B857C850E94A21C0E2F53
:102FCE005ED4E1D3F0E075D40E949A1E0E94DB1C01
:102FDE00DFD350D4E6CFAE81BF81E0E0EC93198110
:102FEE0008812D960895A1E0B0E00E946A1FEF3F80
:102FFE000895E0E00E94731FE6E09E2EE1E06E2E43
:10300E00E92DF0E031970895EE5FFF4FDF01E0E02C
:10301E000E94731F0895E92DF0E03197A62DB0E0C0
:10302E00AE17BF070895E92DF0E03197EE5FFF4F21
:10303E00BF01DF010E946A1F0E2EA62DB0E0AE5F0B
:10304E00BF4F0E946A1FE00DDB010E94731F08959F
:10305E00E2E19E2EE1E06E2EE92DF0E03197E85F81
:10306E00FF4FDF01E0E00E94731F0895E92DF0E0AD
:10307E003197E85FFF4FBF01DF010E946A1F0E2EDE
:10308E00A62DB0E0A85FBF4F0E946A1FE00DDB01C6
:10309E000E94731F08950E94731FE4E09E2EE1E0CC
:1030AE006E2EE92DF0E031970895E65EFF4FDF01B9
:1030BE00E0E00E94731F0895E92DF0E03197E65E7F
:1030CE00FF4FBF01DF010E946A1F0E2EA62DB0E03A
:1030DE00A65EBF4F0E946A1FE00DDB010E94731FA8
:1030EE000895EA5AFF4FDF01E0E00E94731F089532
:1030FE00E92DF0E03197EA5AFF4FBF01DF010E9440
:10310E006A1F0E2EA62DB0E0AA5ABF4F0E946A1F4C
:10311E00E00DDB010E94731F0895E75CFF4FDF0196
:10312E00E0E00E94731F0895E92DF0E03197E75C0F
:10313E00FF4FBF01DF010E946A1F0E2EA62DB0E0C9
:10314E00A75CBF4F0E946A1FE00DDB010E94731F38
:10315E000895EA58FF4FDF01E0E00E94731F0895C3
:10316E00E92DF0E03197EA58FF4FBF01DF010E94D1
:10317E006A1F0E2EA62DB0E0AA58BF4F0E946A1FDE
:10318E00E00DDB010E94731F0895EBE19E2EE1E03E
:10319E006E2EE92DF0E03197E25EFF4FDF01E0E0A9
:1031AE000E94731F0895E92DF0E03197E25EFF4F04
:1031BE00BF01DF010E946A1F0E2EA62DB0E0A25E97
:1031CE00BF4F0E946A1FE00DDB010E94731F08951E
:1031DE00E3E09E2EE1E06E2EE92DF0E03197E15C0A
:1031EE00FF4FDF01E0E00E94731F0895E92DF0E02C
:1031FE003197E15CFF4FBF01DF010E946A1F0E2E67
:10320E00A62DB0E0A15CBF4F0E946A1FE00DDB014E
:10321E000E94731F0895EE5BFF4FDF01E0E00E94F6
:10322E00731F0895E92DF0E03197EE5BFF4FBF015C
:10323E00DF010E946A1F0E2EA62DB0E0AE5BBF4FBF
:10324E000E946A1FE00DDB010E94731F0895ECE0DF
:10325E009E2EE1E06E2EE92DF0E03197E65BFF4FFA
:10326E00DF01E0E00E94731F0895E92DF0E0319731
:10327E00E65BFF4FBF01DF010E946A1F0E2EA62DD7
:10328E00B0E0A65BBF4F0E946A1FE00DDB010E94FB
:10329E00731F0895EAE09E2EE1E06E2EE92DF0E018
:1032AE003197E65AFF4FDF01E0E00E94731F089549
:1032BE00E92DF0E03197E65AFF4FBF01DF010E9482
:1032CE006A1F0E2EA62DB0E0A65ABF4F0E946A1F8F
:1032DE00E00DDB010E94731F0895E6E09E2EE1E0F3
:1032EE006E2EE92DF0E031970895E659FF4FDF017C
:1032FE00E0E00E94731F0895E92DF0E03197E65942
:10330E00FF4FBF01DF010E946A1F0E2EA62DB0E0F7
:10331E00A659BF4F0E946A1FE00DDB010E94731F6A
:10332E000895E059FF4FDF01E0E00E94731F0895FA
:10333E00E92DF0E03197E059FF4FBF01DF010E9408
:10334E006A1F0E2EA62DB0E0A059BF4F0E946A1F15
:10335E00E00DDB010E94731F0895EA5BFF4FDF0152
:10336E00E0E00E94731F0895E92DF0E03197EA5BCB
:10337E00FF4FBF01DF010E946A1F0E2EA62DB0E087
:10338E00AA5BBF4F0E946A1FE00DDB010E94731FF4
:10339E000895EC59FF4FDF01E0E00E94731F08957E
:1033AE00E92DF0E03197EC59FF4FBF01DF010E948C
:1033BE006A1F0E2EA62DB0E0AC59BF4F0E946A1F99
:1033CE00E00DDB010E94731F08950A921A92FA9281
:1033DE006A937A938A939A93AA93BA93EA93FA93F7
:1033EE00EFB7EA930895EFEFE0938130E1E03E2EE0
:1033FE000895E0938130E2E03E2EEFEFE09300304F
:10340E0008953E2EEFEFE09300300895EFEFE09336
:10341E000030222408950E946A1FAE2F0C94550985
:10342E009924EFEFE09381300895E4E09E2EE1E0E1
:10343E006E2EE92DF0E031970895AAEC0E94550901
:10344E00AAEC0C9455090E945509CDCFE62DF0E05B
:10345E00E050F04DE0818E0E0895EEE2F0E3FA9327
:10346E00EA930895E2E8F0E3FA93EA930895FA9363
:10347E00EA93E2E0EA930895FA93EA93A2E00E94B7
:10348E00A816F0CFE0E0F0E0FA93EA93A0E00E94F5
:10349E00A816E8CFFA93EA93E1E0EA930895FA9337
:1034AE00EA93A1E00E94A816DDCFF0E0EA0FFB1F21
:1034BE000E949A1E0895E093AA30F093AB30609369
:1034CE00AC307093AD300895E091AA30F091AB30EE
:1034DE006091AC307091AD3008950E949A1E0E949A
:1034EE001C1E08950E94A91EDF01CB01EFE00E9471
:1034FE006B1E0895E093AE30F093AF306093B03012
:10350E007093B1300895A091AE30B091AF308091EC
:10351E00B0309091B1300895E093B230F093B33063
:10352E006093B4307093B530EEDF0E941C1E089588
:10353E00E091B630F091B7306091B8307091B930FB
:10354E000895E091BA30F091BB306091BC3070912B
:10355E00BD300895E0E0F0E060E271E40895E0919E
:10356E00BE30F091BF306091C0307091C13008957F
:10357E00A091BE30B091BF308091C0309091C130DB
:10358E000E94C91E08950E949F1E0E94C91EDF013F
:10359E00CB0108950E945F1EADDFE1CFE093C230F4
:1035AE00F093C3306093C4307093C5300895E091AA
:1035BE00C230F091C3306091C4307091C53008951F
:1035CE00EE5FFF4F6F4F7F4F0E947E1E0E947E1E4A
:1035DE0008950E94C91E0E948D1E0895A091CA30A2
:1035EE00B091CB308091CC309091CD300895E09158
:1035FE00D230F091D3306091D4307091D53008959F
:10360E00A091CE30B091CF308091D0309091D1300A
:10361E00E8E00E945F1E0895E091CE30F091CF3029
:10362E006091D0307091D1300895A091CE30B0918C
:10363E00CF308091D0309091D1300895E0E0F0E01D
:10364E00FA93EA93A0E00895E0E2EA93ECE0EA93BD
:10365E00E0E1EA93A0E40C94E40E0E94771EEA0FD8
:10366E00FB1F8F01D801EC91E068EC930895E09177
:10367E00E407ED7FE093E4070895E091E407E2604C
:10368E00E093E4070895FA93EA9380E00E9476159A
:10369E0024960E947F09A8ECB0E00C94651CA2E36E
:1036AE00B0E00E94651CE1E008950E94531F88E07F
:1036BE000E9476152C960C947F09B7DFEAE0F0E0B5
:1036CE0060E070E00E94061F0895FF2766277727A7
:1036DE000E94531F84E00E94761528960C947F0951
:1036EE000E943A1F3196ED93FC930895BA93AA93D4
:1036FE002497E0E0E883E9830895AC81BD818E8153
:10370E009F8128DF0E94651DEC83FD836E837F837E
:10371E000895EC81FD816E817F81AC85BD858E859E
:10372E009F850E94F81D0895AC85BD858E859F8569
:10373E000895EDECFCEC6CEC7DE30E94651DEC87CE
:10374E00FD876E877F873F5F089504DF0E94651DAA
:10375E000895EC87FD876E877F870895A0E0B0E01F
:10376E0080E09FE30E94151D0895EDECFCEC6CECDF
:10377E007DE30E94651D0895A885B9851196A887D9
:10378E00B98711970895E02FE05DEC93E02F08952F
:10379E000E945D1F0E940E1D0895E885F9853196E1
:1037AE00E887F98708952A93AF81B885E985FA8568
:1037BE0009950895FE01E65AFF4F0190F081E02D24
:1037CE0008953497DE01A65ABF4FED93FC930895EA
:1037DE00AF81B885E985FA8509950895DE01A65A67
:1037EE00BF4F0D90BC91A02D0895EA87FB876C8783
:1037FE007D870895DFDFE5CFEA85FB856C857D85C6
:10380E000895EE87FF87AE85BF850E94C7151E2FD0
:10381E000895E4DF14960E943A1F0895E88BF98B01
:10382E006A8B7B8B08950B7FED89EA93DE01A95A93
:10383E00BF4F0D90BC91A02DFE01E75AFF4F019096
:10384E00F081E02D099550300895E889F9896A894B
:10385E007B89AA85BB858C859D850895DE011C9686
:10386E000E94181E0E943A1F0895EE81FF81FA935E
:10387E00EA930895E987FA876B877C870895AE816E
:10388E00BF811196AE83BF8311970895AA81BB8124
:10389E008C819D810895EA83FB836C837D830895DB
:1038AE00EA81FB816C817D81A985BA858B859C859A
:1038BE000895A985BA858B859C850895109639F053
:1038CE0080E49FE10197F1F7A8951197C9F7089544
:1038DE0030976040704009F070580895552342F4B7
:1038EE00503811F4E0FF04C03196691F791F6BF058
:1038FE0050E8572711F45F93CFC05F3F31F0660F4A
:10390E00000C57956795752F08955F9300200AF068
:10391E00CFC0C8C050E8192E1522880F991F9527C1
:10392E00550F879550E8072E0522660F771F7527CE
:10393E00550F67950895689401C0E8945F93F2DF80
:10394E00703818F07F3F08F4A7C056E1571BAAF451
:10395E00519558300EF4593030F0EFEFFFEF6FEF16
:10396E007FE777F91AC077275523B9F0EE0FFF1FBF
:10397E00661F771F5A95D1F710C07727583028F059
:10398E00EF2FF62F672F5850F9CF552331F076953C
:10399E006795F795E7955A95D1F700200AF459D116
:1039AE005F910895689401C0E8943097604070402C
:1039BE00B1F0002426F0772312F400944AD1172E8A
:1039CE007EE1112032F07A95EE0FFF1F661F111C5B
:1039DE00F9CFEF2FF62F612D5F938ADF5F91089558
:1039EE004F93AF01FD01DA01AB01BC01CA01402DBD
:1039FE00012C142E4F910895EA0FFB1F681F089596
:103A0E00E095F0956095EF5FFF4F6F4F08955F93D0
:103A1E0081DF903871F150E8152604C05F937ADF8C
:103A2E00903839F1703821F1572F591B2BF112F4C0
:103A3E00D7DFFACF583118F0AA27BB27882758307E
:103A4E0028F0AB2FB82F88275850F9CF552329F0DF
:103A5E008695B795A7955A95D9F7502D512572F0A1
:103A6E00CBDF38F46795F795E795739513F420C07F
:103A7E00B7DF3EDF5F910895D8F7FBCFEA1BFB0B54
:103A8E00680B51F010F40094BBDF662392F3EE0F37
:103A9E00FF1F661F7A95CBF7EE27FF27662777273E
:103AAE005F910895EFEFFFEF6FE77FEF5F9108955E
:103ABE00EFEFFFEF6FE77FE75F9108955F932ADFE8
:103ACE00703851F3903841F301240894791F23F490
:103ADE001CF300203AF3ECCF0F921F932F933F93DA
:103AEE004F93112722279927689FA0018F9F302D72
:103AFE00410D591F6B9F300D411D591F8E9F27D0B1
:103B0E00BF9F25D06A9F23D0BE9F1DD0AF9F1BD0D5
:103B1E00AE9F110D291F391F491F591FE32FF42F77
:103B2E00652F522F4F913F912F911F910F9066232A
:103B3E002AF0550FEE1FFF1F661F02C073954BF242
:103B4E00CDDE5F910895100D211D391F02C0200D8D
:103B5E00311D491F591F08955F93DCDE703821F423
:103B6E0011200AF49FCFA4CF903809F495CF0124E9
:103B7E000894970B1BF4D4F30020F3CF792F1F93E7
:103B8E002F933F934F931124112722273327442736
:103B9E00552790E2AE17BF078607410730F0AE1BE0
:103BAE00BF0B860B410B089401C08894551F221F32
:103BBE00331F111CAA1FBB1F881F441F9A9551F754
:103BCE00F901612D4F913F912F911F91662332F094
:103BDE00550FEE1FFF1F661F7A9543F27FDE5F9132
:103BEE00089599239AF0772342F0971748F029F415
:103BFE00AE17BF07860720F031F098948894089589
:103C0E009894089408951894889408957723C2F789
:103C1E00971798F3A9F7EA17FB07680788F399F344
:103C2E00ECCF0024AF0DB01D0895EA0FFB1F681FE7
:103C3E00791F0895AE0FBF1F861F971F0895EA1BA9
:103C4E00FB0B680B790B0895AE1BBF0B860B970B06
:103C5E000895F09560957095E195FF4F6F4F7F4FEA
:103C6E000895EE230E2EFD0121F0EE0FFF1F0A9494
:103C7E00E1F70895EE230E2EFD0121F0F595E7955F
:103C8E000A94E1F70895EE230E2EFD0121F0F6952C
:103C9E00E7950A94E1F70895EE230E2EFD01BC017F
:103CAE0031F0EE0FFF1F661F771F0A94D1F70895AC
:103CBE00EE230E2EFD01BC0131F075956795F7953B
:103CCE00E7950A94D1F70895EE230E2EFD01BC015F
:103CDE0031F076956795F795E7950A94D1F70895A3
:103CEE00EE0FFF1FEE0FFF1FEE0FFF1F08957595CE
:103CFE006795F795E7950895EE0FFF1F661F771FDF
:103D0E000895EF2FFF27E7FDFFEF0895E62FF72F1A
:103D1E006627F7FD6FEF762F0895FE2FFF0FFF0B2F
:103D2E006F2F7F2F08956F2F660F660B762F0895D6
:103D3E008B2F880F880B982F0895EA17E1E009F072
:103D4E00EE2708957A9F702D6B9F700DF89F700D62
:103D5E00E99F700D6A9F602D710DFB9F600D711DA7
:103D6E00E89F600D711D8827FA9FF02D610D781F59
:103D7E00EB9FF00D611D781FEA9FE02DF10D681F7E
:103D8E00781F08955DD0DEDF0EF463DF0895002402
:103D9E0098E0AA0F001C0E1A10F40E0E01C0A160BE
:103DAE009A95B9F7EA2FA02D08953ED0F0DF0EF4C4
:103DBE00E19508953F934F935F9300241124442778
:103DCE00552730E2AA0FBB1F881F991F001C111C1C
:103DDE00441F551F0E1A1F0A460B570B28F40E0EC2
:103DEE001F1E461F571F01C0A1603A9559F7FD01CE
:103DFE00BC01D001CA015F914F913F91089520D02F
:103E0E00D9DF0EF426DF0895E894A7FF02C0A1952E
:103E1E006894E7FDE195BBDFEA2F0EF4E195089576
:103E2E00C9DFFD01BC010895E894E7FF02C0E195EA
:103E3E006894A7FF04C0A19500F8039400FA0895B2
:103E4E00E89477FF02C005DF689497FF0BC000244B
:103E5E00A095B095809590951196801D901D00F8B7
:103E6E00039400FA0895ED91FC9111970895ED9148
:103E7E00FD916D917C9113970895E881F9816A8186
:103E8E007B810895A881B9818A819B810895E883F9
:103E9E00F9836A837B8308957A936A93FA93EA93FC
:103EAE0008959A938A93BA93AA930895182E862FFB
:103EBE00612D192E972F712D1B2EBF2FF12D1A2E1E
:103ECE00AE2FE12D0895A895E091CF01E7FDFBCF30
:103EDE00B05FEC91B051089523D0B05F8C918E17E6
:103EEE0011F4B05108959E2F1BD07F937FB7F89495
:103EFE009C93B051A093C001B093C10180E0809318
:103F0E00C20185E38093CA0188ED91E084BF90934E
:103F1E00CB0106D080E08093CA017FBF7F910895C8
:103F2E00A8958091CF0187FDFBCF08953097604013
:103F3E00704008955A934A933A932A931A930A9388
:103F4E0008955D814C813B812A81198108810895F4
:00000001FF
