:080000000C9458010C9400005F
:100008000C9400000C9400000C9400000C94000068
:100018000C9400000C9400000C9400000C94000058
:100028000C9400000C9400000C9400000C94000048
:100038000C9427100C9400000C9400000C94000001
:100048000C9400000C9400000C9437100C940000E1
:100058000C9400000C9400000C9400000C94C7054C
:100068000C9400000C9400000C9400000C94000008
:100078000C9400000C9400000C9400000C940000F8
:100088000C9400000C9400000C9400000C940000E8
:100098000C9400000C9400000C9400000C940000D8
:1000A8000C9400000C9400000C9400000C940000C8
:1000B8000C94B70A0C9400000C9400000C940000F7
:1000C8000C9400000C9400000C9400000C940000A8
:1000D8000C9400000C9400000C9400000C94000098
:1000E8000C9400000C9400000C9400000C94000088
:1000F8000C9400000C9400000C9400000C94000078
:100108000C9400000C9400000C9400000C94000067
:100118000C9400000C9400000C9400000C94000057
:100128000C9400000C9400000C9400000C94011135
:100138000C9400000C9400000C9400000C94000037
:100148000C9400000C9400000C9400000C94000027
:100158000C9400000C9400000C9400000C94000017
:100168000C9400000C9400000C9400000C94000007
:100178000C9400000C9400000C9400000C940000F7
:100188000C9400000C9400000C9400000C940000E7
:100198000C9400000C9400000C9400000C940000D7
:1001A8000C9400000C9400000C9400000C940000C7
:1001B8000C9400000C9400000C9400000C940000B7
:1001C8000C9400000C9400000C9400000C940000A7
:1001D8000C9400000C9400000C9400000C94000097
:1001E800FF005D0023000100737461727420646570
:1001F80076696365007374617274206932630062A2
:10020800756620693263207374617274206F6B00A5
:10021800626D7020693263207374617274206F6B31
:1002280000535049205354415254006164373730C9
:1002380035207374617274206F6B005354415254AB
:10024800205748494C4500424D5020503D25662CCA
:10025800543D25362E336600424D502048455820DF
:10026800503D25782C543D2578005354415455531E
:100278003D2564005533696E2E696E7075743D2591
:1002880064002D4E414E000001002D4E414E0049A4
:100298004E46000001008130E80101003031EE01D6
:1002A8000100333190020000F894EE27F091CC0160
:1002B800F860F093CC01F8EDF4BFE093A200A091B0
:1002C8008000AD7FA160F4BFA093800080E090E43F
:1002D800A0E0B0E2ED930197E9F7ECE9F2E085914F
:1002E8009591009761F0A591B59105901590BF0182
:1002F800F00105900D920197E1F7FB01F0CF8BBF5C
:100308008CBFE0E0E0B9E1B9E2B9E3B9E4B9E5B935
:10031800E6B9E7B9E8B9E9B9EAB9EBB9ECB9EDB9C1
:10032800EEB9EFB92E2EE1E03E2EE0E04E2E5E2E25
:100338006E2E7E2E8E2E9E2EAE2EBE2ECE2EDE2E15
:10034800EFEFEDBFEFE5EEBFC0E0D0E30C94021194
:100358001A930A93E091E407EE7FE093E40710E034
:1003680000E0163188F4103031F0E12FF0E0E45B62
:10037800FF4CE0810E0FE12FF0E0E45BFF4CA08121
:100388000E9456091F5FEDCF00936230A091623042
:100398000E945609E091E407E160E093E4070991BF
:1003A800199108950E94381811F5A2E0B0E0E0EA2A
:1003B8000E94E81FA3E0B0E0E0E30E94E81FA4E089
:1003C800B0E0E3E30E94E81FA5E0B0E0E5E30E94A7
:1003D800E81FA6E0B0E00E943E180E9449180E945B
:1003E800501824F40E9458189394F9CF88240E9436
:1003F800381809F058C0A8E0B0E0EFEA0E94E81FFA
:10040800A9E0B0E0E1E00E94E81FAAE0B0E0E3E67E
:100418000E94E81FABE0B0E0E0E60E94E81FACE015
:10042800B0E0E4E60E94E81FADE0B0E0E0E00E9442
:10043800E81FAEE0B0E00E94E81FAFE0B0E00E9425
:10044800E81FA0E1B0E00E94E81FA1E1B0E00E942F
:10045800E81FA2E1B0E00E94E81FA3E1B0E00E941B
:10046800E81FA4E1B0E0E8E90E94E81FA5E1B0E0D8
:10047800EAE30E94E81FA6E1B0E0ECED0E94E81F65
:10048800A7E1B0E0E5E00E94E81FA8E1B0E00E9423
:10049800E81F0E946D180E94501824F40E947B18CF
:1004A8009394F9CF88240E943818C9F4AAE1B0E0DF
:1004B800EAEA0E94E81FABE1B0E0E0E60E94E81F2C
:1004C800ACE1B0E0EAEE0E9490180E949A180E94EF
:1004D800501824F40E94A1189394F9CF88240E94FC
:1004E8003818C9F4A6E5B0E0E2EA0E94E81FA7E5DB
:1004F800B0E0E1E00E94E81FA8E5B0E0E0E00E947B
:1005080090180E94B6180E94501824F40E94BD1832
:100518009394F9CF88240E94381811F5A9E3B0E024
:10052800EDEA0E94E81FAAE3B0E0EAE50E94E81FAE
:10053800ABE3B0E0E0E00E94E81FACE3B0E0EAE53E
:100548000E94E81FADE3B0E00E943E180E94D21856
:100558000E94501824F40E94D9189394F9CF882443
:100568000E94381809F5A6E7B0E0E6EA0E94E81FFD
:10057800A7E7B0E0E0E00E94E81FA8E7B0E00E942B
:10058800E81FA9E7B0E0E1E00E94E81FAAE7B0E0B1
:100598000E943E180E94EE180E94501824F40E94EF
:1005A800F5189394F9CF88240E94381809F08CC064
:1005B800AEE1B0E0E1EA0E94E81FAFE1B0E0E3E5B8
:1005C8000E94E81FA0E2B0E0E5E70E94E81FA1E270
:1005D800B0E0EEE60E94E81FA2E2B0E0E0E20E948E
:1005E800E81FA3E2B0E0E3E50E94E81FA4E2B0E060
:1005F800E5E60E94E81FA5E2B0E0E0E70E94E81FF8
:10060800A6E2B0E0E0E20E94E81FA7E2B0E0E2E381
:100618000E94E81FA8E2B0E0E1E30E94E81FA9E217
:10062800B0E0E0E20E94E81FAAE2B0E0E2E30E9444
:10063800E81FABE2B0E0E3E30E94E81FACE2B0E001
:10064800EAE30E94E81FADE2B0E0E3E30E94E81F9E
:10065800AEE2B0E0E6E30E94E81FAFE2B0E0EAE312
:100668000E94E81FA0E3B0E0E2E30E94E81FA1E3D4
:10067800B0E0E4E30E94E81FA2E3B0E0E0E20E94F9
:10068800E81FA3E3B0E0E2E30E94E81FA4E3B0E0C0
:10069800E0E30E94E81FA5E3B0E0E1E30E94E81F61
:1006A800A6E3B0E0E4E30E94E81FA7E3B0E0E0E0DF
:1006B8000E94E81F0E940A190E94501824F40E9400
:1006C80018199394F9CF88240E943818A1F4AFE33D
:1006D800B0E0E7EA0E94E81FA0E4B0E0E2E40E948C
:1006E800E81F0E942D190E94501824F40E943B19FB
:1006F8009394F9CF88240E943818C9F4A2E4B0E092
:10070800E7E70E94E81FA3E4B0E0E0E00E94E81FEA
:10071800A4E4B0E0ECEF0E9490180E9450190E94E7
:10072800501824F40E9457199394F9CF88240E94F2
:10073800381809F041C0AAE4B0E0EBEA0E94E81FCB
:10074800ABE4B0E0E5E70E94E81FACE4B0E0EEE619
:100758000E94E81FADE4B0E0E7E30E94E81FAEE4C2
:10076800B0E0E0E30E94E81FAFE4B0E0E2E30E94FB
:10077800E81FA0E5B0E0E2E60E94E81FA1E5B0E0CE
:10078800EEE00E94E81FA2E5B0E0E4E00E94E81F66
:10079800A3E5B0E0E4E10E94E81FA4E5B0E0EEE0E4
:1007A8000E94E81F0E946C190E94501824F40E94AD
:1007B8007A199394F9CF88240E94381881F5AAE50C
:1007C800B0E0EEEA0E94E81FABE5B0E0EFEF0E9470
:1007D800E81FACE5B0E00E94E81FADE5B0E00E947C
:1007E800E81FAEE5B0E00E94E81FAFE5B0E00E9468
:1007F800E81FA0E6B0E00E94E81FA1E6B0E00E9472
:10080800E81FA2E6B0E00E94E81F0E948F190E942C
:10081800501824F40E949D199394F9CF88240E94BB
:10082800381829F5AAE6B0E0E4EA0E94E81FABE62A
:10083800B0E0E0E00E94E81FACE6B0E0ECEF0E9418
:10084800E81FADE6B0E0E8E60E94E81FAEE6B0E0DB
:10085800E7EF0E94E81F0E94B2190E94BA190E948D
:10086800501824F40E94C1199394F9CF88240E9447
:10087800381809F5A0E7B0E0E8E50E94E81FA1E70D
:10088800B0E0E0E00E94E81FA2E7B0E00E94E81FA5
:10089800A3E7B0E0E1E00E94E81FA4E7B0E00E940F
:1008A8003E180E94D6190E94501824F40E94DD199F
:1008B8009394F9CF88240E943818C1F4A6E4B0E0D4
:1008C800E6E70E94E81FA7E4B0E0EFEF0E94E81F08
:1008D800A8E4B0E00E9490180E94F2190E945018F3
:1008E80024F40E94F9199394F9CF88240E943818A7
:1008F80001F5A4E6B0E0EAE60E94E81FA5E6B0E04C
:10090800E0E00E94E81FA6E6B0E00E94E81FA7E624
:10091800B0E00E94E81FA8E6B0E00E943E180E94DE
:100928000E1A0E94501824F40E94151A9394F9CFB5
:1009380088240895E5EAE0934C30E0E4E0934D30F4
:10094800EFE1E0934E30E8E7E0934F30E0E0E093EA
:100958005030EBEBE0935130EBE0E0935230E0E0C5
:10096800E0935330EFEFE0935430E0E0E0935530FC
:10097800E8E0E0935630EDEAE0935730EDE0E0939D
:100988005830ECEAE0935930EDE0E0935A30E0E17A
:10099800E0935B30E7E2E0935C30E0E0E0935D30C9
:1009A800E4E0E0935E30E0E0E0935F30E6E0E0937F
:1009B8006030E0E0E09361300895E0E0E093040601
:1009C800E0930006E0931006E0931106E093120608
:1009D800E0931306E0931406E0931506E0931606D9
:1009E800E0931706E0910906E07FE0930906E0E04E
:1009F800E0930A06E0930B06E0932406E0932006B2
:100A0800E0933006E0933106E0933206E093330634
:100A1800E0933406E0933506E0933606E093370614
:100A2800E0912906E07FE0932906E0E0E0932A06BA
:100A3800E0932B06E8E1E0934406E8EBE0934006F8
:100A4800E0E0E0935006E0935106E0935206E0930D
:100A58005306E0935406E0935506E0935606E09358
:100A68005706E0914906E07FE0934906E0E0E0930D
:100A78004A06E0934B06E0E8E0936406E0936006DC
:100A8800E0E0E0937006E0937106E0937206E0936D
:100A98007306E0937406E0937506E0937606E09398
:100AA8007706E0916906E07FE0936906E0E0E0936D
:100AB8006A06E0936B06E0938406E0938006E09371
:100AC8009006E0939106E0939206E0939306E093F4
:100AD8009406E0939506E0939606E0939706E091D6
:100AE8008906E07FE0938906E0E0E0938A06E093D8
:100AF8008B06E093A406E093A006E093B006E0938B
:100B0800B106E093B206E093B306E093B406E0932F
:100B1800B606E093B706E091A906E07FE093A90640
:100B2800E0E0E093AA06E093AB06EFE0E093E40789
:100B3800E093E007E0E0E093F007E093F107E0914D
:100B4800E907E07FE093E907E0E0E093EA07E09354
:100B5800EB070895E8E0E0934506E3E0E093A50895
:100B6800E091A308E07CE063E093A308E5EFE0935D
:100B7800A608ECECE093A708E091A408E07EE86101
:100B8800E093A40808950E942A1AA090A108D09082
:100B9800A008EA2DEC7131F4E22DF0E0E050F04DC0
:100BA800D0822394E0918130F0E0EF3FA0E0FA0793
:100BB80009F032C2E0910030F0E0EF3FA0E0FA0720
:100BC80031F40E94381AEFEFE093003023C2EA3C78
:100BD800A0E0FA0721F4EAEC0E943E1A1BC2E53FA6
:100BE800A0E0FA0721F4E5EF0E943E1A13C2E53BA4
:100BF800A0E0FA0739F4E5EBE0938130E4E00E94E5
:100C0800461A08C2EA3EA0E0FA0721F4EAEE0E947A
:100C18003E1A00C2E53EA0E0FA0739F4E5EEE0939B
:100C28008130E7E00E94461AF5C1E73EA0E0FA07E6
:100C380039F4E7EEE0938130E7E00E94461AEAC112
:100C4800E036A0E0FA0721F4E0E60E943E1AE2C18D
:100C5800E83EA0E0FA0739F4E8EEE0938130E3E0FB
:100C68000E94461AD7C1E93EA0E0FA0739F4E9EE36
:100C7800E0938130E3E00E94461ACCC1E03AA0E05C
:100C8800FA07D9F40E944B1A0E94B2190E94491817
:100C98000E94501824F40E9458189394F9CF99246C
:100CA800981440F4A92DB0E0AE5FBF4F0E94501ACF
:100CB8009394F6CF0E94551AADC1E13AA0E0FA0725
:100CC800C9F40E944B1A0E940A190E94501824F471
:100CD8000E9418199394F9CF9924981440F4A92DD7
:100CE800B0E0A25EBF4F0E94501A9394F6CF0E94C4
:100CF800551A91C1E23AA0E0FA07D9F40E944B1ABA
:100D08000E945A1A0E94B6180E94501824F40E9491
:100D1800BD189394F9CF9924981440F4A92DB0E004
:100D2800AA5ABF4F0E94501A9394F6CF0E94551AA0
:100D380072C1E43AA0E0FA07D9F40E944B1A0E9463
:100D4800B2190E94BA190E94501824F40E94C119BD
:100D58009394F9CF9924981440F4A92DB0E0A6599A
:100D6800BF4F0E94501A9394F6CF0E94551A53C150
:100D7800E63AA0E0FA07D9F40E944B1A0E94B21989
:100D88000E94EE180E94501824F40E94F5189394BB
:100D9800F9CF9924981440F4A92DB0E0AA58BF4F70
:100DA8000E94501A9394F6CF0E94551A34C1E73A1C
:100DB800A0E0FA07C9F40E944B1A0E942D190E945C
:100DC800501824F40E943B199394F9CF992498144D
:100DD80040F4A92DB0E0A15CBF4F0E94501A939433
:100DE800F6CF0E94551A17C1EA3AA0E0FA07D9F4DB
:100DF8000E944B1A0E945A1A0E949A180E94501870
:100E080024F40E94A1189394F9CF9924981440F4DB
:100E1800A92DB0E0A65EBF4F0E94501A9394F6CF5A
:100E28000E94551AF8C0EB3AA0E0FA07C9F40E94EC
:100E38004B1A0E946C190E94501824F40E947A19C7
:100E48009394F9CF9924981440F4A92DB0E0A65BA7
:100E5800BF4F0E94501A9394F6CF0E94551ADBC0D8
:100E6800ED3AA0E0FA07D9F40E944B1A0E94B21991
:100E78000E94D2180E94501824F40E94D918939402
:100E8800F9CF9924981440F4A92DB0E0A75CBF4F7E
:100E98000E94501A9394F6CF0E94551ABCC0EE3A9D
:100EA800A0E0FA07C9F40E944B1A0E948F190E9409
:100EB800501824F40E949D199394F9CF99249814FA
:100EC80040F4A92DB0E0A65ABF4F0E94501A93943F
:100ED800F6CF0E94551A9FC0EF3AA0E0FA07C9F46E
:100EE8000E944B1A0E946D180E94501824F40E9408
:100EF8007B189394F9CF9924981440F4A92DB0E065
:100F0800A85FBF4F0E94501A9394F6CF0E94551ABB
:100F180082C0E835A0E0FA07D9F40E944B1A0E9473
:100F2800B2190E94D6190E94501824F40E94DD19A3
:100F38009394F9CF9924981440F4A92DB0E0A059BE
:100F4800BF4F0E94501A9394F6CF0E94551A63C05F
:100F5800EA36A0E0FA07D9F40E944B1A0E94B219A7
:100F68000E940E1A0E94501824F40E94151A939495
:100F7800F9CF9924981440F4A92DB0E0AC59BF4F8B
:100F88000E94501A9394F6CF0E94551A44C0E6372F
:100F9800A0E0FA07D9F40E944B1A0E945A1A0E943C
:100FA800F2190E94501824F40E94F9199394F9CF69
:100FB8009924981440F4A92DB0E0AA5BBF4F0E9471
:100FC800501A9394F6CF0E94551A25C0E737A0E02F
:100FD800FA07D9F40E944B1A0E945A1A0E94501913
:100FE8000E94501824F40E9457199394F9CF992419
:100FF800981440F4A92DB0E0AE5BBF4F0E94501A80
:101008009394F6CF0E94551A06C0EFEFE093003094
:101018000E94381A222404C0EA3CA0E0FA0731F5FD
:10102800E2E0E21511F5A0910030A13021F4A09181
:101038000130A13009F003C00E94621A10C0A091CB
:101048000030AF3021F4A0910130AF3009F007C073
:101058000E94621A0E94381AE1E0CE2E05C0EFEF16
:10106800E0938130E1E03E2E22241BC1E53FA0E061
:10107800FA0711F5E2E0E215F1F4A0910030AF357E
:1010880021F4A0910130AF3509F012C0A5EF0AD1C3
:10109800A5EF08D1A5EF0E94681A2224A5E0B0E0C8
:1010A8000E94C71CE8EDE4BFE1E0E093790003C0CB
:1010B8000E94381A2224F5C0E53BA0E0FA0749F55A
:1010C800E4E0E21529F59924BB24E3E09E1620F418
:1010D8000E946B1A9394F9CFA0910330BA16A9F421
:1010E800E0910030E87019F0E0910030E870E0918C
:1010F8000030E470E0910030E470A5EBD3D0A5EBAC
:101108000E94681A2224BB2403C00E94381A222491
:10111800C8C0EA3EA0E0FA07E1F4E2E0E215C1F453
:101128009924BB24E1E09E1620F40E946B1A939444
:10113800F9CFA0910130BA1641F4AAEEB3D0AAEEC5
:101148000E94681A2224BB2403C00E94381A222451
:10115800A8C0E036A0E0FA07F1F4E2E0E215D1F425
:101168009924BB24E1E09E1620F40E946B1A939404
:10117800F9CFA0910130BA1651F4A0E693D0A0E0BF
:1011880091D0A0E00E94681A2224BB2403C00E94C8
:10119800381A222486C0E53EA0E0FA07E1F4E7E029
:1011A800E215C1F49924BB24E6E09E1620F40E94BF
:1011B8006B1A9394F9CFA0910630BA1641F4A5EEB4
:1011C80071D0A5EE0E94681A2224BB2403C00E9495
:1011D800381A222466C0E73EA0E0FA07E1F4E7E007
:1011E800E215C1F49924BB24E6E09E1620F40E947F
:1011F8006B1A9394F9CFA0910630BA1641F4A7EE72
:1012080051D0A7EE0E94681A2224BB2403C00E9472
:10121800381A222446C0E83EA0E0FA07E1F4E3E0E9
:10122800E215C1F49924BB24E2E09E1620F40E9442
:101238006B1A9394F9CFA0910230BA1641F4A8EE34
:1012480031D0A8EE0E94681A2224BB2403C00E9451
:10125800381A222426C0E93EA0E0FA07E1F4E3E0C8
:10126800E215C1F49924BB24E2E09E1620F40E9402
:101278006B1A9394F9CFA0910230BA1641F4A9EEF3
:1012880011D0A9EE0E94681A2224BB2403C00E9430
:10129800381A222406C0EFEFE09300300E94381A73
:1012A800222472C1AA93E091A108E072E1F3E881D7
:1012B800E093A0083EC1E0E8E0936506E3E0E09330
:1012C800B509E091B309E07CE093B309EEE6E09359
:1012D800B609E8EAE093B709E091B409E07EE8606E
:1012E800E093B4090895AA93E091B109E072E1F39B
:1012F800E881E093B0091DC11A9310E0AEE2B0E3B3
:101308000E940516A12FB0E0AE17BF0740F4E12FE9
:10131800F0E0E25DFF4CA081E6DF1F5FEFCF0E94A7
:10132800721AE0E0EA93AEE1B0E00E94E815AAE0A4
:10133800DADFADE0D8DFE8C0BA93AA93A881B98113
:10134800EC91E07FEC931996ECE0EC9322960895EB
:101358001A930A931FB7F894E0910008E07FE560BC
:10136800E0930008E0910108E870E0930108E0913B
:101378000308E071E0930308E0910608E07FE1606C
:10138800E0930608E0910708E070E0930708E09111
:101398009900EE7F0E2FE8EDE4BF00939900E091ED
:1013A8008008E07CE0938008E0918308E87EE09381
:1013B8008308E0E0E0938208A4E8B8E00A2EAC9144
:1013C800E0918408E470EA2BA02DEC93E0910C08DE
:1013D800E0930C08E0E0F0E0E0932008F0932108A7
:1013E800E1E1FAE7E0932608F0932708E0E0F0E06F
:1013F800E0932808F0932908E0932A08F0932B0833
:10140800E0932C08F0932D08E0932E08F0932F0812
:101418001FBF5FC51A931FB7F894A0E4B8E08CDF2C
:10142800E5E0E0934008E0E0E0934108E0934308FA
:10143800E0934408E0914608E07FE160E0934608C5
:10144800E0E0E0934708E0919008ED7FE093900892
:10145800E0914C08E0934C08E0E0F0E0E09360088D
:10146800F0936108E7EAF1E6E0936608F09367080D
:10147800E0E0F0E0E0936808F0936908E0936A0818
:10148800F0936B0840C01A931FB7F894E0910009D5
:10149800E07FE160E0930009E0910109E870E093E2
:1014A8000109E0910309E071E0930309E09106095D
:1014B800E07FE160E0930609E0910709E070E093BE
:1014C8000709E0910C09E0930C09E0E0F0E0E093F3
:1014D8002009F0932109EFE3F6EAE0932609F09357
:1014E8002709E0E0F0E0E0932809F0932909E09368
:1014F8002A09F0932B09E0932C09F0932D09E09326
:101508002E09F0932F091FBF19910895E3E5E09381
:10151800C008E091C108EC7FE093C1080895AA9340
:10152800E881E093C308E091C208E078E1F3E09134
:10153800C30821960895E0EAF4E0FA93EA93E0E01C
:10154800EA93A0E00E941E160E94771AE0EAF4E0EF
:10155800FA93EA93E0E4EA93ABE90E943316E0E0F9
:10156800E093A80408950A921A92FA926A937A93D9
:101578008A939A93AA93BA93EA93FA93EFB7EA9362
:10158800A2E8B0E30E945E16E991EFBFF991E991F4
:10159800B991A9919991899179916991F990199045
:1015A80009901895E6EFE0930C31E7EFE0930D31E1
:1015B800E4EFE0930A31EEE2E0930B31E6EFE093DB
:1015C8001231E7EFE0931331E8EFE0931431E4EFE1
:1015D800E0931031E091A830E295E07FEE0FEE0F36
:1015E800EC5CE0931131EAEAE093DE30EBEAE09359
:1015F800DF30ECEAE093E030EDEAE093E130EEEA48
:10160800E093E230EFEAE093E330E0EBE093E4309C
:10161800E1EBE093E530E2EBE093E630E3EBE093D7
:10162800E730E4EBE093E830E5EBE093E930E6EB14
:10163800E093EA30E7EBE093EB30E8EBE093EC3053
:10164800E9EBE093ED30EAEBE093EE30EBEBE0937F
:10165800EF30ECEBE093F030EDEBE093F130EEEBB4
:10166800E093F230EFEBE093F33008959BDF0E94B4
:10167800771AE7E7EA93EEEDF0E30E947C1AE4EFCD
:10168800F0E30E94811AE7E7EA93E0EEF0E30E94B4
:101698007C1AE6EFF0E30E94811AE7E7EA93E2EEAC
:1016A800F0E30E947C1AE8EFF0E30E94811AE7E772
:1016B800EA93E4EEF0E30E947C1AEAEFF0E30E947A
:1016C800811AE7E7EA93E6EEF0E30E947C1AECEF72
:1016D800F0E30E94811AE7E7EA93E8EEF0E30E945C
:1016E8007C1AEEEFF0E30E94811AE7E7EA93EAEE4C
:1016F800F0E30E947C1AE0E0F1E30E94811AE7E738
:10170800EA93ECEEF0E30E947C1AE2E0F1E30E9437
:10171800811AE7E7EA93EEEEF0E30E947C1AE4E030
:10172800F1E30E94811AE7E7EA93E0EFF0E30E9411
:101738007C1AE6E0F1E30E94811AE7E7EA93E2EF18
:10174800F0E30E947C1AE8E0F1E3FA93EA93A2E05E
:101758000E94E616B091F430A0E0E091F530F0E098
:10176800EA0FFB1FE0938E30F0938F30F091F63044
:10177800E0E0DF01E091F730F0E0EA0FFB1FE093D3
:101788009030F0939130F091F830E0E0DF01E09193
:10179800F930F0E0EA0FFB1FE0939230F0939330BA
:1017A800F091FA30E0E0DF01E091FB30F0E0EA0F81
:1017B800FB1FE0939430F0939530F091FC30E0E01B
:1017C800DF01E091FD30F0E0EA0FFB1FE093963077
:1017D800F0939730F091FE30E0E0DF01E091FF30C8
:1017E800F0E0EA0FFB1FE0939830F0939930F09106
:1017F8000031E0E0DF01E0910131F0E0EA0FFB1F8A
:10180800E0939A30F0939B30F0910231E0E0DF01F1
:10181800E0910331F0E0EA0FFB1FE0939C30F09376
:101828009D30F0910431E0E0DF01E0910531F0E016
:10183800EA0FFB1FE0939E30F0939F30F091063142
:10184800E0E0DF01E0910731F0E0EA0FFB1FE093F1
:10185800A030F093A130F0910831E0E0DF01E09191
:101868000931F0E0EA0FFB1FE093A230F093A330B8
:1018780008950E94771AE7E7EA93EAE0F1E30E9405
:101888007C1A0E94871AE0918806EB60EB30D9F346
:101898000E94771AE7E7EA93ECE0F1E30E947C1AEA
:1018A800EEE0F1E30E94811AE7E7EA93E0E1F1E371
:1018B8000E947C1A0E94871AE0918806EB60EB3040
:1018C800D9F30E94771AE7E7EA93E2E1F1E30E948D
:1018D8008E1AE5E1F1E30E94931AE7E7EA93E3E160
:1018E800F1E30E948E1AE6E1F1E30E94931AE7E71A
:1018F800EA93E4E1F1E30E948E1AE7E1F1E3FA9357
:10190800EA93A1E00E94E616B0910E31A0E0E091C2
:101918000F310E94991AE093A430F093A530609398
:10192800A6307093A730A0911531BB27E091A8305D
:10193800E85F0E949A1E0E94FC1E0E949F1AA091B6
:10194800AD30AA2332F40E94A81A0E94921E0E9467
:101958009F1AA0911631B0E0E091A8300E949A1E1B
:10196800A091AA30B091AB308091AC309091AD305D
:101978000E94B11A7F936F93FF93EF9300901731F2
:101988001124A091A830E8E0EA1BD0010E94A31E10
:10199800AF91BF918F919F910E94B11A0E949F1A97
:1019A800E0919830F0919930A091A430B091A53091
:1019B8008091A6309091A730662777270E948D1EC8
:1019C800E0919630F0919730662777270E94B61AF3
:1019D8000E94BE1AA091A030B091A1300E94011FB0
:1019E800EBE00E94B51E7F936F93FF93EF93E09116
:1019F800A230F091A3300E94C71A0E94B11AAF9189
:101A0800BF918F919F910E947B1F0E94D01AE093F3
:101A1800B630F093B7306093B8307093B9300E9405
:101A2800DC1AE85FFF4F6F4F7F4FDF01CB01E4E027
:101A38000E94C11EE093BA30F093BB306093BC3073
:101A48007093BD300E943D1DDF01CB010E94E51A55
:101A58000E94151EE093D630F093D7306093D830AB
:101A68007093D9300E94DC1AE05AFF406040704001
:101A7800E093BE30F093BF306093C0307093C130B4
:101A88000E94EA1A0E94F31AA0919C30B0919D30EE
:101A98000E94FE1AECE00E94C11EDF01CB01EBE0C0
:101AA8000E94051BA0919030B09191300E94FE1ABF
:101AB800EBE00E94C11E0E94D01A0E94091BE0910F
:101AC8008E30F0918F300E94DB1EDF010E94121BC6
:101AD8000E94011F0E94831EE091A8300E94B51E3B
:101AE8000E941B1BE093C630F093C7306093C83048
:101AF8007093C9300E94EA1AA0919230B091933045
:101B08000E94FE1AEDE00E94051B0E94F31ADF01F5
:101B1800CB01ECE00E94C11EA0919A30B0919B309D
:101B28000E94011F0E94241B0E94D01A0E941B1BA6
:101B38000E94091B0E94121BE050F0486F4F7F4F14
:101B4800A0919430B0919530882799270E94B61AB1
:101B5800E093D230F093D3306093D4307093D53083
:101B6800A091C630B091C7308091C8309091C930EB
:101B78000E94A81A0E94881E7F936F93FF93EF9389
:101B8800E091A830A0E5B3EC0E94AC1EAF91BF91E4
:101B98008F919F91662777270E940B1FE093CA3089
:101BA800F093CB306093CC307093CD300E94291BDA
:101BB800A030E0E0BE07E0E08E07E0E89E0788F48A
:101BC800E091CA30F091CB306091CC307091CD303B
:101BD8000E94E51EDF01CB010E94321B0E94561FA6
:101BE80008C00E94321B0E94291B0E94561F0E9497
:101BF800E51EE093CE30F093CF306093D0307093F1
:101C0800D1300E943B1B7F936F93FF93EF930E9409
:101C18003B1BAF91BF918F919F910E942B1F0E94F8
:101C2800BE1AE091AE30F091AF306091B030709153
:101C3800B130AEEDBBE080E090E00E94241B0E9432
:101C4800BE1A0E94471BA3E4B3EE8FEF9FEF0E94DA
:101C5800241B0E94D01AE153F14F6F4F7F4FDF01D1
:101C6800CB01E4E00E94C11E0E94501B0E947E1E10
:101C7800E093CE30F093CF306093D0307093D13072
:101C88000E94471B0E943D1DDF01CB01EFE6F2E5F4
:101C980065E073E40E94151EE093DA30F093DB30C0
:101CA8006093DC307093DD300895E2E0E0931E31FC
:101CB800E0E0E0931F310E94771AE8E1EA93EEE151
:101CC800F1E30E947C1A0E94871AE3E0E0931C313A
:101CD800E2E3E0931D310E94771AE8E1EA93ECE130
:101CE800F1E30E947C1A0E94591B6EC0E0E0E09369
:101CF80018310E94771AE8E1EA93E8E1F1E30E94DB
:101D08008E1AE9E1F1E35DC0E2E0E0932631E0E01C
:101D1800E09327310E94771AE9E1EA93E6E2F1E3DA
:101D28000E947C1A0E94871AE3E0E0932431E8E9D4
:101D3800E09325310E94771AE9E1EA93E4E2F1E3BE
:101D48000E947C1A0E94591B3FC0E0E0E0932031BA
:101D58000E94771AE9E1EA93E0E2F1E30E948E1A21
:101D6800E1E2F1E32EC0E2E0E0932E31E0E0E0931F
:101D78002F310E94771AEAE1EA93EEE2F1E30E943A
:101D88007C1A0E94871AE3E0E0932C31E0E4E093A8
:101D98002D310E94771AEAE1EA93ECE2F1E30E941E
:101DA8007C1A0E94591B10C0E0E0E09328310E9481
:101DB800771AEAE1EA93E8E2F1E30E948E1AE9E28F
:101DC800F1E3FA93EA93A1E00E94E6160895AA9334
:101DD800E0E1E0934606AB81A2DBAA81A0DBA98102
:101DE8009EDBA8819CDBE0914806ED6FEF3FD9F3BD
:101DF800E0E1E093450624960895AA930E941820EE
:101E0800E0913031AC81EA1729F0A13011F0A2300D
:101E180009F401C010C0AC81A13011F40E945F1B0D
:101E2800AC81A23041F4E1E2EA93ECE0EA93E1E12B
:101E3800EA93A0E4CCDFEC81E0933031E0914806EE
:101E4800ED6FEF3FD9F3E0E1E09346068BE68A9524
:101E5800F1F7A8E364DBAFEF62DB0E2F1127AFEFDA
:101E68005EDB2E2F3327E0E1E0934506F02FE0E01C
:101E7800E22BF32BE4C01A930A930FB7F894E0917E
:101E88005000E260E0935000E0914100E0781E2F9E
:101E9800E8EDE4BF10934100E0916000EE7FE0932D
:101EA8006000E0915100E270E1F3E0914000E87FCA
:101EB800E1601E2FE8EDE4BF10934000E091500070
:101EC800E27EE0935000E091B400EC7FE093B40030
:101ED8000FBF099119910895AA931A93E2E0E0932C
:101EE800CA01E981F0E01491E0E0E093CA01E12F32
:101EF800188122960895A0E2EFDFE0930C02A1E298
:101F0800EBDFE0930D02E0E0E0930102E3E0E09311
:101F18000402E1E1E0930202E0E0E0931802E093BA
:101F28001902E1E0E0932002E0E2E0932102E1E01F
:101F3800E0932802E8E2E0932902E1E0E09330022E
:101F4800E0E3E0933102E1E0E0933802E8E3E09374
:101F58003902E0E0E0930302E0932202E0932A02D0
:101F6800E0933202E0933A02E0910002E160E093EC
:101F780000024CC0AA930E941820EC81F0E0A0E275
:101F8800B2E00E94681BF801A381A170E1F34FC081
:101F9800A4E2A2DFE0934C02A5E29EDFE0934D02AB
:101FA800E0E0E0934102E3E0E0934402E0E1E09303
:101FB8004202E0E0E0935802E0935902E1E0E09346
:101FC8006002E0E0E0936102E1E0E0936802E8E0AB
:101FD800E0936902E1E0E0937002E0E1E0937102CE
:101FE800E1E0E0937802E8E1E0937902E0E0E09351
:101FF8004302E0936202E0936A02E0937202E09384
:102008007A02E0914002E160E093400285E18A951E
:10201800F1F70895AA930E941820EC81F0E0A0E659
:10202800B2E00E94681BF801A381A170E1F3D80116
:102038001396E1E0EC93F80124813581F9010E94BF
:102048001F20259608950E942A1ACC2021F0A091DD
:102058008130AF3F09F006C00E94AC01A1E0B0E0BA
:102068000E94C71CBCC00E942A1A0E94721BA1E0D1
:10207800C4DEE0933131F0933231E0913131F091A7
:102088003231E050F048E0933131F0933231E09151
:102098003131E0935330E0913131F09132310E9487
:1020A800EA1EE09354300E94781B7724E4E07E1601
:1020B80050F40E947E1B0E94851B0E948C1B0E946C
:1020C800851B7394F3CF6624EAE06E16A0F5772497
:1020D800E4E07E1670F50E947E1BEA0FFB1FFF935B
:1020E800EF930E947E1B0E94931BFF93EF93A72DF3
:1020F80041DFAF91BF91EA0FFB1FAF91BF91ED9305
:10210800FC930E948C1BEA0FFB1FFF93EF930E9426
:102118008C1B0E94931BFF93EF93A72D7BDFAF913E
:10212800BF91EA0FFB1FAF91BF91ED93FC9373949E
:10213800CFCF6394C9CF7724E4E07E16C0F40E9421
:102148007E1BEA0FFB1FBF010E947E1B0E94931B90
:102158000E94981B0E948C1BEA0FFB1FBF010E9464
:102168008C1B0E94931B0E94981B7394E5CFE091EF
:102178001E30E0934D30E0911F30E0934E30E091F7
:102188002030E0935130E0912130E0935230E091DB
:102198002230E0934F30E0912330E0935030E091CB
:1021A8002430E0935930E0912530E0935A30E091A3
:1021B8002630E0935D30E0912730E0935E30E09187
:1021C8002830E0935F30E0912930E0936030E0916F
:1021D8002A30E0935530E0912B30E0935630E99166
:1021E800EFBFF991E991B991A99199918991799163
:1021F8006991F9901990099018951895F894E091BB
:10220800A200E873E7601E2FE8EDE4BF1093A20078
:10221800E0E0E093A1002FDE0E94E104E091800657
:10222800E061E0938006E0918406E061E093840633
:1022380062DEAEDE0E94AE050E945F0967D97BD9D7
:10224800A4E6B0E00E94C71C78940E949E040E94F5
:10225800721AE0EFF1E00E94A31B0E94721AEDEFE0
:10226800F1E00E94A31B21DD4FDD7DDD0E94721A83
:10227800E7E0F2E00E94A31BF9D90E94721AE8E194
:10228800F2E00E94A31B0E94721AE9E2F2E0FA93BC
:10229800EA9380E065D424960E9480090E94AF1BCF
:1022A800E0930106E1E0E09305060E94AF1BE0938E
:1022B80006060E94AF1BE0930506A2E3B0E00E9469
:1022C800C71C0E945F1B0E94721AE3E3F2E00E949F
:1022D800A31B0E94470A0E94AC090E940E0AE091C3
:1022E8008406EF7EE09384060E94721AE3E4F2E02B
:1022F8000E94A31B0E94D6010E94381829F4A1E06D
:10230800B0E0E0E00E94E81FA1E0B0E00E94DF1F1B
:10231800E23308F0FEC0A1E0B0E00E94DF1FEF5FEB
:102328000E94E81F0E94721BE1DC0FDD3DDD0E9468
:10233800781BE0912131E078E03821F4E0916130B8
:10234800E26007C0E0912131E07829F4E091613042
:10235800ED7FE0936130E0911931E071E03121F4D3
:10236800E0916130E46007C0E0911931E07129F42F
:10237800E0916130EB7FE0936130E0911931E072D8
:10238800E03221F4E0916130E86007C0E091193152
:10239800E07229F4E0916130E77FE0936130E091E9
:1023A8001931E270E23021F4E0916130E06107C058
:1023B800E0911931E27029F4E0916130EF7EE09309
:1023C8006130E0912131E870E83021F4E09161302A
:1023D800E06207C0E0912131E87029F4E0916130B2
:1023E800EF7DE0936130E0912131E071E03121F43B
:1023F800E0916130E06407C0E0912131E07129F497
:10240800E0916130EF7BE0936130E0912931E07435
:10241800E03421F4E0916130E06807C0E0912931AF
:10242800E07429F4E0916130EF77E09361300E9425
:10243800781B1FDA0E94721B0E94721AEFE4F2E006
:10244800FA93EA93E091DA30F091DB306091DC3076
:102458007091DD300E94C81FE091D630F091D730DE
:102468006091D8307091D9300E94B51B0E94BD1B75
:10247800A835E2E0BE07E0E08E07E0E09E07C4F47E
:10248800E091BA30E09357300E94BD1BE8E00E940B
:10249800C11EE09358300E94C61BE0935B300E9437
:1024A800C61BDF01CB01E8E00E94C11EE0935C304F
:1024B8000E94721AE0E6F2E0FA93EA93B0915C3077
:1024C800A0E0E0915B300E94991A0E94C81FB09169
:1024D8005830A0E0E09157300E94991A0E94B51B2D
:1024E8000E94721AE2E7F2E0FA93EA93E09161300F
:1024F8000E94CE1B0E94721AECE7F2E0FA93EA936C
:10250800E09129310E94CE1BAEEDB0E00E94C71CBD
:1025180009CFFFCFBA93AA931A930A93AA81BB81D2
:1025280012960E94AF1F309729F1AA81BB81149699
:102538000E94AF1F8F01309761F00230E0E01E0764
:1025480080F0F80131978F01AA81BB811496ED9331
:10255800FC93AA81BB8112960E94D91B3197AC814A
:10256800A083AA81BB810E94AF1FFF2312F00E94A3
:10257800D91B06C0AA81BB81EFEFFFEFED93FC9357
:10258800198108810C9431160E94DF1BE0E8EA8368
:10259800EFE3EB830E941820EE85FF85EF3FAFEF56
:1025A800FA0749F4E885F985FA93EA93AAE8B2E0CC
:1025B8000E94F815B7C0EF3FAFE7FA0749F4E8857E
:1025C800F985FA93EA93ABE8B2E00E94F815AAC03D
:1025D800AB85A73010F0E6E0EB871B85E12F1150A3
:1025E800E03019F00E94E61BF9CFEC85FD856E8579
:1025F8007F850E94122021F430E00E94E61B2DC046
:102608003B850E94F21B09F008F40BC00E94E61BF0
:102618000E94F21B28F00E94FD1B0E94021CF8CFAA
:102628000DC00E94F21B40F40E94FD1B0E940E1C6C
:102638000E94121C3150F5CF0E94E61BEC85FD85E7
:102648006E857F850E94171C0E94121C0E94F21B37
:1026580020F00E94FD1B0E94021C10E0EB85E11790
:10266800A8F1AC81BD818E819F810E941E1C0E94B1
:10267800171CDF01CB010E948017EC83FD836E835A
:102688007F830E94FD1B0E94151E0E94041D0E2FB1
:102698000E94251C0E942C1CFF27662777270E9472
:1026A8003D1DAC81BD818E819F810E94C71D0E9406
:1026B800FD1B0E94311C0E94121CE12F1F5FE0309D
:1026C80069F60E94251CEEE2EC93C8CF0E94361CE6
:1026D8003197AA85A08330302CF43195A885B98527
:1026E800EDE203C0A885B985EBE2EC930E94361CA5
:1026F8000E94361C3197BF01A32FEAE00E943E1FBB
:10270800E05DDB01EC930E94361C3197BF01A32FDB
:10271800EAE00E94801FE05DDB01EC93A885B985A3
:10272800E0E0EC930E941F2060960895BA93AA9364
:10273800EF9761970E94162010E0FE01E85AFF4FBC
:102748000190F081E02DE887F987FE01EA5AFF4FF2
:102758000190F081E02DEE83FF83AE81BF81E0E040
:10276800F0E0ED93FC93DE01A45ABF4F0E94D91B01
:102778003197E4912E2FE03009F4E9C1E12FE030E0
:1027880039F4253211F411E002C00E943C1CDEC16C
:10279800E130C1F4253219F40E943C1CD6C112E084
:1027A800E0E0ED8B00E02D3211F401E0CFC12B32D7
:1027B80019F4EBE2ED8BCAC1203219F4E0E2ED8B9B
:1027C800C5C102C0E23039F450E013E0203311F4FF
:1027D8000068BCC102C0E33091F4203310F02A3302
:1027E80008F007C0AAE05A9F502DE22FE0535E0F71
:1027F800ADC140E02E3211F414E0A8C10FC0E4309E
:1028080099F4203310F02A3308F008C00062AAE0D7
:102818004A9F402DE22FE0534E0F98C12C3619F4F1
:10282800026015E093C103C0E53009F08FC1E22FC3
:10283800E33659F40E94431C0E944A1C0E94431C20
:10284800A481AA930E94511C80C1E53411F0E53699
:1028580009F403C0E63609F048C0FE017696EE8713
:10286800FF870E94571C0E94B31F0E945E1C0E9493
:10287800631CAD85AA2332F0AD89AB3259F0A03282
:1028880081F017C00E94651C0E94D11C0E945E1C2A
:10289800EDE2ED8B07FF05C0ED89EA930E94511C1C
:1028A80008C0EE85FF853196EE87FF873197AD89A1
:1028B800A08305FF46E0263651F40E94651C0E945D
:1028C800C81F4A93AB89BC890E94971709C00E9408
:1028D800651C0E94C81F4A932A93AC89BD8954DE9F
:1028E800FE0176960E946A1C1EC0E33739F40E94E6
:1028F800631C0E94721C0E946A1C0EC0E037C1F45F
:102908000E94631C0E94721CEE87FF87AE85BF85FC
:102918000E9411161E2F08600F77403011F04117E2
:1029280008F001C0142F40E0E0E0EC8B30E06DC00F
:10293800E43611F0E93611F4046002C0E537A1F479
:10294800EAE0EC8B01FF08C0E0E0FAEC6AE97BE31F
:102958000E94771C1AE022C0E0E1F7E260E070E034
:102968000E94771C15E01AC0E83511F4086003C00E
:10297800E83709F0EAC0E0E1EC8B01FF08C0E0E0CD
:10298800F0E060E070E10E94771C18E007C0E0E02A
:10299800F0E160E070E00E94771C14E0403011F034
:1029A8000F7701C041E001FF08C00E94631C0E942C
:1029B800571C14960E94B31F0FC002FF07C00E9445
:1029C800631C0E94721C0E94FC1E06C00E94631CAD
:1029D8000E94721C66277727EA87FB876C877D87AA
:1029E80002FF12C0AD85AA2342F40E94651C0E9412
:1029F800921E0E945E1CEDE2ED8BED89E03019F02D
:102A08001F5F4F5F01C00B7F342F00FD14C01517E7
:102A180010F4351708F00FC007FF08C002FF04C004
:102A28000B7F2D89115001C020E301C020E20E94D4
:102A38003C1C5150ECCF141790F4006102FF06C003
:102A48000E947C1C09F0515011504150E0E3EA9378
:102A58000E94511C503009F051504150ECCF312F99
:102A6800EC89E030B9F43030A1F003FF06C0EE8500
:102A7800FF852591EE87FF8705C0AE85BF852D911F
:102A8800AE87BF870E943C1C503009F0515031502E
:102A9800EACF51C00E948E1C0E94561F2E2F2A304A
:102AA80030F003FF02C0295C01C0295A01C0205D33
:102AB80004FD21C0213360F4A889B9898A899B89DA
:102AC800A130E0E0BE07E0E08E07E0E09E0709F4F1
:102AD8000BC0431740F4531710F000FF01C010C09B
:102AE80020E207FF08C020E3006102FF04C00E9443
:102AF8007C1C09F051500E943C1C503009F0515088
:102B080031500E948E1C0E948C1F0E945E1CEC8912
:102B1800A889B9898A899B89FF27662777270E9410
:102B2800561F0E94771CE889F9896A897B890E9467
:102B3800122009F0AFCF00FF08C0503031F05150DB
:102B4800E0E2EA930E94511CF8CF10E00CCEAE816F
:102B5800BF810E94AF1F0E941D20EF966F960895B7
:102B6800FF92F82E26970E9418200E94971C3097F3
:102B780019F4EFEFFFEF23C0DE0116960E947A1ECC
:102B88008D010E94971CEE83FF83E0E0E887E987C8
:102B9800DE011A960E947A1E0E94AF1FFA93EA93EA
:102BA8001A930A93EEE8F2E1FA93EA93DE011A9691
:102BB800BDDD9F01AE81BF81E0E0EC93F9010E9489
:102BC8001F202A96FF900895BA93AA93B981A881E5
:102BD800109631F0FC81EB816A8161931197E9F7D6
:102BE800EB81FC810C943116BA93AA93E991F9917F
:102BF800A991B991CD0105900D920020E1F7FC0152
:102C08000895BA93AA93A991B991EE27FF276D91D8
:102C1800662311F03196FBCF0895BA93AA93AA2799
:102C2800BB27E991F9910590002011F01196FBCF8F
:102C3800FD010895AA931A93AB81BC81EC91EC7FB6
:102C48001E2FEA81E03009F01160E981E03009F0D7
:102C58001260AB81BC811C93188125960895AA93B4
:102C6800E981E863AA81BB811196EC93EA81FB8133
:102C78003296A0E0A083E881AA81BB811596EC93E7
:102C8800EA81FB813496A1E0A083EA81FB81AC81D3
:102C9800BD81ED93FC93AC81BD811596E0E0EC938A
:102CA800AC81BD811996EC93AC81BD811B96EC93E8
:102CB80026960895BA93AA9322970E941620A8856B
:102CC800B9850D911C91F80134813396AF0133FF1A
:102CD80002C023E003C032FF04C024E0F8013483BB
:102CE80009C0F8013796EE83FF8336FF32C034FF00
:102CF80005C025E0DA01E3E0EC935BC0E885F985DF
:102D08002681E5812E1798F4E885F985A381B48199
:102D1800E22F2F5FF0E0AE0FBF1FEC91AE81BF81B5
:102D2800EC93E22FA885B9851696EC9347C0E88501
:102D3800F985A285E185AE1748F4E885F985A28171
:102D4800E1E0EA2BD8011696EC9338C0DA01E3E00B
:102D58002CC037FF2DC0E885F9852285E1852E171F
:102D680028F0DA01E3E0EC9322E023C0E885F98556
:102D7800A781B085E22F2F5FF0E0EA0FFB1F0F015C
:102D8800AE81BF81EC91D001EC93E22FA885B98583
:102D98001A96EC93E885F985E1852E1720F4DA0177
:102DA800E2E0EC930BC0DA01E7E0EC9321E001C02C
:102DB80026E0E22FA885B9851B96EC930E941D207A
:102DC8002A960895AA931A930A93E985FA85A38502
:102DD800A07809F05BC0A985BA851B96E0E8EC935A
:102DE800E885EE0FE887A985BA851296EC93EE81FF
:102DF800FF81A985BA851396ED93FC93ED81A9858A
:102E0800BA851596EC93A985BA851696E0E0EC93F9
:102E1800EB81FC81A985BA851796ED93FC93EA812D
:102E2800A985BA851996EC93A985BA851A96E0E022
:102E3800EC93A985BA850E94AF1F36968F01ED8164
:102E4800E03079F0EE81FF81309701F1EA81E030DE
:102E580021F0AB81BC81109709F001C017C0E8854B
:102E680009C0EA81E03041F0EB81FC81309771F0D4
:102E7800E885E160D801EC93E985FA85A385A07817
:102E8800D9F7A385E1E00E94061F01C0E0E019819F
:102E980008812B9608950E94CD1F7B816A81F98154
:102EA800E88177FB770F67FD7160972F9E5781F058
:102EB80078F0983190F4AA27BB278827089487953B
:102EC800B795A7959A95D1F7EA23FB23682305C000
:102ED800E8947727EE27FF2766276F77769508F41B
:102EE800606877F9A991B99189919991EA17FB07D7
:102EF8006807790797FB08950E94CD1F0E94BE1F9F
:102F08000E944F170E94C31F19F40E94B91F09C0DD
:102F1800E6F70E94B91FA0E0B0E080E89FE30E94B6
:102F2800701D2496089547D4E0E0EA83EFE3EB832D
:102F38001A930A93EB85FC85EF3FAFEFFA0731F45C
:102F4800F9D4A2E9B2E00E94F8158AC0EF3FAFE7D2
:102F5800FA0731F4EFD4A3E9B2E00E94F81580C073
:102F6800AC85AA2352F4E985FA856B857C850E9495
:102F7800D11CE5D4E9D4EDE2EC93A885A73010F094
:102F8800E6E0E8871885E12F1150E03021F0E3D41E
:102F980051D4E6D4F8CFE9D40E94771DD0D410E0FC
:102FA800E0E0F0E060E87FE3DBD4DFD40E945A1E63
:102FB80068F0D1D42FD4D4D41F5F173230F0BAD4EC
:102FC800A7E9B2E00E94F8154BC0EFCF103021F40A
:102FD800BBD4E0E3EC9320C0E12F1150E030E1F0E6
:102FE800BAD428D420D4DF01CB010E948017B8D4EA
:102FF800BCD40E94151E0E94041D0E2FA5D428D4EF
:10300800F0E0A9D40E94FC1E0E943D1D0E94C71D2D
:10301800B5D423D494D4E0CFE885E030E9F094D453
:10302800EEE2EC93E885E150E887EF5FA9F0A6D4DB
:10303800F1D385D4E985FA856B857C850E94041DCA
:103048000E2F82D405D4F0E099D40E94FC1E0E9471
:103058003D1D03D474D4E6CFAE81BF81E0E0EC938C
:10306800198108812D960895A1E0B0E00E94DF1F24
:10307800EF3F0895E0E00E94E81FE6E08E2EE1E0D1
:103088009E2EE82DF0E031970895EE5FFF4FDF01A7
:10309800E0E00E94E81F0895E82DF0E03197A92D9F
:1030A800B0E0AE17BF070895E82DF0E03197EE5F66
:1030B800FF4FBF01DF010E94DF1F0E2EA92DB0E0D8
:1030C800AE5FBF4F0E94DF1FE00DDB010E94E81FCB
:1030D8000895E2E18E2EE1E09E2EE82DF0E0319792
:1030E800E85FFF4FDF01E0E00E94E81F0895E82D48
:1030F800F0E03197E85FFF4FBF01DF010E94DF1F5B
:103108000E2EA92DB0E0A85FBF4F0E94DF1FE00D73
:10311800DB010E94E81F08950E94E81FE4E08E2E5C
:10312800E1E09E2EE82DF0E031970895E65EFF4F2E
:10313800DF01E0E00E94E81F0895E82DF0E03197F4
:10314800E65EFF4FBF01DF010E94DF1F0E2EA92D93
:10315800B0E0A65EBF4F0E94DF1FE00DDB010E94BA
:10316800E81F0895EA5AFF4FDF01E0E00E94E81FD8
:103178000895E82DF0E03197EA5AFF4FBF01DF01CB
:103188000E94DF1F0E2EA92DB0E0AA5ABF4F0E9441
:10319800DF1FE00DDB010E94E81F0895E75CFF4F89
:1031A800DF01E0E00E94E81F0895E82DF0E0319784
:1031B800E75CFF4FBF01DF010E94DF1F0E2EA92D24
:1031C800B0E0A75CBF4F0E94DF1FE00DDB010E944B
:1031D800E81F0895EA58FF4FDF01E0E00E94E81F6A
:1031E8000895E82DF0E03197EA58FF4FBF01DF015D
:1031F8000E94DF1F0E2EA92DB0E0AA58BF4F0E94D3
:10320800DF1FE00DDB010E94E81F0895EBE18E2E21
:10321800E1E09E2EE82DF0E03197E25EFF4FDF01FE
:10322800E0E00E94E81F0895E82DF0E03197E25EA3
:10323800FF4FBF01DF010E94DF1F0E2EA92DB0E056
:10324800A25EBF4F0E94DF1FE00DDB010E94E81F56
:103258000895E3E08E2EE1E09E2EE82DF0E0319710
:10326800E15CFF4FDF01E0E00E94E81F0895E82DD0
:10327800F0E03197E15CFF4FBF01DF010E94DF1FE3
:103288000E2EA92DB0E0A15CBF4F0E94DF1FE00DFC
:10329800DB010E94E81F0895EE5BFF4FDF01E0E0CD
:1032A8000E94E81F0895E82DF0E03197EE5BFF4F8C
:1032B800BF01DF010E94DF1F0E2EA92DB0E0AE5B1B
:1032C800BF4F0E94DF1FE00DDB010E94E81F089539
:1032D800ECE08E2EE1E09E2EE82DF0E03197E65BE3
:1032E800FF4FDF01E0E00E94E81F0895E82DF0E0BD
:1032F8003197E65BFF4FBF01DF010E94DF1F0E2EF3
:10330800A92DB0E0A65BBF4F0E94DF1FE00DDB01D7
:103318000E94E81F0895EAE08E2EE1E09E2EE82D37
:10332800F0E03197E65AFF4FDF01E0E00E94E81F26
:103338000895E82DF0E03197E65AFF4FBF01DF010D
:103348000E94DF1F0E2EA92DB0E0A65ABF4F0E9483
:10335800DF1FE00DDB010E94E81F0895E6E08E2ED6
:10336800E1E09E2EE82DF0E031970895E659FF4FF1
:10337800DF01E0E00E94E81F0895E82DF0E03197B2
:10338800E659FF4FBF01DF010E94DF1F0E2EA92D56
:10339800B0E0A659BF4F0E94DF1FE00DDB010E947D
:1033A800E81F0895E059FF4FDF01E0E00E94E81FA1
:1033B8000895E82DF0E03197E059FF4FBF01DF0194
:1033C8000E94DF1F0E2EA92DB0E0A059BF4F0E940A
:1033D800DF1FE00DDB010E94E81F0895EA5BFF4F45
:1033E800DF01E0E00E94E81F0895E82DF0E0319742
:1033F800EA5BFF4FBF01DF010E94DF1F0E2EA92DE0
:10340800B0E0AA5BBF4F0E94DF1FE00DDB010E9406
:10341800E81F0895EC59FF4FDF01E0E00E94E81F24
:103428000895E82DF0E03197EC59FF4FBF01DF0117
:103438000E94DF1F0E2EA92DB0E0AC59BF4F0E948D
:10344800DF1FE00DDB010E94E81F08950A921A921F
:10345800FA926A937A938A939A93AA93BA93EA937D
:10346800FA93EFB7EA930895EFEFE0938130E1E044
:103478003E2E0895E0938130E2E03E2EEFEFE09398
:10348800003008953E2EEFEFE09300300895EFEFFF
:10349800E0930030222408950E94DF1FAE2F0C9481
:1034A80056098824EFEFE09381300895E4E08E2EEA
:1034B800E1E09E2EE82DF0E031970895AAEC0E94F5
:1034C8005609AAEC0C9456090E945609CDCFE92D4D
:1034D800F0E0E050F04DE081BE0E0895EEE2F0E33A
:1034E800FA93EA930895E2E8F0E3FA93EA930895E9
:1034F800FA93EA93E2E0EA930895FA93EA93A2E052
:103508000E94E616F0CFE0E0F0E0FA93EA93A0E03C
:103518000C94E616FA93EA93E1E0EA930895FA9395
:10352800EA93A1E00E94E616DECFF0E0EA0FFB1F67
:103538000E94FC1E0895E093AA30F093AB3060938C
:10354800AC307093AD300895E091AA30F091AB3073
:103558006091AC307091AD3008950E94FC1E0E94BD
:103568007E1E08950E940B1FDF01CB01EFE00E9431
:10357800CD1E0895E093AE30F093AF306093B03035
:103588007093B1300895A091AE30B091AF30809172
:10359800B0309091B1300895E093B230F093B330E9
:1035A8006093B4307093B530EEDF0E947E1E0895AC
:1035B800E091B630F091B7306091B8307091B93081
:1035C8000895E0E0F0E060E271E40895E091BE3033
:1035D800F091BF306091C0307091C1300895A091D2
:1035E800BE30B091BF308091C0309091C1300E9400
:1035F8002B1F08950E94011F0E942B1FDF01CB0182
:1036080008950E94C11EB6DFE1CFE093C230F09367
:10361800C3306093C4307093C5300895E091C230D0
:10362800F091C3306091C4307091C5300895EE5F59
:10363800FF4F6F4F7F4F0E94E01E0E94E01E0895CB
:103648000E942B1F0E94EF1E0895A091CA30B091CE
:10365800CB308091CC309091CD300895E091D2302C
:10366800F091D3306091D4307091D5300895A09105
:10367800CE30B091CF308091D0309091D130E8E009
:103688000E94C11E0895E091CE30F091CF30609134
:10369800D0307091D1300895A091CE30B091CF3014
:1036A8008091D0309091D1300895E0E0F0E0FA9325
:1036B800EA93A0E00895E0E2EA93ECE0EA93E0E11F
:1036C800EA93A0E40C94EB0E0E94D91EEA0FFB1FAC
:1036D8008F01D801EC91E068EC930895E091E4073C
:1036E800ED7FE093E4070895E091E407E260E0935A
:1036F800E4070895E72DA6E2B0E3F0E0EE0FFF1F20
:103708000895AE0FBF1FE0E0F0E0ED93FC9308953D
:10371800E72DAEE1B0E3F0E0EE0FFF1F0895AE0F26
:10372800BF1F0E94AF1F0895DF01EAE0F0E00E948A
:10373800431FE659F040DB01ED93FC930895FA939B
:10374800EA9380E00E94B41524960E948009A8ECB0
:10375800B0E00C94C71CA2E3B0E00E94C71CE1E0F3
:1037680008950E94C81F88E00E94B4152C960C94F6
:103778008009A091BA30B091BB308091BC30909153
:10378800BD30089589DFEAE0F0E060E070E00E9473
:103798007B1F0895FF27662777270E94C81F84E0AC
:1037A8000E94B41528960C9480090E94AF1F319688
:1037B800ED93FC930895BA93AA932497E0E0E883E5
:1037C800E9830895AC81BD818E819F81FADE0E94D4
:1037D800C71DEC83FD836E837F830895EC81FD8193
:1037E8006E817F81AC85BD858E859F850E945A1E1E
:1037F8000895AC85BD858E859F850895EDECFCEC1C
:103808006CEC7DE30E94C71DEC87FD876E877F8780
:103818003F5F0895D6DE0E94C71D0895EC87FD8797
:103828006E877F870895A0E0B0E080E09FE30E9464
:10383800771D0895EDECFCEC6CEC7DE30E94C71D50
:103848000895A885B9851196A887B987119708950D
:10385800E02FE05DEC93E02F08950E94D21F0E94B4
:10386800701D0895E885F9853196E887F9870895E8
:103878002A93AF81B885E985FA8509950895FE01EF
:10388800E65AFF4F0190F081E02D08953497DE014C
:10389800A65ABF4FED93FC930895AF81B885E9858B
:1038A800FA8509950895DE01A65ABF4F0D90BC917F
:1038B800A02D0895EA87FB876C877D870895DFDF51
:1038C800E5CFEA85FB856C857D850895EE87FF87C2
:1038D800AE85BF850E9405161E2F0895E4DF149655
:1038E8000E94AF1F0895E88BF98B6A8B7B8B089534
:1038F8000B7FED89EA93DE01A95ABF4F0D90BC9169
:10390800A02DFE01E75AFF4F0190F081E02D0995A7
:1039180050300895E889F9896A897B89AA85BB8529
:103928008C859D850895DE011C960E947A1E0E9452
:10393800AF1F0895EE81FF81FA93EA930895E9870E
:10394800FA876B877C870895AE81BF811196AE8315
:10395800BF8311970895AA81BB818C819D810895A9
:10396800EA83FB836C837D830895EA81FB816C8104
:103978007D81A985BA858B859C850895A985BA8599
:103988008B859C850895109639F080E49FE1019716
:10399800F1F7A8951197C9F70895309760407040DE
:1039A80009F070580895552342F4503811F4E0FF97
:1039B80004C03196691F791F6BF050E8572711F43E
:1039C8005F93CFC05F3F31F0660F000C5795679546
:1039D800752F08955F9300200AF0CFC0C8C050E843
:1039E800192E1522880F991F9527550F879550E88E
:1039F800072E0522660F771F7527550F67950895BF
:103A0800689401C0E8945F93F2DF703818F07F3F44
:103A180008F4A7C056E1571BAAF4519558300EF484
:103A2800593030F0EFEFFFEF6FEF7FE777F91AC00B
:103A380077275523B9F0EE0FFF1F661F771F5A959A
:103A4800D1F710C07727583028F0EF2FF62F672FBF
:103A58005850F9CF552331F076956795F795E79546
:103A68005A95D1F700200AF459D15F9108956894C6
:103A780001C0E894309760407040B1F0002426F00F
:103A8800772312F400944AD1172E7EE1112032F0E8
:103A98007A95EE0FFF1F661F111CF9CFEF2FF62F37
:103AA800612D5F938ADF5F9108954F93AF01FD0108
:103AB800DA01AB01BC01CA01402D012C142E4F9133
:103AC8000895EA0FFB1F681F0895E095F09560952B
:103AD800EF5FFF4F6F4F08955F9381DF903871F16B
:103AE80050E8152604C05F937ADF903839F17038B2
:103AF80021F1572F591B2BF112F4D7DFFACF583188
:103B080018F0AA27BB278827583028F0AB2FB82FE2
:103B180088275850F9CF552329F08695B795A7954A
:103B28005A95D9F7502D512572F0CBDF38F46795A7
:103B3800F795E795739513F420C0B7DF3EDF5F91E3
:103B48000895D8F7FBCFEA1BFB0B680B51F010F474
:103B58000094BBDF662392F3EE0FFF1F661F7A9572
:103B6800CBF7EE27FF27662777275F910895EFEFBA
:103B7800FFEF6FE77FEF5F910895EFEFFFEF6FE7DC
:103B88007FE75F9108955F932ADF703851F390388B
:103B980041F301240894791F23F41CF300203AF31D
:103BA800ECCF0F921F932F933F934F931127222708
:103BB8009927689FA0018F9F302D410D591F6B9F3A
:103BC800300D411D591F8E9F27D0BF9F25D06A9F5A
:103BD80023D0BE9F1DD0AF9F1BD0AE9F110D291FB4
:103BE800391F491F591FE32FF42F652F522F4F916B
:103BF8003F912F911F910F9066232AF0550FEE1FCA
:103C0800FF1F661F02C073954BF2CDDE5F910895CA
:103C1800100D211D391F02C0200D311D491F591FCC
:103C280008955F93DCDE703821F411200AF49FCFE9
:103C3800A4CF903809F495CF01240894970B1BF46E
:103C4800D4F30020F3CF792F1F932F933F934F93F3
:103C580011241127222733274427552790E2AE172E
:103C6800BF078607410730F0AE1BBF0B860B410B21
:103C7800089401C08894551F221F331F111CAA1FC6
:103C8800BB1F881F441F9A9551F7F901612D4F9169
:103C98003F912F911F91662332F0550FEE1FFF1FA2
:103CA800661F7A9543F27FDE5F91089599239AF013
:103CB800772342F0971748F029F4AE17BF07860715
:103CC80020F031F098948894089598940894089571
:103CD8001894889408957723C2F7971798F3A9F74B
:103CE800EA17FB07680788F399F3ECCF0024AF0DB8
:103CF800B01D0895EA0FFB1F681F791F0895AE0FC6
:103D0800BF1F861F971F0895EA1BFB0B680B790BD3
:103D18000895AE1BBF0B860B970B0895F095609521
:103D28007095E195FF4F6F4F7F4F0895EE230E2E4C
:103D3800FD0121F0EE0FFF1F0A94E1F70895EE232D
:103D48000E2EFD0121F0F595E7950A94E1F7089507
:103D5800EE230E2EFD0121F0F695E7950A94E1F782
:103D68000895EE230E2EFD01BC0131F0EE0FFF1F6A
:103D7800661F771F0A94D1F70895EE230E2EFD01D2
:103D8800BC0131F075956795F795E7950A94D1F7D9
:103D98000895EE230E2EFD01BC0131F0769567954E
:103DA800F795E7950A94D1F70895EE0FFF1FEE0FE8
:103DB800FF1FEE0FFF1F089575956795F795E79517
:103DC8000895EE0FFF1F661F771F0895EF2FFF2737
:103DD800E7FDFFEF0895E62FF72F6627F7FD6FEF52
:103DE800762F0895FE2FFF0FFF0B6F2F7F2F08955B
:103DF8006F2F660F660B762F08958B2F880F880B11
:103E0800982F0895EA17E1E009F0EE2708957A9FC0
:103E1800702D6B9F700DF89F700DE99F700D6A9F54
:103E2800602D710DFB9F600D711DE89F600D711D68
:103E38008827FA9FF02D610D781FEB9FF00D611D0B
:103E4800781FEA9FE02DF10D681F781F089570D044
:103E5800DEDF0EF463DF0895002498E0AA0F001C4B
:103E68000E1A10F40E0E01C0A1609A95B9F7EA2F48
:103E7800A02D089551D0F0DF0EF4E19508950024A7
:103E8800112490E1AA0FBB1F001C111C0E1A1F0A57
:103E980018F40E0E1F1E01C0A1609A9599F7FD0136
:103EA800D00108953F934F935F9300241124442732
:103EB800552730E2AA0FBB1F881F991F001C111C31
:103EC800441F551F0E1A1F0A460B570B28F40E0ED7
:103ED8001F1E461F571F01C0A1603A9559F7FD01E3
:103EE800BC01D001CA015F914F913F91089520D044
:103EF800D9DF0EF413DF0895E894A7FF02C0A19557
:103F08006894E7FDE195A8DFEA2F0EF4E19508959E
:103F1800C9DFFD01BC010895E894E7FF02C0E195FF
:103F28006894A7FF04C0A19500F8039400FA0895C7
:103F3800E89477FF02C0F2DE689497FF0BC0002474
:103F4800A095B095809590951196801D901D00F8CC
:103F5800039400FA0895ED91FC9111970895ED915D
:103F6800FD916D917C9113970895E881F9816A819B
:103F78007B810895A881B9818A819B810895E8830E
:103F8800F9836A837B8308957A936A93FA93EA9311
:103F980008959A938A93BA93AA930895182E862F10
:103FA800612D192E972F712D1B2EBF2FF12D1A2E33
:103FB800AE2FE12D0895A895E091CF01E7FDFBCF45
:103FC800B05FEC91B051089523D0B05F8C918E17FB
:103FD80011F4B05108959E2F1BD07F937FB7F894AA
:103FE8009C93B051A093C001B093C10180E080932D
:103FF800C20185E38093CA0188ED91E084BF909364
:10400800CB0106D080E08093CA017FBF7F910895DD
:10401800A8958091CF0187FDFBCF08953097604028
:10402800704008955A934A933A932A931A930A939D
:1040380008955D814C813B812A8119810881089509
:00000001FF
