:060000000C948D010C942C
:1000060000000C9400000C9400000C9400000C946A
:1000160000000C9400000C9400000C9400000C945A
:1000260000000C9400000C947F080C9400000C94C3
:1000360000000C947C140C9400000C9400000C94AA
:1000460000000C9400000C9400000C948E140C9488
:1000560000000C9400000C9400000C9400000C941A
:10006600AA080C9400000C9400000C9400000C9458
:1000760000000C9400000C9400000C9400000C94FA
:1000860000000C9400000C9400000C9400000C94EA
:1000960000000C9400000C9400000C9400000C94DA
:1000A60000000C9400000C9400000C9400000C94CA
:1000B60000000C94D50E0C9400000C9400000C94D7
:1000C60000000C9400000C9400000C9400000C94AA
:1000D60000000C9400000C9400000C9400000C949A
:1000E60000000C9400000C9400000C9400000C948A
:1000F60000000C9400000C9400000C9400000C947A
:1001060000000C9400000C9400000C9400000C9469
:1001160000000C9400000C9400000C9400000C9459
:1001260000000C9400000C9400000C9400000C9449
:1001360058150C9400000C9400000C9400000C94CC
:1001460000000C9400000C9400000C9400000C9429
:1001560000000C9400000C9400000C9400000C9419
:1001660000000C9400000C9400000C9400000C9409
:1001760000000C9400000C9400000C9400000C94F9
:1001860000000C9400000C9400000C9400000C94E9
:1001960000000C9400000C9400000C9400000C94D9
:1001A60000000C9400000C9400000C9400000C94C9
:1001B60000000C9400000C9400000C9400000C94B9
:1001C60000000C9400000C9400000C9400000C94A9
:1001D60000000C9400000C9400000C9400000C9499
:1001E6000000FF000000000000000000000000000A
:1001F6000100000001000000B207000080DE2800B8
:100206008033E101000000001F0000001C00000018
:100216001F0000001E0000001F0000001E0000005E
:100226001F0000001F0000001E0000001F0000004D
:100236001E0000001F000000000000001F0000005C
:100246001C0000001F0000001E0000001F00000030
:100256001E0000001F0000001F0000001E0000001E
:100266001F0000001E0000001F000000010001002A
:100276007374617274206465766963650073746172
:100286007274206932630062756620693263207376
:1002960074617274206F6B00626D70206932632026
:1002A6007374617274206F6B00535049205354412C
:1002B600525400616437373035207374617274208C
:1002C6006F6B005354415254205748494C45002502
:1002D6006C6400256C642C256C640025326925321B
:1002E600692C25692C2569002D4E414E0000010020
:1002F6002D4E414E00494E46000001008230E80175
:100306000100BC3072020100433174020100463123
:10031600F4020000F894EE27F091CC01F860F09317
:10032600CC01F8EDF4BFE093A200A0918000AD7F70
:10033600A160F4BFA093800080E090E4A0E0B0E26A
:10034600ED930197E9F7E0E0F3E085919591009749
:1003560061F0A591B59105901590BF01F00105904A
:100366000D920197E1F7FB01F0CF8BBF8CBFE0E068
:10037600E0B9E1B9E2B9E3B9E4B9E5B9E6B9E7B993
:10038600E8B9E9B9EAB9EBB9ECB9EDB9EEB9EFB943
:100396002E2EE1E03E2EE0E04E2E5E2E6E2E7E2EBE
:1003A6008E2E9E2EAE2EBE2ECE2EDE2EEFEFEDBF65
:1003B600EFE5EEBFC0E0D0E30C9459151A930A930B
:1003C600E091E407EE7FE093E40710E000E01631E9
:1003D60088F4103031F0E12FF0E0E45BFF4CE0816F
:1003E6000E0FE12FF0E0E45BFF4CA0810E94720D3E
:1003F6001F5FEDCF00936230A09162300E94720DB4
:10040600E091E407E160E093E4070991199108950A
:100416000E945C1D11F5A2E0B0E0E0EA0E94B2265F
:10042600A3E0B0E0E0E30E94B226A4E0B0E0E3E39C
:100436000E94B226A5E0B0E0E5E30E94B226A6E05F
:10044600B0E00E94621D0E946D1D0E94741D24F47E
:100456000E947C1D8394F9CFBB240E945C1D09F089
:1004660058C0A8E0B0E0EFEA0E94B226A9E0B0E0EA
:10047600E1E00E94B226AAE0B0E0E3E60E94B226DE
:10048600ABE0B0E0E0E60E94B226ACE0B0E0E4E625
:100496000E94B226ADE0B0E0E0E00E94B226AEE0F7
:1004A600B0E00E94B226AFE0B0E00E94B226A0E122
:1004B600B0E00E94B226A1E1B0E00E94B226A2E11D
:1004C600B0E00E94B226A3E1B0E00E94B226A4E109
:1004D600B0E0E8E90E94B226A5E1B0E0EAE30E94B6
:1004E600B226A6E1B0E0ECED0E94B226A7E1B0E0AC
:1004F600E5E00E94B226A8E1B0E00E94B2260E9482
:10050600911D0E94741D24F40E949F1D8394F9CFAF
:10051600BB240E945C1DC9F4AAE1B0E0EAEA0E948D
:10052600B226ABE1B0E0E0E60E94B226ACE1B0E074
:10053600EAEE0E94B41D0E94BE1D0E94741D24F4A2
:100546000E94C51D8394F9CFBB240E945C1DC9F48B
:10055600A6E5B0E0E2EA0E94B226A7E5B0E0E1E057
:100566000E94B226A8E5B0E0E0E00E94B41D0E9419
:10057600DA1D0E94741D24F40E94E11D8394F9CFB4
:10058600BB240E945C1D11F5A9E3B0E0EDEA0E94D0
:10059600B226AAE3B0E0EAE50E94B226ABE3B0E0F9
:1005A600E0E00E94B226ACE3B0E0EAE50E94B226A3
:1005B600ADE3B0E00E94621D0E94F61D0E94741D0C
:1005C60024F40E94FD1D8394F9CFBB240E945C1D78
:1005D60009F5A6E7B0E0E6EA0E94B226A7E7B0E092
:1005E600E0E00E94B226A8E7B0E00E94B226A9E7A2
:1005F600B0E0E1E00E94B226AAE7B0E00E94621DE8
:100606000E94121E0E94741D24F40E94191E8394D7
:10061600F9CFBB240E945C1D09F08CC0AEE1B0E0AE
:10062600E1EA0E94B226AFE1B0E0E3E50E94B2261D
:10063600A0E2B0E0E5E70E94B226A1E2B0E0EEE675
:100646000E94B226A2E2B0E0E0E20E94B226A3E255
:10065600B0E0E3E50E94B226A4E2B0E0E5E60E943F
:10066600B226A5E2B0E0E0E70E94B226A6E2B0E03C
:10067600E0E20E94B226A7E2B0E0E2E30E94B226E0
:10068600A8E2B0E0E1E30E94B226A9E2B0E0E0E22F
:100696000E94B226AAE2B0E0E2E30E94B226ABE2F2
:1006A600B0E0E3E30E94B226ACE2B0E0EAE30E94E7
:1006B600B226ADE2B0E0E3E30E94B226AEE2B0E0DD
:1006C600E6E30E94B226AFE2B0E0EAE30E94B22679
:1006D600A0E3B0E0E2E30E94B226A1E3B0E0E4E3E7
:1006E6000E94B226A2E3B0E0E0E20E94B226A3E3B3
:1006F600B0E0E2E30E94B226A4E3B0E0E0E30E94A9
:10070600B226A5E3B0E0E1E30E94B226A6E3B0E09C
:10071600E4E30E94B226A7E3B0E0E0E00E94B2263E
:100726000E942E1E0E94741D24F40E943C1E839477
:10073600F9CFBB240E945C1DA1F4AFE3B0E0E7EA69
:100746000E94B226A0E4B0E0E2E40E94B2260E9433
:10075600511E0E94741D24F40E945F1E8394F9CFDB
:10076600BB240E945C1DC9F4A2E4B0E0E7E70E9446
:10077600B226A3E4B0E0E0E00E94B226A4E4B0E032
:10078600ECEF0E94B41D0E94741E0E94741D24F496
:100796000E947B1E8394F9CFBB240E945C1D09F046
:1007A60041C0AAE4B0E0EBEA0E94B226ABE4B0E0B6
:1007B600E5E70E94B226ACE4B0E0EEE60E94B2267F
:1007C600ADE4B0E0E7E30E94B226AEE4B0E0E0E3D9
:1007D6000E94B226AFE4B0E0E2E30E94B226A0E5B2
:1007E600B0E0E2E60E94B226A1E5B0E0EEE00E94AB
:1007F600B226A2E5B0E0E4E00E94B226A3E5B0E0AE
:10080600E4E10E94B226A4E5B0E0EEE00E94B22642
:100816000E94901E0E94741D24F40E949E1E8394C2
:10082600F9CFBB240E945C1D81F5AAE5B0E0EEEA93
:100836000E94B226ABE5B0E0EFEF0E94B226ACE52F
:10084600B0E00E94B226ADE5B0E00E94B226AEE569
:10085600B0E00E94B226AFE5B0E00E94B226A0E664
:10086600B0E00E94B226A1E6B0E00E94B226A2E65F
:10087600B0E00E94B2260E94B31E0E94741D24F4AA
:100886000E94C11E8394F9CFBB240E945C1D29F5EA
:10089600AAE6B0E0E4EA0E94B226ABE6B0E0E0E009
:1008A6000E94B226ACE6B0E0ECEF0E94B226ADE6BE
:1008B600B0E0E8E60E94B226AEE6B0E0E7EF0E94BE
:1008C600B2260E94D61E0E94DE1E0E94741D24F4CB
:1008D6000E94E51E8394F9CFBB240E945C1D09F596
:1008E600A0E7B0E0E8E50E94B226A1E7B0E0E0E0CC
:1008F6000E94B226A2E7B0E00E94B226A3E7B0E0CB
:10090600E1E00E94B226A4E7B0E00E94621D0E94C8
:10091600FA1E0E94741D24F40E94011F8394F9CFCD
:10092600BB240E945C1DC1F4A6E4B0E0E6E70E9489
:10093600B226A7E4B0E0EFEF0E94B226A8E4B0E04A
:100946000E94B41D0E94161F0E94741D24F40E946A
:100956001D1F8394F9CFBB240E945C1D01F5A4E6FC
:10096600B0E0EAE60E94B226A5E6B0E0E0E00E942A
:10097600B226A6E6B0E00E94B226A7E6B0E00E9444
:10098600B226A8E6B0E00E94621D0E94321F0E94B5
:10099600741D24F40E94391F8394F9CFBB24089553
:1009A600E5EAE0934C30E0E4E0934D30EFE1E0938C
:1009B6004E30E8E7E0934F30E0E0E0935030EBEB69
:1009C600E0935130EBE0E0935230E0E0E0935330B7
:1009D600EFEFE0935430E0E0E0935530E8E0E09349
:1009E6005630EDEAE0935730EDE0E0935830ECEA0C
:1009F600E0935930EDE0E0935A30E0E1E0935B306C
:100A0600E7E2E0935C30E0E0E0935D30E4E0E09321
:100A16005E30E0E0E0935F30E6E0E0936030E0E0F7
:100A2600E09361300895E0E0E0930406E093000669
:100A3600E0931006E0931106E0931206E093130686
:100A4600E0931406E0931506E0931606E093170666
:100A5600E0910906E07FE0930906E0E0E0930A06EC
:100A6600E0930B06E0932406E0932006E09330061D
:100A7600E0933106E0933206E0933306E0933406C2
:100A8600E0933506E0933606E0933706E0912906B3
:100A9600E07FE0932906E0E0E0932A06E0932B0648
:100AA600E8E1E0934406E8EBE0934006E0E0E093FB
:100AB6005006E0935106E0935206E0935306E09306
:100AC6005406E0935506E0935606E0935706E091E8
:100AD6004906E07FE0934906E0E0E0934A06E093AA
:100AE6004B06E0E8E0936406E0936006E0E0E093FE
:100AF6007006E0937106E0937206E0937306E09346
:100B06007406E0937506E0937606E0937706E09127
:100B16006906E07FE0936906E0E0E0936A06E09309
:100B26006B06E0938406E0938006E0918006E06120
:100B3600E0938006E0E0E0939006E0939106E0E122
:100B4600E0939206E0E0E0939306E0939406E09348
:100B56009506E0939606E0939706E0918906E07F76
:100B6600E0938906E0E0E0938A06E0938B06E09343
:100B7600A406E093A006E093B006E093B106E093E6
:100B8600B206E093B306E093B406E093B606E093AC
:100B9600B706E091A906E07FE093A906E0E0E093BE
:100BA600AA06E093AB06EFE0E093E407E093E007E4
:100BB600E0E0E093F007E093F107E091E907E07FDA
:100BC600E093E907E0E0E093EA07E093EB07089596
:100BD600BA93AA93E0E1E0932104E0912104E07145
:100BE600E1F7E0912404F0912504609126047091C8
:100BF6002704A881B9810E946126229608951A9336
:100C0600E8EDE4BFE091F000E260E093F000E091EF
:100C16005200EF7DE0935200E12FEE7FE8601E2F39
:100C2600E8EDE4BF1093F000E091F100E870E1F325
:100C36001460E8EDE4BF1093F000E0E0E0932004D8
:100C4600E0912104E171E1F70E944E1FE091210439
:100C5600E061E09321040E945B1FE0932C04F09373
:100C66002D0460932E0470932F04E1E0E09320049A
:100C7600E2E0E093220419910895E8EDE4BFE0E094
:100C8600E0932004E0912104E171E1F70E944E1FF8
:100C96000E94601FE0932404F093250460932604C9
:100CA60070932704E0912104E061E0932104E1E0E0
:100CB600E09320040895BA93AA93EF97659784E585
:100CC600A0E0B0E0EAEEF1E00E940427FE01E85A57
:100CD600FF4F0190119061917081F0010E94691F90
:100CE6000E94701F0E942725FE01E45AFF4FA19320
:100CF600B19381939083EC8DFD8D6E8D7F8D0E94D7
:100D0600701F0E94EC265CF50E94791F0E947E1FD0
:100D160049F40E94871F0E948C1F19F40E94951F98
:100D260009F401C003C00E949F1F02C00E945B1FFE
:100D36000E94A41F0E94A71FEC8FFD8F6E8F7F8FCE
:100D46000E94791FEF5FFF4F6F4F7F4F0E94B41FC6
:100D5600AC8DBD8D8E8D9F8D0E94B91FCCCF0E940C
:100D6600CB1F39F40E94CD1F19F40E94951F09F478
:100D760001C003C00E949F1F02C00E945B1F0E9409
:100D8600A41F0E94CF1F29F0EDE1F0E060E070E0C3
:100D960004C0ECE1F0E060E070E0E8A7F9A76AA71C
:100DA6007BA7E88DF98D6A8D7B8D0E94701F0E944E
:100DB600F126CCF0E889F989DE0190960E94D41FCD
:100DC600E88FF98F6A8F7B8F0E94E11FEF5FFF4FDD
:100DD6006F4F7F4F0E94E61FA88DB98D8A8D9B8D20
:100DE6000E94B91FDECF0E94EB1F0E940326EF5F11
:100DF600FF4F6F4F7F4F0E94F11F0E94EB1F0E9413
:100E0600F61F0E9400200E940326E887F9876A875A
:100E16007B870E94701F0E9400200E94F61FECE351
:100E2600F0E060E070E00E9403260E9405200E9428
:100E3600701FECE3F0E060E070E00E941826DE012F
:100E4600A45ABF4FED93FD936D937C930E94791F37
:100E56000E940A207F936F93FF93EF930E94E11FF6
:100E66000E941120AF91BF918F919F910E941825EA
:100E76000E9418200E941825DE01AA5ABF4F0D9025
:100E8600BC91A02D0E946126E885F9856A857B853F
:100E96000E940A207F936F93FF93EF930E941D2079
:100EA6000E941120AF91BF918F919F910E941825AA
:100EB6000E94701F0E941825DE01AC5ABF4F0D908C
:100EC600BC91A02D0E946126EF96A1960895BA9333
:100ED600AA93EF972D9784E3A8E1B0E0EEE3F2E062
:100EE6000E9404270E9422200E94DE250E94B41F31
:100EF6000E9422200E942F200E94E61FDE01AA5A8D
:100F0600BF4F0D901D908D919C91D0010E943A206B
:100F16000E94F11F0E9441200E94DE25E887F98782
:100F26006A877B870E9441200E942F200E9405200D
:100F36000E94CB1F39F40E94CD1F19F40E94951F01
:100F460009F401C003C00E949F1F02C00E945B1FDC
:100F56000E94A41FDE01AE5ABF4F0D901D908D91C9
:100F66009C91D0010E943A207F936F93FF93EF9359
:100F76000E941D20ACE3B0E080E090E00E94B32523
:100F8600AF91BF918F919F910E9418257F936F9388
:100F9600FF93EF93FE01E25BFF4F01901190619189
:100FA6007081F001A885B9858A859B850E941D25DB
:100FB6000E9400200E949325AF91BF918F919F912F
:100FC6000E9418257F936F93FF93EF930E944E2004
:100FD6000E945320A8E1B0E080E090E00E94B32593
:100FE6000E94691FAF91BF918F919F910E94182512
:100FF6000E9458200E9461260E94CF1F29F0EDE131
:10100600F0E060E070E004C0ECE1F0E060E070E089
:10101600E8A3F9A36AA37BA30E94E11F0E945320C1
:101026000E94E61F0E945F200E94E62614F50E9499
:101036005820BF93AF930E945B267F936F93FF93D5
:10104600EF93E889F989DE0158960E94D41FAF9183
:10105600BF918F919F910E941825AF91BF910E94D9
:1010660061260E94E11F3197604070400E94E61F92
:10107600D9CF0E94791F0E9453200E94B41F0E945C
:10108600871FA23BE7E0BE07E0E08E07E0E09E0791
:1010960084F10E94CB1F39F40E94CD1F19F40E94DF
:1010A600951F09F401C003C00E949F1F02C00E9441
:1010B6005B1F0E94A41F0E945820BF93AF930E94FB
:1010C6005B267F936F93FF93EF930E94A71FAF91C9
:1010D600BF918F919F910E941825AF91BF910E9459
:1010E60061260E94791F3197604070400E94B41FAC
:1010F600C6CFEF966B9608950E9464200E947220D8
:10110600E991EFBFF991E991B991A99199918991E5
:1011160079916991F990199009901895E8E0E09312
:101126004506E3E0E093A508E091A308E07CE063D0
:10113600E093A308E5EFE093A608ECECE093A7089C
:10114600E091A408E07EE861E093A40808950E9477
:101156006420D090A108C090A008ED2DEC7131F468
:10116600E22DF0E0E050F04DC0822394E091823011
:10117600F0E0EF3FA0E0FA0709F04AC2E091003044
:10118600F0E0EF3FA0E0FA0731F40E948420EFEF91
:10119600E09300303BC2EA3CA0E0FA0721F4EAEC17
:1011A6000E948A2033C2E53FA0E0FA0721F4E5EF6A
:1011B6000E948A202BC2E53BA0E0FA0721F4E5EB6A
:1011C6000E94922023C2EA3EA0E0FA0721F4EAEE4A
:1011D6000E948A201BC2E53EA0E0FA0721F4E5EE54
:1011E6000E949A2013C2E73EA0E0FA0721F4E7EE38
:1011F6000E949A200BC2E036A0E0FA0721F4E0E64E
:101206000E948A2003C2E83EA0E0FA0721F4E8EE35
:101216000E94A220FBC1E93EA0E0FA0721F4E9EE14
:101226000E94A220F3C1E13DA0E0FA0749F4E1EDF6
:10123600E0938230E5E03E2EEFEFE0930030E6C12A
:10124600E33DA0E0FA0721F4E3ED0E949220DEC11F
:10125600E53DA0E0FA0721F4E5ED0E94AA20D4C1FD
:10126600E73DA0E0FA0721F4E7ED0E94AA20CCC1F1
:10127600E03AA0E0FA07D9F40E94B0200E94D61EF8
:101286000E946D1D0E94741D24F40E947C1D83948F
:10129600F9CF88248B1440F4A82DB0E0AE5FBF4F81
:1012A6000E94B5208394F6CF0E94BA20AFC1E13ADE
:1012B600A0E0FA07C9F40E94B0200E942E1E0E94E8
:1012C600741D24F40E943C1E8394F9CF88248B1449
:1012D60040F4A82DB0E0A25EBF4F0E94B5208394D3
:1012E600F6CF0E94BA2093C1E23AA0E0FA07D9F4F9
:1012F6000E94B0200E94BF200E94DA1D0E94741D29
:1013060024F40E94E11D8394F9CF88248B1440F4C1
:10131600A82DB0E0AA5ABF4F0E94B5208394F6CFFD
:101326000E94BA2074C1E43AA0E0FA07D9F40E94F8
:10133600B0200E94D61E0E94DE1E0E94741D24F458
:101346000E94E51E8394F9CF88248B1440F4A82DBF
:10135600B0E0A659BF4F0E94B5208394F6CF0E94F5
:10136600BA2055C1E63AA0E0FA07D9F40E94B020A7
:101376000E94D61E0E94121E0E94741D24F40E9412
:10138600191E8394F9CF88248B1440F4A82DB0E05D
:10139600AA58BF4F0E94B5208394F6CF0E94BA2068
:1013A60036C1E73AA0E0FA07C9F40E94B0200E94CD
:1013B600511E0E94741D24F40E945F1E8394F9CF6F
:1013C60088248B1440F4A82DB0E0A15CBF4F0E9486
:1013D600B5208394F6CF0E94BA2019C1EA3AA0E05C
:1013E600FA07D9F40E94B0200E94BF200E94BE1DB9
:1013F6000E94741D24F40E94C51D8394F9CF88248D
:101406008B1440F4A82DB0E0A65EBF4F0E94B52015
:101416008394F6CF0E94BA20FAC0EB3AA0E0FA070E
:10142600C9F40E94B0200E94901E0E94741D24F4EC
:101436000E949E1E8394F9CF88248B1440F4A82D15
:10144600B0E0A65BBF4F0E94B5208394F6CF0E9402
:10145600BA20DDC0ED3AA0E0FA07D9F40E94B02028
:101466000E94D61E0E94F61D0E94741D24F40E943E
:10147600FD1D8394F9CF88248B1440F4A82DB0E089
:10148600A75CBF4F0E94B5208394F6CF0E94BA2076
:10149600BEC0EE3AA0E0FA07C9F40E94B0200E944E
:1014A600B31E0E94741D24F40E94C11E8394F9CFBA
:1014B60088248B1440F4A82DB0E0A65ABF4F0E9492
:1014C600B5208394F6CF0E94BA20A1C0EF3AA0E0DF
:1014D600FA07C9F40E94B0200E94911D0E94741D53
:1014E60024F40E949F1D8394F9CF88248B1440F422
:1014F600A82DB0E0A85FBF4F0E94B5208394F6CF19
:101506000E94BA2084C0E835A0E0FA07D9F40E9408
:10151600B0200E94D61E0E94FA1E0E94741D24F45A
:101526000E94011F8394F9CF88248B1440F4A82DC0
:10153600B0E0A059BF4F0E94B5208394F6CF0E9419
:10154600BA2065C0EA36A0E0FA07D9F40E94B020B6
:101556000E94D61E0E94321F0E94741D24F40E940F
:10156600391F8394F9CF88248B1440F4A82DB0E05A
:10157600AC59BF4F0E94B5208394F6CF0E94BA2083
:1015860046C0E637A0E0FA07D9F40E94B0200E94D0
:10159600BF200E94161F0E94741D24F40E941D1F66
:1015A6008394F9CF88248B1440F4A82DB0E0AA5B6D
:1015B600BF4F0E94B5208394F6CF0E94BA2027C061
:1015C600E737A0E0FA07D9F40E94B0200E94BF20B6
:1015D6000E94741E0E94741D24F40E947B1E839434
:1015E600F9CF88248B1440F4A82DB0E0AE5BBF4F32
:1015F6000E94B5208394F6CF0E94BA2008C0EFEF70
:10160600E0930030E0938230E1E03E2E222404C0D5
:10161600EA3CA0E0FA0739F5E2E0E21519F5A091F7
:101626000030A13021F4A0910130A13009F003C0AF
:101636000E94C72011C0A0910030AF3021F4A091C4
:101646000130AF3009F008C00E94C7200E948420F4
:10165600E1E0E093813005C0EFEFE0938230E1E016
:101666003E2E22243BC2E53FA0E0FA0711F5E2E058
:10167600E215F1F4A0910030AF3521F4A0910130CC
:10168600AF3509F012C0A5EF2AD2A5EF28D2A5EFF3
:101696000E94CD202224A5E0B0E00E946123E8ED5F
:1016A600E4BFE1E0E093790003C00E948420222495
:1016B60015C2E53BA0E0FA07F1F4E4E0E215D1F447
:1016C6008824AA24E3E08E1620F40E94D020839476
:1016D600F9CFA0910330AA1651F490900030A5EBF3
:1016E600FED1A5EB0E94CD202224AA2403C00E948D
:1016F60084202224F3C1EA3EA0E0FA07E1F4E2E006
:10170600E215C1F48824AA24E1E08E1620F40E9492
:10171600D0208394F9CFA0910130AA1641F4AAEE05
:10172600DED1AAEE0E94CD202224AA2403C00E9464
:1017360084202224D3C1E036A0E0FA07F1F4E2E0E7
:10174600E215D1F48824AA24E1E08E1620F40E9442
:10175600D0208394F9CFA0910130AA1651F4A0E6C7
:10176600BED1A0E0BCD1A0E00E94CD202224AA24B4
:1017760003C00E9484202224B1C1E53EA0E0FA07FE
:10178600E1F4E7E0E215C1F48824AA24E6E08E1627
:1017960020F40E94D0208394F9CFA0910630AA1697
:1017A60041F4A5EE9CD1A5EE0E94CD202224AA24C8
:1017B60003C00E948420222491C1E73EA0E0FA07DC
:1017C600E1F4E7E0E215C1F48824AA24E6E08E16E7
:1017D60020F40E94D0208394F9CFA0910630AA1657
:1017E60041F4A7EE7CD1A7EE0E94CD202224AA24A4
:1017F60003C00E948420222471C1E83EA0E0FA07BB
:10180600E1F4E3E0E215C1F48824AA24E2E08E16AE
:1018160020F40E94D0208394F9CFA0910230AA161A
:1018260041F4A8EE5CD1A8EE0E94CD202224AA2481
:1018360003C00E948420222451C1E93EA0E0FA0799
:10184600E1F4E3E0E215C1F48824AA24E2E08E166E
:1018560020F40E94D0208394F9CFA0910230AA16DA
:1018660041F4A9EE3CD1A9EE0E94CD202224AA245F
:1018760003C00E948420222431C1E13DA0E0FA0782
:1018860009F03FC0E5E0E215D9F58824AA24E4E092
:101896008E1620F40E94D0208394F9CFA0910430B4
:1018A600AA1659F5E0E0E0930430E0938730E09320
:1018B6008830E0938930E0938A300E94D7200E94D6
:1018C600E5200E94F6200E94E520E0910330F0E03A
:1018D6000E94FE20E0938730F09388306093893031
:1018E60070938A30E1E0E0938B30A1EDF8D0A1ED62
:1018F6000E94CD202224AA2403C00E9484202224F0
:10190600EDC0E33DA0E0FA07E1F5E4E0E215C1F53C
:101916008824AA24E3E08E1620F40E94D020839423
:10192600F9CFA0910330AA1641F5E0E0E093033029
:10193600E0938D30E0938E30E0938F30E0939030DB
:101946000E94D7200E9403210E940C21A4E6B0E049
:1019560080E090E00E949325DF01CB010E94F620F3
:101966000E940321E1E0E0938C30A3EDB8D0A3ED13
:101976000E94CD202224AA2403C00E94842022246F
:10198600ADC0E53DA0E0FA0709F053C0E1E0E2157D
:1019960009F04EC0A0910030A53D09F043C00E9459
:1019A60072200E9415210E94DE25E09391300E944C
:1019B60015210E941426DF01CB010E9422210E94DC
:1019C600DE25E09392300E9427210E9422210E9468
:1019D6002F20E09393300E9427210E943A20E09323
:1019E60094308824E0E0E0939530E4E08E1650F4DD
:1019F600A09195300E943021E081EA0FE093953066
:101A06008394F3CFA5ED6BD08824E5E08E1630F4F1
:101A16000E943021A08163D08394F7CFEFEF0E941C
:101A2600AA2003C0EFEFE0938230E1E03E2E2224AD
:101A360055C0E73DA0E0FA0709F04AC0E1E0E2152B
:101A460009F045C0A0910030A73DD9F50E9472204B
:101A56000E9435210E94DE25E09391300E943521B7
:101A66000E942F20E0939230A0918D30B0918E305D
:101A760080918F30909190300E943A20E09393307D
:101A86008824E0E0E0939430E3E08E1650F4A091D1
:101A960094300E943021E081EA0FE09394308394E1
:101AA600F3CFA7ED1CD08824E4E08E1630F40E9414
:101AB6003021A08114D08394F7CFEFEF0E94AA20A3
:101AC60003C0EFEFE0938230E1E03E2E222406C011
:101AD600EFEFE09300300E948420222474C1AA9381
:101AE600E091A108E072E1F3E881E093A00840C12B
:101AF600E0E8E0936506E3E0E093B509E091B30919
:101B0600E07CE093B309EEE6E093B609E8EAE093F9
:101B1600B709E091B409E07EE860E093B40908955E
:101B2600AA93E091B109E072E1F3E881E093B0098C
:101B36001FC11A9310E0AEE2B0E30E94051BA12F6D
:101B4600B0E0AE17BF0740F4E12FF0E0E25DFF4CD6
:101B5600A081E6DF1F5FEFCF0E943E21E0E0EA931F
:101B6600AEE1B0E00E94E81AAAE0DADFADE0D8DF25
:101B7600EAC0BA93AA93A881B981EC91E07FEC936D
:101B86001996ECE0EC93229608951A930A931FB7E0
:101B9600F894E0910008E07FE560E0930008E091AA
:101BA6000108E870E0930108E0910308E071E09312
:101BB6000308E0910608E07FE160E0930608E09103
:101BC6000708E070E0930708E0919900EE7F0E2F7A
:101BD600E8EDE4BF00939900E0918008E07CE09393
:101BE6008008E0918308E87EE0938308E0E0E093D4
:101BF6008208A4E8B8E00A2EAC91E0918408E4706B
:101C0600EA2BA02DEC93E0910C08E0930C08E0E0A1
:101C1600F0E0E0932008F0932108E1E1FAE7E09391
:101C26002608F0932708E0E0F0E0E0932808F09318
:101C36002908E0932A08F0932B08E0932C08F093E8
:101C46002D08E0932E08F0932F081FBF09911991D4
:101C560008951A931FB7F894A0E4B8E08ADFE5E088
:101C6600E0934008E0E0E0934108E0934308E09306
:101C76004408E0914608E07FE160E0934608E0E032
:101C8600E0934708E0919008ED7FE0939008E0919B
:101C96004C08E0934C08E0E0F0E0E0936008F09335
:101CA6006108E7EAF1E6E0936608F0936708E0E08A
:101CB600F0E0E0936808F0936908E0936A08F0930F
:101CC6006B0840C01A931FB7F894E0910009E07FB3
:101CD600E160E0930009E0910109E870E0930109F1
:101CE600E0910309E071E0930309E0910609E07FC2
:101CF600E160E0930609E0910709E070E0930709C7
:101D0600E0910C09E0930C09E0E0F0E0E093200993
:101D1600F0932109EFE3F6EAE0932609F093270909
:101D2600E0E0F0E0E0932809F0932909E0932A091E
:101D3600F0932B09E0932C09F0932D09E0932E09DB
:101D4600F0932F091FBF19910895E3E5E093C008AA
:101D5600E091C108EC7FE093C1080895AA93E88159
:101D6600E093C308E091C208E078E1F3E091C3088C
:101D760021960895E0EAF4E0FA93EA93E0E0EA9324
:101D8600A0E00E94E41B0E944321E0EAF4E0FA93FB
:101D9600EA93E0E4EA93ABE90E94F91BE0E0E09302
:101DA600A80408950A921A92FA926A937A938A93E9
:101DB6009A93AA93BA93EA93FA93EFB7EA93A6E9AA
:101DC600B0E30E94241CE991EFBFF991E991B99122
:101DD600A9919991899179916991F99019900990B0
:101DE6001895E6EFE0931F31E7EFE0932031E4EF3B
:101DF600E0931D31EEE2E0931E31E6EFE0932531EC
:101E0600E7EFE0932631E8EFE0932731E4EFE09344
:101E16002331E091BC30E295E07FEE0FEE0FEC5CF3
:101E2600E0932431EAEAE093F130EBEAE093F23012
:101E3600ECEAE093F330EDEAE093F430EEEAE09377
:101E4600F530EFEAE093F630E0EBE093F730E1EBC4
:101E5600E093F830E2EBE093F930E3EBE093FA300D
:101E6600E4EBE093FB30E5EBE093FC30E6EBE0934C
:101E7600FD30E7EBE093FE30E8EBE093FF30E9EB73
:101E8600E0930031EAEBE0930131EBEBE0930231B2
:101E9600ECEBE0930331EDEBE0930431EEEBE093F2
:101EA6000531EFEBE093063108959BDF0E94432155
:101EB600E7E7EA93E1EFF0E30E944821E7E0F1E388
:101EC6000E944D21E7E7EA93E3EFF0E30E94482101
:101ED600E9E0F1E30E944D21E7E7EA93E5EFF0E35D
:101EE6000E944821EBE0F1E30E944D21E7E7EA93E7
:101EF600E7EFF0E30E944821EDE0F1E30E944D2177
:101F0600E7E7EA93E9EFF0E30E944821EFE0F1E327
:101F16000E944D21E7E7EA93EBEFF0E30E944821A8
:101F2600E1E1F1E30E944D21E7E7EA93EDEFF0E30B
:101F36000E944821E3E1F1E30E944D21E7E7EA939D
:101F4600EFEFF0E30E944821E5E1F1E30E944D2125
:101F5600E7E7EA93E1E0F1E30E944821E7E1F1E3F4
:101F66000E944D21E7E7EA93E3E0F1E30E9448216E
:101F7600E9E1F1E30E944D21E7E7EA93E5E0F1E3C9
:101F86000E944821EBE1F1E3FA93EA93A2E00E9472
:101F9600AC1CB0910731A0E0E0910831F0E0EA0F07
:101FA600FB1FE093A230F093A330F0910931E0E0FB
:101FB600DF01E0910A31F0E0EA0FFB1FE093A43065
:101FC600F093A530F0910B31E0E0DF01E0910C31A8
:101FD600F0E0EA0FFB1FE093A630F093A730F091F4
:101FE6000D31E0E0DF01E0910E31F0E0EA0FFB1F7A
:101FF600E093A830F093A930F0910F31E0E0DF01D3
:10200600E0911031F0E0EA0FFB1FE093AA30F09365
:10201600AB30F0911131E0E0DF01E0911231F0E0F8
:10202600EA0FFB1FE093AC30F093AD30F091133123
:10203600E0E0DF01E0911431F0E0EA0FFB1FE093EE
:10204600AE30F093AF30F0911531E0E0DF01E09172
:102056001631F0E0EA0FFB1FE093B030F093B13099
:10206600F0911731E0E0DF01E0911831F0E0EA0F7E
:10207600FB1FE093B230F093B330F0911931E0E0FA
:10208600DF01E0911A31F0E0EA0FFB1FE093B43074
:10209600F093B530F0911B31E0E0DF01E0911C31A7
:1020A600F0E0EA0FFB1FE093B630F093B7300895E7
:1020B6000E944321E7E7EA93EDE1F1E30E9448211C
:1020C6000E945321E0918806E470E1F30E944321C7
:1020D600E7E7EA93EFE1F1E30E944821E1E2F1E369
:1020E6000E944D21E7E7EA93E3E2F1E30E944821EB
:1020F6000E945321E0918806E470E1F30E94432197
:10210600E7E7EA93E5E2F1E30E945A21E8E2F1E328
:102116000E945F21E7E7EA93E6E2F1E30E945A2193
:10212600E9E2F1E30E945F21E7E7EA93E7E2F1E300
:102136000E945A21EAE2F1E3FA93EA93A1E00E94AF
:10214600AC1CB0912131A0E0E0912231F0E0EA0F21
:10215600FB1F0E948425E093B830F093B93060935A
:10216600BA307093BB30E0912831FF276627772776
:102176000E9465210E946E21E8E00E943D250E9492
:102186006521E0912931F0E00E946E210E94FE2037
:102196000E9465210E946E21E8E00E943D250E9472
:1021A6006521E0912A31F0E00E946E210E94FE2016
:1021B6000E946521A091BC30E8E0EA1B0E946E21D6
:1021C6000E9449250E946521E091AC30F091AD3026
:1021D600A091B830B091B9308091BA309091BB30AF
:1021E600662777270E942725E091AA30F091AB3029
:1021F600662777270E947721EFE00E947C21A09135
:10220600B430B091B5300E948925EBE00E943D259F
:102216007F936F93FF93EF93E091B630F091B730D1
:102226000E9487210E94FE20AF91BF918F919F91BE
:102236000E9403260E949021E093C930F093CA3091
:102246006093CB307093CC300E949C21E85FFF4FA7
:102256006F4F7F4FDF01CB01E4E00E944925E093F9
:10226600CD30F093CE306093CF307093D0300E9453
:10227600D723DF01CB010E94A5210E94AF24E09362
:10228600E930F093EA306093EB307093EC300E94C3
:102296009C21E05AFF4060407040E093D130F093BB
:1022A600D2306093D3307093D4300E94AA210E941A
:1022B600B3210E94B325A091B030B091B1300E94F5
:1022C600BC21ECE00E944925DF01CB01EBE00E9436
:1022D6007C210E94AA21A091A430B091A5300E9431
:1022E600BC21EBE00E9449250E9490210E94BF215B
:1022F600A091A230B091A3300E948925E4E0F0E0DD
:1023060060E070E00E94B325A091D530B091D63040
:102316008091D7309091D8300E941D25E091BC3035
:102326000E943D250E94C821E093D930F093DA300F
:102336006093DB307093DC300E94AA21A091A63016
:10234600B091A7300E94BC21EDE00E947C210E9442
:10235600AA210E94B3210E947721ECE00E94492520
:10236600A091AE30B091AF300E9489250E94D12154
:102376000E9490210E94C8210E94BF21E091D53081
:10238600F091D6306091D7307091D830E050F04857
:102396006F4F7F4FA091A830B091A9308827992719
:1023A6000E949325DF01CB01EFE00E945525E093C3
:1023B600E130F093E2306093E3307093E430A09123
:1023C600D930B091DA308091DB309091DC30E091F9
:1023D600BD30F091BE306091BF307091C0300E9428
:1023E60022257F936F93FF93EF93E091BC30A0E596
:1023F600B3EC0E943425AF91BF918F919F916627D0
:1024060077270E949325E093E530F093E6306093BA
:10241600E7307093E8300E94D621A030E0E0BE0796
:10242600E0E08E07E0E89E0788F4E091E530F09161
:10243600E6306091E7307091E8300E946D25DF014B
:10244600CB010E94DF210E94DE2508C00E94DF2109
:102456000E94D6210E94DE250E946D25E093DD3084
:10246600F093DE306093DF307093E0300E94E82115
:102476007F936F93FF93EF930E94E821AF91BF91F3
:102486008F919F910E94B3250E94F421E091C13063
:10249600F091C2306091C3307091C430AEEDBBE0B4
:1024A60080E090E00E94D1210E94F4210E94FD214B
:1024B600A3E4B3EE8FEF9FEF0E94D1210E949021FB
:1024C600E153F14F6F4F7F4FDF01CB01E4E00E94F4
:1024D60049250E9406220E941825E093DD30F093DC
:1024E600DE306093DF307093E0300E94FD210E9461
:1024F600D723DF01CB01EFE6F2E565E073E40E9446
:10250600AF24E093ED30F093EE306093EF307093AC
:10251600F0300895E2E0E0933131E0E0E0933231CB
:102526000E944321E8E1EA93E1E3F1E30E944821B6
:102536000E945321E3E0E0932F31E2E3E093303150
:102546000E944321E8E1EA93EFE2F1E38AC0E0E08A
:10255600E0932B310E944321E8E1EA93EBE2F1E3B9
:102566000E945A21ECE2F1E3FA93EA93A1E082C0D9
:10257600E1E0E0932D310E944321E8E1EA93EDE2A8
:10258600F1E36FC0E2E0E0933931E0E0E0933A3105
:102596000E944321E9E1EA93E9E3F1E30E9448213D
:1025A6000E945321E3E0E0933731E8E9E0933831C4
:1025B6000E944321E9E1EA93E7E3F1E352C0E0E058
:1025C600E09333310E944321E9E1EA93E3E3F1E347
:1025D6000E945A21E4E3F1E3FA93EA93A1E04AC0A8
:1025E600E1E0E09335310E944321E9E1EA93E5E336
:1025F600F1E337C0E2E0E0934131E0E0E0934231BD
:102606000E944321EAE1EA93E1E4F1E30E944821D2
:102616000E945321E3E0E0933F31E0E4E093403150
:102626000E944321EAE1EA93EFE3F1E31AC0E0E016
:10263600E0933B310E944321EAE1EA93EBE3F1E3C5
:102646000E945A21ECE3F1E3FA93EA93A1E012C067
:10265600E1E0E0933D310E944321EAE1EA93EDE3B4
:10266600F1E3FA93EA93E2E0EA93E0E0F0E0FA932A
:10267600EA93A0E00E94AC1C0895AA93E0E1E093DF
:102686004606AB816BDBAA8169DBA98167DBA88182
:1026960065DBE0914806ED6FEF3FD9F3E0E1E093AB
:1026A600450624960895AA930E94F826E0914331A0
:1026B600AC81EA1729F0A13011F0A23009F401C06B
:1026C60010C0AC81A13011F40E940F22AC81A2305F
:1026D60041F4E1E2EA93ECE0EA93E1E1EA93A0E473
:1026E600CCDFEC81E0934331E0914806ED6FEF3F9C
:1026F600D9F3E0E1E09346068BE68A95F1F7A8E385
:102706002DDBAFEF2BDB0E2F1127AFEF27DB2E2FA5
:102716003327E0E1E0934506F02FE0E0E22BF32BD0
:10272600E4C01A930A930FB7F894E0915000E26060
:10273600E0935000E0914100E0781E2FE8EDE4BF01
:1027460010934100E0916000EE7FE0936000E0911D
:102756005100E270E1F3E0914000E87FE1601E2F56
:10276600E8EDE4BF10934000E0915000E27EE09374
:102776005000E091B400EC7FE093B4000FBF0991E4
:1027860019910895AA931A93E2E0E093CA01E981A8
:10279600F0E01491E0E0E093CA01E12F188122965F
:1027A6000895A0E2EFDFE0930C02A1E2EBDFE093F5
:1027B6000D02E0E0E0930102E3E0E0930402E1E1D0
:1027C600E0930202E0E0E0931802E0931902E1E0F0
:1027D600E0932002E0E2E0932102E1E0E0932802A8
:1027E600E8E2E0932902E1E0E0933002E0E3E093DF
:1027F6003102E1E0E0933802E8E3E0933902E0E0F9
:10280600E0930302E0932202E0932A02E09332026D
:10281600E0933A02E0910002E160E09300024CC0CE
:10282600AA930E94F826EC81F0E0A0E2B2E00E94B2
:102836001822F801A381A170E1F34FC0A4E2A2DF40
:10284600E0934C02A5E29EDFE0934D02E0E0E093C8
:102856004102E3E0E0934402E0E1E0934202E0E07B
:10286600E0935802E0935902E1E0E0936002E0E071
:10287600E0936102E1E0E0936802E8E0E093690238
:10288600E1E0E0937002E0E1E0937102E1E0E093C1
:102896007802E8E1E0937902E0E0E0934302E09316
:1028A6006202E0936A02E0937202E0937A02E09198
:1028B6004002E160E093400285E18A95F1F70895D0
:1028C600AA930E94F826EC81F0E0A0E6B2E00E940E
:1028D6001822F801A381A170E1F3D8011396E1E073
:1028E600EC93F80124813581F9010E94FF26259693
:1028F60008950E946420E0918130E03021F0A0919B
:102906008230AF3F09F006C00E94E101A1E0B0E0CD
:102916000E946123BCC00E9464200E942222A1E082
:10292600C2DEE0934431F0934531E0914431F091B9
:102936004531E050F048E0934431F0934531E09161
:102946004431E0935330E0914431F09145310E9497
:102956007225E09354300E9428227724E4E07E1604
:1029660050F40E942E220E9435220E943C220E9490
:1029760035227394F3CF6624EAE06E16A0F5772429
:10298600E4E07E1670F50E942E22EA0FFB1FFF93ED
:10299600EF930E942E220E944322FF93EF93A72DCE
:1029A6003FDFAF91BF91EA0FFB1FAF91BF91ED9350
:1029B600FC930E943C22EA0FFB1FFF93EF930E94B9
:1029C6003C220E944322FF93EF93A72D79DFAF911C
:1029D600BF91EA0FFB1FAF91BF91ED93FC937394E8
:1029E600CFCF6394C9CF7724E4E07E16C0F40E946B
:1029F6002E22EA0FFB1FBF010E942E220E944322B5
:102A06000E9448220E943C22EA0FFB1FBF010E943F
:102A16003C220E9443220E9448227394E5CFE09113
:102A26001E30E0934D30E0911F30E0934E30E09140
:102A36002030E0935130E0912130E0935230E09124
:102A46002230E0934F30E0912330E0935030E09114
:102A56002430E0935930E0912530E0935A30E091EC
:102A66002630E0935D30E0912730E0935E30E091D0
:102A76002830E0935F30E0912930E0936030E091B8
:102A86002A30E0935530E0912B30E0935630E991AF
:102A9600EFBFF991E991B991A991999189917991AC
:102AA6006991F9901990099018951895F894E09104
:102AB600A200E873E7601E2FE8EDE4BF1093A200C2
:102AC600E0E0E093A1002DDE0E941605E091840669
:102AD600E061E093840665DEB1DE0E9491080E9403
:102AE6007B0D33D947D9A4E6B0E00E9461237894E0
:102AF6000E94D3040E943E21E6E7F2E00E945322A0
:102B06000E943E21E3E8F2E00E94532203DD3ADD13
:102B160071DD0E943E21EDE8F2E00E945322C5D904
:102B26000E943E21EEE9F2E00E9453220E943E21DD
:102B3600EFEAF2E0FA93EA9380E013D524960E9436
:102B46009C0D0E945F22E0930106E1E0E0930506FA
:102B56000E945F22E09306060E945F22E09305062C
:102B6600A2E3B0E00E9461230E940F220E943E2150
:102B7600E9EBF2E00E9453220E94650E0E94C80D06
:102B86000E942C0EE0918406EF7EE09384060E945C
:102B96003E21E9ECF2E00E9453220E940B020E94C1
:102BA60002060E945C1D29F4A1E0B0E0E0E00E946C
:102BB600B226A1E0B0E00E949926EE3108F0BAC133
:102BC600A1E0B0E00E949926EF5F0E94B2260E9423
:102BD6002222BDDCF4DC2BDD0E942822E091343178
:102BE600E078E03821F4E0916130E26007C0E091DE
:102BF6003431E07829F4E0916130ED7FE093613083
:102C0600E0912C31E071E03121F4E0916130E46033
:102C160007C0E0912C31E07129F4E0916130EB7F3F
:102C2600E0936130E0912C31E072E03221F4E091E2
:102C36006130E86007C0E0912C31E07229F4E09140
:102C46006130E77FE0936130E0912C31E270E23051
:102C560021F4E0916130E06107C0E0912C31E2702F
:102C660029F4E0916130EF7EE0936130E0913431F8
:102C7600E870E83021F4E0916130E06207C0E0914D
:102C86003431E87029F4E0916130EF7DE0936130F2
:102C9600E0913431E071E03121F4E0916130E0649B
:102CA60007C0E0913431E07129F4E0916130EF7BA7
:102CB600E0936130E0913C31E074E03421F4E0913E
:102CC6006130E06807C0E0913C31E07429F4E0919E
:102CD6006130EF77E0936130E92DE270E23021F464
:102CE600E0913E31E26005C091FC05C0E0913E31C5
:102CF600ED7FE0933E31E92DE470E43021F4E0917C
:102D06003E31E46005C092FC05C0E0913E31EB7FA8
:102D1600E0933E31E92DE870E83021F40E94652207
:102D2600E06405C093FC05C00E946522E068E0935C
:102D36002E31E92DE071E03121F4E0913E31E86079
:102D460005C094FC05C0E0913E31E77FE0933E313B
:102D5600E92DE072E03221F4E0913E31E06105C0F8
:102D660095FC05C0E0913E31EF7EE0933E31E92DC2
:102D7600E074E03421F4E0912E31EE7F05C096FC3C
:102D860005C0E0912E31E160E0932E31E92DE07827
:102D9600E03821F4E0913631EE7F05C097FC05C09E
:102DA600E0913631E160E0933631E2DB19DC50DC4C
:102DB600A0918C30A13021F0A0918B30A130B9F4D4
:102DC6000E946D220E945B1F0E947526A3E8B0E355
:102DD6000E946A070E94601FACE7B0E00E94A2262C
:102DE6000E944006E0E0E0938B30E0938C300E9436
:102DF6003E21E5EDF2E0FA93EA930E94601F0E94FD
:102E06007B220E943E21E9EDF2E0FA93EA930E94CA
:102E16006D2288E0A6D32C960E949C0D0E943E212E
:102E2600E1EEF2E0FA93EA93E09191300E94832278
:102E3600E09192300E948322E09193300E94832297
:102E4600E09194300E94832280E18BD364960E94A5
:102E56009C0D0E943E21E5EDF2E0FA93EA93ACE781
:102E6600B0E00E948C260E947B220E9428220E94AB
:102E76005B100E942222E091E930F091EA306091E5
:102E8600EB307091EC300E94DC267CF4A091E930A6
:102E9600B091EA308091EB309091EC30E0E0F0E0D8
:102EA60060E772E40E94F42408F020C0E091ED305F
:102EB600F091EE306091EF307091F030A0E0B0E02C
:102EC60086E993E40E94F42478F4A091ED30B09161
:102ED600EE308091EF309091F030E0E0F0E46EE477
:102EE60074E40E94F42408F001C001C01EC0E09101
:102EF600CD30E0935730A091CD30B091CE30809157
:102F0600CF309091D030E8E00E944925E0935830C8
:102F16000E948922E0935B300E948922DF01CB0167
:102F2600E8E00E944925E0935C30A4E6B0E00E9408
:102F360061234DCEFFCFBA93AA931A930A93AA811F
:102F4600BB8112960E945726309729F1AA81BB8130
:102F560014960E9457268F01309761F00230E0E008
:102F66001E0780F0F80131978F01AA81BB81149664
:102F7600ED93FC93AA81BB8112960E949122319710
:102F8600AC81A083AA81BB810E945726FF2312F041
:102F96000E94912206C0AA81BB81EFEFFFEFED935D
:102FA600FC93198108810C94F71B0E949722E0E894
:102FB600EA83EFE3EB830E94F826EE85FF85EF3F79
:102FC600AFEFFA0749F4E885F985FA93EA93AEEE8E
:102FD600B2E00E94F81AAFC0EF3FAFE7FA0749F434
:102FE600E885F985FA93EA93AFEEB2E00E94F81A03
:102FF600A2C0AB85A73010F0E6E0EB871B85E12F7A
:103006001150E03019F00E949E22F9CF0E944E2006
:103016000E94E22621F430E00E949E2227C03B85D2
:103026000E94A62209F008F409C00E949E220E946E
:10303600A62218F00E94AB22FACF0DC00E94A6224B
:1030460040F40E9418200E94B5220E94F11F3150C0
:10305600F5CF0E949E220E944E200E94B9220E9415
:10306600F11F0E94A62210F00E94AB2210E0EB8511
:10307600E117A8F1AC81BD818E819F810E94C0229B
:103086000E94B922DF01CB010E94461D0E94052045
:103096000E941D200E9418200E94AF240E949E2399
:1030A6000E2F0E94C7220E94CE22FF27662777276F
:1030B6000E94D723AC81BD818E819F810E946124AD
:1030C6000E9418200E94D3220E94F11FE12F1F5F49
:1030D600E03069F60E94C722EEE2EC93C8CF0E9468
:1030E600D8223197AA85A08330302CF43195A88553
:1030F600B985EDE203C0A885B985EBE2EC930E94A1
:10310600D8220E94D8223197BF01A32FEAE00E945D
:10311600C625E05DDB01EC930E94D8223197BF0102
:10312600A32FEAE00E940826E05DDB01EC93A88568
:10313600B985E0E0EC930E94FF2660960895BA9365
:10314600AA93EF9761970E94F62610E0FE01E85ACF
:10315600FF4F0190F081E02DE887F987FE01EA5ADA
:10316600FF4F0190F081E02DEE83FF83AE81BF819A
:10317600E0E0F0E0ED93FC93DE01A45ABF4F0E941D
:1031860091223197E4912E2FE03009F4E1C1E12F2D
:10319600E03039F4253211F411E002C00E94DE223B
:1031A600D6C1E130C1F4253219F40E94DE22CEC127
:1031B60012E0E0E0ED8B00E02D3211F401E0C7C132
:1031C6002B3219F4EBE2ED8BC2C1203219F4E0E2A6
:1031D600ED8BBDC102C0E23039F450E013E020337C
:1031E60011F40068B4C102C0E33091F4203310F04A
:1031F6002A3308F007C0AAE05A9F502DE22FE05369
:103206005E0FA5C140E02E3211F414E0A0C10FC03C
:10321600E43099F4203310F02A3308F008C0006235
:10322600AAE04A9F402DE22FE0534E0F90C12C3664
:1032360019F4026015E08BC103C0E53009F087C1BF
:10324600E22FE33659F40E94E5220E94EC220E9406
:10325600E522A481AA930E94F32278C1E53411F0F5
:10326600E53609F403C0E63609F048C0FE01769655
:10327600EE87FF870E94F9220E945B260E940023A8
:103286000E940523AD85AA2332F0AD89AB3259F0F1
:10329600A03281F017C00E9407230E946B230E9470
:1032A6000023EDE2ED8B07FF05C0ED89EA930E944E
:1032B600F32208C0EE85FF853196EE87FF873197AA
:1032C600AD89A08305FF46E0263651F40E94072308
:1032D6000E9475264A93AB89BC890E941E1B09C0B1
:1032E6000E9407230E9475264A932A93AC89BD89BA
:1032F6005CDEFE0176960E940C231EC0E33739F48D
:103306000E9405230E9414230E940C230EC0E0375E
:10331600C1F40E9405230E941423EE87FF87AE8521
:10332600BF850E94111B1E2F08600F77403011F0D9
:10333600411708F001C0142F40E0E0E0EC8B30E0CC
:103346006BC0E43611F0E93611F4046002C0E537CB
:1033560091F4EAE0EC8B01FF08C0E0E0FAEC6AE9E0
:103366007BE30E94E61F1AE020C00E9422210E94F1
:10337600E61F15E01AC0E83511F4086003C0E83707
:1033860009F0E4C0E0E1EC8B01FF08C0E0E0F0E00A
:1033960060E070E10E94E61F18E007C0E0E0F0E19F
:1033A60060E070E00E94E61F14E0403011F00F77F5
:1033B60001C041E001FF08C00E9405230E94F922D6
:1033C60014960E945B260FC002FF07C00E940523C9
:1033D6000E9414230E94842506C00E9405230E9491
:1033E600142366277727EA87FB876C877D8702FF8A
:1033F60012C0AD85AA2342F40E9407230E942C2501
:103406000E940023EDE2ED8BED89E03019F01F5F9D
:103416004F5F01C00B7F342F00FD14C0151710F449
:10342600351708F00FC007FF08C002FF04C00B7F66
:103436002D89115001C020E301C020E20E94DE2246
:103446005150ECCF141790F4006102FF06C00E94A1
:10345600192309F0515011504150E0E3EA930E94BC
:10346600F322503009F051504150ECCF312FEC8906
:10347600E030B9F43030A1F003FF06C0EE85FF85D9
:103486002591EE87FF8705C0AE85BF852D91AE8756
:10349600BF870E94DE22503009F051503150EACFEA
:1034A6004BC00E942B230E94DE252E2F2A3030F09F
:1034B60003FF02C0295C01C0295A01C0205D04FD3A
:1034C6001FC0213350F40E945F20A130E0E0BE0708
:1034D600E0E08E07E0E09E0709F40BC0431740F4D6
:1034E600531710F000FF01C010C020E207FF08C00C
:1034F60020E3006102FF04C00E94192309F0515025
:103506000E94DE22503009F0515031500E942B2388
:103516000E9414260E940023EC890E945F20FF2748
:10352600662777270E94DE250E94E61F0E94E11F7C
:103536000E94E22609F0B5CF00FF08C0503031F0F6
:103546005150E0E2EA930E94F322F8CF10E014CE45
:10355600AE81BF810E9457260E94FD26EF966F9688
:103566000895FF92F82E26970E94F8260E9431238E
:10357600309719F4EFEFFFEF23C0DE0116960E9495
:1035860014258D010E943123EE83FF83E0E0E88756
:10359600E987DE011A960E9414250E945726FA939F
:1035A600EA931A930A93EEE9F7E1FA93EA93DE01B6
:1035B6001A96C5DD9F01AE81BF81E0E0EC93F9016B
:1035C6000E94FF262A96FF900895BA93AA93B9817E
:1035D600A881109631F0FC81EB816A816193119785
:1035E600E9F7EB81FC810C94F71BBA93AA93E99156
:1035F600F991A991B991CD0105900D920020E1F7BD
:10360600FC010895BA93AA93A991B991EE27FF27D1
:103616006D91662311F03196FBCF0895BA93AA9364
:10362600AA27BB27E991F9910590002011F0119680
:10363600FBCFFD0108950E949722E0E0EA83EFE3C5
:10364600EB831A930A93EB85FC85EF3FAFEFFA07FE
:1036560039F40E943823A6EFB2E00E94F81AADC0F2
:10366600EF3FAFE7FA0739F40E943823A7EFB2E03D
:103676000E94F81AA2C0AC85AA2362F4E985FA85ED
:103686006B857C850E946B230E943D230E9442230A
:10369600EDE2EC93A885A73010F0E6E0E887188500
:1036A600E12F1150E03039F00E9449230E94C022D8
:1036B6000E944E23F5CF0E9453230E9411240E949C
:1036C6003D2310E0E0E0F0E060E87FE30E944E2357
:1036D6000E9453230E94F42488F00E9449230E94EA
:1036E600B5220E944E231F5F173238F00E943823FE
:1036F600ABEFB2E00E94F81A60C0EACF103029F4AE
:103706000E944223E0E3EC932BC0E12F1150E030FE
:1037160039F10E9449230E94C0220E94B922DF018A
:10372600CB010E94461D0E944E230E9453230E94F5
:10373600AF240E949E230E2F0E9442230E94CE2277
:10374600F0E00E9449230E9484250E94D7230E940C
:1037560061240E945C230E94D3220E943D23D5CF80
:10376600E885E03031F10E944223EEE2EC93E885F1
:10377600E150E887EF5FE9F00E945C230E94B522E2
:103786000E943D23E985FA856B857C850E949E23F0
:103796000E2F0E9442230E94CE22F0E00E945C235C
:1037A6000E9484250E94D7230E94D3220E943D2393
:1037B600DECFAE81BF81E0E0EC93198108812D96C2
:1037C6000895AA931A93AB81BC81EC91EC7F1E2FCE
:1037D600EA81E03009F01160E981E03009F0126019
:1037E600AB81BC811C93188125960895AA93E98123
:1037F600E863AA81BB811196EC93EA81FB8132963C
:10380600A0E0A083E881AA81BB811596EC93EA81AA
:10381600FB813496A1E0A083EA81FB81AC81BD8166
:10382600ED93FC93AC81BD811596E0E0EC93AC8101
:10383600BD811996EC93AC81BD811B96EC932696BF
:103846000895BA93AA9322970E94F626A885B98569
:103856000D911C91F80134813396AF0133FF02C0FC
:1038660023E003C032FF04C024E0F801348309C01A
:10387600F8013796EE83FF8336FF32C034FF05C06A
:1038860025E0DA01E3E0EC935BC0E885F985268163
:10389600E5812E1798F4E885F985A381B481E22F96
:1038A6002F5FF0E0AE0FBF1FEC91AE81BF81EC93AE
:1038B600E22FA885B9851696EC9347C0E885F98569
:1038C600A285E185AE1748F4E885F985A281E1E095
:1038D600EA2BD8011696EC9338C0DA01E3E02CC047
:1038E60037FF2DC0E885F9852285E1852E1728F05A
:1038F600DA01E3E0EC9322E023C0E885F985A781AD
:10390600B085E22F2F5FF0E0EA0FFB1F0F01AE81BB
:10391600BF81EC91D001EC93E22FA885B9851A9668
:10392600EC93E885F985E1852E1720F4DA01E2E0CB
:10393600EC930BC0DA01E7E0EC9321E001C026E04E
:10394600E22FA885B9851B96EC930E94FD262A9640
:103956000895AA931A930A93E985FA85A385A07810
:1039660009F05BC0A985BA851B96E0E8EC93E8856B
:10397600EE0FE887A985BA851296EC93EE81FF8152
:10398600A985BA851396ED93FC93ED81A985BA8531
:103996001596EC93A985BA851696E0E0EC93EB8133
:1039A600FC81A985BA851796ED93FC93EA81A985D2
:1039B600BA851996EC93A985BA851A96E0E0EC9338
:1039C600A985BA850E94572636968F01ED81E0308B
:1039D60079F0EE81FF81309701F1EA81E03021F044
:1039E600AB81BC81109709F001C017C0E88509C0FA
:1039F600EA81E03041F0EB81FC81309771F0E88597
:103A0600E160D801EC93E985FA85A385A078D9F71A
:103A1600A385E1E00E948E2501C0E0E019810881BE
:103A26002B9608950E947A267B816A81F981E88126
:103A360077FB770F67FD7160972F9E5781F078F0BF
:103A4600983190F4AA27BB27882708948795B795BD
:103A5600A7959A95D1F7EA23FB23682305C0E89436
:103A66007727EE27FF2766276F77769508F4606835
:103A760077F9A991B99189919991EA17FB07680796
:103A8600790797FB08950E947A260E946B260E946A
:103A9600151D57D219F40E94662609C0E6F70E9442
:103AA6006626A0E0B0E080E89FE30E940A24249600
:103AB6000895A1E0B0E00E949926EF3F0895E0E066
:103AC6000E94B226E6E0BE2EE1E08E2EEB2DF0E05F
:103AD60031970895EE5FFF4FDF01E0E00E94B226C6
:103AE6000895EB2DF0E03197A82DB0E0AE17BF0793
:103AF6000895EB2DF0E03197EE5FFF4FBF01DF0138
:103B06000E9499260E2EA82DB0E0AE5FBF4F0E94F0
:103B16009926E00DDB010E94B2260895E2E1BE2E51
:103B2600E1E08E2EEB2DF0E03197E85FFF4FDF01ED
:103B3600E0E00E94B2260895EB2DF0E03197E85FB1
:103B4600FF4FBF01DF010E9499260E2EA82DB0E07F
:103B5600A85FBF4F0E949926E00DDB010E94B226A6
:103B660008950E94B226E4E0BE2EE1E08E2EEB2DF3
:103B7600F0E031970895E65EFF4FDF01E0E00E9436
:103B8600B2260895EB2DF0E03197E65EFF4FBF01B8
:103B9600DF010E9499260E2EA82DB0E0A65EBF4F2B
:103BA6000E949926E00DDB010E94B2260895EA5A8A
:103BB600FF4FDF01E0E00E94B2260895EB2DF0E012
:103BC6003197EA5AFF4FBF01DF010E9499260E2E58
:103BD600A82DB0E0AA5ABF4F0E949926E00DDB013E
:103BE6000E94B2260895E75CFF4FDF01E0E00E94E5
:103BF600B2260895EB2DF0E03197E75CFF4FBF0149
:103C0600DF010E9499260E2EA82DB0E0A75CBF4FBB
:103C16000E949926E00DDB010E94B2260895EA581B
:103C2600FF4FDF01E0E00E94B2260895EB2DF0E0A1
:103C36003197EA58FF4FBF01DF010E9499260E2EE9
:103C4600A82DB0E0AA58BF4F0E949926E00DDB01CF
:103C56000E94B2260895EBE1BE2EE1E08E2EEB2DFA
:103C6600F0E03197E25EFF4FDF01E0E00E94B2260E
:103C76000895EB2DF0E03197E25EFF4FBF01DF01C3
:103C86000E9499260E2EA82DB0E0A25EBF4F0E947C
:103C96009926E00DDB010E94B2260895E3E0BE2ED0
:103CA600E1E08E2EEB2DF0E03197E15CFF4FDF0176
:103CB600E0E00E94B2260895EB2DF0E03197E15C3A
:103CC600FF4FBF01DF010E9499260E2EA82DB0E0FE
:103CD600A15CBF4F0E949926E00DDB010E94B2262F
:103CE6000895EE5BFF4FDF01E0E00E94B2260895E3
:103CF600EB2DF0E03197EE5BFF4FBF01DF010E9435
:103D060099260E2EA82DB0E0AE5BBF4F0E949926D5
:103D1600E00DDB010E94B2260895ECE0BE2EE1E044
:103D26008E2EEB2DF0E03197E65BFF4FDF01E0E0F2
:103D36000E94B2260895EB2DF0E03197E65BFF4F27
:103D4600BF01DF010E9499260E2EA82DB0E0A65BCA
:103D5600BF4F0E949926E00DDB010E94B22608950E
:103D6600EAE0BE2EE1E08E2EEB2DF0E03197E65A2A
:103D7600FF4FDF01E0E00E94B2260895EB2DF0E050
:103D86003197E65AFF4FBF01DF010E9499260E2E9A
:103D9600A82DB0E0A65ABF4F0E949926E00DDB0180
:103DA6000E94B2260895E6E0BE2EE1E08E2EEB2DAF
:103DB600F0E031970895E659FF4FDF01E0E00E94F9
:103DC600B2260895EB2DF0E03197E659FF4FBF017B
:103DD600DF010E9499260E2EA82DB0E0A659BF4FEE
:103DE6000E949926E00DDB010E94B2260895E05953
:103DF600FF4FDF01E0E00E94B2260895EB2DF0E0D0
:103E06003197E059FF4FBF01DF010E9499260E2E20
:103E1600A82DB0E0A059BF4F0E949926E00DDB0106
:103E26000E94B2260895EA5BFF4FDF01E0E00E94A0
:103E3600B2260895EB2DF0E03197EA5BFF4FBF0104
:103E4600DF010E9499260E2EA82DB0E0AA5BBF4F77
:103E56000E949926E00DDB010E94B2260895EC59D6
:103E6600FF4FDF01E0E00E94B2260895EB2DF0E05F
:103E76003197EC59FF4FBF01DF010E9499260E2EA4
:103E8600A82DB0E0AC59BF4F0E949926E00DDB018A
:103E96000E94B2260895EFEFFFEF6FEF7FEFE093FA
:103EA6002804F093290460932A0470932B04089540
:103EB600E0E0F0E060E070E00895E0918330F0919A
:103EC600843060918530709186300895A0E1BEE01F
:103ED60080E090E00E94B3250895DE01A45ABF4F0A
:103EE6000D901D908D919C91D0010895EC89FD89CE
:103EF6006E897F890895A3E0B0E080E090E00E949B
:103F06002C260E94E2260895AC89BD898E899F8958
:103F16000895E4E6F0E060E070E00E9418260E9452
:103F2600E2260895F1DFE0E9F1E060E070E00E944A
:103F360018260E94E2260895E1E0F0E060E070E0D5
:103F460008950E94702608950E946B26A359BE4FBD
:103F56008F4F9F4FE8E1F0E060E070E00E94B325EC
:103F6600B5CFEC8BFD8B6E8B7F8B0895FE01E45AEB
:103F7600FF4F0190119061917081F0010E942225FE
:103F8600DE01A45ABF4FED93FD936D937C93089584
:103F9600ADDFB1CFB9DFBDCF0E9466260E94E22613
:103FA60008950E946325AE0FBF1F0E945B26A8E1FD
:103FB600B0E080E090E00E94B32588CFE889F989D7
:103FC6006A897B890895E88BF98B6A8B7B8B0895C8
:103FD60084DFE0E8F1E561E070E00895EC87FD87B5
:103FE6006E877F8708950E941826DE01A45ABF4F68
:103FF600ED93FD936D937C9370CFE0E1FEE060E07E
:1040060070E00895EC83FD836E837F830895A0E1BD
:10401600B7E280E090E00E94B3250895A4E6B0E000
:1040260080E090E00E94B3250895AC85BD858E851D
:104036009F850895EC81FD816E817F810895DE0163
:10404600AA5ABF4F0D901D908D919C91D001E0E131
:10405600F7E260E070E008950E941426DF01CB01CC
:10406600E4E6F0E060E070E00E94DE250895E4E614
:10407600F0E060E070E00E9414260895DE01AE5A7A
:10408600BF4F0D901D908D919C91D001E0E1F7E21C
:1040960060E070E00895EC85FD856E857F85089566
:1040A600E150F040604070400895DE01A45BBF4FD0
:1040B6000D90BC91A02D0895A889B9898A899B89FC
:1040C60008950A921A92FA926A937A938A939A9325
:1040D600AA93BA93EA93FA93EFB7EA930895A3E8FB
:1040E600B0E30E94EB05E9DE0E947526E1DE0E9440
:1040F6007526E7E8F0E3FA93EA93ADE8B0E30C94AB
:104106005E06EFEFE0938230E1E03E2E0895E09305
:104116008230E2E03E2EEFEFE09300300895E09328
:104126008230E4E03E2EEFEFE09300300895E09316
:104136008230E7E03E2EEFEFE09300300895E09303
:104146008230E3E03E2EEFEFE09300300895E093F7
:104156008230EFEFE09300300895EFEFE093003008
:10416600222408950E949926AE2F0C94720DBB242A
:10417600EFEFE09382300895E4E0BE2EE1E08E2E6C
:10418600EB2DF0E031970895AAEC0E94720DAAEC8F
:104196000C94720D0E94720DB4CFE82DF0E0E05041
:1041A600F04DE081AE0E0895A0910030E4E6EA9F5E
:1041B600F001DF01E0910130F0E0EA0FFB1F0E9401
:1041C60084250895E0938730F09388306093893092
:1041D60070938A30A4E6B0E080E090E00E949325D8
:1041E600DF01CB010895E0910230F0E00E948425C2
:1041F6000E94182508950E9484250E941825089576
:10420600E0938D30F0938E3060938F3070939030C2
:104216000895E0918D30F0918E3060918F307091DD
:1042260090300895A0918730B09188308091893080
:1042360090918A30E0E4F2E46FE070E00895E0E106
:10424600F7E260E070E00895A0918730B091883081
:104256008091893090918A300895E82DF0E0EF56EC
:10426600FF4C0895A0918D30B0918E3080918F30A3
:1042760090919030E4CFEEE2F0E3FA93EA9308955A
:10428600E6E9F0E3FA93EA930895FA93EA93E2E013
:10429600EA930895FA93EA93A2E00E94AC1CF0CF49
:1042A600E0E0F0E0FA93EA93A0E00C94AC1CFA93F9
:1042B600EA93E1E0EA930895FA93EA93A1E00E9473
:1042C600AC1CDECFE093BD30F093BE306093BF30C0
:1042D6007093C0300895A091BD30B091BE308091EA
:1042E600BF309091C03008950E94B325DF01CB0105
:1042F60008950E944925E093C130F093C23060933F
:10430600C3307093C4300895A091C130B091C230CB
:104316008091C3309091C4300895E093C530F093F6
:10432600C6306093C7307093C830EEDF0E94182500
:104336000895E091C930F091CA306091CB30709108
:10434600CC300895E0E0F0E060E271E40895E09199
:10435600D130F091D2306091D3307091D43008953D
:10436600A091D130B091D2308091D3309091D43099
:1043760008950E948925B8CFE093D530F093D630C2
:104386006093D7307093D8300895EE5FFF4F6F4F2C
:104396007F4F0E9468250E94682508950E94B325D4
:1043A6000E9477250895A091E530B091E63080917E
:1043B600E7309091E8300895E091E130F091E230F5
:1043C6006091E3307091E4300895A091DD30B091B2
:1043D600DE308091DF309091E030E8E00E944925A0
:1043E6000895E093C130F093C2306093C330709368
:1043F600C4300895E091DD30F091DE306091DF3019
:104406007091E0300895A091DD30B091DE3080915A
:10441600DF309091E0300895E0E2EA93ECE0EA9331
:10442600E0E1EA93A0E40C9440130E946125EA0FB0
:10443600FB1F8F01D801EC91E068EC930895E091A1
:10444600E407ED7FE093E4070895E091E407E26076
:10445600E093E4070895E72DA6E2B0E3F0E0EE0F5F
:10446600FF1F0895AE0FBF1FE0E0F0E0ED93FC9351
:104476000895E72DAEE1B0E3F0E0EE0FFF1F0895DB
:10448600AE0FBF1F0E9457260895DF01EAE0F0E055
:104496000E94CB25E659F040DB01ED93FC9308958D
:1044A600FA93EA9380E00E94B41A24960E949C0D27
:1044B600A8ECB0E00C946123A2E3B0E00E94612373
:1044C600E1E00895E0912E31EF73E0932E31E09113
:1044D6002E310895E0918730F091883060918930CF
:1044E60070918A300E94752694DE0E947526089582
:1044F6000E94752684E00E94B41A28960C949C0D9E
:10450600FF27662777270E94752608957CDFEAE055
:10451600F0E060E070E00E94032608950E945726AE
:104526003196ED93FC930895BA93AA932497E0E00D
:10453600E883E9830895AC81BD818E819F8102DF86
:104546000E9461245FCD76DD70DD0E94F42408951B
:104556006CDDEDECFCEC6CEC7DE30E9461243EDD51
:104566003F5F0895EFDE0E9461240895A0E0B0E069
:1045760080E09FE30E9411240895EDECFCEC6CECC6
:104586007DE30E9461240895A885B9851196A887C0
:10459600B98711970895E02FE05DEC93E02F089519
:1045A6000E947F260E940A240895E885F98531969F
:1045B600E887F98708952A93AF81B885E985FA8552
:1045C60009950895FE01E65AFF4F0190F081E02D0E
:1045D60008953497DE01A65ABF4FED93FC930895D4
:1045E600AF81B885E985FA8509950895DE01A65A51
:1045F600BF4F0D90BC91A02D0895EA87FB876C876D
:104606007D870895DFDFE5CFEA85FB856C857D85AF
:104616000895EE87FF87AE85BF850E94051B1E2F76
:104626000895E4DF14960E94572608950B7FED89BE
:10463600EA93DE01A95ABF4F0D90BC91A02DFE0151
:10464600E75AFF4F0190F081E02D0995503008950B
:10465600B5DCAA85BB858C859D850895DE011C96F3
:104666000E9414250E9457260895EE81FF81FA9331
:10467600EA930895E987FA876B877C870895AE8168
:10468600BF811196AE83BF8311970895AA81BB811E
:104696008C819D810895EA83FB836C837D830895D5
:1046A600EA81FB816C817D81A985BA858B859C8594
:1046B6000895A985BA858B859C850895109639F04D
:1046C60080E49FE10197F1F7A8951197C9F708953E
:1046D60030976040704009F070580895552342F4B1
:1046E600503811F4E0FF04C03196691F791F6BF052
:1046F60050E8572711F45F93CFC05F3F31F0660F44
:10470600000C57956795752F08955F9300200AF062
:10471600CFC0C8C050E8192E1522880F991F9527BB
:10472600550F879550E8072E0522660F771F7527C8
:10473600550F67950895689401C0E8945F93F2DF7A
:10474600703818F07F3F08F4A7C056E1571BAAF44B
:10475600519558300EF4593030F0EFEFFFEF6FEF10
:104766007FE777F91AC077275523B9F0EE0FFF1FB9
:10477600661F771F5A95D1F710C07727583028F053
:10478600EF2FF62F672F5850F9CF552331F0769536
:104796006795F795E7955A95D1F700200AF459D110
:1047A6005F910895689401C0E89430976040704026
:1047B600B1F0002426F0772312F400944AD1172E84
:1047C6007EE1112032F07A95EE0FFF1F661F111C55
:1047D600F9CFEF2FF62F612D5F938ADF5F91089552
:1047E6004F93AF01FD01DA01AB01BC01CA01402DB7
:1047F600012C142E4F910895EA0FFB1F681F089590
:10480600E095F0956095EF5FFF4F6F4F08955F93CA
:1048160081DF903871F150E8152604C05F937ADF86
:10482600903839F1703821F1572F591B2BF112F4BA
:10483600D7DFFACF583118F0AA27BB278827583078
:1048460028F0AB2FB82F88275850F9CF552329F0D9
:104856008695B795A7955A95D9F7502D512572F09B
:10486600CBDF38F46795F795E795739513F420C079
:10487600B7DF3EDF5F910895D8F7FBCFEA1BFB0B4E
:10488600680B51F010F40094BBDF662392F3EE0F31
:10489600FF1F661F7A95CBF7EE27FF276627772738
:1048A6005F910895EFEFFFEF6FE77FEF5F91089558
:1048B600EFEFFFEF6FE77FE75F9108955F932ADFE2
:1048C600703851F3903841F301240894791F23F48A
:1048D6001CF300203AF3ECCF0F921F932F933F93D4
:1048E6004F93112722279927689FA0018F9F302D6C
:1048F600410D591F6B9F300D411D591F8E9F27D0AB
:10490600BF9F25D06A9F23D0BE9F1DD0AF9F1BD0CF
:10491600AE9F110D291F391F491F591FE32FF42F71
:10492600652F522F4F913F912F911F910F90662324
:104936002AF0550FEE1FFF1F661F02C073954BF23C
:10494600CDDE5F910895100D211D391F02C0200D87
:10495600311D491F591F08955F93DCDE703821F41D
:1049660011200AF49FCFA4CF903809F495CF0124E3
:104976000894970B1BF4D4F30020F3CF792F1F93E1
:104986002F933F934F931124112722273327442730
:10499600552790E2AE17BF078607410730F0AE1BDA
:1049A600BF0B860B410B089401C08894551F221F2C
:1049B600331F111CAA1FBB1F881F441F9A9551F74E
:1049C600F901612D4F913F912F911F91662332F08E
:1049D600550FEE1FFF1F661F7A9543F27FDE5F912C
:1049E600089599239AF0772342F0971748F029F40F
:1049F600AE17BF07860720F031F098948894089583
:104A06009894089408951894889408957723C2F783
:104A1600971798F3A9F7EA17FB07680788F399F33E
:104A2600ECCF0024AF0DB01D0895EA0FFB1F681FE1
:104A3600791F0895AE0FBF1F861F971F0895EA1BA3
:104A4600FB0B680B790B0895AE1BBF0B860B970B00
:104A56000895F09560957095E195FF4F6F4F7F4FE4
:104A66000895EE230E2EFD0121F0F695E7950A94A2
:104A7600E1F70895EE230E2EFD01BC0131F0EE0F95
:104A8600FF1F661F771F0A94D1F70895EE230E2E97
:104A9600FD01BC0131F075956795F795E7950A9488
:104AA600D1F70895EE230E2EFD01BC0131F0769567
:104AB6006795F795E7950A94D1F70895EE0FFF1FCE
:104AC600EE0FFF1FEE0FFF1F089575956795F7957B
:104AD600E7950895EE0FFF1F661F771F0895EF2FC6
:104AE600FF27E7FDFFEF0895E62FF72F6627F7FD6F
:104AF6006FEF762F0895FE2FFF0FFF0B6F2F7F2F7F
:104B060008956F2F660F660B762F08958B2F880FEB
:104B1600880B982F0895EA17E1E009F0EE2708952B
:104B26007A9F702D6B9F700DF89F700DE99F700D29
:104B36006A9F602D710DFB9F600D711DE89F600DD2
:104B4600711D8827FA9FF02D610D781FEB9FF00DE0
:104B5600611D781FEA9FE02DF10D681F781F0895EB
:104B660090D0DEDF0EF475DF0895002498E0AA0FDA
:104B7600001C0E1A10F40E0E01C0A1609A95B9F72A
:104B8600EA2FA02D089571D0F0DF0EF4E195089577
:104B96000024112490E1AA0FBB1F001C111C0E1A41
:104BA6001F0A18F40E0E1F1E01C0A1609A9599F7F0
:104BB600FD01D00108953F934F935F930024112484
:104BC6004427552730E2AA0FBB1F881F991F001CD8
:104BD600111C441F551F0E1A1F0A460B570B28F4AB
:104BE6000E0E1F1E461F571F01C0A1603A9559F7AA
:104BF600FD01BC01D001CA015F914F913F9108951B
:104C060040D0D9DF0EF425DF0895E894A7FF02C04F
:104C1600A1956894E7FDE195A8DFEA2F0EF4E195EA
:104C26000895C9DFFD01BC010895E89497FF09C006
:104C3600A095B09580959095AF5FBF4F8F4F9F4FD2
:104C4600689477FD06DFB7DFFD01BC010EF401DFD6
:104C56000895E89477FF02C0FCDE6894EA23FB23FC
:104C6600682379230EF4F5DE0895E894E7FF02C081
:104C7600E1956894A7FF04C0A19500F8039400FA93
:104C86000895E89477FF02C0E4DE689497FF0BC0AE
:104C96000024A095B095809590951196801D901D45
:104CA60000F8039400FA0895ED91FC911197089588
:104CB600ED91FD916D917C9113970895ED93FD9380
:104CC6006D937C930895E881F9816A817B810895CB
:104CD600A881B9818A819B810895E883F9836A83D3
:104CE6007B8308957A936A93FA93EA9308959A9345
:104CF6008A93BA93AA930895182E862F612D192E9A
:104D0600972F712D1B2EBF2FF12D1A2EAE2FE12DB1
:104D16000895A895E091CF01E7FDFBCFB05FED9137
:104D2600FD916D917C91A350B0410895A895E091B5
:104D3600CF01E7FDFBCFB05FEC91B051089507D0EE
:104D460012960F01FB0103D0F0011297089507D0C8
:104D56001196EF93EF2F03D0EF911197089523D07B
:104D6600B05F8C918E1711F4B05108959E2F1BD011
:104D76007F937FB7F8949C93B051A093C001B093F2
:104D8600C10180E08093C20185E38093CA0188ED6A
:104D960091E084BF9093CB0106D080E08093CA0156
:104DA6007FBF7F910895A8958091CF0187FDFBCFA6
:104DB600089500240E160F06060607060895309776
:104DC60060407040089500240A160B06080609067E
:104DD6000895EA17FB07680779070895AE17BF0716
:104DE6008607970708955A934A933A932A931A93F4
:104DF6000A9308955D814C813B812A81198108813E
:104E06000895AC0FBD1F05900D928A95E1F70895A0
:00000001FF
