:0C0000000C9492020C9400000C94000080
:10000C000C9400000C9400000C9400000C94000064
:10001C000C9400000C9400000C9400000C94000054
:10002C000C9400000C9400000C9400000C948E16A0
:10003C000C9400000C9400000C9400000C94000034
:10004C000C9400000C94A4160C9400000C9400006A
:10005C000C9400000C9400000C945A090C940000B1
:10006C000C9400000C9400000C9400000C94000004
:10007C000C9400000C9400000C9400000C940000F4
:10008C000C9400000C9400000C9400000C940000E4
:10009C000C9400000C9400000C9400000C940000D4
:1000AC000C9400000C9400000C9400000C941010A4
:1000BC000C9400000C9400000C9400000C940000B4
:1000CC000C9400000C9400000C9400000C940000A4
:1000DC000C9400000C9400000C9400000C94000094
:1000EC000C9400000C9400000C9400000C94000084
:1000FC000C9400000C9400000C9400000C94000074
:10010C000C9400000C9400000C9400000C94000063
:10011C000C9400000C9400000C9400000C94000053
:10012C000C9400000C9400000C94D6170C94000056
:10013C000C9400000C9400000C9400000C94000033
:10014C000C9400000C9400000C9400000C94000023
:10015C000C9400000C9400000C9400000C94000013
:10016C000C9400000C9400000C9400000C94000003
:10017C000C9400000C9400000C9400000C940000F3
:10018C000C9400000C9400000C9400000C940000E3
:10019C000C9400000C9400000C9400000C940000D3
:1001AC000C9400000C94DF170C9400000C940000CD
:1001BC000C9400000C9400000C9400000C940000B3
:1001CC000C9400000C9400000C9400000C940000A3
:1001DC000C9400000C9400000C940000DE02DF0272
:1001EC00EB02EB02F60203030E031903290333039C
:1001FC003C034E036103720381039203A20320228A
:10020C002A2B2C5B3D5D7C7F00000004000200016A
:10021C0080004000200010000800040002000000D4
:10022C00008000400020001000080040002000105A
:10023C00000800040002FF000000000000000000A5
:10024C00000000000100000001000000B2070000E7
:10025C0080DE28008033E101000000001F00000058
:10026C001C0000001F0000001E0000001F0000000A
:10027C001E0000001F0000001F0000001E000000F8
:10028C001F0000001E0000001F0000000000000006
:10029C001F0000001C0000001F0000001E000000DA
:1002AC001F0000001E0000001F0000001F000000C7
:1002BC001E0000001F0000001E0000001F000000B8
:1002CC00303A2F746573742E747874000100030037
:1002DC0001000046525F4449534B5F455252004661
:1002EC00525F494E545F4552520046525F4E4F5436
:1002FC005F52454144590046525F4E4F5F46494C50
:10030C00450046525F4E4F5F504154480046525F85
:10031C00494E56414C49445F4E414D450046525F53
:10032C0044454E4945440046525F45584953540094
:10033C0046525F494E56414C49445F4F424A4543F1
:10034C00540046525F57524954455F50524F5445E2
:10035C00435445440046525F494E56414C49445F14
:10036C0044524956450046525F4E4F545F454E41EC
:10037C00424C45440046525F4E4F5F46494C4553F4
:10038C00595354454D0046525F4D4B46535F4142C5
:10039C004F525445440046525F54494D454F5554B5
:1003AC00004552524F523A2025700D0A00303A2F18
:1003BC00256C642E62696E0025366C64004C6F6788
:1003CC006963616C20647269766520303A206D6FC8
:1003DC00756E746564204F4B0D0A0046696C652080
:1003EC0025732063726561746564204F4B0D0A00A0
:1003FC0074686973206973207465737400257520A3
:10040C006279746573207772697474656E206F6697
:10041C002025750D0A0066696C6520736420636184
:10042C0072640046696C6520257320636C6F73657C
:10043C0064204F4B0D0A0046696C6520657374206F
:10044C00797A650073746172742069326300627525
:10045C006620693263207374617274206F6B006262
:10046C006D7020693263207374617274206F6B003D
:10047C00535049205354415254006164373730353E
:10048C00207374617274206F6B00737461727420CA
:10049C00646576696365005354415254205748494A
:1004AC004C4500000100EBFE904D53444F53352E4C
:1004BC0030004E4F204E414D4520202020464154C7
:1004CC003332202020004E4F204E414D452020201D
:1004DC00204641542020202020002D4E414E00006B
:1004EC0001002D4E414E00494E46000001004431A2
:1004FC0042020B00B135CC020100BD35D80201001F
:10050C002636DA020100AD36DC020100B736B00443
:10051C000100C036EC040000F894EE27F091CC01F9
:10052C00F860F093CC01F8EDF4BFE093A200A09139
:10053C008000AD7FA160F4BFA093800080E090E4C8
:10054C00A0E0B0E2ED930197E9F7E8EFF4E08591D4
:10055C009591009761F0A591B59105901590BF010B
:10056C00F00105900D920197E1F7FB01F0CF8BBFE5
:10057C008CBFE0E0E0B9E1B9E2B9E3B9E4B9E5B9BF
:10058C00E6B9E7B9E8B9E9B9EAB9EBB9ECB9EDB94B
:10059C00EEB9EFB9E1E02E2EE0E03E2E4E2E5E2EAF
:1005AC006E2E7E2E8E2EAE2EBE2ECE2EDE2EEFEF8D
:1005BC00EDBFEFE5EEBFC0E0D0E30C943F18AA937B
:1005CC001A93E2E0E093CA01E981F0E01491E0E0D3
:1005DC00E093CA01E12F1881E1C3A0E2F0DFE093C0
:1005EC000C02A1E2ECDFE0930D02E0E0E0930102EB
:1005FC00E3E0E0930402E1E1E0930202E0E0E09347
:10060C001802E0931902E1E0E0932002E0E2E093AB
:10061C002102E1E0E0932802E8E2E0932902E1E024
:10062C00E0933002E0E3E0933102E1E0E093380242
:10063C00E8E3E0933902E0E0E0930302E093220266
:10064C00E0932A02E0933202E0933A02E091000236
:10065C00E160E09300024CC0AA930E943341EC810C
:10066C00F0E0A0E2B2E00E943C34F801A381A1705A
:10067C00E1F34FC0A4E2A3DFE0934C02A5E29FDFBD
:10068C00E0934D02E0E0E0934102E3E0E0934402AA
:10069C00E0E1E0934202E0E0E0935802E09359027B
:1006AC00E1E0E0936002E0E0E0936102E1E0E093DE
:1006BC006802E8E0E0936902E1E0E0937002E0E1B7
:1006CC00E0937102E1E0E0937802E8E1E0937902D3
:1006DC00E0E0E0934302E0936202E0936A02E0936D
:1006EC007202E0937A02E0914002E160E0934002F2
:1006FC0085E18A95F1F70895AA930E943341EC8124
:10070C00F0E0A0E6B2E00E943C34F801A381A170B5
:10071C00E1F3D8011396E1E0EC93F80124813581E3
:10072C00F9010E943A41259608951A930A93E09193
:10073C00E407EE7FE093E40710E000E0163188F464
:10074C00103031F0E12FF0E0E25FFE4CE0810E0F53
:10075C00E12FF0E0E25FFE4CA0810E944E0E1F5F85
:10076C00EDCF00932431A09124310E944E0EE091E4
:10077C00E407E160E093E407099119910895E0EA38
:10078C00E0937530E0E3E0937630E3E3E093773089
:10079C00E5E3E0937830E0E0E09379300E94463472
:1007AC00EB58FF4CA0E0A0830E944E3424F40E942E
:1007BC005634B394F9CFAA24EFEAE0937B30E1E00E
:1007CC00E0937C30E3E6E0937D30E0E6E0937E302E
:1007DC00E4E6E0937F30E0E0E0938030E09381301A
:1007EC00E0938230E0938330E0938430E093853063
:1007FC00E0938630E8E9E0938730EAE3E0938830D1
:10080C00ECEDE0938930E5E0E0938A30E0938B30B7
:10081C000E9466340E944E3424F40E947234B394C5
:10082C00F9CFAA24EAEAE0938D30E0E6E0938E302B
:10083C00EAEEE0938F300E948234E357FF4CA0E045
:10084C00A0830E944E3424F40E948A34B394F9CFCE
:10085C00AA24E2EAE093C930E1E0E093CA30E0E098
:10086C00E093CB300E948234E753FF4CA0E0A0838E
:10087C000E944E3424F40E949A34B394F9CFAA24E3
:10088C00EDEAE093AC30EAE5E093AD30E0E0E093E4
:10089C00AE30EAE5E093AF30E0E0E093B0300E9498
:1008AC004634E455FF4CA0E0A0830E944E3424F45F
:1008BC000E94AA34B394F9CFAA24E6EAE093E93073
:1008CC00E0E0E093EA30E093EB30E1E0E093EC30F1
:1008DC00E0E0E093ED300E944634E751FF4CA0E09D
:1008EC00A0830E944E3424F40E94BA34B394F9CFFE
:1008FC00AA24E1EAE0939130E3E5E0939230E5E756
:10090C00E0939330EEE6E0939430E0E2E0939530A0
:10091C00E3E5E0939630E5E6E0939730E0E7E0938B
:10092C009830E0E2E0939930E2E3E0939A30E1E32F
:10093C00E0939B30E0E2E0939C30E2E3E0939D3067
:10094C00E3E3E0939E30EAE3E0939F30E3E3E0934C
:10095C00A030E6E3E093A130EAE3E093A230E2E3D7
:10096C00E093A330E4E3E093A430E0E2E093A5301D
:10097C00E2E3E093A630E0E3E093A730E1E3E09319
:10098C00A830E4E3E093A930E0E0E093AA300E94C1
:10099C00CA340E944E3424F40E94D634B394F9CF56
:1009AC00AA24E7EAE093B230E2E4E093B3300E9489
:1009BC00E6340E944E3424F40E94F234B394F9CFFE
:1009CC00AA24E7E7E093B530E0E0E093B630ECEF33
:1009DC00E093B7300E948234EB54FF4CA0E0A0832C
:1009EC000E944E3424F40E940235B394F9CFAA2409
:1009FC00EBEAE093BD30E5E7E093BE30EEE6E09342
:100A0C00BF30E7E3E093C030E0E3E093C130E2E3D2
:100A1C00E093C230E2E6E093C330EEE0E093C43002
:100A2C00E4E0E093C530E4E1E093C630EEE0E0931F
:100A3C00C7300E9412350E944E3424F40E941E3599
:100A4C00B394F9CFAA24EEEAE093CD30EFEFE09324
:100A5C00CE30E093CF30E093D030E093D130E093C0
:100A6C00D230E093D330E093D430E093D5300E9471
:100A7C002E350E944E3424F40E943A35B394F9CFAB
:100A8C00AA24E4EAE093DD30E0E0E093DE30ECEF22
:100A9C00E093DF30E8E6E093E030E7EFE093E1301D
:100AAC000E944634E352FF4CA0E0A0830E944E34D7
:100ABC0024F40E944A35B394F9CFAA24E8E5E093D4
:100ACC00E330E0E0E093E430E093E530E1E0E09304
:100ADC00E630E0E0E093E7300E944634ED51FF4C05
:100AEC00A0E0A0830E944E3424F40E945A35B394A3
:100AFC00F9CFAA24E6E7E093B930EFEFE093BA30F0
:100B0C00E093BB300E948234E754FF4CA0E0A083FA
:100B1C000E944E3424F40E946A35B394F9CFAA246F
:100B2C00EAE6E093D730E0E0E093D830E093D930B8
:100B3C00E093DA30E093DB300E944634E952FF4C0C
:100B4C00A0E0A0830E944E3424F40E947A35B39422
:100B5C00F9CFAA240895E5EAE0930E31E0E4E0939E
:100B6C000F31EFE1E0931031E8E7E0931131E0E071
:100B7C00E0931231EBEBE0931331EBE0E0931431A3
:100B8C00E0E0E0931731E8E0E0931831EDEAE09310
:100B9C001931EDE0E0931A31ECEAE0931B31EDE012
:100BAC00E0931C31E0E1E0931D31E7E2E0931E316C
:100BBC00E0E0E0931F31E4E0E0932031E0E0E093EB
:100BCC002131E6E0E0932231E0E0E0932331089517
:100BDC00E0E0E0930406E0930006E0931006E09357
:100BEC001106E0931206E0931306E0931406E093CB
:100BFC001506E0931606E0931706E0910906E07FD0
:100C0C00E0930906E0E0E0930A06E0930B06E0931C
:100C1C002406E0932006E0933006E0933106E0933F
:100C2C003206E0933306E0933406E0933506E09306
:100C3C003606E0933706E0912906E07FE09329061B
:100C4C00E0E0E0932A06E0932B060E948A35E0E070
:100C5C00E0935006E0935106E0935206E09353065E
:100C6C00E0935406E0935506E0935606E09357063E
:100C7C00E0914906E07FE0934906E0E0E0934A0604
:100C8C00E0934B06E0E8E0936406E0936006E0E056
:100C9C00E0937006E0937106E0937206E09373069E
:100CAC00E0937406E0937506E0937606E09377067E
:100CBC00E0916906E07FE0936906E0E0E0936A0664
:100CCC00E0936B06E0938406E0938006E091800647
:100CDC00E061E0938006E0E0E0939006E0939106FB
:100CEC00E0E1E0939206E0E0E0939306E093940653
:100CFC00E0939506E0939606E0939706E0918906BB
:100D0C00E07FE0938906E0E0E0938A06E0938B06AF
:100D1C00E093A406E093A006E093B006E093B1063E
:100D2C00E093B206E093B306E093B406E093B60604
:100D3C00E093B706E091A906E07FE093A906E0E016
:100D4C00E093AA06E093AB06EFE0E093E407E093B0
:100D5C00E007E0E0E093F007E093F107E091E907AA
:100D6C00E07FE093E907E0E0E093EA07E093EB072C
:100D7C000895BA93AA93E0E1E0932104E091210451
:100D8C00E071E1F7E0912404F091250460912604D0
:100D9C0070912704A881B9810E94974022960895EA
:100DAC001A93E8EDE4BFE091F000E260E093F0000C
:100DBC00E0915200EF7DE0935200E12FEE7FE8606E
:100DCC001E2FE8EDE4BF1093F000E091F100E87005
:100DDC00E1F31460E8EDE4BF1093F000E0E0E09381
:100DEC002004E0912104E171E1F70E949135E0913A
:100DFC002104E061E09321040E949E35E0932C04D1
:100E0C00F0932D0460932E0470932F04E1E0E09393
:100E1C002004E0E0E093220419910895E8EDE4BF8A
:100E2C00E0E0E0932004E0912104E171E1F70E94FD
:100E3C0091350E94A3350E94AC35E0912104E0610C
:100E4C00E0932104E1E0E09320040895BA93AA937F
:100E5C00EF97659784E5A0E0B0E0E4E4F2E00E944F
:100E6C003F41FE01E85AFF4F019011906191708152
:100E7C00F0010E94B5350E94BC350E942E3FFE0148
:100E8C00E45AFF4FA193B19381939083EC8DFD8D28
:100E9C006E8D7F8D0E94BC350E9427414CF50E94BF
:100EAC00C5350E94CA3549F40E94D3350E94D83505
:100EBC0019F40E94E13509F401C003C00E94EB351E
:100ECC0002C00E949E350E94F0350E94F335EC8FD3
:100EDC00FD8F6E8F7F8F0E94C5350E9400360E9459
:100EEC000536AC8DBD8D8E8D9F8D0E940A36CECF72
:100EFC000E941C3639F40E941E3619F40E94E1350A
:100F0C0009F401C003C00E94EB3502C00E949E355B
:100F1C000E94F0350E94203629F0EDE1F0E060E00F
:100F2C0070E004C0ECE1F0E060E070E0E8A7F9A745
:100F3C006AA77BA7E88DF98D6A8D7B8D0E94BC35E5
:100F4C000E942C41BCF0E889F989DE0190960E9440
:100F5C002536E88FF98F6A8F7B8F0E9432360E947C
:100F6C0000360E943736A88DB98D8A8D9B8D0E94D4
:100F7C000A36E0CF0E943C360E943440EF5FFF4FB0
:100F8C006F4F7F4F0E9442360E943C360E9447367C
:100F9C000E9451360E9434400E9456360E94BC3545
:100FAC000E9451360E944736ECE3F0E060E070E0BE
:100FBC000E9434400E945B360E94BC35ECE3F0E0AA
:100FCC0060E070E00E944940DE01A45ABF4FED93EF
:100FDC00FD936D937C930E94C5350E9460367F9380
:100FEC006F93FF93EF930E9432360E946736AF9156
:100FFC00BF918F919F910E941F3F0E946E360E945D
:10100C001F3FDE01AA5ABF4F0D90BC91A02D0E942C
:10101C0097400E9473360E9460367F936F93FF93C4
:10102C00EF930E9478360E946736AF91BF918F91F3
:10103C009F910E941F3F0E94BC350E941F3FDE0102
:10104C00AC5ABF4F0D90BC91A02D0E949740EF96CB
:10105C00A1960895BA93AA93EF972D9784E3A8E1EC
:10106C00B0E0E8E9F2E00E943F410E947D360E9428
:10107C000F400E9405360E947D360E948A360E94DF
:10108C003736DE01AA5ABF4F0D901D908D919C9161
:10109C00D0010E9495360E9442360E949C360E94D6
:1010AC000F400E9456360E949C360E948A360E943F
:1010BC005B360E941C3639F40E941E3619F40E94CD
:1010CC00E13509F401C003C00E94EB3502C00E9457
:1010DC009E350E94F035DE01AE5ABF4F0D901D902B
:1010EC008D919C91D0010E9495367F936F93FF93C5
:1010FC00EF930E947836ACE3B0E080E090E00E9481
:10110C00E43FAF91BF918F919F910E941F3F7F93BE
:10111C006F93FF93EF93FE01E25BFF4F01901190F1
:10112C0061917081F0010E94A9360E94243F0E94B7
:10113C0051360E94BE3FAF91BF918F919F910E94FB
:10114C001F3F7F936F93FF93EF930E94AE360E94E5
:10115C00B336A8E1B0E080E090E00E94E43F0E944A
:10116C00B535AF91BF918F919F910E941F3F0E9407
:10117C00B8360E9497400E94203629F0EDE1F0E04D
:10118C0060E070E004C0ECE1F0E060E070E0E8A347
:10119C00F9A36AA37BA30E9432360E94B3360E9445
:1011AC0037360E94BF360E94214114F50E94B83692
:1011BC00BF93AF930E948C407F936F93FF93EF93F9
:1011CC00E889F989DE0158960E942536AF91BF91C6
:1011DC008F919F910E941F3FAF91BF910E949740AA
:1011EC000E9432363197604070400E943736D9CF1A
:1011FC000E94C5350E94B3360E9405360E94D33535
:10120C00A23BE7E0BE07E0E08E07E0E09E0784F13A
:10121C000E941C3639F40E941E3619F40E94E135E6
:10122C0009F401C003C00E94EB3502C00E949E3538
:10123C000E94F0350E94B836BF93AF930E948C4049
:10124C007F936F93FF93EF930E94F335AF91BF9110
:10125C008F919F910E941F3FAF91BF910E94974029
:10126C000E94C5353197604070400E940536C6CF4C
:10127C00EF966B960895E8E0E0934506E3E0E09383
:10128C00A508E091A308E07CE063E093A308E5EFF8
:10129C00E093A608ECECE093A708E091A408E07EAC
:1012AC00E861E093A40808950E94C436C090A10898
:1012BC00E091A008E0930D31EC2DEC7141F4E52D9B
:1012CC00F0E0E95CFF4CA0910D31A0835394E091C8
:1012DC004431F0E0EF3FA0E0FA0709F05EC2E09184
:1012EC003730F0E0EF3FA0E0FA0731F40E94D2363D
:1012FC00EFEFE09337304FC2EA3CA0E0FA0721F45D
:10130C00EAEC0E94D83647C2E53FA0E0FA0721F488
:10131C00E5EF0E94D8363FC2E53BA0E0FA0721F486
:10132C00E5EB0E94E03637C2EA3EA0E0FA0721F472
:10133C00EAEE0E94D8362FC2E53EA0E0FA0721F46F
:10134C00E5EE0E94E83627C2E73EA0E0FA0721F45A
:10135C00E7EE0E94E8361FC2E036A0E0FA0721F45F
:10136C00E0E60E94D83617C2E83EA0E0FA0721F466
:10137C00E8EE0E94F0360FC2E93EA0E0FA0721F435
:10138C00E9EE0E94F03607C2E13DA0E0FA0749F40D
:10139C00E1EDE0934431E5E02E2EEFEFE0933730B2
:1013AC00FAC1E33DA0E0FA0721F4E3ED0E94E03638
:1013BC00F2C1E53DA0E0FA0721F4E5ED0E94F83614
:1013CC00E8C1E73DA0E0FA0721F4E7ED0E94F8360A
:1013DC00E0C1E03AA0E0FA07E9F40E94FE360E9470
:1013EC004634EB58FF4CA0E0A0830E944E3424F40A
:1013FC000E945634B394F9CFBB24BA1440F4EB2DAD
:10140C00F0E0EB58FF4CA08143D4B394F6CF0E948C
:10141C000337C1C1E13AA0E0FA07C9F40E94FE36D5
:10142C000E94CA340E944E3424F40E94D634B394E1
:10143C00F9CFBB24BA1440F4EB2DF0E0EF56FF4C7F
:10144C00A08126D4B394F6CF0E940337A5C1E23A0B
:10145C00A0E0FA07E9F40E94FE360E948234E753BA
:10146C00FF4CA0E0A0830E944E3424F40E949A34D6
:10147C00B394F9CFBB24BA1440F4EB2DF0E0E7534E
:10148C00FF4CA08105D4B394F6CF0E94033784C1DE
:10149C00E43AA0E0FA07E9F40E94FE360E944634D2
:1014AC00E352FF4CA0E0A0830E944E3424F40E942F
:1014BC004A35B394F9CFBB24BA1440F4EB2DF0E0C9
:1014CC00E352FF4CA081E4D3B394F6CF0E940337D0
:1014DC0063C1E63AA0E0FA07E9F40E94FE360E94E6
:1014EC004634E751FF4CA0E0A0830E944E3424F414
:1014FC000E94BA34B394F9CFBB24BA1440F4EB2D48
:10150C00F0E0E751FF4CA081C3D3B394F6CF0E9417
:10151C00033742C1E73AA0E0FA07C9F40E94FE364D
:10152C000E94E6340E944E3424F40E94F234B394A8
:10153C00F9CFBB24BA1440F4EB2DF0E0EE54FF4C81
:10154C00A081A6D3B394F6CF0E94033725C1EA3A03
:10155C00A0E0FA07E9F40E94FE360E948234E357B9
:10156C00FF4CA0E0A0830E944E3424F40E948A34E5
:10157C00B394F9CFBB24BA1440F4EB2DF0E0E3574D
:10158C00FF4CA08185D3B394F6CF0E94033704C1DE
:10159C00EB3AA0E0FA07C9F40E94FE360E9412351D
:1015AC000E944E3424F40E941E35B394F9CFBB2410
:1015BC00BA1440F4EB2DF0E0E354FF4CA08168D357
:1015CC00B394F6CF0E940337E7C0ED3AA0E0FA07D8
:1015DC00E9F40E94FE360E944634E455FF4CA0E02C
:1015EC00A0830E944E3424F40E94AA34B394F9CF01
:1015FC00BB24BA1440F4EB2DF0E0E455FF4CA08171
:10160C0047D3B394F6CF0E940337C6C0EE3AA0E09E
:10161C00FA07C9F40E94FE360E942E350E944E3401
:10162C0024F40E943A35B394F9CFBB24BA1440F495
:10163C00EB2DF0E0E353FF4CA0812AD3B394F6CF0B
:10164C000E940337A9C0EF3AA0E0FA07C9F40E9440
:10165C00FE360E9466340E944E3424F40E9472348A
:10166C00B394F9CFBB24BA1440F4EB2DF0E0E55859
:10167C00FF4CA0810DD3B394F6CF0E9403378CC0DE
:10168C00E835A0E0FA07E9F40E94FE360E944634E1
:10169C00ED51FF4CA0E0A0830E944E3424F40E9434
:1016AC005A35B394F9CFBB24BA1440F4EB2DF0E0C7
:1016BC00ED51FF4CA081ECD2B394F6CF0E940337CE
:1016CC006BC0EA36A0E0FA07E9F40E94FE360E94ED
:1016DC004634E952FF4CA0E0A0830E944E3424F41F
:1016EC000E947A35B394F9CFBB24BA1440F4EB2D95
:1016FC00F0E0E952FF4CA081CBD2B394F6CF0E941C
:10170C0003374AC0E637A0E0FA07E9F40E94FE3638
:10171C000E948234E754FF4CA0E0A0830E944E3418
:10172C0024F40E946A35B394F9CFBB24BA1440F464
:10173C00EB2DF0E0E754FF4CA081AAD2B394F6CF86
:10174C000E94033729C0E737A0E0FA07E9F40E94AA
:10175C00FE360E948234EB54FF4CA0E0A0830E9422
:10176C004E3424F40E940235B394F9CFBB24BA143E
:10177C0040F4EB2DF0E0EB54FF4CA08189D2B394F4
:10178C00F6CF0E94033708C0EFEFE0933730E093B9
:10179C004431E1E02E2E552404C0EA3CA0E0FA07C7
:1017AC0039F5E2E0E51519F5A0913730A13021F4B7
:1017BC00A0913830A13009F003C00E94083711C045
:1017CC00A0913730AF3021F4A0913830AF3009F010
:1017DC0008C00E9408370E94D236E1E0E093433102
:1017EC0005C0EFEFE0934431E1E02E2E55244FC2BB
:1017FC00E53FA0E0FA0711F5E2E0E515F1F4A09160
:10180C003730AF3521F4A0913830AF3509F012C024
:10181C00A5EF3ED2A5EF3CD2A5EF0E940E37552482
:10182C00A5E0B0E00E94683DE8EDE4BFE1E0E093A4
:10183C00790003C00E94D236552429C2E53BA0E0B2
:10184C00FA0751F5E4E0E51531F5BB24DD24E3E0BE
:10185C00BE1660F40E941137DE0EAB2DB0E0AB5B10
:10186C00BE4C0E941137EC93B394F1CFE0913A3017
:10187C00E0934831A0913A30DA1651F48090373029
:10188C00A5EB06D2A5EB0E940E375524DD2403C030
:10189C000E94D2365524FBC1EA3EA0E0FA07E9F4D7
:1018AC00E2E0E515C9F4BB24DD24E1E0BE1628F422
:1018BC000E941137DE0EB394F8CFA0913830DA16AF
:1018CC0041F4AAEEE5D1AAEE0E940E375524DD2490
:1018DC0003C00E94D2365524DAC1E036A0E0FA07E4
:1018EC00F9F4E2E0E515D9F4BB24DD24E1E0BE1601
:1018FC0028F40E941137DE0EB394F8CFA091383043
:10190C00DA1651F4A0E6C4D1A0E0C2D1A0E00E9446
:10191C000E375524DD2403C00E94D2365524B7C19E
:10192C00E53EA0E0FA07E9F4E7E0E515C9F4BB24CD
:10193C00DD24E6E0BE1628F40E941137DE0EB394C7
:10194C00F8CFA0913D30DA1641F4A5EEA1D1A5EE69
:10195C000E940E375524DD2403C00E94D236552434
:10196C0096C1E73EA0E0FA07E9F4E7E0E515C9F413
:10197C00BB24DD24E6E0BE1628F40E941137DE0EEF
:10198C00B394F8CFA0913D30DA1641F4A7EE80D194
:10199C00A7EE0E940E375524DD2403C00E94D236D8
:1019AC00552475C1E83EA0E0FA07E9F4E3E0E5153B
:1019BC00C9F4BB24DD24E2E0BE1628F40E941137E2
:1019CC00DE0EB394F8CFA0913930DA1641F4A8EEBC
:1019DC005FD1A8EE0E940E375524DD2403C00E946F
:1019EC00D236552454C1E93EA0E0FA07E9F4E3E00D
:1019FC00E515C9F4BB24DD24E2E0BE1628F40E94F0
:101A0C001137DE0EB394F8CFA0913930DA1641F4C9
:101A1C00A9EE3ED1A9EE0E940E375524DD2403C059
:101A2C000E94D236552433C1E13DA0E0FA0709F0FB
:101A3C0040C0E5E0E515E1F5BB24DD24E4E0BE168D
:101A4C0028F40E941137DE0EB394F8CFA0913B30EE
:101A5C00DA1659F5E0E0E0933B30E0934D31E0933A
:101A6C004E31E0934F31E09350310E9417370E9472
:101A7C0025370E9436370E942537E0913A30F0E046
:101A8C000E943E37E0934D31F0934E3160934F31CD
:101A9C0070935031E1E0E0935131A1EDF9D0A1ED1B
:101AAC000E940E375524DD2403C00E94D2365524E3
:101ABC00EEC0E33DA0E0FA07E9F5E4E0E515C9F571
:101ACC00BB24DD24E3E0BE1628F40E941137DE0EA1
:101ADC00B394F8CFA0913A30DA1641F5E0E0E093F8
:101AEC003A30E0935331E0935431E0935531E09325
:101AFC0056310E9417370E9443370E944C37A4E698
:101B0C00B0E080E090E00E94BE3FDF01CB010E947C
:101B1C0036370E944337E1E0E0935231A3EDB8D061
:101B2C00A3ED0E940E375524DD2403C00E94D2364B
:101B3C005524ADC0E53DA0E0FA0709F053C0E1E043
:101B4C00E51509F04EC0A0913730A53D09F043C012
:101B5C000E9455370E9467370E940F40E09357311F
:101B6C000E9467370E944540DF01CB010E94743709
:101B7C000E940F40E09358310E9479370E947437CD
:101B8C000E948A36E09359310E9479370E9495362B
:101B9C00E0935A31BB24E0E0E0935B31E4E0BE1605
:101BAC0050F4A0915B310E948237E081EA0FE09300
:101BBC005B31B394F3CFA5ED6BD0BB24E5E0BE163F
:101BCC0030F40E948237A08163D0B394F7CFEFEF4B
:101BDC000E94F83603C0EFEFE0934431E1E02E2E83
:101BEC00552455C0E73DA0E0FA0709F04AC0E1E0F2
:101BFC00E51509F045C0A0913730A73DD9F50E94F5
:101C0C0055370E9487370E940F40E09357310E944E
:101C1C0087370E948A36E0935831A0915331B091A6
:101C2C00543180915531909156310E949536E09304
:101C3C005931BB24E0E0E0935A31E3E0BE1650F496
:101C4C00A0915A310E948237E081EA0FE0935A3119
:101C5C00B394F3CFA7ED1CD0BB24E4E0BE1630F454
:101C6C000E948237A08114D0B394F7CFEFEF0E947B
:101C7C00F83603C0EFEFE0934431E1E02E2E55240B
:101C8C0006C0EFEFE09337300E94D2365524D3C113
:101C9C00AA93E091A108E072E1F3E881E093A00837
:101CAC00A1C1E0E8E0936506E3E0E093B509E091BB
:101CBC00B309E07CE093B309EEE6E093B609E8EAF9
:101CCC00E093B709E091B409E07EE860E093B409D1
:101CDC000895AA93E091B109E072E1F3E881E093F1
:101CEC00B00980C11A9310E0AFEEB0E30E94EB3163
:101CFC00A12FB0E0AE17BF0740F4E12FF0E0E151A7
:101D0C00FF4CA081E6DF1F5FEFCF0E949037E0E031
:101D1C00EA93AEE1B0E00E94CE31AAE0DADFADE0AA
:101D2C00D8DF4BC1AA93A881A13010F0A03108F0E4
:101D3C001EC00E949037EDEAF3E0FA93EA93EC812F
:101D4C00A8EEB1E00E9495370E94A1400E949B37FB
:101D5C00E0E0EA93A0E0B0E00E94F428E0E0E09339
:101D6C00BD35E0934006E09344060E948A353AC1A3
:101D7C00BA93AA93A881B981EC91E07FEC93199660
:101D8C00ECE0EC93229608951A930A931FB7F894FB
:101D9C00E0910008E07FE560E0930008E091010825
:101DAC00E870E0930108E0910308E071E093030808
:101DBC00E0910608E07FE160E0930608E0910708F7
:101DCC00E070E0930708E0919900EE7F0E2FE8EDAC
:101DDC00E4BF00939900E0918008E07CE0938008D8
:101DEC00E0918308E87EE0938308E0E0E0938208CA
:101DFC00A4E8B8E00A2EAC91E0918408E470EA2BD8
:101E0C00A02DEC93E0910C08E0930C08E0E0F0E0DE
:101E1C00E0932008F0932108E1E1FAE7E09326082B
:101E2C00F0932708E0E0F0E0E0932808F09329080D
:101E3C00E0932A08F0932B08E0932C08F0932D08DC
:101E4C00E0932E08F0932F081FBF09911991089564
:101E5C001A931FB7F894A0E4B8E08ADFE5E0E093AA
:101E6C004008E0E0E0934108E0934308E093440825
:101E7C00E0914608E07FE160E0934608E0E0E09303
:101E8C004708E0919008ED7FE0939008E0914C08B2
:101E9C00E0934C08E0E0F0E0E0936008F093610818
:101EAC00EFEAF6E3E0936608F0936708E0E0F0E011
:101EBC00E0936808F0936908E0936A08F0936B0864
:101ECC007BC01A931FB7F894A0E0B9E051DFE4E0AF
:101EDC00E0930009E0E0E0930109E0930309E0934B
:101EEC000409E3E0E0930609E0E0E0930709E091E0
:101EFC009009EE7FE0939009E0910C09E0930C09B6
:101F0C00E0E0F0E0E0932009F0932109EFE3FCE935
:101F1C00E0932609F0932709E0E0F0E0E09328092C
:101F2C00F0932909E0932A09F0932B09E0932C09EB
:101F3C00F0932D09E0932E09F0932F093DC01A93CD
:101F4C001FB7F894A0E0BBE013DFE7E0E093000BD1
:101F5C00E0E0E093010BE093030BE093040BE3E070
:101F6C00E093060BE0E0E093070BE091900BEE7F23
:101F7C00E093900BE0910C0BE0930C0BE0E0F0E0A5
:101F8C00E093200BF093210BE1E1FAE7E093260BB1
:101F9C00F093270BE0E0F0E0E093280BF093290B93
:101FAC00E0932A0BF0932B0BE0932C0BF0932D0B5F
:101FBC00E0932E0BF0932F0B1FBF19910895E2E5C0
:101FCC00E093C008E091C108EC7FE093C10808954C
:101FDC00AA93E881E093C308E091C208E078E1F3AA
:101FEC00E091C30821960895E0EAF4E00E94A53739
:101FFC00A0E00E94C6320E94AA37E0EAF4E0FA930D
:10200C00EA93E0E4EA93ABE90E94DB32E0E0E09390
:10201C00A80408950A921A92FA926A937A938A9370
:10202C009A93AA93BA93EA93FA93EFB7EA93A0E040
:10203C00B6E30E940633E991EFBFF991E991B991AA
:10204C00A9919991899179916991F9901990099037
:10205C001895E6EFE0938936E7EFE0938A36E4EFE4
:10206C00E0938736EEE2E0938836E6EFE0938F3626
:10207C00E7EFE0939036E8EFE0939136E4EFE093EE
:10208C008D36E0912636E295E07FEE0FEE0FEC5C9C
:10209C00E0938E36EAEAE0935B36EBEAE0935C364B
:1020AC00ECEAE0935D36EDEAE0935E36EEEAE0931F
:1020BC005F36EFEAE0936036E0EBE0936136E1EBFC
:1020CC00E0936236E2EBE0936336E3EBE093643645
:1020DC00E4EBE0936536E5EBE0936636E6EBE093F4
:1020EC006736E7EBE0936836E8EBE0936936E9EBAB
:1020FC00E0936A36EAEBE0936B36EBEBE0936C36ED
:10210C00ECEBE0936D36EDEBE0936E36EEEBE0939B
:10211C006F36EFEBE093703608959BDF0E94AA3781
:10212C00E7E7EA93EBE5F6E30E94AF37E1E7F6E386
:10213C000E94B437E7E7EA93EDE5F6E30E94AF3788
:10214C00E3E7F6E30E94B437E7E7EA93EFE5F6E35B
:10215C000E94AF37E5E7F6E30E94B437E7E7EA936E
:10216C00E1E6F6E30E94AF37E7E7F6E30E94B43707
:10217C00E7E7EA93E3E6F6E30E94AF37E9E7F6E335
:10218C000E94B437E7E7EA93E5E6F6E30E94AF373F
:10219C00EBE7F6E30E94B437E7E7EA93E7E6F6E30A
:1021AC000E94AF37EDE7F6E30E94B437E7E7EA9316
:1021BC00E9E6F6E30E94AF37EFE7F6E30E94B437A7
:1021CC00E7E7EA93EBE6F6E30E94AF37E1E8F6E3E4
:1021DC000E94B437E7E7EA93EDE6F6E30E94AF37E7
:1021EC00E3E8F6E30E94B437E7E7EA93EFE6F6E3B9
:1021FC000E94AF37E5E8F6E3FA93EA93A2E00E9477
:10220C008E33B0917136A0E0E0917236F0E0EA0FB7
:10221C00FB1FE0930C36F0930D36F0917336E0E033
:10222C00DF01E0917436F0E0EA0FFB1FE0930E360D
:10223C00F0930F36F0917536E0E0DF01E0917636E1
:10224C00F0E0EA0FFB1FE0931036F0931136F0919B
:10225C007736E0E0DF01E0917836F0E0EA0FFB1F23
:10226C00E0931236F0931336F0917936E0E0DF010B
:10227C00E0917A36F0E0EA0FFB1FE0931436F0930E
:10228C001536F0917B36E0E0DF01E0917C36F0E032
:10229C00EA0FFB1FE0931636F0931736F0917D365C
:1022AC00E0E0DF01E0917E36F0E0EA0FFB1FE09307
:1022BC001836F0931936F0917F36E0E0DF01E091AB
:1022CC008036F0E0EA0FFB1FE0931A36F0931B36D2
:1022DC00F0918136E0E0DF01E0918236F0E0EA0F28
:1022EC00FB1FE0931C36F0931D36F0918336E0E033
:1022FC00DF01E0918436F0E0EA0FFB1FE0931E361D
:10230C00F0931F36F0918536E0E0DF01E0918636E0
:10231C00F0E0EA0FFB1FE0932036F093213608958E
:10232C000E94AA37E7E7EA93E7E8F6E30E94AF37A3
:10233C000E94BA37E7E7EA93E9E8F6E30E94AF3781
:10234C00EBE8F6E30E94B437E7E7EA93EDE8F6E34F
:10235C000E94AF370E94BA37E7E7EA93EFE8F6E35B
:10236C000E94C637E2E9F6E30E94CB37E7E7EA932F
:10237C00E0E9F6E30E94C637E3E9F6E30E94CB37C7
:10238C00E7E7EA93E1E9F6E30E94C637E4E9F6E30E
:10239C00FA93EA93A1E00E948E33B0918B36A0E0C1
:1023AC00E0918C36F0E0EA0FFB1F0E94AA3FE0930D
:1023BC002236F09323366093243670932536E091C1
:1023CC009236FF27662777270E94D1370E94DA378B
:1023DC00E8E00E944E3F0E94D137E0919336F0E046
:1023EC000E94DA370E943E370E94D1370E94DA37BA
:1023FC00E8E00E944E3F0E94D137E0919436F0E025
:10240C000E94DA370E943E370E94D137A0912636BF
:10241C00E8E0EA1B0E94DA370E945A3F0E94D1374B
:10242C00E0911636F0911736A0912236B0912336F2
:10243C008091243690912536662777270E942E3F6F
:10244C00E0911436F0911536662777270E94E33712
:10245C00EFE00E94E837A0911E36B0911F360E9423
:10246C00AF3FEBE00E944E3F7F936F93FF93EF9350
:10247C00E0912036F09121360E94F3370E943E37CE
:10248C00AF91BF918F919F910E9434400E94FC3775
:10249C00E0933336F093343660933536709336369A
:1024AC000E940838E85FFF4F6F4F7F4FDF01CB0171
:1024BC00E4E00E945A3FE0933736F093383660934D
:1024CC00393670933A360E94DE3DDF01CB010E9413
:1024DC0011380E94B63E0E9416380E940838E05A05
:1024EC00FF4060407040E0933B36F0933C36609385
:1024FC003D3670933E360E941F380E9428380E9449
:10250C00E43FA0911A36B0911B360E943138ECE0B2
:10251C000E945A3FDF01CB01EBE00E94E8370E949A
:10252C001F38A0910E36B0910F360E943138EBE077
:10253C000E945A3F0E94FC370E943438A0910C36FE
:10254C00B0910D360E94AF3FE4E0F0E060E070E047
:10255C000E94E43FA0913F36B091403680914136C5
:10256C00909142360E94243FE09126360E944E3FC5
:10257C000E943D38E0934336F093443660934536E1
:10258C00709346360E941F38A0911036B0911136C8
:10259C000E943138EDE00E94E8370E941F380E94FB
:1025AC0028380E94E337ECE00E945A3FA09118367D
:1025BC00B09119360E94AF3F0E9446380E94FC37FA
:1025CC000E943D380E943438E0913F36F0914036FD
:1025DC006091413670914236E050F0486F4F7F4F1A
:1025EC00A0911236B0911336882799270E94BE3FCE
:1025FC00DF01CB01EFE00E94663FE0934B36F09396
:10260C004C3660934D3670934E36A0914336B09154
:10261C0044368091453690914636E0912736F091BC
:10262C0028366091293670912A360E94293F7F9373
:10263C006F93FF93EF93E0912636A0E5B3EC0E94E5
:10264C00453FAF91BF918F919F91662777270E944D
:10265C00BE3FE0934F36F0935036609351367093F3
:10266C0052360E944B38A030E0E0BE07E0E08E0707
:10267C00E0E89E0788F4E0914F36F0915036609177
:10268C005136709152360E94893FDF01CB010E9476
:10269C0054380E940F4008C00E9454380E944B3896
:1026AC000E940F400E94893FE0934736F0934836D2
:1026BC006093493670934A360E945D387F936F93CE
:1026CC00FF93EF930E945D38AF91BF918F919F91D3
:1026DC000E94E43F0E946938E0912B36F0912C3631
:1026EC0060912D3670912E36AEEDBBE080E090E01F
:1026FC000E9446380E9469380E947238A3E4B3EEF7
:10270C008FEF9FEF0E9446380E94FC37E153F14F48
:10271C006F4F7F4FDF01CB01E4E00E945A3F0E94D4
:10272C007B380E941F3FE0934736F0934836609306
:10273C00493670934A360E9472380E94DE3DDF01A2
:10274C00CB01EFE6F2E565E073E40E94B63EE09360
:10275C005736F09358366093593670935A3608951D
:10276C00E2E0E0939B36E0E0E0939C360E94AA37CF
:10277C00E8E1EA93EBE9F6E30E94AF370E94843874
:10278C00E0939936E2E3E0939A360E94AA37E8E1A7
:10279C00EA93E9E9F6E388C0E0E0E09395360E941D
:1027AC00AA37E8E1EA93E5E9F6E30E94C637E6E9E1
:1027BC00F6E3FA93EA93A1E080C0E1E0E093973668
:1027CC000E94AA37E8E1EA93E7E9F6E36DC0E2E09C
:1027DC00E093A336E0E0E093A4360E94AA37E9E147
:1027EC00EA93E3EAF6E30E94AF370E948438E09361
:1027FC00A136E8E9E093A2360E94AA37E9E1EA9310
:10280C00E1EAF6E351C0E0E0E0939D360E94AA377E
:10281C00E9E1EA93EDE9F6E30E94C637EEE9F6E367
:10282C00FA93EA93A1E049C0E1E0E0939F360E945D
:10283C00AA37E9E1EA93EFE9F6E336C0E2E0E09388
:10284C00AB36E0E0E093AC360E94AA37EAE1EA93BB
:10285C00EBEAF6E30E94AF370E948438E093A93686
:10286C00E0E4E093AA360E94AA37EAE1EA93E9EAA7
:10287C00F6E31AC0E0E0E093A5360E94AA37EAE13D
:10288C00EA93E5EAF6E30E94C637E6EAF6E3FA9342
:10289C00EA93A1E012C0E1E0E093A7360E94AA37C8
:1028AC00EAE1EA93E7EAF6E3FA93EA93E2E0EA93E1
:1028BC00E0E0F0E0FA93EA93A0E00E948E330895F2
:1028CC00AA93E0E1E0934606AB8182DBAA8180DB30
:1028DC00A9817EDBA8817CDBE0914806ED6FEF3FA0
:1028EC00D9F3E0E1E093450624960895AA930E945B
:1028FC003141E091AD36AE81EA1729F0A13011F0EB
:10290C00A23009F401C010C0AE81A13011F40E94B4
:10291C008D38AE81A23041F4E1E2EA93ECE0EA9327
:10292C00E1E1EA93A0E4CCDFEE81E093AD3600E088
:10293C0010E00830E2E01E0778F4E0914806ED6FF5
:10294C00EF3F29F480E991E00197F1F702C00CED1B
:10295C0015E00F5F1F4FEDCFECEDF5E0E017F10741
:10296C00C1F4E0E1E09346068BE68A95F1F7A8E323
:10297C002FDBAFEF2DDB2E2F3327AFEF29DB4E2FC5
:10298C005527E0E1E0934506F22FE0E0E42BF52B30
:10299C0002C0EFEFFFEF0E943841279608952F9762
:1029AC001A930A9300E0FE0132960E94963810E0CA
:1029BC001B3070F40E94AB38AC91E12FF0E0EC5F6F
:1029CC00FF4CE081EA1711F001E01CE01F5FF0CF33
:1029DC000030F9F010E01F3060F4E12FF0E0EC5F14
:1029EC00FF4C0F010E94AB38EC91D001EC931F5FB0
:1029FC00F2CF0E94B238A3E00E94BB38E03029F03D
:102A0C000E94B238AAE00E94BB38A1E9B3E30E944D
:102A1C00C0381981088161960895AA971A93FE010E
:102A2C00B596FA93EA93E4ECF3E0FA93EA930E94F6
:102A3C004C370E94B94084E00E9469312896E4EF3B
:102A4C00E98311E0173088F40E94C538EA0FFB1FA8
:102A5C000F01E12FF0E03197DE019596AE0FBF1F0D
:102A6C00EC91D001EC931F5FEDCFE5EAE887E091A4
:102A7C001B30E987E0911C30EA87E0911D30EB8731
:102A8C00E0911E30EC87E0911F30ED87E091203013
:102A9C00EE87E0912130EF87E0912230E88BE091D6
:102AAC002330E98BE0912430EA8BE0911931EB8BE8
:102ABC00E0911A31EC8BE0912730ED8BE0912830CE
:102ACC00EE8BE0911D31EF8BE0911E31E88FE091A0
:102ADC002B30E98FE0912C30EA8FE0912D30EB8F89
:102AEC00E0912E30EC8FE0912331ED8FE091243189
:102AFC00EE8FE5EBEF8F1FE1133268F40E94C538BF
:102B0C00AE0FBF1FE12FF0E07F97EB5BFE4CE08137
:102B1C00EC931F5FF1CFE8EFECA3E5E4F1E30E9447
:102B2C00A537A4E0B0E00E94CE3110E0143270F46E
:102B3C00E12FF0E0E254FA4C0F010E94C538AE0FC1
:102B4C00BF1FEC91D001EC931F5FF0CF1881AB96B7
:102B5C000895E0E0EA93AFE5B1E30E94F428E09336
:102B6C005C31E03049F40E949037E9ECF3E00E94CC
:102B7C00CA380E94D13802C00E94D7380E94DB3874
:102B8C00E1EBF5E3FA93EA93AAE00E94BB38E0305C
:102B9C0051F40E949037E7EEF3E00E94E038E1E058
:102BAC00E093BD3507C00E94D738E0E0E093BD3517
:102BBC00E093060BA091BD35A13009F0A5C0E2EE63
:102BCC00F5E3FA93EA93ECEFF3E00E94CA38EDE0F8
:102BDC00E093EF35EAE0E093F0350E94DB38E2EE6B
:102BEC00F5E30E94E53829F40E9490370E94F338EF
:102BFC0002C00E94D738E1EFF5E3FA93EA93E2E2E0
:102C0C00F4E00E94CA38EDE0E093FE35EAE0E09390
:102C1C00FF350E94DB38E1EFF5E30E94E53829F43B
:102C2C000E9490370E94F33802C00E94D7380E944D
:102C3C000B39E03039F40E949037EFE2F4E00E9457
:102C4C00E03802C00E94D7380E945537E4E0F0E328
:102C5C000E949638E2DE0E94B238A1E00E941E2942
:102C6C00A0E00E94B93FE0935C31E03049F00E9453
:102C7C009037E3E4F4E00E94CA380E94780E33C027
:102C8C000E94B238AAE00E94BB38E03039F40E94AE
:102C9C009037E7EEF3E00E940E3902C00E94D7385D
:102CAC000E94DB380E941339E030D9F40E9490372F
:102CBC00E9E0F4E0FA93EA93E0915D31F0915E3152
:102CCC00662777270E94B940E3E2F0E060E070E00D
:102CDC000E94B94088E00E9469312C960E94780EBF
:102CEC0002C00E94D7380E940B39E03039F40E94A0
:102CFC009037EFE2F4E00E940E3902C00E94D73800
:102D0C00A4E6B0E00E94683DE1E1E0934506089539
:102D1C000E94C4361A930A93E0914331E03021F0BB
:102D2C00A0914431AF3F09F006C00E949B0385E39C
:102D3C008A95F1F73324099119915CC10E94C4362C
:102D4C00332009F02CC1E1E03E2EA1E0CFDDE09371
:102D5C00B036F093B136E091B036F091B136E05028
:102D6C00F048E093B036F093B1360E9422390E94BD
:102D7C003E37E093B236F093B3366093B43670932B
:102D8C00B536E091B036E0931531E091B036F09164
:102D9C00B1360E948E3FE09316316624E4E06E1645
:102DAC0098F5E62DADE5B0E30E949537FF93EF93D0
:102DBC00A62D0E943203AF91BF91ED93FC93E62DAB
:102DCC00ADE6B0E30E949537BF0100801180E62D7F
:102DDC00ADE5B0E30E942B39E62DA5E5B0E30E94EA
:102DEC009537FF93EF93A62D0E948203AF91BF916D
:102DFC000E943839BF0100801180E62DA5E5B0E3B3
:102E0C000E942B396394CACFE0915530E0930F3177
:102E1C00E0915630E0931031E0915730E09313314C
:102E2C00E0915830E0931431E0915930E093113136
:102E3C00E0915A30E0931231E0915B30E0931B311A
:102E4C00E0915C30E0931C31E0915D30E0931F31F8
:102E5C00E0915E30E0932031E0915F30E0932131DE
:102E6C00E0916030E0932231E0916130E0931731D2
:102E7C00E0916230E0931831E091BD35E03009F417
:102E8C008EC0E091B636EF5FE093B636A091B636C1
:102E9C00A03109F084C00E942239E0E1F0E060E04A
:102EAC0070E00E943440E093AE36F093AF36E0E031
:102EBC00E093B636E093B236E093B336E093B43693
:102ECC00E093B536E091AE36E09321300E943E3966
:102EDC00E09322306624E4E06E16D8F4E62DADE6DD
:102EEC00B0E30E9495370F010E9445390E9488403B
:102EFC000E94803FD0010E9438390F010E944E3948
:102F0C000E9488400E94803FD001ED93FC93639413
:102F1C00E2CFE0916530E0931B30E0916630E093B6
:102F2C001C30E0916730E0931F30E0916830E09303
:102F3C002030E0916930E0931D30E0916A30E093ED
:102F4C001E30E0916B30E0932730E0916C30E093D1
:102F5C002830E0916D30E0932B30E0916E30E093AF
:102F6C002C30E0916F30E0932D30E0917030E09395
:102F7C002E30E0917130E0932330E0917230E09389
:102F8C0024306624E4E06E1650F40E9445390E9409
:102F9C0057390E944E390E9457396394F3CF2AC097
:102FAC000E94C436E091BD35E03011F00E949E1FA6
:102FBC0021C00E94C436A091BD35A130C9F40E9435
:102FCC00B238A3E00E94BB380E94DB38A0919B333F
:102FDC00B0919C3380919D3390919E330E94B52C7F
:102FEC00E0935C310E94DB380E9413390E940B394C
:102FFC000E94D738E991EFBFF991E991B991A99164
:10300C009991899179916991F990199009901895F4
:10301C001A930A930FB7F894E0915000E260E09392
:10302C005000E0914100E0781E2FE8EDE4BF1093D2
:10303C004100E0916000EE7FE0936000E091510070
:10304C00E270E1F3E0914000E87FE1601E2FE8EDD3
:10305C00E4BF10934000E0915000E27EE0935000FA
:10306C00E091B400EC7FE093B4000FBF099119918B
:10307C000895F894E091A200E873E7601E2FE8ED44
:10308C00E4BF1093A200E0E0E093A100C1DF0E9436
:10309C00EE050E9441090E94570E0E94D6060E941E
:1030AC005C390E94670F0E94FA0F0E949037E0E58E
:1030BC00F4E00E94CA380E9460397894A1E00E9422
:1030CC006339E061E09384064BDB0E945C390E941B
:1030DC0069390E946F397BDB0E945C390E94693927
:1030EC000E946F39ABDB0E945C390E9469390E94E7
:1030FC009037EAE5F4E00E94CA380E9460390E94D9
:10310C006F390E9493100E945C390E949037EBE655
:10311C00F4E00E94CA380E9469390E94D1380E949A
:10312C00E50F0E949037ECE7F4E00E94CA380E9449
:10313C00780E7894A8ECB0E00E94683D0ADD0E94FD
:10314C00E50FE1E0E09301060E947539E1E0E093C0
:10315C000606A4E6B0E00E94683D0E9475390E9404
:10316C008D38AAE00E946339EF7EE0938406AAE0D2
:10317C000E946339E061E09384060E949037E6E890
:10318C00F4E00E94CA380E94780EA1E0AFDBE09315
:10319C00AE36F093AF36E091AE36E09315310E9427
:1031AC003E39E09316310E94F3020E9440030E94C4
:1031BC00CA0E0E942E0F0E94A50FAAE0B0E00E943A
:1031CC00683D0E949037E6E9F4E00E94CA380E94FC
:1031DC006039A1E0B0E00E94D040EF3FAFEFFA07BA
:1031EC00AFEF6A07AFEF7A0731F4A1E0B0E00E94CD
:1031FC009E350E94DD400E949037E3EAF4E00E9485
:10320C00CA380E946039A0912404B09125048091A1
:10321C00260490912704A132E8ECBE07E3EB8E075D
:10322C00E6E59E0730F4E1E2F8EC63EB76E50E940C
:10323C00AC35E0918406EF7EE09384060E94C503D2
:10324C000E94B105E2E0E093E7070E9496110E940C
:10325C007C390E9417417CF4A0915336B0915436BE
:10326C008091553690915636E0E0F0E060E772E4DC
:10327C000E94FB3E08F020C0E0915736F091583682
:10328C006091593670915A36A0E0B0E086E993E42B
:10329C000E94FB3E78F4A0915736B091583680913D
:1032AC00593690915A36E0E0F0E46EE474E40E94F2
:1032BC00FB3E08F001C001C028C00E947C39A0E090
:1032CC00B0EA8AE295E40E94183E0E941638E0911A
:1032DC003736E0931931A0913736B091383680915A
:1032EC00393690913A36E8E00E945A3FE0931A3111
:1032FC000E948539E0931D310E948539DF01CB0195
:10330C00E8E00E945A3FE0931E31E091BD35E03079
:10331C0021F00E94553781DB42DB3EDA74DAAADAFF
:10332C00E0919E36E078E03821F4E0912331E260C0
:10333C0007C0E0919E36E07829F4E0912331ED7FCF
:10334C00E0932331E0919636E071E03121F4E09185
:10335C002331E46007C0E0919636E07129F4E091E6
:10336C002331EB7FE0932331E0919636E072E0322B
:10337C0021F4E0912331E86007C0E0919636E072C9
:10338C0029F4E0912331E77FE0932331E0919636E5
:10339C00E270E23021F4E0912331E06107C0E0916A
:1033AC009636E27029F4E0912331EF7EE0932331DD
:1033BC00E0919E36E870E83021F4E0912331E06230
:1033CC0007C0E0919E36E87029F4E0912331EF7D3F
:1033DC00E0932331E0919E36E071E03121F4E091ED
:1033EC002331E06407C0E0919E36E07129F4E0914E
:1033FC002331EF7BE0932331E091A636E074E03487
:10340C0021F4E0912331E06807C0E091A636E07426
:10341C0029F4E0912331EF77E0932331E82DE2702A
:10342C00E23021F4E091A836E26005C081FC05C0D1
:10343C00E091A836ED7FE093A836E82DE470E430F7
:10344C0021F4E091A836E46005C082FC05C0E0914F
:10345C00A836EB7FE093A836E82DE870E83021F42D
:10346C000E948D39E06405C083FC05C00E948D3933
:10347C00E068E0939836E82DE071E03121F4E091BA
:10348C00A836E86005C084FC05C0E091A836E77F4B
:10349C00E093A836E82DE072E03221F4E091A836F2
:1034AC00E06105C085FC05C0E091A836EF7EE09395
:1034BC00A836E82DE074E03421F4E0919836EE7FE4
:1034CC0005C086FC05C0E0919836E160E093983623
:1034DC00E82DE078E03821F4E091A036EE7F05C0CD
:1034EC0087FC05C0E091A036E160E093A0360E9415
:1034FC00E3139AD9D0D9A0915231A13021F0A091E7
:10350C005131A13019F5E0914D31F0914E3160916E
:10351C004F31709150310E94B9400E944C370E943B
:10352C00B9400E949E350E94B940A9E4B1E30E94C3
:10353C0030080E94A335A1E0B0E00E94DD400E945B
:10354C001407E0E0E0935131E09352317BCEFFCF92
:10355C00AA930E94334120E00C81AD81BE813D9144
:10356C00AD83BE8318E0220FE22FE327E07811F041
:10357C00E9E02E27330F1150B1F7015071F7E22F0C
:10358C00EE0FE1600E943A4168C51A93E2E3E093C2
:10359C00B936EFEFE093C308E091C208E078E1F3AD
:1035AC00EFEFE093C308E091C208E078E1F31091EB
:1035BC00C3081F3F21F0E091B936E03009F401C097
:1035CC00EFCFE12FC9C4E1E0E0934506EFEFE093C4
:1035DC00C308E091C208E078E1F30895BA93AA9386
:1035EC000E943341E4E1E093B836EFEFE093C30877
:1035FC00E091C208E078E1F31091C3081F3F21F479
:10360C00E091B836E03009F401C0EFCF1E3F21F055
:10361C00E0E00E943A41F1C22E813F81EFEFE0934E
:10362C00C308E091C208E078E1F33F932F932F5F3A
:10363C003F4FE091C308AF91BF91EC93EFEFE09354
:10364C00C308E091C208E078E1F33F932F932F5F1A
:10365C003F4FE091C308AF91BF91EC93EFEFE09334
:10366C00C308E091C208E078E1F33F932F932F5FFA
:10367C003F4FE091C308AF91BF91EC93EFEFE09314
:10368C00C308E091C208E078E1F33F932F932F5FDA
:10369C003F4FE091C308AF91BF91EC93EC81FD815A
:1036AC003497EC83FD8309F0B9CFEFEFE093C308B7
:1036BC00E091C208E078E1F3EFEFE093C308E0910A
:1036CC00C208E078E1F3E1E00E943A4196C2AA9385
:1036DC000E9433415ADFEF3F21F0E0E00E943A4173
:1036EC00BCC4EC81E093C308E091C208E078E1F33C
:1036FC00AC81AD3FC1F100E02D813E81D9012F5F3E
:10370C003F4FEC91E093C308E091C208E078E1F3FD
:10371C00D9012F5F3F4FEC91E093C308E091C208B1
:10372C00E078E1F3015051F7EFEFE093C308E0913B
:10373C00C208E078E1F3EFEFE093C308E091C20830
:10374C00E078E1F3EFEFE093C308E091C208E07892
:10375C00E1F31091C308E12FEF71E53021F0E0E0C7
:10376C000E943A417AC4E1E00E943A4176C40E9438
:10377C00BE401A930A93EE81E07881F0EE81EF77E8
:10378C00EE83E7E7EA93A0E0B0E080E090E0EFDFC3
:10379C000E2F023018F0198108815FC4AE81AC3451
:1037AC0059F011DFE1E0E0934606EFDEEF3F21F048
:1037BC00EFEF1981088151C4EE81E093C308E091C9
:1037CC00C208E078E1F3ED81E093C308E091C20810
:1037DC00E078E1F3EC81E093C308E091C208E07873
:1037EC00E1F3EB81E093C308E091C208E078E1F3E8
:1037FC00EA81E093C308E091C208E078E1F311E0BC
:10380C00AE81A03411F415E904C0AE81A83409F4DA
:10381C0017E81093C308E091C208E078E1F3AE8199
:10382C00AC3439F4EFEFE093C308E091C208E078D0
:10383C00E1F31FEFEFEFE093C308E091C208E078EB
:10384C00E1F30091C30807FF02C0115009F401C055
:10385C00F1CFE02F1981088100C4BA93AA931A936F
:10386C0014E0EFEFE093C308E091C208E078E1F3D5
:10387C00A981BA811196A983BA831197E091C308E3
:10388C00EC93115071F7D3C4AA9324970E9433413F
:10389C00E885E03011F0E1E0C9C0EAE0E093B83629
:1038AC00E091B836E030E1F7E091B736E27009F01C
:1038BC00BBC0E1E0E0934106E0934506E0EAE0930B
:1038CC004606E0E4E0934206E8E1E0935606E0EBBE
:1038DC00E0934106E3E5E093C00835E01AE0EFEF32
:1038EC00E093C308E091C208E078E1F31150B9F716
:1038FC00E0E4EA93A0E0B0E080E090E038DF0E2F47
:10390C003150013011F0303009F401C0E7CF30E014
:10391C00013009F068C0E4E6E093B836E8E4EA93D5
:10392C00AAEAB1E080E090E022DFE13091F5DE011F
:10393C00149693DFAE81A13019F4AF81AA3A09F045
:10394C0027C0E091B836E03049F0E9EEEA93A0E008
:10395C00B0E080E090E40BDFE03009F401C0F1CF7F
:10396C00E091B836E03049F0EAE7EA93A0E0B0E045
:10397C0080E090E0FCDEE03009F00AC0DE01149635
:10398C006CDFEC81E07411F0ECE001C0E4E03E2F60
:10399C002AC0E9EEEA93A0E0B0E080E090E0E7DE38
:1039AC00E23018F432E009EE02C031E001E4E091BB
:1039BC00B836E03041F00A93A0E0B0E080E090E04F
:1039CC00D6DEE03009F401C0F2CFE091B836E03039
:1039DC0049F0E0E5EA93A0E0B2E080E090E0C7DED9
:1039EC00E03009F030E03093BA36EDDD303049F09C
:1039FC00E091B736EE7FE093B736E0EDE093C00888
:103A0C0013C0E1E0E0934606C0DDDDDDE0E0E093CD
:103A1C00C008E0EFE0934206E1E0E0934206E0915B
:103A2C00B736E160E093B736E091B7360E943A4181
:103A3C0029960895AA93E881E03011F0E1E002C0E4
:103A4C00E091B73621960895AA93EF81E03019F4EE
:103A5C00E881E03011F4E4E0D0C0E091B736E170D9
:103A6C0011F0E3E0CAC0E091BA36E87071F4E98174
:103A7C00FA816B817C81A0E0B2E080E090E00E9452
:103A8C00BE3FE983FA836B837C83A881A130A9F4C0
:103A9C00E1E5EA93AA81BB818C819D8168DEE030EF
:103AAC0059F4ED81FE81FA93EA93A0E0B2E096DD41
:103ABC00E03011F0E0E0E88323C0E2E5EA93AA816C
:103ACC00BB818C819D8153DEE030D1F4ED81FE8190
:103ADC00FA93EA93A0E0B2E081DDE03051F0ED81A1
:103AEC00FE81E050FE4FED83FE83E881E150E883D8
:103AFC0069F7ECE4EA93A0E0B0E080E090E037DE18
:103B0C0062DDE881E03011F0E1E001C0E0E075C079
:103B1C00AA93EF81E03019F4E881E03011F4E4E08D
:103B2C006CC0E091B736E17011F0E3E066C0E09153
:103B3C00B736E47011F0E2E060C0E091BA36E8709C
:103B4C0071F4E981FA816B817C81A0E0B2E080E0C4
:103B5C0090E00E94BE3FE983FA836B837C83A8814B
:103B6C00A130A1F4E8E5EA93AA81BB818C819D8107
:103B7C00FEDDE03051F4ED81FE81FA93EA93AEEF75
:103B8C00A6DDE03011F0E0E0E88330C0E091BA3619
:103B9C00E67039F0E7EDEA93A981BB2788279927CE
:103BAC00E6DDE9E5EA93AA81BB818C819D81DFDDAD
:103BBC00E030E1F4ED81FE81FA93EA93ACEF87DD1E
:103BCC00E03051F0ED81FE81E050FE4FED83FE833D
:103BDC00E881E150E88371F7E0E0F0E0FA93EA93D2
:103BEC00ADEF75DDE03011F4E1E0E883ECDCE88169
:103BFC00E03011F0E1E001C0E0E028960895BA93BE
:103C0C00AA9360970E943341EF89E03011F0E4E011
:103C1C008BC1E091B736E17011F0E3E085C111E0A2
:103C2C00EE89E03041F4E1E0E0934606AEDCEF3F94
:103C3C0009F410E077C1E13009F05BC0E9E4EA93E4
:103C4C00A0E0B0E080E090E092DDE03049F4FE01CD
:103C5C003496FA93EA93A0E1B0E0C0DCE03009F4CA
:103C6C0047C0EC81E295EF70E695E695E13069F49A
:103C7C00E0E0FC85AD85B0E0EA0FFB1F31969F01BB
:103C8C00D90188279927EAE02CC0E985EF70AE2F7F
:103C9C00EE85E078EE1FE0E0EE1FAE0FED85E370F1
:103CAC00EE0FEA0FEE5F0E2FEC85E295EF70E695C6
:103CBC00E695AE2FEB85F0E00E94763FB0E0AE0FBC
:103CCC00BF1FEA85E370F0E00E94763FFE2FE0E034
:103CDC00EA0FFB1F31969F01D90188279927E02F06
:103CEC00E9500E944E3FAC89BD890E94974010E07C
:103CFC0019C1E23041F4AC89BD89E0E0F2E0ED930A
:103D0C00FC9310E00FC1E33009F0AFC0E091BA367C
:103D1C00E470A1F1EDECEA93A0E0B0E080E090E07B
:103D2C0026DDE03051F5EFEFE093C308E091C208D7
:103D3C00E078E1F3FE013496FA93EA93A0E1B0E067
:103D4C004DDCE030D1F000E3003049F0EFEFE093D0
:103D5C00C308E091C208E078E1F30150F5CFEE859D
:103D6C00E295EF70A0E1B0E080E090E00E944E3F61
:103D7C00AC89BD890E94974010E076C0E9E4EA93D3
:103D8C00A0E0B0E080E090E0F2DCE03009F06CC044
:103D9C00FE013496FA93EA93A0E1B0E01FDCE03028
:103DAC0009F462C0E091BA36E27051F1EE85EF731E
:103DBC00FF27662777270E94893F7F936F93FF9396
:103DCC00EF93EF85E078FF2766277727DF01CB019C
:103DDC00E7E00E94663FAF91BF918F919F910E9447
:103DEC001F3FEF5FFF4F6F4F7F4FDF01CB01E98923
:103DFC00E295EF70E695E695E1500E944E3F2FC09C
:103E0C00EE85EC77E695E695FF2766277727EF5F3B
:103E1C00FF4F6F4F7F4F7F936F93FF93EF93EF8520
:103E2C00E370FF2766277727DF01CB01E3E00E94D1
:103E3C004E3FDF01CB01EF85E07EE295EF70E6951A
:103E4C00FF27662777270E941F3FEF5FFF4F6F4FBB
:103E5C007F4FAF91BF918F919F910E94BE3FAC89D4
:103E6C00BD890E94974010E05DC0EA3039F4E091C2
:103E7C00BA36AC89BD89EC9310E054C0EB3011F428
:103E8C0009E403C0EC3001F50AE40A93A0E0B0E0C9
:103E9C0080E090E06CDCE030B1F4EC89FD89FA93C1
:103EAC00EA93A0E1B0E09ADBE03069F0EC89FD899F
:103EBC00FA93EA93AFE04CDBAE2FEC89FD89E785F2
:103ECC00EA1709F410E02EC0ED3071F4EAE7EA933A
:103EDC00A0E0B0E080E090E04ADCE03021F4AC8976
:103EEC00BD89BBDC10E01EC0EE30D9F4EDECEA93DA
:103EFC00A0E0B0E080E090E03ADCE03089F4EFEF55
:103F0C00E093C308E091C208E078E1F3EC89FD8905
:103F1C00FA93EA93A0E4B0E061DBE03009F010E042
:103F2C0001C014E050DBE12F0E943A4168960895DD
:103F3C001A931091B836103019F011501093B836FE
:103F4C001091B936103019F011501093B936E09128
:103F5C00B736EB7FE093B736199108952797A09168
:103F6C000030B0910130109731F0A0910230B09137
:103F7C000330109729F4E0E0F0E061E27AE36DC0E1
:103F8C00FE013696FA93EA93FE013796FA93EA937A
:103F9C00DE011896E0910030F09101300995FE0198
:103FAC003396FA93EA93FE013496FA93EA93DE0180
:103FBC001496E0910230F09103300995E881F98173
:103FCC00EC5BF74066277727DF01CB01E9E10E9424
:103FDC004E3F7F936F93FF93EF93EA810E94953945
:103FEC00E5E10E944E3FAF91BF918F919F910E944E
:103FFC00383FDF01CB01EB81F0E00E94AA3F0E9429
:10400C009F3F0E94383F7F936F93FF93EF93EE8116
:10401C000E949539EBE00E944E3FAF91BF918F917A
:10402C009F910E94383F7F936F93FF93EF93ED81A5
:10403C000E949539E5E00E944E3FAF91BF918F9160
:10404C009F910E94383FDF01CB01EC81F0E0F595A8
:10405C00E7950E94AA3F0E94383F27960895AA939D
:10406C001A93EA81FB81E4911E2FE03019F0E9816B
:10407C00E11709F406C0EA81FB813196EA83FB83E0
:10408C00F0CFE12FF0E01881249608950E94BE40F5
:10409C0024971A93A985BA859E960E949B390E94F3
:1040AC00A2390E94A7390E94274109F450C0E98522
:1040BC00FA85E481E03089F10E94AC39E030E1F519
:1040CC00A985BA851496E0E0EC93E985FA850E94FF
:1040DC00BB390D01A985BA855A960E948C40D00136
:1040EC000E941F3F0E94A7390E942C41B0F4E98521
:1040FC00FA851381123088F0A985BA855A960E94E8
:10410C008C400E94A7390E941F3FE983FA836B837E
:10411C007C830E94AC391150EDCF0E94A2390E94D1
:10412C001D41A9F0E985FA85A181AA93EA85FB8551
:10413C00F2960E94C03921F0E1E018812B96089587
:10414C000E94A239A985BA859E960E949740E0E00C
:10415C00188158C4BA93AA931A93E981FA810E94E0
:10416C00CA391E2F103009F061C0A981BA81AC91F7
:10417C00A33029F4E981FA81E581E03009F44AC0E1
:10418C00A981BA819E960E94D239E981FA81F29670
:10419C000E94A537A0E0B2E00E94CE31E981FA81FD
:1041AC00F296E250FE4FA5E5BAEAA083B183E9810D
:1041BC00FA81F296A2E5B2E581E691E40E94D63945
:1041CC00EC51FE4FA2E7B2E781E491E60E94D639AA
:1041DC00E851FE4F0F01A981BA811E960E94DC396D
:1041EC00F296E451FE4F0F01A981BA811A960E94F2
:1041FC00DC39A181AA93EA81FB81F296FA93EA93C6
:10420C00EC81FD810E94E43983DCA981BA81159689
:10421C00E0E0EC93E981FA81A181AA93E0E0EA93D2
:10422C00A0E0B0E0ECDCE03009F011E0E12F188107
:10423C00239608950E94BE4024970E9433410E9409
:10424C00A9360E94EC3950F0AC85BD855E960E9473
:10425C008C400E94A9360E942C4118F00E94EB352C
:10426C0060C0AC85BD8592960E94F439AC85BD8545
:10427C00EC91F0E0E130A0E0FA0739F528853985BA
:10428C00F901F695E7952E0F3F1F0E94F73909F0BB
:10429C0046C00E940C3A0C9111272F5F3F4F0E9491
:1042AC00F739E9F50E940C3AEC91FE2FE0E00E2B69
:1042BC001F2BE885E17021F0F8010E94803F02C0BD
:1042CC00F801FF70662777272CC0E230A0E0FA07D0
:1042DC0079F40E94143A0E941D3A0E94243AF9F48F
:1042EC00A885B985E2E00E942E3A0E94373A19C09F
:1042FC00E330A0E0FA0799F40E94143A0E943C3A89
:10430C000E94243A61F4A885B985E4E00E942E3A13
:10431C000E948C40EF7FFF7F6F7F7F7002C00E94F6
:10432C00433A0E943A412E9608950E94BE4024972B
:10433C000E9431410E94483A0E94EC3950F0AA89FF
:10434C00BB895E960E948C400E94483A0E942C4188
:10435C0010F052E085C0AA89BB8992960E948C40CD
:10436C00EE83FF8368877987AA89BB89EC91F0E09B
:10437C00E130A0E0FA0709F043C00E851F85F80173
:10438C00F695E7950E0F1F1F0E944D3A09F063C07A
:10439C000E94603A51F0D901EC91EF70AE2FEA8592
:1043AC00F0E00E94723FEA2B01C0EA85D901EC9340
:1043BC000F5F1F4FAA89BB891496E1E0EC930E9412
:1043CC004D3A09F048C00E94603A49F00E946B3A9D
:1043DC00E4E00E94663FFF27662777270EC0D901CD
:1043EC00EC91E07F1E2E0E946B3AE8E00E94663F43
:1043FC00FF2766277727EF70E129D901EC932BC0B3
:10440C00E230A0E0FA0789F40E94703A0E941D3A4B
:10441C000E94753A01F5AE85BF85E2E00E947D3AB7
:10442C00AA85BB85A083B18316C0E330A0E0FA0750
:10443C0089F40E94703A0E943C3A0E94753A59F4F1
:10444C00AE85BF85E4E00E947D3A0E946B3A0E94E3
:10445C00B44001C052E0AA89BB891496E1E0EC9308
:10446C00E52F0E943841649608950E94BE4024971F
:10447C001A930E94863A0E94EC3918F00E948B3AEB
:10448C0010F012E044C010E00E948B3A08F03FC0DC
:10449C00E985FA85FA93EA93AF81B88589859A857F
:1044AC00C9DEE983FA836B837C830E94943A0E9471
:1044BC001D4169F10E94A7390E94993A11F412E04A
:1044CC0026C00E94A7390E94A13A11F411E01FC026
:1044DC00E985FA85FA93EA93EF81F88569857A85FF
:1044EC000E94B9400E94A93A20DF1E2F103079F4A7
:1044FC00E985FA850E94AE3A29F00E94B33A1596E6
:10450C00E1E0EC930E94943A0E94BE3ABDCFE12FB9
:10451C00188178C20E94BE406097AC89BD895E96B6
:10452C000E948C400E94F0350E94C33AB1F4AC89D1
:10453C00BD891A960E94F4390E94C73A0E94214103
:10454C0039F00E94CC3A0E94C73A0E942C4120F0CC
:10455C000E94EB350E945B361DC00E94CF3A0E9430
:10456C00D43A68DE0E9442360E946E360E94EC39C4
:10457C0018F40E94EB3585C00E94CC3A0E946E362E
:10458C000E942C4118F40E94AE367BC00E94323639
:10459C000E945B360E9478360E9456360E94733613
:1045AC000E9400360E9456360E94CC3A0E94A936D0
:1045BC000E942C4160F0E2E0F0E060E070E00E94CC
:1045CC0056360E94D93A18F40E949E355AC00E9461
:1045DC00CF3A0E946B3A2EDE0E94DE3AA1F00E9486
:1045EC006E360E94A13A29F00E946E360E94993ACA
:1045FC0019F40E94AE3645C00E94D93A19F40E94B3
:10460C009E353FC0CBCF0E94CF3A0E94E33A0E9426
:10461C00B940AFEFBFEF8FEF9FE087DEE03019F0CE
:10462C000E94433A2EC00E94C33A71F00E94CF3AC6
:10463C000E94E83A0E94B9400E94483A76DEE03087
:10464C0019F00E94433A1DC00E947336AC89BD8993
:10465C001A960E949740EC89FD890E94AE3A79F037
:10466C00AC89BD891E960E94924031976040704083
:10467C000E949C40AC89BD891596E1E0EC930E94A8
:10468C007336669608950E94BE400E94CC3AE25062
:10469C00F040604070400E94F035EC81FD81A68DA9
:1046AC00B78D80A191A1E2E0F0E060E070E00E94A3
:1046BC00ED3A0E94F23A0E942C4118F00E949E356D
:1046CC0075C3EC81FD81E281F0E00E94F23A0E9418
:1046DC00AA3F0E94BE3F7F936F93FF93EF93AC81F1
:1046EC00BD819A960E948C40AF91BF918F919F9102
:1046FC000E941F3F5BC3BA93AA9324971A930A9301
:10470C00EE81FF81A885B9851496ED93FC93A8855D
:10471C00B98516960E94F53A0E94FC3A0E94993A85
:10472C0029F00E94013B0E94063B10F0E2E076C0AB
:10473C000E940E3B29F40E94013BA081A33009F09A
:10474C0006C00E94013BB696DF010E94F53A0E941A
:10475C000E3BA1F40E94153B3896DF010E94884065
:10476C00AE81BF81AE17BF0710F0E2E057C00E94C8
:10477C00013BB696DF010E948C4035C00E94013B84
:10478C00E281A0E1EA9F8001AE81BF81A017B10751
:10479C0018F10E94013BFA93EA930E94C73A4ADD52
:1047AC000E941F3B0E94FC3A0E94A13A11F4E1E0E6
:1047BC0035C00E94FC3A0E94EC3928F00E94013B63
:1047CC000E94063B10F0E2E029C0EE81FF81E01B65
:1047DC00F10BEE83FF83D8CF0E94153BFA93EA933B
:1047EC000E94C73A50DFDF01CB01EE81FF810E94AE
:1047FC00803F0E94243BA885B9851E960E94974055
:10480C000E94013BF296DF01EE81FF810E94293B61
:10481C00A885B9855296ED93FC93E0E01981088147
:10482C002A960895AA9324970E943341A985BA85A4
:10483C0014960E94884031968F01002E012A31F087
:10484C00A985BA851E960E94313B11F4E4E0D8C0CC
:10485C00F801EF7009F0C1C00E94B33A1A960E9499
:10486C00313B61F40E94363B3896DF010E94884050
:10487C000E171F0710F0E4E0C3C0AFC0F8010E9490
:10488C00803F0F010E94363BE281F0E03197E0213E
:10489C00F121309709F0A1C00E94363B0E943B3BAE
:1048AC00C9DC0E945B360E94C73A0E94EC3910F4B6
:1048BC00E2E0A6C00E94C73A0E94A13A11F4E1E0DE
:1048CC009FC00E94363B7E96DF010E948C400E9466
:1048DC00C73A0E942C4108F470C0E885E03011F40E
:1048EC00E4E08EC00E94363B0E943B3B13DE0E94EC
:1048FC00443B0E941D4111F4E7E082C00E94C73A7C
:10490C000E94993A11F4E2E07BC00E94C73A0E94DF
:10491C00A13A11F4E1E074C00E94363B0E94CA39FE
:10492C00E03011F0E1E06CC00E94363BF2960E9440
:10493C00A537A0E0B2E00E94CE310E94363BDF01E9
:10494C00BE96FF93EF93FD010E94463BAF91BF9142
:10495C000E94974030E00E94363BE2813E17C8F43B
:10496C000E94363B3496A1E0A0830E94363B0E9405
:10497C00CA39E03011F0E1E043C00E94363BBE96EC
:10498C00DF010E9492400E9400360E949C403F5FD3
:10499C00E2CF0E94363BBE96FF93EF93DF010E945D
:1049AC008C40DF01CB01E32FF0E00E94AA3F0E9474
:1049BC00ED3AAF91BF910E9497400E947836A9853D
:1049CC00BA851A960E9497400E94363B0E94463B3D
:1049DC00A985BA851E960E949740F801A985BA85CB
:1049EC001496ED93FC930E94363BF296DF01F8018E
:1049FC000E94293BA985BA855296ED93FC93E0E081
:104A0C000E943A412B9608950E944E3B21F0E12FD3
:104A1C000E943A41CBC10E945D3B01F5AC81BD8146
:104A2C0052962D913C91D9010C91003011F414E067
:104A3C0015C0F901E385E87031F40E946E3B0E94C9
:104A4C00A331E03009F001C009C0EC81FD81FA937B
:104A5C00EA93A0E0E7DE1E2F1030E9F2E12F0E946E
:104A6C003A41A4C10E944E3BB1F40E945D3B99F4C3
:104A7C00EC81FD81A289B3890C91053E11F00030C7
:104A8C0009F409C0EC81FD81FA93EA93A1E0CADE36
:104A9C001E2F103051F3103029F50E945D3B11F59B
:104AAC00AC81BD8152962D913C913A932A93E0E0D2
:104ABC00EA93A0E2B0E00E94CE310E946E3B0E94CD
:104ACC00BC31AC81BD8154960E948840E385E8716D
:104ADC00D9011C96EC93AC81BD810E948840349620
:104AEC00A1E0A083E12F0E943A4160C1BA93AA933E
:104AFC0025970E943141AD85BE8554964D915C91B0
:104B0C005A934A93E0E2EA93ABE0B0E00E94CE31D4
:104B1C00E0E0E887E9871E2F2E2FE8E0EA87AB85D7
:104B2C00BC850E94793B0E947E3BAE0FBF1FAC91AF
:104B3C00AE3209F50E94833B0E3221F4A885B9856B
:104B4C0013970CF003C00E948F3BF4CF0F3221F06F
:104B5C000C3511F0013208F402C0E6E06DC00E9481
:104B6C007E3B0E94963B10F4E4E201C0E0E2DA01E5
:104B7C001B96EC9360C00E94833B013220F00F32F5
:104B8C0011F00C3509F432C00E3219F0EA852E17EB
:104B9C0068F0AA85A83011F40E3211F0E6E04CC092
:104BAC0028E0EBE0EA87110F110F1FC0003818F056
:104BBC001360E6E041C0EAE0F2E0FA93EA93A02F3A
:104BCC004EDA309711F0E6E037C0013410F00B35B7
:104BDC0008F002C0126007C0013610F00B3708F065
:104BEC0002C0116000520E948F3BC5CF0E947E3BD9
:104BFC000E94963B10F4E4E001C0E0E00E2F203060
:104C0C0011F4E6E019C0DA01AC91A53E19F4DA0111
:104C1C00E5E0EC93AA85A83011F4110F110FE12FE8
:104C2C00E370E13009F40061E12FEC70E43009F439
:104C3C000860FA010387E0E00E9438412F9608953E
:104C4C00BA93AA930E943341E1E0E03029F0AC81A1
:104C5C00BD81AC91A03209F006C0EC81FD8131968A
:104C6C00EC83FD83F1CFAC81BD81AC91AF3229F0E7
:104C7C00AC81BD81AC91AC3559F4EC81FD813196A0
:104C8C00EC83FD83AE81BF8116960E94D2390AC097
:104C9C00AE81BF810E9488407696DF010E948C40D5
:104CAC000E949E3BAC81BD81AC91BB27909760F478
:104CBC000E94A43BA0E0B0E01EDD1E2FAE81BF81A0
:104CCC0052960E9457393DC00E94A43BDE011696B5
:104CDC000DDF1E2F1030A9F5AE81BF8195DE1E2F82
:104CEC00AE81BF8154960E948840E385E4700E2FFC
:104CFC00103039F0143011F4003009F001C015E017
:104D0C0020C00030F1F4AE81BF8152962D913C91C0
:104D1C00F901E385E07111F415E013C00E94A93B81
:104D2C000E949F3F7F936F93FF93EF930E94AC3B46
:104D3C00AF91BF918F919F910E94B13B0E949E3B7E
:104D4C00C3CFE12F0E943A41289608950E94BE409D
:104D5C00EC81FD81A181AA93ED81FE81F296FA93FB
:104D6C00EA93EB81FC816D817E810E94B63B11F050
:104D7C00E3E01CC0EC81FD810E94BD3B11F0E2E040
:104D8C0015C0AC81BD81A859BF4F0E94C73B11F41F
:104D9C00E0E00CC0EC81FD81F296EE5AFF4FDF0192
:104DAC000E94C73B11F4E0E001C0E1E026960895B3
:104DBC00AA9364970E943141AD8DBE8D0E948840AC
:104DCC00E887F987A885B985EC91E0530E2F0A3056
:104DDC0020F41196AC91AA3309F00AC0E885F98544
:104DEC003296E887F987AD8DBE8DED93FC9302C0AA
:104DFC000091BF36013010F0EBE0CAC1E02F0E94E9
:104E0C00D53B0E94793BAB8DBC8DED93FC93EE8131
:104E1C00FF81309711F4ECE0BBC1AE81BF81EC9106
:104E2C00E03089F0EE81FF81A1810E94201D5E2F70
:104E3C0050FD09C0EA8DE03011F052FD01C002C0F6
:104E4C00EAE0A6C1A4C1AE81BF81E0E0EC93E02F03
:104E5C00AE81BF811196EC93EE81FF81A1810E94FE
:104E6C004A1C5E2F50FF02C0E3E092C1EA8DE03095
:104E7C0011F052FD01C002C0EAE08AC10E94A43BBD
:104E8C000E949E35E88FF98F6A8F7B8FDF01CB01F3
:104E9C005DDF1E2F1130C9F4EE81FF81F296E254D2
:104EAC00FE4F9F01E481E03081F0D90118960E94F9
:104EBC008C40EE8BFF8B688F798F0E94A43BA88D62
:104ECC00B98D8A8D9B8D42DF1E2F133011F4E1E0DA
:104EDC005FC1103049F4AE81BF81DD960E948840DD
:104EEC00E030A2E0FA0711F0EDE052C1AE81BF81D3
:104EFC00A85BBF4F0E94373A0E94DD3B0E94E83A04
:104F0C000E941D4141F4AE81BF81AA5ABF4F0E943D
:104F1C008C400E94DD3B0E94E83AAE81BF815A96DC
:104F2C000E949740EE81FF81EE5BFF4FE081AE81E6
:104F3C00BF811396EC93EE81FF81E381F0E00E9438
:104F4C00D43A0E94AA3F0E94BE3F0E94DD3B0E94C1
:104F5C00E23B0E94E93BAE81BF8192960E94974052
:104F6C00EE81FF81E7ADAE81BF811296EC93AE81ED
:104F7C00BF81AD5BBF4F0E948840AE81BF81189648
:104F8C00ED93FC93AE81BF81AB5BBF4F0E94373A70
:104F9C00EE87FF87688B798B0E941D4151F4AE819F
:104FAC00BF81AE5ABF4F0E948C40EE87FF87688B43
:104FBC00798B0E94E23B0E94483A662777270E9431
:104FCC00ED3A0E94D43A0E94293F7F936F93FF934E
:104FDC00EF930E94EE3BAF91BF918F919F9166270B
:104FEC0077270E942E3FEE81FF81E281F0E00E9444
:104FFC00AA3F0E940F40EE5FFF4F6F4F7F4F0E9402
:10500C00F63BAE81BF815E960E94974011E00E94F4
:10501C006B3AA73FEFE0BE07E0E08E07E0E09E07AB
:10502C0008F012E00E946B3AA73FEFEFBE07E0E0FA
:10503C008E07E0E09E0708F013E0133039F4AE81E0
:10504C00BF81A25ABF4F0E948C4002C00E94FB3B02
:10505C00AE81BF8196960E9497400E94FB3B7F9346
:10506C006F93FF93EF930E94EE3BAF91BF918F91A3
:10507C009F910E94243BAE81BF819A960E949740DB
:10508C00AE81BF811E960E94433A0E949740AE812A
:10509C00BF811496E0E0EC93133009F05FC0AE8151
:1050AC00BF811596EC93AE81BF81AE59BF4F0E9464
:1050BC0088400E94E93BAE81BF8152960E94974086
:1050CC00EE81FF81A181AA93EF81F885F296FA9384
:1050DC00EA93E985FA850E94E4390E942A1DE030A2
:1050EC0011F5EE81FF810E94BD3BE9F4AE81BF81D9
:1050FC00D2960E948C40E235A2E5FA07A1E66A0737
:10510C00A1E47A0781F4EE81FF81F296EC51FE4F17
:10511C00DF010E948C40E237A2E7FA07A1E46A079C
:10512C00A1E67A0709F01AC0EE81FF81F296E451EC
:10513C00FE4FDF010E948C40AE81BF811A960E9407
:10514C009740EE81FF81F296E851FE4FDF010E94FD
:10515C008C40AE81BF811E960E949740AE81BF816C
:10516C001C939E960E94D239AE81BF8156960E94A6
:10517C00D239E091BD36F091BE363196E093BD3612
:10518C00F093BE36AE81BF811696ED93FC93E0E0B2
:10519C000E9438416F960895BA93AA93EA81FB81D5
:1051AC00309771F0AA81BB81EC91E03049F0EA8133
:1051BC00FB81A681B781E881F981EA17FB0711F021
:1051CC00E9E00AC0EA81FB81A1810E94201DE17007
:1051DC0011F0E3E001C0E0E024960895BA93AA939D
:1051EC001A930A93AC81A13010F0EBE01DC0EC8156
:1051FC000E94D53B0D911C91002E012A19F0D8016B
:10520C00E0E0EC93EA81FB81309721F0AA81BB812D
:10521C00E0E0EC93EC81ABEBB6E30E949537AA810E
:10522C00BB81A083B183E0E01981088125960895A4
:10523C00AA93A2970E943341A9A5BAA50E945739F7
:10524C00EEA1EF71EEA3FE01B796FA93EA93FE017D
:10525C007296FA93EA93EAA5EE71AE2FA9DD1E2F92
:10526C00103009F013C1FE013496ECA3FDA3FE012E
:10527C007096FA93EA93A9A5BAA5E2DC1E2FEEA1CB
:10528C00EC7109F496C02897103089F0143021F491
:10529C00DE015896E7DB1E2F103019F0E12F28960F
:1052AC00F5C0EEA5E860EEA72AA53BA569C0EEA562
:1052BC00E47019F0E8E02896E9C02AA53BA5022E77
:1052CC00032A21F0F901E385E17119F0E7E0289652
:1052DC00DDC0EEA5E87009F453C00E94A93B0E9402
:1052EC009F3F7F936F93FF93EF930E94AC3BAF91E3
:1052FC00BF918F919F910E94B13B0E94F035F901B3
:10530C007496A0E0B0E0A083B183F9017A96A083F3
:10531C00B183F9017C960E94A93A0E94B440A88DF1
:10532C00B98D1496E1E0EC93A88DB98D9E960E94F0
:10533C00F4390E942036A9F0E88DF98DFA93EA939E
:10534C000E94FC3A92D81E2F103011F028969EC065
:10535C000E94CC3A0E94B336A88DB98D1A960E9441
:10536C009740E88DF98DFA93EA93AE81BF818885D9
:10537C0099850E944C201E2F103011F0289686C063
:10538C00EEA5E870A1F0F9013B96A0E0A0830E9485
:10539C00B41F0E94443BD9011E960E949740A88DD1
:1053AC00B98D1496E1E0EC93EEA5E062EEA7289699
:1053BC0019C0103011F0E12F69C02AA13BA1022EB7
:1053CC00032A21F0F901E385E07111F0E4E05EC0FD
:1053DC00EEA1E27021F0F901E385E17009F402C05D
:1053EC00E7E054C0A889B9899E960E948C40A9A573
:1053FC00BAA55A960E949740EAA1FBA1A9A5BAA505
:10540C005E96ED93FC93EEA1A9A5BAA51496EC9328
:10541C000E94A93B0E949F3F7F936F93FF93EF9352
:10542C000E94AC3BAF91BF918F919F910E94B13B79
:10543C00A9A5BAA51E960E949740D9015C960E9418
:10544C008C40A9A5BAA51A960E949740A9A5BAA501
:10545C0016960E94D239A9A5BAA51596EFEFEC9332
:10546C00A9A5BAA556960E94D239E889F989A9A5A9
:10547C00BAA5ED93FC93A889B98916960E94884029
:10548C00A9A5BAA51296ED93FC93E0E00E943A41CF
:10549C00AB960895BA93AA932A970E943141EC894E
:1054AC00FD89EE83FF83A889B9890E9457390E9430
:1054BC00023C0E94073C0E940C3C11F0E12FB2C14F
:1054CC00EE89FF89A481A07811F0E2E0ABC1EE89EE
:1054DC00FF89A481A27011F4E7E0A4C1EE89FF89D1
:1054EC00A285B38584859585EA89FB890E94243B36
:1054FC007F936F93FF93EF930E94133CAF91BF91F7
:10550C008F919F910E942C4118F4E0E0EA8BEB8B79
:10551C00EA89FB89309709F46BC10E94193CFD01A3
:10552C00BC01F170309709F01FC1EE89FF8905802D
:10553C000E94023CE2810E1608F44AC0AE89BF8973
:10554C0016960E94313BA1F4AE89BF891E960E942B
:10555C008C400E94DE3A59F40E94023C0E94203C8E
:10556C000E944236AE89BF891E960E9497400CC09D
:10557C000E94023C0E94073CA289B38984899589C8
:10558C000E9490220E9442360E94AE360E941D411B
:10559C0009F42EC10E946E360E94993A21F40E94A1
:1055AC00253CE2E03FC10E946E360E94A13A21F4F4
:1055BC000E94253CE1E036C10E94AE36AE89BF891F
:1055CC0052960E949740AE89BF891596E0E0EC9305
:1055DC00EE89FF89A481A07489F00E94023C0E948C
:1055EC002C3CE98DFA8D0E94343C0E94393C21F010
:1055FC000E94253CE1E016C10E94403C0E94023C06
:10560C000E94073CA289B389848995893CD80E9461
:10561C0056360E9473360E941D4121F40E94253C8F
:10562C00E2E000C10E94473C0E94A9360E943E372E
:10563C000E945636AA89BB89E0E0F2E00E94FC3F4A
:10564C00AF01042E052A09F464C00E94473CE40F04
:10565C00F51F0F010E94023CE281D001F0E0EA1735
:10566C00FB0750F40E94023CE281F0E0DF010E9453
:10567C00473CAE1BBF0BAD010E94023CE181EA939B
:10568C00EF81F885FA93EA93EB85FC856D857E8531
:10569C000E94B940A42F0E948E1DE03021F00E9480
:1056AC00253CE1E0BFC00E944C3C0E942E3FFA0119
:1056BC00662777270E942C41F8F4EE89FF89B09673
:1056CC000E94073C0E94343C0E94E33A0E942E3F09
:1056DC00E0E0F2E060E070E00E94BE3FA885B98592
:1056EC0088279927EA0FFB1FFA93EA93A0E0B2E010
:1056FC000E94BC310E94403CAE89BF891596EC914A
:10570C00E40FEC93FA01EE0FFF1FFE2FE0E09F0178
:10571C004DC00E944C3C0E942741C9F00E94193C8C
:10572C000D010E94133CD0010E942C4158F40E94A0
:10573C00023C0E942C3CEB85FC856D857E850E948D
:10574C00B63B09F404C00E94253CE1E06BC00E940A
:10575C007336AE89BF8956960E949740AE89BF8931
:10576C001596EC91EF5FEC930E94503CA0E0B2E0F8
:10577C00AE1BBF0B9D01EA89FB89E217F30710F4FE
:10578C002A893B890E94503CAE89BF899096EA0FCA
:10579C00FB1FFA93EA930E94573CD9010E94BC313B
:1057AC00AE89BF891496EC91E064EC93F901AE815B
:1057BC00BF81EA0FFB1FEE83FF83EE89FF890E94F6
:1057CC005C3CDF01CB01F9010E94243BD0010E941B
:1057DC009740A889B9890E948840E20FF31FED9386
:1057EC00FC93EA89FB89E21BF30BEA8BFB8B90CED3
:1057FC000E94193C0D010E94133CD0010E942741CC
:10580C0050F4AE89BF8916960E948C40AE89BF8930
:10581C001A960E949740AE89BF891496EC91E0626B
:10582C00EC93E0E00E94384168960895BA93AA93ED
:10583C0024970E9433410E94013BFA93EA93EA8534
:10584C00FB850E940C3C09F074C0E885F985A481A5
:10585C00A07209F46EC0A481A074C1F00E94013B37
:10586C00E181EA93E985FA85B096FA93EA93EB85A0
:10587C00FC850E94343C0E94393C11F0E1E05AC096
:10588C00A885B9851496EC91EF7BEC930E94013BB3
:10589C00FA93EA93EA85FB85A28DB38D848D958D61
:1058AC000E944C201E2F103009F043C0A885B985EA
:1058BC005E962D913C91D9011B96EC91E062EC9394
:1058CC00A885B9851A960E948C40D9015C960E94D5
:1058DC009740A885B9851E960E948840D9015A9692
:1058EC00ED93FC93E885F985A685B7858089918928
:1058FC00FD01BC010E949A3FD9015496ED93FC9393
:10590C000E94B41F0E94443BD90156960E949740B6
:10591C00A885B9851496EC91EF7DEC930E94013B20
:10592C003496A1E0A0830E94013BDF010E94B020CD
:10593C001E2FE12F0E943A412A960895BA93AA93FA
:10594C001A93A981BA8172DF1E2F103021F4A9811C
:10595C00BA810E945739E12F1881239608950E942D
:10596C00BE4060971A930E94623CFA93EA93EF89C7
:10597C00F88D0E940C3C09F09AC1ED89FE89A48136
:10598C00A07811F0E2E094C10E94673C0E946D3C4B
:10599C000E94274128F4ED89FE89A481A27009F0A8
:1059AC0004C00E94673C0E94723CAD89BE89169669
:1059BC000E949B390E949E350E94BE3A0E94773C01
:1059CC001596EFEFEC930E946D3C0E94214108F07C
:1059DC0011C10E94623CE281F0E00E94AA3FA0E06B
:1059EC00B2E080E090E00E94BE3F0E947F3C0E94AB
:1059FC00A7390E94214198F40E94843C0E94893C62
:105A0C007F936F93FF93EF930E94943A0E94893C8B
:105A1C00AF91BF918F919F910E942C4108F421C0AE
:105A2C000E94943A0E94B336DF01CB010E94933C52
:105A3C000E94B3360E94B43F0E94333F0E94773CD1
:105A4C0016960E948C400E946D3C0E942E3FA98BA2
:105A5C00BA8B8B8B9C8BAD89BE8952960E94983CDD
:105A6C002BC0AD89BE891E960E94983C0E949F3C1B
:105A7C000E941D41F9F40E94623C0E94203C0E944D
:105A8C00A43C0E94A93C0E94993A21F40E94AE3C8D
:105A9C00E2E00EC10E94A93C0E94A13A21F40E94AE
:105AAC00AE3CE1E005C10E949F3CAD89BE891E96CB
:105ABC000E9497400E94B53C0E949F3C0E941D4151
:105ACC0009F498C00E94933C0E946D3C0E942741AF
