:0E0000000C9492020C9400000C9400000C94DE
:10000E0000000C9400000C9400000C9400000C9462
:10001E0000000C9400000C9400000C9400000C9452
:10002E0000000C9400000C9400000C94FF170C942C
:10003E0000000C9400000C9400000C9400000C9432
:10004E0000000C9415180C9400000C9400000C94F5
:10005E0000000C9400000C94D7090C9400000C9432
:10006E0000000C9400000C9400000C9400000C9402
:10007E0000000C9400000C9400000C9400000C94F2
:10008E0000000C9400000C9400000C9400000C94E2
:10009E0000000C9400000C9400000C9400000C94D2
:1000AE0000000C9400000C9400000C947C110C9435
:1000BE0000000C9400000C9400000C9400000C94B2
:1000CE0000000C9400000C9400000C9400000C94A2
:1000DE0000000C9400000C9400000C9400000C9492
:1000EE0000000C9400000C9400000C9400000C9482
:1000FE0000000C9400000C9400000C9400000C9472
:10010E0000000C9400000C9400000C9400000C9461
:10011E0000000C9400000C9400000C9400000C9451
:10012E0000000C9400000C944B190C9400000C94DD
:10013E0000000C9400000C9400000C9400000C9431
:10014E0000000C9400000C9400000C9400000C9421
:10015E0000000C9400000C9400000C9400000C9411
:10016E0000000C9400000C9400000C9400000C9401
:10017E0000000C9400000C9400000C9400000C94F1
:10018E0000000C9400000C9400000C9400000C94E1
:10019E0000000C9400000C9400000C9400000C94D1
:1001AE0000000C9454190C9400000C9400000C9454
:1001BE0000000C9400000C9400000C9400000C94B1
:1001CE0000000C9400000C9400000C9400000C94A1
:1001DE0000000C9400000C940000DE02DF02EB0223
:1001EE00EB02F60203030E031903290333033C0348
:1001FE004E036103720381039203A20320222A2B72
:10020E002C5B3D5D7C7F000000040002000180003D
:10021E0040002000100008000400020000000080D2
:10022E0000400020001000080040002000100008D0
:10023E0000040002FF0000000000000000000000AB
:10024E0000000100000001000000B207000080DE87
:10025E0028008033E101000000001F0000001C0098
:10026E0000001F0000001E0000001F0000001E0006
:10027E0000001F0000001F0000001E0000001F00F5
:10028E0000001E0000001F000000000000001F0004
:10029E0000001C0000001F0000001E0000001F00D8
:1002AE0000001E0000001F0000001F0000001E00C6
:1002BE0000001F0000001E0000001F000000303A6A
:1002CE002F746573742E747874000100030001009E
:1002DE000046525F4449534B5F4552520046525FAF
:1002EE00494E545F4552520046525F4E4F545F5234
:1002FE00454144590046525F4E4F5F46494C4500BA
:10030E0046525F4E4F5F504154480046525F494E31
:10031E0056414C49445F4E414D450046525F44455F
:10032E004E4945440046525F455849535400465283
:10033E005F494E56414C49445F4F424A4543540033
:10034E0046525F57524954455F50524F544543549D
:10035E0045440046525F494E56414C49445F445213
:10036E004956450046525F4E4F545F454E41424CF2
:10037E0045440046525F4E4F5F46494C45535953D4
:10038E0054454D0046525F4D4B46535F41424F52CE
:10039E005445440046525F54494D454F555400450F
:1003AE0052524F523A2025700D0A00303A2F256CCA
:1003BE00642E62696E0025366C64004C6F6769634B
:1003CE00616C20647269766520303A206D6F756EAF
:1003DE00746564204F4B0D0A0046696C65202573C9
:1003EE002063726561746564204F4B0D0A0074685A
:1003FE0069732069732074657374002575206279A2
:10040E00746573207772697474656E206F6620252B
:10041E00750D0A0066696C652073642063617264F1
:10042E000046696C6520257320636C6F73656420CC
:10043E004F4B0D0A0046696C652065737420797AFE
:10044E006500737461727420693263006275662090
:10045E00693263207374617274206F6B00626D7009
:10046E0020693263207374617274206F6B00535075
:10047E00492053544152540061643737303520734C
:10048E0074617274206F6B00737461727420646592
:10049E0076696365005354415254205748494C4580
:1004AE0000000100EBFE904D53444F53352E3000AB
:1004BE004E4F204E414D4520202020464154333290
:1004CE00202020004E4F204E414D4520202020461A
:1004DE0041542020202020002D4E414E00000100CE
:1004EE002D4E414E00494E46000001004931420258
:1004FE000B00B635CC020100C235D80201002B36F6
:10050E00DA020100B236DC020100BC36B004010092
:10051E00C536EC040000F894EE27F091CC01F8609B
:10052E00F093CC01F8EDF4BFE093A200A09180000F
:10053E00AD7FA160F4BFA093800080E090E4A0E0C6
:10054E00B0E2ED930197E9F7E8EFF4E0859195912C
:10055E00009761F0A591B59105901590BF01F0013E
:10056E0005900D920197E1F7FB01F0CF8BBF8CBF89
:10057E00E0E0E0B9E1B9E2B9E3B9E4B9E5B9E6B969
:10058E00E7B9E8B9E9B9EAB9EBB9ECB9EDB9EEB941
:10059E00EFB93E2E4E2E5E2E6E2E7E2EE1E08E2E6C
:1005AE00E0E09E2EAE2EBE2ECE2EDE2EEFEFEDBF57
:1005BE00EFE5EEBFC0E0D0E30C94B419AA931A9302
:1005CE00E2E0E093CA01E981F0E01491E0E0E0930B
:1005DE00CA01E12F18815EC4A0E2F0DFE0930C02A5
:1005EE00A1E2ECDFE0930D02E0E0E0930102E3E034
:1005FE00E0930402E1E1E0930202E0E0E0931802EE
:10060E00E0931902E1E0E0932002E0E2E0932102A0
:10061E00E1E0E0932802E8E2E0932902E1E0E093D2
:10062E003002E0E3E0933102E1E0E0933802E8E3E8
:10063E00E0933902E0E0E0930302E0932202E093BC
:10064E002A02E0933202E0933A02E0910002E16066
:10065E00E09300024CC0AA930E94C442EC81F0E0E9
:10066E00A0E2B2E00E94C535F801A381A170E1F3CA
:10067E004FC0A4E2A3DFE0934C02A5E29FDFE0931C
:10068E004D02E0E0E0934102E3E0E0934402E0E15A
:10069E00E0934202E0E0E0935802E0935902E1E079
:1006AE00E0936002E0E0E0936102E1E0E093680233
:1006BE00E8E0E0936902E1E0E0937002E0E1E093AC
:1006CE007102E1E0E0937802E8E1E0937902E0E084
:1006DE00E0934302E0936202E0936A02E0937202B7
:1006EE00E0937A02E0914002E160E093400285E1FE
:1006FE008A95F1F70895AA930E94C442EC81F0E026
:10070E00A0E6B2E00E94C535F801A381A170E1F325
:10071E00D8011396E1E0EC93F80124813581F901BB
:10072E000E94CB42259608951A930A93E091E4070E
:10073E00EE7FE093E40710E000E0163188F410300D
:10074E0031F0E12FF0E0ED5EFE4CE0810E0FE12F77
:10075E00F0E0ED5EFE4CA0810E94BA0F1F5FEDCF60
:10076E0000932931A09129310E94BA0FE091E4073C
:10077E00E160E093E407099119910895E0EAE093AE
:10078E007630E0E3E0937730E3E3E0937830E5E32F
:10079E00E0937930E0E0E0937A300E94CF35EA586A
:1007AE00FF4CA0E0A0830E94DA350E94DF353CF4B6
:1007BE000E94DA350E94E5350E94F335F4CFE0E071
:1007CE00E093BF30EFEAE0937C30E1E0E0937D30E0
:1007DE00E3E6E0937E30E0E6E0937F30E4E6E093FC
:1007EE008030E0E0E0938130E0938230E09383301C
:1007FE00E0938430E0938530E0938630E093873049
:10080E00E8E9E0938830EAE3E0938930ECEDE09399
:10081E008A30E5E0E0938B30E0938C300E94F9351E
:10082E00E458FF4CA0E0A0830E94DA350E94DF3529
:10083E003CF40E94DA350E9400360E94F335F4CF64
:10084E00E0E0E093BF30EAEAE0938E30E0E6E0933A
:10085E008F30EAEEE09390300E940E36E257FF4C56
:10086E00A0E0A0830E94DA350E94DF353CF40E949E
:10087E00DA350E9415360E94F335F4CFE0E0E093AE
:10088E00BF30E2EAE093CC30E1E0E093CD30E0E03F
:10089E00E093CE300E940E36E453FF4CA0E0A083CE
:1008AE000E94DA350E94DF353CF40E94DA350E9450
:1008BE0023360E94F335F4CFE0E0E093BF30EDEA4B
:1008CE00E093AD30EAE5E093AE30E0E0E093AF3098
:1008DE00EAE5E093B030E0E0E093B1300E94CF352E
:1008EE00E355FF4CA0E0A0830E94DA350E94DF356D
:1008FE003CF40E94DA350E9431360E94F335F4CF73
:10090E00E0E0E093BF30E6EAE093EC30E0E0E09325
:10091E00ED30E093EE30E1E0E093EF30E0E0E09395
:10092E00F0300E94CF35E451FF4CA0E0A0830E942E
:10093E00DA350E94DF353CF40E94DA350E943F36EC
:10094E000E94F335F4CFE0E0E093BF30E1EAE093AC
:10095E009230E3E5E0939330E5E7E0939430EEE6F2
:10096E00E0939530E0E2E0939630E3E5E093973044
:10097E00E5E6E0939830E0E7E0939930E0E2E0932B
:10098E009A30E2E3E0939B30E1E3E0939C30E0E2C7
:10099E00E0939D30E2E3E0939E30E3E3E0939F30FB
:1009AE00EAE3E093A030E3E3E093A130E6E3E093E3
:1009BE00A230EAE3E093A330E2E3E093A430E4E371
:1009CE00E093A530E0E2E093A630E2E3E093A730B7
:1009DE00E0E3E093A830E1E3E093A930E4E3E093B1
:1009EE00AA30E0E0E093AB300E944D36EE56FF4C5D
:1009FE00A0E0A0830E94DA350E94DF353CF40E940D
:100A0E00DA350E9454360E94F335F4CFE0E0E093DD
:100A1E00BF30E7EAE093B330E2E4E093B4300E94F3
:100A2E006236ED54FF4CA0E0A0830E94DA350E949E
:100A3E00DF353CF40E94DA350E9469360E94F335A8
:100A4E00F4CFE0E0E093BF30E7E7E093B630E0E0CC
:100A5E00E093B730ECEFE093B8300E940E36EA54D4
:100A6E00FF4CA0E0A0830E94DA350E94DF353CF4F3
:100A7E000E94DA350E9477360E94F335F4CFE0E01B
:100A8E00E093BF30EBEAE093C030E5E7E093C1308E
:100A9E00EEE6E093C230E7E3E093C330E0E3E093A9
:100AAE00C430E2E3E093C530E2E6E093C630EEE018
:100ABE00E093C730E4E0E093C830E4E1E093C9305E
:100ACE00EEE0E093CA300E948536E054FF4CA0E081
:100ADE00A0830E94DA350E94DF353CF40E94DA359D
:100AEE000E948C360E94F335F4CFE0E0E093BF30E5
:100AFE00EEEAE093D030EFEFE093D130E093D230D6
:100B0E00E093D330E093D430E093D530E093D630F9
:100B1E00E093D730E093D8300E949A36E053FF4CE2
:100B2E00A0E0A0830E94DA350E94DF353CF40E94DB
:100B3E00DA350E94A1360E94F335F4CFE0E0E0935F
:100B4E00BF30E4EAE093E030E0E0E093E130ECEF38
:100B5E00E093E230E8E6E093E330E7EFE093E43051
:100B6E000E94CF35E052FF4CA0E0A0830E94DA3500
:100B7E000E94DF353CF40E94DA350E94AF360E94A7
:100B8E00F335F4CFE0E0E093BF30E8E5E093E630F4
:100B9E00E0E0E093E730E093E830E1E0E093E93025
:100BAE00E0E0E093EA300E94CF35EA51FF4CA0E03E
:100BBE00A0830E94DA350E94DF353CF40E94DA35BC
:100BCE000E94BD360E94F335F4CFE0E0E093BF30D3
:100BDE00E6E7E093BA30EFEFE093BB30E093BC3042
:100BEE000E940E36E654FF4CA0E0A0830E94DA3538
:100BFE000E94DF353CF40E94DA350E94CB360E940B
:100C0E00F335F4CFE0E0E093BF30EAE6E093DA307C
:100C1E00E0E0E093DB30E093DC30E093DD30E09316
:100C2E00DE300E94CF35E652FF4CA0E0A0830E943A
:100C3E00DA350E94DF353CF40E94DA350E94D9364F
:100C4E000E94F335F4CFE0E0E093BF300895E5EA7B
:100C5E00E0931331E0E4E0931431EFE1E0931531CA
:100C6E00E8E7E0931631E0E0E0931731EBEBE09329
:100C7E001831EBE0E0931931E0E0E0931C31E8E04D
:100C8E00E0931D31EDEAE0931E31EDE0E0931F316C
:100C9E00ECEAE0932031EDE0E0932131E0E1E093E6
:100CAE002231E7E2E0932331E0E0E0932431E4E007
:100CBE00E0932531E0E0E0932631E6E0E093273142
:100CCE00E0E0E09328310895E0E0E0930406E0933D
:100CDE000006E0931006E0931106E0931206E093EF
:100CEE001306E0931406E0931506E0931606E093C0
:100CFE001706E0910906E07FE0930906E0E0E09335
:100D0E000A06E0930B06E0932406E0932006E09398
:100D1E003006E0933106E0933206E0933306E0931B
:100D2E003406E0933506E0933606E0933706E091FD
:100D3E002906E07FE0932906E0E0E0932A06E0939F
:100D4E002B060E94E736E0E0E0935006E093510652
:100D5E00E0935206E0935306E0935406E093550653
:100D6E00E0935606E0935706E0914906E07FE09344
:100D7E004906E0E0E0934A06E0934B06E0E8E09394
:100D8E006406E0936006E0E0E0937006E09371067F
:100D9E00E0937206E0937306E0937406E093750693
:100DAE00E0937606E0937706E0916906E07FE093A4
:100DBE006906E0E0E0936A06E0936B06E093840632
:100DCE00E0938006E0918006E061E0938006E0E02B
:100DDE00E0939006E0939106E0E1E0939206E0E066
:100DEE00E0939306E0939406E0939506E0939606BF
:100DFE00E0939706E0918906E07FE0938906E0E0B4
:100E0E00E0938A06E0938B06E093A406E093A00697
:100E1E00E093B006E093B106E093B206E093B3061A
:100E2E00E093B406E093B606E093B706E091A90608
:100E3E00E07FE093A906E0E0E093AA06E093AB061C
:100E4E00EFE0E093E407E093E007E0E0E093F007E3
:100E5E00E093F107E091E907E07FE093E907E0E036
:100E6E00E093EA07E093EB070895BA93AA93E0E1C3
:100E7E00E0932104E0912104E071E1F7E091240474
:100E8E00F09125046091260470912704A881B98100
:100E9E000E942842229608951A93E8EDE4BFE0914D
:100EAE00F000E260E093F000E0915200EF7DE093FD
:100EBE005200E12FEE7FE8601E2FE8EDE4BF1093A5
:100ECE00F000E091F100E870E1F31460E8EDE4BFAA
:100EDE001093F000E0E0E0932004E0912104E17132
:100EEE00E1F70E94EE36E0912104E061E0932104E7
:100EFE000E94FB36E0932C04F0932D0460932E0495
:100F0E0070932F04E1E0E0932004E0E0E0932204EC
:100F1E0019910895E8EDE4BFE0E0E0932004E0913C
:100F2E002104E171E1F70E94EE360E9400370E9423
:100F3E000937E0912104E061E0932104E1E0E093C0
:100F4E0020040895BA93AA93EF97659784E5A0E0DD
:100F5E00B0E0E4E4F2E00E94D042FE01E85AFF4F16
:100F6E000190119061917081F0010E9412370E94E0
:100F7E0019370E94BF40FE01E45AFF4FA193B1936F
:100F8E0081939083EC8DFD8D6E8D7F8D0E94193730
:100F9E000E94B8424CF50E9422370E94273749F42E
:100FAE000E9430370E94353719F40E943E3709F4FB
:100FBE0001C003C00E94483702C00E94FB360E9447
:100FCE004D370E945037EC8FFD8F6E8F7F8F0E94B2
:100FDE0022370E945D370E946237AC8DBD8D8E8D9B
:100FEE009F8D0E946737CECF0E94793739F40E94C9
:100FFE007B3719F40E943E3709F401C003C00E94EA
:10100E00483702C00E94FB360E944D370E947D3742
:10101E0029F0EDE1F0E060E070E004C0ECE1F0E01A
:10102E0060E070E0E8A7F9A76AA77BA7E88DF98DC5
:10103E006A8D7B8D0E9419370E94BD42BCF0E889F3
:10104E00F989DE0190960E948237E88FF98F6A8FB8
:10105E007B8F0E948F370E945D370E949437A88D38
:10106E00B98D8A8D9B8D0E946737E0CF0E9499378C
:10107E000E94C541EF5FFF4F6F4F7F4F0E949F371A
:10108E000E9499370E94A4370E94AE370E94C54134
:10109E000E94B3370E9419370E94AE370E94A437C0
:1010AE00ECE3F0E060E070E00E94C5410E94B837CA
:1010BE000E941937ECE3F0E060E070E00E94DA4144
:1010CE00DE01A45ABF4FED93FD936D937C930E9466
:1010DE0022370E94BD377F936F93FF93EF930E9449
:1010EE008F370E94C437AF91BF918F919F910E940D
:1010FE00B0400E94CB370E94B040DE01AA5ABF4FCB
:10110E000D90BC91A02D0E9428420E94D0370E94C3
:10111E00BD377F936F93FF93EF930E94D5370E9455
:10112E00C437AF91BF918F919F910E94B0400E94A2
:10113E0019370E94B040DE01AC5ABF4F0D90BC91E2
:10114E00A02D0E942842EF96A1960895BA93AA93D5
:10115E00EF972D9784E3A8E1B0E0E8E9F2E00E9472
:10116E00D0420E94DA370E94A0410E9462370E944C
:10117E00DA370E94E7370E949437DE01AA5ABF4F32
:10118E000D901D908D919C91D0010E94F2370E947E
:10119E009F370E94F9370E94A0410E94B3370E94E8
:1011AE00F9370E94E7370E94B8370E94793739F431
:1011BE000E947B3719F40E943E3709F401C003C028
:1011CE000E94483702C00E94FB360E944D37DE0156
:1011DE00AE5ABF4F0D901D908D919C91D0010E94E3
:1011EE00F2377F936F93FF93EF930E94D537ACE363
:1011FE00B0E080E090E00E947541AF91BF918F9179
:10120E009F910E94B0407F936F93FF93EF93FE01E7
:10121E00E25BFF4F0190119061917081F0010E948D
:10122E0006380E94B5400E94AE370E944F41AF91E2
:10123E00BF918F919F910E94B0407F936F93FF93C8
:10124E00EF930E940B380E941038A8E1B0E080E0C6
:10125E0090E00E9475410E941237AF91BF918F911D
:10126E009F910E94B0400E9415380E9428420E9411
:10127E007D3729F0EDE1F0E060E070E004C0ECE1D4
:10128E00F0E060E070E0E8A3F9A36AA37BA30E94FC
:10129E008F370E9410380E9494370E941C380E948B
:1012AE00B24214F50E941538BF93AF930E941D42AF
:1012BE007F936F93FF93EF93E889F989DE01589638
:1012CE000E948237AF91BF918F919F910E94B04043
:1012DE00AF91BF910E9428420E948F373197604094
:1012EE0070400E949437D9CF0E9422370E94103846
:1012FE000E9462370E943037A23BE7E0BE07E0E073
:10130E008E07E0E09E0784F10E94793739F40E943F
:10131E007B3719F40E943E3709F401C003C00E94C6
:10132E00483702C00E94FB360E944D370E94153886
:10133E00BF93AF930E941D427F936F93FF93EF93E2
:10134E000E945037AF91BF918F919F910E94B040F4
:10135E00AF91BF910E9428420E9422373197604080
:10136E0070400E946237C6CFEF966B960895E8E004
:10137E00E0934506E3E0E093A508E091A308E07C46
:10138E00E063E093A308E5EFE093A608ECECE093AE
:10139E00A708E091A408E07EE861E093A408089510
:1013AE000E942138E091A108E0931131E091A0084C
:1013BE00E0931231E0911131EC7141F4EB2DF0E03C
:1013CE00E95CFF4CA0911231A083B394E0914931B6
:1013DE00F0E0EF3FA0E0FA0709F008C3E0913730E4
:1013EE00F0E0EF3FA0E0FA0731F40E942F38EFEF64
:1013FE00E0933730F9C2EA3CA0E0FA0721F4EAECB8
:10140E000E943538F1C2E53FA0E0FA0721F4E5EF7E
:10141E000E943538E9C2E53BA0E0FA0721F4E5EB7E
:10142E000E943D38E1C2EA3EA0E0FA0721F4EAEE5E
:10143E000E943538D9C2E53EA0E0FA0721F4E5EE68
:10144E000E944538D1C2E73EA0E0FA0721F4E7EE4C
:10145E000E944538C9C2E036A0E0FA0721F4E0E662
:10146E000E943538C1C2E83EA0E0FA0721F4E8EE4A
:10147E000E944D38B9C2E93EA0E0FA0721F4E9EE28
:10148E000E944D38B1C2E13DA0E0FA0749F4E1ED0A
:10149E00E0934931E5E08E2EEFEFE0933730A4C2B2
:1014AE00E33DA0E0FA0721F4E3ED0E943D389CC233
:1014BE00E53DA0E0FA0721F4E5ED0E94553892C211
:1014CE00E73DA0E0FA0721F4E7ED0E9455388AC205
:1014DE00E03AA0E0FA0739F50E945B380E94CF355A
:1014EE00EA58FF4CA0E0A0830E94DA350E94DF3557
:1014FE003CF40E94DA350E94E5350E94F335F4CFB4
:10150E00E0E0E093BE300E94603850F4E091BE30CF
:10151E00F0E0EA58FF4CA08126D50E94F335F3CFB8
:10152E000E94663861C2E13AA0E0FA0739F50E94DE
:10153E005B380E944D36EE56FF4CA0E0A0830E9411
:10154E00DA350E94DF353CF40E94DA350E945436BB
:10155E000E94F335F4CFE0E0E093BE300E94603895
:10156E0050F4E091BE30F0E0EE56FF4CA081FBD47B
:10157E000E94F335F3CF0E94663837C2E23AA0E0FC
:10158E00FA0739F50E945B380E940E36E453FF4C81
:10159E00A0E0A0830E94DA350E94DF353CF40E9461
:1015AE00DA350E9423360E94F335F4CFE0E0E09363
:1015BE00BE300E94603850F4E091BE30F0E0E4534B
:1015CE00FF4CA081D0D40E94F335F3CF0E94663831
:1015DE000CC2E43AA0E0FA0739F50E945B380E948B
:1015EE00CF35E052FF4CA0E0A0830E94DA350E9476
:1015FE00DF353CF40E94DA350E94AF360E94F33597
:10160E00F4CFE0E0E093BE300E94603850F4E091F9
:10161E00BE30F0E0E052FF4CA081A5D40E94F3351D
:10162E00F3CF0E946638E1C1E63AA0E0FA0739F539
:10163E000E945B380E94CF35E451FF4CA0E0A0839E
:10164E000E94DA350E94DF353CF40E94DA350E94A2
:10165E003F360E94F335F4CFE0E0E093BE300E94B7
:10166E00603850F4E091BE30F0E0E451FF4CA081C0
:10167E007AD40E94F335F3CF0E946638B6C1E73AAA
:10168E00A0E0FA0739F50E945B380E946236ED54ED
:10169E00FF4CA0E0A0830E94DA350E94DF353CF4B7
:1016AE000E94DA350E9469360E94F335F4CFE0E0ED
:1016BE00E093BE300E94603850F4E091BE30F0E00E
:1016CE00ED54FF4CA0814FD40E94F335F3CF0E940E
:1016DE0066388BC1EA3AA0E0FA0739F50E945B380A
:1016EE000E940E36E257FF4CA0E0A0830E94DA352E
:1016FE000E94DF353CF40E94DA350E9415360E94B6
:10170E00F335F4CFE0E0E093BE300E94603850F441
:10171E00E091BE30F0E0E257FF4CA08124D40E944D
:10172E00F335F3CF0E94663860C1EB3AA0E0FA07BA
:10173E0039F50E945B380E948536E054FF4CA0E0DC
:10174E00A0830E94DA350E94DF353CF40E94DA3520
:10175E000E948C360E94F335F4CFE0E0E093BE3069
:10176E000E94603850F4E091BE30F0E0E054FF4C3F
:10177E00A081F9D30E94F335F3CF0E94663835C1AC
:10178E00ED3AA0E0FA0739F50E945B380E94CF359A
:10179E00E355FF4CA0E0A0830E94DA350E94DF35AE
:1017AE003CF40E94DA350E9431360E94F335F4CFB4
:1017BE00E0E0E093BE300E94603850F4E091BE301D
:1017CE00F0E0E355FF4CA081CED30E94F335F3CF6A
:1017DE000E9466380AC1EE3AA0E0FA0739F50E9477
:1017EE005B380E949A36E053FF4CA0E0A0830E9423
:1017FE00DA350E94DF353CF40E94DA350E94A136BC
:10180E000E94F335F4CFE0E0E093BE300E946038E2
:10181E0050F4E091BE30F0E0E053FF4CA081A3D332
:10182E000E94F335F3CF0E946638DFC0EF3AA0E096
:10183E00FA0739F50E945B380E94F935E458FF4CDF
:10184E00A0E0A0830E94DA350E94DF353CF40E94AE
:10185E00DA350E9400360E94F335F4CFE0E0E093D3
:10186E00BE300E94603850F4E091BE30F0E0E45893
:10187E00FF4CA08178D30E94F335F3CF0E946638D7
:10188E00B4C0E835A0E0FA0739F50E945B380E9433
:10189E00CF35EA51FF4CA0E0A0830E94DA350E94BA
:1018AE00DF353CF40E94DA350E94BD360E94F335D6
:1018BE00F4CFE0E0E093BE300E94603850F4E09147
:1018CE00BE30F0E0EA51FF4CA0814DD30E94F335BB
:1018DE00F3CF0E94663889C0EA36A0E0FA0739F5E0
:1018EE000E945B380E94CF35E652FF4CA0E0A083E9
:1018FE000E94DA350E94DF353CF40E94DA350E94F0
:10190E00D9360E94F335F4CFE0E0E093BE300E946A
:10191E00603850F4E091BE30F0E0E652FF4CA0810A
:10192E0022D30E94F335F3CF0E9466385EC0E637AD
:10193E00A0E0FA0739F50E945B380E940E36E65495
:10194E00FF4CA0E0A0830E94DA350E94DF353CF404
:10195E000E94DA350E94CB360E94F335F4CFE0E0D8
:10196E00E093BE300E94603850F4E091BE30F0E05B
:10197E00E654FF4CA081F7D20E94F335F3CF0E94BC
:10198E00663833C0E737A0E0FA0739F50E945B38B6
:10199E000E940E36EA54FF4CA0E0A0830E94DA3576
:1019AE000E94DF353CF40E94DA350E9477360E94A1
:1019BE00F335F4CFE0E0E093BE300E94603850F48F
:1019CE00E091BE30F0E0EA54FF4CA081CCD20E94F0
:1019DE00F335F3CF0E94663808C0EFEFE09337304F
:1019EE00E0934931E1E08E2EBB2404C0EA3CA0E036
:1019FE00FA0739F5E2E0EB1519F5A0913730A13071
:101A0E0021F4A0913830A13009F003C00E946D3846
:101A1E0011C0A0913730AF3021F4A0913830AF30E3
:101A2E0009F008C00E946D380E942F38E1E0E09363
:101A3E00483105C0EFEFE0934931E1E08E2EBB2433
:101A4E0091C2E53FA0E0FA0711F5E2E0EB15F1F4E3
:101A5E00A0913730AF3521F4A0913830AF3509F071
:101A6E0012C0A5EF80D2A5EF7ED2A5EF0E947338EB
:101A7E00BB24A5E0B0E00E94F93EE8EDE4BFE1E052
:101A8E00E093790003C00E942F38BB246BC2E53B64
:101A9E00A0E0FA0791F5E4E0EB1571F50E947638B7
:101AAE00A091BE30A33078F40E947C380E94833817
:101ABE00A091BE30B0E0A65BBE4C0E947C38EC9389
:101ACE000E94F335EDCFE0913A30E0934D31A09185
:101ADE003A30E091F230EA1761F4E0913730E0935A
:101AEE007530A5EB40D2A5EB0E9473380E94893861
:101AFE0003C00E942F38BB2435C2EA3EA0E0FA078D
:101B0E0011F5E2E0EB15F1F40E947638A091BE30AB
:101B1E00A13038F40E947C380E9483380E94F3353D
:101B2E00F5CFA0913830E091F230EA1741F4AAEEE9
:101B3E001AD2AAEE0E9473380E94893803C00E94FE
:101B4E002F38BB240FC2E036A0E0FA0721F5E2E001
:101B5E00EB1501F50E947638A091BE30A13038F415
:101B6E000E947C380E9483380E94F335F5CFA091F5
:101B7E003830E091F230EA1751F4A0E6F4D1A0E04B
:101B8E00F2D1A0E00E9473380E94893803C00E94EF
:101B9E002F38BB24E7C1E53EA0E0FA0711F5E7E0D8
:101BAE00EB15F1F40E947638A091BE30A63038F4D1
:101BBE000E947C380E9483380E94F335F5CFA091A5
:101BCE003D30E091F230EA1741F4A5EECCD1A5EE0E
:101BDE000E9473380E94893803C00E942F38BB249C
:101BEE00C1C1E73EA0E0FA0711F5E7E0EB15F1F40D
:101BFE000E947638A091BE30A63038F40E947C3810
:101C0E000E9483380E94F335F5CFA0913D30E091CC
:101C1E00F230EA1741F4A7EEA6D1A7EE0E94733870
:101C2E000E94893803C00E942F38BB249BC1E83E16
:101C3E00A0E0FA0711F5E3E0EB15F1F40E94763817
:101C4E00A091BE30A23038F40E947C380E948338B6
:101C5E000E94F335F5CFA0913930E091F230EA17BA
:101C6E0041F4A8EE80D1A8EE0E9473380E94893804
:101C7E0003C00E942F38BB2475C1E93EA0E0FA07CD
:101C8E0011F5E3E0EB15F1F40E947638A091BE3029
:101C9E00A23038F40E947C380E9483380E94F335BB
:101CAE00F5CFA0913930E091F230EA1741F4A9EE68
:101CBE005AD1A9EE0E9473380E94893803C00E943F
:101CCE002F38BB244FC1E13DA0E0FA0709F046C012
:101CDE00E5E0EB1509F041C00E947638A091BE30C8
:101CEE00A43038F40E947C380E9483380E94F33569
:101CFE00F5CFA0913B30E091F230EA1759F5E0E0D4
:101D0E00E0933B30E0935231E0935331E093543102
:101D1E00E09355310E948E380E949C380E94AD3857
:101D2E000E949C38E0913A30F0E00E94B538E09382
:101D3E005231F09353316093543170935531E1E049
:101D4E00E0935631A1ED0FD1A1ED0E9473380E94A0
:101D5E00893803C00E942F38BB2404C1E33DA0E0A4
:101D6E00FA0709F043C0E4E0EB1509F03EC00E940B
:101D7E007638A091BE30A33038F40E947C380E9491
:101D8E0083380E94F335F5CFA0913A30E091F230CE
:101D9E00EA1741F5E0E0E0933A30E0935831E093F2
:101DAE005931E0935A31E0935B310E948E380E9494
:101DBE00BA380E94C338A4E6B0E080E090E00E94FA
:101DCE004F41DF01CB010E94AD380E94BA38E1E0ED
:101DDE00E0935731A3EDC7D0A3ED0E9473380E9454
:101DEE00893803C00E942F38BB24BCC0E53DA0E05B
:101DFE00FA0709F05AC0E1E0EB1509F055C0A091C1
:101E0E003730A53D09F04AC00E94CC380E94DE381A
:101E1E000E94A041E0935C310E94DE380E94D641C0
:101E2E00DF01CB010E94EB380E94A041E0935D31AF
:101E3E000E94F0380E94EB380E94E737E0935E3143
:101E4E000E94F0380E94F237E0935F31E0E0E093B9
:101E5E00BE30E0936031A091BE30A43058F4A09112
:101E6E0060310E94F938E081EA0FE09360310E9400
:101E7E00F335F1CFA5ED77D0E0E0E093BE30A09141
:101E8E00BE30A53038F40E94F938A0816CD00E9483
:101E9E00F335F5CFEFEF0E94553803C0EFEFE09327
:101EAE004931E1E08E2EBB245DC0E73DA0E0FA078C
:101EBE0009F052C0E1E0EB1509F04DC0A0913730AA
:101ECE00A73D09F042C00E94CC380E94FF380E9404
:101EDE00A041E0935C310E94FF380E94E737E09307
:101EEE005D31A0915831B091593180915A31909114
:101EFE005B310E94F237E0935E31E0E0E093BE305A
:101F0E00E0935F31A091BE30A33058F4A0915F31C1
:101F1E000E94F938E081EA0FE0935F310E94F335B9
:101F2E00F1CFA7ED20D0E0E0E093BE30A091BE301F
:101F3E00A43038F40E94F938A08115D00E94F335F0
:101F4E00F5CFEFEF0E94553803C0EFEFE093493124
:101F5E00E1E08E2EBB2406C0EFEFE09337300E94F7
:101F6E002F38BB24D3C1AA93E091A108E072E1F30C
:101F7E00E881E093A008A1C1E0E8E0936506E3E004
:101F8E00E093B509E091B309E07CE093B309EEE686
:101F9E00E093B609E8EAE093B709E091B409E07E70
:101FAE00E860E093B4090895AA93E091B109E07254
:101FBE00E1F3E881E093B00980C11A9310E0A3EF3A
:101FCE00B0E30E947433A12FB0E0AE17BF0740F408
:101FDE00E12FF0E0ED50FF4CA081E6DF1F5FEFCF69
:101FEE000E940839E0E0EA93AEE1B0E00E94573378
:101FFE00AAE0DADFADE0D8DF4BC1AA93A881A13009
:10200E0010F0A03108F01EC00E940839EDEAF3E08E
:10201E00FA93EA93EC81A8EEB1E00E940D390E948A
:10202E0032420E941339E0E0EA93A0E0B0E00E9451
:10203E00752AE0E0E093C235E0934006E093440653
:10204E000E94E7363AC1BA93AA93A881B981EC915E
:10205E00E07FEC931996ECE0EC93229608951A9398
:10206E000A931FB7F894E0910008E07FE560E093D3
:10207E000008E0910108E870E0930108E091030880
:10208E00E071E0930308E0910608E07FE160E093E1
:10209E000608E0910708E070E0930708E0919900C8
:1020AE00EE7F0E2FE8EDE4BF00939900E0918008DB
:1020BE00E07CE0938008E0918308E87EE09383085B
:1020CE00E0E0E0938208A4E8B8E00A2EAC91E0913B
:1020DE008408E470EA2BA02DEC93E0910C08E093B9
:1020EE000C08E0E0F0E0E0932008F0932108E1E135
:1020FE00FAE7E0932608F0932708E0E0F0E0E0939B
:10210E002808F0932908E0932A08F0932B08E0930F
:10211E002C08F0932D08E0932E08F0932F081FBF84
:10212E000991199108951A931FB7F894A0E4B8E095
:10213E008ADFE5E0E0934008E0E0E0934108E093B9
:10214E004308E0934408E0914608E07FE160E093A5
:10215E004608E0E0E0934708E0919008ED7FE093B9
:10216E009008E0914C08E0934C08E0E0F0E0E0933A
:10217E006008F0936108EFE1FEE4E0936608F093E7
:10218E006708E0E0F0E0E0936808F0936908E093F8
:10219E006A08F0936B087BC01A931FB7F894A0E0FF
:1021AE00B9E051DFE4E0E0930009E0E0E0930109DB
:1021BE00E0930309E0930409E3E0E0930609E0E00D
:1021CE00E0930709E0919009EE7FE0939009E0918A
:1021DE000C09E0930C09E0E0F0E0E0932009F093A5
:1021EE002109EFE3FCE9E0932609F0932709E0E0EB
:1021FE00F0E0E0932809F0932909E0932A09F0937F
:10220E002B09E0932C09F0932D09E0932E09F093FE
:10221E002F093DC01A931FB7F894A0E0BBE013DF5F
:10222E00E7E0E093000BE0E0E093010BE093030B9B
:10223E00E093040BE3E0E093060BE0E0E093070B82
:10224E00E091900BEE7FE093900BE0910C0BE093FE
:10225E000C0BE0E0F0E0E093200BF093210BE1E1BA
:10226E00FAE7E093260BF093270BE0E0F0E0E09323
:10227E00280BF093290BE0932A0BF0932B0BE09392
:10228E002C0BF0932D0BE0932E0BF0932F0B1FBF07
:10229E0019910895E2E5E093C008E091C108EC7F42
:1022AE00E093C1080895AA93E881E093C308E091F2
:1022BE00C208E078E1F3E091C30821960895E0EAC0
:1022CE00F4E00E941D39A0E00E944F340E94223992
:1022DE00E0EAF4E0FA93EA93E0E4EA93ABE90E94D1
:1022EE006434E0E0E093A80408950A921A92FA92F8
:1022FE006A937A938A939A93AA93BA93EA93FA93E8
:10230E00EFB7EA93A5E0B6E30E948F34E991EFBFF1
:10231E00F991E991B991A9919991899179916991DF
:10232E00F990199009901895E6EFE0938E36E7EF45
:10233E00E0938F36E4EFE0938C36EEE2E0938D3649
:10234E00E6EFE0939436E7EFE0939536E8EFE0930F
:10235E009636E4EFE0939236E0912B36E295E07FED
:10236E00EE0FEE0FEC5CE0939336EAEAE093603604
:10237E00EBEAE0936136ECEAE0936236EDEAE09345
:10238E006336EEEAE0936436EFEAE0936536E0EB0F
:10239E00E0936636E1EBE0936736E2EBE093683666
:1023AE00E3EBE0936936E4EBE0936A36E5EBE0931A
:1023BE006B36E6EBE0936C36E7EBE0936D36E8EBCD
:1023CE00E0936E36E9EBE0936F36EAEBE09370360E
:1023DE00EBEBE0937136ECEBE0937236EDEBE093C2
:1023EE007336EEEBE0937436EFEBE09375360895AB
:1023FE009BDF0E942239E7E7EA93E0E6F6E30E94CC
:10240E002739E6E7F6E30E942C39E7E7EA93E2E69E
:10241E00F6E30E942739E8E7F6E30E942C39E7E756
:10242E00EA93E4E6F6E30E942739EAE7F6E30E9430
:10243E002C39E7E7EA93E6E6F6E30E942739ECE764
:10244E00F6E30E942C39E7E7EA93E8E6F6E30E940A
:10245E002739EEE7F6E30E942C39E7E7EA93EAE63E
:10246E00F6E30E942739E0E8F6E30E942C39E7E70D
:10247E00EA93ECE6F6E30E942739E2E8F6E30E94DF
:10248E002C39E7E7EA93EEE6F6E30E942739E4E813
:10249E00F6E30E942C39E7E7EA93E0E7F6E30E94C1
:1024AE002739E6E8F6E30E942C39E7E7EA93E2E7FC
:1024BE00F6E30E942739E8E8F6E30E942C39E7E7B5
:1024CE00EA93E4E7F6E30E942739EAE8F6E3FA93A3
:1024DE00EA93A2E00E941735B0917636A0E0E09123
:1024EE007736F0E0EA0FFB1FE0931136F0931236C9
:1024FE00F0917836E0E0DF01E0917936F0E0EA0F16
:10250E00FB1FE0931336F0931436F0917A36E0E029
:10251E00DF01E0917B36F0E0EA0FFB1FE09315360A
:10252E00F0931636F0917C36E0E0DF01E0917D36D7
:10253E00F0E0EA0FFB1FE0931736F0931836F09198
:10254E007E36E0E0DF01E0917F36F0E0EA0FFB1F20
:10255E00E0931936F0931A36F0918036E0E0DF0101
:10256E00E0918136F0E0EA0FFB1FE0931B36F0930B
:10257E001C36F0918236E0E0DF01E0918336F0E028
:10258E00EA0FFB1FE0931D36F0931E36F091843652
:10259E00E0E0DF01E0918536F0E0EA0FFB1FE0930B
:1025AE001F36F0932036F0918636E0E0DF01E091A1
:1025BE008736F0E0EA0FFB1FE0932136F0932236C8
:1025CE00F0918836E0E0DF01E0918936F0E0EA0F25
:1025DE00FB1FE0932336F0932436F0918A36E0E029
:1025EE00DF01E0918B36F0E0EA0FFB1FE09325361A
:1025FE00F093263608950E942239E7E7EA93ECE835
:10260E00F6E30E9427390E943239E7E7EA93EEE8B3
:10261E00F6E30E942739E0E9F6E30E942C39E7E75A
:10262E00EA93E2E9F6E30E9427390E943239E7E79E
:10263E00EA93E4E9F6E30E943E39E7E9F6E30E9405
:10264E004339E7E7EA93E5E9F6E30E943E39E8E924
:10265E00F6E30E944339E7E7EA93E6E9F6E30E94E0
:10266E003E39E9E9F6E3FA93EA93A1E00E941735C1
:10267E00B0919036A0E0E0919136F0E0EA0FFB1FAA
:10268E000E943B41E0932736F0932836609329361B
:10269E0070932A36E0919736FF27662777270E9498
:1026AE0049390E945239E8E00E94DF400E944939C0
:1026BE00E0919836F0E00E9452390E94B5380E949F
:1026CE0049390E945239E8E00E94DF400E944939A0
:1026DE00E0919936F0E00E9452390E94B5380E947E
:1026EE004939A0912B36E8E0EA1B0E9452390E942C
:1026FE00EB400E944939E0911B36F0911C36A091B7
:10270E002736B09128368091293690912A36662741
:10271E0077270E94BF40E0911936F0911A3666274E
:10272E0077270E945B39EFE00E946039A091233633
:10273E00B09124360E944041EBE00E94DF407F932F
:10274E006F93FF93EF93E0912536F09126360E941A
:10275E006B390E94B538AF91BF918F919F910E94B6
:10276E00C5410E947439E0933836F0933936609340
:10277E003A3670933B360E948039E85FFF4F6F4FB9
:10278E007F4FDF01CB01E4E00E94EB40E0933C364B
:10279E00F0933D3660933E3670933F360E946F3F06
:1027AE00DF01CB010E9489390E944740E0935836E1
:1027BE00F093593660935A3670935B360E94803987
:1027CE00E05AFF4060407040E0934036F09341364F
:1027DE0060934236709343360E948E390E94973929
:1027EE000E947541A0911F36B09120360E94A039EB
:1027FE00ECE00E94EB40DF01CB01EBE00E94603980
:10280E000E948E39A0911336B09114360E94A039D1
:10281E00EBE00E94EB400E9474390E94A339A09114
:10282E001136B09112360E944041E4E0F0E060E0D3
:10283E0070E00E947541A0914436B091453680916A
:10284E004636909147360E94B540E0912B360E9455
:10285E00DF400E94AC39E0934836F09349366093DE
:10286E004A3670934B360E948E39A0911536B09130
:10287E0016360E94A039EDE00E9460390E948E3912
:10288E000E9497390E945B39ECE00E94EB40A091C8
:10289E001D36B0911E360E9440410E94B5390E94ED
:1028AE0074390E94AC390E94A339E0914436F091FC
:1028BE0045366091463670914736E050F0486F4F7E
:1028CE007F4FA0911736B0911836882799270E940E
:1028DE004F41DF01CB01EFE00E94F740E09350360D
:1028EE00F09351366093523670935336A09148361A
:1028FE00B091493680914A3690914B36E0912C3604
:10290E00F0912D3660912E3670912F360E94BA407E
:10291E007F936F93FF93EF93E0912B36A0E5B3EC8B
:10292E000E94D640AF91BF918F919F9166277727D6
:10293E000E944F41E0935436F093553660935636CD
:10294E00709357360E94BA39A030E0E0BE07E0E03F
:10295E008E07E0E89E0788F4E0915436F0915536E4
:10296E0060915636709157360E941A41DF01CB01A5
:10297E000E94C3390E94A04108C00E94C3390E9420
:10298E00BA390E94A0410E941A41E0934C36F0934E
:10299E004D3660934E3670934F360E94CC397F93EE
:1029AE006F93FF93EF930E94CC39AF91BF918F91AC
:1029BE009F910E9475410E94D839E0913036F09176
:1029CE0031366091323670913336AEEDBBE080E039
:1029DE0090E00E94B5390E94D8390E94E139A3E4F3
:1029EE00B3EE8FEF9FEF0E94B5390E947439E15319
:1029FE00F14F6F4F7F4FDF01CB01E4E00E94EB40C0
:102A0E000E94EA390E94B040E0934C36F0934D3666
:102A1E0060934E3670934F360E94E1390E946F3F9D
:102A2E00DF01CB01EFE6F2E565E073E40E9447407B
:102A3E00E0935C36F0935D3660935E3670935F364E
:102A4E000895E2E0E093A036E0E0E093A1360E9424
:102A5E002239E8E1EA93E0EAF6E30E9427390E9480
:102A6E00F339E0939E36E2E3E0939F360E942239DB
:102A7E00E8E1EA93EEE9F6E388C0E0E0E0939A3607
:102A8E000E942239E8E1EA93EAE9F6E30E943E3930
:102A9E00EBE9F6E3FA93EA93A1E080C0E1E0E0937C
:102AAE009C360E942239E8E1EA93ECE9F6E36DC028
:102ABE00E2E0E093A836E0E0E093A9360E942239E6
:102ACE00E9E1EA93E8EAF6E30E9427390E94F33936
:102ADE00E093A636E8E9E093A7360E942239E9E1B1
:102AEE00EA93E6EAF6E351C0E0E0E093A2360E94F4
:102AFE002239E9E1EA93E2EAF6E30E943E39E3EA9B
:102B0E00F6E3FA93EA93A1E049C0E1E0E093A4363C
:102B1E000E942239E9E1EA93E4EAF6E336C0E2E004
:102B2E00E093B036E0E0E093B1360E942239EAE15C
:102B3E00EA93E0EBF6E30E9427390E94F339E09323
:102B4E00AE36E0E4E093AF360E942239EAE1EA9332
:102B5E00EEEAF6E31AC0E0E0E093AA360E942239CC
:102B6E00EAE1EA93EAEAF6E30E943E39EBEAF6E39B
:102B7E00FA93EA93A1E012C0E1E0E093AC360E9432
:102B8E002239EAE1EA93ECEAF6E3FA93EA93E2E019
:102B9E00EA93E0E0F0E0FA93EA93A0E00E941735A2
:102BAE000895AA93E0E1E0934606AB817CDBAA810F
:102BBE007ADBA98178DBA88176DBE0914806ED6FA0
:102BCE00EF3FD9F3E0E1E093450624960895AA93EA
:102BDE000E94C242E091B236AE81EA1729F0A130CE
:102BEE0011F0A23009F401C010C0AE81A13011F471
:102BFE000E94FC39AE81A23041F4E1E2EA93ECE0AE
:102C0E00EA93E1E1EA93A0E4CCDFEE81E093B23601
:102C1E009924E0914806ED6FEF3F31F4A92DBB27C3
:102C2E00A032EEE4BE070CF005C093948BE08A95BB
:102C3E00F1F7EFCFA92DB0E0A032EEE4BE0741F4DC
:102C4E000E94053AE0E1E0934506EFEFF3E013C092
:102C5E000E94053AA8E327DBAFEF25DB2E2F3327A3
:102C6E00AFEF21DB4E2F5527E0E1E0934506F22F23
:102C7E00E0E0E42BF52B0E94C942279608952F978A
:102C8E001A930A9300E0FE0132960E940C3A10E06D
:102C9E001B3070F40E94213AAC91E12FF0E0EC5F12
:102CAE00FF4CE081EA1711F001E01CE01F5FF0CF4E
:102CBE000030F9F010E01F3060F4E12FF0E0EC5F2F
:102CCE00FF4C0F010E94213AEC91D001EC931F5F53
:102CDE00F2CF0E94283AA3E00E94313AE03029F068
:102CEE000E94283AAAE00E94313AA6E9B3E30E9474
:102CFE00363A1981088161960895AA971A93FE01B2
:102D0E00B596FA93EA93E4ECF3E0FA93EA930E9411
:102D1E00C3380E944A4284E00E94F2322896E4EFC1
:102D2E00E98311E0173088F40E943B3AEA0FFB1F4B
:102D3E000F01E12FF0E03197DE019596AE0FBF1F28
:102D4E00EC91D001EC931F5FEDCFE5EAE887E091BF
:102D5E001B30E987E0911C30EA87E0911D30EB874C
:102D6E00E0911E30EC87E0911F30ED87E09120302E
:102D7E00EE87E0912130EF87E0912230E88BE091F1
:102D8E002330E98BE0912430EA8BE0911E31EB8BFE
:102D9E00E0911F31EC8BE0912730ED8BE0912830E4
:102DAE00EE8BE0912231EF8BE0912331E88FE091B1
:102DBE002B30E98FE0912C30EA8FE0912D30EB8FA4
:102DCE00E0912E30EC8FE0912831ED8FE09129319A
:102DDE00EE8FE5EBEF8F1FE1133268F40E943B3A62
:102DEE00AE0FBF1FE12FF0E07F97E65BFE4CE08158
:102DFE00EC931F5FF1CFE8EFECA3EAE4F1E30E945E
:102E0E001D39A4E0B0E00E94573310E0143270F484
:102E1E00E12FF0E0ED53FA4C0F010E943B3AAE0F5A
:102E2E00BF1FEC91D001EC931F5FF0CF1881AB96D2
:102E3E000895E0E0EA93A4E6B1E30E94752AE093D8
:102E4E006131E03049F40E940839E9ECF3E00E9468
:102E5E00403A0E94473A02C00E944D3A0E94513AAF
:102E6E00E6EBF5E3FA93EA93AAE00E94313AE030FA
:102E7E0051F40E940839E7EEF3E00E94563AE1E081
:102E8E00E093C23507C00E944D3AE0E0E093C235B0
:102E9E00E093060BA091C235A13009F0A5C0E7EE74
:102EAE00F5E3FA93EA93ECEFF3E00E94403AEDE09B
:102EBE00E093F435EAE0E093F5350E94513AE7EEFF
:102ECE00F5E30E945B3A29F40E9408390E94693AA0
:102EDE0002C00E944D3AE6EFF5E3FA93EA93E2E27E
:102EEE00F4E00E94403AEDE0E0930336EAE0E0932E
:102EFE0004360E94513AE6EFF5E30E945B3A29F45C
:102F0E000E9408390E94693A02C00E944D3A0E94FE
:102F1E00813AE03039F40E940839EFE2F4E00E9481
:102F2E00563A02C00E944D3A0E94CC38E4E0F0E3DB
:102F3E000E940C3AE2DE0E94283AA1E00E949F2AEB
:102F4E00A0E00E944A41E0936131E03049F00E94D6
:102F5E000839E3E4F4E00E94403A0E94E40F33C0E3
:102F6E000E94283AAAE00E94313AE03039F40E94D9
:102F7E000839E7EEF3E00E94843A02C00E944D3A0F
:102F8E000E94513A0E94893AE030D9F40E940839E1
:102F9E00E9E0F4E0FA93EA93E0916231F091633163
:102FAE00662777270E944A42E3E2F0E060E070E095
:102FBE000E944A4288E00E94F2322C960E94E40F50
:102FCE0002C00E944D3A0E94813AE03039F40E94CC
:102FDE000839EFE2F4E00E94843A02C00E944D3AB2
:102FEE00A4E6B0E00E94F93EE1E1E09345060895C3
:102FFE000E9421381A930A93E0914831E03021F073
:10300E00A0914931AF3F09F006C00E949B0385E3B2
:10301E008A95F1F733240991199160C10E942138E4
:10302E00332009F030C1E1E03E2EA1E0D0DDE09387
:10303E00B536F093B636E091B536F091B636E0502F
:10304E00F048E093B536F093B6360E94983A0E9457
:10305E00B538E093B736F093B8366093B9367093BF
:10306E00BA36E091B536E0931A31E091B536F0916B
:10307E00B6360E941F41E0931B31CC24E4E0CE16FD
:10308E0098F5EC2DADE5B0E30E940D39FF93EF936B
:10309E00AC2D0E943203AF91BF91ED93FC93EC2DBA
:1030AE00ADE6B0E30E940D39BF0100801180EC2D1A
:1030BE00ADE5B0E30E94A13AEC2DA5E5B0E30E9488
:1030CE000D39FF93EF93AC2D0E948203AF91BF9108
:1030DE000E94AE3ABF0100801180EC2DA5E5B0E351
:1030EE000E94A13AC394CACFE0915530E0931431B7
:1030FE00E0915630E0931531E0915730E09318315E
:10310E00E0915830E0931931E0915930E093163147
:10311E00E0915A30E0931731E0915B30F0915C30E2
:10312E000E94B43A4092203150922131E0915D30AC
:10313E00E0932431E0915E30E0932531E0915F30F1
:10314E00E0932631E0916030E0932731E0916130D9
:10315E00E0931C31E0916230E0931D31E091C23575
:10316E00E03009F490C0E091BB36EF5FE093BB36E0
:10317E00A091BB36A03109F086C00E94983AE0E1DA
:10318E00F0E060E070E00E94C541E093B336F0934A
:10319E00B436E0E0E093BB36E093B736E093B83652
:1031AE00E093B936E093BA36E091B336E09321302E
:1031BE000E94D23AE0932230CC24E4E0CE16D8F42A
:1031CE00EC2DADE6B0E30E940D390F010E94D93A05
:1031DE000E9419420E941141D0010E94AE3A0F0185
:1031EE000E94E23A0E9419420E941141D001ED93D1
:1031FE00FC93C394E2CFE0916530E0931B30E091F5
:10320E006630E0931C30E0916730E0931F30E09120
:10321E006830E0932030E0916930E0931D30E0910A
:10322E006A30E0931E30E0916B30F0916C300E946A
:10323E00B43A4092273050922830E0916D30E093AE
:10324E002B30E0916E30E0932C30E0916F30E093B4
:10325E002D30E0917030E0932E30E0917130E0939C
:10326E002330E0917230E0932430CC24E4E0CE168B
:10327E0050F40E94D93A0E94EB3A0E94E23A0E9420
:10328E00EB3AC394F3CF2AC00E942138E091C235A5
:10329E00E03011F00E941F2121C00E942138A09120
:1032AE00C235A130C9F40E94283AA3E00E94313AF7
:1032BE000E94513AA091A033B091A1338091A233D4
:1032CE009091A3330E94362EE09361310E94513AC1
:1032DE000E94893A0E94813A0E944D3AE991EFBFCD
:1032EE00F991E991B991A991999189917991699100
:1032FE00F9901990099018951A930A930FB7F894AC
:10330E00E0915000E260E0935000E0914100E078DF
:10331E001E2FE8EDE4BF10934100E0916000EE7FB8
:10332E00E0936000E0915100E270E1F3E091400023
:10333E00E87FE1601E2FE8EDE4BF10934000E091BE
:10334E005000E27EE0935000E091B400EC7FE093F9
:10335E00B4000FBF099119910895F894E091A2005D
:10336E00E873E7601E2FE8EDE4BF1093A200E0E0E3
:10337E00E093A100C1DF0E946B060E94BE090E946D
:10338E00C30F0E9453070E94F03A0E94D3100E946E
:10339E0066110E940839E0E5F4E00E94403A0E946E
:1033AE00F43A7894A1E00E94F73AE061E093840643
:1033BE0048DB0E94F03A0E94FD3A0E94033B78DB04
:1033CE000E94F03A0E94FD3A0E94033BA8DB0E9445
:1033DE00F03A0E94FD3A0E940839EAE5F4E00E94B4
:1033EE00403A0E94F43A0E94033B0E94FF110E9451
:1033FE00F03A0E940839EBE6F4E00E94403A0E944F
:10340E00FD3A0E94473A0E9451110E940839ECE79A
:10341E00F4E00E94403A0E94E40F7894A8ECB0E0E9
:10342E000E94F93E06DD0E945111E1E0E093010693
:10343E000E94093BE1E0E0930606A4E6B0E00E949C
:10344E00F93E0E94093B0E94FC39AAE00E94F73A1D
:10345E00EF7EE0938406AAE00E94F73AE061E093E3
:10346E0084060E940839E6E8F4E00E94403A0E9481
:10347E00E40FA1E0ACDBE093B336F093B436E09109
:10348E00B336E0931A310E94D23AE0931B310E9478
:10349E00F3020E9440030E9436100E949A100E946E
:1034AE001111AAE0B0E00E94F93E0E940839E6E947
:1034BE00F4E00E94403A0E94F43AA1E0B0E00E948B
:1034CE006142EF3FAFEFFA07AFEF6A07AFEF7A0750
:1034DE0031F4A1E0B0E00E94FB360E946E420E94E1
:1034EE000839E3EAF4E00E94403A0E94F43AA091CF
:1034FE002404B09125048091260490912704A132D2
:10350E00E8ECBE07E3EB8E07E6E59E0730F4E1E25A
:10351E00F8EC63EB76E50E940937E0918406EF7EC6
:10352E00E09384060E94C5030E942E06E2E0E0931B
:10353E00E7070E940213E0915836F09159366091D8
:10354E005A3670915B360E94A8424CF40E94103B92
:10355E00E0E0F0E060E772E40E948C4008F020C0EA
:10356E00E0915C36F0915D3660915E3670915F361B
:10357E00A0E0B0E086E993E40E948C4078F4A0913C
:10358E005C36B0915D3680915E3690915F36E0E0AC
:10359E00F0E46EE474E40E948C4008F001C001C0B7
:1035AE001EC00E94103B0E94193BA0E0B0EA8AE2C6
:1035BE0095E40E94A93F0E94363F3F0160921E3162
:1035CE0070921F310E941D3BE09322310E941D3BE1
:1035DE00DF01CB01E8E00E94EB40E0932331E09164
:1035EE00C235E03021F00E94CC3887DB48DB45DA6B
:1035FE007BDAB1DAE091A336E078E03821F4E0919D
:10360E002831E26007C0E091A336E07829F4E0911A
:10361E002831ED7FE0932831E0919B36E071E03167
:10362E0021F4E0912831E46007C0E0919B36E0710F
:10363E0029F4E0912831EB7FE0932831E0919B361D
:10364E00E072E03221F4E0912831E86007C0E091A9
:10365E009B36E07229F4E0912831E77FE093283120
:10366E00E0919B36E270E23021F4E0912831E06186
:10367E0007C0E0919B36E27029F4E0912831EF7E8D
:10368E00E0932831E091A336E870E83021F4E09120
:10369E002831E06207C0E091A336E87029F4E0918A
:1036AE002831EF7DE0932831E091A336E071E031CF
:1036BE0021F4E0912831E06407C0E091A336E07177
:1036CE0029F4E0912831EF7BE0932831E091AB367D
:1036DE00E074E03421F4E0912831E06807C0E09115
:1036EE00AB36E07429F4E0912831EF77E09328317E
:1036FE00E0917530E270E23021F4E091AD36E26097
:10370E0007C0E0917530E27029F4E091AD36ED7F9F
:10371E00E093AD36E0917530E470E43021F4E09141
:10372E00AD36E46007C0E0917530E47029F4E091A5
:10373E00AD36EB7FE093AD36E0917530E870E83052
:10374E0021F40E94253BE06407C0E0917530E870DB
:10375E0029F40E94253BE068E0939D36E091753098
:10376E00E071E03121F4E091AD36E86007C0E09100
:10377E007530E07129F4E091AD36E77FE093AD3618
:10378E00E0917530E072E03221F4E091AD36E06107
:10379E0007C0E0917530E07229F4E091AD36EF7E0E
:1037AE00E093AD36E0917530E074E03421F4E091B1
:1037BE009D36EE7F07C0E0917530E07429F4E091FC
:1037CE009D36E160E0939D36E0917530E078E0380B
:1037DE0021F4E091A536EE7F07C0E0917530E078D8
:1037EE0029F4E091A536E160E093A5360E945515C7
:1037FE000E948C15C1D9A0915731A13021F0A09112
:10380E005631A13019F5E0915231F091533160915A
:10381E005431709155310E944A420E94C3380E9421
:10382E004A420E94FB360E944A42AEE4B1E30E9435
:10383E00AD080E940037A1E0B0E00E946E420E94E7
:10384E009107E0E0E0935631E09357316FCEFFCF12
:10385E00AA930E94C44220E00C81AD81BE813D91AD
:10386E00AD83BE8318E0220FE22FE327E07811F03C
:10387E00E9E02E27330F1150B1F7015071F7E22F07
:10388E00EE0FE1600E94CB4268C51A93E2E3E0932B
:10389E00BE36EFEFE093C308E091C208E078E1F3A3
:1038AE00EFEFE093C308E091C208E078E1F31091E6
:1038BE00C3081F3F21F0E091BE36E03009F401C08D
:1038CE00EFCFE12FC9C4E1E0E0934506EFEFE093BF
:1038DE00C308E091C208E078E1F30895BA93AA9381
:1038EE000E94C442E4E1E093BD36EFEFE093C308DB
:1038FE00E091C208E078E1F31091C3081F3F21F474
:10390E00E091BD36E03009F401C0EFCF1E3F21F04B
:10391E00E0E00E94CB42F1C22E813F81EFEFE093B7
:10392E00C308E091C208E078E1F33F932F932F5F35
:10393E003F4FE091C308AF91BF91EC93EFEFE0934F
:10394E00C308E091C208E078E1F33F932F932F5F15
:10395E003F4FE091C308AF91BF91EC93EFEFE0932F
:10396E00C308E091C208E078E1F33F932F932F5FF5
:10397E003F4FE091C308AF91BF91EC93EFEFE0930F
:10398E00C308E091C208E078E1F33F932F932F5FD5
:10399E003F4FE091C308AF91BF91EC93EC81FD8155
:1039AE003497EC83FD8309F0B9CFEFEFE093C308B2
:1039BE00E091C208E078E1F3EFEFE093C308E09105
:1039CE00C208E078E1F3E1E00E94CB4296C2AA93EE
:1039DE000E94C4425ADFEF3F21F0E0E00E94CB424A
:1039EE00BCC4EC81E093C308E091C208E078E1F337
:1039FE00AC81AD3FC1F100E02D813E81D9012F5F39
:103A0E003F4FEC91E093C308E091C208E078E1F3F8
:103A1E00D9012F5F3F4FEC91E093C308E091C208AC
:103A2E00E078E1F3015051F7EFEFE093C308E09136
:103A3E00C208E078E1F3EFEFE093C308E091C2082B
:103A4E00E078E1F3EFEFE093C308E091C208E0788D
:103A5E00E1F31091C308E12FEF71E53021F0E0E0C2
:103A6E000E94CB427AC4E1E00E94CB4276C40E940F
:103A7E004F421A930A93EE81E07881F0EE81EF7750
:103A8E00EE83E7E7EA93A0E0B0E080E090E0EFDFBE
:103A9E000E2F023018F0198108815FC4AE81AC344C
:103AAE0059F011DFE1E0E0934606EFDEEF3F21F043
:103ABE00EFEF1981088151C4EE81E093C308E091C4
:103ACE00C208E078E1F3ED81E093C308E091C2080B
:103ADE00E078E1F3EC81E093C308E091C208E0786E
:103AEE00E1F3EB81E093C308E091C208E078E1F3E3
:103AFE00EA81E093C308E091C208E078E1F311E0B7
:103B0E00AE81A03411F415E904C0AE81A83409F4D5
:103B1E0017E81093C308E091C208E078E1F3AE8194
:103B2E00AC3439F4EFEFE093C308E091C208E078CB
:103B3E00E1F31FEFEFEFE093C308E091C208E078E6
:103B4E00E1F30091C30807FF02C0115009F401C050
:103B5E00F1CFE02F1981088100C4BA93AA931A936A
:103B6E0014E0EFEFE093C308E091C208E078E1F3D0
:103B7E00A981BA811196A983BA831197E091C308DE
:103B8E00EC93115071F7D3C4AA9324970E94C442A8
:103B9E00E885E03011F0E1E0C9C0EAE0E093BD361F
:103BAE00E091BD36E030E1F7E091BC36E27009F00D
:103BBE00BBC0E1E0E0934106E0934506E0EAE09306
:103BCE004606E0E4E0934206E8E1E0935606E0EBB9
:103BDE00E0934106E3E5E093C00835E01AE0EFEF2D
:103BEE00E093C308E091C208E078E1F31150B9F711
:103BFE00E0E4EA93A0E0B0E080E090E038DF0E2F42
:103C0E003150013011F0303009F401C0E7CF30E00F
:103C1E00013009F068C0E4E6E093BD36E8E4EA93CB
:103C2E00AAEAB1E080E090E022DFE13091F5DE011A
:103C3E00149693DFAE81A13019F4AF81AA3A09F040
:103C4E0027C0E091BD36E03049F0E9EEEA93A0E0FE
:103C5E00B0E080E090E40BDFE03009F401C0F1CF7A
:103C6E00E091BD36E03049F0EAE7EA93A0E0B0E03B
:103C7E0080E090E0FCDEE03009F00AC0DE01149630
:103C8E006CDFEC81E07411F0ECE001C0E4E03E2F5B
:103C9E002AC0E9EEEA93A0E0B0E080E090E0E7DE33
:103CAE00E23018F432E009EE02C031E001E4E091B6
:103CBE00BD36E03041F00A93A0E0B0E080E090E045
:103CCE00D6DEE03009F401C0F2CFE091BD36E0302F
:103CDE0049F0E0E5EA93A0E0B2E080E090E0C7DED4
:103CEE00E03009F030E03093BF36EDDD303049F092
:103CFE00E091BC36EE7FE093BC36E0EDE093C00879
:103D0E0013C0E1E0E0934606C0DDDDDDE0E0E093C8
:103D1E00C008E0EFE0934206E1E0E0934206E09156
:103D2E00BC36E160E093BC36E091BC360E94CB42DB
:103D3E0029960895AA93E881E03011F0E1E002C0DF
:103D4E00E091BC3621960895AA93EF81E03019F4E4
:103D5E00E881E03011F4E4E0D0C0E091BC36E170CF
:103D6E0011F0E3E0CAC0E091BF36E87071F4E9816A
:103D7E00FA816B817C81A0E0B2E080E090E00E944D
:103D8E004F41E983FA836B837C83A881A130A9F428
:103D9E00E1E5EA93AA81BB818C819D8168DEE030EA
:103DAE0059F4ED81FE81FA93EA93A0E0B2E096DD3C
:103DBE00E03011F0E0E0E88323C0E2E5EA93AA8167
:103DCE00BB818C819D8153DEE030D1F4ED81FE818B
:103DDE00FA93EA93A0E0B2E081DDE03051F0ED819C
:103DEE00FE81E050FE4FED83FE83E881E150E883D3
:103DFE0069F7ECE4EA93A0E0B0E080E090E037DE13
:103E0E0062DDE881E03011F0E1E001C0E0E075C074
:103E1E00AA93EF81E03019F4E881E03011F4E4E088
:103E2E006CC0E091BC36E17011F0E3E066C0E09149
:103E3E00BC36E47011F0E2E060C0E091BF36E8708D
:103E4E0071F4E981FA816B817C81A0E0B2E080E0BF
:103E5E0090E00E944F41E983FA836B837C83A881B3
:103E6E00A130A1F4E8E5EA93AA81BB818C819D8102
:103E7E00FEDDE03051F4ED81FE81FA93EA93AEEF70
:103E8E00A6DDE03011F0E0E0E88330C0E091BF360F
:103E9E00E67039F0E7EDEA93A981BB2788279927C9
:103EAE00E6DDE9E5EA93AA81BB818C819D81DFDDA8
:103EBE00E030E1F4ED81FE81FA93EA93ACEF87DD19
:103ECE00E03051F0ED81FE81E050FE4FED83FE8338
:103EDE00E881E150E88371F7E0E0F0E0FA93EA93CD
:103EEE00ADEF75DDE03011F4E1E0E883ECDCE88164
:103EFE00E03011F0E1E001C0E0E028960895BA93B9
:103F0E00AA9360970E94C442EF89E03011F0E4E07A
:103F1E008BC1E091BC36E17011F0E3E085C111E098
:103F2E00EE89E03041F4E1E0E0934606AEDCEF3F8F
:103F3E0009F410E077C1E13009F05BC0E9E4EA93DF
:103F4E00A0E0B0E080E090E092DDE03049F4FE01C8
:103F5E003496FA93EA93A0E1B0E0C0DCE03009F4C5
:103F6E0047C0EC81E295EF70E695E695E13069F495
:103F7E00E0E0FC85AD85B0E0EA0FFB1F31969F01B6
:103F8E00D90188279927EAE02CC0E985EF70AE2F7A
:103F9E00EE85E078EE1FE0E0EE1FAE0FED85E370EC
:103FAE00EE0FEA0FEE5F0E2FEC85E295EF70E695C1
:103FBE00E695AE2FEB85F0E00E940741B0E0AE0F24
:103FCE00BF1FEA85E370F0E00E940741FE2FE0E09C
:103FDE00EA0FFB1F31969F01D90188279927E02F01
:103FEE00E9500E94DF40AC89BD890E94284210E052
:103FFE0019C1E23041F4AC89BD89E0E0F2E0ED9305
:10400E00FC9310E00FC1E33009F0AFC0E091BF3672
:10401E00E470A1F1EDECEA93A0E0B0E080E090E076
:10402E0026DDE03051F5EFEFE093C308E091C208D2
:10403E00E078E1F3FE013496FA93EA93A0E1B0E062
:10404E004DDCE030D1F000E3003049F0EFEFE093CB
:10405E00C308E091C208E078E1F30150F5CFEE8598
:10406E00E295EF70A0E1B0E080E090E00E94DF40CA
:10407E00AC89BD890E94284210E076C0E9E4EA933B
:10408E00A0E0B0E080E090E0F2DCE03009F06CC03F
:10409E00FE013496FA93EA93A0E1B0E01FDCE03023
:1040AE0009F462C0E091BF36E27051F1EE85EF7314
:1040BE00FF27662777270E941A417F936F93FF93FE
:1040CE00EF93EF85E078FF2766277727DF01CB0197
:1040DE00E7E00E94F740AF91BF918F919F910E94B0
:1040EE00B040EF5FFF4F6F4F7F4FDF01CB01E9898C
:1040FE00E295EF70E695E695E1500E94DF402FC005
:10410E00EE85EC77E695E695FF2766277727EF5F36
:10411E00FF4F6F4F7F4F7F936F93FF93EF93EF851B
:10412E00E370FF2766277727DF01CB01E3E00E94CC
:10413E00DF40DF01CB01EF85E07EE295EF70E69583
:10414E00FF27662777270E94B040EF5FFF4F6F4F24
:10415E007F4FAF91BF918F919F910E944F41AC893C
:10416E00BD890E94284210E05DC0EA3039F4E0912A
:10417E00BF36AC89BD89EC9310E054C0EB3011F41E
:10418E0009E403C0EC3001F50AE40A93A0E0B0E0C4
:10419E0080E090E06CDCE030B1F4EC89FD89FA93BC
:1041AE00EA93A0E1B0E09ADBE03069F0EC89FD899A
:1041BE00FA93EA93AFE04CDBAE2FEC89FD89E785ED
:1041CE00EA1709F410E02EC0ED3071F4EAE7EA9335
:1041DE00A0E0B0E080E090E04ADCE03021F4AC8971
:1041EE00BD89BBDC10E01EC0EE30D9F4EDECEA93D5
:1041FE00A0E0B0E080E090E03ADCE03089F4EFEF50
:10420E00E093C308E091C208E078E1F3EC89FD8900
:10421E00FA93EA93A0E4B0E061DBE03009F010E03D
:10422E0001C014E050DBE12F0E94CB426896089546
:10423E001A931091BD36103019F011501093BD36EF
:10424E001091BE36103019F011501093BE36E09119
:10425E00BC36EB7FE093BC36199108952797A09159
:10426E000030B0910130109731F0A0910230B09132
:10427E000330109729F4E0E0F0E061E27AE36DC0DC
:10428E00FE013696FA93EA93FE013796FA93EA9375
:10429E00DE011896E0910030F09101300995FE0193
:1042AE003396FA93EA93FE013496FA93EA93DE017B
:1042BE001496E0910230F09103300995E881F9816E
:1042CE00EC5BF74066277727DF01CB01E9E10E941F
:1042DE00DF407F936F93FF93EF93EA810E942D3B14
:1042EE00E5E10E94DF40AF91BF918F919F910E94B7
:1042FE00C940DF01CB01EB81F0E00E943B410E94FF
:10430E0030410E94C9407F936F93FF93EF93EE81EC
:10431E000E942D3BEBE00E94DF40AF91BF918F9149
:10432E009F910E94C9407F936F93FF93EF93ED810E
:10433E000E942D3BE5E00E94DF40AF91BF918F912F
:10434E009F910E94C940DF01CB01EC81F0E0F59511
:10435E00E7950E943B410E94C94027960895AA9373
:10436E001A93EA81FB81E4911E2FE03019F0E98166
:10437E00E11709F406C0EA81FB813196EA83FB83DB
:10438E00F0CFE12FF0E01881249608950E944F425D
:10439E0024971A93A985BA859E960E94333B0E9454
:1043AE003A3B0E943F3B0E94B84209F450C0E98557
:1043BE00FA85E481E03089F10E94443BE030E1F57A
:1043CE00A985BA851496E0E0EC93E985FA850E94FA
:1043DE00533B0D01A985BA855A960E941D42D00104
:1043EE000E94B0400E943F3B0E94BD42B0F4E9855E
:1043FE00FA851381123088F0A985BA855A960E94E3
:10440E001D420E943F3B0E94B040E983FA836B83BA
:10441E007C830E94443B1150EDCF0E943A3B0E9498
:10442E00AE42A9F0E985FA85A181AA93EA85FB85BA
:10443E00F2960E94583B21F0E1E018812B960895E8
:10444E000E943A3BA985BA859E960E942842E0E0DA
:10445E00188158C4BA93AA931A93E981FA810E94DB
:10446E00623B1E2F103009F061C0A981BA81AC9158
:10447E00A33029F4E981FA81E581E03009F44AC0DC
:10448E00A981BA819E960E946A3BE981FA81F296D1
:10449E000E941D39A0E0B2E00E945733E981FA81F3
:1044AE00F296E250FE4FA5E5BAEAA083B183E98108
:1044BE00FA81F296A2E5B2E581E691E40E946E3BA6
:1044CE00EC51FE4FA2E7B2E781E491E60E946E3B0B
:1044DE00E851FE4F0F01A981BA811E960E94743BCE
:1044EE00F296E451FE4F0F01A981BA811A960E94ED
:1044FE00743BA181AA93EA81FB81F296FA93EA9327
:10450E00EC81FD810E947C3B83DCA981BA811596EA
:10451E00E0E0EC93E981FA81A181AA93E0E0EA93CD
:10452E00A0E0B0E0ECDCE03009F011E0E12F188102
:10453E00239608950E944F4224970E94C4420E94DF
:10454E0006380E94843B50F0AC85BD855E960E9475
:10455E001D420E9406380E94BD4218F00E94483744
:10456E0060C0AC85BD8592960E948C3BAC85BD85A6
:10457E00EC91F0E0E130A0E0FA0739F528853985B5
:10458E00F901F695E7952E0F3F1F0E948F3B09F01C
:10459E0046C00E94A43B0C9111272F5F3F4F0E94F3
:1045AE008F3BE9F50E94A43BEC91FE2FE0E00E2B31
:1045BE001F2BE885E17021F0F8010E94114102C025
:1045CE00F801FF70662777272CC0E230A0E0FA07CB
:1045DE0079F40E94AC3B0E94B53B0E94BC3BF9F4BF
:1045EE00A885B985E2E00E94C63B0E94CF3B19C068
:1045FE00E330A0E0FA0799F40E94AC3B0E94D43B52
:10460E000E94BC3B61F4A885B985E4E00E94C63BDC
:10461E000E941D42EF7FFF7F6F7F7F7002C00E945E
:10462E00DB3B0E94CB422E9608950E944F42249768
:10463E000E94C2420E94E03B0E94843B50F0AA8935
:10464E00BB895E960E941D420E94E03B0E94BD42C5
:10465E0010F052E085C0AA89BB8992960E941D4235
:10466E00EE83FF8368877987AA89BB89EC91F0E096
:10467E00E130A0E0FA0709F043C00E851F85F8016E
:10468E00F695E7950E0F1F1F0E94E53B09F063C0DC
:10469E000E94F83B51F0D901EC91EF70AE2FEA85F4
:1046AE00F0E00E940341EA2B01C0EA85D901EC93A8
:1046BE000F5F1F4FAA89BB891496E1E0EC930E940D
:1046CE00E53B09F048C00E94F83B49F00E94033CCC
:1046DE00E4E00E94F740FF27662777270EC0D90136
:1046EE00EC91E07F1E2E0E94033CE8E00E94F74012
:1046FE00FF2766277727EF70E129D901EC932BC0AE
:10470E00E230A0E0FA0789F40E94083C0E94B53B13
:10471E000E940D3C01F5AE85BF85E2E00E94153C7E
:10472E00AA85BB85A083B18316C0E330A0E0FA074B
:10473E0089F40E94083C0E94D43B0E940D3C59F41F
:10474E00AE85BF85E4E00E94153C0E94033C0E94AA
:10475E00454201C052E0AA89BB891496E1E0EC9370
:10476E00E52F0E94C942649608950E944F422497F5
:10477E001A930E941E3C0E94843B18F00E94233C18
:10478E0010F012E044C010E00E94233C08F03FC03D
:10479E00E985FA85FA93EA93AF81B88589859A857A
:1047AE00C9DEE983FA836B837C830E942C3C0E94D2
:1047BE00AE4269F10E943F3B0E94313C11F412E07F
:1047CE0026C00E943F3B0E94393C11F411E01FC0ED
:1047DE00E985FA85FA93EA93EF81F88569857A85FA
:1047EE000E944A420E94413C20DF1E2F103079F475
:1047FE00E985FA850E94463C29F00E944B3C1596AD
:10480E00E1E0EC930E942C3C0E94563CBDCFE12F80
:10481E00188178C20E944F426097AC89BD895E961E
:10482E000E941D420E944D370E945B3CB1F4AC8940
:10483E00BD891A960E948C3B0E945F3C0E94B24238
:10484E0039F00E94643C0E945F3C0E94BD4220F001
:10485E000E9448370E94B8371DC00E94673C0E94D4
:10486E006C3C68DE0E949F370E94CB370E94843BCF
:10487E0018F40E94483785C00E94643C0E94CB37D2
:10488E000E94BD4218F40E940B387BC00E948F37E5
:10489E000E94B8370E94D5370E94B3370E94D03796
:1048AE000E945D370E94B3370E94643C0E94063816
:1048BE000E94BD4260F0E2E0F0E060E070E00E9435
:1048CE00B3370E94713C18F40E94FB365AC00E9406
:1048DE00673C0E94033C2EDE0E94763CA1F00E94B3
:1048EE00CB370E94393C29F00E94CB370E94313CD5
:1048FE0019F40E940B3845C00E94713C19F40E94B5
:10490E00FB363FC0CBCF0E94673C0E947B3C0E948F
:10491E004A42AFEFBFEF8FEF9FE087DEE03019F036
:10492E000E94DB3B2EC00E945B3C71F00E94673CF4
:10493E000E94803C0E944A420E94E03B76DEE030BC
:10494E0019F00E94DB3B1DC00E94D037AC89BD8997
:10495E001A960E942842EC89FD890E94463C79F005
:10496E00AC89BD891E960E942342319760407040EB
:10497E000E942D42AC89BD891596E1E0EC930E9410
:10498E00D037669608950E944F420E94643CE250D2
:10499E00F040604070400E944D37EC81FD81A68D45
:1049AE00B78D80A191A1E2E0F0E060E070E00E949E
:1049BE00853C0E948A3C0E94BD4218F00E94FB3644
:1049CE0075C3EC81FD81E281F0E00E948A3C0E9479
:1049DE003B410E944F417F936F93FF93EF93AC81C6
:1049EE00BD819A960E941D42AF91BF918F919F916A
:1049FE000E94B0405BC3BA93AA9324971A930A936A
:104A0E00EE81FF81A885B9851496ED93FC93A88558
:104A1E00B98516960E948D3C0E94943C0E94313CB2
:104A2E0029F00E94993C0E949E3C10F0E2E076C074
:104A3E000E94A63C29F40E94993CA081A33009F063
:104A4E0006C00E94993CB696DF010E948D3C0E94E2
:104A5E00A63CA1F40E94AD3C3896DF010E9419429B
:104A6E00AE81BF81AE17BF0710F0E2E057C00E94C3
:104A7E00993CB696DF010E941D4235C00E94993CBA
:104A8E00E281A0E1EA9F8001AE81BF81A017B1074C
:104A9E0018F10E94993CFA93EA930E945F3C4ADD1A
:104AAE000E94B73C0E94943C0E94393C11F4E1E014
:104ABE0035C00E94943C0E94843B28F00E94993C91
:104ACE000E949E3C10F0E2E029C0EE81FF81E01BC7
:104ADE00F10BEE83FF83D8CF0E94AD3CFA93EA939D
:104AEE000E945F3C50DFDF01CB01EE81FF810E940F
:104AFE0011410E94BC3CA885B9851E960E94284291
:104B0E000E94993CF296DF01EE81FF810E94C13C2A
:104B1E00A885B9855296ED93FC93E0E01981088142
:104B2E002A960895AA9324970E94C442A985BA850D
:104B3E0014960E94194231968F01002E012A31F0EF
:104B4E00A985BA851E960E94C93C11F4E4E0D8C02E
:104B5E00F801EF7009F0C1C00E944B3C1A960E94FA
:104B6E00C93C61F40E94CE3C3896DF010E94194286
:104B7E000E171F0710F0E4E0C3C0AFC0F8010E948B
:104B8E0011410F010E94CE3CE281F0E03197E0210D
:104B9E00F121309709F0A1C00E94CE3C0E94D33C77
:104BAE00C9DC0E94B8370E945F3C0E94843B10F41F
:104BBE00E2E0A6C00E945F3C0E94393C11F4E1E0A5
:104BCE009FC00E94CE3C7E96DF010E941D420E9435
:104BDE005F3C0E94BD4208F470C0E885E03011F4DD
:104BEE00E4E08EC00E94CE3C0E94D33C13DE0E94B5
:104BFE00DC3C0E94AE4211F4E7E082C00E945F3CB2
:104C0E000E94313C11F4E2E07BC00E945F3C0E94A6
:104C1E00393C11F4E1E074C00E94CE3C0E94623B2C
:104C2E00E03011F0E1E06CC00E94CE3CF2960E94A2
:104C3E001D39A0E0B2E00E9457330E94CE3CDF0146
:104C4E00BE96FF93EF93FD010E94DE3CAF91BF91A4
:104C5E000E94284230E00E94CE3CE2813E17C8F40A
:104C6E000E94CE3C3496A1E0A0830E94CE3C0E94CE
:104C7E00623BE03011F0E1E043C00E94CE3CBE96B4
:104C8E00DF010E9423420E945D370E942D423F5F4A
:104C9E00E2CF0E94CE3CBE96FF93EF93DF010E94BF
:104CAE001D42DF01CB01E32FF0E00E943B410E9449
:104CBE00853CAF91BF910E9428420E94D537A985AD
:104CCE00BA851A960E9428420E94CE3C0E94DE3C73
:104CDE00A985BA851E960E942842F801A985BA8533
:104CEE001496ED93FC930E94CE3CF296DF01F801F0
:104CFE000E94C13CA985BA855296ED93FC93E0E0E3
:104D0E000E94CB422B9608950E94E63C21F0E12FA3
:104D1E000E94CB42CBC10E94F53C01F5AC81BD8116
:104D2E0052962D913C91D9010C91003011F414E062
:104D3E0015C0F901E385E87031F40E94063D0E942A
:104D4E002C33E03009F001C009C0EC81FD81FA93EB
:104D5E00EA93A0E0E7DE1E2F1030E9F2E12F0E9469
:104D6E00CB42A4C10E94E63CB1F40E94F53C99F4FA
:104D7E00EC81FD81A289B3890C91053E11F00030C2
:104D8E0009F409C0EC81FD81FA93EA93A1E0CADE31
:104D9E001E2F103051F3103029F50E94F53C11F5FD
:104DAE00AC81BD8152962D913C913A932A93E0E0CD
:104DBE00EA93A0E2B0E00E9457330E94063D0E94A3
:104DCE004533AC81BD8154960E941942E385E8714A
:104DDE00D9011C96EC93AC81BD810E941942349688
:104DEE00A1E0A083E12F0E94CB4260C1BA93AA93A7
:104DFE0025970E94C242AD85BE8554964D915C9119
:104E0E005A934A93E0E2EA93ABE0B0E00E94573344
:104E1E00E0E0E887E9871E2F2E2FE8E0EA87AB85D2
:104E2E00BC850E94113D0E94163DAE0FBF1FAC9176
:104E3E00AE3209F50E941B3D0E3221F4A885B985CC
:104E4E0013970CF003C00E94273DF4CF0F3221F0D0
:104E5E000C3511F0013208F402C0E6E06DC00E947C
:104E6E00163D0E942E3D10F4E4E201C0E0E2DA01AC
:104E7E001B96EC9360C00E941B3D013220F00F3256
:104E8E0011F00C3509F432C00E3219F0EA852E17E6
:104E9E0068F0AA85A83011F40E3211F0E6E04CC08D
:104EAE0028E0EBE0EA87110F110F1FC0003818F051
:104EBE001360E6E041C0EAE0F2E0FA93EA93A02F35
:104ECE004EDA309711F0E6E037C0013410F00B35B2
:104EDE0008F002C0126007C0013610F00B3708F060
:104EEE0002C0116000520E94273DC5CF0E94163DA0
:104EFE000E942E3D10F4E4E001C0E0E00E2F2030C1
:104F0E0011F4E6E019C0DA01AC91A53E19F4DA010C
:104F1E00E5E0EC93AA85A83011F4110F110FE12FE3
:104F2E00E370E13009F40061E12FEC70E43009F434
:104F3E000860FA010387E0E00E94C9422F960895A7
:104F4E00BA93AA930E94C442E1E0E03029F0AC810A
:104F5E00BD81AC91A03209F006C0EC81FD81319685
:104F6E00EC83FD83F1CFAC81BD81AC91AF3229F0E2
:104F7E00AC81BD81AC91AC3559F4EC81FD8131969B
:104F8E00EC83FD83AE81BF8116960E946A3B0AC0F8
:104F9E00AE81BF810E9419427696DF010E941D42AA
:104FAE000E94363DAC81BD81AC91BB27909760F4D9
:104FBE000E943C3DA0E0B0E01EDD1E2FAE81BF8101
:104FCE0052960E94EB3A3DC00E943C3DDE01169681
:104FDE000DDF1E2F1030A9F5AE81BF8195DE1E2F7D
:104FEE00AE81BF8154960E941942E385E4700E2F64
:104FFE00103039F0143011F4003009F001C015E012
:10500E0020C00030F1F4AE81BF8152962D913C91BB
:10501E00F901E385E07111F415E013C00E94413DE2
:10502E000E9430417F936F93FF93EF930E94443D14
:10503E00AF91BF918F919F910E94493D0E94363D45
:10504E00C3CFE12F0E94CB42289608950E944F4273
:10505E00EC81FD81A181AA93ED81FE81F296FA93F6
:10506E00EA93EB81FC816D817E810E944E3D11F0B1
:10507E00E3E01CC0EC81FD810E94553D11F0E2E0A1
:10508E0015C0AC81BD81A859BF4F0E945F3D11F480
:10509E00E0E00CC0EC81FD81F296EE5AFF4FDF018D
:1050AE000E945F3D11F4E0E001C0E1E02696089514
:1050BE00AA9364970E94C242AD8DBE8D0E94194282
:1050CE00E887F987A885B985EC91E0530E2F0A3051
:1050DE0020F41196AC91AA3309F00AC0E885F9853F
:1050EE003296E887F987AD8DBE8DED93FC9302C0A5
:1050FE000091C436013010F0EBE0CAC1E02F0E94DF
:10510E006D3D0E94113DAB8DBC8DED93FC93EE81F8
:10511E00FF81309711F4ECE0BBC1AE81BF81EC9101
:10512E00E03089F0EE81FF81A1810E94A11E5E2FE9
:10513E0050FD09C0EA8DE03011F052FD01C002C0F1
:10514E00EAE0A6C1A4C1AE81BF81E0E0EC93E02FFE
:10515E00AE81BF811196EC93EE81FF81A1810E94F9
:10516E00CB1D5E2F50FF02C0E3E092C1EA8DE0300E
:10517E0011F052FD01C002C0EAE08AC10E943C3D1E
:10518E000E94FB36E88FF98F6A8F7B8FDF01CB0190
:10519E005DDF1E2F1130C9F4EE81FF81F296E254CD
:1051AE00FE4F9F01E481E03081F0D90118960E94F4
:1051BE001D42EE8BFF8B688F798F0E943C3DA88D30
:1051CE00B98D8A8D9B8D42DF1E2F133011F4E1E0D5
:1051DE005FC1103049F4AE81BF81DD960E94194245
:1051EE00E030A2E0FA0711F0EDE052C1AE81BF81CE
:1051FE00A85BBF4F0E94CF3B0E94753D0E94803C32
:10520E000E94AE4241F4AE81BF81AA5ABF4F0E94A6
:10521E001D420E94753D0E94803CAE81BF815A9610
:10522E000E942842EE81FF81EE5BFF4FE081AE814E
:10523E00BF811396EC93EE81FF81E381F0E00E9433
:10524E006C3C0E943B410E944F410E94753D0E9462
:10525E007A3D0E94813DAE81BF8192960E94284286
:10526E00EE81FF81E7ADAE81BF811296EC93AE81E8
:10527E00BF81AD5BBF4F0E941942AE81BF811896B0
:10528E00ED93FC93AE81BF81AB5BBF4F0E94CF3BD2
:10529E00EE87FF87688B798B0E94AE4251F4AE8108
:1052AE00BF81AE5ABF4F0E941D42EE87FF87688BAB
:1052BE00798B0E947A3D0E94E03B662777270E94F9
:1052CE00853C0E946C3C0E94BA407F936F93FF9383
:1052DE00EF930E94863DAF91BF918F919F9166276C
:1052EE0077270E94BF40EE81FF81E281F0E00E94AD
:1052FE003B410E94A041EE5FFF4F6F4F7F4F0E94D8
:10530E008E3DAE81BF815E960E94284211E00E94C2
:10531E00033CA73FEFE0BE07E0E08E07E0E09E070C
:10532E0008F012E00E94033CA73FEFEFBE07E0E05B
:10533E008E07E0E09E0708F013E0133039F4AE81DB
:10534E00BF81A25ABF4F0E941D4202C00E94933DD0
:10535E00AE81BF8196960E9428420E94933D7F9314
:10536E006F93FF93EF930E94863DAF91BF918F9104
:10537E009F910E94BC3CAE81BF819A960E942842AA
:10538E00AE81BF811E960E94DB3B0E942842AE81F9
:10539E00BF811496E0E0EC93133009F05FC0AE814C
:1053AE00BF811596EC93AE81BF81AE59BF4F0E945F
:1053BE0019420E94813DAE81BF8152960E942842C1
:1053CE00EE81FF81A181AA93EF81F885F296FA937F
:1053DE00EA93E985FA850E947C3B0E94AB1EE03081
:1053EE0011F5EE81FF810E94553DE9F4AE81BF813A
:1053FE00D2960E941D42E235A2E5FA07A1E66A079F
:10540E00A1E47A0781F4EE81FF81F296EC51FE4F12
:10541E00DF010E941D42E237A2E7FA07A1E46A0704
:10542E00A1E67A0709F01AC0EE81FF81F296E451E7
:10543E00FE4FDF010E941D42AE81BF811A960E946F
:10544E002842EE81FF81F296E851FE4FDF010E9465
:10545E001D42AE81BF811E960E942842AE81BF8141
:10546E001C939E960E946A3BAE81BF8156960E9407
:10547E006A3BE091C236F091C3363196E093C23664
:10548E00F093C336AE81BF811696ED93FC93E0E0A8
:10549E000E94C9426F960895BA93AA93EA81FB813E
:1054AE00309771F0AA81BB81EC91E03049F0EA812E
:1054BE00FB81A681B781E881F981EA17FB0711F01C
:1054CE00E9E00AC0EA81FB81A1810E94A11EE17080
:1054DE0011F0E3E001C0E0E024960895BA93AA9398
:1054EE001A930A93AC81A13010F0EBE01DC0EC8151
:1054FE000E946D3D0D911C91002E012A19F0D801CC
:10550E00E0E0EC93EA81FB81309721F0AA81BB8128
:10551E00E0E0EC93EC81A0ECB6E30E940D39AA8199
:10552E00BB81A083B183E0E019810881259608959F
:10553E00AA93A2970E94C442A9A5BAA50E94EB3ACB
:10554E00EEA1EF71EEA3FE01B796FA93EA93FE0178
:10555E007296FA93EA93EAA5EE71AE2FA9DD1E2F8D
:10556E00103009F013C1FE013496ECA3FDA3FE0129
:10557E007096FA93EA93A9A5BAA5E2DC1E2FEEA1C6
:10558E00EC7109F496C02897103089F0143021F48C
:10559E00DE015896E7DB1E2F103019F0E12F28960A
:1055AE00F5C0EEA5E860EEA72AA53BA569C0EEA55D
:1055BE00E47019F0E8E02896E9C02AA53BA5022E72
:1055CE00032A21F0F901E385E17119F0E7E028964D
:1055DE00DDC0EEA5E87009F453C00E94413D0E9463
:1055EE0030417F936F93FF93EF930E94443DAF91B1
:1055FE00BF918F919F910E94493D0E944D37F901B5
:10560E007496A0E0B0E0A083B183F9017A96A083EE
:10561E00B183F9017C960E94413C0E944542A88DBF
:10562E00B98D1496E1E0EC93A88DB98D9E960E94EB
:10563E008C3B0E947D37A9F0E88DF98DFA93EA93A1
:10564E000E94943C92D81E2F103011F028969EC0C6
:10565E000E94643C0E941038A88DB98D1A960E9443
:10566E002842E88DF98DFA93EA93AE81BF81888541
:10567E0099850E94CD211E2F103011F0289686C0DC
:10568E00EEA5E870A1F0F9013B96A0E0A0830E9480
:10569E0035210E94DC3CD9011E960E942842A88D1D
:1056AE00B98D1496E1E0EC93EEA5E062EEA7289694
:1056BE0019C0103011F0E12F69C02AA13BA1022EB2
:1056CE00032A21F0F901E385E07111F0E4E05EC0F8
:1056DE00EEA1E27021F0F901E385E17009F402C058
:1056EE00E7E054C0A889B9899E960E941D42A9A5DB
:1056FE00BAA55A960E942842EAA1FBA1A9A5BAA56D
:10570E005E96ED93FC93EEA1A9A5BAA51496EC9323
:10571E000E94413D0E9430417F936F93FF93EF9320
:10572E000E94443DAF91BF918F919F910E94493D40
:10573E00A9A5BAA51E960E942842D9015C960E9480
:10574E001D42A9A5BAA51A960E942842A9A5BAA5D6
:10575E0016960E946A3BA9A5BAA51596EFEFEC9393
:10576E00A9A5BAA556960E946A3BE889F989A9A50A
:10577E00BAA5ED93FC93A889B98916960E94194291
:10578E00A9A5BAA51296ED93FC93E0E00E94CB4238
:10579E00AB960895BA93AA932A970E94C242EC89B7
:1057AE00FD89EE83FF83A889B9890E94EB3A0E9496
:1057BE009A3D0E949F3D0E94A43D11F0E12FB2C17F
:1057CE00EE89FF89A481A07811F0E2E0ABC1EE89E9
:1057DE00FF89A481A27011F4E7E0A4C1EE89FF89CC
:1057EE00A285B38584859585EA89FB890E94BC3C98
:1057FE007F936F93FF93EF930E94AB3DAF91BF9159
:10580E008F919F910E94BD4218F4E0E0EA8BEB8BE2
:10581E00EA89FB89309709F46BC10E94B13DFD0105
:10582E00BC01F170309709F01FC1EE89FF89058028
:10583E000E949A3DE2810E1608F44AC0AE89BF89D5
:10584E0016960E94C93CA1F4AE89BF891E960E948D
:10585E001D420E94763C59F40E949A3D0E94B83D2A
:10586E000E949F37AE89BF891E960E9428420CC0A7
:10587E000E949A3D0E949F3DA289B3898489958991
:10588E000E9411240E949F370E940B380E94AE4244
:10589E0009F42EC10E94CB370E94313C21F40E94A4
:1058AE00BD3DE2E03FC10E94CB370E94393C21F45E
:1058BE000E94BD3DE1E036C10E940B38AE89BF8922
:1058CE0052960E942842AE89BF891596E0E0EC936D
:1058DE00EE89FF89A481A07489F00E949A3D0E94EE
:1058EE00C43DE98DFA8D0E94CC3D0E94D13D21F040
:1058FE000E94BD3DE1E016C10E94D83D0E949A3D36
:10590E000E949F3DA289B389848995893CD80E94C3
:10591E00B3370E94D0370E94AE4221F40E94BD3DA3
:10592E00E2E000C10E94DF3D0E9406380E94B538B9
:10593E000E94B337AA89BB89E0E0F2E00E948D4154
:10594E00AF01042E052A09F464C00E94DF3DE40F66
:10595E00F51F0F010E949A3DE281D001F0E0EA1797
:10596E00FB0750F40E949A3DE281F0E0DF010E94B5
:10597E00DF3DAE1BBF0BAD010E949A3DE181EA9364
:10598E00EF81F885FA93EA93EB85FC856D857E852C
:10599E000E944A42A42F0E940F1FE03021F00E9465
:1059AE00BD3DE1E0BFC00E94E43D0E94BF40FA0150
:1059BE00662777270E94BD42F8F4EE89FF89B096DC
:1059CE000E949F3D0E94CC3D0E947B3C0E94BF40A6
:1059DE00E0E0F2E060E070E00E944F41A885B985FA
:1059EE0088279927EA0FFB1FFA93EA93A0E0B2E00B
:1059FE000E9445330E94D83DAE89BF891596EC9121
:105A0E00E40FEC93FA01EE0FFF1FFE2FE0E09F0173
:105A1E004DC00E94E43D0E94B842C9F00E94B13DC3
:105A2E000D010E94AB3DD0010E94BD4258F40E9470
:105A3E009A3D0E94C43DEB85FC856D857E850E9456
:105A4E004E3D09F404C00E94BD3DE1E06BC00E94D2
:105A5E00D037AE89BF8956960E942842AE89BF893B
:105A6E001596EC91EF5FEC930E94E83DA0E0B2E05A
:105A7E00AE1BBF0B9D01EA89FB89E217F30710F4F9
:105A8E002A893B890E94E83DAE89BF899096EA0F2C
:105A9E00FB1FFA93EA930E94EF3DD9010E94453312
:105AAE00AE89BF891496EC91E064EC93F901AE8156
:105ABE00BF81EA0FFB1FEE83FF83EE89FF890E94F1
:105ACE00F43DDF01CB01F9010E94BC3CD0010E94E4
