:100000009EC40000BDC40000BBC40000B9C4000011
:10001000B7C40000B5C40000B3C40000B1C4000000
:10002000AFC40000ADC40000ABC400000C94414359
:10003000A7C400000C94E92B0C947D100C94AA101A
:100040000C94D7100C9404110C9431110C945E1183
:100050000C948B110C94B8110C94E5110C941212A1
:100060008FC400008DC400008BC4000089C4000050
:1000700087C4000085C4000083C4000081C4000060
:100080007FC400007DC400007BC4000079C4000070
:1000900077C4000075C4000073C400000C94B5352B
:1000A0000C94E7350C9419360C944B3669C4000057
:1000B00067C4000065C400000C94102C0C9401145B
:1000C0000C942E140C945B140C9488140C94B5149A
:1000D0000C94E2140C940F150C943C150C946915B7
:1000E0000C9496154DC400004BC4000049C4000098
:1000F00047C4000045C4000043C4000041C40000E0
:100100003FC400003DC400003BC4000039C40000EF
:1001100037C4000035C4000033C400000C94ED3433
:100120000C941F350C9451350C94833529C4000070
:1001300027C400000C943F120C946C120C9499127A
:100140000C94C6120C94F3120C9420130C944D13BF
:100150000C947A130C94A7130C94D41311C40000BC
:100160000FC400000DC400000BC4000009C400004F
:1001700007C4000005C4000003C4000001C400005F
:10018000FFC30000FDC30000FBC30000F9C3000073
:10019000F7C30000F5C30000F3C30000F1C3000083
:1001A000EFC30000EDC30000EBC30000E9C3000093
:1001B0000C94C3150C94F0150C941D160C944A164F
:1001C0000C9477160C94A416DBC30000D9C300006E
:1001D000D7C30000D5C30000D3C30000D1C30000C3
:1001E000CFC30000CDC30000CBC30000C9C30000D3
:1001F000C7C300000C9452330C9401346D4A704A0A
:10020000724A754A774A7A4A7D4A804A824A854AC2
:10021000537472696E67203400537472696E67207C
:100220003300446F75626C650053696E676C6500DE
:100230005365747570207265673A00436C6F636B29
:10024000207265673A00417070726F783A005465A9
:100250006D7065726174757265002B3435206D693F
:100260006E002B3330206D696E002B3135206D69A7
:100270006E002030206D696E0054696D657A6F6E76
:1002800065206D696E757465733A002B31323A20C2
:1002900046696A69002B31313A20536F6C6F6D6F7C
:1002A0006E2049736C616E64002B31303A204145F9
:1002B000535400202B393A20546F6B796F00202B58
:1002C000383A20486F6E67204B6F6E6700202B37DF
:1002D0003A20546861696C616E6400202B363A20C4
:1002E00042616E676C616465736800202B353A204B
:1002F00050616B697374616E00202B343A204D6F2E
:1003000073636F7700202B333A204E6169726F62FE
:100310006900202B323A20497374616E62756C005B
:10032000202B313A204F736C6F2C204265726C6920
:100330006E005554433A20554B2028474D54290010
:10034000202D313A20507261696100202D323A200F
:10035000536F7574682047656F7267696100202D5F
:10036000333A20477265656E6C616E6400202D34EF
:100370003A2045435400202D353A20456173746579
:10038000726E00202D363A2043656E7472616C00E7
:10039000202D373A204D6F756E7461696E00202DE7
:1003A000383A205061636966696300202D393A202C
:1003B000416C61736B61002D31303A204861776187
:1003C0006969002D31313A204B696E676D616E208D
:1003D00052656566002D31323A2042616B657220AC
:1003E00049736C616E640054696D657A6F6E652047
:1003F000686F7572732055544300FF7E3C18FF7E72
:100400003C18183C7EFF0000000000000020202067
:1004100020200020505050000000005050F850F8AC
:1004200050502078A07028F020C0C81020409818A4
:100430006090A040A890686020400000000010205C
:10044000404040201040201010102040005020F864
:10045000205000002020F820200000000000602034
:1004600040000000F8000000000000000060600094
:10047000081020408000708898A8C88870206020EC
:1004800020202070708808102040F8F810201008F4
:10049000887010305090F81010F880F008088870BC
:1004A000304080F0888870F8081020404040708804
:1004B0008870888870708888780810600060600094
:1004C0006060000060600060204008102040201044
:1004D000080000F800F800008040201020408070E4
:1004E00088081020002070880868A8A87070888884
:1004F00088F88888F08888F08888F0708880808004
:100500008870E09088888890E0F88080F08080F89B
:10051000F88080E0808080708880809888708888EB
:1005200088F88888887020202020207038101010CB
:100530001090608890A0C0A090888080808080808B
:10054000F888D8A8888888888888C8A898888870F3
:10055000888888888870F08888F080808070888893
:1005600088A89068F08888F0A090887880807008CB
:1005700008F0F8202020202020888888888888702B
:1005800088888888885020888888A8A8D8888888FB
:10059000502050888888885020202020F80810207B
:1005A0004080F8382020202020380080402010088B
:1005B00000E02020202020E02050880000000000E3
:1005C0000000000000F84020100000000000007053
:1005D000087888788080B0C88888F00000708080B3
:1005E00088700808689888887800007088F880709B
:1005F000304840E0404040000078887808308080F3
:10060000B0C888888820006020202070100030103A
:1006100010906040404850605048602020202020CA
:10062000700000D0A8A888880000B0C8888888001A
:100630000070888888700000F088F0808000006872
:10064000987808080000B0C8808080000070807032
:1006500008F04040E04040483000008888889868B2
:100660000000888888502000008888A8A8500000D2
:100670008850205088000088887808700000F810A2
:100680002040F81020204020201020202020202072
:100690002040202010202040088942183DBC1842EC
:1006A00091103C7EFF8180100A021A021A020A1081
:1006B0006050A09884828C844C300D0A57656C631E
:1006C0006F6D6520746F2074686520584D454741F3
:1006D0002D413342552058706C61696E6564204429
:1006E000656D6F2043444320696E74657266616373
:1006F00065210D0A0D0A4B65792062696E64696E89
:10070000677320666F72204C4344206D656E7520C0
:10071000636F6E74726F6C3A0D0A2020456E7465BB
:10072000722020202020203A20456E7465720D0A28
:1007300020204261636B737061636520203A204220
:1007400061636B0D0A20204172726F772055702013
:1007500020203A2055700D0A20204172726F7720B8
:10076000446F776E203A20446F776E0D0A00446123
:10077000746520696E76616C6964004D696E75748C
:100780006500486F757200446179004D6F6E746842
:100790000059656172005365742054696D657A6F04
:1007A0006E65005365742054696D6500536574204F
:1007B000446174650053686F772044617465265402
:1007C000696D6500446174652654696D6500436117
:1007D0006C6962726174696F6E0053657475700044
:1007E000493243005350490041444300546F676706
:1007F0006C65204261636B6C696768740044617466
:100800006520262054696D650050726F64756374AD
:10081000696F6E2044617465004C69676874736524
:100820006E736F720054656D706572617475726578
:10083000004D61696E204D656E75006E616E0069D8
:100840006E660000407A10F35A00A0724E1809003C
:1008500010A5D4E80000E87648170000E40B540225
:100860000000CA9A3B000000E1F505000080969860
:1008700000000040420F000000A0860100000010B0
:100880002700000000E803000000006400000000F2
:10089000000A00000000000100000000002C76D8D3
:1008A00088DC674F0823DFC1DFAE59E1B1B796E5B9
:1008B000E3E453C63AE651997696E8E6C28426EB1D
:1008C000898C9B62ED407C6FFCEFBC9C9F40F2BA30
:1008D000A56FA5F490055A2AF75C936B6CF9676DC8
:1008E000C11BFCE0E40D47FEF520E6B500D0ED901D
:1008F0002E0300943577050080841E080000204EEA
:100900000A000000C80C333333330F986E12831182
:1009100041EF8D2114893BE65516CFFEE6DB18D159
:10092000844B381BF77C1D901DA4BBE4242032842B
:10093000725E228100C9F124ECA1E53D270011245B
:100940001FBECFEFCDBFDFE5DEBF00E00CBF13E27F
:10095000A0E0B0E2E0E7FAEA00E00BBF02C00790D7
:100960000D92AE36B107D9F728E2AEE6B3E201C088
:100970001D92A931B207E1F70E94D1490C94365576
:100980003FCB809362066093220680936506609356
:1009900026066093210608953F9360932206809374
:1009A000610680936206609321063F9180916806FC
:1009B000842308958093660680936106089580934A
:1009C0004206609322068093450660932606609354
:1009D000210608953F93609322068093410600000C
:1009E00080934206609321063F91809148068423BC
:1009F000089580934606809341060895A1E0B0E0F3
:100A0000E4E0F5E00C946651E82F0FB70078198206
:100A100080916F23813019F081E080936F23CE2E77
:100A2000DD24F601EF54FC4DB080F601EB54FC4D93
:100A3000A080F894BB2009F4AAC08B2DBBDF8B2DBE
:100A40006A2D9FDF1B2DEE24FF2460E0812C30E215
:100A5000932EF5FE07C09091B2238091B123982B7D
:100A600019F535C08FB7802B8FBF0000F8948B2D00
:100A70006A2D412F91DF682F0894E11CF11C8091B1
:100A800000208F5F80930020823030F0823021F090
:100A9000833011F0109200206623D9F22091B22306
:100AA0008091B123282B15C0412F80E040FF09C061
:100AB000E82FF0E0EE0FFF1FE658FC4D8082918298
:100AC00001C090FD8F5F96954695992379F710E0C8
:100AD00020E08FB7802B8FBF10927023222309F460
:100AE0003FC0112309F43CC03091B6238091B52357
:100AF000382B562F90E080E070E040E023C050FD9E
:100B000017C019C030FF13C0981781F4E42FF0E02C
:100B1000EE0FFF1FE658FC4DE082F182852F8E7F9D
:100B200019F4892F71E008C0892F06C08F5F3695B0
:100B3000332341F701C020FD9F5F20FD4F5F569595
:100B4000269511F05523D9F640937023609516230E
:100B5000713021F4112311F4EE24FF2460E013C05E
:100B60008091B2239091B123892B898390E006C0B4
:100B7000898180FD9F5F898186958983898188230A
:100B8000B9F790937023F894112309F062CF81EBA9
:100B900093E2C80ED91EF60180810CDF10926E23FD
:100BA0008FB7082B0FBF2196ECE00C947F51FC010E
:100BB00080E290E0808391831282138280E494E04B
:100BC0008483958308959091AB23A92FB0E0FD0114
:100BD000EE0FFF1FEA0FFB1FEE0FFF1FED56FC4D40
:100BE0004383677085832370660F660F660F262B1D
:100BF00024839F5F9093AB2308951F93CF93DF933C
:100C0000282FC82FD0E0FE01EE0FFF1FEC0FFD1FB5
:100C1000EE0FFF1FED56FC4D3581838190E0009073
:100C2000732302C0959587950A94E2F7182F8430B4
:100C300008F414E08091AB23281718F020E030E08E
:100C40002DC0832F1DD19C01412F50E01695169584
:100C5000812F90E0841B950B8217930764F4FE01AB
:100C6000EE0FFF1FEC0FFD1FEE0FFF1FED56FC4DAB
:100C700084818B7F848388279927841B950B821717
:100C8000930764F0FE01EE0FFF1FEC0FFD1FEE0F48
:100C9000FF1FED56FC4D848184608483C901DF9180
:100CA000CF911F910895FF920F931F93CF93DF93DE
:100CB00010928B2310928C2320918F2330919023BC
:100CC00080938F239093902340919123509192236E
:100CD000421B530B480F591FFF2403C0F394485C79
:100CE0005040483C5105D0F74093912350939223B4
:100CF0008091AC23882341F08F1518F41092AC2317
:100D000003C08F198093AC23C3D3E0918D23F0915E
:100D10008E23309709F0199510E000E005C0812F6F
:100D20006F2DC3D0082B1F5F6091AB231617B8F34C
:100D3000002349F080918B2390918C2391608093C4
:100D40008B2390938C2310928A23A3E9B3E230E0A3
:100D500041E050E017C08C91887191F0E32FE69547
:100D6000E695E695F0E0E658FC4D832F8770EA01A2
:100D700002C0CC0FDD1F8A95E2F720892C2B208B37
:100D80003F5F1696361738F380918B2390918C2312
:100D9000CDB7DEB7E5E00C9486511092AB2384E02A
:100DA0008093742394E19093772385E08093782354
:100DB000109276239093752381E08093732383E0D0
:100DC0008093792354D310928D2310928E2308950B
:100DD0001F9310E003C0812F27D01F5F8091AB23AA
:100DE0001817C8F31F910895EF92FF921F93CF93A6
:100DF000DF93EC017B0110E003C0812F15D01F5F52
:100E00008091AB231817C8F310928F231092902370
:100E1000C0937123D0937223C70124D3DF91CF9164
:100E20001F91FF90EF90089590E0E3E9F3E29C01B9
:100E3000220F331F280F391FD901AA0FBB1FAE0F76
:100E4000BF1F15964C91159780918B2390918C2301
:100E5000826080938B2390938C232F5F3F4F220FD0
:100E6000331FE20FF31F1082EDEAF3E2E40FF11DEE
:100E700080E8808381E08C938FE011968C930895B5
:100E800090E0FC013496AAE7B3E2EE0FFF1FEA0FF1
:100E9000FB1F880F991FA80FB91F208131818D91E9
:100EA0009C91281B390BC9010895A0E0B0E0EBE547
:100EB000F7E00C946451782EF62E9FDE5C01072D2E
:100EC00010E0F801EE0FFF1FE00FF11FEE0FFF1F04
:100ED000ED56FC4D54814381242F30E0852F8370E3
:100EE00090E0019602C0359527958A95E2F7822F0A
:100EF000223008F482E0242F30E0B901681B710928
:100F0000F801EE0FFF1FE00FF11FEF01CC0FDD1F07
:100F1000CD56DC4D8881843009F4FBC0853030F437
:100F2000813071F0823009F096C26EC0803109F4D0
:100F3000A5C1803209F456C2883009F08CC202C2C1
:100F400040918B2350918C23CA01926080938B2314
:100F500090938C238D816981A82FB0E06A3060F076
:100F6000AA0FBB1FFD01E658FC4D80819181AE5751
:100F7000BC4D8D939C9318C0AA0FBB1FFD01EE576B
:100F8000FC4D20813181A658BC4D8D919C918217DA
:100F9000930718F42150304005C02817390750F442
:100FA0002F5F3F4F208331834860526040938B23F3
:100FB00050938C23862F8150F801EE0FFF1FE00F16
:100FC000F11FEF01CC0FDD1FCD56DC4D8983882347
:100FD000B1F4AD8182E0888380918B2390918C2342
:100FE000826080938B2390938C23EE0FFF1FEB5630
:100FF000FC4D1082B0E0A355BC4D80E88C938091ED
:1010000075238093AC2325C252FF08C0ED81F0E028
:10101000E355FC4D108280E288830CC2C501B7FE07
:1010200002C080E090E08217930780F0F801EE0F95
:10103000FF1FE00FF11FEE0FFF1FDF01AD56BC4D8C
:1010400084E08C93EB56FC4D1082FAC1FF2009F42A
:1010500002C28091AC23882309F0FDC1F801EE0F94
:10106000FF1FE00FF11FEE0FFF1FED56FC4D8581B6
:1010700090E0EC01CC0FDD1FCE57DC4D288139818B
:10108000FC01EE0FFF1FE658FC4D0190F081E02DB2
:101090002E173F0788F4FC01E355FC4D90819F0D0E
:1010A0009083809178238058981708F4D4C180E801
:1010B00080832F5F3F4F14C0DC01A355BC4DE21766
:1010C000F307D0F48C918F198C9340E8909177239B
:1010D000542F591B581708F4BEC14C93215030406F
:1010E0002883398380918B2390918C23886080930F
:1010F0008B2390938C23AFC12C91213810F0215079
:101100002C93FC01E355FC4D808187FDA4C18F5FCA
:1011100067C1C501B7FE02C080E090E0F801EE0FA4
:10112000FF1F8217930708F48FC080917523809367
:10113000AC239F01200F311F220F331FD901AB5663
:10114000BC4D8C918F5F8C93F901ED56FC4D8481E1
:1011500090E08873907023E0969587952A95E1F743
:10116000682E882309F43EC0CC24DD247F0183E06F
:1011700090E0E80EF91E4D012FC0D71461F18D2DBE
:1011800090E0EC01CC0FDD1FC80FD91FCC0FDD1F85
:10119000CD56DC4D8C8190E08873907073E096950D
:1011A00087957A95E1F76816B1F48D2D26DD2B81B0
:1011B000821B9109F7012081A501421B51094817A3
:1011C00059072CF08881803111F0883021F4F40126
:1011D0001082CC24C394D3948091AB23D81668F2A8
:1011E000CC2079F480917423882359F080918B234B
:1011F00090918C23986080938B2390938C2341E073
:1012000001C040E09801220F331F200F311FF90168
:10121000EE0FFF1FEB56FC4D9081809174239817C1
:1012200008F41AC180918B2390918C238360809362
:101230008B2390938C23F901EE0FFF1FED56FC4D8D
:1012400080E18083118208C1E00FF11FEE0FFF1FC4
:10125000DF01AD56BC4D15962C91159782E08C930D
:1012600080918B2390918C23826080938B23909329
:101270008C23EB56FC4D1082E22FAEC052FF0EC005
:10128000ED81F0E0E355FC4D80E8808380E28883C7
:1012900080918B2390918C2390614AC0C501B7FE49
:1012A00002C080E090E0F801EE0FFF1F40918B2319
:1012B00050918C238617970770F4E00FF11FEE0F03
:1012C000FF1FED56FC4D88E08083546040938B23D4
:1012D00050938C2331C0416040938B2350938C23D7
:1012E000E00FF11FEE0FFF1FEB56FC4D9081809138
:1012F0007423981710F49F5F90839091762399231D
:1013000071F0F801EE0FFF1FE00FF11FEE0FFF1F4E
:10131000ED56FC4D8181891720F48F0D818340E0CB
:101320000CC0872D81DD80918B2390918C2392605E
:1013300080938B2390938C2341E08091752380933D
:10134000AC238AC0809175238093AC23DF01AA0F60
:10135000BB1FAB56BC4D8C91882389F1C501B7FEEC
:1013600002C080E090E040918B2350918C2368175D
:10137000790790F4F801EE0FFF1FE00FF11FEE0F59
:10138000FF1FED56FC4D80E18083416040938B232D
:1013900050938C2340E006C0546040938B235093BD
:1013A0008C2341E0F801EE0FFF1FE00FF11FEE0F5D
:1013B000FF1FEB56FC4D8081815080834DC0ED8135
:1013C00082E0888380918B2390918C23826080932C
:1013D0008B2390938C231C92F0E0E355FC4D80E826
:1013E000808339C08D81A82FB0E0A355BC4D9C915E
:1013F0009F5F9C9352FD18C097FF03C080E18883D4
:101400002AC082E0888380918B2390918C23826014
:1014100080938B2390938C23EE0FFF1FEB56FC4D94
:10142000108280E88C9317C080917923981740F040
:10143000872DFADC80918B2390918C23906105C0DD
:1014400080918B2390918C23946080938B23909335
:101450008C2341E001C040E0842FCDB7DEB7EEE041
:101460000C947D51FC01009709F019950895109294
:10147000B1231092B2231092B5231092B62310928A
:10148000B3231092B4231092B7231092B823089577
:101490008091B3239091B123892B41F0E091712386
:1014A000F0917223309711F080E019958091B42368
:1014B0009091B223892B41F0E0917123F091722336
:1014C000309711F081E0199508953FB7F894FC0129
:1014D0002081F4E06F9FB0011124262BFC012083B2
:1014E0003FBF08954F925F927F928F929F92AF92EB
:1014F000BF92CF92DF92EF92FF920F931F93CF9301
:10150000DF93CDB7DEB72C97CDBFDEBF00E020E282
:1015100040E860E080E00E94BC1E2FE830E240E03E
:1015200064E680EC91E20E94AD232FE830E248E0CF
:1015300064E685EC91E20E94AD232FE830E240E1C1
:1015400064E68AEC91E20E94AD232FE830E248E1A4
:1015500064E68FEC91E20E94AD232FE830E240E098
:1015600060E084ED91E20E94AD232FE830E248E094
:1015700060E089ED91E20E94AD232FE830E240E186
:1015800060E08EED91E20E94AD232FE830E248E169
:1015900060E084EE91E20E94AD2388EEE82E81E2C5
:1015A000F82E9AE0792E8E010F5F1F4F61E080E0E8
:1015B00092E08BDF62E080E092E087DF64E080E031
:1015C00092E083DF68E080E092E07FDF7AD28823D8
:1015D00009F47BC0CED32C019CD34C01CFD35C014A
:1015E000D2D36C01C201AA2797FDA095BA2FBF9351
:1015F000AF939F938F93FF92EF921F927F921F93CF
:101600000F930E945A532FE830E240E16EE1C80187
:101610000E94AD23C401AA2797FDA095BA2FBF93BE
:10162000AF939F938F93FF92EF921F927F921F939E
:101630000F930E945A532FE830E248E16EE1C8014F
:101640000E94AD23A501662757FD6095762F7F93F5
:101650006F935F934F93FF92EF921F927F921F932E
:101660000F930E945A532FE830E240E06EE1C80128
:101670000E94AD23C601AA2797FDA095BA2FBF935C
:10168000AF939F938F93FF92EF921F927F921F933E
:101690000F930E945A53CDBFDEBF2FE830E248E0DF
:1016A0006EE1C8010E94AD2361E080E492E00DDFAD
:1016B00062E080E492E009DF64E080E492E005DF2C
:1016C00068E080E492E001DF14C009D2811182CF8A
:1016D000DCD181117FCFE7D1882309F477CF7ACF8E
:1016E0001AD2811109C025D2811106C030D28111D0
:1016F00003C003D28823A1F34BD32C014ED35C014A
:1017000051D34C0154D36C01C201AA2797FDA09577
:10171000BA2FBF93AF939F938F93FF92EF921F9235
:101720007F921F930F930E945A532FE830E240E0BC
:101730006CE3C8010E94AD23C501AA2797FDA095BF
:10174000BA2FBF93AF939F938F93FF92EF921F9205
:101750007F921F930F930E945A532FE830E248E084
:101760006CE3C8010E94AD23AA2497FCA094BA2C74
:10177000BF92AF929F928F92FF92EF921F927F92B1
:101780001F930F930E945A532FE830E240E16CE31D
:10179000C8010E94AD23A601662757FD6095762FEC
:1017A0007F936F935F934F93FF92EF921F927F927D
:1017B0001F930F930E945A53CDBFDEBF2FE830E234
:1017C00048E16CE3C8010E94AD23CE010B960E9454
:1017D00034488B858D3009F0E9CE8C85823009F054
:1017E000E5CE2C96CDBFDEBFDF91CF911F910F913B
:1017F000FF90EF90DF90CF90BF90AF909F908F9031
:101800007F905F904F9008953FB7F894FC0120813E
:10181000F4E06F9FB0011124262BFC0120833FBF11
:101820000895613019F52091C0232F5F2093C023C4
:10183000213039F44093C7235093C8231092D42306
:1018400013C08091C7239091C823840F951F96954C
:1018500087958093C7239093C823243029F410924E
:10186000C0236093D423089561E071C0623021F5F4
:101870002091BF232F5F2093BF23213039F4409361
:10188000C5235093C6231092D32314C08091C5233F
:101890009091C623840F951F969587958093C523B5
:1018A0009093C623243031F41092BF2381E08093BB
:1018B000D323089562E04BC0643021F52091BE230C
:1018C0002F5F2093BE23213039F44093C3235093DC
:1018D000C4231092D22314C08091C3239091C423B7
:1018E000840F951F969587958093C3239093C42367
:1018F000243031F41092BE2381E08093D2230895E6
:1019000064E025C0683031F52091BD232F5F20931E
:10191000BD23213039F44093C1235093C223109248
:10192000D12314C08091C1239091C223840F951FAD
:10193000969587958093C1239093C223243031F4E8
:101940001092BD2381E08093D123089568E080E464
:1019500092E05ACF0895613019F52091BC232F5F92
:101960002093BC23213039F44093CD235093CE23D0
:101970001092D72313C08091CD239091CE23840F52
:10198000951F969587958093CD239093CE232430F1
:1019900029F41092BC236093D723089561E071C0AD
:1019A000623021F52091BB232F5F2093BB23213090
:1019B00039F44093CF235093D0231092D82314C0EE
:1019C0008091CF239091D023840F951F9695879572
:1019D0008093CF239093D023243031F41092BB23F3
:1019E00081E08093D823089562E04BC0643021F5F4
:1019F0002091BA232F5F2093BA23213039F44093EA
:101A0000CB235093CC231092D62314C08091CB23A8
:101A10009091CC23840F951F969587958093CB2327
:101A20009093CC23243031F41092BA2381E0809338
:101A3000D623089564E025C0683031F52091B9239C
:101A40002F5F2093B923213039F44093C923509359
:101A5000CA231092D52314C08091C9239091CA2320
:101A6000840F951F969587958093C9239093CA23D9
:101A7000243031F41092B92381E08093D523089566
:101A800068E080E092E0C0CE08958FB7F89490911E
:101A9000D823992329F01092D8238FBF81E008958D
:101AA0008FBF80E008958FB7F8949091D723992342
:101AB00029F01092D7238FBF81E008958FBF80E077
:101AC00008958FB7F8949091D623992329F0109216
:101AD000D6238FBF81E008958FBF80E008958FB730
:101AE000F8949091D523992329F01092D5238FBF94
:101AF00081E008958FBF80E008958FB7F8949091AA
:101B0000D423992329F01092D4238FBF81E0089524
:101B10008FBF80E008958FB7F8949091D3239923D5
:101B200029F01092D3238FBF81E008958FBF80E00A
:101B300008958FB7F8949091D223992329F01092A9
:101B4000D2238FBF81E008958FBF80E008958FB7C3
:101B5000F8949091D123992329F01092D1238FBF2B
:101B600081E008958FBF80E008951F93CF93DF93A6
:101B7000CDB7DEB72B97CDBFDEBFBE016F5F7F4F06
:101B800080E492E00E94C136AE01485F5F4F61E0A1
:101B900080E492E00E9430378A819B819F78906137
:101BA0009B8396E09D83817E80618A831C82BE0137
:101BB0006F5F7F4F80E492E00E947D3661E17CE0C0
:101BC00080E492E00E94EC2A11E0188719868A8549
:101BD000807F81608A87AE01485F5F4F61E080E46B
:101BE00092E00E94E636188788E08987AE01485F58
:101BF0005F4F62E080E492E00E94E636188780E161
:101C00008987AE01485F5F4F64E080E492E00E9404
:101C1000E636188788E18987AE01485F5F4F68E044
:101C200080E492E00E94E63680E492E00E943C2B41
:101C30002B96CDBFDEBFDF91CF911F9108951F93EB
:101C4000CF93DF93CDB7DEB72B97CDBFDEBFBE01FD
:101C50006F5F7F4F80E092E00E94C136AE01485F27
:101C60005F4F61E080E092E00E9430378A819B8183
:101C70009F7890619B8396E09D83817E80618A83BB
:101C80001C82BE016F5F7F4F80E092E00E947D3634
:101C90006BEA7CE080E092E00E94EC2A11E0188779
:101CA00019868A85807F81608A87AE01485F5F4F91
:101CB00061E080E092E00E94E636188788E089873C
:101CC000AE01485F5F4F62E080E092E00E94E6363E
:101CD000188780E28987AE01485F5F4F64E080E04B
:101CE00092E00E94E636188788E28987AE01485F55
:101CF0005F4F68E080E092E00E94E63680E092E08C
:101D00000E943C2B2B96CDBFDEBFDF91CF911F9160
:101D100008958091CF239091D0230895CF93DF939E
:101D2000C091CF23D091D023BE0180E090E00E94EB
:101D3000C24BC53AD14058F021E836E242E45DEBAF
:101D40000E949E4C23E333E345E552E40AC02DE2B2
:101D500031E24FE95DEB0E949E4C23E333E342E81E
:101D600052E40E948B4A0E94914B862FDF91CF91C3
:101D700008958091CD239091CE2308958091CB2317
:101D80009091CC2308958091C9239091CA230895FE
:101D90008091C7239091C82308958091C523909185
:101DA000C62308958091C3239091C4230895809100
:101DB000C1239091C223089580E090E0019688327B
:101DC0009105E1F708951F93CF93DF931F92CDB74D
:101DD000DEB7182F8BE28983BE016F5F7F4F80EAE9
:101DE00099E00E94CF3781E0809366068091A10937
:101DF00085FFFCCF1093A0098091A10986FFFCCF3D
:101E000080E48093A1098091A009BE016F5F7F4F9C
:101E100080EA99E00E94E5370F90DF91CF911F9102
:101E20000895CF92DF92EF92FF920F931F93CF937B
:101E3000DF931F92CDB7DEB700E016E088E0F82E02
:101E4000F801F682B9DFF801F582B6DF8BE289830B
:101E500080EA99E00E948C37C12CD12C760100E4F5
:101E600012E42FE030E043E0BE016F5F7F4F80EA75
:101E700099E00E94B43781E0E0E6F6E0868380EAEC
:101E8000A2DF86EAA0DF88EC9EDF82EA9CDF8FE299
:101E90009ADF88EF98DF80E096DF81E294DF81E8C7
:101EA00092DF81E290DF8FEA8EDF0F90DF91CF919A
:101EB0001F910F91FF90EF90DF90CF9008951F93A7
:101EC000CF93DF931F92CDB7DEB7182F8BE28983B4
:101ED000BE016F5F7F4F80EA99E00E94CF3781E0BB
:101EE000809365068091A10985FFFCCF1093A0091E
:101EF0008091A10986FFFCCF80E48093A1098091A5
:101F0000A00981E080936606BE016F5F7F4F80EA83
:101F100099E00E94E5370F90DF91CF911F910895CE
:101F20001F93CF93DF931F92CDB7DEB7182F8BE2AD
:101F30008983BE016F5F7F4F80EA99E00E94CF37AF
:101F400081E0809366068091A10985FFFCCF109304
:101F5000A0098091A10986FFFCCF80E48093A109AC
:101F60008091A009BE016F5F7F4F80EA99E00E94D7
:101F7000E5370F90DF91CF911F910895CF93C82F30
:101F80008F7782958F708061CBDF8C2F8F70CF9190
:101F9000C7CFFF920F931F93CF93DF93182FF92E84
:101FA000D62FC42F022F0E94A71D8D2F8F70806BFC
:101FB000B7DF8C2FE3DFC12FDF2D100F89917FDF7B
:101FC0001C13FCCFDF91CF911F910F91FF900895CB
:101FD0001F93CF93DF93182FD62FC42F0E94BA1DC3
:101FE000812F8F70806B9CDF8D2FC8DF8C2FDF914E
:101FF000CF911F9164CFCF93DF9389ED93E20E943D
:10200000A21D0FDF80E48CDFD0E0C0E040E06C2F49
:102010008D2FDEDFCF5FC038C9F7DF5FD430A9F77F
:10202000DF91CF910895EF92FF920F931F93CF937B
:10203000DF931F92CDB7DEB7082F87FD2FC0603228
:1020400068F5162F16951695169558EF51039001C1
:102050001124260F311DEE24E394F12C01C0EE0C67
:102060002A95EAF7602F812F49830E94C71D498175
:10207000413029F030F0423031F48E2504C08E29F1
:1020800002C0E0948E21482F602F812F0F90DF91A6
:10209000CF911F910F91FF90EF909ACF0F90DF910A
:1020A000CF911F910F91FF90EF9008950C94C71D51
:1020B0000F931F93CF93DF931F921F92CDB7DEB77D
:1020C000182F062F2A8349830E94C71D2A81498120
:1020D000213029F030F0223031F4842704C0842BE1
:1020E00002C040958423482F602F812F0F900F90BE
:1020F000DF91CF911F910F916BCF1F920F920FB66F
:102100000F9211240BB60F922F933F934F935F932F
:102110006F937F938F939F93AF93BF93EF93FF93AF
:10212000E0911F26F0912026309709F01995FF9134
:10213000EF91BF91AF919F918F917F916F915F913F
:102140004F913F912F910F900BBE0F900FBE0F90AC
:102150001F9018951F920F920FB60F9211240BB675
:102160000F922F933F934F935F936F937F938F9330
:102170009F93AF93BF93EF93FF93E0911D26F09150
:102180001E26309709F01995FF91EF91BF91AF91FD
:102190009F918F917F916F915F914F913F912F917F
:1021A0000F900BBE0F900FBE0F901F9018951F92AF
:1021B0000F920FB60F9211240BB60F922F933F93ED
:1021C0004F935F936F937F938F939F93AF93BF933F
:1021D000EF93FF93E0911B26F0911C26309709F0B6
:1021E0001995FF91EF91BF91AF919F918F917F9141
:1021F0006F915F914F913F912F910F900BBE0F9078
:102200000FBE0F901F9018951F920F920FB60F924E
:1022100011240BB60F922F933F934F935F936F93BD
:102220007F938F939F93AF93BF93EF93FF93E0912F
:102230001926F0911A26309709F01995FF91EF9120
:10224000BF91AF919F918F917F916F915F914F91CE
:102250003F912F910F900BBE0F900FBE0F901F90CC
:1022600018951F920F920FB60F9211240BB60F9272
:102270002F933F934F935F936F937F938F939F938E
:10228000AF93BF93EF93FF93E0911726F091182639
:10229000309709F01995FF91EF91BF91AF919F9100
:1022A0008F917F916F915F914F913F912F910F90FF
:1022B0000BBE0F900FBE0F901F9018951F920F929C
:1022C0000FB60F9211240BB60F922F933F934F939B
:1022D0005F936F937F938F939F93AF93BF93EF938E
:1022E000FF93E0911526F0911626309709F0199585
:1022F000FF91EF91BF91AF919F918F917F916F91DE
:102300005F914F913F912F910F900BBE0F900FBE99
:102310000F901F9018951F920F920FB60F921124D5
:102320000BB60F922F933F934F935F936F937F93CF
:102330008F939F93AF93BF93EF93FF93E0911326F7
:10234000F0911426309709F01995FF91EF91BF9104
:10235000AF919F918F917F916F915F914F913F913D
:102360002F910F900BBE0F900FBE0F901F901895DE
:102370001F920F920FB60F9211240BB60F922F934C
:102380003F934F935F936F937F938F939F93AF93FD
:10239000BF93EF93FF93E0911126F09112263097AF
:1023A00009F01995FF91EF91BF91AF919F918F9196
:1023B0007F916F915F914F913F912F910F900BBE45
:1023C0000F900FBE0F901F9018951F920F920FB68F
:1023D0000F9211240BB60F922F933F934F935F935D
:1023E0006F937F938F939F93AF93BF93EF93FF93DD
:1023F000E0910F26F0911026309709F01995FF9182
:10240000EF91BF91AF919F918F917F916F915F916C
:102410004F913F912F910F900BBE0F900FBE0F90D9
:102420001F9018951F920F920FB60F9211240BB6A2
:102430000F922F933F934F935F936F937F938F935D
:102440009F93AF93BF93EF93FF93E0910D26F0918D
:102450000E26309709F01995FF91EF91BF91AF913A
:102460009F918F917F916F915F914F913F912F91AC
:102470000F900BBE0F900FBE0F901F9018951F92DC
:102480000F920FB60F9211240BB60F922F933F931A
:102490004F935F936F937F938F939F93AF93BF936C
:1024A000EF93FF93E0910B26F0910C26309709F003
:1024B0001995FF91EF91BF91AF919F918F917F916E
:1024C0006F915F914F913F912F910F900BBE0F90A5
:1024D0000FBE0F901F9018951F920F920FB60F927C
:1024E00011240BB60F922F933F934F935F936F93EB
:1024F0007F938F939F93AF93BF93EF93FF93E0915D
:102500000926F0910A26309709F01995FF91EF916D
:10251000BF91AF919F918F917F916F915F914F91FB
:102520003F912F910F900BBE0F900FBE0F901F90F9
:1025300018951F920F920FB60F9211240BB60F929F
:102540002F933F934F935F936F937F938F939F93BB
:10255000AF93BF93EF93FF93E0910726F091082686
:10256000309709F01995FF91EF91BF91AF919F912D
:102570008F917F916F915F914F913F912F910F902C
:102580000BBE0F900FBE0F901F9018951F920F92C9
:102590000FB60F9211240BB60F922F933F934F93C8
:1025A0005F936F937F938F939F93AF93BF93EF93BB
:1025B000FF93E0910526F0910626309709F01995D2
:1025C000FF91EF91BF91AF919F918F917F916F910B
:1025D0005F914F913F912F910F900BBE0F900FBEC7
:1025E0000F901F9018951F920F920FB60F92112403
:1025F0000BB60F922F933F934F935F936F937F93FD
:102600008F939F93AF93BF93EF93FF93E091032634
:10261000F0910426309709F01995FF91EF91BF9141
:10262000AF919F918F917F916F915F914F913F916A
:102630002F910F900BBE0F900FBE0F901F9018950B
:102640001F920F920FB60F9211240BB60F922F9379
:102650003F934F935F936F937F938F939F93AF932A
:10266000BF93EF93FF93E0910126F09102263097FC
:1026700009F01995FF91EF91BF91AF919F918F91C3
:102680007F916F915F914F913F912F910F900BBE72
:102690000F900FBE0F901F9018951F920F920FB6BC
:1026A0000F9211240BB60F922F933F934F935F938A
:1026B0006F937F938F939F93AF93BF93EF93FF930A
:1026C000E091FF25F0910026309709F01995FF91D0
:1026D000EF91BF91AF919F918F917F916F915F919A
:1026E0004F913F912F910F900BBE0F900FBE0F9007
:1026F0001F9018951F920F920FB60F9211240BB6D0
:102700000F922F933F934F935F936F937F938F938A
:102710009F93AF93BF93EF93FF93E091FD25F091CB
:10272000FE25309709F01995FF91EF91BF91AF9178
:102730009F918F917F916F915F914F913F912F91D9
:102740000F900BBE0F900FBE0F901F9018951F9209
:102750000F920FB60F9211240BB60F922F933F9347
:102760004F935F936F937F938F939F93AF93BF9399
:10277000EF93FF93E091FB25F091FC25309709F052
:102780001995FF91EF91BF91AF919F918F917F919B
:102790006F915F914F913F912F910F900BBE0F90D2
:1027A0000FBE0F901F9018951F920F920FB60F92A9
:1027B00011240BB60F922F933F934F935F936F9318
:1027C0007F938F939F93AF93BF93EF93FF93E0918A
:1027D000F925F091FA25309709F01995FF91EF91BD
:1027E000BF91AF919F918F917F916F915F914F9129
:1027F0003F912F910F900BBE0F900FBE0F901F9027
:1028000018951F920F920FB60F9211240BB60F92CC
:102810002F933F934F935F936F937F938F939F93E8
:10282000AF93BF93EF93FF93E091F725F091F825D5
:10283000309709F01995FF91EF91BF91AF919F915A
:102840008F917F916F915F914F913F912F910F9059
:102850000BBE0F900FBE0F901F9018951F920F92F6
:102860000FB60F9211240BB60F922F933F934F93F5
:102870005F936F937F938F939F93AF93BF93EF93E8
:10288000FF93E091F525F091F625309709F0199521
:10289000FF91EF91BF91AF919F918F917F916F9138
:1028A0005F914F913F912F910F900BBE0F900FBEF4
:1028B0000F901F9018951F920F920FB60F92112430
:1028C0000BB60F922F933F934F935F936F937F932A
:1028D0008F939F93AF93BF93EF93FF93E091F32573
:1028E000F091F425309709F01995FF91EF91BF9180
:1028F000AF919F918F917F916F915F914F913F9198
:102900002F910F900BBE0F900FBE0F901F90189538
:102910001F920F920FB60F9211240BB60F922F93A6
:102920003F934F935F936F937F938F939F93AF9357
:10293000BF93EF93FF93E091F125F091F22530974B
:1029400009F01995FF91EF91BF91AF919F918F91F0
:102950007F916F915F914F913F912F910F900BBE9F
:102960000F900FBE0F901F9018951F920F920FB6E9
:102970000F9211240BB60F922F933F934F935F93B7
:102980006F937F938F939F93AF93BF93EF93FF9337
:10299000E091EF25F091F025309709F01995FF911E
:1029A000EF91BF91AF919F918F917F916F915F91C7
:1029B0004F913F912F910F900BBE0F900FBE0F9034
:1029C0001F9018951F920F920FB60F9211240BB6FD
:1029D0000F922F933F934F935F936F937F938F93B8
:1029E0009F93AF93BF93EF93FF93E091ED25F09109
:1029F000EE25309709F01995FF91EF91BF91AF91B6
:102A00009F918F917F916F915F914F913F912F9106
:102A10000F900BBE0F900FBE0F901F9018951F9236
:102A20000F920FB60F9211240BB60F922F933F9374
:102A30004F935F936F937F938F939F93AF93BF93C6
:102A4000EF93FF93E091EB25F091EC25309709F09F
:102A50001995FF91EF91BF91AF919F918F917F91C8
:102A60006F915F914F913F912F910F900BBE0F90FF
:102A70000FBE0F901F9018951F920F920FB60F92D6
:102A800011240BB60F922F933F934F935F936F9345
:102A90007F938F939F93AF93BF93EF93FF93E091B7
:102AA000E925F091EA25309709F01995FF91EF910A
:102AB000BF91AF919F918F917F916F915F914F9156
:102AC0003F912F910F900BBE0F900FBE0F901F9054
:102AD00018951F920F920FB60F9211240BB60F92FA
:102AE0002F933F934F935F936F937F938F939F9316
:102AF000AF93BF93EF93FF93E091E725F091E82523
:102B0000309709F01995FF91EF91BF91AF919F9187
:102B10008F917F916F915F914F913F912F910F9086
:102B20000BBE0F900FBE0F901F9018951F920F9223
:102B30000FB60F9211240BB60F922F933F934F9322
:102B40005F936F937F938F939F93AF93BF93EF9315
:102B5000FF93E091E525F091E625309709F019956E
:102B6000FF91EF91BF91AF919F918F917F916F9165
:102B70005F914F913F912F910F900BBE0F900FBE21
:102B80000F901F9018951F920F920FB60F9211245D
:102B90000BB60F922F933F934F935F936F937F9357
:102BA0008F939F93AF93BF93EF93FF93E091E325B0
:102BB000F091E425309709F01995FF91EF91BF91BD
:102BC000AF919F918F917F916F915F914F913F91C5
:102BD0002F910F900BBE0F900FBE0F901F90189566
:102BE0001F920F920FB60F9211240BB60F922F93D4
:102BF0003F934F935F936F937F938F939F93AF9385
:102C0000BF93EF93FF93E091E125F091E225309798
:102C100009F01995FF91EF91BF91AF919F918F911D
:102C20007F916F915F914F913F912F910F900BBECC
:102C30000F900FBE0F901F9018951F920F920FB616
:102C40000F9211240BB60F922F933F934F935F93E4
:102C50006F937F938F939F93AF93BF93EF93FF9364
:102C6000E091DF25F091E025309709F01995FF916B
:102C7000EF91BF91AF919F918F917F916F915F91F4
:102C80004F913F912F910F900BBE0F900FBE0F9061
:102C90001F9018951F920F920FB60F9211240BB62A
:102CA0000F922F933F934F935F936F937F938F93E5
:102CB0009F93AF93BF93EF93FF93E091DD25F09146
:102CC000DE25309709F01995FF91EF91BF91AF91F3
:102CD0009F918F917F916F915F914F913F912F9134
:102CE0000F900BBE0F900FBE0F901F9018951F9264
:102CF0000F920FB60F9211240BB60F922F933F93A2
:102D00004F935F936F937F938F939F93AF93BF93F3
:102D1000EF93FF93E091DB25F091DC25309709F0EC
:102D20001995FF91EF91BF91AF919F918F917F91F5
:102D30006F915F914F913F912F910F900BBE0F902C
:102D40000FBE0F901F9018951F920F920FB60F9203
:102D500011240BB60F922F933F934F935F936F9372
:102D60007F938F939F93AF93BF93EF93FF93E091E4
:102D7000D925F091DA25309709F01995FF91EF9157
:102D8000BF91AF919F918F917F916F915F914F9183
:102D90003F912F910F900BBE0F900FBE0F901F9081
:102DA0001895CF93CFB7F894811528E0920711F4C6
:102DB00061E005C0803428E0920739F462E083E0E6
:102DC0000E940C3F64E083E02BC0811529E092074C
:102DD00011F461E005C0803429E0920739F462E023
:102DE00084E00E940C3F64E084E01AC081152AE070
:102DF000920711F461E005C080342AE0920739F4AB
:102E000062E085E00E940C3F64E085E009C0811526
:102E10009B40A9F461E086E00E940C3F64E086E0FC
:102E20000E940C3F809108288F3F09F4FFCF9FB785
:102E3000F894809108288F5F809308289FBFCFBFA8
:102E4000CF910895811528E0920729F460931B26FD
:102E500070931C260895803428E0920729F460932B
:102E60000F26709310260895811529E0920729F402
:102E700060930726709308260895803429E092070E
:102E800029F46093FB257093FC25089581152AE0B1
:102E9000920729F46093F3257093F4250895803404
:102EA0002AE0920729F46093E7257093E8250895B6
:102EB00081159B4021F46093DF257093E0250895F0
:102EC000CF92EF92FF920F931F93CF93DF93CDB7E3
:102ED000DEB7C854D109CDBFDEBF00E020E240E834
:102EE00060E080E049D7C12C83E0E82EF12C00E0BF
:102EF00010E027E030E246E452E060E0CE01859643
:102F00000E945B21EE24EA94F12C20E030E04BE3B8
:102F100052E061E0CE0143960E945B2120E030E068
:102F200040E352E061E0CE0101960E945B21CE01B8
:102F3000C7960E947A21BE01695C7F4FCE018596BB
:102F40000E948121BE01695C7F4FCE0143960E94A1
:102F50008121BE01695C7F4FCE0101960E948121D3
:102F60008091EC2790E08E8B9F8B8091EB2790E0F7
:102F70008C839D83CE01C7960E94AD21CE01895BD3
:102F80009F4F0E94344829968FAD29978230B1F720
:102F9000AE014F5B5F4F28966FAD2897CE01C79665
:102FA0000E9474228D3F51F724968FAD2497809311
:102FB000EC2726968FAD26978093EB27C85BDF4FD3
:102FC000CDBFDEBFDF91CF911F910F91FF90EF90AA
:102FD000CF90089581E080932326809121269091BF
:102FE000222620910F2030911020820F931F809372
:102FF0002126909322260895CF93DF9380E4809337
:10300000B1231092B2231092B3231092B42380E81C
:103010008093B5231092B6231092B7231092B82351
:1030200023E04AE060E080E00E94E30560E070E0B9
:103030008EEF94E00E94F40684E08093742384E190
:103040008093772395E09093782310927623809352
:10305000752381E08093732383E08093792380E05C
:1030600099E09FDEC0E0D9E08881807F826088831C
:103070008F818C7F8F838F8181608F8340910F2020
:103080005091102028EE33E0429FC001439F900DE5
:10309000529F900D11248EA39FA36AEE77E180E0EA
:1030A00099E0D0DE89818061898310928D2310920E
:1030B0008E23DF91CF9108954F925F926F927F920E
:1030C0009F92AF92BF92CF92DF92EF92FF920F93B7
:1030D0001F93CF93DF93CDB7DEB76697CDBFDEBF2B
:1030E0009FB7F894809100028860809300029FBF90
:1030F0001A8A86E0888B80E2898B81E190E28B8B53
:103100009C8B01E020E240E860E080E012D600E025
:103110002EE14EE761E081E02FD62FE830E242E079
:103120006BE18EE492E00E94D6238DEEC82E81E200
:10313000D82E1FE0CE0101967C0199EFA92E91E2D5
:10314000B92E40E06AE0CE014096CED60E94450DF1
:103150008823E1F30E948E0E982E9FB7F8948091F9
:1031600000028860809300029FBF692D772767FD6A
:103170007095872F972F0E94C44B2B013C012CEE9A
:1031800031E548EB5EEB0E949E4C20E030E042EAE5
:1031900051E40E948B4A0E94964B262F00E042E0A9
:1031A00063E08CE0E9D5892D992787FD90959F9361
:1031B0009F92DF92CF921F921F93FF92EF920E94F5
:1031C0005A532FE830E24DE066E1C7010E94AD237B
:1031D00026E636E646EE5FE3C301B2010E949E4C4E
:1031E00020E030E040E052E40E948B4A0E94914B84
:1031F0007F936F93BF92AF921F921F93FF92EF92B4
:103200000E945A532FE830E245E166E1C7010E946F
:10321000AD23CE0145960E943448CDBFDEBF8D89D7
:10322000883009F08ECF8E89823009F08ACF669679
:10323000CDBFDEBFDF91CF911F910F91FF90EF9037
:10324000DF90CF90BF90AF909F907F906F905F90F6
:103250004F9008951F93CF93DF9360E170E081E07A
:103260000E94C643D82F61E170E081E00E94C6430E
:10327000182F62E170E081E00E94C643C82F63E12D
:1032800070E081E00E94C643412F50E060E070E0B2
:10329000BA01552744277D2B482B5C2BDB01CA0143
:1032A00080589E46AE41BD448F379149A14EB24BE6
:1032B00020F040E85EE66EE17DE4CB01BA01DF91EB
:1032C000CF911F9108952F923F924F925F926F92EC
:1032D0007F928F929F92AF92BF92CF92DF92EF92A6
:1032E000FF920F931F93CF93DF93CDB7DEB7E29793
:1032F000CDBFDEBF00E020E240E860E080E03CD5EA
:103300002FE830E240E060E088E092E20E94AD23E6
:10331000A1DFAE01495E5F4F0E94693F88248A9415
:10332000982C54015EE1252E52E2352E8E010F5F5E
:103330001F4F60E8E62EF12C79E2C72E72E2D72EFD
:10334000CE018F960E9434488FA5883021F488A939
:10335000823009F494C00E94CC422B013C016815D4
:1033600079058A059B0561F3AE01495D5F4F0E94B7
:10337000693FAE01415E5F4FBE01695E7F4FCE0186
:1033800087960E9434414BA12CA13DA15CE0529F45
:10339000C001539F900D1124840F911D9F938F9313
:1033A0003F922F921F9286E18F931F930F930E945B
:1033B0005A539E012F5C3F4FAE014E5C5F4F6FE84A
:1033C00070E2C8010E9403248AA9B701681B710931
:1033D000CDBFDEBF77FF02C06F5F7F4F5B01B5944B
:1033E000A7942FE830E248E06A2DC8010E94AD237F
:1033F0008AA11F928F93DF92CF921F92B6E1BF9363
:103400001F930F930E945A532FE830E240E16A2D38
:10341000C8010E94AD238F8D1F928F9388A11F92A8
:103420008F9389A11F928F93A2E3B2E2BF93AF93D0
:103430001F9286E18F931F930F930E945A539E0110
:103440002F5C3F4FAE014E5C5F4F6FE870E2C801EA
:103450000E9403248AA9B701681B710977FF02C083
:103460006F5F7F4F759567952FE830E248E1C8019F
:103470000E94AD23CDBFDEBF5301420161CFE29672
:10348000CDBFDEBFDF91CF911F910F91FF90EF90E5
:10349000DF90CF90BF90AF909F908F907F906F9074
:1034A0005F904F903F902F9008956150710981096E
:1034B00091096115710581059105B9F70895CF92BC
:1034C000DF92EF92FF920F931F93CF93DF9300D081
:1034D000CDB7DEB719821A821B8243E050E060E16B
:1034E00080E496E00E94D64343E050E060E280E44E
:1034F00096E00E94D64340E050E060E480E496E02D
:103500000E94D64343E050E060E880E496E00E94E9
:10351000D64380EC98E00E94FB37C12CD12C760179
:1035200000E211EA27E030E043E067E370E280EC7C
:1035300098E00E941238E0ECF8E08081806480839B
:1035400067E370E280EC98E00E94563845E050E076
:1035500062E370E280EC98E00E94323880E2898376
:1035600041E050E0BE016F5F7F4F80EC98E00E9429
:1035700032388091EC27898341E050E0BE016F5FD3
:103580007F4F80EC98E00E94323880E1898341E0EF
:1035900050E0BE016F5F7F4F80EC98E00E943238B0
:1035A0008091EB27898341E050E0BE016F5F7F4F40
:1035B00080EC98E00E94323880E6898341E050E058
:1035C000BE016F5F7F4F80EC98E00E94323888E147
:1035D00089838AE38A831B8243E050E0BE016F5FE8
:1035E0007F4F80EC98E00E94323880E7898341E089
:1035F00050E0BE016F5F7F4F80EC98E00E94323850
:1036000089E8898388E78A8387ED8B8343E050E0EC
:10361000BE016F5F7F4F80EC98E00E94323867E315
:1036200070E280EC98E00E946C382396CDBFDEBF3C
:10363000DF91CF911F910F91FF90EF90DF90CF908E
:1036400008952F923F924F925F926F927F928F9246
:103650009F92AF92BF92CF92DF92EF92FF920F9321
:103660001F93CF93DF93CDB7DEB76F97CDBFDEBF8C
:10367000CE0101966C018BE0F60111928A95E9F773
:1036800088E1898382E692E28F83988782E090E0E6
:1036900089879A871D8E1E8E1B8E1C8E88E38F8FC6
:1036A0001E8A1F8A188E00E020E240E860E080E079
:1036B00063D32FE830E240E060E081E492E20E94D0
:1036C000AD232091292030912A2040912B20509128
:1036D0002C20220F331F441F551F60E076E38EE637
:1036E00091E00E94A55025503109410951092093CC
:1036F0002D2030932E2040932F205093302060E4D3
:1037000085E00E940C3F69E270E280EA94E00E944A
:10371000372C8091A10488608093A10440E0B60119
:1037200080EA94E00E944C2C8111F8CFC8DE412C35
:10373000512C320198E0392E28E3222E35E4A32EB5
:1037400032E2B32E8E01045F1F4F4AE4842E42E220
:10375000942E67E370E280EC98E00E9456383F8E2A
:1037600041E050E0BE01615E7F4F80EC98E00E9436
:10377000323841E050E0BE01635E7F4F80EC98E05C
:103780000E9444388D8D9E8D089709F055C02F8E6C
:1037900041E050E0BE01615E7F4F80EC98E00E9406
:1037A000323842E050E0BE016A5E7F4F80EC98E024
:1037B0000E9444388E898C8F8F898B8F8B8D9C8D46
:1037C000480E591E611C711CFFEFEF1AFF0A80E2C0
:1037D000E816F10489F57301620185E0F594E79438
:1037E000D794C7948A95D1F79CECC91A97E1D90A66
:1037F000E108F108FF92EF92DF92CF92BF92AF9271
:103800001F92EAE0EF931F930F930E945A53FF9287
:10381000EF92DF92CF929F928F920E9449532FE8AE
:1038200030E240E166E4C80198D7CDBFDEBF412C4D
:10383000512C3201E12CF12C67E370E280EC98E02E
:103840000E946C3860E878E381E090E02EDECE01E3
:1038500049960E943448898D8D3009F07ACF8A8D3F
:10386000823009F076CF6F96CDBFDEBFDF91CF916A
:103870001F910F91FF90EF90DF90CF90BF90AF908E
:103880009F908F907F906F905F904F903F902F9080
:103890000895AF92BF92CF92DF92EF92FF920F9373
:1038A0001F93CF93DF93CDB7DEB76097CDBFDEBF59
:1038B00088E3888B1B861C861D8600E020E240E89A
:1038C00060E080E059D22FE830E240E060E081E43F
:1038D00092E243D7F4DD70E1C72EE8E6BE2EF1E5B3
:1038E000EF2EF2E2FF2EAAE0DA2E8E010F5F1F4FBD
:1038F000B8E7AB2E67E370E280EC98E00E945638A0
:10390000C88A41E050E0BE01605F7F4F80EC98E0E4
:103910000E9432388091EB27888B41E050E0BE0155
:10392000605F7F4F80EC98E00E943238B88A41E0B7
:1039300050E0BE01605F7F4F80EC98E00E9432381B
:1039400043E050E0BE01655F7F4F80EC98E00E944D
:1039500044388D851F928F938C851F928F938B8512
:103960001F928F93FF92EF921F92DF921F930F93FC
:103970000E945A532FE830E246E066E4C801EDD6D3
:10398000A88A41E050E0BE01605F7F4F80EC98E084
:103990000E94323843E050E0BE01655F7F4F80EC0B
:1039A00098E00E9444388D851F928F938C851F92DA
:1039B0008F938B851F928F93FF92EF921F92DF92CE
:1039C0001F930F930E945A532FE830E240E166E4C0
:1039D000C801C3D667E370E280EC98E00E946C38BF
:1039E00060E07AE688E190E060DDCE010E960E940C
:1039F0003448CDBFDEBF8E858D3009F07BCF8F85FB
:103A0000823009F077CF6096CDBFDEBFDF91CF91D6
:103A10001F910F91FF90EF90DF90CF90BF90AF90EC
:103A200008958150833030F4E82FF0E0EC59FD4DDB
:103A30008081089580E008958091252608958091E1
:103A400024260895CF93DF9300D0CDB7DEB787E467
:103A500090E215D3CE0101960E9434488A818230CB
:103A6000C9F7698187E490E221D3682F82E0860F4D
:103A7000823080F384EF860F8093252684E090E0E7
:103A80006B830E9448426B81681721F084E090E0CC
:103A90000E94844288E390E2F2D2CE0101960E9415
:103AA00034488A818230C9F7698188E390E2FED286
:103AB000682F82E0860F823080F3862F6B83B1DF20
:103AC0008093242685E090E00E9448426B8168172D
:103AD00021F085E090E00E9484422396CDBFDEBFB6
:103AE000DF91CF910895CF93DF9384E090E00E941F
:103AF000484294EF980F90932526893120F48093C3
:103B00004C20D0E006C0109225268CE080934C20FB
:103B1000D1E085E090E00E944842C82F843040F414
:103B200080DF80932426C0933D20D13041F404C02F
:103B30001092242610923D20DF91CF9183CFDF9108
:103B4000CF9108958093262690932726089550E0DC
:103B500030E8639F400D511D1124A0912626B0919D
:103B60002726A40FB51FFC01280F81918D932E13DA
:103B7000FCCF0895E0912626F091272690E8899FB2
:103B8000E00DF11D1124E60FF11D40830895E09131
:103B90002626F091272690E8899FE00DF11D11243B
:103BA000E60FF11D80810895FF920F931F93CF932D
:103BB000DF93C82FE42FF0E0E80FF11DE138F105A5
:103BC00014F040E8481B442309F44EC0162F169504
:103BD0001695169538EF3103F0011124E60FF11D0B
:103BE00061E070E00E2E01C0660F0A94EAF7062F1E
:103BF000213031F040F02230B9F5DFEFD40F26C08C
:103C0000DFEFD40F05C0DFEFD40FF62EF0940FC016
:103C1000FD2EFC0E6F2D812F0E945610482F402B39
:103C20006F2D812F0E94E80FD15090F71DC00D2FEE
:103C30000C0F602F812F0E945610482F4F21602FAC
:103C4000812F0E94E80FD15090F70EC0FD2EFC0E80
:103C50006F2D812F0E945610482F40276F2D812FE6
:103C60000E94E80FD15090F7DF91CF911F910F91F3
:103C7000FF900895EF92FF920F931F93CF93DF93DE
:103C8000082FF22E442309F44DC09FEF960F940F96
:103C9000691309C0422FDF91CF911F910F91FF90BF
:103CA000EF900C9413109F3108F09FE1162F16959A
:103CB00016951695E92EE694E694E6946770CFEF94
:103CC000D0E0AE01062E01C0440F0A94EAF79770C7
:103CD000E7E0F0E0E91BF10902C0D595C795EA9548
:103CE000E2F71E1105C04C232F2D602F812F12C02B
:103CF0002F2D602F812F0E9458101F5F2F2D1E1512
:103D000030F44FEF602F812F0E945810F6CF4C2FC8
:103D1000602F8E2DDF91CF911F910F91FF90EF902B
:103D20000C945810DF91CF911F910F91FF90EF905D
:103D30000895FF920F931F93CF93DF93C82FD62F31
:103D4000F42E122F202F30DF6FEF610F6D0F202F19
:103D50004F2D8C2F29DF202F412F6D2F8C2F8ADFA5
:103D60008FEF8F0D202F412F6D2F8C0FDF91CF9173
:103D70001F910F91FF907ECFFF920F931F93CF93D0
:103D8000DF93D82FF62E142F222351F0CFEFC20F3E
:103D90006C2F6F0D202F412F8D2F06DFC150C0F7E4
:103DA000DF91CF911F910F91FF9008958F929F9275
:103DB000AF92BF92CF92DF92EF92FF920F931F9339
:103DC000CF93DF93E82ED62E142FC22E41110FC0B1
:103DD000422FDF91CF911F910F91FF90EF90DF90D5
:103DE000CF90BF90AF909F908F900C941310C42FE2
:103DF000D0E0D195C195D109CC0FDD1F2396BB240E
:103E0000B394F12C802F8370A82E802F8C70982E65
:103E1000802F8073882E007CAA2079F02C2D4B2DCA
:103E20006D2D6F19812F8E0D25DF2C2D41E0410F57
:103E30006D2D611B8F2D8E0D1DDF992079F02C2D9E
:103E40004B2D6D2D6F198E2D811B14DF2C2D41E014
:103E5000410F6D2D611B8E2D8F190CDF882069F0AD
:103E60002C2D4B2D6D2D8E2D811B04DF2C2D41E033
:103E7000410F6D2D8E2D8F19FDDE002369F02C2D45
:103E80004B2D6D2D812F8E0DF5DE2C2D41E0410F38
:103E90006D2D8F2D8E0DEEDEEF2DF0E0D7FF08C0DB
:103EA000EE0FFF1FEE0FFF1F3696CE0FDF1F0AC06B
:103EB000E11BF109EE0FFF1FEE0FFF1F3A96CE0F29
:103EC000DF1F1150F394B3941F1508F0A5CFDF91B5
:103ED000CF911F910F91FF90EF90DF90CF90BF9007
:103EE000AF909F908F900895CF92DF92EF92FF92C4
:103EF0000F931F93CF93DF93EC01D62EE42EF9801E
:103F0000F694F694F694E694E694E6948A818823EF
:103F100021F0813099F510E004C000E010E01AC0F3
:103F20001F5F1F1559F100E0C12ECE0C288102172A
:103F3000B8F7129F90011124200F311DEB81FC81F5
:103F4000E20FF31F4491602F6D0D8C2D0E94E80F3E
:103F50000F5FECCF0F1590F428816E2D600F209F1E
:103F6000C001219F900D1124EB81FC814D2D8E0FFE
:103F70009F1F0E94C90F0F5F1F4FECCFDF91CF91A2
:103F80001F910F91FF90EF90DF90CF900895CF9207
:103F9000DF92FF920F931F93CF93DF931F92CDB7C2
:103FA000DEB76C01DC0115961C9115978BEA189F02
:103FB000112D1124169516968C91811302C066233B
:103FC00049F000E028E140E868E080E0D5DE81E0EB
:103FD00080932826F601168300E028E144E068E09B
:103FE00080E0CADED60115964C918BEA489F812D60
:103FF00011248695982F990F980F491B440F440F51
:10400000440F485F60E080E890E26EDF80912826F0
:10401000882361F1F12EFF0CF10E812F90E00196C3
:104020008C01000F111F080F191F58E08F2D90E011
:1040300080179107CCF4F6012481F216A8F4880FBA
:10404000991FD6011296ED91FC911397E80FF91F75
:104050002FE830E2452F65E0808191815983A6D316
:10406000F3945981585FE2CF109228260F90DF9188
:10407000CF911F910F91FF90DF90CF9008950F93F4
:10408000CF93DF93EC0100E020E240E860E080E0C5
:1040900073DE2FE830E240E060E08881998186D3CA
:1040A00061E0CE01DF91CF910F9171CFFC016D30B6
:1040B00011F120F4683009F58EEF08956632A1F011
:1040C0006832D9F44581242F30E0848190E0019753
:1040D0002817390711F4158202C04F5F458360E04D
:1040E000CF0155DF8FEF08958581811101C0848153
:1040F00081508583F4CF858108958FEF0895482FEF
:1041000060E085E890E2F0CEFF920F931F93CF938B
:10411000DF93CDB7DEB76897CDBFDEBFF82E00E0E6
:1041200027E040E868E180E027DE67E672E2CE0142
:1041300001960E947D529E01295E3F4FAE01485E6E
:104140005F4F6FE870E2CE0101965DD3888D60E825
:1041500070E0681B710977FF02C06F5F7F4F8B01B2
:10416000159507952FE830E248E1602FCE010196C2
:10417000F4D28CEF800FFF2031F048E1682F85E802
:1041800090E2B2DE05C000E028E044E068E1F4DD42
:104190006896CDBFDEBFDF91CF911F910F91FF9049
:1041A0000895CF92DF92EF92FF920F93CF93DF9318
:1041B000CDB7DEB72997CDBFDEBF7C01662381F086
:1041C00000E027E040E8DC011C966C9180E0D4DD43
:1041D0002FE830E2F701448565E080819181E6D2E5
:1041E000D7011D968C911D97882339F01C964C9110
:1041F0006CE78AE890E278DE07C000E028E044E05F
:10420000F70164858CE7B8DDD70112968C9112977F
:10421000813039F514968C9114978F9313968C9165
:104220008F938CEF92E29F938F931F9289E08F93ED
:10423000FE0131966F01DF92EF930E945A5300E026
:1042400027E042E3D7011C966C918AE495DD2FE8C4
:1042500030E2F70144856AE4C6017FD2CDBFDEBFFC
:104260001FC081111DC0D7011596DC90159700E085
:1042700027E042E31C966C918AE47EDDF70193818E
:104280008481E92FF82FED0DF11DED0DF11D2FE8C3
:1042900030E2D7011C964C916AE48081918186D2EC
:1042A0002996CDBFDEBFDF91CF910F91FF90EF90A8
:1042B000DF90CF900895CF92EF92FF920F931F93CC
:1042C000FC0140835183628300871187E286F38675
:1042D000C486158606831783611104C02383348343
:1042E000058302C0038314831F910F91FF90EF9009
:1042F000CF900895FC0110861582148281E0818799
:104300000895CF93DF93FB012481233018F5220F0A
:10431000220F220FDC011C962C933481311103C033
:104320008083918312C0A081B18121E0231731F0F5
:104330001E960D90BC91A02D2F5FF8CF1E968D93E9
:104340009C931F97EC01A88BB98B82839383848104
:104350008F5F8483DF91CF910895FF920F931F9316
:10436000CF93DF93EC0100E020E240E860E080E0E2
:1043700003DD8C818823C9F008811981F12C8C819F
:10438000F81640F461E0C8010CDFF80106851785D6
:10439000F394F5CF80E0B8DEE881F9818485DF9180
:1043A000CF911F910F91FF90AACEDF91CF911F91D6
:1043B0000F91FF900895CF93DF93EC016D3009F4D6
:1043C00058C020F4683009F477C089C0663251F1D2
:1043D000683209F084C08D85882309F480C08A8101
:1043E000813081F48B819C81288539852817390794
:1043F00024F401978B839C8359C08A859B858B838A
:104400009C8354C0811152C04D81242F30E0888597
:104410009985821793071CF441504D8347C08A85C4
:104420008D8344C08D85882309F459C08A818130E9
:1044300081F48B819C812A853B858217930724F424
:1044400001968B839C8332C0888599858B839C835E
:104450002DC081112BC04D81242F30E08A859B8592
:10446000281739071CF44F5F4D8320C088858D8342
:104470001DC08D858823C1F08A81813049F41D8655
:1044800060E0CE018EDE8B819C818E839F8329C06C
:10449000811112C01D8660E0CE0183DE2D8130E0E7
:1044A0002E833F83C9011DC081E08D8760E0CE016E
:1044B00078DE8FEF90E015C01D868A81813029F467
:1044C0008E819F818B839C8304C0811102C08E8169
:1044D0008D8360E0CE0165DE8EEF90E002C08FEF4D
:1044E00090E0DF91CF910895EF92FF920F931F9389
:1044F000CF93DF93EC018A018C81882309F4C4C037
:104500008985882349F1A881B98120E08C81281709
:1045100010F512968C911297E22FF0E0813059F449
:1045200013968D919C911497EE0FFF1FE00FF11FD2
:10453000808391830AC0EE0FFF1FE00FF11F1596D5
:104540008C91159790E0808391831E960D90BC917D
:10455000A02D2F5FDBCF1986E880F9802D812F3FBA
:1045600051F080E0821739F0D7011E96ED90FC9053
:104570001F978F5FF7CF88858823B1F0C7011BDFB6
:104580008E839F838E3F910559F08F3F910549F0AF
:104590002D81F801E20FF11DE20FF11D808391835F
:1045A00018868FEF90E075C06D3009F463C020F479
:1045B000683009F469C0F5CF663251F1683289F785
:1045C0002F3F49F41D8280E09FDDF701848597DD50
:1045D0008FEF90E05EC030E08C8190E0019700E0CA
:1045E000281739070CF039C028E044E0D7011C96A1
:1045F0006C9180E0C1DB8D818F5F8D83D7011E962A
:10460000ED91FC911F9784857ADD8FEF90E041C09A
:104610002F3F61F480E078DD8C8181508D83EA81C9
:10462000FB8184856CDD8FEF90E033C000E02223B6
:10463000A1F028E044E0D7011C966C9180E09CDB5F
:104640008D8181508D83D7015096ED91FC915197CA
:10465000848555DD8FEF90E01CC028E044E0F70131
:10466000648580E089DB8FEF8D8381E04DDD8FEF06
:1046700090E00FC02F3F59F06DE0C7019CDE81E054
:1046800088878FEF90E005C08EEF90E002C08DEF3D
:1046900090E0DF91CF911F910F91FF90EF900895DF
:1046A0009F92AF92BF92CF92DF92EF92FF920F93C1
:1046B0001F93CF93DF93182FC62EE42EE90100E05D
:1046C0002C814B816E2D8C2D57DB8881811139C057
:1046D0009B81A92FA695A695A695977009F0AF5F27
:1046E000FC80AF9DD0011124212F30E08D81281B4B
:1046F0003109A29FF001A39FF00DB29FF00D11248C
:1047000009811A810E0F1F1FBE2CBF0C9B2C9F18F6
:10471000AB80D12CE12C8E2D8C0DEA1481F09E2DD6
:10472000977021F4F801D4900F5F1F4FD7FE04C09B
:1047300041E0692D0E941310DD0CE394ECCFFA9454
:1047400029F7DF91CF911F910F91FF90EF90DF90AC
:10475000CF90BF90AF909F900895DF92EF92FF921D
:104760000F931F93CF93DF93D62EE42E8901EC0194
:10477000F62E89918A3031F4F80184818F5FE80E3A
:10478000FD2C09C08D3039F098014E2D6F2D88DF3A
:10479000F8018381F80E88818111EBCFDF91CF91F1
:1047A0001F910F91FF90EF90DF900895DF92EF92AD
:1047B000FF920F931F93CF93DF93EC01D62EE42E3D
:1047C0008901FC018491F62E8823A9F08A3031F406
:1047D000F80184818F5FE80EFD2C09C08D3039F01F
:1047E00098014E2D6F2D5CDFF8018381F80E219624
:1047F000FE018491E9CFDF91CF911F910F91FF903E
:10480000EF90DF900895FB01B3817481FC01972F35
:1048100080E061E0A191AA3019F4970F80E006C012
:10482000AD3021F08B0F681708F4682FA081A1111B
:10483000F1CFFA016083F9019083089510924F2619
:1048400081E08093BD208093BC20089580E008958E
:10485000E4E5F6E282E1DF011D928A95E9F780EF57
:1048600080838AE080935B260895F2DF1092CC204B
:1048700008950F931F9305E316E22FE130E04CE615
:1048800056E261E082E00E946632811107C069E36E
:1048900074E282E01F910F910C942D331F910F91C0
:1048A0000895E7CFCF9310924F261092502681E0C3
:1048B0008093BD208093BC200E943442811103C0AC
:1048C0001092682610C0815080936826C0E08091C5
:1048D00068268C1730F060E08C2F0E943A42CF5F40
:1048E000F6CFC7DF81E0CF9108950F931F9301E5C5
:1048F00014E22DE030E040EC50E260E081E80E94FC
:104900006632811107C065E774E281E81F910F915B
:104910000C942D331F910F9108958091C820909190
:10492000C920A091CA20B091CB20892B8A2B8B2B38
:1049300049F08091782687FF02C081E801C082E0BB
:104940000E941D338091702690917126A09172264D
:10495000B09173268093C4209093C520A093C62065
:10496000B093C720C2CF80915026882341F082E0C7
:104970000E941D3363EB74E282E00C942D330895A2
:1049800080915026882341F081E80E941D3360EC1D
:1049900074E281E80C942D330895CF93DF93EB01FB
:1049A000811118C062DF8091C8209091C920A09128
:1049B000CA20B091CB208C1B9D0BA109B10980931B
:1049C000C8209093C920A093CA20B093CB20DF9138
:1049D000CF91A3CFDF91CF9108959091F327892FA5
:1049E000807697FF1EC08032D9F58091F4278E3FE4
:1049F000B9F58091F9279091FA278130910581F5D9
:104A00002091F5273091F627232B51F528E636E241
:104A10002093FB273093FC278093FD279093FE275C
:104A20001DC08032E9F48091F4278F3FC9F4809152
:104A3000F9279091FA27892B99F48091F527909185
:104A4000F627892B69F41092502610924F2682E0A7
:104A50000E94E93281E80E94E9320BDF81E008958B
:104A600080E00895CF93DF9300D0CDB7DEB76A839F
:104A70007B838983EDDE91E09093CC2089818093C4
:104A800056261092572610925826109259261092A8
:104A90005A267B81709360266A81609361262396F3
:104AA000CDBFDEBFDF91CF91089560E07AE382E071
:104AB000D9CF60E078E286E0D5CF60E070E084E0B6
:104AC000D1CF0F931F93262F30E00DEC14E2AC01F1
:104AD00061E081E80E946632811104C0EEDF1F911F
:104AE0000F911BCF1F910F91089560E074E285E054
:104AF000B9CF0F931F9320917826422747FD0DC011
:104B00000091C8201091C9202091CA203091CB205B
:104B1000061717072807390720F4E7DFFEDE80E0D5
:104B200001C081E01F910F9108951F93CF93DF93F0
:104B3000182F84E1E4E3F6E2DF011D928A95E9F79C
:104B4000112331F020918326ECE3F6E2C8E005C0A2
:104B500020917F26E8E3F6E2C4E090917D269F73E2
:104B60009C3111F09F3339F48CE180838AE081839A
:104B700085E08383C45FDC2F2C1708F4D22F8D2FA0
:104B800090E0A0E0B0E040E8BC01CD01B2DF8823B6
:104B900021F1809179260E943C42882311F020E87F
:104BA00001C020E0112369F08C2F90E00297982734
:104BB000892798278093342690933526209337268B
:104BC00005C0C150C0933426209336266D2F84E350
:104BD00096E2DF91CF911F9174CFDF91CF911F911A
:104BE0000895CF93C82F81110CC0809179260E941F
:104BF0003C42882331F060E077E287E033DFCF91F9
:104C00008CCE80917D2680934D2680917E26809348
:104C10004C2680917F2680934B268091802680931E
:104C20004A2680918226809349268091832680930C
:104C30004826609148267091492680E090E029E05E
:104C4000660F771F881F991F2A95D1F7CC2311F083
:104C500040E801C040E04DDF882329F0C0934E2694
:104C600081E080934F26CF910895CF9381111FC18A
:104C70006F31710569F480916C2690916D26A09139
:104C80006E26B0916F2685359345A244B34431F02A
:104C900081E08093502667DECF9172CE8091792695
:104CA0008F708093792690916826981708F4F2C047
:104CB00040917426509175266091762670917726E2
:104CC0004093C8205093C9206093CA207093CB2092
:104CD00090917B269E3109F4D9C080F49231B1F1D4
:104CE00030F4992309F482C09330E1F0D8C09A31AE
:104CF00009F479C09B3109F4C0C0D1C09A3209F4DB
:104D0000CBC040F4953209F47DC0983209F0C7C099
:104D100081E0C3C09F3209F4C8C09A3509F0BFC012
:104D200081E062C0C0917F26C33108F0C2E18C2FC0
:104D300090E0A0E0B0E040E8BC01CD01DADE8823DD
:104D400009F4B5C06C2F84E596E24BC0C0917F2674
:104D5000C53208F0C4E28C2F90E0A0E0B0E040E85B
:104D6000BC01CD01C6DE882309F4A1C080917C2658
:104D7000837009F08FC080917D2681118BC0809156
:104D800079260E943E42882311F080E801C080E02D
:104D900080939920809179260E94404220E1FC0175
:104DA0003196A8EAB0E201900D922A95E1F7E8EA7F
:104DB000F0E280E09191992311F0923211F490E2A7
:104DC00004C08F5F8031B1F7FACF803139F0E82F1E
:104DD000F0E0E855FF4D90838F5FF7CF6C2F88E9A7
:104DE00090E2CF916ECE80E0CF919FCE0E9436426E
:104DF000823009F440C08330E1F1882309F455C0C2
:104E00005CDE51C040E868E070E080E090E071DE78
:104E1000882309F44CC06CE276E2809179260E94E6
:104E20003842823041F1833021F18111E9CF80E0B5
:104E300090E0A2E0B0E08093302690933126A093DA
:104E40003226B093332660912C2670912D268091C6
:104E50002E2690912F260E94E95060932C26709365
:104E60002D2680932E2690932F2668E08CE296E2E2
:104E7000B8CF1FDE18C019DE16C060917F2661FF13
:104E800014C0609561700E943A420FC080917F26E5
:104E9000882359F02ADE07C080E0CF91A2CE60E0DF
:104EA00070E285E0DFDDCF9138CDDFDCFCCFCF9144
:104EB00008958091F5278F770C94DC31909192269C
:104EC000992361F1E0919026F09191260190F08173
:104ED000E02D9481891710F5E0938E26F0938F26AC
:104EE000228133812E0F3F1FE217F30798F491813F
:104EF000943061F49281891309C09381691306C0CB
:104F0000E0938E26F0938F2681E008959081E90F3B
:104F1000F11DEACFE0938E26F0938F2680E008956E
:104F2000E0919026F09191260190F081E02D228170
:104F300033812E0F3F1FFC014081E40FF11DE2176A
:104F4000F30748F48181843031F0853039F0808175
:104F5000E80FF11DF4CF80E090E00895CF010895AF
:104F60001F93CF93DF93182FA9DF882341F1C091BE
:104F70008E26D0918F26CE01D3DFEC01009749F029
:104F80004C815D816B818A810E94EB318111F3CF6D
:104F900016C0E0919026F091912692818381E92FAD
:104FA000F82FE10FF11DE10FF11D0190F081E02DCF
:104FB0000190F081E02DDF91CF911F91199480E055
:104FC000DF91CF911F910895FF920F931F93CF937D
:104FD000DF93C82F60E072DFF82E882369F1E0913B
:104FE0009026F091912692818381E92FF82FEC0F82
:104FF000F11DEC0FF11D00811181D8011696ED9184
:10500000FC9117971995682F8C2F58DFF82E88235D
:1050100099F0C0918E26D0918F26CE0181DFEC01D0
:10502000009721F08A810E941433F7CFD80112969D
:10503000ED91FC91139719958F2DDF91CF911F91D1
:105040000F91FF900895CF938091922681110AC00D
:105050001092922681E090E0809396269093972676
:10506000CF910895C0E0E0919026F09191260190B3
:10507000F081E02D8481C81758F78C2FA5DFCF5F12
:10508000F2CFCF93809192268823F1F0C0E0E09197
:105090009026F0919126A081B18114968C91C81729
:1050A00098F492818381E92FF82FEC0FF11DEC0F1A
:1050B000F11D0190F081E02D0084F185E02D309705
:1050C00009F01995CF5FE3CFCF910895CF92DF928A
:1050D000FF920F931F93CF93DF931F92CDB7DEB74D
:1050E0001092FD271092FE271092FF2710920028A1
:1050F00010920128109202282091F32727FF07C061
:105100008091F9279091FA27892B09F442C2822FC6
:10511000807609F0CFC127FFF9C08091F9279091DF
:10512000FA27009709F4C6C12F7109F096C02091A3
:10513000F427263069F0283009F487C02111BAC15C
:10514000029709F0B7C162E070E086E996E2DBC041
:105150002091F5273091F627832F992782309105EA
:1051600091F05CF4019709F0A5C18091EE20909137
:10517000EF20DC016C9170E055C08330910589F11E
:105180000F9711F197C1E091EE20F091EF20818906
:10519000281708F08FC13327220F331F220F331F28
:1051A000E091F020F091F120E20FF31F80819181D6
:1051B000FC01628173810E94E231E091FB27F09152
:1051C000FC2782E0818330C08091F2209091F3200F
:1051D000009709F46FC1DC0112966D917C911397D1
:1051E00021C033272115310549F02330310509F05D
:1051F00061C1EAE6F2E2ACEDB0E205C064E070E065
:105200008AEE90E20FC0819190E08D939D9382E2AF
:10521000E137F807C1F780E18093DA2060E170E0C0
:105220008AED90E20E94E2318091F9279091FA276D
:105230002091FD273091FE278217930708F038C18F
:105240008093FD279093FE2733C1019709F032C167
:1052500061E070E082E996E256C02130E9F52091E4
:10526000F4272A3009F026C1019709F023C1809163
:105270009226882309F41EC1C090F727D090F82702
:105280000091902610919126D801ED91FC91848196
:10529000C81608F00FC160E08C2D10DEF82E8823B0
:1052A00009F408C1DD24CC0CDD1CD8011296ED9167
:1052B000FC911397EC0DFD1D0190F081E02D06800F
:1052C000F781E02D19958093942661E070E084E9E0
:1052D00096E20E94E231EAC0223009F0EBC0209150
:1052E000F4272111E7C0029709F0E4C08091F72765
:1052F0000E94463290E080938C2690938D2662E047
:1053000070E08CE896E20E94E231D2C02F7109F081
:105310007EC08091F427833009F4CCC018F481302A
:10532000A1F0C8C0853019F0893039F1C3C080912F
:10533000F9279091FA27892B09F0BCC089E597E2FB
:105340008093FF2790930028B3C08091F927909114
:10535000FA27892B09F0AEC08091F5279091F627A6
:10536000019709F0A7C080919626909197268D7F8E
:1053700080939626909397269BC08091F9279091D1
:10538000FA27892B09F096C00E94DF31882309F49F
:1053900091C08091F5279091F6279927E091EE2012
:1053A000F091EF20218930E02817390708F482C0F6
:1053B0004ADE2091F5273091F6272093922622236A
:1053C00009F476C033272150304C220F331F220FAF
:1053D000331F8091F0209091F120820F931F8093D2
:1053E00090269093912610E0E0919026F0919126DE
:1053F0000190F081E02D8481181708F059C060E019
:10540000812FAEDD882309F455C01F5FEDCF213019
:10541000F1F48091F4278B3009F04CC08091F9278A
:105420009091FA27892B09F045C080919226882314
:1054300009F440C01091F7276091F527812F698307
:10544000C3DD69818823B1F1812F8ADD2EC022302E
:1054500089F58091F427813019F0833091F02AC0CA
:105460008091F9279091FA27892B21F58091F527D2
:105470009091F627892BF1F48091F7270E944D3205
:1054800014C08091F9279091FA27892B99F4809183
:10549000F5279091F627892B69F48091F7270E94D0
:1054A000E9328091F7270E941D33F82EFF2011F07A
:1054B00081E070C08091F3278F718130B9F58091C0
:1054C0009226882399F1C090F727D090F827009171
:1054D000902610919126D801ED91FC918481C816F7
:1054E00028F560E08C2DEADC882301F1C6019927BC
:1054F000880F991FD8011296ED91FC911397E80F30
:10550000F91F00811181D8011696ED91FC91179732
:105510001995682F8C2DD2DC882341F0D801149680
:10552000ED91FC91159719958111C2CF8091F327C8
:105530008F71823071F580919226882351F110E0AD
:10554000E0919026F0919126A081B18114968C91E2
:105550001817F8F492818381E92FF82FE10FF11DDC
:10556000E10FF11DC080D180D6011696ED91FC911E
:1055700017971995682F812FA1DC882351F0D60148
:105580001496ED91FC9115971995811191CF1F5F9C
:10559000D7CF80E00F90DF91CF911F910F91FF90B7
:1055A000DF90CF900895CF93DF931F92CDB7DEB7F2
:1055B0008091052890910628E091ED27F091EE2743
:1055C000BE016F5F7F4F19958981992787FD90955F
:1055D0000F90DF91CF9108952FB7F894811532E0A5
:1055E000930729F46093F1277093F22707C0803462
:1055F000924021F46093EF277093F0272FBF089516
:10560000811522E0920759F48091992691E0980F34
:1056100090939926811112C062E081E00DC0803420
:10562000924061F48091982691E0980F909398268B
:10563000811104C062E082E00C940C3F0895811552
:1056400022E0920751F48091992681508093992607
:10565000811111C062E081E00CC08034924059F4A5
:1056600080919826815080939826811104C062E031
:1056700082E00C94183F08951F93CF93DF93EC01C1
:105680001FB7F894BDDF8881816088831FBF809138
:1056900008288F3F09F4FFCF9FB7F894809108281E
:1056A0008F5F809308289FBFDF91CF911F9108954E
:1056B000CF93DF93E0919A26F0919B26848183FF1C
:1056C00006C08860848383E0838386EF7DC0982F43
:1056D000947121F083E083838FEF76C086FF40C012
:1056E000A0919C26B0919D2680919E2690919F2608
:1056F00014962D913C9115978217930764F49C01A1
:105700002F5F3F4F20939E2630939F26A80FB91FEF
:1057100011968C9121C08091A0269091A126189677
:105720002D913C91199782179307C0F42091A226DE
:10573000222321F086818160868348C016960D90D1
:10574000BC91A02D9C012F5F3F4F2093A02630934A
:10575000A126A80FB91F8C91878338C083E02BC086
:1057600087FF31C0A0919C26B0919D268091A026F4
:105770009091A12618962D913C9119978217930725
:10578000F0F41696CD91DC9117979C012F5F3F4F57
:105790002093A0263093A1264781C80FD91F4883A4
:1057A00018968D919C9119972817390718F482E063
:1057B00083830CC087E083831092A42607C083E014
:1057C000838389EF01C08BEF8093A426DF91CF9173
:1057D00008951F920F920FB60F9211240BB60F92DD
:1057E0002F933F934F935F936F937F938F939F93E9
:1057F000AF93BF93EF93FF935BDFFF91EF91BF9167
:10580000AF919F918F917F916F915F914F913F9158
:105810002F910F900BBE0F900FBE0F901F901895F9
:105820001F920F920FB60F9211240BB60F922F9367
:105830003F934F935F936F937F938F939F93AF9318
:10584000BF93EF93FF9334DFFF91EF91BF91AF913F
:105850009F918F917F916F915F914F913F912F9188
:105860000F900BBE0F900FBE0F901F901895FC016C
:10587000DB0114968C91858388EB818381E084839E
:105880001092A3261092A426E0EAF0E082818260C2
:105890008283789480E00895FB01009709F443C067
:1058A000309709F440C032852091A326222321F0AD
:1058B0003323E1F386EF08952FB7F89431E0309366
:1058C000A32630E83093A4262FBF80939A26909386
:1058D0009B26E0939C26F0939D2610929E26109284
:1058E0009F261092A0261092A1264093A2265081B6
:1058F000550F24813581232B11F441115160FC0196
:1059000056838091A4268038E1F3E0919A26F091A5
:105910009B2684818370813009F0F7CF8091A42683
:105920001092A326089588EF0895009709F4B4C053
:10593000803C910511F460E105C0803821E09207B8
:1059400019F462E080E0A6C0811521E0920711F40D
:1059500061E0F8CF803823E0920711F461E00BC0DA
:10596000803923E0920711F461E012C0811522E032
:10597000920719F462E081E08DC0803422E0920742
:1059800011F462E005C0803223E0920719F464E06C
:1059900082E080C0811528E0920711F461E073C0B5
:1059A000811529E0920711F461E066C081152AE0B3
:1059B000920711F461E06DC081152BE0920711F49C
:1059C00061E04DC0803428E0920711F462E05BC0D2
:1059D000803429E0920711F462E04EC080342AE05E
:1059E000920711F462E055C0803928E0920711F463
:1059F00064E049C0803929E0920711F464E03CC0BA
:105A000080392AE0920711F464E043C080392BE02A
:105A1000920711F464E023C0803C28E0920711F45F
:105A200068E031C0803C29E0920711F468E024C0AE
:105A3000803A28E0920711F460E125C0803A29E01D
:105A4000920711F460E118C0803A2AE0920711F43D
:105A500060E11FC0803A2BE0920719F460E186E014
:105A600019C0803B28E0920711F460E20CC0803B33
:105A700029E0920719F460E284E00CC0803824E049
:105A8000920719F460E483E005C0803A944021F461
:105A900060E485E00C940C3F0895FC01218125FF12
:105AA000FCCF608380E090E00895FC01218127FF16
:105AB000FCCF808108958F929F92AF92BF92CF9238
:105AC000DF92EF92FF920F931F93CF93DF93EC013E
:105AD0006A017B0148015901B901A801A3E076954B
